:030000000230517A
:0C305100787FE4F6D8FD758120023098ED
:0637CB00496E6974210043
:0812BC004504BC000000000025
:10346000122BF57BFF7A3779CB7D037F0D122FAFBF
:103470007FF47E011236A71234AD1235859004D147
:10348000E0FAA3E0FB7D037F0D1227FB9004751289
:1034900008B2435200007B017A047974E4FF122AD7
:0D34A000BE7F327E001236A71234AD80D000
:1036A700E4FDFCC3ED9FEC9E50100079207B28DBE6
:0A36B700FED9FC0DBD00010C80E9F6
:0136C10022E6
:1036DD00E4FDFCC3ED9FEC9E500B7B06DBFE0DBDA8
:0536ED0000010C80EE5D
:0136F20022B5
:10227100EFD394057480948040037F01221205639B
:10228100FED394037480948040037F0222EF704454
:10229100EE700B90000112057CF4529352941205DA
:1022A100636401700B90000112057C4293F4529417
:1022B100120563FE6402700A90000112057C4293CC
:1022C1004294EE6403700D90000112057CFEF452FD
:1022D10093EE4294EF64017046120563FE700B9019
:1022E100000112057CF452915292EE6401700B9040
:1022F100000112057C4291F452921205636402704E
:102301000A90000112057C42914292120563640316
:10231100700D90000112057CFEF45291EE4292EF95
:1023210064027046120563FE700B90000112057C79
:10233100F452955296EE6401700B90000112057CE7
:102341004295F452961205636402700A90000112DC
:10235100057C429542961205636403700D9000015D
:1023610012057CFEF45295EE4296EF64037046121C
:102371000563FE700B90000112057CF452B152B25C
:10238100EE6401700B90000112057C42B1F452B26F
:102391001205636402700A90000112057C42B14289
:1023A100B21205636403700D90000112057CFEF406
:1023B10052B1EE42B2EF64047046120563FE700B37
:1023C10090000112057CF452B352B4EE6401700B1B
:1023D10090000112057C42B3F452B4120563640209
:1023E100700A90000112057C42B342B41205636485
:1023F10003700D90000112057CFEF452B3EE42B45D
:10240100EF64057049120563FF7E00700B900001B7
:1024110012057CF452C952CAEF64014E700B900050
:102421000112057C42C9F452CA1205636402700AA2
:1024310090000112057C42C942CA1205636403700F
:102441000D90000112057CFFF452C9EF42CA7F00D2
:012451002268
:1034F500EFFD7C00701075BA9090FE8074E0F0903E
:10350500FE82E4F0801EED64014C701875BA80905F
:10351500FE807481F090FE85745AF090FE84E4F08C
:0835250090FE83F0E4F5BA22E8
:10316900D200D201E49004D5F0E02400F8E290FE08
:1031790086F090FE84E030E605E054BFF02290FE30
:1031890084E030E52DE054DFF0300003C200223046
:10319900010DC20190FE87E09004D5F0E0802F90E8
:1031A900FE87E0FF9004D5E0FE04F074002EF8EFEE
:1031B900F22290FE84E030E41EE054EFF0E030E1CA
:1031C9000790FE8674FFF0229004D5E004F02400F5
:1031D900F8E290FE86F02290FE84E030E308E054A5
:0731E900F7F0D200D2012231
:0C37930090FE82E030E6F9E054BFF02226
:09379F0090FE817401F0023793E1
:1037450090FE86EFF090FE817402F01237930237F7
:01375500A8CB
:0937A80090FE817403F0023793D6
:0F37670090FE817404F012379390FE87E0FF22EA
:0E37850090FE82E4F090FE817405F00237930E
:0F37760090FE827401F090FE817405F00237938B
:0937B10090FE817406F0023793CA
:10371F00E4FFFE000000000FBF00010EBE0BF4BF60
:02372F00B8F1EF
:013731002275
:10375600E59A30E103539AFDE59A30E003539AFE69
:013766002240
:030023000231F0B7
:1031F000C0E0C083C082C0D075D000C006C0073018
:103200009831C2989003B6E070299003B4E0C3945B
:103210000B748094804002E4F09003B4E0FF04F06B
:1032200074BE2FF582E43403F583E599F09003B57D
:103230007405F0309934C2999003B2E0FF9003B165
:10324000E0FE6F602074D42EF582E43403F583E051
:10325000F5999003B1E004F0C3940B74809480401E
:1032600009E4F080059003B3E4F0D007D006D0D095
:07327000D082D083D0E032D0
:030043000232770F
:10327700C0E0C083C082C0D075D000C006C00712AE
:1032870037569003BDE070299003BBE0C3940B74DD
:103297008094804002E4F09003BBE0FF04F074C91F
:1032A7002FF582E43403F583E59BF09003BC7405A6
:1032B700F01237569003B9E0FF9003B8E0FE6F6055
:1032C7002074DF2EF582E43403F583E0F59B900349
:1032D700B8E004F0C3940B748094804009E4F08054
:1032E700059003BAE4F0D007D006D0D0D082D083BF
:0332F700D0E032F2
:100E9C00900496EBF0A3EAF0A3E9F0900495EFF040
:100EAC00D2AF640160030211139003B004F0E4A309
:100EBC00F0A3F0A3F0A3F0A3F0A3F0900499F090AA
:100ECC000499E0FFC3940B74809480501474D42F55
:100EDC00F582E43403F583E4F0900499E004F080A7
:100EEC00DEE4900499F0900499E0FFC3940B7480B5
:100EFC009480501474BE2FF582E43403F583E4F02F
:100F0C00900499E004F080DE900496E0FBA3E0FAF4
:100F1C00A3E0F9120563FD7C00D394C07480948027
:100F2C0040037F022290000A12057C64017004D2F7
:100F3C00BC8002C2BC120563FFE598543F4FF59884
:100F4C00ED64C04C6008EF6440600302103E9000FA
:100F5C00021208767F807E8D7D5B7C0012070490E8
:100F6C00049A1208A6E4FFFE7D01FC90049AE0F8B6
:100F7C00A3E0F9A3E0FAA3E0FBC31207A440037FAC
:100F8C00022290049AE0F8A3E0F9A3E0FAA3E0FBB4
:100F9C00C3E49BFFE49AFE740199FDE498FC900471
:100FAC009A1208A6900496E0FBA3E0FAA3E0F9904D
:100FBC00000112057CFB7A0064017038C28E538EDE
:100FCC00FE5389BF5389CF438E4090049AE0FCA313
:100FDC00E0FDA3E0FEA3E0FF78081207B58F8D902B
:100FEC00049AA3A3A3E0F58BC2AB5389BF538FFD27
:100FFC00D28E807DEB64024A7035538EEF438E01A6
:10100C00538EF7438E0490049AE0FCA3E0FDA3E01A
:10101C00FEA3E0FF78081207B58FD690049AA3A31D
:10102C00A3E0F5D753AFFB538EF7438E1080427F6E
:10103C000222900496E0FBA3E0FAA3E0F912056308
:10104C00FF7E00701490000812057C64017005434B
:10105C008E20801D538EDF8018EF64804E701290AE
:10106C00000812057C640170054387808003538758
:10107C007F900496E0FBA3E0FAA3E0F9900009123C
:10108C00057C64017004D2AC8002C2AC90000712E3
:10109C00057C64017004D29C8002C29C90000B12EF
:0410AC00057C700A45
:0810B00090049E7403F0A314E8
:1010B800802F900496E0FBA3E0FAA3E0F990000BE0
:0A10C80012057C648090049E7011F4
:0F10D2007403F0A37480F07B017A04799E7F0190
:0210E100800F7E
:1010E3007403F0A37480F07B017A04799E7F03126A
:0210F300227168
:1010F500900496E0FBA3E0FAA3E0F990000B12053B
:101105007C54C0FFE5A2543F4FF5A27F0022900416
:1011150095E0640260030212B99003B77402F0E42B
:10112500A3F0A3F0A3F0A3F0A3F0A3F0900499F02B
:10113500900499E0FFC3940B74809480501474DF7D
:101145002FF582E43403F583E4F0900499E004F08C
:1011550080DEE4900499F0900499E0FFC3940B7449
:10116500809480501474C92FF582E43403F583E428
:10117500F0900499E004F080DE900496E0FBA3E093
:10118500FAA3E0F9120563FF64C06008EF644060EC
:101195000302123F90000A12057C6401700543B5F5
:1011A50001800353B5FE12056364C07005439A8040
:1011B5008003539A7F9000021208767F807E8D7D92
:1011C5005B7C0012070490049A1208A6E4FFFE7DDA
:1011D50001FC90049AE0F8A3E0F9A3E0FAA3E0FB90
:1011E500C31207A440037F022290049AE0F8A3E00B
:1011F500F9A3E0FAA3E0FBC3E49BFFE49AFE7401C4
:1012050099FDE498FC90049A1208A6538EEF538E2C
:10121500F7438E0490049AE0FCA3E0FDA3E0FEA34F
:10122500E0FF78081207B58FD690049AA3A3A3E030
:10123500F5D753AFFB438E1080037F0222900496AF
:10124500E0FBA3E0FAA3E0F990000912057C640134
:10125500700543AF01800353AFFE90000712057C74
:1012650064017005439A108003539AEF90000B12A6
:07127500057C90049E70103F
:0E127C007403F0A314F07B017A04799E7F01C5
:02128A00800FD3
:10128C007403F0A37480F07B017A04799E7F0412BE
:02129C002271BD
:10129E00900496E0FBA3E0FAA3E0F990000B120590
:0D12AE007C5401FFE5BA54FE4FF5BA7F00F5
:0112BB002210
:1035B1009004D6EFF09003B3E0701304F09004D6BA
:1035C100E0F5993099FDC299E49003B3F0227F05AB
:0735D1007E001236DD80DEF2
:10352D009003B9E024DFF582E43403F583EFF090E6
:10353D0003B9E004F0C3940B748094804002E4F06E
:0C354D009003BAE0700504F0123756221B
:103559009004C5EBF0A3EAF0A3E9F09004C5E0FB01
:10356900A3E0FAA3E0F9120563FF600F1235B190E9
:0C35790004C6E475F00112067A80E0221E
:10373200120563FF600C12352D740129F9E43AFA7F
:0337420080EE22F4
:0737C3003098FDC298AF9998
:0137CA0022DC
:0537D100123756AF9B0A
:0137D60022D0
:10245200900461EBF0A3EAF0A3E9F090045FEEF0E0
:03246200A3EFF0F5
:10246500E4900464F0A3F0C3EE64809480501EE40D
:10247500900468F0A3F090045FE0FEA3E0FFC3E4DE
:102485009FFFE49E90045FF0A3EFF080089004683E
:10249500E4F0A304F090045FE0FEA3E0FF7C007D80
:1024A5000A120644EF4E604B90045FE0FAA3E0FB8E
:1024B5007C007D0AFFAE02120644ED2430FF900435
:1024C50064E0FCA3E0246AF58274043CF583EFF034
:1024D5007C007D0AAF03AE0212064490045FEEF065
:1024E500A3EFF0900465E004F070AA900464E004A2
:1024F500F080A290045FA3E02430FF900464E0FC28
:10250500A3E0246AF58274043CF583EFF090046837
:10251500E07002A3E060030225AB900461E0FBA339
:10252500E0FAA3E0F9742D1205A9900464E0FFA375
:10253500E0A3CFF0A3EFF0900466E0FEA3E0FFD3A5
:1025450094FFEE6480947F404A746A2FF582740488
:102555003EF583E0FF900466E0FCA3E0FDC3900434
:1025650065E09DFD900464E09CCD2401CD3400FC24
:10257500900461E0FBA3E0FAA3E0F98D828C83EF80
:102585001205BB900467E024FFF0900466E034FF79
:10259500F080A4900461E0FBA3E0FAA3E0F99004C5
:1025A50065E024028074900464E0FFA3E0A3CFF00B
:1025B500A3EFF0900466E0FEA3E0FFD394FFEE6482
:1025C50080947F4044746A2FF58274043EF583E05D
:1025D500FF900466E0FCA3E0FDC3900465E09DFD6B
:1025E500900464E09CFC900461E0FBA3E0FAA3E0A6
:1025F500F98D828C83EF1205BB900467E024FFF010
:10260500900466E034FFF080AA900461E0FBA3E04B
:10261500FAA3E0F9900465E02401FF900464E03436
:09262500008F82F583E41205BB6D
:01262E002289
:101B94009004861208A690048AEBF0A3EAF0A3E965
:011BA400F050
:101BA500E4FFFEFDFC900486E0F8A3E0F9A3E0FA6B
:101BB500A3E0FB12032490048AE0FBA3E0FAA3E070
:101BC500F94007742B1205A9801C742D1205A990E4
:101BD5000486E0FCA3E0FDA3E0FEA3E0FF12039D65
:101BE5009004861208A6900486E0FCA3E0FDA3E01D
:101BF500FEA3E0FF1203EC90048FEEF0A3EFF0E4F8
:101C0500A3F0A3F090048FE0FEA3E0FF4E601F7CDD
:101C1500007D0A12064490048FEEF0A3EFF09004C5
:101C250092E004F070DE900491E004F080D6900418
:101C350086E0FCA3E0FDA3E0FEA3E0FF1203EC9029
:101C4500048FEEF0A3EFF0A3E0FFA3E0A3CFF0A392
:101C5500EFF0D3900494E09400900493E0648094B2
:101C650080405490048FE0FEA3E0FF7C007D0A12C3
:101C75000644ED2430FF90048AE0FBA3E0FAA3E0DC
:101C8500F9900493E0FCA3E0F5828C83EF1205BB89
:101C950090048FE0FEA3E0FF7C007D0A12064490CD
:101CA500048FEEF0A3EFF0900494E024FFF090048D
:101CB50093E034FFF0809B90048AE0FBA3E0FAA355
:101CC500E0F9900492E02401FF900491E034008F44
:101CD50082F583742E1205BB900486E0FCA3E0FD1B
:101CE500A3E0FEA3E0FFC004C005C006C007900442
:101CF50086A3A3A3E01203ECAD07AC06EC1203B375
:101D0500A804A905AA06AB07D007D006D005D004BC
:101D15001200899004861208A6900492E02402F02D
:101D2500900491E03400F090048EE024FFFF9004CD
:101D35008DE034FFFEC3900492E09FEE6480F8903E
:101D45000491E06480984003021DEF900486E0FC56
:101D5500A3E0FDA3E0FEA3E0FFE4FBFA79207841D0
:101D650012017E9004861208A6900486E0FCA3E08A
:101D7500FDA3E0FEA3E0FF1203ECEF2430FF900487
:101D85008AE0FBA3E0FAA3E0F9900491E0FCA3E06C
:101D9500F5828C83EF1205BB900486E0FCA3E0FD81
:101DA500A3E0FEA3E0FFC004C005C006C007900481
:101DB50086A3A3A3E01203ECAD07AC06EC1203B3B4
:101DC500A804A905AA06AB07D007D006D005D004FC
:101DD5001200899004861208A6900492E004F0701F
:101DE50006900491E004F0021D2C90048AE0FBA308
:101DF500E0FAA3E0F990048EE024FFFF90048DE063
:0A1E050034FF8F82F583E40205BB71
:0512C4004204D100000E
:030003000236C200
:1036C200C0E0C083C0829004D2E004F0700690048F
:0B36D200D1E004F0D082D083D0E032C1
:0300130002000ADE
:01000A0032C3
:0300530002000E9A
:01000E0032BF
:03005B0002000F91
:01000F0032BE
:0300830002001068
:0100100032BD
:102CC300EFD394107480948040037F0122D2AFEF3E
:102CD300703090000212057C64017004D2A8800257
:102CE300C2A890000112057C64017004D2B880026E
:102CF300C2B812056364017004D2888002C2887F5F
:102D03000022EF6402703090000212057C640170AF
:102D130004D2AA8002C2AA90000112057C64017049
:102D230004D2BA8002C2BA12056364017004D28A63
:102D33008002C28A7F0022EF640A7015900002129B
:102D4300057C64017005438F108003538FEF7F0070
:102D530022EF640B701590000212057C640170056C
:102D6300438F208003538FDF7F0022EF64107015A1
:102D730090000212057C64017005438F4080035369
:082D83008FBF7F00227F0222B6
:0A12C9004204C100004204C300000B
:03000B00022F02BF
:102F0200C0E0C0F0C083C082C0D075D000C000C095
:102F120001C002C003C004C005C006C0079004C2BD
:102F2200E004F070069004C1E004F09004C1E07087
:102F320004A3E0640A705B9004D1E0FCA3E0FDEC22
:102F42001203B39003A51208A69003A91208B200B7
:102F52000000009003AD7401F0A37403F0A3742881
:102F6200F07F011209BB900348E0FCA3E0FDA3E05F
:102F7200FEA3E0FF9004751208A67B017A0479741F
:102F8200E4FF122ABE9004C1E4F0A3F09004D1F051
:102F9200A3F0D007D006D005D004D003D002D001D0
:0D2FA200D000D0D0D082D083D0F0D0E0326B
:03001B00022E486A
:102E4800C0E0C0F0C083C082C0D075D000C000C050
:102E580001C002C003C004C005C006C0079004C476
:102E6800E004F070069004C3E004F09004C3E0703E
:102E780004A3E0640A706812204B900431E0FCA3BC
:102E8800E0FDA3E0FEA3E0FF12039D9003A5120856
:102E9800A69003A91208B2000000009003AD7401C7
:102EA800F0A37403F0A3744CF07F021209BB7F00F7
:102EB8007E807D137C4390036CE0F8A3E0F9A3E0E7
:102EC800FAA3E0FB12008D90047E1208A67B017A1B
:102ED80004797D7F011215BF9004C3E4F0A3F0D0FC
:102EE80007D006D005D004D003D002D001D000D03E
:0A2EF800D0D082D083D0F0D0E032B9
:0300630002001187
:0100110032BC
:10262F00AD07EDD394027480948040037F0122D2D2
:10263F00AFED60030226D7C28C90000212057C64B6
:10264F00017004D2A98002C2A990000112057C6416
:10265F00017004D2B98002C2B9120563FED394038C
:10266F007480948040037F0222E58954FC4EF589E3
:10267F0090000312057CFF7E0064017003538E7F70
:10268F00EF4E7003438E80EF64024E700543890452
:10269F0080035389FB90000412057C64017005438D
:1026AF008F018003538FFE900005120690E5F0F521
:1026BF008C900005120690F58A90000712057C6435
:1026CF00017002D28C7F0022ED640160030227703B
:1026DF00C28E90000212057C64017004D2AB80029E
:1026EF00C2AB90000112057C64017004D2BB800262
:1026FF00C2BB120563FEC394037480948040037FB2
:10270F000222E58954CF4EF58990000312057CFF14
:10271F007E0064017003538EBFEF4E7003438E40F3
:10272F00EF64024E700543894080035389BF9000C8
:10273F000412057C64017005438F028003538FFDE3
:10274F00900005120690E5F0F58D900005120690A9
:10275F00F58B90000712057C64017002D28E7F000A
:10276F0022ED640260030227F8538EEF90000212ED
:10277F00057C6401700543AF04800353AFFB9000E9
:10278F000312057CFD7C00D3940274809480400377
:10279F007F0222ED64014C7003538EFB90000312F5
:1027AF00057C7003438E0490000312057C64027055
:1027BF0005438E088003538EF790000412057C6446
:1027CF00017005438F048003538FFB9000051206A1
:1027DF0090FDACF0ECF5D68DD790000712057C6418
:0C27EF00017003438E107F00227F022245
:103623001205639004C8F090000112057C9004C950
:10363300F090000212057C9004CAF07B017A0479B1
:04364300C8022CC3CA
:10002E00E49004CBF0A304F0A3F0FB7A0479CBE4C4
:04003E00FF02362364
:1012D30060240328402000003F4CCCCD00000000D8
:1012E3000000000000000000000000004475000042
:1012F30000000000000000006024034C3FC0000019
:1013030000000000000000000000000000000000DA
:101313000000000042E10000C2E100000000000004
:1009BB009003A4EFF06003020B869003ADE0FBA362
:1009CB00E0FAA3E0F990000C1207E890001012086F
:1009DB00329003A5E0F8A3E0F9A3E0FAA3E0FBA3B0
:1009EB00E0FCA3E0FDA3E0FEA3E0FF12008990036F
:1009FB00ADE0FBA3E0FAA3E0F990000C120832E99A
:100A0B002414F9E43AFAC003C002C0011207C890DB
:100A1B0003ADE0FBA3E0FAA3E0F990000C1208761B
:100A2B0012008DD001D002D0031208189003ADE054
:100A3B00FBA3E0FAA3E0F99000141207E8E4FBFA39
:100A4B0079A0784012032450159003ADE0FBA3E08E
:100A5B00FAA3E0F99000141208E340A00000900301
:100A6B00ADE0FBA3E0FAA3E0F99000141207E8E471
:100A7B00FBFA79A078C0120324601740159003ADE0
:100A8B00E0FBA3E0FAA3E0F99000141208E3C0A086
:100A9B0000009003ADE0FBA3E0FAA3E0F990001493
:100AAB001207E890000412087612017EC004C005FC
:100ABB00C006C0079003ADE0FBA3E0FAA3E0F990FA
:100ACB00000C1207E812085612017ED003D002D098
:100ADB0001D00012008DC004C005C006C0079003F2
:100AEB00ADE0FBA3E0FAA3E0F9900010120876C08A
:100AFB0000C001C002C0039003ADE0FBA3E0FAA36A
:100B0B00E0F990000C1207E8D003D002D001D0001E
:100B1B001200899003ADE0FBA3E0FAA3E0F990008B
:100B2B000812087612017ED003D002D001D0001239
:100B3B00008D9003ADE0FBA3E0FAA3E0F990002059
:100B4B001208329000181207E89000201208761253
:100B5B00032460054003020E589003ADE0FBA3E0B5
:100B6B00FAA3E0F990001C1207E890002012087617
:100B7B001203244003020E9B020E849003A4E06434
:100B8B00016003020CC89003ADE0FBA3E0FAA3E005
:100B9B00F990000C1207E89000101208329003A590
:100BAB00E0F8A3E0F9A3E0FAA3E0FBA3E0FCA3E0E9
:100BBB00FDA3E0FEA3E0FF1200899003ADE0FBA3D1
:100BCB00E0FAA3E0F990000C120832E92420F9E4D2
:100BDB003AFAC003C002C0011207C8C004C005C066
:100BEB0006C0079003ADE0FBA3E0FAA3E0F9900089
:100BFB0010120876C000C001C002C0039003ADE024
:100C0B00FBA3E0FAA3E0F990000C1207E8D003D0A5
:100C1B0002D001D0001200899003ADE0FBA3E0FAF3
:100C2B00A3E0F912085612017EC004C005C006C02D
:100C3B00079003ADE0FBA3E0FAA3E0F990000C12E0
:100C4B0007E890000412087612017EA804A905AAF1
:100C5B0006AB07D007D006D005D00412008DA80430
:100C6B00A905AA06AB07D007D006D005D004120001
:100C7B008DD001D002D0031208189003ADE0FBA376
:100C8B00E0FAA3E0F99000181207E8900020120890
:100C9B007612032460054003020E589003ADE0FB6F
:100CAB00A3E0FAA3E0F990001C1207E890002012D1
:100CBB0008761203244003020E9B020E849003A4B9
:100CCB00E064026003020E9B9003ADE0FBA3E0FA2D
:100CDB00A3E0F990000C1207E89000101208329074
:100CEB0003A5E0FCA3E0FDA3E0FEA3E0FFA3E0F877
:100CFB00A3E0F9A3E0FAA3E0FB12008D9003ADE0B3
:100D0B00FBA3E0FAA3E0F990000C120832E92414DB
:100D1B00F9E43AFAC003C002C0011207C89003A558
:100D2B00E0F8A3E0F9A3E0FAA3E0FB12008DD001F9
:100D3B00D002D0031208189003ADE0FBA3E0FAA396
:100D4B00E0F99000141207E8E4FBFA79A07840125E
:100D5B00032450159003ADE0FBA3E0FAA3E0F99058
:100D6B0000141208E340A000009003ADE0FBA3E0E9
:100D7B00FAA3E0F99000141207E8E4FBFA79A078E3
:100D8B00C0120324601740159003ADE0FBA3E0FAFB
:100D9B00A3E0F99000141208E3C0A000009003AD8B
:100DAB00E0FBA3E0FAA3E0F99000141207E890002F
:100DBB000412087612017EC004C005C006C007905D
:100DCB0003ADE0FBA3E0FAA3E0F990000C1207E8F7
:100DDB0012085612017ED003D002D001D0001200AF
:100DEB008DC004C005C006C0079003ADE0FBA3E0B7
:100DFB00FAA3E0F9900008120876C000C001C00207
:100E0B00C00390043DE0FCA3E0FDA3E0FEA3E0FFE4
:100E1B0012039DD003D002D001D00012017ED0036B
:100E2B00D002D001D00012008D9003ADE0FBA3E007
:100E3B00FAA3E0F99000201208329000181207E88C
:100E4B00900020120876120324601240109003AD1C
:100E5B00E0FBA3E0FAA3E0F9900018802A9003AD21
:100E6B00E0FBA3E0FAA3E0F990001C1207E8900066
:100E7B002012087612032450179003ADE0FBA3E079
:100E8B00FAA3E0F990001C1207E890002012083238
:010E9B002234
:1035D800E49004A0F0A304F0A3F0E4A3F0A304F0A3
:1035E800A374A2F0A37440F0A37401F0FB7A0479E9
:0635F800A0E4FF02262FF3
:1013230049047400000000004643500049047D0056
:081333004313800042C80000D2
:0E15BF009003A4EFF0A3EBF0A3EAF0A3E9F091
:1015CD00A31208B2000000009003AC1208B2000094
:1015DD0000009003A5E0FBA3E0FAA3E0F99000055D
:1015ED001208767F007E1B7DB77C4912028790031F
:1015FD00A81208A69003A5E0FBA3E0FAA3E0F990DA
:10160D000001120876E4FFFE7D7A7C44120089E425
:10161D00FBFA797A78441202879003AC1208A6750A
:10162D00BA8090FFF2740FF09003A8E0FCA3E0FDE8
:10163D00A3E0FEA3E0FF1203EC90FFF0EEF0A3EFAA
:10164D00F09003A4E0B4080040030218B5901661B1
:10165D00F82828730216790216C1021709021751CC
:10166D000217990217E102182902187090FF00E481
:10167D00F0A3F09003ACE0FCA3E0FDA3E0FEA3E03B
:10168D00FF9003A8E0F8A3E0F9A3E0FAA3E0FB12B2
:10169D00017E1203EC90FF02EEF0A3EFF09003A594
:1016AD00E0FBA3E0FAA3E0F9120563448090FF0488
:1016BD00F00218B590FF10E4F0A3F09003ACE0FC3D
:1016CD00A3E0FDA3E0FEA3E0FF9003A8E0F8A3E0F4
:1016DD00F9A3E0FAA3E0FB12017E1203EC90FF12D6
:1016ED00EEF0A3EFF09003A5E0FBA3E0FAA3E0F981
:1016FD00120563448090FF14F00218B590FF20E4AA
:10170D00F0A3F09003ACE0FCA3E0FDA3E0FEA3E0AA
:10171D00FF9003A8E0F8A3E0F9A3E0FAA3E0FB1221
:10172D00017E1203EC90FF22EEF0A3EFF09003A5E3
:10173D00E0FBA3E0FAA3E0F9120563448090FF24D7
:10174D00F00218B590FF30E4F0A3F09003ACE0FC8C
:10175D00A3E0FDA3E0FEA3E0FF9003A8E0F8A3E063
:10176D00F9A3E0FAA3E0FB12017E1203EC90FF3225
:10177D00EEF0A3EFF09003A5E0FBA3E0FAA3E0F9F0
:10178D00120563448090FF34F00218B590FF40E4D9
:10179D00F0A3F09003ACE0FCA3E0FDA3E0FEA3E01A
:1017AD00FF9003A8E0F8A3E0F9A3E0FAA3E0FB1291
:1017BD00017E1203EC90FF42EEF0A3EFF09003A533
:1017CD00E0FBA3E0FAA3E0F9120563448090FF4427
:1017DD00F00218B590FF50E4F0A3F09003ACE0FCDC
:1017ED00A3E0FDA3E0FEA3E0FF9003A8E0F8A3E0D3
:1017FD00F9A3E0FAA3E0FB12017E1203EC90FF5275
:10180D00EEF0A3EFF09003A5E0FBA3E0FAA3E0F95F
:10181D00120563448090FF54F00218B590FF60E408
:10182D00F0A3F09003ACE0FCA3E0FDA3E0FEA3E089
:10183D00FF9003A8E0F8A3E0F9A3E0FAA3E0FB1200
:10184D00017E1203EC90FF62EEF0A3EFF09003A582
:10185D00E0FBA3E0FAA3E0F9120563448090FF6476
:10186D00F0804590FF70E4F0A3F09003ACE0FCA392
:10187D00E0FDA3E0FEA3E0FF9003A8E0F8A3E0F9EC
:10188D00A3E0FAA3E0FB12017E1203EC90FF72EECF
:10189D00F0A3EFF09003A5E0FBA3E0FAA3E0F912AB
:0E18AD000563448090FF74F0E4F5BA75FE8088
:0118BB00220A
:0E2ABE00900398EFF0A3EBF0A3EAF0A3E9F089
:102ACC00E4A3F0A3F0A3F0A3F0A31208B20000005B
:102ADC0000900399E0FBA3E0FAA3E0F99000051243
:102AEC0007E8E4FBFA7980784312017EA804A90573
:102AFC00AA06AB077F007E1B7DB77C4B12028712A8
:102B0C0003ECC374FF9F90039DF0E49E90039CF034
:102B1C00900399E0FBA3E0FAA3E0F99000011208FE
:102B2C0076E4FFFE7D7A7C44120089E4FBFA797A24
:102B3C0078441202879003A01208A6E4FFFE7D7F62
:102B4C007C439003A0E0F8A3E0F9A3E0FAA3E0FB38
:102B5C0012017E1203EC90039EEEF0A3EFF0E4F56D
:102B6C00D875D90DF5E9F5F9900399E0FBA3E0FAD6
:102B7C00A3E0F912056324F8600D24F8600E24100C
:102B8C00700DE4F5A2800875A210800375A2209048
:102B9C000398E014601C14602B14603A24037046F4
:102BAC0075DA42E4F5F290039EA3E0FFF5EA8FFAA2
:102BBC00803475DB42E4F5F390039EA3E0FFF5EB64
:102BCC008FFB802275DC42E4F5F490039EA3E0FFBA
:102BDC00F5EC8FFC801075DD42E4F5F590039EA3B7
:082BEC00E0FFF5ED8FFDD2DEE4
:012BF40022BE
:10133B005804310000000000000000000000000015
:0B134B00000000000000000000000097
:10204B00E49003A4F0FFFEA3F075BA9012379F7FC4
:10205B00A01237457F3D12374512379F7FA11237AC
:10206B00451237679003A4EFF0123785123767904C
:10207B0003A5EFF01237761237B19003A5E0FE906F
:10208B0003A4E0FDEDFFAC06EC1203B3E4FBFAF99D
:10209B007847120287E4FBFA7934784312017E9079
:1020AB0004311208A612379F7FA01237457F3E12CC
:1020BB00374512379F7FA11237451237679003A41C
:1020CB00EFF01237851237679003A5EFF0123776D2
:1020DB001237B19003A5E0FE9003A4E0FDEDFFAC39
:1020EB0006EC1203B3E4FBFAF97847120287E4FB20
:1020FB00FA7934784312017E9004351208A6123710
:10210B009F7FA01237457F3F12374512379F7FA124
:10211B001237451237679003A4EFF0123785123749
:10212B00679003A5EFF01237761237B19003A5E055
:10213B00FE9003A4E0FDEDFFAC06EC1203B3E4FB51
:10214B00FAF97847120287E4FBFA793478431201E3
:10215B007E9004391208A612379F7FA01237457F55
:10216B003712374512379F7FA112374512376790C9
:10217B0003A4EFF01237851237679003A5EFF01227
:10218B0037761237B19003A5E0FE9003A4E0FDED86
:10219B00FFAC06EC1203B3E4FBFAF97847120287A3
:1021AB00E4FBFA79FA784412017E90043D1208A6FA
:1021BB0012379F7FA01237457F3812374512379F52
:1021CB007FA11237451237679003A4EFF0123785C2
:1021DB001237679003A5EFF01237761237B19003E1
:1021EB00A5E0FE9003A4E0FDEDFFAC06EC1203B3FB
:1021FB00E4FBFAF97847120287E4FBFA79FA7844A0
:10220B0012017E9004411208A612379F7FA012374D
:10221B00457F3912374512379F7FA1123745123749
:10222B00679003A4EFF01237851237679003A5EF81
:10223B00F01237761237B19003A5E0FE9003A4E0BD
:10224B00FDEDFFAC06EC1203B3E4FBFAF978471291
:10225B000287E4FBFA79FA784412017E9004451266
:05226B0008A6E4F5BA2D
:01227000224B
:10358500E4900370F0A304F0A3F0E4A3F0A304F027
:10359500A374A2F0A37440F0A37401F0E4FF123405
:0C35A500F57B017A0379707F0102262F6C
:03002B00020006CA
:0400060053BCDF32D6
:10335D00D2AFE4F592120563429190000112057C03
:10336D00FFE5BC549F4FF5BC90000212057C640133
:10337D00700543BC80800353BC7F90000312057C15
:10338D006401700543DE20800353DEDF90000512DB
:10339D00057C64017004D2AD8002C2AD90000412B0
:0C33AD00057C64017003D2BD22C2BD2269
:0D004600EF6401700443BC802253BC7F2294
:1030DD00EFD39407748094804002807BE4F5BDF5B6
:1030ED00BEE5BC54E044404FF5BC0000E4FDEDC32B
:1030FD0094FA74809480505FE5BC20E55753BCDF93
:10310D00E5DE30E51FE5BD540FFF9004D3E4F0A3D9
:10311D00EFF0E0FEACBEECFBEBFF9004D3EEF0A3C2
:10312D00EFF08027AFBDEF9004D3F0A3E4F0AFBE76
:10313D009004D3E0F0A3E04FF09004D3E0C4F85432
:10314D00F0C868F0A3E0C4540F48F09004D3E0FE3B
:0B315D00A3E0FF220D80977E047F009E
:013168002244
:10135600622801000000000000000000002F0000CD
:1013660000000700070000147F147F1400242A7F62
:101376002A120062640813230036495522500000E1
:101386000503000000001C224100000041221C0051
:101396000014083E08140008083E0808000000A0D3
:1013A60060000008080808080000606000000020CF
:1013B60010080402003E5149453E0000427F4000AD
:1013C600004261514946002141454B310018141233
:1013D6007F10002745454539003C4A494930000100
:1013E6007109050300364949493600064949291E4F
:1013F60000003636000000005636000000081422B1
:1014060041000014141414140000412214080002B0
:101416000151090600324959513E007C1211127CD5
:10142600007F49494936003E41414122007F414102
:10143600221C007F49494941007F09090901003EF4
:101446004149497A007F0808087F0000417F410032
:10145600002040413F01007F08142241007F4040A8
:101466004040007F020C027F007F0408107F003E90
:101476004141413E007F09090906003E4151215E76
:10148600007F091929460046494949310001017F73
:101496000101003F4040403F001F2040201F003F09
:1014A6004038403F006314081463000708700807BB
:1014B60000615149454300007F41410000552A55CE
:1014C6002A55000041417F00000402010204004049
:1014D600404040400000010204000020545454786B
:1014E600007F48444438003844444420003844448B
:1014F600487F00385454541800087E090102001829
:10150600A4A4A47C007F080404780000447D400065
:10151600004080847D00007F102844000000417F49
:101526004000007C04180478007C08040478003825
:101536004444443800FC242424180018242418FCAD
:10154600007C0804040800485454542000043F4416
:101556004020003C4040207C001C2040201C003CD9
:101566004030403C004428102844001CA0A0A07C29
:0C157600004464544C4414141414141465
:0637BA00D2A37F027E0095
:0337C0000236DDF1
:1036F3001237BAD2A61237BCC2A61237BCC2A37FF6
:06370300027E000237C047
:10370900C2A31237BCC2A61237BC1237BAD2A67FDF
:06371900027E000237C031
:0532FA00900396EFF0C7
:1032FF00E4A3F0900397E0C3940874809480503354
:10330F00900396E030E704D2A68002C2A67F017E2A
:10331F00001237C0D2A37F017E001237C0C2A37F35
:10332F00017E001237C0900396E025E0F0A3E00481
:10333F00F080C0D2A67F017E001237C0D2A37F01DA
:0E334F007E001237C0C2A37F017E000237C08D
:10006600900394EFF01236F37F781232FA7F401243
:0D00760032FA900394E0FF1232FA023709CB
:04366A00EF24B0FF9A
:10366E00900395EFF01236F37F781232FAE4FF12E0
:0D367E0032FA900395E0FF1232FA0237098C
:1035FE00900394EFF0ED24B0FF12366E900394E03A
:10360E0054F0C4540F4410FF12366E900394E054DD
:05361E000FFF02366EF3
:05341200900372EFF0D1
:10341700E4A3F0900373E0FFC39408748094805092
:103427003712366A7F0112366E7F1012366EE490BD
:103437000374F0900374E0C39484748094805010F4
:10344700900372E0FF120066900374E004F080E3DB
:08345700900373E004F080BB58
:01345F00224A
:1034AD00E4900370F0900370E0FFC394087480946F
:1034BD0080503412366A7F0112366E7F1012366ECE
:1034CD00E4900371F0900371E0C394847480948050
:1034DD00500DE4FF120066900371E004F080E69059
:0734ED000370E004F080BE53
:0134F40022B5
:102BF500E4900370F0A37408F07B017A0379707F89
:102C0500021222717B017A0379707F031222717B94
:102C1500017A0379707F04122271D2A3C2A77FF4CF
:102C25007E011236A7D2A77FAE12366EE4FF1236AA
:102C35006E7F1012366E7F4012366E7F8112366EB1
:102C45007FCF12366E7FA112366E7FC812366E7F29
:102C5500A612366E7FA812366E7F3F12366E7FD370
:102C650012366EE4FF12366E7FD512366E7F8012F5
:102C7500366E7FD912366E7FF112366E7FDA1236D6
:102C85006E7F1212366E7FDB12366E7F4012366E05
:102C95007F2012366E7F0212366E7F8D12366E7F62
:102CA5001412366E7FA412366E7FA612366E7FAF73
:0E2CB50012366EE4FF123412E4FDFF0235FE0B
:0A33B9009004CFEDF09004CEEFF089
:1033C300A3E0FE131313541FFD1235FE9004CFE048
:1033D300FF5407FEF87401088002C333D8FC90043D
:1033E300D0F0EF131313541F24B0FF12366E900462
:1033F300CEE054F0C4540F4410FF12366E9004CE46
:0F340300E0540FFF12366E9004D0E0FF02006617
:102FAF0090038CEFF0A3EDF0A3EBF0A3EAF0A3E90D
:012FBF00F021
:102FC000E4A3F0A3F0A3F090038EE0FBA3E0FAA348
:102FD000E0F9900393E0F58275830012057C607040
:102FE00024E0900391F090038CE0D3947E7480945D
:102FF000804006E4F0A3E004F090038CE0FFA3E03F
:10300000FD1235FEE4900392F0900392E0FFC3942A
:1030100006748094805029900391E075F006A424F2
:1030200000F582E5F03401F583E5822FF582E43581
:1030300083F583E0FF120066900392E004F080C9FC
:1030400090038CE02406F0900393E004F0022FC775
:01305000225D
:082D8B009004A8EFF0A3EDF0A5
:102D9300E49004AFF0FC7D0AAF03AE021205EFED41
:102DA30024309004AEF07C007D0AAF03AE0212051E
:102DB300EF7C007D0A1205EFED24309004ADF07C2A
:102DC300007D64AF03AE021205EF7C007D0A12059D
:102DD300EFED24309004ACF07C037DE8AF03AE024A
:102DE3001205EF7C007D0A1205EFED24309004AB51
:102DF300F0AE02AF037C277D101205EF7C007D0A45
:102E03001205EFED24309004AAF0E4FFEFC394041D
:102E130074809480501E74AA2FF582E43404F583E1
:102E2300E0B4301074AA2FF582E43404F5837420DF
:102E3300F00F80D89004A8E0FFA3E0FD7B017A04A3
:052E430079AA022FAF87
:0F27FB00900370EFF0A3EDF0A3EAF0FEA3EBF074
:10280A00E4FBFAC3EE64809480501EE4900376F0F1
:10281A00A3F0900372E0FEA3E0FFC3E49FFFE49EEF
:10282A00900372F0A3EFF08008900376E4F0A3041B
:10283A00F0900372E0FEA3E0FF7C007D0A120644DA
:10284A00EF4E603D900372E0FEA3E0FF7C007D0A3C
:10285A00120644ED2430FF74782BF58274033AF59E
:10286A0083EFF0900372E0FEA3E0FF7C007D0A1282
:10287A000644900372EEF0A3EFF00BBB00010A804E
:10288A00B0900372A3E02430FF74782BF5827403AE
:10289A003AF583EFF0900376E07002A3E07060905F
:1028AA000382742DF0900374EAF0A3EBF0900374A2
:1028BA00E0FEA3E0FFD394FFEE6480947F40377478
:1028CA00782FF58274033EF583E0FF900374E0FCF1
:1028DA00A3E0FDC3EB9DFDEA9CFC74832DF5827495
:1028EA00033CF583EFF0900375E024FFF090037446
:1028FA00E034FFF080B774842BF58274038058901B
:10290A000374EAF0A3EBF0900374E0FEA3E0FFD3B4
:10291A0094FFEE6480947F403774782FF5827403B5
:10292A003EF583E0FF900374E0FCA3E0FDC3EB9D5A
:10293A00FDEA9CFC74822DF58274033CF583EFF06A
:10294A00900375E024FFF0900374E034FFF080B741
:10295A0074832BF58274033AF583E4F0900370E0F4
:0D296A00FFA3E0FD7B017A037982022FAF0D
:081E0F00900449EFF0A3EDF08F
:101E1700900453E4F0A3740AF0E4FFFEFDFC900481
:101E27004BE0F8A3E0F9A3E0FAA3E0FB1203249048
:101E370004554005742BF0801A742DF090044BE084
:101E4700FCA3E0FDA3E0FEA3E0FF12039D90044B7B
:101E57001208A690044BE0FCA3E0FDA3E0FEA3E07C
:101E6700FF1203EC90044FEEF0A3EFF0E4A3F0A30E
:101E7700F090044FE0FEA3E0FF4E601F7C007D0A58
:101E870012064490044FEEF0A3EFF0900452E004E2
:101E9700F070DE900451E004F080D690044BE0FC33
:101EA700A3E0FDA3E0FEA3E0FF1203EC90044FEED6
:101EB700F0A3EFF0A3E0FEA3E0FBAA06D3EB9400A8
:101EC700EA64809480403D90044FE0FEA3E0FF7CED
:101ED700007D0A120644ED2430FF74552BF58274F9
:101EE700043AF583EFF090044FE0FEA3E0FF7C0097
:101EF7007D0A12064490044FEEF0A3EFF0EB1B703F
:101F0700BB1A80B8900451E0FEA3E02456F5827412
:101F1700043EF583742EF090044BE0FCA3E0FDA390
:101F2700E0FEA3E0FFC004C005C006C00790044B55
:101F3700A3A3A3E01203ECAD07AC06EC1203B3A80E
:101F470004A905AA06AB07D007D006D005D004120E
:101F5700008990044B1208A6900452E02402F090E6
:101F67000451E03400F0900454E024FFFF90045340
:101F7700E034FFFEC3900452E09FEE6480F89004C3
:101F870051E0648098400302202890044BE0FCA3B2
:101F9700E0FDA3E0FEA3E0FFE4FBFA79207841121D
:101FA700017E90044B1208A690044BE0FCA3E0FDD1
:101FB700A3E0FEA3E0FF1203ECEF2430FF900451EF
:101FC700E0FCA3E02455F58274043CF583EFF09020
:101FD700044BE0FCA3E0FDA3E0FEA3E0FFC004C0C8
:101FE70005C006C00790044BA3A3A3E01203ECAD02
:101FF70007AC06EC1203B3A804A905AA06AB07D0E1
:1020070007D006D005D00412008990044B1208A609
:10201700900452E004F07006900451E004F0021FAF
:102027006D900453E0FEA3E02454F58274043EF55A
:1020370083E4F0900449E0FFA3E0FD7B017A047993
:0420470055022FAF60
:103647000000000000000000000000000000000073
:103657000000000000000000000000000000000063
:0336670000000060
:101582004C040201F401F401F401F401F401F44CFD
:1015920003F600C800C800C800C800C800C842035B
:1015A200EC00004203EA00004203F200004203EEB4
:0C15B20000004203F400004203F00000BF
:10368B009004B07401F0A37440F0A37401F0A3F0A4
:0C369B00A3F0A3F0FB7A0479B002335DC9
:0529770090040EEFF0DA
:10297C00E4A3F0A3F0A3F0A3F0A3F078147C047DFF
:10298C00017BFF7A367947FE7F1812053D782C7C47
:10299C00047D017BFF7A36795F7E007F0512053D51
:1029AC00E490040FF090040FE0C3940C74809480B6
:1029BC00502B90040EE0FF1230DD90040FE025E068
:1029CC002414F582E43404F583EEF0A3EFF07F6475
:1029DC007E001236DD90040FE004F080C8E4FFEFB7
:1029EC00C3940B748094804003022A76E4FEC37473
:1029FC000B9FFDEEC39D506EEE25E02416F582E490
:102A0C003404F583E0FCA3E0FDEE25E02414F5820C
:102A1C00E43404F583E0FAA3E0FBD39DEA9C404345
:102A2C00900412EAF0A3EBF0EE25E02416F582E414
:102A3C003404F583E0FCA3E0FDEE25E02414F582DC
:102A4C00E43404F583ECF0A3EDF0900412E0FCA365
:102A5C00E0FDEE25E02416F582E43404F583ECF079
:102A6C00A3EDF00E80880F0229EB90040F7401F097
:102A7C0090040FE0FFC3940B748094805025EF25D5
:102A8C00E02414F582E43404F583E0FEA3E0FF9027
:102A9C000411E02FF0900410E03EF090040FE004DD
:102AAC00F080CD900410E0FEA3E0FF7C007D0A02D4
:022ABC0005EF24
:1018BC0078B67C047D017BFF7A3679647E007F06E6
:1018CC0012053DE4FF1229779004B6EFF07F011268
:1018DC0029779004B7EFF07F021229779004B8EFC4
:1018EC00F07F031229779004B9EFF07F0412297767
:1018FC009004BAEFF07F051229779004BBEFF090BB
:10190C0004B6E0FF7E00D39003F7E09F9003F6E06F
:10191C009E4003EE8016C3900403E09F900402E007
:10192C009E500D9004B6E0FF900402E4F0A3EFF09B
:10193C009004B7E0FF7E00D39003F9E09F9003F88A
:10194C00E09E4003EE8016C3900405E09F900404D3
:10195C00E09E500D9004B7E0FF900404E4F0A3EF78
:10196C00F09004B8E0FF7E00D39003FBE09F90035F
:10197C00FAE09E4003EE8016C3900407E09F9004AB
:10198C0006E09E500D9004B8E0FF900406E4F0A32E
:10199C00EFF09004B9E0FF7E00D39003FDE09F9040
:1019AC0003FCE09E4003EE8016C3900409E09F9078
:1019BC000408E09E500D9004B9E0FF900408E4F098
:1019CC00A3EFF09004BAE0FF7E00D39003FFE09FFA
:1019DC009003FEE09E4003EE8016C390040BE09F44
:1019EC0090040AE09E500D9004BAE0FF90040AE4C3
:1019FC00F0A3EFF09004BBE0FF7E00D3900401E075
:101A0C009F900400E09E4003EE8016C390040DE00E
:101A1C009F90040CE09E500D9004BBE0FF90040CD2
:101A2C00E4F0A3EFF09004B6E0FF9003F6E0FCA323
:101A3C00E0FDC3EF9DFFE49CFE7C007D641205DDA0
:101A4C009003F6E0FCA3E0FDC3900403E09DFD9041
:101A5C000402E09CFC1205EF9003ECEEF0A3EFF017
:101A6C009004BBE0FF900400E0FCA3E0FDC3EF9DFD
:101A7C00FFE49CFE7C007D641205DD900400E0FC1C
:101A8C00A3E0FDC390040DE09DFD90040CE09CFCD4
:101A9C001205EF9003EAEEF0A3EFF09004B7E0FF2D
:101AAC009003F8E0FCA3E0FDC3EF9DFFE49CFE7CFB
:101ABC00007D641205DD9003F8E0FCA3E0FDC3900B
:101ACC000405E09DFD900404E09CFC1205EF9003DE
:101ADC00F2EEF0A3EFF09004BAE0FF9003FEE0FC0E
:101AEC00A3E0FDC3EF9DFFE49CFE7C007D6412052A
:101AFC00DD9003FEE0FCA3E0FDC390040BE09DFD34
:101B0C0090040AE09CFC1205EF9003EEEEF0A3EFBC
:101B1C00F09004B8E0FF9003FAE0FCA3E0FDC3EF03
:101B2C009DFFE49CFE7C007D641205DD9003FAE0D1
:101B3C00FCA3E0FDC3900407E09DFD900406E09C2F
:101B4C00FC1205EF9003F4EEF0A3EFF09004B9E073
:101B5C00FF9003FCE0FCA3E0FDC3EF9DFFE49CFEC3
:101B6C007C007D641205DD9003FCE0FCA3E0FDC36A
:101B7C00900409E09DFD900408E09CFC1205EF9098
:071B8C0003F0EEF0A3EFF0FF
:011B9300222F
:10008600020458E86480F8E933E83360110460F04C
:10009600ED33EC337009E8FCE9FDEAFEEBFF2204E0
:1000A60060DED3EB9FEA9EE99DE8C2E78CF0C2F7DB
:1000B60095F0400CE8CCF8E9CDF9EACEFAEBCFFBA7
:1000C60012042385D0F05804700320D5B3E80470D9
:1000D600075002B2D502046292D5EC0460F7E4CC74
:1000E600C0E0C398F8603B94186008400DD0E0FB70
:1000F60002043AE4FBFAC9FC8028E830E406E4C9C5
:10010600FBE4CAFCE830E305E4C9CACBFCE85407C3
:100116006010F8C3E913F9EA13FAEB13FBEC13FCCE
:10012600D8F130F52FC3E49CFCEF9BFFEE9AFEED71
:1001360099FDD0E0FBEF4E4D4C701222DB0302041A
:100146005FEC2CFCEF33FFEE33FEED33FDED30E7D5
:10015600EB02043AEF2BFFEE3AFEED39FDD0E0FB61
:1001660050130BBB0003020462ED13FDEE13FEEF0A
:0801760013FFEC13FC02043A34
:10017E00EC4D6011E8497017ED33EC3304600DE47B
:10018E00FCFFFEFD22E933E8330470F80204581236
:10019E00042358046009E4CC248150062850090237
:1001AE00046228400302045FC0E0EB4A7044B98049
:1001BE0006D0E0FB02044EEF4E701CBD8008EBFF34
:1001CE00EAFEE9FD80EBE98DF0A4FEE5F0020267A0
:1001DE00E9CDF9EAFEEBFFEF89F0A4FCE5F0CE895C
:1001EE00F0A42EFFE435F0CD89F0A42DFEE435F019
:1001FE008067EF4E7005BD80D780C3EF8BF0A4AC47
:10020E00F0EE8BF0A42CFCE435F0F8EF8AF0A42C81
:10021E00E5F038FCE433CB8DF0A42CFCE5F03BF894
:10022E00EE8AF0A42CFCE5F038F8E433CF89F0A484
:10023E002CFCE5F038CF3400CE89F0A42FFFE5F08A
:10024E003EFEE433C98DF0A42EFEE5F039CD8AF0E2
:10025E00A42FFFE5F03EFEE43DFD33D0E0FB50075A
:10026E000BBB000F020462EC2CFCEF33FFEE33FEEF
:06027E00ED33FD02043A1D
:10028400020462EC5D046005E8590470030204583A
:10029400120423580460F6EC4860F2EC7004FDFE8E
:1002A400FF22C860DB2481C85009C398600250064D
:1002B40002045F9850CAF582E9294B4A7005AB8263
:1002C40002044E75F0007C1A7880C3EF9BEE9AED21
:1002D40099400DC3EF9BFFEE9AFEED99FDE842F0C5
:1002E400DC23ACF0D0E0FFD0E0FED0E0FDAB822018
:1002F400E7101BEB60BAEC2CFCEF33FFEE33FEEDA2
:1003040033FD02043AE803F830E705C0F075F00065
:10031400EF2FFFEE33FEED33FD40B830E7C280AA85
:1003240074F8CC6480CCC86480C8F58204604FC380
:10033400EB9FF5F0EA9E42F0E99D42F0E89C45F01F
:10034400603C501DE5825FFFE582D313CB5BCBF4A9
:100354002B5582FB50280ABA002409B900200880D2
:100364001DE5825BFBE582D313CF5FCFF4C3132F6C
:100374005582FF50090EBE00050DBD00010CC3EBF4
:100384009FF5F0EA9E42F0E99D42F0E89C45F0605A
:0903940007CC4820E701B3EC227C
:10039D00ED33EC33600A047003BD8004ECB2E7FC6E
:0103AD00222D
:1003AE0075F020800E75F010800575F0087D007ECA
:1003BE00007F003392D530D503120796EC334010F0
:1003CE00EF33FFEE33FEED33FDEC33FCD5F0ED22D3
:0E03DE00E5F0247EA2D513CC92E7CDCEFF220F
:1003EC00EDD2E7CD33EC3392D524814006E4FFFE09
:1003FC00FDFC22FCE4CFCECDCC24E0501174FF8068
:10040C00EDC3CC13CCCD13CDCE13CECF13CF047004
:07041C00F030D5DE02079667
:10042300E9D2E7C933E833F892D5EDD2E7CD33EC1F
:0704330033FC5002B2D52298
:10043A00EC30E7100FBF000C0EBE00080DBD000423
:10044A000BEB6014A2D5EB13FCED92E7FD2274FFCF
:10045A00FCFDFEFF22E480F8A2D574FF13FC7D8028
:03046A00E480EF3C
:10305D00023460E493A3F8E493A34003F68001F2F5
:10306D0008DFF48029E493A3F85407240CC8C33374
:10307D00C4540F4420C8834004F456800146F6DF43
:10308D00E4800B01020408102040809012BCE47E05
:10309D00019360BCA3FF543F30E509541FFEE49338
:1030AD00A360010ECF54C025E060A840B8E493A3FF
:1030BD00FAE493A3F8E493A3C8C582C8CAC583CA2A
:1030CD00F0A3C8C582C8CAC583CADFE9DEE780BEE2
:0115BE00002C
:10046D00E709F608DFFA8046E709F208DFFA803E71
:10047D0088828C83E709F0A3DFFA8032E309F6085E
:10048D00DFFA8078E309F208DFFA807088828C83C6
:10049D00E309F0A3DFFA806489828A83E0A3F6087A
:1004AD00DFFA805889828A83E0A3F208DFFA804C54
:1004BD0080D280FA80C680D4806980F2803380102B
:1004CD0080A680EA809A80A880DA80E280CA803394
:1004DD0089828A83ECFAE493A3C8C582C8CCC5830C
:1004ED00CCF0A3C8C582C8CCC583CCDFE9DEE780DC
:1004FD000D89828A83E493A3F608DFF9ECFAA9F05B
:10050D00EDFB2289828A83ECFAE0A3C8C582C8CCB0
:10051D00C583CCF0A3C8C582C8CCC583CCDFEADEC9
:10052D00E880DB89828A83E493A3F208DFF980CC2B
:10053D0088F0EF60010E4E60C388F0ED2402B40424
:10054D000050B9F582EB2402B4040050AF232345CB
:06055D0082239004BD732F
:10056300BB010689828A83E0225002E722BBFE0296
:09057300E32289828A83E49322C9
:10057C00BB010CE58229F582E5833AF583E0225034
:10058C0006E92582F8E622BBFE06E92582F8E2227E
:0D059C00E58229F582E5833AF583E4932298
:1005A900BB010689828A83F0225002F722BBFE0131
:0205B900F3222B
:1005BB00F8BB010DE58229F582E5833AF583E8F076
:1005CB00225006E92582C8F622BBFE05E92582C822
:0205DB00F2220A
:1005DD00EF8DF0A4A8F0CF8CF0A428CE8DF0A42E32
:0205ED00FE22EC
:1005EF00BC000BBE0029EF8DF084FFADF022E4CCF0
:1005FF00F875F008EF2FFFEE33FEEC33FCEE9DECB9
:10060F00984005FCEE9DFE0FD5F0E9E4CEFD22EDFE
:10061F00F8F5F0EE8420D21CFEADF075F008EF2F48
:10062F00FFED33FD4007985006D5F0F222C398FD39
:05063F000FD5F0EA22D6
:10064400C2D5EC30E709B2D5E4C39DFDE49CFCEED1
:1006540030E715B2D5E4C39FFFE49EFE1205EFC355
:10066400E49DFDE49CFC80031205EF30D507C3E450
:060674009FFFE49EFE2240
:10067A00C5F0F8A3E028F0C5F0F8E582158270020B
:06068A001583E038F022A8
:10069000BB0110E58229F582E5833AF583E0F5F0A8
:1006A000A3E0225009E92582F886F008E622BBFE85
:1006B0000AE92582F8E2F5F008E222E5832AF583CB
:0806C000E993F5F0A3E9932290
:1006C80075F008758200EF2FFFEE33FECD33CDCCE9
:1006D80033CCC58233C5829BED9AEC99E58298406C
:1006E8000CF582EE9BFEED9AFDEC99FC0FD5F0D649
:1006F800E4CEFBE4CDFAE4CCF9A88222B800C1B973
:100708000059BA002DEC8BF084CFCECDFCE5F0CBB0
:10071800F97818EF2FFFEE33FEED33FDEC33FCEBE9
:1007280033FB10D703994004EB99FB0FD8E5E4F9A4
:10073800FA227818EF2FFFEE33FEED33FDEC33FC91
:10074800C933C910D7059BE99A4007EC9BFCE99A85
:10075800F90FD8E0E4C9FAE4CCFB2275F010EF2FCA
:10076800FFEE33FEED33FDCC33CCC833C810D707CA
:100778009BEC9AE899400AED9BFDEC9AFCE899F805
:0E0788000FD5F0DAE4CDFBE4CCFAE4C8F92298
:0E079600C3E49FFFE49EFEE49DFDE49CFC2274
:1007A400EB9FF5F0EA9E42F0E99D42F0E89C45F0AB
:0107B4002222
:1007B500E8600FECC313FCED13FDEE13FEEF13FF22
:0307C500D8F12246
:1007C800BB010789828A830209135005E9F80209E7
:1007D80007BBFE05E9F802091F89828A8302092BF3
:1007E800BB010DE58229F582E5833AF583020913F9
:1007F8005007E92582F8020907BBFE07E92582F8B8
:1008080002091FE58229F582E5833AF58302092B5F
:10081800BB010789828A830208A65005E9F8020904
:0A08280071BBFE05E9F802097D220C
:10083200BB010DE58229F582E5833AF5830208A61C
:100842005007E92582F8020971BBFE07E92582F803
:0408520002097D22F8
:10085600BB010789828A830209485005E9F8020923
:100866003BBBFE05E9F802095489828A83020961C5
:10087600BB010DE58229F582E5833AF58302094835
:100886005007E92582F802093BBBFE07E92582F8F5
:10089600020954E58229F582E5833AF58302096166
:0C08A600ECF0A3EDF0A3EEF0A3EFF022C5
:1008B200A8828583F0D083D0821208C91208C91297
:1008C20008C91208C9E473E493A3C583C5F0C583BC
:1008D200C8C582C8F0A3C583C5F0C583C8C582C890
:0108E20022F3
:1008E300BB010DE58229F582E5833AF5830208B25F
:1008F3005007E92582F8020989BBFE07E92582F83A
:040903000209A22221
:0C090700E6FC08E6FD08E6FE08E6FF221C
:0C091300E0FCA3E0FDA3E0FEA3E0FF2257
:0C091F00E2FC08E2FD08E2FE08E2FF2214
:10092B00E493FC740193FD740293FE740393FF2212
:0D093B00E6FB08E6F908E6FA08E6CBF8222C
:0C094800E0F8A3E0F9A3E0FAA3E0FB2232
:0D095400E2FB08E2F908E2FA08E2CBF82223
:10096100E493F8740193F9740293FA740393FB22EC
:0C097100ECF608EDF608EEF608EFF622B2
:0C097D00ECF208EDF208EEF208EFF222B6
:10098900D083D082E493F608740193F60874029335
:09099900F608740393F67404736C
:1009A200D083D082E493F208740193F20874029324
:0909B200F208740393F27404735B
:00000001FF
