:03000000021BB32D
:0C1BB300787FE4F6D8FD758120021BFA53
:040006002C0D0A00B3
:081E2C004501B20000000000B6
:101A5100121FB090013A7440F0A37401F0A3120771
:101A61004400004B009001407401F0A3F0E4A3F0A6
:101A7100A304F0A3F0E4A3F07B017A01793A7F019A
:101A81001208A27F0A7E001200269001BBE0FCA38F
:101A9100E0FDEC1203A290015C1207389001601284
:101AA1000744435200009001647401F0A37401F0F3
:101AB100A37469F07F01120CC2900189E0FCA3E0DC
:101AC100FDA3E0FEA3E0FF90019A1207387B017AA3
:101AD100017999E4FF120FEE9001BBE0FEA3E0FF54
:101AE1007B017A0179B21214CCE49001BBF0A3F02E
:101AF1007B017A0179B2121ED87BFF7A0079061236
:051B01001ED8021A8449
:10002600E4FDFCC3ED9FEC9E50100079207B28DB9D
:0A003600FED9FC0DBD00010C80E9AD
:01004000229D
:101F9A00E4FDFCC3ED9FEC9E500B7B06DBFE0DBD02
:051FAA0000010C80EEB7
:011FAF00220F
:1012EB00EFD394057480948040037F012212045C39
:1012FB00FED394037480948040037F0222EF7044EA
:10130B00EE700B900001120475F452935294120478
:10131B005C6401700B9000011204754293F45294BB
:10132B0012045CFE6402700A900001120475429371
:10133B004294EE6403700D900001120475FEF4529A
:10134B0093EE4294EF6401704612045CFE700B90B6
:10135B000001120475F452915292EE6401700B90DD
:10136B0000011204754291F4529212045C640270F3
:10137B000A9000011204754291429212045C6403BC
:10138B00700D900001120475FEF45291EE4292EF33
:10139B006402704612045CFE700B9000011204751F
:1013AB00F452955296EE6401700B90000112047585
:1013BB004295F4529612045C6402700A900001127A
:1013CB0004754295429612045C6403700D90000103
:1013DB00120475FEF45295EE4296EF6403704612BA
:1013EB00045CFE700B900001120475F452B152B202
:1013FB00EE6401700B90000112047542B1F452B20D
:10140B0012045C6402700A90000112047542B1422E
:10141B00B212045C6403700D900001120475FEF4AB
:10142B0052B1EE42B2EF6404704612045CFE700BD4
:10143B00900001120475F452B352B4EE6401700BB8
:10144B0090000112047542B3F452B412045C6402AE
:10145B00700A90000112047542B342B412045C642A
:10146B0003700D900001120475FEF452B3EE42B4FA
:10147B00EF6405704912045CFF7E00700B90000155
:10148B00120475F452C952CAEF64014E700B9000EE
:10149B000112047542C9F452CA12045C6402700A48
:1014AB0090000112047542C942CA12045C640370B5
:1014BB000D900001120475FFF452C9EF42CA7F0070
:0114CB0022FE
:101E7800EFFD7C00700F75BA8090FE8074E0F090E2
:101E8800FE82E4F022ED64014C701875BA8090FE71
:101E9800807481F090FE85745AF090FE84E4F0908E
:041EA800FE83F022A3
:101C3F00D200D201E49001BDF0E02400F8E290FE62
:101C4F0086F090FE84E030E605E054BFF02290FE6F
:101C5F0084E030E52DE054DFF0300003C200223085
:101C6F00010DC20190FE87E09001BDF0E0802F9042
:101C7F00FE87E0FF9001BDE0FE04F074002EF8EF48
:101C8F00F22290FE84E030E41EE054EFF0E030E109
:101C9F000790FE8674FFF0229001BDE004F024004F
:101CAF00F8E290FE86F02290FE84E030E308E054E4
:071CBF00F7F0D200D2012270
:0C00460090FE82E030E6F9E054BFF022AA
:0920380090FE817401F0020046E3
:101FEA0090FE86EFF090FE817402F0120046022005
:011FFA0041A5
:0920410090FE817403F0020046D8
:0F200C0090FE817404F012004690FE87E0FF22E0
:0E202A0090FE82E4F090FE817405F002004604
:0F201B0090FE827401F090FE817405F002004681
:09204A0090FE817406F0020046CC
:101FC400E4FFFE000000000FBF00010EBE0BF4BFD3
:021FD400B8F162
:011FD60022E8
:101FFB00E59A30E103539AFDE59A30E003539AFEDC
:01200B0022B2
:03002300021CC6F6
:101CC600C0E0C083C082C0D075D000C006C0073057
:101CD6009831C298900106E07029900104E0C394FF
:101CE6000B748094804002E4F0900104E0FF04F05D
:101CF600740E2FF582E43401F583E599F090010521
:101D06007405F0309934C299900102E0FF90010108
:101D1600E0FE6F602074242EF582E43401F583E042
:101D2600F599900101E004F0C3940B74809480400F
:101D360009E4F08005900103E4F0D007D006D0D086
:071D4600D082D083D0E0320F
:03004300021D4D4E
:101D4D00C0E0C083C082C0D075D000C006C00712ED
:101D5D001FFB90010DE0702990010BE0C3940B74F3
:101D6D008094804002E4F090010BE0FF04F07419C0
:101D7D002FF582E43401F583E59BF090010C740599
:101D8D00F0121FFB900109E0FF900108E0FE6F606B
:101D9D0020742F2EF582E43401F583E0F59B90013C
:101DAD0008E004F0C3940B748094804009E4F08043
:101DBD000590010AE4F0D007D006D0D0D082D083B0
:031DCD00D0E03231
:1008A200900147EBF0A3EAF0A3E9F0900146EFF0E4
:1008B200D2AF64016003020B1990010004F0E4A3BB
:1008C200F0A3F0A3F0A3F0A3F0A3F090014AF090FC
:1008D200014AE0FFC3940B74809480501474242F57
:1008E200F582E43401F583E4F090014AE004F080FB
:1008F200DEE490014AF090014AE0FFC3940B748059
:1009020094805014740E2FF582E43401F583E4F0E0
:1009120090014AE004F080DE900147E0FBA3E0FA98
:10092200A3E0F912045CFD7C00D394C0748094802F
:1009320040037F022290000A12047564017004D2FF
:10094200BC8002C2BC12045CFFE598543F4FF5988C
:10095200ED64C04C6008EF64406003020A449000FA
:10096200021207087F807E8D7D5B7C0012059690C7
:10097200014B120738E4FFFE7D01FC90014BE0F8C9
:10098200A3E0F9A3E0FAA3E0FBC312063640037F1B
:10099200022290014BE0F8A3E0F9A3E0FAA3E0FB06
:1009A200C3E49BFFE49AFE740199FDE498FC900174
:1009B2004B120738900147E0FBA3E0FAA3E0F9905D
:1009C2000001120475FB7A0064017038C28E538EE6
:1009D200FE5389BF5389CF438E4090014BE0FCA365
:1009E200E0FDA3E0FEA3E0FF78081206478F8D909A
:1009F200014BA3A3A3E0F58BC2AB5389BF538FFD79
:100A0200D28E807DEB64024A7035538EEF438E01A5
:100A1200538EF7438E0490014BE0FCA3E0FDA3E06C
:100A2200FEA3E0FF78081206478FD690014BA3A3DE
:100A3200A3E0F5D753AFFB538EF7438E1080427F6E
:100A42000222900147E0FBA3E0FAA3E0F912045C62
:100A5200FF7E007014900008120475640170054353
:100A62008E20801D538EDF8018EF64804E701290AE
:100A72000008120475640170054387808003538760
:100A82007F900147E0FBA3E0FAA3E0F9900009128E
:100A9200047564017004D2AC8002C2AC90000712EB
:100AA200047564017004D29C8002C29C90000B12F7
:040AB2000475700A4D
:080AB60090014F7403F0A3143A
:100ABE00802F900147E0FBA3E0FAA3E0F990000B32
:0A0ACE00120475648090014F70114E
:0F0AD8007403F0A37480F07B017A01794F7F01E2
:020AE700800F7E
:100AE9007403F0A37480F07B017A01794F7F0312BC
:020AF90012EBFE
:100AFB00900147E0FBA3E0FAA3E0F990000B12048E
:100B0B007554C0FFE5A2543F4FF5A27F0022900120
:100B1B0046E064026003020CBF9001077402F0E42C
:100B2B00A3F0A3F0A3F0A3F0A3F0A3F090014AF07D
:100B3B0090014AE0FFC3940B748094805014742F7F
:100B4B002FF582E43401F583E4F090014AE004F0E0
:100B5B0080DEE490014AF090014AE0FFC3940B74ED
:100B6B00809480501474192FF582E43401F583E4DA
:100B7B00F090014AE004F080DE900147E0FBA3E037
:100B8B00FAA3E0F912045CFF64C06008EF644060F4
:100B9B0003020C4590000A1204756401700543B5FD
:100BAB0001800353B5FE12045C64C07005439A8048
:100BBB008003539A7F9000021207087F807E8D7D01
:100BCB005B7C0012059690014B120738E4FFFE7D0B
:100BDB0001FC90014BE0F8A3E0F9A3E0FAA3E0FBE2
:100BEB00C312063640037F022290014BE0F8A3E0CC
:100BFB00F9A3E0FAA3E0FBC3E49BFFE49AFE7401C4
:100C0B0099FDE498FC90014B120738538EEF538EED
:100C1B00F7438E0490014BE0FCA3E0FDA3E0FEA3A1
:100C2B00E0FF78081206478FD690014BA3A3A3E0F1
:100C3B00F5D753AFFB438E1080037F022290014701
:100C4B00E0FBA3E0FAA3E0F990000912047564013C
:100C5B00700543AF01800353AFFE9000071204757C
:100C6B0064017005439A108003539AEF90000B12A6
:070C7B00047590014F701099
:0E0C82007403F0A314F07B017A01794F7F0117
:020C9000800FD3
:100C92007403F0A37480F07B017A01794F7F041210
:020CA20012EB53
:100CA400900147E0FBA3E0FAA3E0F990000B1204E3
:0D0CB400755401FFE5BA54FE4FF5BA7F00FC
:010CC1002210
:101F0400900149EFF0900103E0701304F09001494F
:101F1400E0F5993099FDC299E4900103F0227F0520
:071F24007E00121F9A80DE0F
:101EAC00900109E0242FF582E43401F583EFF090E2
:101EBC000109E004F0C3940B748094804002E4F0B8
:0C1ECC0090010AE0700504F0121FFB22D8
:101ED800900146EBF0A3EAF0A3E9F0900146E0FB9D
:101EE800A3E0FAA3E0F912045CFF600F121F04904C
:0C1EF8000147E475F00112050C80E022A7
:101FD70012045CFF600C121EAC740129F9E43AFA92
:031FE70080EE2267
:072053003098FDC298AF991F
:01205A002263
:05205B00121FFBAF9B0A
:01206000225D
:1014CC00900148EBF0A3EAF0A3E9F0900146EEF0AE
:0314DC00A3EFF08B
:1014DF00E490014BF0A3F0C3EE64809480501EE4BF
:1014EF0090014FF0A3F0900146E0FEA3E0FFC3E4AC
:1014FF009FFFE49E900146F0A3EFF0800890014F0C
:10150F00E4F0A304F0900146E0FEA3E0FF7C007D31
:10151F000A1204D6EF4E604B900146E0FAA3E0FBAF
:10152F007C007D0AFFAE021204D6ED2430FF90013D
:10153F004BE0FCA3E02451F58274013CF583EFF0FE
:10154F007C007D0AAF03AE021204D6900146EEF086
:10155F00A3EFF090014CE004F070AA90014BE0046F
:10156F00F080A2900146A3E02430FF90014BE0FCF5
:10157F00A3E02451F58274013CF583EFF090014F05
:10158F00E07002A3E06003021625900148E0FBA380
:10159F00E0FAA3E0F9742D1204A290014BE0FFA32F
:1015AF00E0A3CFF0A3EFF090014DE0FEA3E0FFD357
:1015BF0094FFEE6480947F404A74512FF58274013A
:1015CF003EF583E0FF90014DE0FCA3E0FDC39001E9
:1015DF004CE09DFD90014BE09CCD2401CD3400FCEF
:1015EF00900148E0FBA3E0FAA3E0F98D828C83EF32
:1015FF001204B490014EE024FFF090014DE034FF4F
:10160F00F080A4900148E0FBA3E0FAA3E0F9900179
:10161F004CE02402807490014BE0FFA3E0A3CFF0D5
:10162F00A3EFF090014DE0FEA3E0FFD394FFEE6433
:10163F0080947F404474512FF58274013EF583E00E
:10164F00FF90014DE0FCA3E0FDC390014CE09DFD38
:10165F0090014BE09CFC900148E0FBA3E0FAA3E073
:10166F00F98D828C83EF1204B490014EE024FFF0C9
:10167F0090014DE034FFF080AA900148E0FBA3E019
:10168F00FAA3E0F990014CE02401FF90014BE03404
:09169F00008F82F583E41204B40B
:0116A800221F
:051E34004201BB0000AB
:0300030002006692
:10006600C0E0C083C0829001BCE004F0700690013D
:0B007600BBE004F0D082D083D0E03269
:0300130002000ADE
:01000A0032C3
:0300530002000E9A
:01000E0032BF
:03005B0002000F91
:01000F0032BE
:0300830002001068
:0100100032BD
:10198900EFD394107480948040037F0122D2AFEF8B
:10199900703090000212047564017004D2A88002AC
:1019A900C2A890000112047564017004D2B88002C3
:1019B900C2B812045C64017004D2888002C2887FB4
:1019C9000022EF6402703090000212047564017005
:1019D90004D2AA8002C2AA9000011204756401709F
:1019E90004D2BA8002C2BA12045C64017004D28AB9
:1019F9008002C28A7F0022EF640A701590000212E9
:101A0900047564017005438F108003538FEF7F00C5
:101A190022EF640B701590000212047564017005C1
:101A2900438F208003538FDF7F0022EF64107015EE
:101A390090000212047564017005438F40800353BE
:081A49008FBF7F00227F022203
:0A1E39004201B700004201B90000A9
:03000B00021B06CF
:101B0600C0E0C0F0C083C082C0D075D000C000C0A5
:101B160001C002C003C004C005C006C0079001B8DA
:101B2600E004F070069001B7E004F09001B7E070B1
:101B360004A3E0640A705B9001BBE0FCA3E0FDEC4B
:101B46001203A290015C1207389001601207444309
:101B56005200009001647401F0A37401F0A374694B
:101B6600F07F01120CC2900189E0FCA3E0FDA3E026
:101B7600FEA3E0FF90019A1207387B017A0179995A
:101B8600E4FF120FEE9001B7E4F0A3F09001BBF072
:101B9600A3F0D007D006D005D004D003D002D001E0
:0D1BA600D000D0D0D082D083D0F0D0E0327B
:03001B00021DD0F3
:101DD000C0E0C0F0C083C082C0D075D000C000C0D9
:101DE00001C002C003C004C005C006C0079001BA0C
:101DF000E004F070069001B9E004F09001B9E070E1
:101E000004A3E06432700A1218759001B9E4F0A3DB
:101E1000F0D007D006D005D004D003D002D001D036
:0C1E200000D0D0D082D083D0F0D0E032CF
:0300630002001187
:0100110032BC
:1016A900AD07EDD394027480948040037F0122D268
:1016B900AFED6003021751C28C90000212047564E9
:1016C900017004D2A98002C2A990000112047564B4
:1016D900017004D2B98002C2B912045CFED394032A
:1016E9007480948040037F0222E58954FC4EF58979
:1016F900900003120475FF7E0064017003538E7F0E
:10170900EF4E7003438E80EF64024E7005438904E7
:1017190080035389FB90000412047564017005432A
:101729008F018003538FFE900005120522E5F0F525
:101739008C900005120522F58A9000071204756441
:10174900017002D28C7F0022ED640160030217EA66
:10175900C28E90000212047564017004D2AB80023B
:10176900C2AB90000112047564017004D2BB8002FF
:10177900C2BB12045CFEC394037480948040037F4F
:101789000222E58954CF4EF589900003120475FFB2
:101799007E0064017003538EBFEF4E7003438E4089
:1017A900EF64024E700543894080035389BF90005E
:1017B9000412047564017005438F028003538FFD81
:1017C900900005120522E5F0F58D9000051205221D
:1017D900F58B90000712047564017002D28E7F00A8
:1017E90022ED64026003021872538EEF9000021218
:1017F90004756401700543AF04800353AFFB900087
:1018090003120475FD7C00D3940274809480400314
:101819007F0222ED64014C7003538EFB900003128A
:1018290004757003438E04900003120475640270FA
:1018390005438E088003538EF790000412047564E3
:10184900017005438F048003538FFB900005120537
:1018590022FDACF0ECF5D68DD79000071204756423
:0C186900017003438E107F00227F0222DA
:101F760012045C900149F090000112047590014A28
:101F8600F090000212047590014BF07B017A017902
:041F9600490219895A
:101FB000E4900146F0A304F0A3F0FB7A017946E433
:041FC000FF021F7687
:101E430060240169402000003F4CCCCD000000001D
:101E530000000000000000000000000044750000C6
:081E6300000000000000000077
:100CC20090015BEFF06003020E8D900164E0FBA3E4
:100CD200E0FAA3E0F990000C12067A9000101206D6
:100CE200C490015CE0F8A3E0F9A3E0FAA3E0FBA35F
:100CF200E0FCA3E0FDA3E0FEA3E0FF120089900167
:100D020064E0FBA3E0FAA3E0F990000C1206C4E948
:100D12002414F9E43AFAC003C002C00112065A9040
:100D22000164E0FBA3E0FAA3E0F990000C120708CB
:100D320012008DD001D002D0031206AA900164E005
:100D4200FBA3E0FAA3E0F990001412067AE4FBFA9E
:100D520079FA78441203245015900164E0FBA3E071
:100D6200FAA3E0F990001412077544FA000090010A
:100D720064E0FBA3E0FAA3E0F990001412067AE41F
:100D8200FBFA79FA78C412032460174015900164C3
:100D9200E0FBA3E0FAA3E0F9900014120775C4FA8D
:100DA2000000900164E0FBA3E0FAA3E0F9900014D4
:100DB20012067A90000412070812017EC004C005D0
:100DC200C006C007900164E0FBA3E0FAA3E0F9903B
:100DD200000C12067A1206E812017ED003D002D06D
:100DE20001D00012008DC004C005C006C0079001EA
:100DF20064E0FBA3E0FAA3E0F9900010120708C038
:100E020000C001C002C003900164E0FBA3E0FAA3AA
:100E1200E0F990000C12067AD003D002D001D00083
:100E2200120089900164E0FBA3E0FAA3E0F99000CC
:100E32000812070812017ED003D002D001D000129E
:100E4200008D900164E0FBA3E0FAA3E0F99000209A
:100E52001206C490001812067A9000201207081297
:100E6200032460054003020FAA900164E0FBA3E0A3
:100E7200FAA3E0F990001C12067A900020120708EB
:100E82001203244003020FED020FD690015BE064CF
:100E9200016003020FED900164E0FBA3E0FAA3E01E
:100EA200F990000C12067A9000101206C490015CB0
:100EB200E0F8A3E0F9A3E0FAA3E0FBA3E0FCA3E0DF
:100EC200FDA3E0FEA3E0FF120089900164E0FBA312
:100ED200E0FAA3E0F990000C1206C4E92420F9E438
:100EE2003AFAC003C002C00112065AC004C005C0CB
:100EF20006C007900164E0FBA3E0FAA3E0F99000CA
:100F020010120708C000C001C002C003900164E0D3
:100F1200FBA3E0FAA3E0F990000C12067AD003D00A
:100F220002D001D000120089900164E0FBA3E0FA34
:100F3200A3E0F91206E812017EC004C005C006C093
:100F420007900164E0FBA3E0FAA3E0F990000C1221
:100F5200067A90000412070812017EA804A905AAC5
:100F620006AB07D007D006D005D00412008DA80426
:100F7200A905AA06AB07D007D006D005D0041200F7
:100F82008DD001D002D0031206AA900164E0FBA327
:100F9200E0FAA3E0F990001812067A9000201207F6
:100FA2000812032460124010900164E0FBA3E0FAEF
:100FB200A3E0F9900018802A900164E0FBA3E0FA14
:100FC200A3E0F990001C12067A9000201207081282
:100FD20003245017900164E0FBA3E0FAA3E0F99028
:0C0FE200001C12067A9000201206C422A7
:101F2B00E49001A2F0A304F0A3F0E4A3F0A304F067
:101F3B00A374A2F0A37440F0A37401F0FB7A0179AF
:061F4B00A2E4FF0216A94A
:0C1E6B00490199000000000046435000AF
:0E0FEE0090015BEFF0A3EBF0A3EAF0A3E9F0B3
:100FFC00A312074400000000900163120744000094
:10100C00000090015CE0FBA3E0FAA3E0F99000057E
:10101C001207087F007E1B7DB77C49120287900166
:10102C005F12073890015CE0FBA3E0FAA3E0F990B3
:10103C000001120708E4FFFE7D7A7C44120089E46B
:10104C00FBFA797A7844120287900163120738759B
:10105C00BA8090FFF2740FF090015FE0FCA3E0FD0A
:10106C00A3E0FEA3E0FF1203DB90FFF0EEF0A3EF92
:10107C00F090015BE0B4080040030212E490109081
:10108C00F82828730210A80210F0021138021180FF
:10109C000211C802121002125802129F90FF00E4B3
:1010AC00F0A3F0900163E0FCA3E0FDA3E0FEA3E05D
:1010BC00FF90015FE0F8A3E0F9A3E0FAA3E0FB12D4
:1010CC00017E1203DB90FF02EEF0A3EFF090015CC7
:1010DC00E0FBA3E0FAA3E0F912045C448090FF0467
:1010EC00F00212E490FF10E4F0A3F0900163E0FC36
:1010FC00A3E0FDA3E0FEA3E0FF90015FE0F8A3E016
:10110C00F9A3E0FAA3E0FB12017E1203DB90FF12BD
:10111C00EEF0A3EFF090015CE0FBA3E0FAA3E0F9A2
:10112C0012045C448090FF14F00212E490FF20E45F
:10113C00F0A3F0900163E0FCA3E0FDA3E0FEA3E0CC
:10114C00FF90015FE0F8A3E0F9A3E0FAA3E0FB1243
:10115C00017E1203DB90FF22EEF0A3EFF090015C16
:10116C00E0FBA3E0FAA3E0F912045C448090FF24B6
:10117C00F00212E490FF30E4F0A3F0900163E0FC85
:10118C00A3E0FDA3E0FEA3E0FF90015FE0F8A3E085
:10119C00F9A3E0FAA3E0FB12017E1203DB90FF320D
:1011AC00EEF0A3EFF090015CE0FBA3E0FAA3E0F912
:1011BC0012045C448090FF34F00212E490FF40E48F
:1011CC00F0A3F0900163E0FCA3E0FDA3E0FEA3E03C
:1011DC00FF90015FE0F8A3E0F9A3E0FAA3E0FB12B3
:1011EC00017E1203DB90FF42EEF0A3EFF090015C66
:1011FC00E0FBA3E0FAA3E0F912045C448090FF4406
:10120C00F00212E490FF50E4F0A3F0900163E0FCD4
:10121C00A3E0FDA3E0FEA3E0FF90015FE0F8A3E0F4
:10122C00F9A3E0FAA3E0FB12017E1203DB90FF525C
:10123C00EEF0A3EFF090015CE0FBA3E0FAA3E0F981
:10124C0012045C448090FF54F00212E490FF60E4BE
:10125C00F0A3F0900163E0FCA3E0FDA3E0FEA3E0AB
:10126C00FF90015FE0F8A3E0F9A3E0FAA3E0FB1222
:10127C00017E1203DB90FF62EEF0A3EFF090015CB5
:10128C00E0FBA3E0FAA3E0F912045C448090FF6455
:10129C00F0804590FF70E4F0A3F0900163E0FCA3B4
:1012AC00E0FDA3E0FEA3E0FF90015FE0F8A3E0F90E
:1012BC00A3E0FAA3E0FB12017E1203DB90FF72EEB7
:1012CC00F0A3EFF090015CE0FBA3E0FAA3E0F912CD
:0E12DC00045C448090FF74F0E4F5BA75FE8067
:0112EA0022E1
:10187500E4900167F0FFFEA3F01220387FA0121F4D
:10188500EA7F3D121FEA1220387FA1121FEA1220BB
:101895000C900167EFF012202A12200C900168EFDE
:1018A500F012201B12204A900168E0FE900167E0CB
:1018B500FDEDFFAC06EC1203A2E4FBFAF978471242
:1018C5000287E4FBFA7934784312017E90018D1288
:1018D50007381220387FA0121FEA7F3E121FEA1236
:1018E50020387FA1121FEA12200C900167EFF01239
:1018F500202A12200C900168EFF012201B12204ABA
:10190500900168E0FE900167E0FDEDFFAC06EC128A
:1019150003A2E4FBFAF97847120287E4FBFA79346B
:10192500784312017E9001911207381220387FA06A
:10193500121FEA7F3F121FEA1220387FA1121FEA09
:1019450012200C900167EFF012202A12200C900152
:1019550068EFF012201B12204A900168E0FE90010A
:1019650067E0FDEDFFAC06EC1203A2E4FBFAF978A3
:1019750047120287E4FBFA7934784312017E90011D
:041985009502073888
:101F5100E49001AAF0A304F0A3F0E4A3F0A304F039
:101F6100A374A2F0A37440F0A37401F0FB7A017989
:051F7100AAFF0216A901
:10008600020447E86480F8E933E83360110460F05D
:10009600ED33EC337009E8FCE9FDEAFEEBFF2204E0
:1000A60060DED3EB9FEA9EE99DE8C2E78CF0C2F7DB
:1000B60095F0400CE8CCF8E9CDF9EACEFAEBCFFBA7
:1000C60012041285D0F05804700320D5B3E80470EA
:1000D600075002B2D502045192D5EC0460F7E4CC85
:1000E600C0E0C398F8603B94186008400DD0E0FB70
:1000F600020429E4FBFAC9FC8028E830E406E4C9D6
:10010600FBE4CAFCE830E305E4C9CACBFCE85407C3
:100116006010F8C3E913F9EA13FAEB13FBEC13FCCE
:10012600D8F130F52FC3E49CFCEF9BFFEE9AFEED71
:1001360099FDD0E0FBEF4E4D4C701222DB0302041A
:100146004EEC2CFCEF33FFEE33FEED33FDED30E7E6
:10015600EB020429EF2BFFEE3AFEED39FDD0E0FB72
:1001660050130BBB0003020451ED13FDEE13FEEF1B
:0801760013FFEC13FC02042945
:10017E00EC4D6011E8497017ED33EC3304600DE47B
:10018E00FCFFFEFD22E933E8330470F80204471247
:10019E00041258046009E4CC248150062850090248
:1001AE00045128400302044EC0E0EB4A7044B9806B
:1001BE0006D0E0FB02043DEF4E701CBD8008EBFF45
:1001CE00EAFEE9FD80EBE98DF0A4FEE5F0020267A0
:1001DE00E9CDF9EAFEEBFFEF89F0A4FCE5F0CE895C
:1001EE00F0A42EFFE435F0CD89F0A42DFEE435F019
:1001FE008067EF4E7005BD80D780C3EF8BF0A4AC47
:10020E00F0EE8BF0A42CFCE435F0F8EF8AF0A42C81
:10021E00E5F038FCE433CB8DF0A42CFCE5F03BF894
:10022E00EE8AF0A42CFCE5F038F8E433CF89F0A484
:10023E002CFCE5F038CF3400CE89F0A42FFFE5F08A
:10024E003EFEE433C98DF0A42EFEE5F039CD8AF0E2
:10025E00A42FFFE5F03EFEE43DFD33D0E0FB50075A
:10026E000BBB000F020451EC2CFCEF33FFEE33FE00
:06027E00ED33FD0204292E
:10028400020451EC5D046005E8590470030204475C
:10029400120412580460F6EC4860F2EC7004FDFE9F
:1002A400FF22C860DB2481C85009C398600250064D
:1002B40002044E9850CAF582E9294B4A7005AB8274
:1002C40002043D75F0007C1A7880C3EF9BEE9AED32
:1002D40099400DC3EF9BFFEE9AFEED99FDE842F0C5
:1002E400DC23ACF0D0E0FFD0E0FED0E0FDAB822018
:1002F400E7101BEB60BAEC2CFCEF33FFEE33FEEDA2
:1003040033FD020429E803F830E705C0F075F00076
:10031400EF2FFFEE33FEED33FD40B830E7C280AA85
:1003240074F8CC6480CCC86480C8F58204604FC380
:10033400EB9FF5F0EA9E42F0E99D42F0E89C45F01F
:10034400603C501DE5825FFFE582D313CB5BCBF4A9
:100354002B5582FB50280ABA002409B900200880D2
:100364001DE5825BFBE582D313CF5FCFF4C3132F6C
:100374005582FF50090EBE00050DBD00010CC3EBF4
:100384009FF5F0EA9E42F0E99D42F0E89C45F0605A
:0903940007CC4820E701B3EC227C
:10039D0075F020800E75F010800575F0087D007EDB
:1003AD00007F003392D530D503120628EC33401070
:1003BD00EF33FFEE33FEED33FDEC33FCD5F0ED22E4
:0E03CD00E5F0247EA2D513CC92E7CDCEFF2220
:1003DB00EDD2E7CD33EC3392D524814006E4FFFE1A
:1003EB00FDFC22FCE4CFCECDCC24E0501174FF8079
:1003FB00EDC3CC13CCCD13CDCE13CECF13CF047016
:07040B00F030D5DE020628E7
:10041200E9D2E7C933E833F892D5EDD2E7CD33EC30
:0704220033FC5002B2D522A9
:10042900EC30E7100FBF000C0EBE00080DBD000434
:100439000BEB6014A2D5EB13FCED92E7FD2274FFE0
:10044900FCFDFEFF22E480F8A2D574FF13FC7D8039
:03045900E480EF4D
:101BBF00021A51E493A3F8E493A34003F68001F2D1
:101BCF0008DFF48029E493A3F85407240CC8C33327
:101BDF00C4540F4420C8834004F456800146F6DFF6
:101BEF00E4800B0102040810204080901E2CE47E3C
:101BFF00019360BCA3FF543F30E509541FFEE493EB
:101C0F00A360010ECF54C025E060A840B8E493A3B1
:101C1F00FAE493A3F8E493A3C8C582C8CAC583CADC
:101C2F00F0A3C8C582C8CAC583CADFE9DEE780BE94
:011E7700006A
:10045C00BB010689828A83E0225002E722BBFE029E
:09046C00E32289828A83E49322D1
:10047500BB010CE58229F582E5833AF583E022503C
:1004850006E92582F8E622BBFE06E92582F8E22286
:0D049500E58229F582E5833AF583E49322A0
:1004A200BB010689828A83F0225002F722BBFE0139
:0204B200F32233
:1004B400F8BB010DE58229F582E5833AF583E8F07E
:1004C400225006E92582C8F622BBFE05E92582C82A
:0204D400F22212
:1004D600C2D5EC30E709B2D5E4C39DFDE49CFCEE41
:1004E60030E715B2D5E4C39FFFE49EFE120799C319
:1004F600E49DFDE49CFC800312079930D507C3E414
:060506009FFFE49EFE22AF
:10050C00C5F0F8A3E028F0C5F0F8E582158270027A
:06051C001583E038F02217
:10052200BB0110E58229F582E5833AF583E0F5F017
:10053200A3E0225009E92582F886F008E622BBFEF4
:100542000AE92582F8E2F5F008E222E5832AF5833A
:08055200E993F5F0A3E99322FF
:10055A0075F008758200EF2FFFEE33FECD33CDCC58
:10056A0033CCC58233C5829BED9AEC99E5829840DB
:10057A000CF582EE9BFEED9AFDEC99FC0FD5F0D6B8
:10058A00E4CEFBE4CDFAE4CCF9A88222B800C1B9E2
:10059A000059BA002DEC8BF084CFCECDFCE5F0CB20
:1005AA00F97818EF2FFFEE33FEED33FDEC33FCEB59
:1005BA0033FB10D703994004EB99FB0FD8E5E4F914
:1005CA00FA227818EF2FFFEE33FEED33FDEC33FC01
:1005DA00C933C910D7059BE99A4007EC9BFCE99AF5
:1005EA00F90FD8E0E4C9FAE4CCFB2275F010EF2F3A
:1005FA00FFEE33FEED33FDCC33CCC833C810D7073A
:10060A009BEC9AE899400AED9BFDEC9AFCE899F874
:0E061A000FD5F0DAE4CDFBE4CCFAE4C8F92207
:0E062800C3E49FFFE49EFEE49DFDE49CFC22E3
:10063600EB9FF5F0EA9E42F0E99D42F0E89C45F01A
:010646002291
:10064700E8600FECC313FCED13FDEE13FEEF13FF91
:03065700D8F122B5
:10065A00BB010789828A830207FA5005E9F8020773
:10066A00EEBBFE05E9F802080689828A83020812AF
:10067A00BB010DE58229F582E5833AF5830207FA83
:10068A005007E92582F80207EEBBFE07E92582F842
:10069A00020806E58229F582E5833AF58302081203
:1006AA00BB010789828A830207385005E9F80208E4
:0A06BA0058BBFE05E9F802086422AF
:1006C400BB010DE58229F582E5833AF583020738FB
:1006D4005007E92582F8020858BBFE07E92582F88D
:0406E4000208642282
:1006E800BB010789828A8302082F5005E9F80208AE
:1006F80022BBFE05E9F802083B89828A8302084882
:10070800BB010DE58229F582E5833AF58302082FBE
:100718005007E92582F8020822BBFE07E92582F87E
:1007280002083BE58229F582E5833AF58302084809
:0C073800ECF0A3EDF0A3EEF0A3EFF02234
:10074400A8828583F0D083D08212075B12075B12E4
:10075400075B12075BE473E493A3C583C5F0C58309
:10076400C8C582C8F0A3C583C5F0C583C8C582C8FF
:010774002262
:10077500BB010DE58229F582E5833AF5830207443D
:100785005007E92582F8020870BBFE07E92582F8C3
:0407950002088922AB
:10079900BC000BBE0029EF8DF084FFADF022E4CC44
:1007A900F875F008EF2FFFEE33FEEC33FCEE9DEC0D
:1007B900984005FCEE9DFE0FD5F0E9E4CEFD22ED53
:1007C900F8F5F0EE8420D21CFEADF075F008EF2F9D
:1007D900FFED33FD4007985006D5F0F222C398FD8E
:0507E9000FD5F0EA222B
:0C07EE00E6FC08E6FD08E6FE08E6FF2237
:0C07FA00E0FCA3E0FDA3E0FEA3E0FF2272
:0C080600E2FC08E2FD08E2FE08E2FF222E
:10081200E493FC740193FD740293FE740393FF222C
:0D082200E6FB08E6F908E6FA08E6CBF82246
:0C082F00E0F8A3E0F9A3E0FAA3E0FB224C
:0D083B00E2FB08E2F908E2FA08E2CBF8223D
:10084800E493F8740193F9740293FA740393FB2206
:0C085800ECF608EDF608EEF608EFF622CC
:0C086400ECF208EDF208EEF208EFF222D0
:10087000D083D082E493F608740193F6087402934F
:09088000F608740393F674047386
:10088900D083D082E493F208740193F2087402933E
:09089900F208740393F274047375
:00000001FF
