:03000000022FD1FB
:0C2FD100787FE4F6D8FD758120023018EE
:10365200496E69742100776B703A00776B693A00A2
:0A366200776B643A0076616C3A0061
:102B6D00E4900370F0A3F0122C3E7BFF7A3679527D
:102B7D007D037F0D122F2F7FE87E0312363712361D
:102B8D00AE12351712356A1233E07BFF7A3679585B
:102B9D007D01E4FF122F2F900328E0FCA3E0FDA39D
:102BAD00E0FEA3E0FF9003741208A67D017F1912C9
:102BBD001B0B7BFF7A36795D7D02E4FF122F2F9080
:102BCD00032CE0FCA3E0FDA3E0FEA3E0FF90037463
:102BDD001208A67D027F19121B0B7BFF7A367962D4
:102BED007D03E4FF122F2F900330E0FCA3E0FDA343
:102BFD00E0FEA3E0FF9003741208A67D037F191277
:102C0D001B0B7BFF7A3679677D07E4FF122F2F9020
:102C1D00043DE0FCA3E0FDA3E0FEA3E0FF1203EC06
:102C2D00AB07AA067D077F191224F71233E0022B9A
:012C3D0097FF
:10363700E4FDFCC3ED9FEC9E50100079207B28DB56
:0A364700FED9FC0DBD00010C80E966
:013651002256
:10366C00E4FDFCC3ED9FEC9E500B7B06DBFE0DBD19
:05367C0000010C80EECE
:013681002226
:101F6D00EFD394057480948040037F0122120563A2
:101F7D00FED394037480948040037F0222EF70445B
:101F8D00EE700B90000112057CF4529352941205E1
:101F9D00636401700B90000112057C4293F452941E
:101FAD00120563FE6402700A90000112057C4293D3
:101FBD004294EE6403700D90000112057CFEF45204
:101FCD0093EE4294EF64017046120563FE700B9020
:101FDD00000112057CF452915292EE6401700B9047
:101FED00000112057C4291F4529212056364027055
:101FFD000A90000112057C4291429212056364031E
:10200D00700D90000112057CFEF45291EE4292EF9C
:10201D0064027046120563FE700B90000112057C80
:10202D00F452955296EE6401700B90000112057CEE
:10203D004295F452961205636402700A90000112E3
:10204D00057C429542961205636403700D90000164
:10205D0012057CFEF45295EE4296EF640370461223
:10206D000563FE700B90000112057CF452B152B263
:10207D00EE6401700B90000112057C42B1F452B276
:10208D001205636402700A90000112057C42B14290
:10209D00B21205636403700D90000112057CFEF40D
:1020AD0052B1EE42B2EF64047046120563FE700B3E
:1020BD0090000112057CF452B352B4EE6401700B22
:1020CD0090000112057C42B3F452B4120563640210
:1020DD00700A90000112057C42B342B4120563648C
:1020ED0003700D90000112057CFEF452B3EE42B464
:1020FD00EF64057049120563FF7E00700B900001BF
:10210D0012057CF452C952CAEF64014E700B900057
:10211D000112057C42C9F452CA1205636402700AA9
:10212D0090000112057C42C942CA12056364037016
:10213D000D90000112057CFFF452C9EF42CA7F00D9
:01214D00226F
:10342800EFFD7C00701075BA9090FE8074E0F0900B
:10343800FE82E4F0801EED64014C701875BA80902D
:10344800FE807481F090FE85745AF090FE84E4F05A
:0834580090FE83F0E4F5BA22B6
:1030E900D200D201E4900494F0E02400F8E290FECA
:1030F90086F090FE84E030E605E054BFF02290FEB1
:1031090084E030E52DE054DFF0300003C2002230C6
:10311900010DC20190FE87E0900494F0E0802F90A9
:10312900FE87E0FF900494E0FE04F074002EF8EFAF
:10313900F22290FE84E030E41EE054EFF0E030E14A
:103149000790FE8674FFF022900494E004F02400B6
:10315900F8E290FE86F02290FE84E030E308E05425
:07316900F7F0D200D20122B1
:0C00460090FE82E030E6F9E054BFF022AA
:0937360090FE817401F0020046CE
:1036E80090FE86EFF090FE817402F01200460237D9
:0136F8003F92
:09373F0090FE817403F0020046C3
:0F370A0090FE817404F012004690FE87E0FF22CB
:0E37280090FE82E4F090FE817405F0020046EF
:0F37190090FE827401F090FE817405F00200466C
:0937480090FE817406F0020046B7
:1036C200E4FFFE000000000FBF00010EBE0BF4BFBE
:0236D200B8F14D
:0136D40022D3
:1036F900E59A30E103539AFDE59A30E003539AFEC7
:01370900229D
:0300230002317037
:10317000C0E0C083C082C0D075D000C006C0073098
:103180009831C2989003B8E070299003B6E0C394D8
:103190000B748094804002E4F09003B6E0FF04F0EA
:1031A00074C02FF582E43403F583E599F09003B7FA
:1031B0007405F0309934C2999003B4E0FF9003B3E2
:1031C000E0FE6F602074D62EF582E43403F583E0D0
:1031D000F5999003B3E004F0C3940B74809480409D
:1031E00009E4F080059003B5E4F0D007D006D0D014
:0731F000D082D083D0E03251
:030043000231F790
:1031F700C0E0C083C082C0D075D000C006C007122F
:1032070036F99003BFE070299003BDE0C3940B74B7
:103217008094804002E4F09003BDE0FF04F074CB9B
:103227002FF582E43403F583E59BF09003BE740524
:10323700F01236F99003BBE0FF9003BAE0FE6F602F
:103247002074E12EF582E43403F583E0F59B9003C7
:10325700BAE004F0C3940B748094804009E4F080D2
:10326700059003BCE4F0D007D006D0D0D082D0833D
:03327700D0E03272
:100E9C0090046AEBF0A3EAF0A3E9F0900469EFF098
:100EAC00D2AF640160030211139003B204F0E4A307
:100EBC00F0A3F0A3F0A3F0A3F0A3F090046DF090D6
:100ECC00046DE0FFC3940B74809480501474D62F7F
:100EDC00F582E43403F583E4F090046DE004F080D3
:100EEC00DEE490046DF090046DE0FFC3940B74800D
:100EFC009480501474C02FF582E43403F583E4F02D
:100F0C0090046DE004F080DE90046AE0FBA3E0FA4C
:100F1C00A3E0F9120563FD7C00D394C07480948027
:100F2C0040037F022290000A12057C64017004D2F7
:100F3C00BC8002C2BC120563FFE598543F4FF59884
:100F4C00ED64C04C6008EF6440600302103E9000FA
:100F5C00021208767F807E8D7D5B7C0012070490E8
:100F6C00046E1208A6E4FFFE7D01FC90046EE0F80E
:100F7C00A3E0F9A3E0FAA3E0FBC31207A440037FAC
:100F8C00022290046EE0F8A3E0F9A3E0FAA3E0FBE0
:100F9C00C3E49BFFE49AFE740199FDE498FC900471
:100FAC006E1208A690046AE0FBA3E0FAA3E0F990A5
:100FBC00000112057CFB7A0064017038C28E538EDE
:100FCC00FE5389BF5389CF438E4090046EE0FCA33F
:100FDC00E0FDA3E0FEA3E0FF78081207B58F8D902B
:100FEC00046EA3A3A3E0F58BC2AB5389BF538FFD53
:100FFC00D28E807DEB64024A7035538EEF438E01A6
:10100C00538EF7438E0490046EE0FCA3E0FDA3E046
:10101C00FEA3E0FF78081207B58FD690046EA3A349
:10102C00A3E0F5D753AFFB538EF7438E1080427F6E
:10103C00022290046AE0FBA3E0FAA3E0F912056334
:10104C00FF7E00701490000812057C64017005434B
:10105C008E20801D538EDF8018EF64804E701290AE
:10106C00000812057C640170054387808003538758
:10107C007F90046AE0FBA3E0FAA3E0F99000091268
:10108C00057C64017004D2AC8002C2AC90000712E3
:10109C00057C64017004D29C8002C29C90000B12EF
:0410AC00057C700A45
:0810B0009004727403F0A31414
:1010B800802F90046AE0FBA3E0FAA3E0F990000B0C
:0A10C80012057C6480900472701120
:0F10D2007403F0A37480F07B017A0479727F01BC
:0210E100800F7E
:1010E3007403F0A37480F07B017A0479727F031296
:0210F3001F6D6F
:1010F50090046AE0FBA3E0FAA3E0F990000B120567
:101105007C54C0FFE5A2543F4FF5A27F0022900416
:1011150069E0640260030212B99003B97402F0E455
:10112500A3F0A3F0A3F0A3F0A3F0A3F090046DF057
:1011350090046DE0FFC3940B74809480501474E1A7
:101145002FF582E43403F583E4F090046DE004F0B8
:1011550080DEE490046DF090046DE0FFC3940B74A1
:10116500809480501474CB2FF582E43403F583E426
:10117500F090046DE004F080DE90046AE0FBA3E0EB
:10118500FAA3E0F9120563FF64C06008EF644060EC
:101195000302123F90000A12057C6401700543B5F5
:1011A50001800353B5FE12056364C07005439A8040
:1011B5008003539A7F9000021208767F807E8D7D92
:1011C5005B7C0012070490046E1208A6E4FFFE7D06
:1011D50001FC90046EE0F8A3E0F9A3E0FAA3E0FBBC
:1011E500C31207A440037F022290046EE0F8A3E037
:1011F500F9A3E0FAA3E0FBC3E49BFFE49AFE7401C4
:1012050099FDE498FC90046E1208A6538EEF538E58
:10121500F7438E0490046EE0FCA3E0FDA3E0FEA37B
:10122500E0FF78081207B58FD690046EA3A3A3E05C
:10123500F5D753AFFB438E1080037F022290046ADB
:10124500E0FBA3E0FAA3E0F990000912057C640134
:10125500700543AF01800353AFFE90000712057C74
:1012650064017005439A108003539AEF90000B12A6
:07127500057C90047270106B
:0E127C007403F0A314F07B017A0479727F01F1
:02128A00800FD3
:10128C007403F0A37480F07B017A0479727F0412EA
:02129C001F6DC4
:10129E0090046AE0FBA3E0FAA3E0F990000B1205BC
:0D12AE007C5401FFE5BA54FE4FF5BA7F00F5
:0112BB002210
:10354300900495EFF09003B5E0701304F0900495A8
:10355300E0F5993099FDC299E49003B5F0227F0517
:073563007E0012366C80DED1
:1034BF009003BBE024E1F582E43403F583EFF09051
:1034CF0003BBE004F0C3940B748094804002E4F0DB
:0C34DF009003BCE0700504F01236F922E6
:1034EB0090048AEBF0A3EAF0A3E9F090048AE0FBE6
:1034FB00A3E0FAA3E0F9120563FF600F12354390C6
:0C350B00048BE475F00112067A80E022C7
:1036D500120563FF600C1234BF740129F9E43AFA4C
:0336E50080EE2252
:07375A003098FDC298AF9901
:013761002245
:053762001236F9AF9BD7
:01376700223F
:10214E00900429EBF0A3EAF0A3E9F0900427EEF057
:03215E00A3EFF0FC
:10216100E490042CF0A3F0C3EE64809480501EE44C
:10217100900430F0A3F0900427E0FEA3E0FFC3E455
:102181009FFFE49E900427F0A3EFF08008900430B5
:10219100E4F0A304F0900427E0FEA3E0FF7C007DBF
:1021A1000A120644EF4E604B900427E0FAA3E0FBCD
:1021B1007C007D0AFFAE02120644ED2430FF90043C
:1021C1002CE0FCA3E02432F58274043CF583EFF0AB
:1021D1007C007D0AAF03AE02120644900427EEF0A4
:1021E100A3EFF090042DE004F070AA90042CE00419
:1021F100F080A2900427A3E02430FF90042CE0FC9F
:10220100A3E02432F58274043CF583EFF0900430AE
:10221100E07002A3E060030222A7900429E0FBA37F
:10222100E0FAA3E0F9742D1205A990042CE0FFA3B4
:10223100E0A3CFF0A3EFF090042EE0FEA3E0FFD3E4
:1022410094FFEE6480947F404A74322FF5827404C7
:102251003EF583E0FF90042EE0FCA3E0FDC3900473
:102261002DE09DFD90042CE09CCD2401CD3400FC9B
:10227100900429E0FBA3E0FAA3E0F98D828C83EFBF
:102281001205BB90042FE024FFF090042EE034FFF0
:10229100F080A4900429E0FBA3E0FAA3E0F9900404
:1022A1002DE02402807490042CE0FFA3E0A3CFF082
:1022B100A3EFF090042EE0FEA3E0FFD394FFEE64C1
:1022C10080947F404474322FF58274043EF583E09C
:1022D100FF90042EE0FCA3E0FDC390042DE09DFDE2
:1022E10090042CE09CFC900429E0FBA3E0FAA3E01D
:1022F100F98D828C83EF1205BB90042FE024FFF04F
:1023010090042EE034FFF080AA900429E0FBA3E0C2
:10231100FAA3E0F990042DE02401FF90042CE034AD
:09232100008F82F583E41205BB74
:01232A002290
:1018900090044E1208A6900452EBF0A3EAF0A3E9DC
:0118A000F057
:1018A100E4FFFEFDFC90044EE0F8A3E0F9A3E0FAAA
:1018B100A3E0FB120324900452E0FBA3E0FAA3E0AF
:1018C100F94007742B1205A9801C742D1205A990EB
:1018D100044EE0FCA3E0FDA3E0FEA3E0FF12039DA4
:1018E10090044E1208A690044EE0FCA3E0FDA3E094
:1018F100FEA3E0FF1203EC900457EEF0A3EFF0E437
:10190100A3F0A3F0900457E0FEA3E0FF4E601F7C1C
:10191100007D0A120644900457EEF0A3EFF0900404
:101921005AE004F070DE900459E004F080D690048F
:101931004EE0FCA3E0FDA3E0FEA3E0FF1203EC9068
:101941000457EEF0A3EFF0A3E0FFA3E0A3CFF0A3D1
:10195100EFF0D390045CE0940090045BE064809429
:10196100804054900457E0FEA3E0FF7C007D0A1202
:101971000644ED2430FF900452E0FBA3E0FAA3E01B
:10198100F990045BE0FCA3E0F5828C83EF1205BBC8
:10199100900457E0FEA3E0FF7C007D0A120644900C
:1019A1000457EEF0A3EFF090045CE024FFF0900404
:1019B1005BE034FFF0809B900452E0FBA3E0FAA3CC
:1019C100E0F990045AE02401FF900459E034008FBB
:1019D10082F583742E1205BB90044EE0FCA3E0FD5A
:1019E100A3E0FEA3E0FFC004C005C006C007900449
:1019F1004EA3A3A3E01203ECAD07AC06EC1203B3B4
:101A0100A804A905AA06AB07D007D006D005D004C3
:101A110012008990044E1208A690045AE02402F0A4
:101A2100900459E03400F0900456E024FFFF900444
:101A310055E034FFFEC390045AE09FEE6480F890B5
:101A41000459E06480984003021AEB90044EE0FCD4
:101A5100A3E0FDA3E0FEA3E0FFE4FBFA79207841D7
:101A610012017E90044E1208A690044EE0FCA3E001
:101A7100FDA3E0FEA3E0FF1203ECEF2430FF90048E
:101A810052E0FBA3E0FAA3E0F9900459E0FCA3E0E3
:101A9100F5828C83EF1205BB90044EE0FCA3E0FDC0
:101AA100A3E0FEA3E0FFC004C005C006C007900488
:101AB1004EA3A3A3E01203ECAD07AC06EC1203B3F3
:101AC100A804A905AA06AB07D007D006D005D00403
:101AD10012008990044E1208A690045AE004F07096
:101AE10006900459E004F0021A28900452E0FBA386
:101AF100E0FAA3E0F9900456E024FFFF900455E0DA
:0A1B010034FF8F82F583E40205BB78
:0515B900420490000057
:0300030002000AEE
:01000A0032C3
:0300130002000EDA
:01000E0032BF
:0300530002000F99
:01000F0032BE
:03005B0002001090
:0100100032BD
:0300830002001167
:0100110032BC
:03003B00023490FC
:10349000C0E0C083C08230D802C2D830D910C2D9AF
:1034A000900491E004F07006900490E004F030DAAB
:0F34B00002C2DA30DB02C2DBD082D083D0E0323E
:10267300EFD394107480948040037F0122D2AFEF94
:10268300703090000212057C64017004D2A88002AD
:10269300C2A890000112057C64017004D2B88002C4
:1026A300C2B812056364017004D2888002C2887FB5
:1026B3000022EF6402703090000212057C64017006
:1026C30004D2AA8002C2AA90000112057C640170A0
:1026D30004D2BA8002C2BA12056364017004D28ABA
:1026E3008002C28A7F0022EF640A701590000212F2
:1026F300057C64017005438F108003538FEF7F00C7
:1027030022EF640B701590000212057C64017005C2
:10271300438F208003538FDF7F0022EF64107015F7
:1027230090000212057C64017005438F40800353BF
:102733008FBF7F0022EF6407701FF5D875D90DF5A1
:10274300E9F5F91205636401700575DA1180037503
:10275300DA21E4F5EAF5FA806AEF6408701FF5D828
:1027630075D90DF5E9F5F91205636401700575DB9B
:1027730011800375DB21E4F5EBF5FB8046EF64097B
:10278300701FF5D875D90DF5E9F5F91205636401E4
:10279300700575DC11800375DC21E4F5ECF5FC8034
:1027A30022EF640C7021F5D875D90DF5E9F5F9120E
:1027B30005636401700575DD11800375DA21E4F5A5
:0A27C300EDF5FDD2DEFF227F0222B9
:0A15BE004204820000420484000091
:03000B00022E8240
:102E8200C0E0C0F0C083C082C0D075D000C000C016
:102E920001C002C003C004C005C006C0079004837D
:102EA200E004F07006900482E004F0900482E07086
:102EB20004A3E0640A705B900490E0FCA3E0FDECE4
:102EC2001203B39003A71208A69003AB1208B243F1
:102ED2002000009003AF7401F0A37403F0A37428E0
:102EE200F07F011209BB900348E0FCA3E0FDA3E0E0
:102EF200FEA3E0FF90043D1208A67B017A04793C10
:102F0200E4FF122914900482E4F0A3F0900490F0FC
:102F1200A3F0D007D006D005D004D003D002D00150
:0D2F2200D000D0D0D082D083D0F0D0E032EB
:03001B00022DC9EA
:102DC900C0E0C0F0C083C082C0D075D000C000C0D0
:102DD90001C002C003C004C005C006C00790048535
:102DE900E004F07006900484E004F0900484E0703C
:102DF90004A3E0640A7067121D4790040FE0FCA366
:102E0900E0FDA3E0FEA3E0FF12039D9003A71208D3
:102E1900A69003AB1208B2C08000009003AF740102
:102E2900F0A37403F0A3744CF07F021209BBE4FF12
:102E3900FE7D9C7C4290036CE0F8A3E0F9A3E0FAE4
:102E4900A3E0FB12008D9004461208A67B017A04C8
:102E590079457F011212BC900484E4F0A3F0D007F5
:102E6900D006D005D004D003D002D001D000D0D0F4
:092E7900D082D083D0F0D0E03209
:0300630002001286
:0100120032BB
:10232B00AD07EDD394027480948040037F0122D2D9
:10233B00AFED60030223D3C28C90000212057C64C4
:10234B00017004D2A98002C2A990000112057C641D
:10235B00017004D2B98002C2B9120563FED3940393
:10236B007480948040037F0222E58954FC4EF589EA
:10237B0090000312057CFF7E0064017003538E7F77
:10238B00EF4E7003438E80EF64024E700543890459
:10239B0080035389FB90000412057C640170054394
:1023AB008F018003538FFE900005120690E5F0F528
:1023BB008C900005120690F58A90000712057C643C
:1023CB00017002D28C7F0022ED6401600302246C49
:1023DB00C28E90000212057C64017004D2AB8002A5
:1023EB00C2AB90000112057C64017004D2BB800269
:1023FB00C2BB120563FEC394037480948040037FB9
:10240B000222E58954CF4EF58990000312057CFF1B
:10241B007E0064017003538EBFEF4E7003438E40FA
:10242B00EF64024E700543894080035389BF9000CF
:10243B000412057C64017005438F028003538FFDEA
:10244B00900005120690E5F0F58D900005120690B0
:10245B00F58B90000712057C64017002D28E7F0011
:10246B0022ED640260030224F4538EEF90000212FB
:10247B00057C6401700543AF04800353AFFB9000F0
:10248B000312057CFD7C00D394027480948040037E
:10249B007F0222ED64014C7003538EFB90000312FC
:1024AB00057C7003438E0490000312057C6402705C
:1024BB0005438E088003538EF790000412057C644D
:1024CB00017005438F048003538FFB9000051206A8
:1024DB0090FDACF0ECF5D68DD790000712057C641F
:0C24EB00017003438E107F00227F02224C
:1035B500120563900375F090000112057C90037667
:1035C500F090000212057C900377F07B017A037975
:0435D50075022673E2
:1036AE00E4900372F0A304F0A3F0FB7A0379727F27
:0436BE00080235B514
:1015C800602403283E19999A3EE666663E8F5C2998
:1015D800000000000000000000000000447500004A
:1015E80000000000000000006024034C3EC718A85B
:1015F8003E19999A3D36A401000000000000000041
:101608000000000042500000C2500000000000002E
:1009BB009003A6EFF06003020B869003AFE0FBA35E
:1009CB00E0FAA3E0F990000C1207E890001012086F
:1009DB00329003A7E0F8A3E0F9A3E0FAA3E0FBA3AE
:1009EB00E0FCA3E0FDA3E0FEA3E0FF12008990036F
:1009FB00AFE0FBA3E0FAA3E0F990000C120832E998
:100A0B002414F9E43AFAC003C002C0011207C890DB
:100A1B0003AFE0FBA3E0FAA3E0F990000C12087619
:100A2B0012008DD001D002D0031208189003AFE052
:100A3B00FBA3E0FAA3E0F99000141207E8E4FBFA39
:100A4B0079A0784012032450159003AFE0FBA3E08C
:100A5B00FAA3E0F99000141208E340A00000900301
:100A6B00AFE0FBA3E0FAA3E0F99000141207E8E46F
:100A7B00FBFA79A078C0120324601740159003AFDE
:100A8B00E0FBA3E0FAA3E0F99000141208E3C0A086
:100A9B0000009003AFE0FBA3E0FAA3E0F990001491
:100AAB001207E890000412087612017EC004C005FC
:100ABB00C006C0079003AFE0FBA3E0FAA3E0F990F8
:100ACB00000C1207E812085612017ED003D002D098
:100ADB0001D00012008DC004C005C006C0079003F2
:100AEB00AFE0FBA3E0FAA3E0F9900010120876C088
:100AFB0000C001C002C0039003AFE0FBA3E0FAA368
:100B0B00E0F990000C1207E8D003D002D001D0001E
:100B1B001200899003AFE0FBA3E0FAA3E0F9900089
:100B2B000812087612017ED003D002D001D0001239
:100B3B00008D9003AFE0FBA3E0FAA3E0F990002057
:100B4B001208329000181207E89000201208761253
:100B5B00032460054003020E589003AFE0FBA3E0B3
:100B6B00FAA3E0F990001C1207E890002012087617
:100B7B001203244003020E9B020E849003A6E06432
:100B8B00016003020CC89003AFE0FBA3E0FAA3E003
:100B9B00F990000C1207E89000101208329003A78E
:100BAB00E0F8A3E0F9A3E0FAA3E0FBA3E0FCA3E0E9
:100BBB00FDA3E0FEA3E0FF1200899003AFE0FBA3CF
:100BCB00E0FAA3E0F990000C120832E92420F9E4D2
:100BDB003AFAC003C002C0011207C8C004C005C066
:100BEB0006C0079003AFE0FBA3E0FAA3E0F9900087
:100BFB0010120876C000C001C002C0039003AFE022
:100C0B00FBA3E0FAA3E0F990000C1207E8D003D0A5
:100C1B0002D001D0001200899003AFE0FBA3E0FAF1
:100C2B00A3E0F912085612017EC004C005C006C02D
:100C3B00079003AFE0FBA3E0FAA3E0F990000C12DE
:100C4B0007E890000412087612017EA804A905AAF1
:100C5B0006AB07D007D006D005D00412008DA80430
:100C6B00A905AA06AB07D007D006D005D004120001
:100C7B008DD001D002D0031208189003AFE0FBA374
:100C8B00E0FAA3E0F99000181207E8900020120890
:100C9B007612032460054003020E589003AFE0FB6D
:100CAB00A3E0FAA3E0F990001C1207E890002012D1
:100CBB0008761203244003020E9B020E849003A6B7
:100CCB00E064026003020E9B9003AFE0FBA3E0FA2B
:100CDB00A3E0F990000C1207E89000101208329074
:100CEB0003A7E0FCA3E0FDA3E0FEA3E0FFA3E0F875
:100CFB00A3E0F9A3E0FAA3E0FB12008D9003AFE0B1
:100D0B00FBA3E0FAA3E0F990000C120832E92414DB
:100D1B00F9E43AFAC003C002C0011207C89003A756
:100D2B00E0F8A3E0F9A3E0FAA3E0FB12008DD001F9
:100D3B00D002D0031208189003AFE0FBA3E0FAA394
:100D4B00E0F99000141207E8E4FBFA79A07840125E
:100D5B00032450159003AFE0FBA3E0FAA3E0F99056
:100D6B0000141208E340A000009003AFE0FBA3E0E7
:100D7B00FAA3E0F99000141207E8E4FBFA79A078E3
:100D8B00C0120324601740159003AFE0FBA3E0FAF9
:100D9B00A3E0F99000141208E3C0A000009003AF89
:100DAB00E0FBA3E0FAA3E0F99000141207E890002F
:100DBB000412087612017EC004C005C006C007905D
:100DCB0003AFE0FBA3E0FAA3E0F990000C1207E8F5
:100DDB0012085612017ED003D002D001D0001200AF
:100DEB008DC004C005C006C0079003AFE0FBA3E0B5
:100DFB00FAA3E0F9900008120876C000C001C00207
:100E0B00C00390041BE0FCA3E0FDA3E0FEA3E0FF06
:100E1B0012039DD003D002D001D00012017ED0036B
:100E2B00D002D001D00012008D9003AFE0FBA3E005
:100E3B00FAA3E0F99000201208329000181207E88C
:100E4B00900020120876120324601240109003AF1A
:100E5B00E0FBA3E0FAA3E0F9900018802A9003AF1F
:100E6B00E0FBA3E0FAA3E0F990001C1207E8900066
:100E7B002012087612032450179003AFE0FBA3E077
:100E8B00FAA3E0F990001C1207E890002012083238
:010E9B002234
:10356A00E4900372F0A304F0A3F0E4A3F0A304F040
:10357A00A374A2F0A37440F0A37401F0FB7A037958
:06358A0072E4FF02232B96
:1016180049043C00000000004643500049044500CE
:08162800429C00004248000052
:0E12BC009003A6EFF0A3EBF0A3EAF0A3E9F095
:1012CA00A31208B2000000009003AE1208B2000098
:1012DA0000009003A7E0FBA3E0FAA3E0F990000561
:1012EA001208767F007E1B7DB77C49120287900325
:1012FA00AA1208A69003A7E0FBA3E0FAA3E0F990DC
:10130A000001120876E4FFFE7D7A7C44120089E42B
:10131A00FBFA797A78441202879003AE1208A6750E
:10132A00BA8090FFF2740FF09003AAE0FCA3E0FDEC
:10133A00A3E0FEA3E0FF1203EC90FFF0EEF0A3EFB0
:10134A00F09003A6E0B4080040030215B290135EC1
:10135A00F82828730213760213BE02140602144EEA
:10136A000214960214DE02152602156D90FF00E49F
:10137A00F0A3F09003AEE0FCA3E0FDA3E0FEA3E03F
:10138A00FF9003AAE0F8A3E0F9A3E0FAA3E0FB12B6
:10139A00017E1203EC90FF02EEF0A3EFF09003A798
:1013AA00E0FBA3E0FAA3E0F9120563448090FF048E
:1013BA00F00215B290FF10E4F0A3F09003AEE0FC47
:1013CA00A3E0FDA3E0FEA3E0FF9003AAE0F8A3E0F8
:1013DA00F9A3E0FAA3E0FB12017E1203EC90FF12DC
:1013EA00EEF0A3EFF09003A7E0FBA3E0FAA3E0F985
:1013FA00120563448090FF14F00215B290FF20E4B6
:10140A00F0A3F09003AEE0FCA3E0FDA3E0FEA3E0AE
:10141A00FF9003AAE0F8A3E0F9A3E0FAA3E0FB1225
:10142A00017E1203EC90FF22EEF0A3EFF09003A7E7
:10143A00E0FBA3E0FAA3E0F9120563448090FF24DD
:10144A00F00215B290FF30E4F0A3F09003AEE0FC96
:10145A00A3E0FDA3E0FEA3E0FF9003AAE0F8A3E067
:10146A00F9A3E0FAA3E0FB12017E1203EC90FF322B
:10147A00EEF0A3EFF09003A7E0FBA3E0FAA3E0F9F4
:10148A00120563448090FF34F00215B290FF40E4E5
:10149A00F0A3F09003AEE0FCA3E0FDA3E0FEA3E01E
:1014AA00FF9003AAE0F8A3E0F9A3E0FAA3E0FB1295
:1014BA00017E1203EC90FF42EEF0A3EFF09003A737
:1014CA00E0FBA3E0FAA3E0F9120563448090FF442D
:1014DA00F00215B290FF50E4F0A3F09003AEE0FCE6
:1014EA00A3E0FDA3E0FEA3E0FF9003AAE0F8A3E0D7
:1014FA00F9A3E0FAA3E0FB12017E1203EC90FF527B
:10150A00EEF0A3EFF09003A7E0FBA3E0FAA3E0F963
:10151A00120563448090FF54F00215B290FF60E414
:10152A00F0A3F09003AEE0FCA3E0FDA3E0FEA3E08D
:10153A00FF9003AAE0F8A3E0F9A3E0FAA3E0FB1204
:10154A00017E1203EC90FF62EEF0A3EFF09003A786
:10155A00E0FBA3E0FAA3E0F9120563448090FF647C
:10156A00F0804590FF70E4F0A3F09003AEE0FCA396
:10157A00E0FDA3E0FEA3E0FF9003AAE0F8A3E0F9F0
:10158A00A3E0FAA3E0FB12017E1203EC90FF72EED5
:10159A00F0A3EFF09003A7E0FBA3E0FAA3E0F912AF
:0E15AA000563448090FF74F0E4F5BA75FE808E
:0115B8002210
:0E29140090039AEFF0A3EBF0A3EAF0A3E9F032
:10292200E4A3F0A3F0A3F0A3F0A31208B200000006
:102932000090039BE0FBA3E0FAA3E0F990000512EC
:1029420007E8E4FBFA7980784312017EA804A9051E
:10295200AA06AB077F007E1B7DB77C4B1202871253
:1029620003ECC374FF9F90039FF0E49E90039EF0DC
:1029720090039BE0FBA3E0FAA3E0F99000011208A8
:1029820076E4FFFE7D7A7C44120089E4FBFA797AD0
:1029920078441202879003A21208A6E4FFFE7D7F0C
:1029A2007C439003A2E0F8A3E0F9A3E0FAA3E0FBE2
:1029B20012017E1203EC9003A0EEF0A3EFF0E4F517
:1029C200D875D90CF5E9F5F990039BE0FBA3E0FA81
:1029D200A3E0F912056324F8600D24F8600E2410B8
:1029E200700DE4F5A2800875A210800375A22090F4
:1029F200039AE014601C14602B14603A240370469E
:102A020075DA42E4F5F29003A0A3E0FFF5EA8FFA4B
:102A1200803475DB42E4F5F39003A0A3E0FFF5EB0D
:102A22008FFB802275DC42E4F5F49003A0A3E0FF63
:102A3200F5EC8FFC801075DD42E4F5F59003A0A360
:082A4200E0FFF5ED8FFDD2DE8F
:012A4A002269
:1016300058040F000000000000000000000000003F
:0B16400000000000000000000000009F
:101D4700E49003A6F0FFFEA3F075BA901237367F32
:101D5700A01236E87F3D1236E81237367FA11236D9
:101D6700E812370A9003A6EFF012372812370A90C5
:101D770003A7EFF01237191237489003A7E0FE9038
:101D870003A6E0FDEDFFAC06EC1203B3E4FBFAF9A2
:101D97007847120287E4FBFA7934784312017E9080
:101DA700040F1208A61237367FA01236E87F3E12BC
:101DB70036E81237367FA11236E812370A9003A6A3
:101DC700EFF012372812370A9003A7EFF0123719EE
:101DD7001237489003A7E0FE9003A6E0FDEDFFACA5
:101DE70006EC1203B3E4FBFAF97847120287E4FB27
:101DF700FA7934784312017E9004131208A6123739
:101E0700367FA01236E87F3F1236E81237367FA1B9
:101E17001236E812370A9003A6EFF0123728123766
:101E27000A9003A7EFF01237191237489003A7E07B
:101E3700FE9003A6E0FDEDFFAC06EC1203B3E4FB56
:101E4700FAF97847120287E4FBFA793478431201EA
:101E57007E9004171208A61237367FA01236E87F45
:101E6700371236E81237367FA11236E812370A9052
:101E770003A6EFF012372812370A9003A7EFF012E4
:101E870037191237489003A7E0FE9003A6E0FDED4F
:101E9700FFAC06EC1203B3E4FBFAF97847120287AA
:101EA700E4FBFA79FA784412017E90041B1208A623
:101EB7001237367FA01236E87F381236E8123736E7
:101EC7007FA11236E812370A9003A6EFF0123728DF
:101ED70012370A9003A7EFF0123719123748900309
:101EE700A7E0FE9003A6E0FDEDFFAC06EC1203B3FE
:101EF700E4FBFAF97847120287E4FBFA79FA7844A7
:101F070012017E90041F1208A61237367FA01236E0
:101F1700E87F391236E81237367FA11236E81237D2
:101F27000A9003A6EFF012372812370A9003A7EF9B
:101F3700F01237191237489003A7E0FE9003A6E086
:101F4700FDEDFFAC06EC1203B3E4FBFAF978471298
:101F57000287E4FBFA79FA784412017E900423128F
:051F670008A6E4F5BA34
:011F6C002252
:10351700E4900372F0A304F0A3F0E4A3F0A304F093
:10352700A374A2F0A37440F0A37401F0E4FF123473
:0C353700287B017A0379727F0102232BAC
:03002B00020006CA
:0400060053BCDF32D6
:1032DD00D2AFE4F592120563429190000112057C84
:1032ED00FFE5BC549F4FF5BC90000212057C6401B4
:1032FD00700543BC80800353BC7F90000312057C96
:10330D006401700543DE20800353DEDF900005125B
:10331D00057C64017004D2AD8002C2AD9000041230
:0C332D00057C64017003D2BD22C2BD22E9
:0D002E00EF6401700443BC802253BC7F22AC
:10305D00EFD39407748094804002807BE4F5BDF536
:10306D00BEE5BC54E044404FF5BC0000E4FDEDC3AB
:10307D0094FA74809480505FE5BC20E55753BCDF13
:10308D00E5DE30E51FE5BD540FFF900492E4F0A39B
:10309D00EFF0E0FEACBEECFBEBFF900492EEF0A384
:1030AD00EFF08027AFBDEF900492F0A3E4F0AFBE38
:1030BD00900492E0F0A3E04FF0900492E0C4F85435
:1030CD00F0C868F0A3E0C4540F48F0900492E0FEFD
:0B30DD00A3E0FF220D80977E047F001F
:0130E80022C5
:10164B00622801000000000000000000002F0000D5
:10165B0000000700070000147F147F1400242A7F6A
:10166B002A120062640813230036495522500000E9
:10167B000503000000001C224100000041221C0059
:10168B000014083E08140008083E0808000000A0DB
:10169B0060000008080808080000606000000020D7
:1016AB0010080402003E5149453E0000427F4000B5
:1016BB00004261514946002141454B31001814123B
:1016CB007F10002745454539003C4A494930000108
:1016DB007109050300364949493600064949291E57
:1016EB0000003636000000005636000000081422B9
:1016FB0041000014141414140000412214080002B9
:10170B000151090600324959513E007C1211127CDD
:10171B00007F49494936003E41414122007F41410A
:10172B00221C007F49494941007F09090901003EFC
:10173B004149497A007F0808087F0000417F41003A
:10174B00002040413F01007F08142241007F4040B0
:10175B004040007F020C027F007F0408107F003E98
:10176B004141413E007F09090906003E4151215E7E
:10177B00007F091929460046494949310001017F7B
:10178B000101003F4040403F001F2040201F003F11
:10179B004038403F006314081463000708700807C3
:1017AB0000615149454300007F41410000552A55D6
:1017BB002A55000041417F00000402010204004051
:1017CB004040404000000102040000205454547873
:1017DB00007F484444380038444444200038444493
:1017EB00487F00385454541800087E090102001831
:1017FB00A4A4A47C007F080404780000447D40006E
:10180B00004080847D00007F102844000000417F51
:10181B004000007C04180478007C0804047800382D
:10182B004444443800FC242424180018242418FCB5
:10183B00007C0804040800485454542000043F441E
:10184B004020003C4040207C001C2040201C003CE1
:10185B004030403C004428102844001CA0A0A07C31
:0C186B00004464544C441414141414146D
:06375100D2A37F027E00FE
:0337570002366CCB
:10368200123751D2A6123753C2A6123753C2A37FA2
:06369200027E0002375722
:10369800C2A3123753C2A6123753123751D2A67F8C
:0636A800027E000237570C
:05327A00900398EFF045
:10327F00E4A3F0900399E0C39408748094805033D2
:10328F00900398E030E704D2A68002C2A67F017EA9
:10329F0000123757D2A37F017E00123757C2A37F88
:1032AF00017E00123757900398E025E0F0A3E00469
:1032BF00F080C0D2A67F017E00123757D2A37F01C4
:0E32CF007E00123757C2A37F017E00023757E0
:10006600900396EFF01236827F7812327A7F401232
:0D007600327A900396E0FF12327A0236983B
:0435D900EF24B0FF2C
:1035DD00900397EFF01236827F7812327AE4FF1261
:0D35ED00327A900397E0FF12327A0236988E
:10359000900396EFF0ED24B0FF1235DD900396E036
:1035A00054F0C4540F4410FF1235DD900396E054DC
:0535B0000FFF0235DDF4
:05339200900374EFF050
:10339700E4A3F0900375E0FFC39408748094805011
:1033A700371235D97F011235DD7F101235DDE490F4
:1033B7000376F0900376E0C3948474809480501071
:1033C700900374E0FF120066900376E004F080E358
:0833D700900375E004F080BBD7
:0133DF0022CB
:1033E000E4900372F0900372E0FFC3940874809439
:1033F0008050341235D97F011235DD7F101235DD52
:10340000E4900373F0900373E0C394847480948019
:10341000500DE4FF120066900373E004F080E69024
:073420000372E004F080BE1E
:013427002282
:102C3E00E4900372F0A37408F07B017A0379727F3B
:102C4E0002121F6D7B017A0379727F03121F6D7B57
:102C5E00017A0379727F04121F6DD2A3C2A77FF48B
:102C6E007E01123637D2A77FAE1235DDE4FF123564
:102C7E00DD7F101235DD7F401235DD7F811235DDAF
:102C8E007FCF1235DD7FA11235DD7FC81235DD7F96
:102C9E00A61235DD7FA81235DD7F3F1235DD7FD3DD
:102CAE001235DDE4FF1235DD7FD51235DD7F801262
:102CBE0035DD7FD91235DD7FF11235DD7FDA123544
:102CCE00DD7F121235DD7FDB1235DD7F401235DD03
:102CDE007F201235DD7F021235DD7F8D1235DD7FCF
:102CEE00141235DD7FA41235DD7FA61235DD7FAFE0
:0E2CFE001235DDE4FF123392E4FDFF02359043
:0A33390090048EEDF090048DEFF08B
:10334300A3E0FE131313541FFD12359090048EE077
:10335300FF5407FEF87401088002C333D8FC9004BD
:103363008FF0EF131313541F24B0FF1235DD9004B5
:103373008DE054F0C4540F4410FF1235DD90048DDA
:0F338300E0540FFF1235DD90048FE0FF0200666B
:102F2F0090038EEFF0A3EDF0A3EBF0A3EAF0A3E98B
:012F3F00F0A1
:102F4000E4A3F0A3F0A3F0900390E0FBA3E0FAA3C6
:102F5000E0F9900395E0F58275830012057C6070BE
:102F600024E0900393F090038EE0D3947E748094D9
:102F7000804006E4F0A3E004F090038EE0FFA3E0BD
:102F8000FD123590E4900394F0900394E0FFC39415
:102F900006748094805029900393E075F006A42471
:102FA00000F582E5F03401F583E5822FF582E43502
:102FB00083F583E0FF120066900394E004F080C97B
:102FC00090038EE02406F0900395E004F0022F4772
:012FD00022DE
:082D0C00900474EFF0A3EDF058
:102D1400E490047BF0FC7D0AAF03AE021205EFEDF4
:102D2400243090047AF07C007D0AAF03AE021205D1
:102D3400EF7C007D0A1205EFED2430900479F07CDD
:102D4400007D64AF03AE021205EF7C007D0A12051C
:102D5400EFED2430900478F07C037DE8AF03AE02FD
:102D64001205EF7C007D0A1205EFED243090047704
:102D7400F0AE02AF037C277D101205EF7C007D0AC4
:102D84001205EFED2430900476F0E4FFEFC39404D1
:102D940074809480501E74762FF582E43404F58395
:102DA400E0B4301074762FF582E43404F583742093
:102DB400F00F80D8900474E0FFA3E0FD7B017A0457
:052DC4007976022F2FBB
:0F24F700900372EFF0A3EDF0A3EAF0FEA3EBF079
:10250600E4FBFAC3EE64809480501EE4900378F0F6
:10251600A3F0900374E0FEA3E0FFC3E49FFFE49EF4
:10252600900374F0A3EFF08008900378E4F0A3041E
:10253600F0900374E0FEA3E0FF7C007D0A120644DF
:10254600EF4E603D900374E0FEA3E0FF7C007D0A41
:10255600120644ED2430FF747A2BF58274033AF5A3
:1025660083EFF0900374E0FEA3E0FF7C007D0A1287
:102576000644900374EEF0A3EFF00BBB00010A8053
:10258600B0900374A3E02430FF747A2BF5827403B1
:102596003AF583EFF0900378E07002A3E070609064
:1025A6000384742DF0900376EAF0A3EBF0900376A3
:1025B600E0FEA3E0FFD394FFEE6480947F4037747F
:1025C6007A2FF58274033EF583E0FF900376E0FCF4
:1025D600A3E0FDC3EB9DFDEA9CFC74852DF582749A
:1025E600033CF583EFF0900377E024FFF090037649
:1025F600E034FFF080B774862BF582740380589020
:102606000376EAF0A3EBF0900376E0FEA3E0FFD3B7
:1026160094FFEE6480947F4037747A2FF5827403BA
:102626003EF583E0FF900376E0FCA3E0FDC3EB9D5F
:10263600FDEA9CFC74842DF58274033CF583EFF06F
:10264600900377E024FFF0900376E034FFF080B744
:1026560074852BF58274033AF583E4F0900372E0F7
:0D266600FFA3E0FD7B017A037984022F2F92
:081B0B00900372EFF0A3EDF06E
:101B130090037CE4F0A3740AF0E4FFFEFDFC900361
:101B230074E0F8A3E0F9A3E0FAA3E0FB1203249026
:101B3300037E4005742BF0801A742DF0900374E03B
:101B4300FCA3E0FDA3E0FEA3E0FF12039D9003745A
:101B53001208A6900374E0FCA3E0FDA3E0FEA3E05B
:101B6300FF1203EC900378EEF0A3EFF0E4A3F0A3ED
:101B7300F0900378E0FEA3E0FF4E601F7C007D0A37
:101B8300120644900378EEF0A3EFF090037BE00499
:101B9300F070DE90037AE004F080D6900374E0FCEA
:101BA300A3E0FDA3E0FEA3E0FF1203EC900378EEB5
:101BB300F0A3EFF0A3E0FEA3E0FBAA06D3EB9400AF
:101BC300EA64809480403D900378E0FEA3E0FF7CCC
:101BD300007D0A120644ED2430FF747E2BF58274D7
:101BE300033AF583EFF0900378E0FEA3E0FF7C0077
:101BF3007D0A120644900378EEF0A3EFF0EB1B701E
:101C0300BB1A80B890037AE0FEA3E0247FF58274C8
:101C1300033EF583742EF0900374E0FCA3E0FDA370
:101C2300E0FEA3E0FFC004C005C006C00790037434
:101C3300A3A3A3E01203ECAD07AC06EC1203B3A815
:101C430004A905AA06AB07D007D006D005D0041215
:101C530000899003741208A690037BE02402F0909D
:101C6300037AE03400F090037DE024FFFF90037CCF
:101C7300E034FFFEC390037BE09FEE6480F89003A3
:101C83007AE06480984003021D24900374E0FCA36F
:101C9300E0FDA3E0FEA3E0FFE4FBFA792078411224
:101CA300017E9003741208A6900374E0FCA3E0FD88
:101CB300A3E0FEA3E0FF1203ECEF2430FF90037ACE
:101CC300E0FCA3E0247EF58274033CF583EFF090FF
:101CD3000374E0FCA3E0FDA3E0FEA3E0FFC004C0A7
:101CE30005C006C007900374A3A3A3E01203ECADE1
:101CF30007AC06EC1203B3A804A905AA06AB07D0E8
:101D030007D006D005D0041200899003741208A6E8
:101D130090037BE004F0700690037AE004F0021C69
:101D23006990037CE0FEA3E0247DF58274033EF515
:101D330083E4F0900372E0FFA3E0FD7B017A037973
:041D43007E022F2FBE
:1035FA0000000000000000000000000000000000C1
:10360A0000000000000000000000000000000000B0
:01361A0000AF
:1018770044046500F000F0440461004B004B42044F
:081887005F000042045D000057
:10361B0090047C7401F0A37440F0A37401F0A3F048
:0C362B00A3F0A3F0FB7A04797C0232DDEE
:0527CD009003ECEFF0A9
:1027D200E4A3F0A3F0A3F0A3F0A3F078F27C037DCE
:1027E200017BFF7A3579FAFE7F1812053D780A7C63
:1027F200047D017BFF7A3679127E007F0512053D4A
:10280200E49003EDF09003EDE0C3940C74809480A7
:10281200502B9003ECE0FF12305D9003EDE025E0D9
:1028220024F2F582E43403F583EEF0A3EFF07F6443
:102832007E0012366C9003EDE004F080C8E4FFEFF6
:10284200C3940B7480948040030228CCE4FEC374CA
:102852000B9FFDEEC39D506EEE25E024F4F582E45D
:102862003403F583E0FCA3E0FDEE25E024F2F582DB
:10287200E43403F583E0FAA3E0FBD39DEA9C4043F2
:102882009003F0EAF0A3EBF0EE25E024F4F582E405
:102892003403F583E0FCA3E0FDEE25E024F2F582AB
:1028A200E43403F583ECF0A3EDF09003F0E0FCA335
:1028B200E0FDEE25E024F4F582E43403F583ECF048
:1028C200A3EDF00E80880F0228419003ED7401F011
:1028D2009003EDE0FFC3940B748094805025EF25A4
:1028E200E024F2F582E43403F583E0FEA3E0FF90F6
:1028F20003EFE02FF09003EEE03EF09003EDE004F2
:10290200F080CD9003EEE0FEA3E0FF7C007D0A02A2
:0229120005EFCF
:102A4B0078867C047D017BFF7A3679177E007F04C4
:102A5B0012053D7F021227CD900486EEF0A3EFF016
:102A6B007F031227CD900488EEF0A3EFF090046162
:102A7B00E0FEA3E0FF900486E0FCA3E0FDC39FEC27
:102A8B009E500A900461ECF0A3EDF0801E9004655B
:102A9B00E0FEA3E0FFD3ED9FEC9E400F900488E097
:102AAB00FFA3E0900467CFF0A3EFF0900463E0FE88
:102ABB00A3E0FF900488E0FCA3E0FDC39FEC9E50D5
:102ACB000A900463ECF0A3EDF0801E900467E0FE27
:102ADB00A3E0FFD3ED9FEC9E400F900488E0FFA393
:102AEB00E0900467CFF0A3EFF0900461E0FEA3E069
:102AFB00FFC3900487E09FFF900486E09EFE7C005E
:102B0B007D641205DD900461E0FCA3E0FDC390043D
:102B1B0066E09DFD900465E09CFC1205EF90045F60
:102B2B00EEF0A3EFF0900463E0FEA3E0FFC390048C
:102B3B0089E09FFF900488E09EFE7C007D64120577
:102B4B00DD900463E0FCA3E0FDC3900468E09DFD11
:102B5B00900467E09CFC1205EF90045DEEF0A3EF90
:012B6B00F079
:012B6C002246
:1034600090045FE0FEA3E0FF90045DE0FCA3E0FDBC
:10347000C39FFFEC9EFEEF7807C333CE33CED8F95F
:10348000FF90045FE0FAA3E02DFDEC3AFC0205EFAB
:10008600020458E86480F8E933E83360110460F04C
:10009600ED33EC337009E8FCE9FDEAFEEBFF2204E0
:1000A60060DED3EB9FEA9EE99DE8C2E78CF0C2F7DB
:1000B60095F0400CE8CCF8E9CDF9EACEFAEBCFFBA7
:1000C60012042385D0F05804700320D5B3E80470D9
:1000D600075002B2D502046292D5EC0460F7E4CC74
:1000E600C0E0C398F8603B94186008400DD0E0FB70
:1000F60002043AE4FBFAC9FC8028E830E406E4C9C5
:10010600FBE4CAFCE830E305E4C9CACBFCE85407C3
:100116006010F8C3E913F9EA13FAEB13FBEC13FCCE
:10012600D8F130F52FC3E49CFCEF9BFFEE9AFEED71
:1001360099FDD0E0FBEF4E4D4C701222DB0302041A
:100146005FEC2CFCEF33FFEE33FEED33FDED30E7D5
:10015600EB02043AEF2BFFEE3AFEED39FDD0E0FB61
:1001660050130BBB0003020462ED13FDEE13FEEF0A
:0801760013FFEC13FC02043A34
:10017E00EC4D6011E8497017ED33EC3304600DE47B
:10018E00FCFFFEFD22E933E8330470F80204581236
:10019E00042358046009E4CC248150062850090237
:1001AE00046228400302045FC0E0EB4A7044B98049
:1001BE0006D0E0FB02044EEF4E701CBD8008EBFF34
:1001CE00EAFEE9FD80EBE98DF0A4FEE5F0020267A0
:1001DE00E9CDF9EAFEEBFFEF89F0A4FCE5F0CE895C
:1001EE00F0A42EFFE435F0CD89F0A42DFEE435F019
:1001FE008067EF4E7005BD80D780C3EF8BF0A4AC47
:10020E00F0EE8BF0A42CFCE435F0F8EF8AF0A42C81
:10021E00E5F038FCE433CB8DF0A42CFCE5F03BF894
:10022E00EE8AF0A42CFCE5F038F8E433CF89F0A484
:10023E002CFCE5F038CF3400CE89F0A42FFFE5F08A
:10024E003EFEE433C98DF0A42EFEE5F039CD8AF0E2
:10025E00A42FFFE5F03EFEE43DFD33D0E0FB50075A
:10026E000BBB000F020462EC2CFCEF33FFEE33FEEF
:06027E00ED33FD02043A1D
:10028400020462EC5D046005E8590470030204583A
:10029400120423580460F6EC4860F2EC7004FDFE8E
:1002A400FF22C860DB2481C85009C398600250064D
:1002B40002045F9850CAF582E9294B4A7005AB8263
:1002C40002044E75F0007C1A7880C3EF9BEE9AED21
:1002D40099400DC3EF9BFFEE9AFEED99FDE842F0C5
:1002E400DC23ACF0D0E0FFD0E0FED0E0FDAB822018
:1002F400E7101BEB60BAEC2CFCEF33FFEE33FEEDA2
:1003040033FD02043AE803F830E705C0F075F00065
:10031400EF2FFFEE33FEED33FD40B830E7C280AA85
:1003240074F8CC6480CCC86480C8F58204604FC380
:10033400EB9FF5F0EA9E42F0E99D42F0E89C45F01F
:10034400603C501DE5825FFFE582D313CB5BCBF4A9
:100354002B5582FB50280ABA002409B900200880D2
:100364001DE5825BFBE582D313CF5FCFF4C3132F6C
:100374005582FF50090EBE00050DBD00010CC3EBF4
:100384009FF5F0EA9E42F0E99D42F0E89C45F0605A
:0903940007CC4820E701B3EC227C
:10039D00ED33EC33600A047003BD8004ECB2E7FC6E
:0103AD00222D
:1003AE0075F020800E75F010800575F0087D007ECA
:1003BE00007F003392D530D503120796EC334010F0
:1003CE00EF33FFEE33FEED33FDEC33FCD5F0ED22D3
:0E03DE00E5F0247EA2D513CC92E7CDCEFF220F
:1003EC00EDD2E7CD33EC3392D524814006E4FFFE09
:1003FC00FDFC22FCE4CFCECDCC24E0501174FF8068
:10040C00EDC3CC13CCCD13CDCE13CECF13CF047004
:07041C00F030D5DE02079667
:10042300E9D2E7C933E833F892D5EDD2E7CD33EC1F
:0704330033FC5002B2D52298
:10043A00EC30E7100FBF000C0EBE00080DBD000423
:10044A000BEB6014A2D5EB13FCED92E7FD2274FFCF
:10045A00FCFDFEFF22E480F8A2D574FF13FC7D8028
:03046A00E480EF3C
:102FDD00022B6DE493A3F8E493A34003F68001F272
:102FED0008DFF48029E493A3F85407240CC8C333F5
:102FFD00C4540F4420C8834004F456800146F6DFC4
:10300D00E4800B01020408102040809015B9E47E85
:10301D00019360BCA3FF543F30E509541FFEE493B8
:10302D00A360010ECF54C025E060A840B8E493A37F
:10303D00FAE493A3F8E493A3C8C582C8CAC583CAAA
:10304D00F0A3C8C582C8CAC583CADFE9DEE780BE62
:01188F000058
:10046D00E709F608DFFA8046E709F208DFFA803E71
:10047D0088828C83E709F0A3DFFA8032E309F6085E
:10048D00DFFA8078E309F208DFFA807088828C83C6
:10049D00E309F0A3DFFA806489828A83E0A3F6087A
:1004AD00DFFA805889828A83E0A3F208DFFA804C54
:1004BD0080D280FA80C680D4806980F2803380102B
:1004CD0080A680EA809A80A880DA80E280CA803394
:1004DD0089828A83ECFAE493A3C8C582C8CCC5830C
:1004ED00CCF0A3C8C582C8CCC583CCDFE9DEE780DC
:1004FD000D89828A83E493A3F608DFF9ECFAA9F05B
:10050D00EDFB2289828A83ECFAE0A3C8C582C8CCB0
:10051D00C583CCF0A3C8C582C8CCC583CCDFEADEC9
:10052D00E880DB89828A83E493A3F208DFF980CC2B
:10053D0088F0EF60010E4E60C388F0ED2402B40424
:10054D000050B9F582EB2402B4040050AF232345CB
:06055D0082239004BD732F
:10056300BB010689828A83E0225002E722BBFE0296
:09057300E32289828A83E49322C9
:10057C00BB010CE58229F582E5833AF583E0225034
:10058C0006E92582F8E622BBFE06E92582F8E2227E
:0D059C00E58229F582E5833AF583E4932298
:1005A900BB010689828A83F0225002F722BBFE0131
:0205B900F3222B
:1005BB00F8BB010DE58229F582E5833AF583E8F076
:1005CB00225006E92582C8F622BBFE05E92582C822
:0205DB00F2220A
:1005DD00EF8DF0A4A8F0CF8CF0A428CE8DF0A42E32
:0205ED00FE22EC
:1005EF00BC000BBE0029EF8DF084FFADF022E4CCF0
:1005FF00F875F008EF2FFFEE33FEEC33FCEE9DECB9
:10060F00984005FCEE9DFE0FD5F0E9E4CEFD22EDFE
:10061F00F8F5F0EE8420D21CFEADF075F008EF2F48
:10062F00FFED33FD4007985006D5F0F222C398FD39
:05063F000FD5F0EA22D6
:10064400C2D5EC30E709B2D5E4C39DFDE49CFCEED1
:1006540030E715B2D5E4C39FFFE49EFE1205EFC355
:10066400E49DFDE49CFC80031205EF30D507C3E450
:060674009FFFE49EFE2240
:10067A00C5F0F8A3E028F0C5F0F8E582158270020B
:06068A001583E038F022A8
:10069000BB0110E58229F582E5833AF583E0F5F0A8
:1006A000A3E0225009E92582F886F008E622BBFE85
:1006B0000AE92582F8E2F5F008E222E5832AF583CB
:0806C000E993F5F0A3E9932290
:1006C80075F008758200EF2FFFEE33FECD33CDCCE9
:1006D80033CCC58233C5829BED9AEC99E58298406C
:1006E8000CF582EE9BFEED9AFDEC99FC0FD5F0D649
:1006F800E4CEFBE4CDFAE4CCF9A88222B800C1B973
:100708000059BA002DEC8BF084CFCECDFCE5F0CBB0
:10071800F97818EF2FFFEE33FEED33FDEC33FCEBE9
:1007280033FB10D703994004EB99FB0FD8E5E4F9A4
:10073800FA227818EF2FFFEE33FEED33FDEC33FC91
:10074800C933C910D7059BE99A4007EC9BFCE99A85
:10075800F90FD8E0E4C9FAE4CCFB2275F010EF2FCA
:10076800FFEE33FEED33FDCC33CCC833C810D707CA
:100778009BEC9AE899400AED9BFDEC9AFCE899F805
:0E0788000FD5F0DAE4CDFBE4CCFAE4C8F92298
:0E079600C3E49FFFE49EFEE49DFDE49CFC2274
:1007A400EB9FF5F0EA9E42F0E99D42F0E89C45F0AB
:0107B4002222
:1007B500E8600FECC313FCED13FDEE13FEEF13FF22
:0307C500D8F12246
:1007C800BB010789828A830209135005E9F80209E7
:1007D80007BBFE05E9F802091F89828A8302092BF3
:1007E800BB010DE58229F582E5833AF583020913F9
:1007F8005007E92582F8020907BBFE07E92582F8B8
:1008080002091FE58229F582E5833AF58302092B5F
:10081800BB010789828A830208A65005E9F8020904
:0A08280071BBFE05E9F802097D220C
:10083200BB010DE58229F582E5833AF5830208A61C
:100842005007E92582F8020971BBFE07E92582F803
:0408520002097D22F8
:10085600BB010789828A830209485005E9F8020923
:100866003BBBFE05E9F802095489828A83020961C5
:10087600BB010DE58229F582E5833AF58302094835
:100886005007E92582F802093BBBFE07E92582F8F5
:10089600020954E58229F582E5833AF58302096166
:0C08A600ECF0A3EDF0A3EEF0A3EFF022C5
:1008B200A8828583F0D083D0821208C91208C91297
:1008C20008C91208C9E473E493A3C583C5F0C583BC
:1008D200C8C582C8F0A3C583C5F0C583C8C582C890
:0108E20022F3
:1008E300BB010DE58229F582E5833AF5830208B25F
:1008F3005007E92582F8020989BBFE07E92582F83A
:040903000209A22221
:0C090700E6FC08E6FD08E6FE08E6FF221C
:0C091300E0FCA3E0FDA3E0FEA3E0FF2257
:0C091F00E2FC08E2FD08E2FE08E2FF2214
:10092B00E493FC740193FD740293FE740393FF2212
:0D093B00E6FB08E6F908E6FA08E6CBF8222C
:0C094800E0F8A3E0F9A3E0FAA3E0FB2232
:0D095400E2FB08E2F908E2FA08E2CBF82223
:10096100E493F8740193F9740293FA740393FB22EC
:0C097100ECF608EDF608EEF608EFF622B2
:0C097D00ECF208EDF208EEF208EFF222B6
:10098900D083D082E493F608740193F60874029335
:09099900F608740393F67404736C
:1009A200D083D082E493F208740193F20874029324
:0909B200F208740393F27404735B
:00000001FF
