:030000000226D203
:0C26D200787FE4F6D8FD758120022719FE
:0812FC0045044F000000000052
:102BB5001222797BD47ACC7D037F0D121FE97FD059
:102BC5007E07122CBC122AE19003721207AA40A6B6
:0B2BD500B8527D037F0D12182380FE14
:102CBC00E4FDFCC3ED9FEC9E50100079207B28DBDB
:0A2CCC00FED9FC0DBD00010C80E9EB
:012CD60022DB
:102CF200E4FDFCC3ED9FEC9E500B7B06DBFE0DBD9D
:052D020000010C80EE51
:012D070022A9
:101A5F00EFD394057480948040037F012212046DAC
:101A6F00FED394037480948040037F0222EF70446E
:101A7F00EE700B900001120486F4529352941204EC
:101A8F006D6401700B9000011204864293F452941E
:101A9F0012046DFE6402700A9000011204864293D4
:101AAF004294EE6403700D900001120486FEF4520E
:101ABF0093EE4294EF6401704612046DFE700B902A
:101ACF000001120486F452915292EE6401700B9051
:101ADF0000011204864291F4529212046D64027056
:101AEF000A9000011204864291429212046D64031F
:101AFF00700D900001120486FEF45291EE4292EFA7
:101B0F006402704612046DFE700B90000112048681
:101B1F00F452955296EE6401700B900001120486F8
:101B2F004295F4529612046D6402700A90000112ED
:101B3F0004864295429612046D6403700D90000165
:101B4F00120486FEF45295EE4296EF64037046122D
:101B5F00046DFE700B900001120486F452B152B264
:101B6F00EE6401700B90000112048642B1F452B280
:101B7F0012046D6402700A90000112048642B14291
:101B8F00B212046D6403700D900001120486FEF40E
:101B9F0052B1EE42B2EF6404704612046DFE700B48
:101BAF00900001120486F452B352B4EE6401700B2C
:101BBF0090000112048642B3F452B412046D640211
:101BCF00700A90000112048642B342B412046D648D
:101BDF0003700D900001120486FEF452B3EE42B46E
:101BEF00EF6405704912046DFF7E00700B900001C9
:101BFF00120486F452C952CAEF64014E700B900062
:101C0F000112048642C9F452CA12046D6402700AAA
:101C1F0090000112048642C942CA12046D64037017
:101C2F000D900001120486FFF452C9EF42CA7F00E3
:011C3F002282
:102B2900EFFD7C00700F75BA8090FE8074E0F09024
:102B3900FE82E4F022ED64014C701875BA8090FEB3
:102B4900807481F090FE85745AF090FE84E4F090D0
:042B5900FE83F022E5
:1027EA00D200D201E4900468F0E02400F8E290FEFE
:1027FA0086F090FE84E030E605E054BFF02290FEB9
:10280A0084E030E52DE054DFF0300003C2002230CE
:10281A00010DC20190FE87E0900468F0E0802F90DD
:10282A00FE87E0FF900468E0FE04F074002EF8EFE3
:10283A00F22290FE84E030E41EE054EFF0E030E152
:10284A000790FE8674FFF022900468E004F02400EA
:10285A00F8E290FE86F02290FE84E030E308E0542D
:07286A00F7F0D200D20122B9
:0C2DA80090FE82E030E6F9E054BFF0221B
:092DB40090FE817401F0022DA8CB
:102D5A0090FE86EFF090FE817402F0122DA8022DEB
:012D6A00BDAB
:092DBD0090FE817403F0022DA8C0
:0F2D7C0090FE817404F0122DA890FE87E0FF22D4
:0E2D9A0090FE82E4F090FE817405F0022DA8F8
:0F2D8B0090FE827401F090FE817405F0022DA875
:092DC60090FE817406F0022DA8B4
:102D3400E4FFFE000000000FBF00010EBE0BF4BF55
:022D4400B8F1E4
:012D4600226A
:102D6B00E59A30E103539AFDE59A30E003539AFE5E
:012D7B002235
:030023000228713F
:10287100C0E0C083C082C0D075D000C006C00730A0
:102881009831C2989003B6E070299003B4E0C394E4
:102891000B748094804002E4F09003B4E0FF04F0F4
:1028A10074BE2FF582E43403F583E599F09003B506
:1028B1007405F0309934C2999003B2E0FF9003B1EE
:1028C100E0FE6F602074D42EF582E43403F583E0DA
:1028D100F5999003B1E004F0C3940B7480948040A7
:1028E10009E4F080059003B3E4F0D007D006D0D01E
:0728F100D082D083D0E03259
:030043000228F898
:1028F800C0E0C083C082C0D075D000C006C0071237
:102908002D6B9003BDE070299003BBE0C3940B745A
:102918008094804002E4F09003BBE0FF04F074C9A7
:102928002FF582E43403F583E59BF09003BC74052E
:10293800F0122D6B9003B9E0FF9003B8E0FE6F60D2
:102948002074DF2EF582E43403F583E0F59B9003D1
:10295800B8E004F0C3940B748094804009E4F080DC
:10296800059003BAE4F0D007D006D0D0D082D08347
:03297800D0E0327A
:1008B30090042DEBF0A3EAF0A3E9F090042CEFF001
:1008C300D2AF64016003020B2A9003B004F0E4A3E7
:1008D300F0A3F0A3F0A3F0A3F0A3F0900430F09002
:1008E3000430E0FFC3940B74809480501474D42FAD
:1008F300F582E43403F583E4F0900430E004F080FF
:10090300DEE4900430F0900430E0FFC3940B748075
:100913009480501474BE2FF582E43403F583E4F01D
:10092300900430E004F080DE90042DE0FBA3E0FAB5
:10093300A3E0F912046DFD7C00D394C0748094800D
:1009430040037F022290000A12048664017004D2DD
:10095300BC8002C2BC12046DFFE598543F4FF5986A
:10096300ED64C04C6008EF64406003020A559000D8
:100973000212076E7F807E8D7D5B7C001205FC90EA
:10098300043112079EE4FFFE7D01FC900431E0F880
:10099300A3E0F9A3E0FAA3E0FBC312069C40037FA4
:1009A3000222900431E0F8A3E0F9A3E0FAA3E0FB0C
:1009B300C3E49BFFE49AFE740199FDE498FC900460
:1009C3003112079E90042DE0FBA3E0FAA3E0F99017
:1009D3000001120486FB7A0064017038C28E538EC4
:1009E300FE5389BF5389CF438E40900431E0FCA36B
:1009F300E0FDA3E0FEA3E0FF78081206AD8F8D9023
:100A03000431A3A3A3E0F58BC2AB5389BF538FFD7E
:100A1300D28E807DEB64024A7035538EEF438E0194
:100A2300538EF7438E04900431E0FCA3E0FDA3E072
:100A3300FEA3E0FF78081206AD8FD6900431A3A37E
:100A4300A3E0F5D753AFFB538EF7438E1080427F5D
:100A5300022290042DE0FBA3E0FAA3E0F912046D57
:100A6300FF7E007014900008120486640170054331
:100A73008E20801D538EDF8018EF64804E7012909D
:100A8300000812048664017005438780800353873E
:100A93007F90042DE0FBA3E0FAA3E0F99000091294
:100AA300048664017004D2AC8002C2AC90000712C9
:100AB300048664017004D29C8002C29C90000B12D5
:040AC3000486700A2B
:080AC7009004357403F0A31440
:100ACF00802F90042DE0FBA3E0FAA3E0F990000B38
:0A0ADF001204866480900435701143
:0F0AE9007403F0A37480F07B017A0479357F01E8
:020AF800800F6D
:100AFA007403F0A37480F07B017A0479357F0312C2
:020B0A001A5F70
:100B0C0090042DE0FBA3E0FAA3E0F990000B120493
:100B1C008654C0FFE5A2543F4FF5A27F00229004FB
:100B2C002CE064026003020CD09003B77402F0E472
:100B3C00A3F0A3F0A3F0A3F0A3F0A3F0900430F083
:100B4C00900430E0FFC3940B74809480501474DFD5
:100B5C002FF582E43403F583E4F0900430E004F0E4
:100B6C0080DEE4900430F0900430E0FFC3940B740A
:100B7C00809480501474C92FF582E43403F583E417
:100B8C00F0900430E004F080DE90042DE0FBA3E054
:100B9C00FAA3E0F912046DFF64C06008EF644060D2
:100BAC0003020C5690000A1204866401700543B5CA
:100BBC0001800353B5FE12046D64C07005439A8026
:100BCC008003539A7F90000212076E7F807E8D7D8A
:100BDC005B7C001205FC90043112079EE4FFFE7D45
:100BEC0001FC900431E0F8A3E0F9A3E0FAA3E0FBE8
:100BFC00C312069C40037F0222900431E0F8A3E06C
:100C0C00F9A3E0FAA3E0FBC3E49BFFE49AFE7401B2
:100C1C0099FDE498FC90043112079E538EEF538E8D
:100C2C00F7438E04900431E0FCA3E0FDA3E0FEA3A7
:100C3C00E0FF78081206AD8FD6900431A3A3A3E091
:100C4C00F5D753AFFB438E1080037F022290042D07
:100C5C00E0FBA3E0FAA3E0F990000912048664011A
:100C6C00700543AF01800353AFFE9000071204865A
:100C7C0064017005439A108003539AEF90000B1295
:070C8C00048690043570108E
:0E0C93007403F0A314F07B017A0479357F011D
:020CA100800FC2
:100CA3007403F0A37480F07B017A0479357F041216
:020CB3001A5FC6
:100CB50090042DE0FBA3E0FAA3E0F990000B1204E9
:0D0CC500865401FFE5BA54FE4FF5BA7F00DA
:010CD20022FF
:102BE000900469EFF09003B3E0701304F09004696F
:102BF000E0F5993099FDC299E49003B3F0227F0586
:072C00007E00122CF280DEC1
:102B5D009003B9E024DFF582E43403F583EFF090C0
:102B6D0003B9E004F0C3940B748094804002E4F048
:0C2B7D009003BAE0700504F0122D6B22EA
:102B8900900458EBF0A3EAF0A3E9F0900458E0FBB5
:102B9900A3E0FAA3E0F912046DFF600F122BE09095
:0C2BA9000459E475F00112057280E0226E
:102D470012046DFF600C122B5D740129F9E43AFA45
:032D570080EE22E9
:072DD8003098FDC298AF998D
:012DDF0022D1
:052DE000122D6BAF9BFA
:012DE50022CB
:101C40009003ECEBF0A3EAF0A3E9F09003EAEEF0E6
:031C5000A3EFF00F
:101C5300E49003EFF0A3F0C3EE64809480501EE49D
:101C63009003F3F0A3F09003EAE0FEA3E0FFC3E4E4
:101C73009FFFE49E9003EAF0A3EFF080089003F344
:101C8300E4F0A304F09003EAE0FEA3E0FF7C007D10
:101C93000A12053CEF4E604B9003EAE0FAA3E0FB27
:101CA3007C007D0AFFAE0212053CED2430FF900359
:101CB300EFE0FCA3E024F5F58274033CF583EFF039
:101CC3007C007D0AAF03AE0212053C9003EAEEF0FE
:101CD300A3EFF09003F0E004F070AA9003EFE004A8
:101CE300F080A29003EAA3E02430FF9003EFE0FC2E
:101CF300A3E024F5F58274033CF583EFF09003F33E
:101D0300E07002A3E06003021D999003ECE0FBA3E3
:101D1300E0FAA3E0F9742D1204B39003EFE0FFA3FC
:101D2300E0A3CFF0A3EFF09003F1E0FEA3E0FFD335
:101D330094FFEE6480947F404A74F52FF582740318
:101D43003EF583E0FF9003F1E0FCA3E0FDC39003C5
:101D5300F0E09DFD9003EFE09CCD2401CD3400FC29
:101D63009003ECE0FBA3E0FAA3E0F98D828C83EF10
:101D73001204C59003F2E024FFF09003F1E034FF76
:101D8300F080A49003ECE0FBA3E0FAA3E0F9900356
:101D9300F0E0240280749003EFE0FFA3E0A3CFF010
:101DA300A3EFF09003F1E0FEA3E0FFD394FFEE6412
:101DB30080947F404474F52FF58274033EF583E0ED
:101DC300FF9003F1E0FCA3E0FDC39003F0E09DFD71
:101DD3009003EFE09CFC9003ECE0FBA3E0FAA3E0AC
:101DE300F98D828C83EF1204C59003F2E024FFF097
:101DF3009003F1E034FFF080AA9003ECE0FBA3E052
:101E0300FAA3E0F99003F0E02401FF9003EFE0343C
:091E1300008F82F583E41204C57E
:011E1C0022A3
:1015A80090041112079E900415EBF0A3EAF0A3E94A
:0115B800F042
:1015B900E4FFFEFDFC900411E0F8A3E0F9A3E0FAD2
:1015C900A3E0FB120324900415E0FBA3E0FAA3E0D7
:1015D900F94007742B1204B3801C742D1204B390C4
:1015E9000411E0FCA3E0FDA3E0FEA3E0FF12039DCC
:1015F90090041112079E900411E0FCA3E0FDA3E002
:10160900FEA3E0FF1203EC90041AEEF0A3EFF0E45E
:10161900A3F0A3F090041AE0FEA3E0FF4E601F7C44
:10162900007D0A12053C90041AEEF0A3EFF0900435
:101639001DE004F070DE90041CE004F080D69004F4
:1016490011E0FCA3E0FDA3E0FEA3E0FF1203EC9090
:10165900041AEEF0A3EFF0A3E0FFA3E0A3CFF0A3F9
:10166900EFF0D390041FE0940090041EE06480948E
:1016790080405490041AE0FEA3E0FF7C007D0A122A
:10168900053CED2430FF900415E0FBA3E0FAA3E04C
:10169900F990041EE0FCA3E0F5828C83EF1204C5E7
:1016A90090041AE0FEA3E0FF7C007D0A12053C903D
:1016B900041AEEF0A3EFF090041FE024FFF0900469
:1016C9001EE034FFF0809B900415E0FBA3E0FAA331
:1016D900E0F990041DE02401FF90041CE034008F20
:1016E90082F583742E1204C5900411E0FCA3E0FD79
:1016F900A3E0FEA3E0FFC004C005C006C007900434
:1017090011A3A3A3E01203ECAD07AC06EC1203B3DB
:10171900A804A905AA06AB07D007D006D005D004AE
:1017290012008990041112079E90041DE02402F012
:1017390090041CE03400F0900419E024FFFF9004A9
:1017490018E034FFFEC390041DE09FEE6480F8901A
:10175900041CE06480984003021803900411E0FC23
:10176900A3E0FDA3E0FEA3E0FFE4FBFA79207841C2
:1017790012017E90041112079E900411E0FCA3E06F
:10178900FDA3E0FEA3E0FF1203ECEF2430FF900479
:1017990015E0FBA3E0FAA3E0F990041CE0FCA3E048
:1017A900F5828C83EF1204C5900411E0FCA3E0FDDF
:1017B900A3E0FEA3E0FFC004C005C006C007900473
:1017C90011A3A3A3E01203ECAD07AC06EC1203B31B
:1017D900A804A905AA06AB07D007D006D005D004EE
:1017E90012008990041112079E90041DE004F07004
:1017F9000690041CE004F0021740900415E0FBA3D6
:10180900E0FAA3E0F9900419E024FFFF900418E03E
:0A18190034FF8F82F583E40204C55A
:0513040042046400003A
:03000300022CD7F5
:102CD700C0E0C083C082900465E004F070069004F1
:0B2CE70064E004F0D082D083D0E03223
:0300130002000ADE
:01000A0032C3
:0300530002000E9A
:01000E0032BF
:03005B0002000F91
:01000F0032BE
:0300830002001068
:0100100032BD
:10234700EFD394107480948040037F0122D2AFEFC3
:10235700703090000212048664017004D2A88002D3
:10236700C2A890000112048664017004D2B88002EA
:10237700C2B812046D64017004D2888002C2887FDB
:102387000022EF640270309000021204866401702C
:1023970004D2AA8002C2AA900001120486640170C6
:1023A70004D2BA8002C2BA12046D64017004D28AE0
:1023B7008002C28A7F0022EF640A70159000021221
:1023C700048664017005438F108003538FEF7F00ED
:1023D70022EF640B701590000212048664017005E9
:1023E700438F208003538FDF7F0022EF6410701527
:1023F70090000212048664017005438F40800353E6
:082407008FBF7F00227F02223B
:0A13090042045400004204560000A4
:03000B0002258348
:10258300C0E0C0F0C083C082C0D075D000C000C01E
:1025930001C002C003C004C005C006C007900455B3
:1025A300E004F07006900454E004F0900454E070EA
:1025B30004A3E0640A705B900464E0FCA3E0FDEC18
:1025C3001203B39003A512079E9003A91207AA430F
:1025D3005200009003AD7401F0A37403F0A37428B8
:1025E300F07F01120CD3900348E0FCA3E0FDA3E0CD
:1025F300FEA3E0FF90040012079E7B017A0379FF9C
:10260300E4FF120FFF900454E4F0A3F0900464F08D
:10261300A3F0D007D006D005D004D003D002D00158
:0D262300D000D0D0D082D083D0F0D0E032F3
:03001B000224CCF0
:1024CC00C0E0C0F0C083C082C0D075D000C000C0D6
:1024DC0001C002C003C004C005C006C00790045769
:1024EC00E004F07006900456E004F0900456E0709E
:1024FC0004A3E064327065122165900424E0FCA30F
:10250C00E0FDA3E0FEA3E0FF9003A512079E90035D
:10251C00A91207AA000000009003AD7401F0A37487
:10252C0003F0A3744CF0E4FF120CD37F007E807D8B
:10253C00137C4390036CE0F8A3E0F9A3E0FAA3E06A
:10254C00FB12008D90040912079E7B017A04790816
:10255C007F01120FFF900456E4F0A3F0D007D006D1
:10256C00D005D004D003D002D001D000D0D0D0827E
:07257C00D083D0F0D0E03263
:0300630002001187
:0100110032BC
:101E1D00AD07EDD394027480948040037F0122D2EC
:101E2D00AFED6003021EC5C28C90000212048664E1
:101E3D00017004D2A98002C2A99000011204866427
:101E4D00017004D2B98002C2B912046DFED394039D
:101E5D007480948040037F0222E58954FC4EF589FD
:101E6D00900003120486FF7E0064017003538E7F81
:101E7D00EF4E7003438E80EF64024E70054389046C
:101E8D0080035389FB90000412048664017005439E
:101E9D008F018003538FFE900005120588E5F0F544
:101EAD008C900005120588F58A900007120486644F
:101EBD00017002D28C7F0022ED64016003021F5E6F
:101ECD00C28E90000212048664017004D2AB8002AF
:101EDD00C2AB90000112048664017004D2BB800273
:101EED00C2BB12046DFEC394037480948040037FC3
:101EFD000222E58954CF4EF589900003120486FF26
:101F0D007E0064017003538EBFEF4E7003438E400D
:101F1D00EF64024E700543894080035389BF9000E2
:101F2D000412048664017005438F028003538FFDF4
:101F3D00900005120588E5F0F58D900005120588D5
:101F4D00F58B90000712048664017002D28E7F001B
:101F5D0022ED64026003021FE6538EEF9000021221
:101F6D0004866401700543AF04800353AFFB9000FA
:101F7D0003120486FD7C00D3940274809480400388
:101F8D007F0222ED64014C7003538EFB900003120F
:101F9D0004867003438E049000031204866402705D
:101FAD0005438E088003538EF79000041204866457
:101FBD00017005438F048003538FFB9000051205BC
:101FCD0088FDACF0ECF5D68DD79000071204866431
:0C1FDD00017003438E107F00227F02225F
:102C770012046D90045BF090000112048690045CCE
:102C8700F090000212048690045DF07B017A0479CB
:042C97005B02234772
:10002E00E490045EF0A304F0A3F0FB7A04795EE49E
:04003E00FF022C771A
:1013130060240328402000003F4CCCCD0000000097
:101323000000000000000000000000004475000001
:1013330000000000000000006024034C3F80000018
:101343003D4CCCCD3C23D70A000000000000000038
:1013530000000000C2E1000042E1000000000000C4
:100CD3009003A4EFF06003020E9E9003ADE0FBA32C
:100CE300E0FAA3E0F990000C1206E090001012075E
:100CF3002A9003A5E0F8A3E0F9A3E0FAA3E0FBA39D
:100D0300E0FCA3E0FDA3E0FEA3E0FF120089900353
:100D1300ADE0FBA3E0FAA3E0F990000C12072AE987
:100D23002414F9E43AFAC003C002C0011206C090C9
:100D330003ADE0FBA3E0FAA3E0F990000C12076E09
:100D430012008DD001D002D0031207109003ADE042
:100D5300FBA3E0FAA3E0F99000141206E0E4FBFA27
:100D630079A0784012032450159003ADE0FBA3E073
:100D7300FAA3E0F99000141207DB40A000009003EF
:100D8300ADE0FBA3E0FAA3E0F99000141206E0E45F
:100D9300FBFA79A078C0120324601740159003ADC5
:100DA300E0FBA3E0FAA3E0F99000141207DBC0A074
:100DB30000009003ADE0FBA3E0FAA3E0F990001478
:100DC3001206E090000412076E12017EC004C005F3
:100DD300C006C0079003ADE0FBA3E0FAA3E0F990DF
:100DE300000C1206E012074E12017ED003D002D08F
:100DF30001D00012008DC004C005C006C0079003D7
:100E0300ADE0FBA3E0FAA3E0F990001012076EC077
:100E130000C001C002C0039003ADE0FBA3E0FAA34E
:100E2300E0F990000C1206E0D003D002D001D0000C
:100E33001200899003ADE0FBA3E0FAA3E0F9900070
:100E43000812076E12017ED003D002D001D0001227
:100E5300008D9003ADE0FBA3E0FAA3E0F99000203E
:100E630012072A9000181206E090002012076E1253
:100E7300032460054003020FBB9003ADE0FBA3E036
:100E8300FAA3E0F990001C1206E090002012076E0E
:100E93001203244003020FFE020FE79003A4E06451
:100EA300016003020FFE9003ADE0FBA3E0FAA3E0B1
:100EB300F990000C1206E090001012072A9003A587
:100EC300E0F8A3E0F9A3E0FAA3E0FBA3E0FCA3E0CE
:100ED300FDA3E0FEA3E0FF1200899003ADE0FBA3B6
:100EE300E0FAA3E0F990000C12072AE92420F9E4C0
:100EF3003AFAC003C002C0011206C0C004C005C054
:100F030006C0079003ADE0FBA3E0FAA3E0F990006D
:100F13001012076EC000C001C002C0039003ADE011
:100F2300FBA3E0FAA3E0F990000C1206E0D003D093
:100F330002D001D0001200899003ADE0FBA3E0FAD8
:100F4300A3E0F912074E12017EC004C005C006C01B
:100F5300079003ADE0FBA3E0FAA3E0F990000C12C5
:100F630006E090000412076E12017EA804A905AAE8
:100F730006AB07D007D006D005D00412008DA80415
:100F8300A905AA06AB07D007D006D005D0041200E6
:100F93008DD001D002D0031207109003ADE0FBA364
:100FA300E0FAA3E0F99000181206E090002012077F
:100FB3006E120324601240109003ADE0FBA3E0FA2D
:100FC300A3E0F9900018802A9003ADE0FBA3E0FAB8
:100FD300A3E0F990001C1206E090002012076E12A5
:100FE300032450179003ADE0FBA3E0FAA3E0F990CC
:0C0FF300001C1206E090002012072A22C9
:102C0700E4900437F0A304F0A3F0E4A3F0A304F0E6
:102C1700A374A2F0A37440F0A37401F0FB7A0479C3
:062C270037E4FF021E1D50
:101363004903FF0000000000464350004904080001
:081373004313800042C8000092
:0E0FFF009003A4EFF0A3EBF0A3EAF0A3E9F057
:10100D00A31207AA000000009003AC1207AA00006B
:10101D0000009003A5E0FBA3E0FAA3E0F990000522
:10102D0012076E7F007E1B7DB77C491202879003ED
:10103D00A812079E9003A5E0FBA3E0FAA3E0F990A8
:10104D00000112076EE4FFFE7D7A7C44120089E4F4
:10105D00FBFA797A78441202879003AC12079E75D9
:10106D00BA8090FFF2740FF09003A8E0FCA3E0FDAE
:10107D00A3E0FEA3E0FF1203EC90FFF0EEF0A3EF70
:10108D00F09003A4E0B4080040030212F59010A103
:10109D00F82828730210B9021101021149021191A9
:1010AD000211D90212210212690212B090FF00E45E
:1010BD00F0A3F09003ACE0FCA3E0FDA3E0FEA3E001
:1010CD00FF9003A8E0F8A3E0F9A3E0FAA3E0FB1278
:1010DD00017E1203EC90FF02EEF0A3EFF09003A55A
:1010ED00E0FBA3E0FAA3E0F912046D448090FF0445
:1010FD00F00212F590FF10E4F0A3F09003ACE0FCC9
:10110D00A3E0FDA3E0FEA3E0FF9003A8E0F8A3E0B9
:10111D00F9A3E0FAA3E0FB12017E1203EC90FF129B
:10112D00EEF0A3EFF09003A5E0FBA3E0FAA3E0F946
:10113D0012046D448090FF14F00212F590FF20E42C
:10114D00F0A3F09003ACE0FCA3E0FDA3E0FEA3E070
:10115D00FF9003A8E0F8A3E0F9A3E0FAA3E0FB12E7
:10116D00017E1203EC90FF22EEF0A3EFF09003A5A9
:10117D00E0FBA3E0FAA3E0F912046D448090FF2494
:10118D00F00212F590FF30E4F0A3F09003ACE0FC18
:10119D00A3E0FDA3E0FEA3E0FF9003A8E0F8A3E029
:1011AD00F9A3E0FAA3E0FB12017E1203EC90FF32EB
:1011BD00EEF0A3EFF09003A5E0FBA3E0FAA3E0F9B6
:1011CD0012046D448090FF34F00212F590FF40E45C
:1011DD00F0A3F09003ACE0FCA3E0FDA3E0FEA3E0E0
:1011ED00FF9003A8E0F8A3E0F9A3E0FAA3E0FB1257
:1011FD00017E1203EC90FF42EEF0A3EFF09003A5F9
:10120D00E0FBA3E0FAA3E0F912046D448090FF44E3
:10121D00F00212F590FF50E4F0A3F09003ACE0FC67
:10122D00A3E0FDA3E0FEA3E0FF9003A8E0F8A3E098
:10123D00F9A3E0FAA3E0FB12017E1203EC90FF523A
:10124D00EEF0A3EFF09003A5E0FBA3E0FAA3E0F925
:10125D0012046D448090FF54F00212F590FF60E48B
:10126D00F0A3F09003ACE0FCA3E0FDA3E0FEA3E04F
:10127D00FF9003A8E0F8A3E0F9A3E0FAA3E0FB12C6
:10128D00017E1203EC90FF62EEF0A3EFF09003A548
:10129D00E0FBA3E0FAA3E0F912046D448090FF6433
:1012AD00F0804590FF70E4F0A3F09003ACE0FCA358
:1012BD00E0FDA3E0FEA3E0FF9003A8E0F8A3E0F9B2
:1012CD00A3E0FAA3E0FB12017E1203EC90FF72EE95
:1012DD00F0A3EFF09003A5E0FBA3E0FAA3E0F91271
:0E12ED00046D448090FF74F0E4F5BA75FE8045
:0112FB0022D0
:10216500E49003A4F0FFFEA3F0122DB47FA0122D7E
:102175005A7F3D122D5A122DB47FA1122D5A122DC0
:102185007C9003A4EFF0122D9A122D7C9003A5EFFD
:10219500F0122D8B122DC69003A5E0FE9003A4E04E
:1021A500FDEDFFAC06EC1203B3E4FBFAF978471238
:1021B5000287E4FBFA7934784312017E90042012F9
:1021C500079E122DB47FA0122D5A7F3E122D5A1252
:1021D5002DB47FA1122D5A122D7C9003A4EFF0127D
:1021E5002D9A122D7C9003A5EFF0122D8B122DC682
:1021F5009003A5E0FE9003A4E0FDEDFFAC06EC1214
:1022050003B3E4FBFAF97847120287E4FBFA793461
:10221500784312017E90042412079E122DB47FA0EC
:10222500122D5A7F3F122D5A122DB47FA1122D5A0D
:10223500122D7C9003A4EFF0122D9A122D7C9003A1
:10224500A5EFF0122D8B122DC69003A5E0FE90038D
:10225500A4E0FDEDFFAC06EC1203B3E4FBFAF9785C
:1022650047120287E4FBFA7934784312017E900421
:042275002802079E96
:102C2D00E490043FF0A304F0A3F0E4A3F0A304F0B8
:102C3D00A374A2F0A37440F0A37401F0FB7A04799D
:052C4D003FFF021E1D07
:03002B00020006CA
:0400060053BCDF32D6
:1029DE00D2AFE4F59212046D42919000011204867A
:1029EE00FFE5BC549F4FF5BC9000021204866401B3
:1029FE00700543BC80800353BC7F90000312048695
:102A0E006401700543DE20800353DEDF9000051263
:102A1E00048664017004D2AD8002C2AD900004122F
:0C2A2E00048664017003D2BD22C2BD22E8
:0D004600EF6401700443BC802253BC7F2294
:10275E00EFD39407748094804002807BE4F5BDF53E
:10276E00BEE5BC54E044404FF5BC0000E4FDEDC3B3
:10277E0094FA74809480505FE5BC20E55753BCDF1B
:10278E00E5DE30E51FE5BD540FFF900466E4F0A3CF
:10279E00EFF0E0FEACBEECFBEBFF900466EEF0A3B8
:1027AE00EFF08027AFBDEF900466F0A3E4F0AFBE6C
:1027BE00900466E0F0A3E04FF0900466E0C4F85495
:1027CE00F0C868F0A3E0C4540F48F0900466E0FE31
:0B27DE00A3E0FF220D80977E047F0027
:0127E90022CD
:10137B00622801000000000000000000002F0000A8
:10138B0000000700070000147F147F1400242A7F3D
:10139B002A120062640813230036495522500000BC
:1013AB000503000000001C224100000041221C002C
:1013BB000014083E08140008083E0808000000A0AE
:1013CB0060000008080808080000606000000020AA
:1013DB0010080402003E5149453E0000427F400088
:1013EB00004261514946002141454B31001814120E
:1013FB007F10002745454539003C4A4949300001DB
:10140B007109050300364949493600064949291E29
:10141B00000036360000000056360000000814228B
:10142B00410000141414141400004122140800028B
:10143B000151090600324959513E007C1211127CB0
:10144B00007F49494936003E41414122007F4141DD
:10145B00221C007F49494941007F09090901003ECF
:10146B004149497A007F0808087F0000417F41000D
:10147B00002040413F01007F08142241007F404083
:10148B004040007F020C027F007F0408107F003E6B
:10149B004141413E007F09090906003E4151215E51
:1014AB00007F091929460046494949310001017F4E
:1014BB000101003F4040403F001F2040201F003FE4
:1014CB004038403F00631408146300070870080796
:1014DB0000615149454300007F41410000552A55A9
:1014EB002A55000041417F00000402010204004024
:1014FB004040404000000102040000205454547846
:10150B00007F484444380038444444200038444465
:10151B00487F00385454541800087E090102001803
:10152B00A4A4A47C007F080404780000447D400040
:10153B00004080847D00007F102844000000417F24
:10154B004000007C04180478007C08040478003800
:10155B004444443800FC242424180018242418FC88
:10156B00007C0804040800485454542000043F44F1
:10157B004020003C4040207C001C2040201C003CB4
:10158B004030403C004428102844001CA0A0A07C04
:0C159B00004464544C4414141414141440
:062DCF00D2B27F027E007B
:032DD500022CF2DB
:102D0800122DCFD2B3122DD1C2B3122DD1C2B27FA0
:062D1800027E00022DD531
:102D1E00C2B2122DD1C2B3122DD1122DCFD2B37F8A
:062D2E00027E00022DD51B
:05297B00900396EFF04F
:10298000E4A3F0900397E0C39408748094805033DC
:10299000900396E030E704D2B38002C2B37F017E99
:1029A00000122DD5D2B27F017E00122DD5C2B27F8A
:1029B000017E00122DD5900396E025E0F0A3E004FF
:1029C000F080C0D2B37F017E00122DD5D2B27F013C
:0E29D0007E00122DD5C2B27F017E00022DD5F1
:10006600900394EFF0122D087F7812297B7F4012BF
:0D007600297B900394E0FF12297B022D1ED0
:042C9B00EF24B0FF73
:102C9F00900395EFF0122D087F7812297BE4FF1235
:0D2CAF00297B900395E0FF12297B022D1E6A
:102C5200900394EFF0ED24B0FF122C9F900394E0C8
:102C620054F0C4540F4410FF122C9F900394E0546C
:052C72000FFF022C9F82
:052A9300900372EFF05A
:102A9800E4A3F0900373E0FFC3940874809480501B
:102AA80037122C9B7F01122C9F7F10122C9FE490D1
:102AB8000374F0900374E0C394847480948050107D
:102AC800900372E0FF120066900374E004F080E364
:082AD800900373E004F080BBE1
:012AE00022D3
:102AE100E4900370F0900370E0FFC3940874809445
:102AF100805034122C9B7F01122C9F7F10122C9F2F
:102B0100E4900371F0900371E0C394847480948025
:102B1100500DE4FF120066900371E004F080E6902E
:072B21000370E004F080BE28
:012B2800228A
:10227900E4900370F0A37408F07B017A0379707F0E
:1022890002121A5F7B017A0379707F03121A5F7B4E
:10229900017A0379707F04121A5FD2B2C2B47FF453
:1022A9007E01122CBCD2B47FAE122C9FE4FF122CFB
:1022B9009F7F10122C9F7F40122C9F7F81122C9F91
:1022C9007FCF122C9F7FA1122C9F7FC8122C9F7F3A
:1022D900A6122C9F7FA8122C9F7F3F122C9F7FD381
:1022E900122C9FE4FF122C9F7FD5122C9F7F801206
:1022F9002C9F7FD9122C9F7FF1122C9F7FDA122CF1
:102309009F7F12122C9F7FDB122C9F7F40122C9FE4
:102319007F20122C9F7F02122C9F7F8D122C9F7F72
:1023290014122C9F7FA4122C9F7FA6122C9F7FAF83
:0E233900122C9FE4FF122A93E4FDFF022C52A7
:0A2A3A00900462EDF0900461EFF0EB
:102A4400A3E0FE131313541FFD122C52900462E0F2
:102A5400FF5407FEF87401088002C333D8FC9004C5
:102A640063F0EF131313541F24B0FF122C9F900430
:102A740061E054F0C4540F4410FF122C9F90046181
:0F2A8400E0540FFF122C9F900463E0FF020066E6
:1026300090038CEFF0A3EDF0A3EBF0A3EAF0A3E995
:01264000F0A9
:10264100E4A3F0A3F0A3F090038EE0FBA3E0FAA3D0
:10265100E0F9900393E0F5827583001204866070BF
:1026610024E0900391F090038CE0D3947E748094E5
:10267100804006E4F0A3E004F090038CE0FFA3E0C7
:10268100FD122C52E4900392F0900392E0FFC39468
:1026910006748094805029900391E075F006A4247B
:1026A10000F582E5F03401F583E5822FF582E4350A
:1026B10083F583E0FF120066900392E004F080C985
:1026C10090038CE02406F0900393E004F002264886
:0126D10022E6
:08240F00900447EFF0A3EDF08B
:10241700E490044EF0FC7D0AAF03AE021204E7ED30
:10242700243090044DF07C007D0AAF03AE02120405
:10243700E77C007D0A1204E7ED243090044CF07C21
:10244700007D64AF03AE021204E77C007D0A12042C
:10245700E7ED243090044BF07C037DE8AF03AE0238
:102467001204E77C007D0A1204E7ED243090044A49
:10247700F0AE02AF037C277D101204E77C007D0AD3
:102487001204E7ED2430900449F0E4FFEFC394040D
:1024970074809480501E74492FF582E43404F583C8
:1024A700E0B4301074492FF582E43404F5837420C6
:1024B700F00F80D8900447E0FFA3E0FD7B017A048A
:0524C7007949022630F6
:0F1FE900900370EFF0A3EDF0A3EAF0FEA3EBF08E
:101FF800E4FBFAC3EE64809480501EE4900376F00C
:10200800A3F0900372E0FEA3E0FFC3E49FFFE49E09
:10201800900372F0A3EFF08008900376E4F0A30435
:10202800F0900372E0FEA3E0FF7C007D0A12053CFD
:10203800EF4E603D900372E0FEA3E0FF7C007D0A56
:1020480012053CED2430FF74782BF58274033AF5C1
:1020580083EFF0900372E0FEA3E0FF7C007D0A129C
:10206800053C900372EEF0A3EFF00BBB00010A8071
:10207800B0900372A3E02430FF74782BF5827403C8
:102088003AF583EFF0900376E07002A3E070609079
:102098000382742DF0900374EAF0A3EBF0900374BC
:1020A800E0FEA3E0FFD394FFEE6480947F40377492
:1020B800782FF58274033EF583E0FF900374E0FC0B
:1020C800A3E0FDC3EB9DFDEA9CFC74832DF58274AF
:1020D800033CF583EFF0900375E024FFF090037460
:1020E800E034FFF080B774842BF582740380589035
:1020F8000374EAF0A3EBF0900374E0FEA3E0FFD3CF
:1021080094FFEE6480947F403774782FF5827403CF
:102118003EF583E0FF900374E0FCA3E0FDC3EB9D74
:10212800FDEA9CFC74822DF58274033CF583EFF084
:10213800900375E024FFF0900374E034FFF080B75B
:1021480074832BF58274033AF583E4F0900370E00E
:0D215800FFA3E0FD7B017A037982022630AF
:08182300900370EFF0A3EDF05B
:10182B0090037AE4F0A3740AF0E4FFFEFDFC90034E
:10183B0072E0F8A3E0F9A3E0FAA3E0FB1203249013
:10184B00037C4005742BF0801A742DF0900372E02A
:10185B00FCA3E0FDA3E0FEA3E0FF12039D90037247
:10186B0012079E900372E0FCA3E0FDA3E0FEA3E051
:10187B00FF1203EC900376EEF0A3EFF0E4A3F0A3DA
:10188B00F0900376E0FEA3E0FF4E601F7C007D0A24
:10189B0012053C900376EEF0A3EFF0900379E00491
:1018AB00F070DE900378E004F080D6900372E0FCD9
:1018BB00A3E0FDA3E0FEA3E0FF1203EC900376EEA2
:1018CB00F0A3EFF0A3E0FEA3E0FBAA06D3EB94009A
:1018DB00EA64809480403D900376E0FEA3E0FF7CB9
:1018EB00007D0A12053CED2430FF747C2BF58274CD
:1018FB00033AF583EFF0900376E0FEA3E0FF7C0064
:10190B007D0A12053C900376EEF0A3EFF0EB1B7013
:10191B00BB1A80B8900378E0FEA3E0247DF58274B7
:10192B00033EF583742EF0900372E0FCA3E0FDA35D
:10193B00E0FEA3E0FFC004C005C006C00790037221
:10194B00A3A3A3E01203ECAD07AC06EC1203B3A800
:10195B0004A905AA06AB07D007D006D005D0041200
:10196B00008990037212079E900379E02402F09095
:10197B000378E03400F090037BE024FFFF90037AC0
:10198B00E034FFFEC3900379E09FEE6480F8900390
:10199B0078E06480984003021A3C900372E0FCA349
:1019AB00E0FDA3E0FEA3E0FFE4FBFA79207841120F
:1019BB00017E90037212079E900372E0FCA3E0FD80
:1019CB00A3E0FEA3E0FF1203ECEF2430FF900378BB
:1019DB00E0FCA3E0247CF58274033CF583EFF090EC
:1019EB000372E0FCA3E0FDA3E0FEA3E0FFC004C094
:1019FB0005C006C007900372A3A3A3E01203ECADCE
:101A0B0007AC06EC1203B3A804A905AA06AB07D0D2
:101A1B0007D006D005D00412008990037212079EDE
:101A2B00900379E004F07006900378E004F002195B
:101A3B008190037AE0FEA3E0247BF58274033EF5EC
:101A4B0083E4F0900370E0FFA3E0FD7B017A037960
:041A5B007C022630B3
:10008600020458E86480F8E933E83360110460F04C
:10009600ED33EC337009E8FCE9FDEAFEEBFF2204E0
:1000A60060DED3EB9FEA9EE99DE8C2E78CF0C2F7DB
:1000B60095F0400CE8CCF8E9CDF9EACEFAEBCFFBA7
:1000C60012042385D0F05804700320D5B3E80470D9
:1000D600075002B2D502046292D5EC0460F7E4CC74
:1000E600C0E0C398F8603B94186008400DD0E0FB70
:1000F60002043AE4FBFAC9FC8028E830E406E4C9C5
:10010600FBE4CAFCE830E305E4C9CACBFCE85407C3
:100116006010F8C3E913F9EA13FAEB13FBEC13FCCE
:10012600D8F130F52FC3E49CFCEF9BFFEE9AFEED71
:1001360099FDD0E0FBEF4E4D4C701222DB0302041A
:100146005FEC2CFCEF33FFEE33FEED33FDED30E7D5
:10015600EB02043AEF2BFFEE3AFEED39FDD0E0FB61
:1001660050130BBB0003020462ED13FDEE13FEEF0A
:0801760013FFEC13FC02043A34
:10017E00EC4D6011E8497017ED33EC3304600DE47B
:10018E00FCFFFEFD22E933E8330470F80204581236
:10019E00042358046009E4CC248150062850090237
:1001AE00046228400302045FC0E0EB4A7044B98049
:1001BE0006D0E0FB02044EEF4E701CBD8008EBFF34
:1001CE00EAFEE9FD80EBE98DF0A4FEE5F0020267A0
:1001DE00E9CDF9EAFEEBFFEF89F0A4FCE5F0CE895C
:1001EE00F0A42EFFE435F0CD89F0A42DFEE435F019
:1001FE008067EF4E7005BD80D780C3EF8BF0A4AC47
:10020E00F0EE8BF0A42CFCE435F0F8EF8AF0A42C81
:10021E00E5F038FCE433CB8DF0A42CFCE5F03BF894
:10022E00EE8AF0A42CFCE5F038F8E433CF89F0A484
:10023E002CFCE5F038CF3400CE89F0A42FFFE5F08A
:10024E003EFEE433C98DF0A42EFEE5F039CD8AF0E2
:10025E00A42FFFE5F03EFEE43DFD33D0E0FB50075A
:10026E000BBB000F020462EC2CFCEF33FFEE33FEEF
:06027E00ED33FD02043A1D
:10028400020462EC5D046005E8590470030204583A
:10029400120423580460F6EC4860F2EC7004FDFE8E
:1002A400FF22C860DB2481C85009C398600250064D
:1002B40002045F9850CAF582E9294B4A7005AB8263
:1002C40002044E75F0007C1A7880C3EF9BEE9AED21
:1002D40099400DC3EF9BFFEE9AFEED99FDE842F0C5
:1002E400DC23ACF0D0E0FFD0E0FED0E0FDAB822018
:1002F400E7101BEB60BAEC2CFCEF33FFEE33FEEDA2
:1003040033FD02043AE803F830E705C0F075F00065
:10031400EF2FFFEE33FEED33FD40B830E7C280AA85
:1003240074F8CC6480CCC86480C8F58204604FC380
:10033400EB9FF5F0EA9E42F0E99D42F0E89C45F01F
:10034400603C501DE5825FFFE582D313CB5BCBF4A9
:100354002B5582FB50280ABA002409B900200880D2
:100364001DE5825BFBE582D313CF5FCFF4C3132F6C
:100374005582FF50090EBE00050DBD00010CC3EBF4
:100384009FF5F0EA9E42F0E99D42F0E89C45F0605A
:0903940007CC4820E701B3EC227C
:10039D00ED33EC33600A047003BD8004ECB2E7FC6E
:0103AD00222D
:1003AE0075F020800E75F010800575F0087D007ECA
:1003BE00007F003392D530D50312068EEC334010F9
:1003CE00EF33FFEE33FEED33FDEC33FCD5F0ED22D3
:0E03DE00E5F0247EA2D513CC92E7CDCEFF220F
:1003EC00EDD2E7CD33EC3392D524814006E4FFFE09
:1003FC00FDFC22FCE4CFCECDCC24E0501174FF8068
:10040C00EDC3CC13CCCD13CDCE13CECF13CF047004
:07041C00F030D5DE02068E70
:10042300E9D2E7C933E833F892D5EDD2E7CD33EC1F
:0704330033FC5002B2D52298
:10043A00EC30E7100FBF000C0EBE00080DBD000423
:10044A000BEB6014A2D5EB13FCED92E7FD2274FFCF
:10045A00FCFDFEFF22E480F8A2D574FF13FC7D8028
:03046A00E480EF3C
:1026DE00022BB5E493A3F8E493A34003F68001F232
:1026EE0008DFF48029E493A3F85407240CC8C333FD
:1026FE00C4540F4420C8834004F456800146F6DFCC
:10270E00E4800B01020408102040809012FCE47E4D
:10271E00019360BCA3FF543F30E509541FFEE493C0
:10272E00A360010ECF54C025E060A840B8E493A387
:10273E00FAE493A3F8E493A3C8C582C8CAC583CAB2
:10274E00F0A3C8C582C8CAC583CADFE9DEE780BE6A
:0115A7000043
:10046D00BB010689828A83E0225002E722BBFE028D
:09047D00E32289828A83E49322C0
:10048600BB010CE58229F582E5833AF583E022502B
:1004960006E92582F8E622BBFE06E92582F8E22275
:0D04A600E58229F582E5833AF583E493228F
:1004B300BB010689828A83F0225002F722BBFE0128
:0204C300F32222
:1004C500F8BB010DE58229F582E5833AF583E8F06D
:1004D500225006E92582C8F622BBFE05E92582C819
:0204E500F22201
:1004E700BC000BBE0029EF8DF084FFADF022E4CCF9
:1004F700F875F008EF2FFFEE33FEEC33FCEE9DECC2
:10050700984005FCEE9DFE0FD5F0E9E4CEFD22ED07
:10051700F8F5F0EE8420D21CFEADF075F008EF2F51
:10052700FFED33FD4007985006D5F0F222C398FD42
:050537000FD5F0EA22DF
:10053C00C2D5EC30E709B2D5E4C39DFDE49CFCEEDA
:10054C0030E715B2D5E4C39FFFE49EFE1204E7C367
:10055C00E49DFDE49CFC80031204E730D507C3E462
:06056C009FFFE49EFE2249
:10057200C5F0F8A3E028F0C5F0F8E5821582700214
:060582001583E038F022B1
:10058800BB0110E58229F582E5833AF583E0F5F0B1
:10059800A3E0225009E92582F886F008E622BBFE8E
:1005A8000AE92582F8E2F5F008E222E5832AF583D4
:0805B800E993F5F0A3E9932299
:1005C00075F008758200EF2FFFEE33FECD33CDCCF2
:1005D00033CCC58233C5829BED9AEC99E582984075
:1005E0000CF582EE9BFEED9AFDEC99FC0FD5F0D652
:1005F000E4CEFBE4CDFAE4CCF9A88222B800C1B97C
:100600000059BA002DEC8BF084CFCECDFCE5F0CBB9
:10061000F97818EF2FFFEE33FEED33FDEC33FCEBF2
:1006200033FB10D703994004EB99FB0FD8E5E4F9AD
:10063000FA227818EF2FFFEE33FEED33FDEC33FC9A
:10064000C933C910D7059BE99A4007EC9BFCE99A8E
:10065000F90FD8E0E4C9FAE4CCFB2275F010EF2FD3
:10066000FFEE33FEED33FDCC33CCC833C810D707D3
:100670009BEC9AE899400AED9BFDEC9AFCE899F80E
:0E0680000FD5F0DAE4CDFBE4CCFAE4C8F922A1
:0E068E00C3E49FFFE49EFEE49DFDE49CFC227D
:10069C00EB9FF5F0EA9E42F0E99D42F0E89C45F0B4
:0106AC00222B
:1006AD00E8600FECC313FCED13FDEE13FEEF13FF2B
:0306BD00D8F1224F
:1006C000BB010789828A8302080B5005E9F80207FB
:1006D000FFBBFE05E9F802081789828A8302082316
:1006E000BB010DE58229F582E5833AF58302080B0B
:1006F0005007E92582F80207FFBBFE07E92582F8CB
:10070000020817E58229F582E5833AF5830208237A
:10071000BB010789828A8302079E5005E9F8020817
:0A07200069BBFE05E9F80208752226
:10072A00BB010DE58229F582E5833AF58302079E2E
:10073A005007E92582F8020869BBFE07E92582F815
:04074A00020875220A
:10074E00BB010789828A830208405005E9F8020836
:10075E0033BBFE05E9F802084C89828A83020859E8
:10076E00BB010DE58229F582E5833AF58302084047
:10077E005007E92582F8020833BBFE07E92582F807
:10078E0002084CE58229F582E5833AF58302085981
:0C079E00ECF0A3EDF0A3EEF0A3EFF022CE
:1007AA00A8828583F0D083D0821207C11207C112B2
:1007BA0007C11207C1E473E493A3C583C5F0C583D7
:1007CA00C8C582C8F0A3C583C5F0C583C8C582C899
:0107DA0022FC
:1007DB00BB010DE58229F582E5833AF5830207AA71
:1007EB005007E92582F8020881BBFE07E92582F84C
:0407FB0002089A2234
:0C07FF00E6FC08E6FD08E6FE08E6FF2226
:0C080B00E0FCA3E0FDA3E0FEA3E0FF2260
:0C081700E2FC08E2FD08E2FE08E2FF221D
:10082300E493FC740193FD740293FE740393FF221B
:0D083300E6FB08E6F908E6FA08E6CBF82235
:0C084000E0F8A3E0F9A3E0FAA3E0FB223B
:0D084C00E2FB08E2F908E2FA08E2CBF8222C
:10085900E493F8740193F9740293FA740393FB22F5
:0C086900ECF608EDF608EEF608EFF622BB
:0C087500ECF208EDF208EEF208EFF222BF
:10088100D083D082E493F608740193F6087402933E
:09089100F608740393F674047375
:10089A00D083D082E493F208740193F2087402932D
:0908AA00F208740393F274047364
:00000001FF
