:0300000002227564
:0C227500787FE4F6D8FD7581200222BCC1
:040006002C0D0A00B3
:0812FC0045042D000000000074
:1020710012002E9003AA7440F0A37401F0A312077A
:10208100AA00004B009003B07401F0A3F0E4A3F0A8
:10209100A304F0A3F0E4A3F07B017A0379AA7F0102
:1020A1001208B37F0A7E0012283490043CE0FCA39E
:1020B100E0FDEC1203B39003D812079E9003DC12EB
:1020C10007AA435200009003E07401F0A37403F0E7
:1020D100A37428F07F01120CD3900348E0FCA3E025
:1020E100FDA3E0FEA3E0FF9003E412079E7B017ACB
:1020F1000379E3E4FF120FFF90043CE0FEA3E0FF4D
:102101007B017A04792D121789E490043CF0A3F045
:102111007B017A04792D12272C7BFF7A0079061234
:05212100272C0220A4A0
:10283400E4FDFCC3ED9FEC9E50100079207B28DB67
:0A284400FED9FC0DBD00010C80E977
:01284E002267
:10286A00E4FDFCC3ED9FEC9E500B7B06DBFE0DBD29
:05287A0000010C80EEDE
:01287F002236
:1015A800EFD394057480948040037F012212046D68
:1015B800FED394037480948040037F0222EF70442A
:1015C800EE700B900001120486F4529352941204A8
:1015D8006D6401700B9000011204864293F45294DA
:1015E80012046DFE6402700A900001120486429390
:1015F8004294EE6403700D900001120486FEF452CA
:1016080093EE4294EF6401704612046DFE700B90E5
:101618000001120486F452915292EE6401700B900C
:1016280000011204864291F4529212046D64027011
:101638000A9000011204864291429212046D6403DA
:10164800700D900001120486FEF45291EE4292EF62
:101658006402704612046DFE700B9000011204863D
:10166800F452955296EE6401700B900001120486B4
:101678004295F4529612046D6402700A90000112A9
:1016880004864295429612046D6403700D90000121
:10169800120486FEF45295EE4296EF6403704612E9
:1016A800046DFE700B900001120486F452B152B220
:1016B800EE6401700B90000112048642B1F452B23C
:1016C80012046D6402700A90000112048642B1424D
:1016D800B212046D6403700D900001120486FEF4CA
:1016E80052B1EE42B2EF6404704612046DFE700B04
:1016F800900001120486F452B352B4EE6401700BE8
:1017080090000112048642B3F452B412046D6402CC
:10171800700A90000112048642B342B412046D6448
:1017280003700D900001120486FEF452B3EE42B429
:10173800EF6405704912046DFF7E00700B90000184
:10174800120486F452C952CAEF64014E700B90001D
:101758000112048642C9F452CA12046D6402700A66
:1017680090000112048642C942CA12046D640370D3
:101778000D900001120486FFF452C9EF42CA7F009F
:01178800223E
:1026CC00EFFD7C00700F75BA8090FE8074E0F09086
:1026DC00FE82E4F022ED64014C701875BA8090FE15
:1026EC00807481F090FE85745AF090FE84E4F09032
:0426FC00FE83F02247
:10238D00D200D201E4900446F0E02400F8E290FE81
:10239D0086F090FE84E030E605E054BFF02290FE1A
:1023AD0084E030E52DE054DFF0300003C200223030
:1023BD00010DC20190FE87E0900446F0E0802F9061
:1023CD00FE87E0FF900446E0FE04F074002EF8EF67
:1023DD00F22290FE84E030E41EE054EFF0E030E1B4
:1023ED000790FE8674FFF022900446E004F024006E
:1023FD00F8E290FE86F02290FE84E030E308E0548F
:07240D00F7F0D200D201221A
:0C29200090FE82E030E6F9E054BFF022A7
:09292C0090FE817401F0022920E3
:1028D20090FE86EFF090FE817402F0122920022908
:0128E20035C0
:0929350090FE817403F0022920D8
:0F28F40090FE817404F012292090FE87E0FF22ED
:0E29120090FE82E4F090FE817405F002292010
:0F29030090FE827401F090FE817405F00229208D
:09293E0090FE817406F0022920CC
:1028AC00E4FFFE000000000FBF00010EBE0BF4BFE2
:0228BC00B8F171
:0128BE0022F7
:1028E300E59A30E103539AFDE59A30E003539AFEEB
:0128F30022C2
:03002300022414A0
:10241400C0E0C083C082C0D075D000C006C0073001
:102424009831C298900376E07029900374E0C394C5
:102434000B748094804002E4F0900374E0FF04F095
:10244400747E2FF582E43403F583E599F0900375E7
:102454007405F0309934C299900372E0FF900371CF
:10246400E0FE6F602074942EF582E43403F583E07B
:10247400F599900371E004F0C3940B748094804048
:1024840009E4F08005900373E4F0D007D006D0D0BF
:07249400D082D083D0E032BA
:0300430002249BF9
:10249B00C0E0C083C082C0D075D000C006C0071298
:1024AB0028E390037DE0702990037BE0C3940B74C9
:1024BB008094804002E4F090037BE0FF04F0748989
:1024CB002FF582E43403F583E59BF090037C7405D0
:1024DB00F01228E3900379E0FF900378E0FE6F6041
:1024EB0020749F2EF582E43403F583E0F59B900373
:1024FB0078E004F0C3940B748094804009E4F0807E
:10250B000590037AE4F0D007D006D0D0D082D083E8
:03251B00D0E032DB
:1008B3009003B7EBF0A3EAF0A3E9F09003B6EFF0EF
:1008C300D2AF64016003020B2A90037004F0E4A327
:1008D300F0A3F0A3F0A3F0A3F0A3F09003BAF09079
:1008E30003BAE0FFC3940B74809480501474942F64
:1008F300F582E43403F583E4F09003BAE004F08076
:10090300DEE49003BAF09003BAE0FFC3940B748063
:1009130094805014747E2FF582E43403F583E4F05D
:100923009003BAE004F080DE9003B7E0FBA3E0FAA3
:10093300A3E0F912046DFD7C00D394C0748094800D
:1009430040037F022290000A12048664017004D2DD
:10095300BC8002C2BC12046DFFE598543F4FF5986A
:10096300ED64C04C6008EF64406003020A559000D8
:100973000212076E7F807E8D7D5B7C001205FC90EA
:1009830003BB12079EE4FFFE7D01FC9003BBE0F86E
:10099300A3E0F9A3E0FAA3E0FBC312069C40037FA4
:1009A30002229003BBE0F8A3E0F9A3E0FAA3E0FB83
:1009B300C3E49BFFE49AFE740199FDE498FC900361
:1009C300BB12079E9003B7E0FBA3E0FAA3E0F99004
:1009D3000001120486FB7A0064017038C28E538EC4
:1009E300FE5389BF5389CF438E409003BBE0FCA3E2
:1009F300E0FDA3E0FEA3E0FF78081206AD8F8D9023
:100A030003BBA3A3A3E0F58BC2AB5389BF538FFDF5
:100A1300D28E807DEB64024A7035538EEF438E0194
:100A2300538EF7438E049003BBE0FCA3E0FDA3E0E9
:100A3300FEA3E0FF78081206AD8FD69003BBA3A3F5
:100A4300A3E0F5D753AFFB538EF7438E1080427F5D
:100A530002229003B7E0FBA3E0FAA3E0F912046DCE
:100A6300FF7E007014900008120486640170054331
:100A73008E20801D538EDF8018EF64804E7012909D
:100A8300000812048664017005438780800353873E
:100A93007F9003B7E0FBA3E0FAA3E0F9900009120B
:100AA300048664017004D2AC8002C2AC90000712C9
:100AB300048664017004D29C8002C29C90000B12D5
:040AC3000486700A2B
:080AC7009003BF7403F0A314B7
:100ACF00802F9003B7E0FBA3E0FAA3E0F990000BAF
:0A0ADF0012048664809003BF7011BA
:0F0AE9007403F0A37480F07B017A0379BF7F015F
:020AF800800F6D
:100AFA007403F0A37480F07B017A0379BF7F031239
:020B0A0015A82C
:100B0C009003B7E0FBA3E0FAA3E0F990000B12040A
:100B1C008654C0FFE5A2543F4FF5A27F00229003FC
:100B2C00B6E064026003020CD09003777402F0E428
:100B3C00A3F0A3F0A3F0A3F0A3F0A3F09003BAF0FA
:100B4C009003BAE0FFC3940B748094805014749F8C
:100B5C002FF582E43403F583E4F09003BAE004F05B
:100B6C0080DEE49003BAF09003BAE0FFC3940B74F8
:100B7C00809480501474892FF582E43403F583E457
:100B8C00F09003BAE004F080DE9003B7E0FBA3E042
:100B9C00FAA3E0F912046DFF64C06008EF644060D2
:100BAC0003020C5690000A1204866401700543B5CA
:100BBC0001800353B5FE12046D64C07005439A8026
:100BCC008003539A7F90000212076E7F807E8D7D8A
:100BDC005B7C001205FC9003BB12079EE4FFFE7DBC
:100BEC0001FC9003BBE0F8A3E0F9A3E0FAA3E0FB5F
:100BFC00C312069C40037F02229003BBE0F8A3E0E3
:100C0C00F9A3E0FAA3E0FBC3E49BFFE49AFE7401B2
:100C1C0099FDE498FC9003BB12079E538EEF538E04
:100C2C00F7438E049003BBE0FCA3E0FDA3E0FEA31E
:100C3C00E0FF78081206AD8FD69003BBA3A3A3E008
:100C4C00F5D753AFFB438E1080037F02229003B77E
:100C5C00E0FBA3E0FAA3E0F990000912048664011A
:100C6C00700543AF01800353AFFE9000071204865A
:100C7C0064017005439A108003539AEF90000B1295
:070C8C0004869003BF701005
:0E0C93007403F0A314F07B017A0379BF7F0194
:020CA100800FC2
:100CA3007403F0A37480F07B017A0379BF7F04128D
:020CB30015A882
:100CB5009003B7E0FBA3E0FAA3E0F990000B120460
:0D0CC500865401FFE5BA54FE4FF5BA7F00DA
:010CD20022FF
:102758009003B9EFF0900373E0701304F09003B99D
:10276800E0F5993099FDC299E4900373F0227F0552
:072778007E0012286A80DEDA
:10270000900379E0249FF582E43403F583EFF090A1
:102710000379E004F0C3940B748094804002E4F0E9
:0C27200090037AE0700504F01228E32218
:10272C009003B6EBF0A3EAF0A3E9F09003B6E0FB5C
:10273C00A3E0FAA3E0F912046DFF600F1227589082
:0C274C0003B7E475F00112057280E02272
:1028BF0012046DFF600C122700740129F9E43AFA33
:0328CF0080EE2276
:072950003098FDC298AF9919
:01295700225D
:052958001228E3AF9B13
:01295D002257
:101789009003B8EBF0A3EAF0A3E9F09003B6EEF00A
:03179900A3EFF0CB
:10179C00E49003BBF0A3F0C3EE64809480501EE48D
:1017AC009003BFF0A3F09003B6E0FEA3E0FFC3E408
:1017BC009FFFE49E9003B6F0A3EFF080089003BF68
:1017CC00E4F0A304F09003B6E0FEA3E0FF7C007D00
:1017DC000A12053CEF4E604B9003B6E0FAA3E0FB17
:1017EC007C007D0AFFAE0212053CED2430FF900315
:1017FC00BBE0FCA3E024C1F58274033CF583EFF05D
:10180C007C007D0AAF03AE0212053C9003B6EEF0ED
:10181C00A3EFF09003BCE004F070AA9003BBE004CB
:10182C00F080A29003B6A3E02430FF9003BBE0FC51
:10183C00A3E024C1F58274033CF583EFF09003BF61
:10184C00E07002A3E060030218E29003B8E0FBA38F
:10185C00E0FAA3E0F9742D1204B39003BBE0FFA3EC
:10186C00E0A3CFF0A3EFF09003BDE0FEA3E0FFD325
:10187C0094FFEE6480947F404A74C12FF582740308
:10188C003EF583E0FF9003BDE0FCA3E0FDC39003B5
:10189C00BCE09DFD9003BBE09CCD2401CD3400FC4D
:1018AC009003B8E0FBA3E0FAA3E0F98D828C83EF00
:1018BC001204C59003BEE024FFF09003BDE034FF9A
:1018CC00F080A49003B8E0FBA3E0FAA3E0F9900346
:1018DC00BCE0240280749003BBE0FFA3E0A3CFF034
:1018EC00A3EFF09003BDE0FEA3E0FFD394FFEE6402
:1018FC0080947F404474C12FF58274033EF583E0DD
:10190C00FF9003BDE0FCA3E0FDC39003BCE09DFD94
:10191C009003BBE09CFC9003B8E0FBA3E0FAA3E0CF
:10192C00F98D828C83EF1204C59003BEE024FFF086
:10193C009003BDE034FFF080AA9003B8E0FBA3E075
:10194C00FAA3E0F99003BCE02401FF9003BBE03460
:09195C00008F82F583E41204C53A
:01196500225F
:0513040042043C000062
:0300030002284F81
:10284F00C0E0C083C08290043DE004F070069004A5
:0B285F003CE004F0D082D083D0E032D7
:0300130002000ADE
:01000A0032C3
:0300530002001296
:0100120032BB
:03005B000200168A
:0100160032B7
:0300830002001761
:0100170032B6
:101E3500EFD394107480948040037F0122D2AFEFDA
:101E4500703090000212048664017004D2A88002EA
:101E5500C2A890000112048664017004D2B8800201
:101E6500C2B812046D64017004D2888002C2887FF2
:101E75000022EF6402703090000212048664017043
:101E850004D2AA8002C2AA900001120486640170DD
:101E950004D2BA8002C2BA12046D64017004D28AF7
:101EA5008002C28A7F0022EF640A70159000021238
:101EB500048664017005438F108003538FEF7F0004
:101EC50022EF640B70159000021204866401700500
:101ED500438F208003538FDF7F0022EF641070153E
:101EE50090000212048664017005438F40800353FD
:081EF5008FBF7F00227F022253
:0A13090042043200004204340000E8
:03000B00022126A9
:10212600C0E0C0F0C083C082C0D075D000C000C07F
:1021360001C002C003C004C005C006C00790043336
:10214600E004F07006900432E004F0900432E0708F
:1021560004A3E0640A705B90043CE0FCA3E0FDECA1
:102166001203B39003D812079E9003DC1207AA430A
:102176005200009003E07401F0A37403F0A37428E6
:10218600F07F01120CD3900348E0FCA3E0FDA3E02E
:10219600FEA3E0FF9003E412079E7B017A0379E336
:1021A600E4FF120FFF900432E4F0A3F090043CF039
:1021B600A3F0D007D006D005D004D003D002D001BA
:0D21C600D000D0D0D082D083D0F0D0E03255
:03001B00021FBA07
:101FBA00C0E0C0F0C083C082C0D075D000C000C0ED
:101FCA0001C002C003C004C005C006C007900435A2
:101FDA00E004F07006900434E004F0900434E070F9
:101FEA0004A3E064327065121C539003F9E0FCA369
:101FFA00E0FDA3E0FEA3E0FF9003D812079E900342
:10200A00DC1207AA000000009003E07401F0A37438
:10201A0003F0A3744CF0E4FF120CD37F007E807DA2
:10202A00137C4390036CE0F8A3E0F9A3E0FAA3E081
:10203A00FB12008D9003ED12079E7B017A0379EC67
:10204A007F01120FFF900434E4F0A3F0D007D0060A
:10205A00D005D004D003D002D001D000D0D0D08295
:07206A00D083D0F0D0E0327A
:0300630002001880
:0100180032B5
:10196600AD07EDD394027480948040037F0122D2A8
:10197600AFED6003021A0EC28C9000021204866458
:10198600017004D2A98002C2A990000112048664E3
:10199600017004D2B98002C2B912046DFED3940359
:1019A6007480948040037F0222E58954FC4EF589B9
:1019B600900003120486FF7E0064017003538E7F3D
:1019C600EF4E7003438E80EF64024E700543890428
:1019D60080035389FB90000412048664017005435A
:1019E6008F018003538FFE900005120588E5F0F500
:1019F6008C900005120588F58A900007120486640B
:101A0600017002D28C7F0022ED64016003021AA7E6
:101A1600C28E90000212048664017004D2AB80026A
:101A2600C2AB90000112048664017004D2BB80022E
:101A3600C2BB12046DFEC394037480948040037F7E
:101A46000222E58954CF4EF589900003120486FFE1
:101A56007E0064017003538EBFEF4E7003438E40C9
:101A6600EF64024E700543894080035389BF90009E
:101A76000412048664017005438F028003538FFDB0
:101A8600900005120588E5F0F58D90000512058891
:101A9600F58B90000712048664017002D28E7F00D7
:101AA60022ED64026003021B2F538EEF9000021298
:101AB60004866401700543AF04800353AFFB9000B6
:101AC60003120486FD7C00D3940274809480400344
:101AD6007F0222ED64014C7003538EFB90000312CB
:101AE60004867003438E0490000312048664027019
:101AF60005438E088003538EF79000041204866413
:101B0600017005438F048003538FFB900005120577
:101B160088FDACF0ECF5D68DD790000712048664EC
:0C1B2600017003438E107F00227F02221A
:1027EF0012046D9003B9F09000011204869003BAA1
:1027FF00F09000021204869003BBF07B017A0379FC
:04280F00B9021E35B7
:10002E00E49003B6F0A304F0A3F0FB7A0379B6E4F0
:04003E00FF0227EFA7
:1013130060240328402000003F4CCCCD0000000097
:101323000000000000000000000000004475000001
:1013330000000000000000006024034C3F80000018
:101343003D4CCCCD3C23D70A000000000000000038
:1013530000000000C2E1000042E1000000000000C4
:100CD3009003D7EFF06003020E9E9003E0E0FBA3C6
:100CE300E0FAA3E0F990000C1206E090001012075E
:100CF3002A9003D8E0F8A3E0F9A3E0FAA3E0FBA36A
:100D0300E0FCA3E0FDA3E0FEA3E0FF120089900353
:100D1300E0E0FBA3E0FAA3E0F990000C12072AE954
:100D23002414F9E43AFAC003C002C0011206C090C9
:100D330003E0E0FBA3E0FAA3E0F990000C12076ED6
:100D430012008DD001D002D0031207109003E0E00F
:100D5300FBA3E0FAA3E0F99000141206E0E4FBFA27
:100D630079A0784012032450159003E0E0FBA3E040
:100D7300FAA3E0F99000141207DB40A000009003EF
:100D8300E0E0FBA3E0FAA3E0F99000141206E0E42C
:100D9300FBFA79A078C0120324601740159003E092
:100DA300E0FBA3E0FAA3E0F99000141207DBC0A074
:100DB30000009003E0E0FBA3E0FAA3E0F990001445
:100DC3001206E090000412076E12017EC004C005F3
:100DD300C006C0079003E0E0FBA3E0FAA3E0F990AC
:100DE300000C1206E012074E12017ED003D002D08F
:100DF30001D00012008DC004C005C006C0079003D7
:100E0300E0E0FBA3E0FAA3E0F990001012076EC044
:100E130000C001C002C0039003E0E0FBA3E0FAA31B
:100E2300E0F990000C1206E0D003D002D001D0000C
:100E33001200899003E0E0FBA3E0FAA3E0F990003D
:100E43000812076E12017ED003D002D001D0001227
:100E5300008D9003E0E0FBA3E0FAA3E0F99000200B
:100E630012072A9000181206E090002012076E1253
:100E7300032460054003020FBB9003E0E0FBA3E003
:100E8300FAA3E0F990001C1206E090002012076E0E
:100E93001203244003020FFE020FE79003D7E0641E
:100EA300016003020FFE9003E0E0FBA3E0FAA3E07E
:100EB300F990000C1206E090001012072A9003D854
:100EC300E0F8A3E0F9A3E0FAA3E0FBA3E0FCA3E0CE
:100ED300FDA3E0FEA3E0FF1200899003E0E0FBA383
:100EE300E0FAA3E0F990000C12072AE92420F9E4C0
:100EF3003AFAC003C002C0011206C0C004C005C054
:100F030006C0079003E0E0FBA3E0FAA3E0F990003A
:100F13001012076EC000C001C002C0039003E0E0DE
:100F2300FBA3E0FAA3E0F990000C1206E0D003D093
:100F330002D001D0001200899003E0E0FBA3E0FAA5
:100F4300A3E0F912074E12017EC004C005C006C01B
:100F5300079003E0E0FBA3E0FAA3E0F990000C1292
:100F630006E090000412076E12017EA804A905AAE8
:100F730006AB07D007D006D005D00412008DA80415
:100F8300A905AA06AB07D007D006D005D0041200E6
:100F93008DD001D002D0031207109003E0E0FBA331
:100FA300E0FAA3E0F99000181206E090002012077F
:100FB3006E120324601240109003E0E0FBA3E0FAFA
:100FC300A3E0F9900018802A9003E0E0FBA3E0FA85
:100FD300A3E0F990001C1206E090002012076E12A5
:100FE300032450179003E0E0FBA3E0FAA3E0F99099
:0C0FF300001C1206E090002012072A22C9
:10277F00E490040DF0A304F0A3F0E4A3F0A304F09D
:10278F00A374A2F0A37440F0A37401F0FB7A047950
:06279F000DE4FF021966C3
:101363004903E30000000000464350004903EC003A
:081373004313800042C8000092
:0E0FFF009003D7EFF0A3EBF0A3EAF0A3E9F024
:10100D00A31207AA000000009003DF1207AA000038
:10101D0000009003D8E0FBA3E0FAA3E0F9900005EF
:10102D0012076E7F007E1B7DB77C491202879003ED
:10103D00DB12079E9003D8E0FBA3E0FAA3E0F99042
:10104D00000112076EE4FFFE7D7A7C44120089E4F4
:10105D00FBFA797A78441202879003DF12079E75A6
:10106D00BA8090FFF2740FF09003DBE0FCA3E0FD7B
:10107D00A3E0FEA3E0FF1203EC90FFF0EEF0A3EF70
:10108D00F09003D7E0B4080040030212F59010A1D0
:10109D00F82828730210B9021101021149021191A9
:1010AD000211D90212210212690212B090FF00E45E
:1010BD00F0A3F09003DFE0FCA3E0FDA3E0FEA3E0CE
:1010CD00FF9003DBE0F8A3E0F9A3E0FAA3E0FB1245
:1010DD00017E1203EC90FF02EEF0A3EFF09003D827
:1010ED00E0FBA3E0FAA3E0F912046D448090FF0445
:1010FD00F00212F590FF10E4F0A3F09003DFE0FC96
:10110D00A3E0FDA3E0FEA3E0FF9003DBE0F8A3E086
:10111D00F9A3E0FAA3E0FB12017E1203EC90FF129B
:10112D00EEF0A3EFF09003D8E0FBA3E0FAA3E0F913
:10113D0012046D448090FF14F00212F590FF20E42C
:10114D00F0A3F09003DFE0FCA3E0FDA3E0FEA3E03D
:10115D00FF9003DBE0F8A3E0F9A3E0FAA3E0FB12B4
:10116D00017E1203EC90FF22EEF0A3EFF09003D876
:10117D00E0FBA3E0FAA3E0F912046D448090FF2494
:10118D00F00212F590FF30E4F0A3F09003DFE0FCE5
:10119D00A3E0FDA3E0FEA3E0FF9003DBE0F8A3E0F6
:1011AD00F9A3E0FAA3E0FB12017E1203EC90FF32EB
:1011BD00EEF0A3EFF09003D8E0FBA3E0FAA3E0F983
:1011CD0012046D448090FF34F00212F590FF40E45C
:1011DD00F0A3F09003DFE0FCA3E0FDA3E0FEA3E0AD
:1011ED00FF9003DBE0F8A3E0F9A3E0FAA3E0FB1224
:1011FD00017E1203EC90FF42EEF0A3EFF09003D8C6
:10120D00E0FBA3E0FAA3E0F912046D448090FF44E3
:10121D00F00212F590FF50E4F0A3F09003DFE0FC34
:10122D00A3E0FDA3E0FEA3E0FF9003DBE0F8A3E065
:10123D00F9A3E0FAA3E0FB12017E1203EC90FF523A
:10124D00EEF0A3EFF09003D8E0FBA3E0FAA3E0F9F2
:10125D0012046D448090FF54F00212F590FF60E48B
:10126D00F0A3F09003DFE0FCA3E0FDA3E0FEA3E01C
:10127D00FF9003DBE0F8A3E0F9A3E0FAA3E0FB1293
:10128D00017E1203EC90FF62EEF0A3EFF09003D815
:10129D00E0FBA3E0FAA3E0F912046D448090FF6433
:1012AD00F0804590FF70E4F0A3F09003DFE0FCA325
:1012BD00E0FDA3E0FEA3E0FF9003DBE0F8A3E0F97F
:1012CD00A3E0FAA3E0FB12017E1203EC90FF72EE95
:1012DD00F0A3EFF09003D8E0FBA3E0FAA3E0F9123E
:0E12ED00046D448090FF74F0E4F5BA75FE8045
:0112FB0022D0
:101C5300E49003D7F0FFFEA3F012292C7FA01228F3
:101C6300D27F3D1228D212292C7FA11228D212280A
:101C7300F49003D7EFF01229121228F49003D8EF4F
:101C8300F012290312293E9003D8E0FE9003D7E017
:101C9300FDEDFFAC06EC1203B3E4FBFAF97847124F
:101CA3000287E4FBFA7934784312017E9003F5123C
:101CB300079E12292C7FA01228D27F3E1228D2120F
:101CC300292C7FA11228D21228F49003D7EFF01207
:101CD30029121228F49003D8EFF012290312293E97
:101CE3009003D8E0FE9003D7E0FDEDFFAC06EC12C5
:101CF30003B3E4FBFAF97847120287E4FBFA793479
:101D0300784312017E9003F912079E12292C7FA0BB
:101D13001228D27F3F1228D212292C7FA11228D257
:101D23001228F49003D7EFF01229121228F490032B
:101D3300D8EFF012290312293E9003D8E0FE900356
:101D4300D7E0FDEDFFAC06EC1203B3E4FBFAF97840
:101D530047120287E4FBFA7934784312017E900339
:041D6300FD02079ED8
:1027A500E4900415F0A304F0A3F0E4A3F0A304F06F
:1027B500A374A2F0A37440F0A37401F0FB7A04792A
:0527C50015FF0219667A
:03002B0002000EC2
:04000E0053BCDF32CE
:10258100D2AFE4F59212046D4291900001120486DB
:10259100FFE5BC549F4FF5BC900002120486640114
:1025A100700543BC80800353BC7F900003120486F6
:1025B1006401700543DE20800353DEDF90000512C5
:1025C100048664017004D2AD8002C2AD9000041291
:0C25D100048664017003D2BD22C2BD224A
:0D004600EF6401700443BC802253BC7F2294
:10230100EFD39407748094804002807BE4F5BDF59F
:10231100BEE5BC54E044404FF5BC0000E4FDEDC314
:1023210094FA74809480505FE5BC20E55753BCDF7C
:10233100E5DE30E51FE5BD540FFF90043EE4F0A358
:10234100EFF0E0FEACBEECFBEBFF90043EEEF0A341
:10235100EFF08027AFBDEF90043EF0A3E4F0AFBEF5
:1023610090043EE0F0A3E04FF090043EE0C4F85446
:10237100F0C868F0A3E0C4540F48F090043EE0FEBA
:0B238100A3E0FF220D80977E047F0088
:01238C00222E
:10137B00622801000000000000000000002F0000A8
:10138B0000000700070000147F147F1400242A7F3D
:10139B002A120062640813230036495522500000BC
:1013AB000503000000001C224100000041221C002C
:1013BB000014083E08140008083E0808000000A0AE
:1013CB0060000008080808080000606000000020AA
:1013DB0010080402003E5149453E0000427F400088
:1013EB00004261514946002141454B31001814120E
:1013FB007F10002745454539003C4A4949300001DB
:10140B007109050300364949493600064949291E29
:10141B00000036360000000056360000000814228B
:10142B00410000141414141400004122140800028B
:10143B000151090600324959513E007C1211127CB0
:10144B00007F49494936003E41414122007F4141DD
:10145B00221C007F49494941007F09090901003ECF
:10146B004149497A007F0808087F0000417F41000D
:10147B00002040413F01007F08142241007F404083
:10148B004040007F020C027F007F0408107F003E6B
:10149B004141413E007F09090906003E4151215E51
:1014AB00007F091929460046494949310001017F4E
:1014BB000101003F4040403F001F2040201F003FE4
:1014CB004038403F00631408146300070870080796
:1014DB0000615149454300007F41410000552A55A9
:1014EB002A55000041417F00000402010204004024
:1014FB004040404000000102040000205454547846
:10150B00007F484444380038444444200038444465
:10151B00487F00385454541800087E090102001803
:10152B00A4A4A47C007F080404780000447D400040
:10153B00004080847D00007F102844000000417F24
:10154B004000007C04180478007C08040478003800
:10155B004444443800FC242424180018242418FC88
:10156B00007C0804040800485454542000043F44F1
:10157B004020003C4040207C001C2040201C003CB4
:10158B004030403C004428102844001CA0A0A07C04
:0C159B00004464544C4414141414141440
:06294700D2B27F027E0007
:03294D0002283429
:10288000122947D2B3122949C2B3122949C2B27FD1
:06289000027E0002294D4A
:10289600C2B2122949C2B3122949122947D2B37FBB
:0628A600027E0002294D34
:05251E00900440EFF005
:10252300E4A3F0900441E0C3940874809480503392
:10253300900440E030E704D2B38002C2B37F017E4F
:102543000012294DD2B27F017E0012294DC2B27F03
:10255300017E0012294D900440E025E0F0A3E00441
:10256300F080C0D2B37F017E0012294DD2B27F0129
:0E2573007E0012294DC2B27F017E0002294D6A
:10006600900447EFF01228807F7812251E7F4012F9
:0D007600251E900447E0FF12251E0228966B
:04281300EF24B0FFFF
:10281700900448EFF01228807F7812251EE4FF12FB
:0D282700251E900448E0FF12251E02289691
:1027CA00900449EFF0ED24B0FF122817900449E075
:1027DA0054F0C4540F4410FF122817900449E054CF
:0527EA000FFF0228179B
:05263600900436EFF0F6
:10263B00E4A3F0900437E0FFC394087480948050B7
:10264B00371228137F011228177F10122817E490D6
:10265B000438F0900438E0C3948474809480501054
:10266B00900436E0FF120066900438E004F080E33B
:08267B00900437E004F080BB7D
:012683002234
:10268400E4900442F0900442E0FFC3940874809400
:102694008050341228137F011228177F1012281734
:1026A400E4900443F0900443E0C3948474809480E1
:1026B400500DE4FF120066900443E004F080E690BD
:0726C4000442E004F080BEB7
:0126CB0022EC
:101D6700E4900444F0A37408F07B017A0479447F7B
:101D7700021215A87B017A0479447F031215A87B08
:101D8700017A0479447F041215A8D2B2C2B47FF451
:101D97007E01122834D2B47FAE122817E4FF12282E
:101DA700177F101228177F401228177F81122817D4
:101DB7007FCF1228177FA11228177FC81228177FF5
:101DC700A61228177FA81228177F3F1228177FD33C
:101DD700122817E4FF1228177FD51228177F8012C1
:101DE70028177FD91228177FF11228177FDA1228B0
:101DF700177F121228177FDB1228177F4012281728
:101E07007F201228177F021228177F8D1228177F2D
:101E1700141228177FA41228177FA61228177FAF3E
:0E1E2700122817E4FF122636E4FDFF0227CA38
:0A25DD0090043AEDF0900439EFF09D
:1025E700A3E0FE131313541FFD1227CA90043AE009
:1025F700FF5407FEF87401088002C333D8FC900427
:102607003BF0EF131313541F24B0FF122817900445
:1026170039E054F0C4540F4410FF122817900439BE
:0F262700E0540FFF12281790043BE0FF020066FB
:1021D30090041DEFF0A3EDF0A3EBF0A3EAF0A3E965
:0121E300F00B
:1021E400E4A3F0A3F0A3F090041FE0FBA3E0FAA3A0
:1021F400E0F9900424E0F58275830012048660708F
:1022040024E0900422F090041DE0D3947E74809422
:10221400804006E4F0A3E004F090041DE0FFA3E096
:10222400FD1227CAE4900423F0900423E0FFC39432
:1022340006748094805029900422E075F006A4244A
:1022440000F582E5F03401F583E5822FF582E4356B
:1022540083F583E0FF120066900423E004F080C954
:1022640090041DE02406F0900424E004F00221EB25
:012274002247
:081EFD00900425EFF0A3EDF0C5
:101F0500E490042CF0FC7D0AAF03AE021204E7ED69
:101F1500243090042BF07C007D0AAF03AE0212043E
:101F2500E77C007D0A1204E7ED243090042AF07C5A
:101F3500007D64AF03AE021204E77C007D0A120443
:101F4500E7ED2430900429F07C037DE8AF03AE0271
:101F55001204E77C007D0A1204E7ED243090042882
:101F6500F0AE02AF037C277D101204E77C007D0AEA
:101F75001204E7ED2430900427F0E4FFEFC3940446
:101F850074809480501E74272FF582E43404F58301
:101F9500E0B4301074272FF582E43404F5837420FF
:101FA500F00F80D8900425E0FFA3E0FD7B017A04C3
:051FB50079270221D391
:081B3200900401EFF0A3EDF0B7
:101B3A00E490040CF0900403E0FCA3E0FDA3E0FEB3
:101B4A00A3E0FFE4FBFA7920784112017E900403B6
:101B5A0012079EE4FFFEFDFC900403E0F8A3E0F9FF
:101B6A00A3E0FAA3E0FB12032490040760074005F0
:101B7A00742BF0801A742DF0900403E0FCA3E0FDAE
:101B8A00A3E0FEA3E0FF12039D90040312079E90B8
:101B9A000403E0FCA3E0FDA3E0FEA3E0FF1203ECD4
:101BAA00AB07AA067C007D0A12053CED243090049E
:101BBA000BF07C007D0AAF03AE0212053C7C007D6F
:101BCA000A12053CED243090040AF0900403E0FC6C
:101BDA00A3E0FDA3E0FEA3E0FF1203ECAB07AA0615
:101BEA007C007D6412053C7C007D0A12053CED24D4
:101BFA0030900409F07C037DE8AF03AE0212053C85
:101C0A007C007D0A12053CED2430900408F0E4FFC4
:101C1A00EFC3940474809480501E74072FF582E4F5
:101C2A003404F583E0B4301074072FF582E43404E9
:101C3A00F5837420F00F80D8900401E0FFA3E0FD43
:091C4A007B017A0479070221D321
:10008600020458E86480F8E933E83360110460F04C
:10009600ED33EC337009E8FCE9FDEAFEEBFF2204E0
:1000A60060DED3EB9FEA9EE99DE8C2E78CF0C2F7DB
:1000B60095F0400CE8CCF8E9CDF9EACEFAEBCFFBA7
:1000C60012042385D0F05804700320D5B3E80470D9
:1000D600075002B2D502046292D5EC0460F7E4CC74
:1000E600C0E0C398F8603B94186008400DD0E0FB70
:1000F60002043AE4FBFAC9FC8028E830E406E4C9C5
:10010600FBE4CAFCE830E305E4C9CACBFCE85407C3
:100116006010F8C3E913F9EA13FAEB13FBEC13FCCE
:10012600D8F130F52FC3E49CFCEF9BFFEE9AFEED71
:1001360099FDD0E0FBEF4E4D4C701222DB0302041A
:100146005FEC2CFCEF33FFEE33FEED33FDED30E7D5
:10015600EB02043AEF2BFFEE3AFEED39FDD0E0FB61
:1001660050130BBB0003020462ED13FDEE13FEEF0A
:0801760013FFEC13FC02043A34
:10017E00EC4D6011E8497017ED33EC3304600DE47B
:10018E00FCFFFEFD22E933E8330470F80204581236
:10019E00042358046009E4CC248150062850090237
:1001AE00046228400302045FC0E0EB4A7044B98049
:1001BE0006D0E0FB02044EEF4E701CBD8008EBFF34
:1001CE00EAFEE9FD80EBE98DF0A4FEE5F0020267A0
:1001DE00E9CDF9EAFEEBFFEF89F0A4FCE5F0CE895C
:1001EE00F0A42EFFE435F0CD89F0A42DFEE435F019
:1001FE008067EF4E7005BD80D780C3EF8BF0A4AC47
:10020E00F0EE8BF0A42CFCE435F0F8EF8AF0A42C81
:10021E00E5F038FCE433CB8DF0A42CFCE5F03BF894
:10022E00EE8AF0A42CFCE5F038F8E433CF89F0A484
:10023E002CFCE5F038CF3400CE89F0A42FFFE5F08A
:10024E003EFEE433C98DF0A42EFEE5F039CD8AF0E2
:10025E00A42FFFE5F03EFEE43DFD33D0E0FB50075A
:10026E000BBB000F020462EC2CFCEF33FFEE33FEEF
:06027E00ED33FD02043A1D
:10028400020462EC5D046005E8590470030204583A
:10029400120423580460F6EC4860F2EC7004FDFE8E
:1002A400FF22C860DB2481C85009C398600250064D
:1002B40002045F9850CAF582E9294B4A7005AB8263
:1002C40002044E75F0007C1A7880C3EF9BEE9AED21
:1002D40099400DC3EF9BFFEE9AFEED99FDE842F0C5
:1002E400DC23ACF0D0E0FFD0E0FED0E0FDAB822018
:1002F400E7101BEB60BAEC2CFCEF33FFEE33FEEDA2
:1003040033FD02043AE803F830E705C0F075F00065
:10031400EF2FFFEE33FEED33FD40B830E7C280AA85
:1003240074F8CC6480CCC86480C8F58204604FC380
:10033400EB9FF5F0EA9E42F0E99D42F0E89C45F01F
:10034400603C501DE5825FFFE582D313CB5BCBF4A9
:100354002B5582FB50280ABA002409B900200880D2
:100364001DE5825BFBE582D313CF5FCFF4C3132F6C
:100374005582FF50090EBE00050DBD00010CC3EBF4
:100384009FF5F0EA9E42F0E99D42F0E89C45F0605A
:0903940007CC4820E701B3EC227C
:10039D00ED33EC33600A047003BD8004ECB2E7FC6E
:0103AD00222D
:1003AE0075F020800E75F010800575F0087D007ECA
:1003BE00007F003392D530D50312068EEC334010F9
:1003CE00EF33FFEE33FEED33FDEC33FCD5F0ED22D3
:0E03DE00E5F0247EA2D513CC92E7CDCEFF220F
:1003EC00EDD2E7CD33EC3392D524814006E4FFFE09
:1003FC00FDFC22FCE4CFCECDCC24E0501174FF8068
:10040C00EDC3CC13CCCD13CDCE13CECF13CF047004
:07041C00F030D5DE02068E70
:10042300E9D2E7C933E833F892D5EDD2E7CD33EC1F
:0704330033FC5002B2D52298
:10043A00EC30E7100FBF000C0EBE00080DBD000423
:10044A000BEB6014A2D5EB13FCED92E7FD2274FFCF
:10045A00FCFDFEFF22E480F8A2D574FF13FC7D8028
:03046A00E480EF3C
:10228100022071E493A3F8E493A34003F68001F2E2
:1022910008DFF48029E493A3F85407240CC8C3335E
:1022A100C4540F4420C8834004F456800146F6DF2D
:1022B100E4800B01020408102040809012FCE47EAF
:1022C100019360BCA3FF543F30E509541FFEE49322
:1022D100A360010ECF54C025E060A840B8E493A3E9
:1022E100FAE493A3F8E493A3C8C582C8CAC583CA14
:1022F100F0A3C8C582C8CAC583CADFE9DEE780BECC
:0115A7000043
:10046D00BB010689828A83E0225002E722BBFE028D
:09047D00E32289828A83E49322C0
:10048600BB010CE58229F582E5833AF583E022502B
:1004960006E92582F8E622BBFE06E92582F8E22275
:0D04A600E58229F582E5833AF583E493228F
:1004B300BB010689828A83F0225002F722BBFE0128
:0204C300F32222
:1004C500F8BB010DE58229F582E5833AF583E8F06D
:1004D500225006E92582C8F622BBFE05E92582C819
:0204E500F22201
:1004E700BC000BBE0029EF8DF084FFADF022E4CCF9
:1004F700F875F008EF2FFFEE33FEEC33FCEE9DECC2
:10050700984005FCEE9DFE0FD5F0E9E4CEFD22ED07
:10051700F8F5F0EE8420D21CFEADF075F008EF2F51
:10052700FFED33FD4007985006D5F0F222C398FD42
:050537000FD5F0EA22DF
:10053C00C2D5EC30E709B2D5E4C39DFDE49CFCEEDA
:10054C0030E715B2D5E4C39FFFE49EFE1204E7C367
:10055C00E49DFDE49CFC80031204E730D507C3E462
:06056C009FFFE49EFE2249
:10057200C5F0F8A3E028F0C5F0F8E5821582700214
:060582001583E038F022B1
:10058800BB0110E58229F582E5833AF583E0F5F0B1
:10059800A3E0225009E92582F886F008E622BBFE8E
:1005A8000AE92582F8E2F5F008E222E5832AF583D4
:0805B800E993F5F0A3E9932299
:1005C00075F008758200EF2FFFEE33FECD33CDCCF2
:1005D00033CCC58233C5829BED9AEC99E582984075
:1005E0000CF582EE9BFEED9AFDEC99FC0FD5F0D652
:1005F000E4CEFBE4CDFAE4CCF9A88222B800C1B97C
:100600000059BA002DEC8BF084CFCECDFCE5F0CBB9
:10061000F97818EF2FFFEE33FEED33FDEC33FCEBF2
:1006200033FB10D703994004EB99FB0FD8E5E4F9AD
:10063000FA227818EF2FFFEE33FEED33FDEC33FC9A
:10064000C933C910D7059BE99A4007EC9BFCE99A8E
:10065000F90FD8E0E4C9FAE4CCFB2275F010EF2FD3
:10066000FFEE33FEED33FDCC33CCC833C810D707D3
:100670009BEC9AE899400AED9BFDEC9AFCE899F80E
:0E0680000FD5F0DAE4CDFBE4CCFAE4C8F922A1
:0E068E00C3E49FFFE49EFEE49DFDE49CFC227D
:10069C00EB9FF5F0EA9E42F0E99D42F0E89C45F0B4
:0106AC00222B
:1006AD00E8600FECC313FCED13FDEE13FEEF13FF2B
:0306BD00D8F1224F
:1006C000BB010789828A8302080B5005E9F80207FB
:1006D000FFBBFE05E9F802081789828A8302082316
:1006E000BB010DE58229F582E5833AF58302080B0B
:1006F0005007E92582F80207FFBBFE07E92582F8CB
:10070000020817E58229F582E5833AF5830208237A
:10071000BB010789828A8302079E5005E9F8020817
:0A07200069BBFE05E9F80208752226
:10072A00BB010DE58229F582E5833AF58302079E2E
:10073A005007E92582F8020869BBFE07E92582F815
:04074A00020875220A
:10074E00BB010789828A830208405005E9F8020836
:10075E0033BBFE05E9F802084C89828A83020859E8
:10076E00BB010DE58229F582E5833AF58302084047
:10077E005007E92582F8020833BBFE07E92582F807
:10078E0002084CE58229F582E5833AF58302085981
:0C079E00ECF0A3EDF0A3EEF0A3EFF022CE
:1007AA00A8828583F0D083D0821207C11207C112B2
:1007BA0007C11207C1E473E493A3C583C5F0C583D7
:1007CA00C8C582C8F0A3C583C5F0C583C8C582C899
:0107DA0022FC
:1007DB00BB010DE58229F582E5833AF5830207AA71
:1007EB005007E92582F8020881BBFE07E92582F84C
:0407FB0002089A2234
:0C07FF00E6FC08E6FD08E6FE08E6FF2226
:0C080B00E0FCA3E0FDA3E0FEA3E0FF2260
:0C081700E2FC08E2FD08E2FE08E2FF221D
:10082300E493FC740193FD740293FE740393FF221B
:0D083300E6FB08E6F908E6FA08E6CBF82235
:0C084000E0F8A3E0F9A3E0FAA3E0FB223B
:0D084C00E2FB08E2F908E2FA08E2CBF8222C
:10085900E493F8740193F9740293FA740393FB22F5
:0C086900ECF608EDF608EEF608EFF622BB
:0C087500ECF208EDF208EEF208EFF222BF
:10088100D083D082E493F608740193F6087402933E
:09089100F608740393F674047375
:10089A00D083D082E493F208740193F2087402932D
:0908AA00F208740393F274047364
:00000001FF
