:03000000022C2DA2
:0C2C2D00787FE4F6D8FD758120022C743D
:01000A0022D3
:10322B00E4FDFCC3ED9FEC9E50100079207B28DB66
:0A323B00FED9FC0DBD00010C80E976
:013245002266
:10326100E4FDFCC3ED9FEC9E500B7B06DBFE0DBD28
:0532710000010C80EEDD
:013276002235
:101E7300EFD394057480948040037F01221205639D
:101E8300FED394037480948040037F0222EF704456
:101E9300EE700B90000112057CF4529352941205DC
:101EA300636401700B90000112057C4293F4529419
:101EB300120563FE6402700A90000112057C4293CE
:101EC3004294EE6403700D90000112057CFEF452FF
:101ED30093EE4294EF64017046120563FE700B901B
:101EE300000112057CF452915292EE6401700B9042
:101EF300000112057C4291F4529212056364027050
:101F03000A90000112057C42914292120563640318
:101F1300700D90000112057CFEF45291EE4292EF97
:101F230064027046120563FE700B90000112057C7B
:101F3300F452955296EE6401700B90000112057CE9
:101F43004295F452961205636402700A90000112DE
:101F5300057C429542961205636403700D9000015F
:101F630012057CFEF45295EE4296EF64037046121E
:101F73000563FE700B90000112057CF452B152B25E
:101F8300EE6401700B90000112057C42B1F452B271
:101F93001205636402700A90000112057C42B1428B
:101FA300B21205636403700D90000112057CFEF408
:101FB30052B1EE42B2EF64047046120563FE700B39
:101FC30090000112057CF452B352B4EE6401700B1D
:101FD30090000112057C42B3F452B412056364020B
:101FE300700A90000112057C42B342B41205636487
:101FF30003700D90000112057CFEF452B3EE42B45F
:10200300EF64057049120563FF7E00700B900001B9
:1020130012057CF452C952CAEF64014E700B900052
:102023000112057C42C9F452CA1205636402700AA4
:1020330090000112057C42C942CA12056364037011
:102043000D90000112057CFFF452C9EF42CA7F00D4
:01205300226A
:10308400EFFD7C00700F75BA8090FE8074E0F090C4
:10309400FE82E4F022ED64014C701875BA8090FE53
:1030A400807481F090FE85745AF090FE84E4F09070
:0430B400FE83F02285
:102D4500D200D201E49004D1F0E02400F8E290FE34
:102D550086F090FE84E030E605E054BFF02290FE58
:102D650084E030E52DE054DFF0300003C20022306E
:102D7500010DC20190FE87E09004D1F0E0802F9014
:102D8500FE87E0FF9004D1E0FE04F074002EF8EF1A
:102D9500F22290FE84E030E41EE054EFF0E030E1F2
:102DA5000790FE8674FFF0229004D1E004F0240021
:102DB500F8E290FE86F02290FE84E030E308E054CD
:072DC500F7F0D200D2012259
:0C33170090FE82E030E6F9E054BFF022A6
:0933230090FE817401F0023317E1
:1032C90090FE86EFF090FE817402F01233170233FC
:0132D9002CC8
:09332C0090FE817403F0023317D6
:0F32EB0090FE817404F012331790FE87E0FF22EB
:0E33090090FE82E4F090FE817405F00233170E
:0F32FA0090FE827401F090FE817405F00233178C
:0933350090FE817406F0023317CA
:1032A300E4FFFE000000000FBF00010EBE0BF4BFE1
:0232B300B8F170
:0132B50022F6
:1032DA00E59A30E103539AFDE59A30E003539AFEEA
:0132EA0022C1
:03002300022DCCDF
:102DCC00C0E0C083C082C0D075D000C006C0073040
:102DDC009831C298900376E07029900374E0C39404
:102DEC000B748094804002E4F0900374E0FF04F0D4
:102DFC00747E2FF582E43403F583E599F090037526
:102E0C007405F0309934C299900372E0FF9003710D
:102E1C00E0FE6F602074942EF582E43403F583E0B9
:102E2C00F599900371E004F0C3940B748094804086
:102E3C0009E4F08005900373E4F0D007D006D0D0FD
:072E4C00D082D083D0E032F8
:03004300022E5337
:102E5300C0E0C083C082C0D075D000C006C00712D6
:102E630032DA90037DE0702990037BE0C3940B7406
:102E73008094804002E4F090037BE0FF04F07489C7
:102E83002FF582E43403F583E59BF090037C74050E
:102E9300F01232DA900379E0FF900378E0FE6F607E
:102EA30020749F2EF582E43403F583E0F59B9003B1
:102EB30078E004F0C3940B748094804009E4F080BC
:102EC3000590037AE4F0D007D006D0D0D082D08327
:032ED300D0E0321A
:1009BB0090047EEBF0A3EAF0A3E9F090047DEFF056
:1009CB00D2AF64016003020C3290037004F0E4A315
:1009DB00F0A3F0A3F0A3F0A3F0A3F0900481F090A8
:1009EB000481E0FFC3940B74809480501474942F93
:1009FB00F582E43403F583E4F0900481E004F080A5
:100A0B00DEE4900481F0900481E0FFC3940B7480CA
:100A1B0094805014747E2FF582E43403F583E4F054
:100A2B00900481E004F080DE90047EE0FBA3E0FA0A
:100A3B00A3E0F9120563FD7C00D394C0748094800D
:100A4B0040037F022290000A12057C64017004D2DD
:100A5B00BC8002C2BC120563FFE598543F4FF5986A
:100A6B00ED64C04C6008EF64406003020B5D9000C6
:100A7B00021208767F807E8D7D5B7C0012070490CE
:100A8B0004821208A6E4FFFE7D01FC900482E0F8CC
:100A9B00A3E0F9A3E0FAA3E0FBC31207A440037F92
:100AAB000222900482E0F8A3E0F9A3E0FAA3E0FBB2
:100ABB00C3E49BFFE49AFE740199FDE498FC900457
:100ACB00821208A690047EE0FBA3E0FAA3E0F99063
:100ADB00000112057CFB7A0064017038C28E538EC4
:100AEB00FE5389BF5389CF438E40900482E0FCA311
:100AFB00E0FDA3E0FEA3E0FF78081207B58F8D9011
:100B0B000482A3A3A3E0F58BC2AB5389BF538FFD24
:100B1B00D28E807DEB64024A7035538EEF438E018B
:100B2B00538EF7438E04900482E0FCA3E0FDA3E018
:100B3B00FEA3E0FF78081207B58FD6900482A3A31B
:100B4B00A3E0F5D753AFFB538EF7438E1080427F54
:100B5B00022290047EE0FBA3E0FAA3E0F912056306
:100B6B00FF7E00701490000812057C640170054331
:100B7B008E20801D538EDF8018EF64804E70129094
:100B8B00000812057C64017005438780800353873E
:100B9B007F90047EE0FBA3E0FAA3E0F9900009123A
:100BAB00057C64017004D2AC8002C2AC90000712C9
:100BBB00057C64017004D29C8002C29C90000B12D5
:040BCB00057C700A2B
:080BCF009004867403F0A314E6
:100BD700802F90047EE0FBA3E0FAA3E0F990000BDE
:0A0BE70012057C64809004867011F2
:0F0BF1007403F0A37480F07B017A0479867F018E
:020C0000800F63
:100C02007403F0A37480F07B017A0479867F031267
:020C12001E734F
:100C140090047EE0FBA3E0FAA3E0F990000B120538
:100C24007C54C0FFE5A2543F4FF5A27F00229004FC
:100C34007DE064026003020DD89003777402F0E44F
:100C4400A3F0A3F0A3F0A3F0A3F0A3F0900481F029
:100C5400900481E0FFC3940B748094805014749FBB
:100C64002FF582E43403F583E4F0900481E004F08A
:100C740080DEE4900481F0900481E0FFC3940B745F
:100C8400809480501474892FF582E43403F583E44E
:100C9400F0900481E004F080DE90047EE0FBA3E0A9
:100CA400FAA3E0F9120563FF64C06008EF644060D2
:100CB40003020D5E90000A12057C6401700543B5C1
:100CC40001800353B5FE12056364C07005439A8026
:100CD4008003539A7F9000021208767F807E8D7D78
:100CE4005B7C001207049004821208A6E4FFFE7DD8
:100CF40001FC900482E0F8A3E0F9A3E0FAA3E0FB8E
:100D0400C31207A440037F0222900482E0F8A3E008
:100D1400F9A3E0FAA3E0FBC3E49BFFE49AFE7401A9
:100D240099FDE498FC9004821208A6538EEF538E2A
:100D3400F7438E04900482E0FCA3E0FDA3E0FEA34D
:100D4400E0FF78081207B58FD6900482A3A3A3E02E
:100D5400F5D753AFFB438E1080037F022290047EAD
:100D6400E0FBA3E0FAA3E0F990000912057C64011A
:100D7400700543AF01800353AFFE90000712057C5A
:100D840064017005439A108003539AEF90000B128C
:070D9400057C90048670103D
:0E0D9B007403F0A314F07B017A0479867F01C3
:020DA900800FB9
:100DAB007403F0A37480F07B017A0479867F0412BC
:020DBB001E73A5
:100DBD0090047EE0FBA3E0FAA3E0F990000B12058E
:0D0DCD007C5401FFE5BA54FE4FF5BA7F00DB
:010DDA0022F6
:103110009004D2EFF0900373E0701304F09004D2A7
:10312000E0F5993099FDC299E4900373F0227F0590
:073130007E0012326180DE17
:1030B800900379E0249FF582E43403F583EFF090E0
:1030C8000379E004F0C3940B748094804002E4F028
:0C30D80090037AE0700504F01232DA2256
:1030E4009004B8EBF0A3EAF0A3E9F09004B8E0FB95
:1030F400A3E0FAA3E0F9120563FF600F1231109008
:0C31040004B9E475F00112067A80E022A4
:1032B600120563FF600C1230B8740129F9E43AFA7A
:0332C60080EE2275
:073347003098FDC298AF9918
:01334E00225C
:05334F001232DAAF9B11
:013354002256
:1020540090043DEBF0A3EAF0A3E9F090043BEEF02A
:03206400A3EFF0F7
:10206700E4900440F0A3F0C3EE64809480501EE433
:10207700900444F0A3F090043BE0FEA3E0FFC3E428
:102087009FFFE49E90043BF0A3EFF0800890044488
:10209700E4F0A304F090043BE0FEA3E0FF7C007DA6
:1020A7000A120644EF4E604B90043BE0FAA3E0FBB4
:1020B7007C007D0AFFAE02120644ED2430FF900437
:1020C70040E0FCA3E02446F58274043CF583EFF07E
:1020D7007C007D0AAF03AE0212064490043BEEF08B
:1020E700A3EFF0900441E004F070AA900440E004EC
:1020F700F080A290043BA3E02430FF900440E0FC72
:10210700A3E02446F58274043CF583EFF090044481
:10211700E07002A3E060030221AD90043DE0FBA361
:10212700E0FAA3E0F9742D1205A9900440E0FFA39B
:10213700E0A3CFF0A3EFF0900442E0FEA3E0FFD3CB
:1021470094FFEE6480947F404A74462FF5827404AE
:102157003EF583E0FF900442E0FCA3E0FDC390045A
:1021670041E09DFD900440E09CCD2401CD3400FC6E
:1021770090043DE0FBA3E0FAA3E0F98D828C83EFA6
:102187001205BB900443E024FFF0900442E034FFC3
:10219700F080A490043DE0FBA3E0FAA3E0F99004EB
:1021A70041E024028074900440E0FFA3E0A3CFF055
:1021B700A3EFF0900442E0FEA3E0FFD394FFEE64A8
:1021C70080947F404474462FF58274043EF583E083
:1021D700FF900442E0FCA3E0FDC3900441E09DFDB5
:1021E700900440E09CFC90043DE0FBA3E0FAA3E0F0
:1021F700F98D828C83EF1205BB900443E024FFF036
:10220700900442E034FFF080AA90043DE0FBA3E095
:10221700FAA3E0F9900441E02401FF900440E03480
:09222700008F82F583E41205BB6F
:01223000228B
:1019BC009004621208A6900466EBF0A3EAF0A3E987
:0119CC00F02A
:1019CD00E4FFFEFDFC900462E0F8A3E0F9A3E0FA69
:1019DD00A3E0FB120324900466E0FBA3E0FAA3E06E
:1019ED00F94007742B1205A9801C742D1205A990BE
:1019FD000462E0FCA3E0FDA3E0FEA3E0FF12039D63
:101A0D009004621208A6900462E0FCA3E0FDA3E03E
:101A1D00FEA3E0FF1203EC90046BEEF0A3EFF0E4F5
:101A2D00A3F0A3F090046BE0FEA3E0FF4E601F7CDB
:101A3D00007D0A12064490046BEEF0A3EFF09004C3
:101A4D006EE004F070DE90046DE004F080D690043A
:101A5D0062E0FCA3E0FDA3E0FEA3E0FF1203EC9027
:101A6D00046BEEF0A3EFF0A3E0FFA3E0A3CFF0A390
:101A7D00EFF0D3900470E0940090046FE0648094D4
:101A8D0080405490046BE0FEA3E0FF7C007D0A12C1
:101A9D000644ED2430FF900466E0FBA3E0FAA3E0DA
:101AAD00F990046FE0FCA3E0F5828C83EF1205BB87
:101ABD0090046BE0FEA3E0FF7C007D0A12064490CB
:101ACD00046BEEF0A3EFF0900470E024FFF09004AF
:101ADD006FE034FFF0809B900466E0FBA3E0FAA377
:101AED00E0F990046EE02401FF90046DE034008F66
:101AFD0082F583742E1205BB900462E0FCA3E0FD19
:101B0D00A3E0FEA3E0FFC004C005C006C00790041B
:101B1D0062A3A3A3E01203ECAD07AC06EC1203B372
:101B2D00A804A905AA06AB07D007D006D005D00496
:101B3D001200899004621208A690046EE02402F04F
:101B4D0090046DE03400F090046AE024FFFF9004EF
:101B5D0069E034FFFEC390046EE09FEE6480F89060
:101B6D00046DE06480984003021C17900462E0FC51
:101B7D00A3E0FDA3E0FEA3E0FFE4FBFA79207841AA
:101B8D0012017E9004621208A6900462E0FCA3E0AC
:101B9D00FDA3E0FEA3E0FF1203ECEF2430FF900461
:101BAD0066E0FBA3E0FAA3E0F990046DE0FCA3E08E
:101BBD00F5828C83EF1205BB900462E0FCA3E0FD7F
:101BCD00A3E0FEA3E0FFC004C005C006C00790045B
:101BDD0062A3A3A3E01203ECAD07AC06EC1203B3B2
:101BED00A804A905AA06AB07D007D006D005D004D6
:101BFD001200899004621208A690046EE004F07041
:101C0D000690046DE004F0021B54900466E0FBA303
:101C1D00E0FAA3E0F990046AE024FFFF900469E084
:0A1C2D0034FF8F82F583E40205BB4B
:051404004204C70000D6
:0300030002324680
:10324600C0E0C083C0829004C8E004F07006900419
:0B325600C7E004F0D082D083D0E0324B
:0300130002000EDA
:01000E0032BF
:0300530002000F99
:01000F0032BE
:03005B0002001090
:0100100032BD
:0300830002001167
:0100110032BC
:1028A200EFD394107480948040037F0122D2AFEF63
:1028B200703090000212057C64017004D2A880027C
:1028C200C2A890000112057C64017004D2B8800293
:1028D200C2B812056364017004D2888002C2887F84
:1028E2000022EF6402703090000212057C640170D5
:1028F20004D2AA8002C2AA90000112057C6401706F
:1029020004D2BA8002C2BA12056364017004D28A88
:102912008002C28A7F0022EF640A701590000212C0
:10292200057C64017005438F108003538FEF7F0095
:1029320022EF640B701590000212057C6401700591
:10294200438F208003538FDF7F0022EF64107015C6
:1029520090000212057C64017005438F408003538E
:082962008FBF7F00227F0222DB
:0A1409004204B400004204B60000E3
:03000B00022ADEE8
:102ADE00C0E0C0F0C083C082C0D075D000C000C0BE
:102AEE0001C002C003C004C005C006C0079004B5F3
:102AFE00E004F070069004B4E004F09004B4E070CA
:102B0E0004A3E0640A705B9004C7E0FCA3E0FDEC54
:102B1E001203B390041A1208A690041E1208B243B0
:102B2E005200009004227401F0A37403F0A37428E1
:102B3E00F07F01120DDB900348E0FCA3E0FDA3E063
:102B4E00FEA3E0FF9004511208A67B017A0479508F
:102B5E00E4FF1211079004B4E4F0A3F09004C7F060
:102B6E00A3F0D007D006D005D004D003D002D001F8
:0D2B7E00D000D0D0D082D083D0F0D0E03293
:03001B00022A278F
:102A2700C0E0C0F0C083C082C0D075D000C000C075
:102A370001C002C003C004C005C006C0079004B7A8
:102A4700E004F070069004B6E004F09004B6E0707D
:102A570004A3E0643270651226C0900475E0FCA3FD
:102A6700E0FDA3E0FEA3E0FF90041A1208A690047D
:102A77001E1208B2000000009004227401F0A37433
:102A870003F0A3744CF0E4FF120DDB7F007E807D22
:102A9700137C4390036CE0F8A3E0F9A3E0FAA3E00A
:102AA700FB12008D90045A1208A67B017A0479590B
:102AB7007F011211079004B6E4F0A3F0D007D00607
:102AC700D005D004D003D002D001D000D0D0D0821E
:072AD700D083D0F0D0E03203
:0300630002001286
:0100120032BB
:10223100AD07EDD394027480948040037F0122D2D4
:10224100AFED60030222D9C28C90000212057C64BA
:10225100017004D2A98002C2A990000112057C6418
:10226100017004D2B98002C2B9120563FED394038E
:102271007480948040037F0222E58954FC4EF589E5
:1022810090000312057CFF7E0064017003538E7F72
:10229100EF4E7003438E80EF64024E700543890454
:1022A10080035389FB90000412057C64017005438F
:1022B1008F018003538FFE900005120690E5F0F523
:1022C1008C900005120690F58A90000712057C6437
:1022D100017002D28C7F0022ED640160030223723F
:1022E100C28E90000212057C64017004D2AB8002A0
:1022F100C2AB90000112057C64017004D2BB800264
:10230100C2BB120563FEC394037480948040037FB3
:102311000222E58954CF4EF58990000312057CFF16
:102321007E0064017003538EBFEF4E7003438E40F5
:10233100EF64024E700543894080035389BF9000CA
:102341000412057C64017005438F028003538FFDE5
:10235100900005120690E5F0F58D900005120690AB
:10236100F58B90000712057C64017002D28E7F000C
:1023710022ED640260030223FA538EEF90000212F1
:10238100057C6401700543AF04800353AFFB9000EB
:102391000312057CFD7C00D3940274809480400379
:1023A1007F0222ED64014C7003538EFB90000312F7
:1023B100057C7003438E0490000312057C64027057
:1023C10005438E088003538EF790000412057C6448
:1023D100017005438F048003538FFB9000051206A3
:1023E10090FDACF0ECF5D68DD790000712057C641A
:0C23F100017003438E107F00227F022247
:1031A7001205639004BBF090000112057C9004BCEB
:1031B700F090000212057C9004BDF07B017A04793F
:0431C700BB0228A27D
:10002E00E49004BEF0A304F0A3F0FB7A0479BEE4DE
:04003E00FF0231A7E5
:1014130060240328402000003F4CCCCD0000000096
:101423000000000000000000000000004475000000
:1014330000000000000000006024034C3F80000017
:101443003D4CCCCD3C23D70A000000000000000037
:1014530000000000C2E1000042E1000000000000C3
:100DDB00900419EFF06003020FA6900422E0FBA32E
:100DEB00E0FAA3E0F990000C1207E890001012084B
:100DFB003290041AE0F8A3E0F9A3E0FAA3E0FBA316
:100E0B00E0FCA3E0FDA3E0FEA3E0FF120089900449
:100E1B0022E0FBA3E0FAA3E0F990000C120832E900
:100E2B002414F9E43AFAC003C002C0011207C890B7
:100E3B000422E0FBA3E0FAA3E0F990000C12087681
:100E4B0012008DD001D002D003120818900422E0BA
:100E5B00FBA3E0FAA3E0F99000141207E8E4FBFA15
:100E6B0079A078401203245015900422E0FBA3E0F4
:100E7B00FAA3E0F99000141208E340A000009004DC
:100E8B0022E0FBA3E0FAA3E0F99000141207E8E4D8
:100E9B00FBFA79A078C01203246017401590042246
:100EAB00E0FBA3E0FAA3E0F99000141208E3C0A062
:100EBB000000900422E0FBA3E0FAA3E0F9900014F9
:100ECB001207E890000412087612017EC004C005D8
:100EDB00C006C007900422E0FBA3E0FAA3E0F99060
:100EEB00000C1207E812085612017ED003D002D074
:100EFB0001D00012008DC004C005C006C0079004CD
:100F0B0022E0FBA3E0FAA3E0F9900010120876C0F0
:100F1B0000C001C002C003900422E0FBA3E0FAA3CF
:100F2B00E0F990000C1207E8D003D002D001D000FA
:100F3B00120089900422E0FBA3E0FAA3E0F99000F1
:100F4B000812087612017ED003D002D001D0001215
:100F5B00008D900422E0FBA3E0FAA3E0F9900020BF
:100F6B001208329000181207E8900020120876122F
:100F7B000324600540030210C3900422E0FBA3E0AE
:100F8B00FAA3E0F990001C1207E8900020120876F3
:100F9B0012032440030211060210EF900419E064BF
:100FAB00016003021106900422E0FBA3E0FAA3E028
:100FBB00F990000C1207E890001012083290041AF6
:100FCB00E0F8A3E0F9A3E0FAA3E0FBA3E0FCA3E0C5
:100FDB00FDA3E0FEA3E0FF120089900422E0FBA337
:100FEB00E0FAA3E0F990000C120832E92420F9E4AE
:100FFB003AFAC003C002C0011207C8C004C005C042
:10100B0006C007900422E0FBA3E0FAA3E0F99000EE
:10101B0010120876C000C001C002C003900422E089
:10102B00FBA3E0FAA3E0F990000C1207E8D003D081
:10103B0002D001D000120089900422E0FBA3E0FA59
:10104B00A3E0F912085612017EC004C005C006C009
:10105B0007900422E0FBA3E0FAA3E0F990000C1246
:10106B0007E890000412087612017EA804A905AACD
:10107B0006AB07D007D006D005D00412008DA8040C
:10108B00A905AA06AB07D007D006D005D0041200DD
:10109B008DD001D002D003120818900422E0FBA3DC
:1010AB00E0FAA3E0F99000181207E890002012086C
:1010BB007612032460124010900422E0FBA3E0FAA6
:1010CB00A3E0F9900018802A900422E0FBA3E0FA39
:1010DB00A3E0F990001C1207E8900020120876128A
:1010EB0003245017900422E0FBA3E0FAA3E0F9904D
:0C10FB00001C1207E890002012083222AE
:10313700E4900488F0A304F0A3F0E4A3F0A304F060
:10314700A374A2F0A37440F0A37401F0FB7A04798E
:0631570088E4FF022231B2
:10146300490450000000000046435000490459005D
:081473004313800042C8000091
:0E110700900419EFF0A3EBF0A3EAF0A3E9F0D7
:10111500A31208B2000000009004211208B20000DA
:10112500000090041AE0FBA3E0FAA3E0F9900005A3
:101135001208767F007E1B7DB77C491202879004DA
:101145001D1208A690041AE0FBA3E0FAA3E0F990AB
:101155000001120876E4FFFE7D7A7C44120089E4E2
:10116500FBFA797A78441202879004211208A67551
:10117500BA8090FFF2740FF090041DE0FCA3E0FD2F
:10118500A3E0FEA3E0FF1203EC90FFF0EEF0A3EF67
:10119500F0900419E0B4080040030213FD9011A972
:1011A500F82828730211C10212090212510212997C
:1011B5000212E10213290213710213B890FF00E431
:1011C500F0A3F0900421E0FCA3E0FDA3E0FEA3E082
:1011D500FF90041DE0F8A3E0F9A3E0FAA3E0FB12F9
:1011E500017E1203EC90FF02EEF0A3EFF090041ADB
:1011F500E0FBA3E0FAA3E0F9120563448090FF0445
:10120500F00213FD90FF10E4F0A3F0900421E0FC40
:10121500A3E0FDA3E0FEA3E0FF90041DE0F8A3E03A
:10122500F9A3E0FAA3E0FB12017E1203EC90FF1292
:10123500EEF0A3EFF090041AE0FBA3E0FAA3E0F9C7
:10124500120563448090FF14F00213FD90FF20E423
:10125500F0A3F0900421E0FCA3E0FDA3E0FEA3E0F1
:10126500FF90041DE0F8A3E0F9A3E0FAA3E0FB1268
:10127500017E1203EC90FF22EEF0A3EFF090041A2A
:10128500E0FBA3E0FAA3E0F9120563448090FF2494
:10129500F00213FD90FF30E4F0A3F0900421E0FC90
:1012A500A3E0FDA3E0FEA3E0FF90041DE0F8A3E0AA
:1012B500F9A3E0FAA3E0FB12017E1203EC90FF32E2
:1012C500EEF0A3EFF090041AE0FBA3E0FAA3E0F937
:1012D500120563448090FF34F00213FD90FF40E453
:1012E500F0A3F0900421E0FCA3E0FDA3E0FEA3E061
:1012F500FF90041DE0F8A3E0F9A3E0FAA3E0FB12D8
:10130500017E1203EC90FF42EEF0A3EFF090041A79
:10131500E0FBA3E0FAA3E0F9120563448090FF44E3
:10132500F00213FD90FF50E4F0A3F0900421E0FCDF
:10133500A3E0FDA3E0FEA3E0FF90041DE0F8A3E019
:10134500F9A3E0FAA3E0FB12017E1203EC90FF5231
:10135500EEF0A3EFF090041AE0FBA3E0FAA3E0F9A6
:10136500120563448090FF54F00213FD90FF60E482
:10137500F0A3F0900421E0FCA3E0FDA3E0FEA3E0D0
:10138500FF90041DE0F8A3E0F9A3E0FAA3E0FB1247
:10139500017E1203EC90FF62EEF0A3EFF090041AC9
:1013A500E0FBA3E0FAA3E0F9120563448090FF6433
:1013B500F0804590FF70E4F0A3F0900421E0FCA3D9
:1013C500E0FDA3E0FEA3E0FF90041DE0F8A3E0F933
:1013D500A3E0FAA3E0FB12017E1203EC90FF72EE8C
:1013E500F0A3EFF090041AE0FBA3E0FAA3E0F912F2
:0E13F5000563448090FF74F0E4F5BA75FE8045
:0114030022C6
:1026C000E4900419F0FFFEA3F01233237FA012322E
:1026D000C97F3D1232C91233237FA11232C912328F
:1026E000EB900419EFF01233091232EB90041AEF59
:1026F000F01232FA12333590041AE0FE900419E019
:10270000FDEDFFAC06EC1203B3E4FBFAF9784712D7
:102710000287E4FBFA7934784312017E9004711247
:1027200008A61233237FA01232C97F3E1232C9128B
:1027300033237FA11232C91232EB900419EFF01249
:1027400033091232EB90041AEFF01232FA123335D9
:1027500090041AE0FE900419E0FDEDFFAC06EC12C7
:1027600003B3E4FBFAF97847120287E4FBFA793401
:10277000784312017E9004751208A61233237FA0BD
:102780001232C97F3F1232C91233237FA11232C9DC
:102790001232EB900419EFF01233091232EB90046D
:1027A0001AEFF01232FA12333590041AE0FE900458
:1027B00019E0FDEDFFAC06EC1203B3E4FBFAF97887
:1027C00047120287E4FBFA7934784312017E9004C1
:0427D000790208A6DC
:10315D00E4900490F0A304F0A3F0E4A3F0A304F032
:10316D00A374A2F0A37440F0A37401F0FB7A047968
:05317D0090FF02223169
:03002B00020006CA
:0400060053BCDF32D6
:102F3900D2AFE4F592120563429190000112057C2B
:102F4900FFE5BC549F4FF5BC90000212057C64015B
:102F5900700543BC80800353BC7F90000312057C3D
:102F69006401700543DE20800353DEDF9000051203
:102F7900057C64017004D2AD8002C2AD90000412D8
:0C2F8900057C64017003D2BD22C2BD2291
:0D004600EF6401700443BC802253BC7F2294
:102CB900EFD39407748094804002807BE4F5BDF5DE
:102CC900BEE5BC54E044404FF5BC0000E4FDEDC353
:102CD90094FA74809480505FE5BC20E55753BCDFBB
:102CE900E5DE30E51FE5BD540FFF9004C9E4F0A30C
:102CF900EFF0E0FEACBEECFBEBFF9004C9EEF0A3F5
:102D0900EFF08027AFBDEF9004C9F0A3E4F0AFBEA8
:102D19009004C9E0F0A3E04FF09004C9E0C4F8546E
:102D2900F0C868F0A3E0C4540F48F09004C9E0FE6D
:0B2D3900A3E0FF220D80977E047F00C6
:012D4400226C
:10147B00622801000000000000000000002F0000A7
:10148B0000000700070000147F147F1400242A7F3C
:10149B002A120062640813230036495522500000BB
:1014AB000503000000001C224100000041221C002B
:1014BB000014083E08140008083E0808000000A0AD
:1014CB0060000008080808080000606000000020A9
:1014DB0010080402003E5149453E0000427F400087
:1014EB00004261514946002141454B31001814120D
:1014FB007F10002745454539003C4A4949300001DA
:10150B007109050300364949493600064949291E28
:10151B00000036360000000056360000000814228A
:10152B00410000141414141400004122140800028A
:10153B000151090600324959513E007C1211127CAF
:10154B00007F49494936003E41414122007F4141DC
:10155B00221C007F49494941007F09090901003ECE
:10156B004149497A007F0808087F0000417F41000C
:10157B00002040413F01007F08142241007F404082
:10158B004040007F020C027F007F0408107F003E6A
:10159B004141413E007F09090906003E4151215E50
:1015AB00007F091929460046494949310001017F4D
:1015BB000101003F4040403F001F2040201F003FE3
:1015CB004038403F00631408146300070870080795
:1015DB0000615149454300007F41410000552A55A8
:1015EB002A55000041417F00000402010204004023
:1015FB004040404000000102040000205454547845
:10160B00007F484444380038444444200038444464
:10161B00487F00385454541800087E090102001802
:10162B00A4A4A47C007F080404780000447D40003F
:10163B00004080847D00007F102844000000417F23
:10164B004000007C04180478007C080404780038FF
:10165B004444443800FC242424180018242418FC87
:10166B00007C0804040800485454542000043F44F0
:10167B004020003C4040207C001C2040201C003CB3
:10168B004030403C004428102844001CA0A0A07C03
:0C169B00004464544C441414141414143F
:06333E00D2B27F027E0006
:03334400023261F1
:1032770012333ED2B3123340C2B3123340C2B27FCD
:06328700027E0002334448
:10328D00C2B2123340C2B312334012333ED2B37FB7
:06329D00027E0002334432
:052ED6009004CBEFF0B9
:102EDB00E4A3F09004CCE0C3940874809480503346
:102EEB009004CBE030E704D2B38002C2B37F017E03
:102EFB0000123344D2B27F017E00123344C2B27F40
:102F0B00017E001233449004CBE025E0F0A3E004F3
:102F1B00F080C0D2B37F017E00123344D2B27F0166
:0E2F2B007E00123344C2B27F017E00023344A6
:100066009004D3EFF01232777F78122ED67F4012AB
:0D0076002ED69004D3E0FF122ED602328D5C
:0431EE00EF24B0FF1B
:1031F2009004D4EFF01232777F78122ED6E4FF12C9
:0D3202002ED69004D4E0FF122ED602328D9D
:103182009004D5EFF0ED24B0FF1231F29004D5E0B7
:1031920054F0C4540F4410FF1231F29004D5E0549D
:0531A2000FFF0231F2F5
:052FEE009004C1EFF0AA
:102FF300E4A3F09004C2E0FFC3940874809480506B
:10300300371231EE7F011231F27F101231F2E49068
:1030130004C3F09004C3E0C394847480948050107C
:103023009004C1E0FF1200669004C3E004F080E363
:083033009004C2E004F080BB30
:01303B002272
:10303C00E49004CDF09004CDE0FFC3940874809428
:10304C008050341231EE7F011231F27F101231F2C6
:10305C00E49004CEF09004CEE0C394847480948009
:10306C00500DE4FF1200669004CEE004F080E69070
:07307C0004CDE004F080BE6A
:01308300222A
:1027D400E49004CFF0A37408F07B017A0479CF7FEE
:1027E40002121E737B017A0479CF7F03121E737B5E
:1027F400017A0479CF7F04121E73D2B2C2B47FF47B
:102804007E0112322BD2B47FAE1231F2E4FF1231C8
:10281400F27F101231F27F401231F27F811231F2D5
:102824007FCF1231F27FA11231F27FC81231F27FD1
:10283400A61231F27FA81231F27F3F1231F27FD318
:102844001231F2E4FF1231F27FD51231F27F80129D
:1028540031F27FD91231F27FF11231F27FDA123183
:10286400F27F121231F27FDB1231F27F401231F229
:102874007F201231F27F021231F27F8D1231F27F0A
:10288400141231F27FA41231F27FA61231F27FAF1B
:0E2894001231F2E4FF122FEEE4FDFF0231825A
:0A2F95009004C5EDF09004C4EFF0C5
:102F9F00A3E0FE131313541FFD1231829004C5E0FA
:102FAF00FF5407FEF87401088002C333D8FC900465
:102FBF00C6F0EF131313541F24B0FF1231F2900415
:102FCF00C4E054F0C4540F4410FF1231F29004C403
:0F2FDF00E0540FFF1231F29004C6E0FF020066CB
:102B8B00900498EFF0A3EDF0A3EBF0A3EAF0A3E928
:012B9B00F049
:102B9C00E4A3F0A3F0A3F090049AE0FBA3E0FAA363
:102BAC00E0F990049FE0F58275830012057C60705B
:102BBC0024E090049DF0900498E0D3947E7480946B
:102BCC00804006E4F0A3E004F0900498E0FFA3E05A
:102BDC00FD123182E490049EF090049EE0FFC394B9
:102BEC000674809480502990049DE075F006A4240E
:102BFC0000F582E5F03401F583E5822FF582E435AA
:102C0C0083F583E0FF12006690049EE004F080C917
:102C1C00900498E02406F090049FE004F0022BA3AB
:012C2C002285
:08296A009004A0EFF0A3EDF0D2
:10297200E49004A7F0FC7D0AAF03AE021205EFED6E
:1029820024309004A6F07C007D0AAF03AE0212054B
:10299200EF7C007D0A1205EFED24309004A5F07C57
:1029A200007D64AF03AE021205EF7C007D0A1205C2
:1029B200EFED24309004A4F07C037DE8AF03AE0277
:1029C2001205EF7C007D0A1205EFED24309004A37E
:1029D200F0AE02AF037C277D101205EF7C007D0A6A
:1029E2001205EFED24309004A2F0E4FFEFC394044B
:1029F20074809480501E74A22FF582E43404F5830F
:102A0200E0B4301074A22FF582E43404F58374200C
:102A1200F00F80D89004A0E0FFA3E0FD7B017A04D0
:052A220079A2022B8BDC
:0F23FD009003F1EFF0A3EDF0A3EAF0FEA3EBF0F5
:10240C00E4FBFAC3EE64809480501EE49003F7F072
:10241C00A3F09003F3E0FEA3E0FFC3E49FFFE49E70
:10242C009003F3F0A3EFF080089003F7E4F0A3041B
:10243C00F09003F3E0FEA3E0FF7C007D0A1206445B
:10244C00EF4E603D9003F3E0FEA3E0FF7C007D0ABD
:10245C00120644ED2430FF74F92BF58274033AF51F
:10246C0083EFF09003F3E0FEA3E0FF7C007D0A1203
:10247C0006449003F3EEF0A3EFF00BBB00010A80CF
:10248C00B09003F3A3E02430FF74F92BF5827403AE
:10249C003AF583EFF09003F7E07002A3E0706090E0
:1024AC000403742DF09003F5EAF0A3EBF09003F520
:1024BC00E0FEA3E0FFD394FFEE6480947F4037747A
:1024CC00F92FF58274033EF583E0FF9003F5E0FCF1
:1024DC00A3E0FDC3EB9DFDEA9CFC74042DF5827416
:1024EC00043CF583EFF09003F6E024FFF09003F545
:1024FC00E034FFF080B774052BF58274048058909B
:10250C0003F5EAF0A3EBF09003F5E0FEA3E0FFD3B4
:10251C0094FFEE6480947F403774F92FF582740336
:10252C003EF583E0FF9003F5E0FCA3E0FDC3EB9DDB
:10253C00FDEA9CFC74032DF58274043CF583EFF0EA
:10254C009003F6E024FFF09003F5E034FFF080B741
:10255C0074042BF58274043AF583E4F09003F1E0F3
:0D256C00FFA3E0FD7B017A047903022B8BB5
:081C3700900425EFF0A3EDF08D
:101C3F0090042FE4F0A3740AF0E4FFFEFDFC90047F
:101C4F0027E0F8A3E0F9A3E0FAA3E0FB1203249046
:101C5F0004314005742BF0801A742DF0900427E0A6
:101C6F00FCA3E0FDA3E0FEA3E0FF12039D90042779
:101C7F001208A6900427E0FCA3E0FDA3E0FEA3E07A
:101C8F00FF1203EC90042BEEF0A3EFF0E4A3F0A30C
:101C9F00F090042BE0FEA3E0FF4E601F7C007D0A56
:101CAF0012064490042BEEF0A3EFF090042EE00404
:101CBF00F070DE90042DE004F080D6900427E0FC55
:101CCF00A3E0FDA3E0FEA3E0FF1203EC90042BEED4
:101CDF00F0A3EFF0A3E0FEA3E0FBAA06D3EB940082
:101CEF00EA64809480403D90042BE0FEA3E0FF7CEB
:101CFF00007D0A120644ED2430FF74312BF58274F7
:101D0F00043AF583EFF090042BE0FEA3E0FF7C0094
:101D1F007D0A12064490042BEEF0A3EFF0EB1B703C
:101D2F00BB1A80B890042DE0FEA3E02432F5827434
:101D3F00043EF583742EF0900427E0FCA3E0FDA38E
:101D4F00E0FEA3E0FFC004C005C006C00790042753
:101D5F00A3A3A3E01203ECAD07AC06EC1203B3A8E8
:101D6F0004A905AA06AB07D007D006D005D00412E8
:101D7F0000899004271208A690042EE02402F09008
:101D8F00042DE03400F0900430E024FFFF90042F86
:101D9F00E034FFFEC390042EE09FEE6480F89004C1
:101DAF002DE06480984003021E50900427E0FCA3AE
:101DBF00E0FDA3E0FEA3E0FFE4FBFA7920784112F7
:101DCF00017E9004271208A6900427E0FCA3E0FDF3
:101DDF00A3E0FEA3E0FF1203ECEF2430FF90042DED
:101DEF00E0FCA3E02431F58274043CF583EFF0901E
:101DFF000427E0FCA3E0FDA3E0FEA3E0FFC004C0C6
:101E0F0005C006C007900427A3A3A3E01203ECADFF
:101E1F0007AC06EC1203B3A804A905AA06AB07D0BA
:101E2F0007D006D005D0041200899004271208A607
:101E3F0090042EE004F0700690042DE004F0021DD3
:101E4F009590042FE0FEA3E02430F58274043EF554
:101E5F0083E4F0900425E0FFA3E0FD7B017A047991
:041E6F0031022B8B86
:1031CB0000000000000000000000000000000000F4
:1031DB0000000000000000000000000000000000E4
:0331EB00000000E1
:1016A7004C03C201F401F401F401F401F401F44C18
:1016B70003B600C800C800C800C800C800C8420375
:1016C700AC00004203AA00004203B200004203AE8E
:0C16D70000004203B400004203B0000019
:10320F009004A87401F0A37440F0A37401F0A3F02C
:0C321F00A3F0A3F0FB7A0479A8022F3979
:052579009003CEEFF01D
:10257E00E4A3F0A3F0A3F0A3F0A3F078D47C037D42
:10258E00017BFF7A3179CBFE7F1812053D78EC7C0A
:10259E00037D017BFF7A3179E37E007F0512053DD5
:1025AE00E49003CFF09003CFE0C3940C748094803A
:1025BE00502B9003CEE0FF122CB99003CFE025E014
:1025CE0024D4F582E43403F583EEF0A3EFF07F64B8
:1025DE007E001232619003CFE004F080C8E4FFEF7A
:1025EE00C3940B748094804003022678E4FEC37477
:1025FE000B9FFDEEC39D506EEE25E024D6F582E4D2
:10260E003403F583E0FCA3E0FDEE25E024D4F5824F
:10261E00E43403F583E0FAA3E0FBD39DEA9C404348
:10262E009003D2EAF0A3EBF0EE25E024D6F582E497
:10263E003403F583E0FCA3E0FDEE25E024D4F5821F
:10264E00E43403F583ECF0A3EDF09003D2E0FCA3A9
:10265E00E0FDEE25E024D6F582E43403F583ECF0BC
:10266E00A3EDF00E80880F0225ED9003CF7401F0DC
:10267E009003CFE0FFC3940B748094805025EF2518
:10268E00E024D4F582E43403F583E0FEA3E0FF906A
:10269E0003D1E02FF09003D0E03EF09003CFE004A2
:1026AE00F080CD9003D0E0FEA3E0FF7C007D0A0217
:0226BE0005EF26
:1016E40078AE7C047D017BFF7A3179E87E007F0649
:1016F40012053DE4FF1225799004AEEFF07F01124C
:1017040025799004AFEFF07F021225799004B0EFB1
:10171400F07F031225799004B1EFF07F041225794C
:101724009004B2EFF07F051225799004B3EFF090A6
:1017340004AEE0FF7E00D39003B7E09F9003B6E0D1
:101744009E4003EE8016C39003C3E09F9003C2E063
:101754009E500D9004AEE0FF9003C2E4F0A3EFF0BE
:101764009004AFE0FF7E00D39003B9E09F9003B8EC
:10177400E09E4003EE8016C39003C5E09F9003C42F
:10178400E09E500D9004AFE0FF9003C4E4F0A3EF9B
:10179400F09004B0E0FF7E00D39003BBE09F900381
:1017A400BAE09E4003EE8016C39003C7E09F900307
:1017B400C6E09E500D9004B0E0FF9003C6E4F0A391
:1017C400EFF09004B1E0FF7E00D39003BDE09F9062
:1017D40003BCE09E4003EE8016C39003C9E09F90D3
:1017E40003C8E09E500D9004B1E0FF9003C8E4F0FC
:1017F400A3EFF09004B2E0FF7E00D39003BFE09F1C
:101804009003BEE09E4003EE8016C39003CBE09F9E
:101814009003CAE09E500D9004B2E0FF9003CAE426
:10182400F0A3EFF09004B3E0FF7E00D39003C1E097
:101834009F9003C0E09E4003EE8016C39003CDE06A
:101844009F9003CCE09E500D9004B3E0FF9003CC36
:10185400E4F0A3EFF09004AEE0FF9003B6E0FCA345
:10186400E0FDC3EF9DFFE49CFE7C007D641205DD7A
:101874009003B6E0FCA3E0FDC39003C3E09DFD909C
:1018840003C2E09CFC1205EF9003ACEEF0A3EFF072
:101894009004B3E0FF9003C0E0FCA3E0FDC3EF9D20
:1018A400FFE49CFE7C007D641205DD9003C0E0FC37
:1018B400A3E0FDC39003CDE09DFD9003CCE09CFC30
:1018C4001205EF9003AAEEF0A3EFF09004AFE0FF4F
:1018D4009003B8E0FCA3E0FDC3EF9DFFE49CFE7C15
:1018E400007D641205DD9003B8E0FCA3E0FDC39025
:1018F40003C5E09DFD9003C4E09CFC1205EF90033A
:10190400B2EEF0A3EFF09004B2E0FF9003BEE0FC6F
:10191400A3E0FDC3EF9DFFE49CFE7C007D64120503
:10192400DD9003BEE0FCA3E0FDC39003CBE09DFD8E
:101934009003CAE09CFC1205EF9003AEEEF0A3EF17
:10194400F09004B0E0FF9003BAE0FCA3E0FDC3EF25
:101954009DFFE49CFE7C007D641205DD9003BAE0EB
:10196400FCA3E0FDC39003C7E09DFD9003C6E09C8B
:10197400FC1205EF9003B4EEF0A3EFF09004B1E095
:10198400FF9003BCE0FCA3E0FDC3EF9DFFE49CFEDD
:101994007C007D641205DD9003BCE0FCA3E0FDC384
:1019A4009003C9E09DFD9003C8E09CFC1205EF90F4
:0719B40003B0EEF0A3EFF019
:0119BB002209
:10008600020458E86480F8E933E83360110460F04C
:10009600ED33EC337009E8FCE9FDEAFEEBFF2204E0
:1000A60060DED3EB9FEA9EE99DE8C2E78CF0C2F7DB
:1000B60095F0400CE8CCF8E9CDF9EACEFAEBCFFBA7
:1000C60012042385D0F05804700320D5B3E80470D9
:1000D600075002B2D502046292D5EC0460F7E4CC74
:1000E600C0E0C398F8603B94186008400DD0E0FB70
:1000F60002043AE4FBFAC9FC8028E830E406E4C9C5
:10010600FBE4CAFCE830E305E4C9CACBFCE85407C3
:100116006010F8C3E913F9EA13FAEB13FBEC13FCCE
:10012600D8F130F52FC3E49CFCEF9BFFEE9AFEED71
:1001360099FDD0E0FBEF4E4D4C701222DB0302041A
:100146005FEC2CFCEF33FFEE33FEED33FDED30E7D5
:10015600EB02043AEF2BFFEE3AFEED39FDD0E0FB61
:1001660050130BBB0003020462ED13FDEE13FEEF0A
:0801760013FFEC13FC02043A34
:10017E00EC4D6011E8497017ED33EC3304600DE47B
:10018E00FCFFFEFD22E933E8330470F80204581236
:10019E00042358046009E4CC248150062850090237
:1001AE00046228400302045FC0E0EB4A7044B98049
:1001BE0006D0E0FB02044EEF4E701CBD8008EBFF34
:1001CE00EAFEE9FD80EBE98DF0A4FEE5F0020267A0
:1001DE00E9CDF9EAFEEBFFEF89F0A4FCE5F0CE895C
:1001EE00F0A42EFFE435F0CD89F0A42DFEE435F019
:1001FE008067EF4E7005BD80D780C3EF8BF0A4AC47
:10020E00F0EE8BF0A42CFCE435F0F8EF8AF0A42C81
:10021E00E5F038FCE433CB8DF0A42CFCE5F03BF894
:10022E00EE8AF0A42CFCE5F038F8E433CF89F0A484
:10023E002CFCE5F038CF3400CE89F0A42FFFE5F08A
:10024E003EFEE433C98DF0A42EFEE5F039CD8AF0E2
:10025E00A42FFFE5F03EFEE43DFD33D0E0FB50075A
:10026E000BBB000F020462EC2CFCEF33FFEE33FEEF
:06027E00ED33FD02043A1D
:10028400020462EC5D046005E8590470030204583A
:10029400120423580460F6EC4860F2EC7004FDFE8E
:1002A400FF22C860DB2481C85009C398600250064D
:1002B40002045F9850CAF582E9294B4A7005AB8263
:1002C40002044E75F0007C1A7880C3EF9BEE9AED21
:1002D40099400DC3EF9BFFEE9AFEED99FDE842F0C5
:1002E400DC23ACF0D0E0FFD0E0FED0E0FDAB822018
:1002F400E7101BEB60BAEC2CFCEF33FFEE33FEEDA2
:1003040033FD02043AE803F830E705C0F075F00065
:10031400EF2FFFEE33FEED33FD40B830E7C280AA85
:1003240074F8CC6480CCC86480C8F58204604FC380
:10033400EB9FF5F0EA9E42F0E99D42F0E89C45F01F
:10034400603C501DE5825FFFE582D313CB5BCBF4A9
:100354002B5582FB50280ABA002409B900200880D2
:100364001DE5825BFBE582D313CF5FCFF4C3132F6C
:100374005582FF50090EBE00050DBD00010CC3EBF4
:100384009FF5F0EA9E42F0E99D42F0E89C45F0605A
:0903940007CC4820E701B3EC227C
:10039D00ED33EC33600A047003BD8004ECB2E7FC6E
:0103AD00222D
:1003AE0075F020800E75F010800575F0087D007ECA
:1003BE00007F003392D530D503120796EC334010F0
:1003CE00EF33FFEE33FEED33FDEC33FCD5F0ED22D3
:0E03DE00E5F0247EA2D513CC92E7CDCEFF220F
:1003EC00EDD2E7CD33EC3392D524814006E4FFFE09
:1003FC00FDFC22FCE4CFCECDCC24E0501174FF8068
:10040C00EDC3CC13CCCD13CDCE13CECF13CF047004
:07041C00F030D5DE02079667
:10042300E9D2E7C933E833F892D5EDD2E7CD33EC1F
:0704330033FC5002B2D52298
:10043A00EC30E7100FBF000C0EBE00080DBD000423
:10044A000BEB6014A2D5EB13FCED92E7FD2274FFCF
:10045A00FCFDFEFF22E480F8A2D574FF13FC7D8028
:03046A00E480EF3C
:102C390002000AE493A3F8E493A34003F68001F2A7
:102C490008DFF48029E493A3F85407240CC8C3339C
:102C5900C4540F4420C8834004F456800146F6DF6B
:102C6900E4800B0102040810204080901404E47EE3
:102C7900019360BCA3FF543F30E509541FFEE49360
:102C8900A360010ECF54C025E060A840B8E493A327
:102C9900FAE493A3F8E493A3C8C582C8CAC583CA52
:102CA900F0A3C8C582C8CAC583CADFE9DEE780BE0A
:0116E3000006
:10046D00E709F608DFFA8046E709F208DFFA803E71
:10047D0088828C83E709F0A3DFFA8032E309F6085E
:10048D00DFFA8078E309F208DFFA807088828C83C6
:10049D00E309F0A3DFFA806489828A83E0A3F6087A
:1004AD00DFFA805889828A83E0A3F208DFFA804C54
:1004BD0080D280FA80C680D4806980F2803380102B
:1004CD0080A680EA809A80A880DA80E280CA803394
:1004DD0089828A83ECFAE493A3C8C582C8CCC5830C
:1004ED00CCF0A3C8C582C8CCC583CCDFE9DEE780DC
:1004FD000D89828A83E493A3F608DFF9ECFAA9F05B
:10050D00EDFB2289828A83ECFAE0A3C8C582C8CCB0
:10051D00C583CCF0A3C8C582C8CCC583CCDFEADEC9
:10052D00E880DB89828A83E493A3F208DFF980CC2B
:10053D0088F0EF60010E4E60C388F0ED2402B40424
:10054D000050B9F582EB2402B4040050AF232345CB
:06055D0082239004BD732F
:10056300BB010689828A83E0225002E722BBFE0296
:09057300E32289828A83E49322C9
:10057C00BB010CE58229F582E5833AF583E0225034
:10058C0006E92582F8E622BBFE06E92582F8E2227E
:0D059C00E58229F582E5833AF583E4932298
:1005A900BB010689828A83F0225002F722BBFE0131
:0205B900F3222B
:1005BB00F8BB010DE58229F582E5833AF583E8F076
:1005CB00225006E92582C8F622BBFE05E92582C822
:0205DB00F2220A
:1005DD00EF8DF0A4A8F0CF8CF0A428CE8DF0A42E32
:0205ED00FE22EC
:1005EF00BC000BBE0029EF8DF084FFADF022E4CCF0
:1005FF00F875F008EF2FFFEE33FEEC33FCEE9DECB9
:10060F00984005FCEE9DFE0FD5F0E9E4CEFD22EDFE
:10061F00F8F5F0EE8420D21CFEADF075F008EF2F48
:10062F00FFED33FD4007985006D5F0F222C398FD39
:05063F000FD5F0EA22D6
:10064400C2D5EC30E709B2D5E4C39DFDE49CFCEED1
:1006540030E715B2D5E4C39FFFE49EFE1205EFC355
:10066400E49DFDE49CFC80031205EF30D507C3E450
:060674009FFFE49EFE2240
:10067A00C5F0F8A3E028F0C5F0F8E582158270020B
:06068A001583E038F022A8
:10069000BB0110E58229F582E5833AF583E0F5F0A8
:1006A000A3E0225009E92582F886F008E622BBFE85
:1006B0000AE92582F8E2F5F008E222E5832AF583CB
:0806C000E993F5F0A3E9932290
:1006C80075F008758200EF2FFFEE33FECD33CDCCE9
:1006D80033CCC58233C5829BED9AEC99E58298406C
:1006E8000CF582EE9BFEED9AFDEC99FC0FD5F0D649
:1006F800E4CEFBE4CDFAE4CCF9A88222B800C1B973
:100708000059BA002DEC8BF084CFCECDFCE5F0CBB0
:10071800F97818EF2FFFEE33FEED33FDEC33FCEBE9
:1007280033FB10D703994004EB99FB0FD8E5E4F9A4
:10073800FA227818EF2FFFEE33FEED33FDEC33FC91
:10074800C933C910D7059BE99A4007EC9BFCE99A85
:10075800F90FD8E0E4C9FAE4CCFB2275F010EF2FCA
:10076800FFEE33FEED33FDCC33CCC833C810D707CA
:100778009BEC9AE899400AED9BFDEC9AFCE899F805
:0E0788000FD5F0DAE4CDFBE4CCFAE4C8F92298
:0E079600C3E49FFFE49EFEE49DFDE49CFC2274
:1007A400EB9FF5F0EA9E42F0E99D42F0E89C45F0AB
:0107B4002222
:1007B500E8600FECC313FCED13FDEE13FEEF13FF22
:0307C500D8F12246
:1007C800BB010789828A830209135005E9F80209E7
:1007D80007BBFE05E9F802091F89828A8302092BF3
:1007E800BB010DE58229F582E5833AF583020913F9
:1007F8005007E92582F8020907BBFE07E92582F8B8
:1008080002091FE58229F582E5833AF58302092B5F
:10081800BB010789828A830208A65005E9F8020904
:0A08280071BBFE05E9F802097D220C
:10083200BB010DE58229F582E5833AF5830208A61C
:100842005007E92582F8020971BBFE07E92582F803
:0408520002097D22F8
:10085600BB010789828A830209485005E9F8020923
:100866003BBBFE05E9F802095489828A83020961C5
:10087600BB010DE58229F582E5833AF58302094835
:100886005007E92582F802093BBBFE07E92582F8F5
:10089600020954E58229F582E5833AF58302096166
:0C08A600ECF0A3EDF0A3EEF0A3EFF022C5
:1008B200A8828583F0D083D0821208C91208C91297
:1008C20008C91208C9E473E493A3C583C5F0C583BC
:1008D200C8C582C8F0A3C583C5F0C583C8C582C890
:0108E20022F3
:1008E300BB010DE58229F582E5833AF5830208B25F
:1008F3005007E92582F8020989BBFE07E92582F83A
:040903000209A22221
:0C090700E6FC08E6FD08E6FE08E6FF221C
:0C091300E0FCA3E0FDA3E0FEA3E0FF2257
:0C091F00E2FC08E2FD08E2FE08E2FF2214
:10092B00E493FC740193FD740293FE740393FF2212
:0D093B00E6FB08E6F908E6FA08E6CBF8222C
:0C094800E0F8A3E0F9A3E0FAA3E0FB2232
:0D095400E2FB08E2F908E2FA08E2CBF82223
:10096100E493F8740193F9740293FA740393FB22EC
:0C097100ECF608EDF608EEF608EFF622B2
:0C097D00ECF208EDF208EEF208EFF222B6
:10098900D083D082E493F608740193F60874029335
:09099900F608740393F67404736C
:1009A200D083D082E493F208740193F20874029324
:0909B200F208740393F27404735B
:00000001FF
