:03000000022DB11D
:0C2DB100787FE4F6D8FD758120022DF833
:0500060009000D0A00D5
:102702009003287440F0A37401F0A31208B20000F1
:102712004B0090032E7401F0A3F0E4A3F0A304F0A5
:10272200A3F0E4A3F07B017A0379287F011209BBAD
:102732001233937FF47E011233AF1211079004110A
:10274200E0FEA3E0FF900348EEF0A3EFF07B017AF6
:102752000379341220967B017A0379341232687B32
:10276200FF7A007906123268900417E0FEA3E0FFB8
:10277200900348EEF0A3EFF07B017A037934122044
:10278200967B017A0379341232687BFF7A007906EC
:10279200123268900419E0FEA3E0FF900348EEF0C5
:1027A200A3EFF07B017A0379341220967B017A033E
:1027B20079341232687BFF7A007908123268900409
:1027C2000FE0FEA3E0FF900348EEF0A3EFF07B01E1
:1027D2007A0379341220967B017A037934123268B3
:1027E2007BFF7A007906123268900413E0FEA3E0C0
:1027F200FF900348EEF0A3EFF07B017A03793412E5
:1028020020967B017A0379341232687BFF7A007951
:1028120006123268900415E0FEA3E0FF900348EE32
:10282200F0A3EFF07B017A0379341220967B017AD0
:102832000379341232687BFF7A0079081232680217
:02284200273538
:1033AF00E4FDFCC3ED9FEC9E50100079207B28DBE1
:0A33BF00FED9FC0DBD00010C80E9F1
:0133C90022E1
:1033E500E4FDFCC3ED9FEC9E500B7B06DBFE0DBDA3
:0533F50000010C80EE58
:0133FA0022B0
:101EB500EFD394057480948040037F01221205635B
:101EC500FED394037480948040037F0222EF704414
:101ED500EE700B90000112057CF45293529412059A
:101EE500636401700B90000112057C4293F45294D7
:101EF500120563FE6402700A90000112057C42938C
:101F05004294EE6403700D90000112057CFEF452BC
:101F150093EE4294EF64017046120563FE700B90D8
:101F2500000112057CF452915292EE6401700B90FF
:101F3500000112057C4291F452921205636402700D
:101F45000A90000112057C429142921205636403D6
:101F5500700D90000112057CFEF45291EE4292EF55
:101F650064027046120563FE700B90000112057C39
:101F7500F452955296EE6401700B90000112057CA7
:101F85004295F452961205636402700A900001129C
:101F9500057C429542961205636403700D9000011D
:101FA50012057CFEF45295EE4296EF6403704612DC
:101FB5000563FE700B90000112057CF452B152B21C
:101FC500EE6401700B90000112057C42B1F452B22F
:101FD5001205636402700A90000112057C42B14249
:101FE500B21205636403700D90000112057CFEF4C6
:101FF50052B1EE42B2EF64047046120563FE700BF7
:1020050090000112057CF452B352B4EE6401700BDA
:1020150090000112057C42B3F452B41205636402C8
:10202500700A90000112057C42B342B41205636444
:1020350003700D90000112057CFEF452B3EE42B41C
:10204500EF64057049120563FF7E00700B90000177
:1020550012057CF452C952CAEF64014E700B900010
:102065000112057C42C9F452CA1205636402700A62
:1020750090000112057C42C942CA120563640370CF
:102085000D90000112057CFFF452C9EF42CA7F0092
:012095002228
:10320800EFFD7C00700F75BA8090FE8074E0F0903E
:10321800FE82E4F022ED64014C701875BA8090FECD
:10322800807481F090FE85745AF090FE84E4F090EA
:04323800FE83F022FF
:102EC900D200D201E49004CAF0E02400F8E290FEB6
:102ED90086F090FE84E030E605E054BFF02290FED3
:102EE90084E030E52DE054DFF0300003C2002230E9
:102EF900010DC20190FE87E09004CAF0E0802F9096
:102F0900FE87E0FF9004CAE0FE04F074002EF8EF9B
:102F1900F22290FE84E030E41EE054EFF0E030E16C
:102F29000790FE8674FFF0229004CAE004F02400A2
:102F3900F8E290FE86F02290FE84E030E308E05447
:072F4900F7F0D200D20122D3
:0C349B0090FE82E030E6F9E054BFF02221
:0934A70090FE817401F002349BD7
:10344D0090FE86EFF090FE817402F012349B0234F0
:01345D00B0BE
:0934B00090FE817403F002349BCC
:0F346F0090FE817404F012349B90FE87E0FF22E0
:0E348D0090FE82E4F090FE817405F002349B04
:0F347E0090FE827401F090FE817405F002349B81
:0934B90090FE817406F002349BC0
:10342700E4FFFE000000000FBF00010EBE0BF4BF5B
:02343700B8F1EA
:013439002270
:10345E00E59A30E103539AFDE59A30E003539AFE64
:01346E00223B
:03002300022F5059
:102F5000C0E0C083C082C0D075D000C006C00730BA
:102F60009831C2989003DBE070299003D9E0C394B4
:102F70000B748094804002E4F09003D9E0FF04F0E9
:102F800074E32FF582E43403F583E599F09003DAD6
:102F90007405F0309934C2999003D7E0FF9003D6BE
:102FA000E0FE6F602074F92EF582E43403F583E0CF
:102FB000F5999003D6E004F0C3940B74809480409C
:102FC00009E4F080059003D8E4F0D007D006D0D013
:072FD000D082D083D0E03273
:03004300022FD7B2
:102FD700C0E0C083C082C0D075D000C006C0071251
:102FE700345E9003E2E070299003E0E0C3940B7431
:102FF7008094804002E4F09003E0E0FF04F074EE78
:103007002FF582E43403F583E59BF09003E1740523
:10301700F012345E9003DEE0FF9003DDE0FE6F60A8
:103027002074042EF582E43404F583E0F59B9003C5
:10303700DDE004F0C3940B748094804009E4F080D1
:10304700059003DFE4F0D007D006D0D0D082D0833C
:03305700D0E03294
:1009BB0090034BEBF0A3EAF0A3E9F090034AEFF0BE
:1009CB00D2AF64016003020C329003D504F0E4A3B0
:1009DB00F0A3F0A3F0A3F0A3F0A3F090034EF090DC
:1009EB00034EE0FFC3940B74809480501474F92F62
:1009FB00F582E43403F583E4F090034EE004F080D9
:100A0B00DEE490034EF090034EE0FFC3940B748032
:100A1B009480501474E32FF582E43403F583E4F0EF
:100A2B0090034EE004F080DE90034BE0FBA3E0FA72
:100A3B00A3E0F9120563FD7C00D394C0748094800D
:100A4B0040037F022290000A12057C64017004D2DD
:100A5B00BC8002C2BC120563FFE598543F4FF5986A
:100A6B00ED64C04C6008EF64406003020B5D9000C6
:100A7B00021208767F807E8D7D5B7C0012070490CE
:100A8B00034F1208A6E4FFFE7D01FC90034FE0F834
:100A9B00A3E0F9A3E0FAA3E0FBC31207A440037F92
:100AAB00022290034FE0F8A3E0F9A3E0FAA3E0FBE6
:100ABB00C3E49BFFE49AFE740199FDE498FC900358
:100ACB004F1208A690034BE0FBA3E0FAA3E0F990CA
:100ADB00000112057CFB7A0064017038C28E538EC4
:100AEB00FE5389BF5389CF438E4090034FE0FCA345
:100AFB00E0FDA3E0FEA3E0FF78081207B58F8D9011
:100B0B00034FA3A3A3E0F58BC2AB5389BF538FFD58
:100B1B00D28E807DEB64024A7035538EEF438E018B
:100B2B00538EF7438E0490034FE0FCA3E0FDA3E04C
:100B3B00FEA3E0FF78081207B58FD690034FA3A34F
:100B4B00A3E0F5D753AFFB538EF7438E1080427F54
:100B5B00022290034BE0FBA3E0FAA3E0F91205633A
:100B6B00FF7E00701490000812057C640170054331
:100B7B008E20801D538EDF8018EF64804E70129094
:100B8B00000812057C64017005438780800353873E
:100B9B007F90034BE0FBA3E0FAA3E0F9900009126E
:100BAB00057C64017004D2AC8002C2AC90000712C9
:100BBB00057C64017004D29C8002C29C90000B12D5
:040BCB00057C700A2B
:080BCF009003537403F0A3141A
:100BD700802F90034BE0FBA3E0FAA3E0F990000B12
:0A0BE70012057C6480900353701126
:0F0BF1007403F0A37480F07B017A0379537F01C2
:020C0000800F63
:100C02007403F0A37480F07B017A0379537F03129B
:020C12001EB50D
:100C140090034BE0FBA3E0FAA3E0F990000B12056C
:100C24007C54C0FFE5A2543F4FF5A27F00229003FD
:100C34004AE064026003020DD89003DC7402F0E41D
:100C4400A3F0A3F0A3F0A3F0A3F0A3F090034EF05D
:100C540090034EE0FFC3940B74809480501474048A
:100C64002FF582E43404F583E4F090034EE004F0BD
:100C740080DEE490034EF090034EE0FFC3940B74C7
:100C8400809480501474EE2FF582E43403F583E4E9
:100C9400F090034EE004F080DE90034BE0FBA3E011
:100CA400FAA3E0F9120563FF64C06008EF644060D2
:100CB40003020D5E90000A12057C6401700543B5C1
:100CC40001800353B5FE12056364C07005439A8026
:100CD4008003539A7F9000021208767F807E8D7D78
:100CE4005B7C0012070490034F1208A6E4FFFE7D0C
:100CF40001FC90034FE0F8A3E0F9A3E0FAA3E0FBC2
:100D0400C31207A440037F022290034FE0F8A3E03C
:100D1400F9A3E0FAA3E0FBC3E49BFFE49AFE7401A9
:100D240099FDE498FC90034F1208A6538EEF538E5E
:100D3400F7438E0490034FE0FCA3E0FDA3E0FEA381
:100D4400E0FF78081207B58FD690034FA3A3A3E062
:100D5400F5D753AFFB438E1080037F022290034BE1
:100D6400E0FBA3E0FAA3E0F990000912057C64011A
:100D7400700543AF01800353AFFE90000712057C5A
:100D840064017005439A108003539AEF90000B128C
:070D9400057C900353701071
:0E0D9B007403F0A314F07B017A0379537F01F7
:020DA900800FB9
:100DAB007403F0A37480F07B017A0379537F0412F0
:020DBB001EB563
:100DBD0090034BE0FBA3E0FAA3E0F990000B1205C2
:0D0DCD007C5401FFE5BA54FE4FF5BA7F00DB
:010DDA0022F6
:1032940090034DEFF09003D8E0701304F090034DC9
:1032A400E0F5993099FDC299E49003D8F0227F05A6
:0732B4007E001233E580DE0D
:10323C009003DEE02404F582E43404F583EFF0908F
:10324C0003DEE004F0C3940B748094804002E4F03D
:0C325C009003DFE0700504F012345E22E5
:1032680090034AEBF0A3EAF0A3E9F090034AE0FBED
:10327800A3E0FAA3E0F9120563FF600F12329490FD
:0C328800034BE475F00112067A80E0228E
:10343A00120563FF600C12323C740129F9E43AFA6E
:03344A0080EE22EF
:0734CB003098FDC298AF9993
:0134D20022D7
:0534D30012345EAF9B06
:0134D80022D1
:1020960090034CEBF0A3EAF0A3E9F090034AEEF0CC
:0320A600A3EFF0B5
:1020A900E490034FF0A3F0C3EE64809480501EE4E3
:1020B900900353F0A3F090034AE0FEA3E0FFC3E4CA
:1020C9009FFFE49E90034AF0A3EFF080089003532A
:1020D900E4F0A304F090034AE0FEA3E0FF7C007D56
:1020E9000A120644EF4E604B90034AE0FAA3E0FB64
:1020F9007C007D0AFFAE02120644ED2430FF9003F6
:102109004FE0FCA3E02455F58274033CF583EFF01E
:102119007C007D0AAF03AE0212064490034AEEF03A
:10212900A3EFF0900350E004F070AA90034FE0048D
:10213900F080A290034AA3E02430FF90034FE0FC13
:10214900A3E02455F58274033CF583EFF090035323
:10215900E07002A3E060030221EF90034CE0FBA3CF
:10216900E0FAA3E0F9742D1205A990034FE0FFA34B
:10217900E0A3CFF0A3EFF0900351E0FEA3E0FFD37B
:1021890094FFEE6480947F404A74552FF58274035E
:102199003EF583E0FF900351E0FCA3E0FDC390030B
:1021A90050E09DFD90034FE09CCD2401CD3400FC0F
:1021B90090034CE0FBA3E0FAA3E0F98D828C83EF56
:1021C9001205BB900352E024FFF0900351E034FF65
:1021D900F080A490034CE0FBA3E0FAA3E0F990039C
:1021E90050E02402807490034FE0FFA3E0A3CFF0F6
:1021F900A3EFF0900351E0FEA3E0FFD394FFEE6458
:1022090080947F404474552FF58274033EF583E032
:10221900FF900351E0FCA3E0FDC3900350E09DFD56
:1022290090034FE09CFC90034CE0FBA3E0FAA3E091
:10223900F98D828C83EF1205BB900352E024FFF0E5
:10224900900351E034FFF080AA90034CE0FBA3E037
:10225900FAA3E0F9900350E02401FF90034FE03422
:09226900008F82F583E41205BB2D
:012272002249
:1019FE009004771208A690047BEBF0A3EAF0A3E91B
:011A0E00F0E7
:101A0F00E4FFFEFDFC900477E0F8A3E0F9A3E0FA11
:101A1F00A3E0FB12032490047BE0FBA3E0FAA3E016
:101A2F00F94007742B1205A9801C742D1205A9907B
:101A3F000477E0FCA3E0FDA3E0FEA3E0FF12039D0B
:101A4F009004771208A6900477E0FCA3E0FDA3E0D2
:101A5F00FEA3E0FF1203EC900480EEF0A3EFF0E49E
:101A6F00A3F0A3F0900480E0FEA3E0FF4E601F7C84
:101A7F00007D0A120644900480EEF0A3EFF090046C
:101A8F0083E004F070DE900482E004F080D69004CE
:101A9F0077E0FCA3E0FDA3E0FEA3E0FF1203EC90D0
:101AAF000480EEF0A3EFF0A3E0FFA3E0A3CFF0A339
:101ABF00EFF0D3900485E09400900484E064809468
:101ACF00804054900480E0FEA3E0FF7C007D0A126A
:101ADF000644ED2430FF90047BE0FBA3E0FAA3E083
:101AEF00F9900484E0FCA3E0F5828C83EF1205BB30
:101AFF00900480E0FEA3E0FF7C007D0A1206449074
:101B0F000480EEF0A3EFF0900485E024FFF0900442
:101B1F0084E034FFF0809B90047BE0FBA3E0FAA30A
:101B2F00E0F9900483E02401FF900482E034008FF9
:101B3F0082F583742E1205BB900477E0FCA3E0FDC1
:101B4F00A3E0FEA3E0FFC004C005C006C0079004D9
:101B5F0077A3A3A3E01203ECAD07AC06EC1203B31B
:101B6F00A804A905AA06AB07D007D006D005D00454
:101B7F001200899004771208A6900483E02402F0E3
:101B8F00900482E03400F090047FE024FFFF900483
:101B9F007EE034FFFEC3900483E09FEE6480F890F4
:101BAF000482E06480984003021C59900477E0FCA3
:101BBF00A3E0FDA3E0FEA3E0FFE4FBFA7920784168
:101BCF0012017E9004771208A6900477E0FCA3E040
:101BDF00FDA3E0FEA3E0FF1203ECEF2430FF90041F
:101BEF007BE0FBA3E0FAA3E0F9900482E0FCA3E022
:101BFF00F5828C83EF1205BB900477E0FCA3E0FD28
:101C0F00A3E0FEA3E0FFC004C005C006C007900418
:101C1F0077A3A3A3E01203ECAD07AC06EC1203B35A
:101C2F00A804A905AA06AB07D007D006D005D00493
:101C3F001200899004771208A6900483E004F070D4
:101C4F0006900482E004F0021B9690047BE0FBA355
:101C5F00E0FAA3E0F990047FE024FFFF90047EE018
:0A1C6F0034FF8F82F583E40205BB09
:05171E004204C20000BE
:030003000233CAFB
:1033CA00C0E0C083C0829004C3E004F07006900499
:0B33DA00C2E004F0D082D083D0E032CB
:03001300020012D6
:0100120032BB
:0300530002001692
:0100160032B7
:03005B0002001789
:0100170032B6
:0300830002001860
:0100180032B5
:102A2600EFD394107480948040037F0122D2AFEFDD
:102A3600703090000212057C64017004D2A88002F6
:102A4600C2A890000112057C64017004D2B880020D
:102A5600C2B812056364017004D2888002C2887FFE
:102A66000022EF6402703090000212057C6401704F
:102A760004D2AA8002C2AA90000112057C640170E9
:102A860004D2BA8002C2BA12056364017004D28A03
:102A96008002C28A7F0022EF640A7015900002123B
:102AA600057C64017005438F108003538FEF7F0010
:102AB60022EF640B701590000212057C640170050C
:102AC600438F208003538FDF7F0022EF6410701541
:102AD60090000212057C64017005438F4080035309
:082AE6008FBF7F00227F022256
:0A1723004204B200004204B40000CA
:03000B00022C6262
:102C6200C0E0C0F0C083C082C0D075D000C000C038
:102C720001C002C003C004C005C006C0079004B36F
:102C8200E004F070069004B2E004F09004B2E07048
:102C920004A3E0640A705B9004C2E0FCA3E0FDECD4
:102CA2001203B39003821208A69003861208B2435D
:102CB20052000090038A7401F0A37403F0A3748D90
:102CC200F07F01120DDB9003ADE0FCA3E0FDA3E079
:102CD200FEA3E0FF9004661208A67B017A047965E0
:102CE200E4FF1214219004B2E4F0A3F09004C2F0C5
:102CF200A3F0D007D006D005D004D003D002D00173
:0D2D0200D000D0D0D082D083D0F0D0E0320D
:03001B00022BAB0A
:102BAB00C0E0C0F0C083C082C0D075D000C000C0F0
:102BBB0001C002C003C004C005C006C0079004B525
:102BCB00E004F070069004B4E004F09004B4E070FC
:102BDB0004A3E06432706512284490048AE0FCA3DD
:102BEB00E0FDA3E0FEA3E0FF9003821208A6900392
:102BFB00861208B20000000090038A7401F0A374DF
:102C0B0003F0A374B1F0E4FF120DDB7F007E807D37
:102C1B00137C439003D1E0F8A3E0F9A3E0FAA3E01F
:102C2B00FB12008D90046F1208A67B017A04796E5B
:102C3B007F011214219004B4E4F0A3F0D007D00666
:102C4B00D005D004D003D002D001D000D0D0D08298
:072C5B00D083D0F0D0E0327D
:030063000200197F
:0100190032B4
:10227300AD07EDD394027480948040037F0122D292
:10228300AFED600302231BC28C90000212057C6435
:10229300017004D2A98002C2A990000112057C64D6
:1022A300017004D2B98002C2B9120563FED394034C
:1022B3007480948040037F0222E58954FC4EF589A3
:1022C30090000312057CFF7E0064017003538E7F30
:1022D300EF4E7003438E80EF64024E700543890412
:1022E30080035389FB90000412057C64017005434D
:1022F3008F018003538FFE900005120690E5F0F5E1
:102303008C900005120690F58A90000712057C64F4
:10231300017002D28C7F0022ED640160030223B4BA
:10232300C28E90000212057C64017004D2AB80025D
:10233300C2AB90000112057C64017004D2BB800221
:10234300C2BB120563FEC394037480948040037F71
:102353000222E58954CF4EF58990000312057CFFD4
:102363007E0064017003538EBFEF4E7003438E40B3
:10237300EF64024E700543894080035389BF900088
:102383000412057C64017005438F028003538FFDA3
:10239300900005120690E5F0F58D90000512069069
:1023A300F58B90000712057C64017002D28E7F00CA
:1023B30022ED6402600302243C538EEF900002126C
:1023C300057C6401700543AF04800353AFFB9000A9
:1023D3000312057CFD7C00D3940274809480400337
:1023E3007F0222ED64014C7003538EFB90000312B5
:1023F300057C7003438E0490000312057C64027015
:1024030005438E088003538EF790000412057C6405
:10241300017005438F048003538FFB900005120660
:1024230090FDACF0ECF5D68DD790000712057C64D7
:0C243300017003438E107F00227F022204
:10332B001205639004B6F090000112057C9004B76F
:10333B00F090000212057C9004B8F07B017A0479BE
:04334B00B6022A2676
:10002E00E49004B9F0A304F0A3F0FB7A0479B9E4E8
:04003E00FF02332B5F
:10172D006024038D402000003F4CCCCD0000000014
:10173D0000000000000000000000000044750000E3
:10174D000000000000000000602403B13F80000095
:10175D003D4CCCCD3C23D70A00000000000000001A
:10176D0000000000C2E1000042E1000000000000A6
:100DDB00900381EFF06003020FA690038AE0FBA360
:100DEB00E0FAA3E0F990000C1207E890001012084B
:100DFB0032900382E0F8A3E0F9A3E0FAA3E0FBA3AF
:100E0B00E0FCA3E0FDA3E0FEA3E0FF12008990034A
:100E1B008AE0FBA3E0FAA3E0F990000C120832E998
:100E2B002414F9E43AFAC003C002C0011207C890B7
:100E3B00038AE0FBA3E0FAA3E0F990000C1208761A
:100E4B0012008DD001D002D00312081890038AE053
:100E5B00FBA3E0FAA3E0F99000141207E8E4FBFA15
:100E6B0079A07840120324501590038AE0FBA3E08D
:100E7B00FAA3E0F99000141208E340A000009003DD
:100E8B008AE0FBA3E0FAA3E0F99000141207E8E470
:100E9B00FBFA79A078C01203246017401590038ADF
:100EAB00E0FBA3E0FAA3E0F99000141208E3C0A062
:100EBB00000090038AE0FBA3E0FAA3E0F990001492
:100ECB001207E890000412087612017EC004C005D8
:100EDB00C006C00790038AE0FBA3E0FAA3E0F990F9
:100EEB00000C1207E812085612017ED003D002D074
:100EFB0001D00012008DC004C005C006C0079003CE
:100F0B008AE0FBA3E0FAA3E0F9900010120876C088
:100F1B0000C001C002C00390038AE0FBA3E0FAA368
:100F2B00E0F990000C1207E8D003D002D001D000FA
:100F3B0012008990038AE0FBA3E0FAA3E0F990008A
:100F4B000812087612017ED003D002D001D0001215
:100F5B00008D90038AE0FBA3E0FAA3E0F990002058
:100F6B001208329000181207E8900020120876122F
:100F7B000324600540030210C390038AE0FBA3E047
:100F8B00FAA3E0F990001C1207E8900020120876F3
:100F9B0012032440030211060210EF900381E06458
:100FAB0001600302110690038AE0FBA3E0FAA3E0C1
:100FBB00F990000C1207E89000101208329003828F
:100FCB00E0F8A3E0F9A3E0FAA3E0FBA3E0FCA3E0C5
:100FDB00FDA3E0FEA3E0FF12008990038AE0FBA3D0
:100FEB00E0FAA3E0F990000C120832E92420F9E4AE
:100FFB003AFAC003C002C0011207C8C004C005C042
:10100B0006C00790038AE0FBA3E0FAA3E0F9900087
:10101B0010120876C000C001C002C00390038AE022
:10102B00FBA3E0FAA3E0F990000C1207E8D003D081
:10103B0002D001D00012008990038AE0FBA3E0FAF2
:10104B00A3E0F912085612017EC004C005C006C009
:10105B000790038AE0FBA3E0FAA3E0F990000C12DF
:10106B0007E890000412087612017EA804A905AACD
:10107B0006AB07D007D006D005D00412008DA8040C
:10108B00A905AA06AB07D007D006D005D0041200DD
:10109B008DD001D002D00312081890038AE0FBA375
:1010AB00E0FAA3E0F99000181207E890002012086C
:1010BB00761203246012401090038AE0FBA3E0FA3F
:1010CB00A3E0F9900018802A90038AE0FBA3E0FAD2
:1010DB00A3E0F990001C1207E8900020120876128A
:1010EB000324501790038AE0FBA3E0FAA3E0F990E6
:0C10FB00001C1207E890002012083222AE
:1032BB00E4900492F0A304F0A3F0E4A3F0A304F0D1
:1032CB00A374A2F0A37440F0A37401F0FB7A047909
:0632DB0092E4FF022273E1
:10177D0049046500000000004643500049046E0016
:08178D004313800042C8000074
:0E142100900381EFF0A3EBF0A3EAF0A3E9F053
:10142F00A31208B2000000009003891208B2000056
:10143F000000900382E0FBA3E0FAA3E0F99000051F
:10144F001208767F007E1B7DB77C491202879003BE
:10145F00851208A6900382E0FBA3E0FAA3E0F990BF
:10146F000001120876E4FFFE7D7A7C44120089E4C5
:10147F00FBFA797A78441202879003891208A675CD
:10148F00BA8090FFF2740FF0900385E0FCA3E0FDAB
:10149F00A3E0FEA3E0FF1203EC90FFF0EEF0A3EF4A
:1014AF00F0900381E0B4080040030217179014C3B3
:1014BF00F82828730214DB02152302156B0215B3EB
:1014CF000215FB02164302168B0216D290FF00E4A0
:1014DF00F0A3F0900389E0FCA3E0FDA3E0FEA3E0FE
:1014EF00FF900385E0F8A3E0F9A3E0FAA3E0FB1275
:1014FF00017E1203EC90FF02EEF0A3EFF090038257
:10150F00E0FBA3E0FAA3E0F9120563448090FF0427
:10151F00F002171790FF10E4F0A3F0900389E0FC9E
:10152F00A3E0FDA3E0FEA3E0FF900385E0F8A3E0B6
:10153F00F9A3E0FAA3E0FB12017E1203EC90FF1275
:10154F00EEF0A3EFF0900382E0FBA3E0FAA3E0F943
:10155F00120563448090FF14F002171790FF20E4E8
:10156F00F0A3F0900389E0FCA3E0FDA3E0FEA3E06D
:10157F00FF900385E0F8A3E0F9A3E0FAA3E0FB12E4
:10158F00017E1203EC90FF22EEF0A3EFF0900382A6
:10159F00E0FBA3E0FAA3E0F9120563448090FF2477
:1015AF00F002171790FF30E4F0A3F0900389E0FCEE
:1015BF00A3E0FDA3E0FEA3E0FF900385E0F8A3E026
:1015CF00F9A3E0FAA3E0FB12017E1203EC90FF32C5
:1015DF00EEF0A3EFF0900382E0FBA3E0FAA3E0F9B3
:1015EF00120563448090FF34F002171790FF40E418
:1015FF00F0A3F0900389E0FCA3E0FDA3E0FEA3E0DD
:10160F00FF900385E0F8A3E0F9A3E0FAA3E0FB1253
:10161F00017E1203EC90FF42EEF0A3EFF0900382F5
:10162F00E0FBA3E0FAA3E0F9120563448090FF44C6
:10163F00F002171790FF50E4F0A3F0900389E0FC3D
:10164F00A3E0FDA3E0FEA3E0FF900385E0F8A3E095
:10165F00F9A3E0FAA3E0FB12017E1203EC90FF5214
:10166F00EEF0A3EFF0900382E0FBA3E0FAA3E0F922
:10167F00120563448090FF54F002171790FF60E447
:10168F00F0A3F0900389E0FCA3E0FDA3E0FEA3E04C
:10169F00FF900385E0F8A3E0F9A3E0FAA3E0FB12C3
:1016AF00017E1203EC90FF62EEF0A3EFF090038245
:1016BF00E0FBA3E0FAA3E0F9120563448090FF6416
:1016CF00F0804590FF70E4F0A3F0900389E0FCA355
:1016DF00E0FDA3E0FEA3E0FF900385E0F8A3E0F9AF
:1016EF00A3E0FAA3E0FB12017E1203EC90FF72EE6F
:1016FF00F0A3EFF0900382E0FBA3E0FAA3E0F9126E
:0E170F000563448090FF74F0E4F5BA75FE8027
:01171D0022A9
:10284400E4900381F0FFFEA3F01234A77FA01234BA
:102854004D7F3D12344D1234A77FA112344D1234F2
:102864006F900381EFF012348D12346F900382EF76
:10287400F012347E1234B9900382E0FE900381E0BA
:10288400FDEDFFAC06EC1203B3E4FBFAF978471252
:102894000287E4FBFA7934784312017E90048612AD
:1028A40008A61234A77FA012344D7F3E12344D1275
:1028B40034A77FA112344D12346F900381EFF012CC
:1028C400348D12346F900382EFF012347E1234B9D7
:1028D400900382E0FE900381E0FDEDFFAC06EC1274
:1028E40003B3E4FBFAF97847120287E4FBFA79347C
:1028F400784312017E90048A1208A61234A77FA09E
:1029040012344D7F3F12344D1234A77FA112344D3F
:1029140012346F900381EFF012348D12346F9003F0
:1029240082EFF012347E1234B9900382E0FE9003F9
:1029340081E0FDEDFFAC06EC1203B3E4FBFAF97899
:1029440047120287E4FBFA7934784312017E90043B
:042954008E0208A641
:1032E100E490049AF0A304F0A3F0E4A3F0A304F0A3
:1032F100A374A2F0A37440F0A37401F0FB7A0479E3
:053301009AFF02227397
:03002B0002000EC2
:04000E0053BCDF32CE
:1030BD00D2AFE4F592120563429190000112057CA6
:1030CD00FFE5BC549F4FF5BC90000212057C6401D6
:1030DD00700543BC80800353BC7F90000312057CB8
:1030ED006401700543DE20800353DEDF900005127E
:1030FD00057C64017004D2AD8002C2AD9000041253
:0C310D00057C64017003D2BD22C2BD220B
:0D004600EF6401700443BC802253BC7F2294
:102E3D00EFD39407748094804002807BE4F5BDF558
:102E4D00BEE5BC54E044404FF5BC0000E4FDEDC3CD
:102E5D0094FA74809480505FE5BC20E55753BCDF35
:102E6D00E5DE30E51FE5BD540FFF900373E4F0A3DD
:102E7D00EFF0E0FEACBEECFBEBFF900373EEF0A3C6
:102E8D00EFF08027AFBDEF900373F0A3E4F0AFBE7A
:102E9D00900373E0F0A3E04FF0900373E0C4F85497
:102EAD00F0C868F0A3E0C4540F48F0900373E0FE3F
:0B2EBD00A3E0FF220D80977E047F0041
:012EC80022E7
:10179500622801000000000000000000002F00008A
:1017A50000000700070000147F147F1400242A7F1F
:1017B5002A1200626408132300364955225000009E
:1017C5000503000000001C224100000041221C000E
:1017D5000014083E08140008083E0808000000A090
:1017E500600000080808080800006060000000208C
:1017F50010080402003E5149453E0000427F40006A
:10180500004261514946002141454B3100181412EF
:101815007F10002745454539003C4A4949300001BC
:101825007109050300364949493600064949291E0B
:10183500000036360000000056360000000814226D
:10184500410000141414141400004122140800026D
:101855000151090600324959513E007C1211127C92
:10186500007F49494936003E41414122007F4141BF
:10187500221C007F49494941007F09090901003EB1
:101885004149497A007F0808087F0000417F4100EF
:10189500002040413F01007F08142241007F404065
:1018A5004040007F020C027F007F0408107F003E4D
:1018B5004141413E007F09090906003E4151215E33
:1018C500007F091929460046494949310001017F30
:1018D5000101003F4040403F001F2040201F003FC6
:1018E5004038403F00631408146300070870080778
:1018F50000615149454300007F41410000552A558B
:101905002A55000041417F00000402010204004005
:101915004040404000000102040000205454547827
:10192500007F484444380038444444200038444447
:10193500487F00385454541800087E0901020018E5
:10194500A4A4A47C007F080404780000447D400022
:10195500004080847D00007F102844000000417F06
:101965004000007C04180478007C080404780038E2
:101975004444443800FC242424180018242418FC6A
:10198500007C0804040800485454542000043F44D3
:101995004020003C4040207C001C2040201C003C96
:1019A5004030403C004428102844001CA0A0A07CE6
:0C19B500004464544C4414141414141422
:0634C200D2B27F027E0081
:0334C8000233E5E7
:1033FB001234C2D2B31234C4C2B31234C4C2B27FB9
:06340B00027E000234C83D
:10341100C2B21234C4C2B31234C41234C2D2B37FA2
:06342100027E000234C827
:05305A009004C4EFF03A
:10305F00E4A3F09004C5E0C39408748094805033C7
:10306F009004C4E030E704D2B38002C2B37F017E84
:10307F00001234C8D2B27F017E001234C8C2B27FB0
:10308F00017E001234C89004C4E025E0F0A3E004F0
:10309F00F080C0D2B37F017E001234C8D2B27F015C
:0E30AF007E001234C8C2B27F017E000234C817
:100066009004CBEFF01233FB7F7812305A7F4012A8
:0D007600305A9004CBE0FF12305A023411D2
:04337200EF24B0FF95
:103376009004CCEFF01233FB7F7812305AE4FF1240
:0D338600305A9004CCE0FF12305A0234118E
:103306009004CDEFF0ED24B0FF1233769004CDE0BB
:1033160054F0C4540F4410FF1233769004CDE05499
:053326000FFF023376E9
:053172009004BCEFF029
:10317700E4A3F09004BDE0FFC394087480948050EA
:10318700371233727F011233767F10123376E49051
:1031970004BEF09004BEE0C3948474809480501001
:1031A7009004BCE0FF1200669004BEE004F080E3E8
:0831B7009004BDE004F080BBB0
:0131BF0022ED
:1031C000E49004C6F09004C6E0FFC39408748094B1
:1031D0008050341233727F011233767F10123376AF
:1031E000E49004C7F09004C7E0C394847480948092
:1031F000500DE4FF1200669004C7E004F080E690F2
:0732000004C6E004F080BEEB
:0132070022A4
:10295800E49004C8F0A37408F07B017A0479C87F76
:1029680002121EB57B017A0479C87F03121EB57B5B
:10297800017A0479C87F04121EB5D2B2C2B47FF4BA
:102988007E011233AFD2B47FAE123376E4FF123336
:10299800767F101233767F401233767F811233763A
:1029A8007FCF1233767FA11233767FC81233767FBA
:1029B800A61233767FA81233767F3F1233767FD301
:1029C800123376E4FF1233767FD51233767F801286
:1029D80033767FD91233767FF11233767FDA12336A
:1029E800767F121233767FDB1233767F401233768E
:1029F8007F201233767F021233767F8D1233767FF3
:102A0800141233767FA41233767FA61233767FAF03
:0E2A1800123376E4FF123172E4FDFF02330642
:0A3119009004C0EDF09004BFEFF049
:10312300A3E0FE131313541FFD1233069004C0E0F3
:10313300FF5407FEF87401088002C333D8FC9004DF
:10314300C1F0EF131313541F24B0FF12337690040E
:10315300BFE054F0C4540F4410FF1233769004BF01
:0F316300E0540FFF1233769004C1E0FF020066C4
:102D0F009004A2EFF0A3EDF0A3EBF0A3EAF0A3E998
:012D1F00F0C3
:102D2000E4A3F0A3F0A3F09004A4E0FBA3E0FAA3D3
:102D3000E0F99004A9E0F58275830012057C6070CB
:102D400024E09004A7F09004A2E0D3947E748094D1
:102D5000804006E4F0A3E004F09004A2E0FFA3E0CA
:102D6000FD123306E49004A8F09004A8E0FFC39499
:102D7000067480948050299004A7E075F006A4247E
:102D800000F582E5F03401F583E5822FF582E43524
:102D900083F583E0FF1200669004A8E004F080C988
:102DA0009004A2E02406F09004A9E004F0022D278C
:012DB0002200
:082AEE009004AAEFF0A3EDF043
:102AF600E49004B1F0FC7D0AAF03AE021205EFEDDF
:102B060024309004B0F07C007D0AAF03AE021205BB
:102B1600EF7C007D0A1205EFED24309004AFF07CC7
:102B2600007D64AF03AE021205EF7C007D0A12053C
:102B3600EFED24309004AEF07C037DE8AF03AE02E7
:102B46001205EF7C007D0A1205EFED24309004ADEE
:102B5600F0AE02AF037C277D101205EF7C007D0AE4
:102B66001205EFED24309004ACF0E4FFEFC39404BB
:102B760074809480501E74AC2FF582E43404F5837F
:102B8600E0B4301074AC2FF582E43404F58374207D
:102B9600F00F80D89004AAE0FFA3E0FD7B017A0441
:052BA60079AC022D0FC7
:0F243F00900433EFF0A3EDF0A3EAF0FEA3EBF06F
:10244E00E4FBFAC3EE64809480501EE4900439F0ED
:10245E00A3F0900435E0FEA3E0FFC3E49FFFE49EEB
:10246E00900435F0A3EFF08008900439E4F0A30453
:10247E00F0900435E0FEA3E0FF7C007D0A120644D6
:10248E00EF4E603D900435E0FEA3E0FF7C007D0A38
:10249E00120644ED2430FF743B2BF58274043AF59A
:1024AE0083EFF0900435E0FEA3E0FF7C007D0A127E
:1024BE000644900435EEF0A3EFF00BBB00010A804A
:1024CE00B0900435A3E02430FF743B2BF5827404E6
:1024DE003AF583EFF0900439E07002A3E07060905B
:1024EE000445742DF0900437EAF0A3EBF090043716
:1024FE00E0FEA3E0FFD394FFEE6480947F40377438
:10250E003B2FF58274043EF583E0FF900437E0FC28
:10251E00A3E0FDC3EB9DFDEA9CFC74462DF5827491
:10252E00043CF583EFF0900438E024FFF09004377C
:10253E00E034FFF080B774472BF582740480589016
:10254E000437EAF0A3EBF0900437E0FEA3E0FFD3EC
:10255E0094FFEE6480947F4037743B2FF5827404B1
:10256E003EF583E0FF900437E0FCA3E0FDC3EB9D56
:10257E00FDEA9CFC74452DF58274043CF583EFF066
:10258E00900438E024FFF0900437E034FFF080B779
:10259E0074462BF58274043AF583E4F0900433E02C
:0D25AE00FFA3E0FD7B017A047945022D0FAB
:081C790090044FEFF0A3EDF021
:101C8100900459E4F0A3740AF0E4FFFEFDFC900413
:101C910051E0F8A3E0F9A3E0FAA3E0FB12032490DA
:101CA100045B4005742BF0801A742DF0900451E010
:101CB100FCA3E0FDA3E0FEA3E0FF12039D9004510D
:101CC1001208A6900451E0FCA3E0FDA3E0FEA3E00E
:101CD100FF1203EC900455EEF0A3EFF0E4A3F0A3A0
:101CE100F0900455E0FEA3E0FF4E601F7C007D0AEA
:101CF100120644900455EEF0A3EFF0900458E0046E
:101D0100F070DE900457E004F080D6900451E0FCBE
:101D1100A3E0FDA3E0FEA3E0FF1203EC900455EE67
:101D2100F0A3EFF0A3E0FEA3E0FBAA06D3EB94003F
:101D3100EA64809480403D900455E0FEA3E0FF7C7E
:101D4100007D0A120644ED2430FF745B2BF582748A
:101D5100043AF583EFF0900455E0FEA3E0FF7C0028
:101D61007D0A120644900455EEF0A3EFF0EB1B70D0
:101D7100BB1A80B8900457E0FEA3E0245CF582749E
:101D8100043EF583742EF0900451E0FCA3E0FDA322
:101D9100E0FEA3E0FFC004C005C006C007900451E7
:101DA100A3A3A3E01203ECAD07AC06EC1203B3A8A6
:101DB10004A905AA06AB07D007D006D005D00412A6
:101DC10000899004511208A6900458E02402F09072
:101DD1000457E03400F090045AE024FFFF900459C6
:101DE100E034FFFEC3900458E09FEE6480F8900455
:101DF10057E06480984003021E92900451E0FCA3D6
:101E0100E0FDA3E0FEA3E0FFE4FBFA7920784112B4
:101E1100017E9004511208A6900451E0FCA3E0FD5C
:101E2100A3E0FEA3E0FF1203ECEF2430FF90045780
:101E3100E0FCA3E0245BF58274043CF583EFF090B1
:101E41000451E0FCA3E0FDA3E0FEA3E0FFC004C059
:101E510005C006C007900451A3A3A3E01203ECAD93
:101E610007AC06EC1203B3A804A905AA06AB07D078
:101E710007D006D005D0041200899004511208A69B
:101E8100900458E004F07006900457E004F0021D3D
:101E9100D7900459E0FEA3E0245AF58274043EF57C
:101EA10083E4F090044FE0FFA3E0FD7B017A047925
:041EB1005B022D0F94
:10334F00000000000000000000000000000000006E
:10335F00000000000000000000000000000000005E
:03336F000000005B
:1019C1004C042701F401F401F401F401F401F44C95
:1019D100041B0000000000000000000000004204A1
:1019E10011000042040F00004204170000420413DA
:0C19F10000004204190000420415000030
:1033930090034A7401F0A37440F0A37401F0A3F006
:0C33A300A3F0A3F0FB7A03794A0230BDCE
:0525BB00900350EFF059
:1025C000E4A3F0A3F0A3F0A3F0A3F078567C037D7E
:1025D000017BFF7A33794FFE7F1812053D786E7CC0
:1025E000037D017BFF7A3379677E007F0512053D0D
:1025F000E4900351F0900351E0C3940C74809480F4
:10260000502B900350E0FF122E3D900351E025E047
:102610002456F582E43403F583EEF0A3EFF07F64F3
:102620007E001233E5900351E004F080C8E4FFEF30
:10263000C3940B7480948040030226BAE4FEC374F2
:102640000B9FFDEEC39D506EEE25E02458F582E40D
:102650003403F583E0FCA3E0FDEE25E02456F5828B
:10266000E43403F583E0FAA3E0FBD39DEA9C404306
:10267000900354EAF0A3EBF0EE25E02458F582E451
:102680003403F583E0FCA3E0FDEE25E02456F5825B
:10269000E43403F583ECF0A3EDF0900354E0FCA3E5
:1026A000E0FDEE25E02458F582E43403F583ECF0F8
:1026B000A3EDF00E80880F02262F9003517401F0D5
:1026C000900351E0FFC3940B748094805025EF2554
:1026D000E02456F582E43403F583E0FEA3E0FF90A6
:1026E0000353E02FF0900352E03EF0900351E004DA
:1026F000F080CD900352E0FEA3E0FF7C007D0A0253
:0227000005EFE3
:10110700784A7C037D017BFF7A33796C7E007F060A
:1011170012053DE4FF1225BB90034AEFF07F011251
:1011270025BB90034BEFF07F021225BB90034CEFDA
:10113700F07F031225BB90034DEFF07F041225BB10
:1011470090034EEFF07F051225BB90034FEFF09011
:10115700034AE0FF7E00D390041CE09F7480F89060
:10116700041BE06480984003EE801CC3900428E0D1
:101177009FEE6480F8900427E0648098500D9003F8
:101187004AE0FF900427E4F0A3EFF090034BE0FF61
:101197007E00D390041EE09F7480F890041DE064E5
:1011A70080984003EE801CC390042AE09FEE648081
:1011B700F8900429E0648098500D90034BE0FF906D
:1011C7000429E4F0A3EFF090034CE0FF7E00D390F6
:1011D7000420E09F7480F890041FE0648098400327
:1011E700EE801CC390042CE09FEE6480F890042BE3
:1011F700E0648098500D90034CE0FF90042BE4F0DE
:10120700A3EFF090034DE0FF7E00D3900422E09F10
:101217007480F8900421E06480984003EE801CC33A
:1012270090042EE09FEE6480F890042DE06480988F
:10123700500D90034DE0FF90042DE4F0A3EFF090E4
:10124700034EE0FF7E00D3900424E09F7480F89063
:101257000423E06480984003EE801CC3900430E0D0
:101267009FEE6480F890042FE0648098500D9003FF
:101277004EE0FF90042FE4F0A3EFF090034FE0FF60
:101287007E00D3900426E09F7480F8900425E064E4
:1012970080984003EE801CC3900432E09FEE648088
:1012A700F8900431E0648098500D90034FE0FF9070
:1012B7000431E4F0A3EFF090034AE0FF90041BE051
:1012C700FCA3E0FDC3EF9DFFE49CFE7C007D641260
:1012D70005DD90041BE0FCA3E0FDC3900428E09D1E
:1012E700FD900427E09CFC120644900411EEF0A345
:1012F700EFF090034FE0FF900425E0FCA3E0FDC36F
:10130700EF9DFFE49CFE7C007D641205DD900425C3
:10131700E0FCA3E0FDC3900432E09DFD900431E0C2
:101327009CFC12064490040FEEF0A3EFF090034BE1
:10133700E0FF90041DE0FCA3E0FDC3EF9DFFE49CEC
:10134700FE7C007D641205DD90041DE0FCA3E0FD3A
:10135700C390042AE09DFD900429E09CFC120644FA
:10136700900417EEF0A3EFF090034EE0FF900423F4
:10137700E0FCA3E0FDC3EF9DFFE49CFE7C007D64E1
:101387001205DD900423E0FCA3E0FDC3900430E0E8
:101397009DFD90042FE09CFC120644900413EEF090
:1013A700A3EFF090034CE0FF90041FE0FCA3E0FDE7
:1013B700C3EF9DFFE49CFE7C007D641205DD900475
:1013C7001FE0FCA3E0FDC390042CE09DFD90042BDF
:1013D700E09CFC120644900419EEF0A3EFF0900392
:1013E7004DE0FF900421E0FCA3E0FDC3EF9DFFE487
:1013F7009CFE7C007D641205DD900421E0FCA3E0E7
:10140700FDC390042EE09DFD90042DE09CFC120688
:0914170044900415EEF0A3EFF07F
:0114200022A9
:10008600020458E86480F8E933E83360110460F04C
:10009600ED33EC337009E8FCE9FDEAFEEBFF2204E0
:1000A60060DED3EB9FEA9EE99DE8C2E78CF0C2F7DB
:1000B60095F0400CE8CCF8E9CDF9EACEFAEBCFFBA7
:1000C60012042385D0F05804700320D5B3E80470D9
:1000D600075002B2D502046292D5EC0460F7E4CC74
:1000E600C0E0C398F8603B94186008400DD0E0FB70
:1000F60002043AE4FBFAC9FC8028E830E406E4C9C5
:10010600FBE4CAFCE830E305E4C9CACBFCE85407C3
:100116006010F8C3E913F9EA13FAEB13FBEC13FCCE
:10012600D8F130F52FC3E49CFCEF9BFFEE9AFEED71
:1001360099FDD0E0FBEF4E4D4C701222DB0302041A
:100146005FEC2CFCEF33FFEE33FEED33FDED30E7D5
:10015600EB02043AEF2BFFEE3AFEED39FDD0E0FB61
:1001660050130BBB0003020462ED13FDEE13FEEF0A
:0801760013FFEC13FC02043A34
:10017E00EC4D6011E8497017ED33EC3304600DE47B
:10018E00FCFFFEFD22E933E8330470F80204581236
:10019E00042358046009E4CC248150062850090237
:1001AE00046228400302045FC0E0EB4A7044B98049
:1001BE0006D0E0FB02044EEF4E701CBD8008EBFF34
:1001CE00EAFEE9FD80EBE98DF0A4FEE5F0020267A0
:1001DE00E9CDF9EAFEEBFFEF89F0A4FCE5F0CE895C
:1001EE00F0A42EFFE435F0CD89F0A42DFEE435F019
:1001FE008067EF4E7005BD80D780C3EF8BF0A4AC47
:10020E00F0EE8BF0A42CFCE435F0F8EF8AF0A42C81
:10021E00E5F038FCE433CB8DF0A42CFCE5F03BF894
:10022E00EE8AF0A42CFCE5F038F8E433CF89F0A484
:10023E002CFCE5F038CF3400CE89F0A42FFFE5F08A
:10024E003EFEE433C98DF0A42EFEE5F039CD8AF0E2
:10025E00A42FFFE5F03EFEE43DFD33D0E0FB50075A
:10026E000BBB000F020462EC2CFCEF33FFEE33FEEF
:06027E00ED33FD02043A1D
:10028400020462EC5D046005E8590470030204583A
:10029400120423580460F6EC4860F2EC7004FDFE8E
:1002A400FF22C860DB2481C85009C398600250064D
:1002B40002045F9850CAF582E9294B4A7005AB8263
:1002C40002044E75F0007C1A7880C3EF9BEE9AED21
:1002D40099400DC3EF9BFFEE9AFEED99FDE842F0C5
:1002E400DC23ACF0D0E0FFD0E0FED0E0FDAB822018
:1002F400E7101BEB60BAEC2CFCEF33FFEE33FEEDA2
:1003040033FD02043AE803F830E705C0F075F00065
:10031400EF2FFFEE33FEED33FD40B830E7C280AA85
:1003240074F8CC6480CCC86480C8F58204604FC380
:10033400EB9FF5F0EA9E42F0E99D42F0E89C45F01F
:10034400603C501DE5825FFFE582D313CB5BCBF4A9
:100354002B5582FB50280ABA002409B900200880D2
:100364001DE5825BFBE582D313CF5FCFF4C3132F6C
:100374005582FF50090EBE00050DBD00010CC3EBF4
:100384009FF5F0EA9E42F0E99D42F0E89C45F0605A
:0903940007CC4820E701B3EC227C
:10039D00ED33EC33600A047003BD8004ECB2E7FC6E
:0103AD00222D
:1003AE0075F020800E75F010800575F0087D007ECA
:1003BE00007F003392D530D503120796EC334010F0
:1003CE00EF33FFEE33FEED33FDEC33FCD5F0ED22D3
:0E03DE00E5F0247EA2D513CC92E7CDCEFF220F
:1003EC00EDD2E7CD33EC3392D524814006E4FFFE09
:1003FC00FDFC22FCE4CFCECDCC24E0501174FF8068
:10040C00EDC3CC13CCCD13CDCE13CECF13CF047004
:07041C00F030D5DE02079667
:10042300E9D2E7C933E833F892D5EDD2E7CD33EC1F
:0704330033FC5002B2D52298
:10043A00EC30E7100FBF000C0EBE00080DBD000423
:10044A000BEB6014A2D5EB13FCED92E7FD2274FFCF
:10045A00FCFDFEFF22E480F8A2D574FF13FC7D8028
:03046A00E480EF3C
:102DBD00022702E493A3F8E493A34003F68001F203
:102DCD0008DFF48029E493A3F85407240CC8C33317
:102DDD00C4540F4420C8834004F456800146F6DFE6
:102DED00E4800B010204081020408090171EE47E41
:102DFD00019360BCA3FF543F30E509541FFEE493DB
:102E0D00A360010ECF54C025E060A840B8E493A3A1
:102E1D00FAE493A3F8E493A3C8C582C8CAC583CACC
:102E2D00F0A3C8C582C8CAC583CADFE9DEE780BE84
:0119FD0000E9
:10046D00E709F608DFFA8046E709F208DFFA803E71
:10047D0088828C83E709F0A3DFFA8032E309F6085E
:10048D00DFFA8078E309F208DFFA807088828C83C6
:10049D00E309F0A3DFFA806489828A83E0A3F6087A
:1004AD00DFFA805889828A83E0A3F208DFFA804C54
:1004BD0080D280FA80C680D4806980F2803380102B
:1004CD0080A680EA809A80A880DA80E280CA803394
:1004DD0089828A83ECFAE493A3C8C582C8CCC5830C
:1004ED00CCF0A3C8C582C8CCC583CCDFE9DEE780DC
:1004FD000D89828A83E493A3F608DFF9ECFAA9F05B
:10050D00EDFB2289828A83ECFAE0A3C8C582C8CCB0
:10051D00C583CCF0A3C8C582C8CCC583CCDFEADEC9
:10052D00E880DB89828A83E493A3F208DFF980CC2B
:10053D0088F0EF60010E4E60C388F0ED2402B40424
:10054D000050B9F582EB2402B4040050AF232345CB
:06055D0082239004BD732F
:10056300BB010689828A83E0225002E722BBFE0296
:09057300E32289828A83E49322C9
:10057C00BB010CE58229F582E5833AF583E0225034
:10058C0006E92582F8E622BBFE06E92582F8E2227E
:0D059C00E58229F582E5833AF583E4932298
:1005A900BB010689828A83F0225002F722BBFE0131
:0205B900F3222B
:1005BB00F8BB010DE58229F582E5833AF583E8F076
:1005CB00225006E92582C8F622BBFE05E92582C822
:0205DB00F2220A
:1005DD00EF8DF0A4A8F0CF8CF0A428CE8DF0A42E32
:0205ED00FE22EC
:1005EF00BC000BBE0029EF8DF084FFADF022E4CCF0
:1005FF00F875F008EF2FFFEE33FEEC33FCEE9DECB9
:10060F00984005FCEE9DFE0FD5F0E9E4CEFD22EDFE
:10061F00F8F5F0EE8420D21CFEADF075F008EF2F48
:10062F00FFED33FD4007985006D5F0F222C398FD39
:05063F000FD5F0EA22D6
:10064400C2D5EC30E709B2D5E4C39DFDE49CFCEED1
:1006540030E715B2D5E4C39FFFE49EFE1205EFC355
:10066400E49DFDE49CFC80031205EF30D507C3E450
:060674009FFFE49EFE2240
:10067A00C5F0F8A3E028F0C5F0F8E582158270020B
:06068A001583E038F022A8
:10069000BB0110E58229F582E5833AF583E0F5F0A8
:1006A000A3E0225009E92582F886F008E622BBFE85
:1006B0000AE92582F8E2F5F008E222E5832AF583CB
:0806C000E993F5F0A3E9932290
:1006C80075F008758200EF2FFFEE33FECD33CDCCE9
:1006D80033CCC58233C5829BED9AEC99E58298406C
:1006E8000CF582EE9BFEED9AFDEC99FC0FD5F0D649
:1006F800E4CEFBE4CDFAE4CCF9A88222B800C1B973
:100708000059BA002DEC8BF084CFCECDFCE5F0CBB0
:10071800F97818EF2FFFEE33FEED33FDEC33FCEBE9
:1007280033FB10D703994004EB99FB0FD8E5E4F9A4
:10073800FA227818EF2FFFEE33FEED33FDEC33FC91
:10074800C933C910D7059BE99A4007EC9BFCE99A85
:10075800F90FD8E0E4C9FAE4CCFB2275F010EF2FCA
:10076800FFEE33FEED33FDCC33CCC833C810D707CA
:100778009BEC9AE899400AED9BFDEC9AFCE899F805
:0E0788000FD5F0DAE4CDFBE4CCFAE4C8F92298
:0E079600C3E49FFFE49EFEE49DFDE49CFC2274
:1007A400EB9FF5F0EA9E42F0E99D42F0E89C45F0AB
:0107B4002222
:1007B500E8600FECC313FCED13FDEE13FEEF13FF22
:0307C500D8F12246
:1007C800BB010789828A830209135005E9F80209E7
:1007D80007BBFE05E9F802091F89828A8302092BF3
:1007E800BB010DE58229F582E5833AF583020913F9
:1007F8005007E92582F8020907BBFE07E92582F8B8
:1008080002091FE58229F582E5833AF58302092B5F
:10081800BB010789828A830208A65005E9F8020904
:0A08280071BBFE05E9F802097D220C
:10083200BB010DE58229F582E5833AF5830208A61C
:100842005007E92582F8020971BBFE07E92582F803
:0408520002097D22F8
:10085600BB010789828A830209485005E9F8020923
:100866003BBBFE05E9F802095489828A83020961C5
:10087600BB010DE58229F582E5833AF58302094835
:100886005007E92582F802093BBBFE07E92582F8F5
:10089600020954E58229F582E5833AF58302096166
:0C08A600ECF0A3EDF0A3EEF0A3EFF022C5
:1008B200A8828583F0D083D0821208C91208C91297
:1008C20008C91208C9E473E493A3C583C5F0C583BC
:1008D200C8C582C8F0A3C583C5F0C583C8C582C890
:0108E20022F3
:1008E300BB010DE58229F582E5833AF5830208B25F
:1008F3005007E92582F8020989BBFE07E92582F83A
:040903000209A22221
:0C090700E6FC08E6FD08E6FE08E6FF221C
:0C091300E0FCA3E0FDA3E0FEA3E0FF2257
:0C091F00E2FC08E2FD08E2FE08E2FF2214
:10092B00E493FC740193FD740293FE740393FF2212
:0D093B00E6FB08E6F908E6FA08E6CBF8222C
:0C094800E0F8A3E0F9A3E0FAA3E0FB2232
:0D095400E2FB08E2F908E2FA08E2CBF82223
:10096100E493F8740193F9740293FA740393FB22EC
:0C097100ECF608EDF608EEF608EFF622B2
:0C097D00ECF208EDF208EEF208EFF222B6
:10098900D083D082E493F608740193F60874029335
:09099900F608740393F67404736C
:1009A200D083D082E493F208740193F20874029324
:0909B200F208740393F27404735B
:00000001FF
