:03000000020046B5
:0C004600787FE4F6D8FD75814A020006C0
:0100060022D7
:10002600E4FDFCC3ED9FEC9E50100079207B28DB9D
:0A003600FED9FC0DBD00010C80E9AD
:01004000229D
:10006600E4FDFCC3ED9FEC9E500B7B06DBFE0DBD55
:0500760000010C80EE0A
:01007B002262
:100C1200EFD394057480948040037F01221203A5D0
:100C2200FED394037480948040037F0222EF7044C9
:100C3200EE700B9000011203BEF452935294120311
:100C4200A56401700B9000011203BE4293F452940A
:100C52001203A5FE6402700A9000011203BE4293C1
:100C62004294EE6403700D9000011203BEFEF45232
:100C720093EE4294EF640170461203A5FE700B904E
:100C820000011203BEF452915292EE6401700B9075
:100C920000011203BE4291F452921203A564027043
:100CA2000A9000011203BE429142921203A564030C
:100CB200700D9000011203BEFEF45291EE4292EFCB
:100CC200640270461203A5FE700B9000011203BE6F
:100CD200F452955296EE6401700B9000011203BE1D
:100CE2004295F452961203A56402700A9000011212
:100CF20003BE429542961203A56403700D90000153
:100D02001203BEFEF45295EE4296EF640370461251
:100D120003A5FE700B9000011203BEF452B152B251
:100D2200EE6401700B9000011203BE42B1F452B2A4
:100D32001203A56402700A9000011203BE42B1427E
:100D4200B21203A56403700D9000011203BEFEF4FB
:100D520052B1EE42B2EF640470461203A5FE700B6C
:100D62009000011203BEF452B352B4EE6401700B50
:100D72009000011203BE42B3F452B41203A56402FE
:100D8200700A9000011203BE42B342B41203A5647A
:100D920003700D9000011203BEFEF452B3EE42B492
:100DA200EF640570491203A5FF7E00700B900001ED
:100DB2001203BEF452C952CAEF64014E700B900086
:100DC200011203BE42C9F452CA1203A56402700A98
:100DD2009000011203BE42C942CA1203A564037005
:100DE2000D9000011203BEFFF452C9EF42CA7F0008
:010DF20022DE
:10129800EFFD7C00700C90FE8074E0F090FE82E41C
:1012A800F022ED64014C701875BA8090FE8074814C
:1012B800F090FE85745AF090FE84E4F090FE83F07E
:0112C8002203
:1011AB00D200D201E4F54974002549F8E290FE869D
:1011BB00F090FE84E030E605E054BFF02290FE8410
:1011CB00E030E529E054DFF0300003C200223001AB
:1011DB000CC20190FE87E0F5492400802C90FE871D
:1011EB00E0FFAE49054974002EF8EFF22290FE8421
:1011FB00E030E41CE054EFF0E030E10790FE867441
:10120B00FFF022054974002549F8E290FE86F02292
:10121B0090FE84E030E308E054F7F0D200D20122D4
:0C13D00090FE82E030E6F9E054BFF0220D
:0913DC0090FE817401F00213D0AF
:0E13B40090FE86EFF090FE817402F00213D0DE
:0913E50090FE817403F00213D0A4
:0F13960090FE817404F01213D090FE87E0FF22C6
:0E13C20090FE82E4F090FE817405F00213D0DC
:0F13A50090FE827401F090FE817405F00213D067
:0913EE0090FE817406F00213D098
:10135F00E4FFFE000000000FBF00010EBE0BF4BF44
:02136F00B8F1D3
:011371002259
:0809B9008F328B338A3489353B
:1009C100E4F539F538F537F536F53DF53CF53BF508
:1009D1003A90000512058D7F007E1B7DB77C491280
:1009E10002878F398E388D378C36AB33AA34A935CF
:1009F10090000112058DE4FFFE7D7A7C441200898E
:100A0100E4FBFA797A78441202878F3D8E3C8D3B64
:100A11008C3A75BA8090FFF2740FF0AF39AE38ADF1
:100A210037AC3612032490FFF0EEF0A3EFF0E5327D
:100A3100B408004003020C0B900A40F82828730206
:100A41000A58020A8F020AC6020AFD020B34020B7F
:100A51006B020BA1020BD790FF00E4F0A3F0AF3DB6
:100A6100AE3CAD3BAC3AAB39AA38A937A836120136
:100A71007E12032490FF02EEF0A3EFF0AB33AA3411
:100A8100A9351203A5448090FF04F0020C0B90FFDE
:100A910010E4F0A3F0AF3DAE3CAD3BAC3AAB39AAAC
:100AA10038A937A83612017E12032490FF12EEF006
:100AB100A3EFF0AB33AA34A9351203A5448090FF0C
:100AC10014F0020C0B90FF20E4F0A3F0AF3DAE3C1C
:100AD100AD3BAC3AAB39AA38A937A83612017E1220
:100AE100032490FF22EEF0A3EFF0AB33AA34A93533
:100AF1001203A5448090FF24F0020C0B90FF30E418
:100B0100F0A3F0AF3DAE3CAD3BAC3AAB39AA38A94E
:100B110037A83612017E12032490FF32EEF0A3EFC4
:100B2100F0AB33AA34A9351203A5448090FF34F009
:100B3100020C0B90FF40E4F0A3F0AF3DAE3CAD3BA7
:100B4100AC3AAB39AA38A937A83612017E12032470
:100B510090FF42EEF0A3EFF0AB33AA34A9351203B4
:100B6100A5448090FF44F0020C0B90FF50E4F0A3E9
:100B7100F0AF3DAE3CAD3BAC3AAB39AA38A937A892
:100B81003612017E12032490FF52EEF0A3EFF0AB78
:100B910033AA34A9351203A5448090FF54F0806A2A
:100BA10090FF60E4F0A3F0AF3DAE3CAD3BAC3AAB9F
:100BB10039AA38A937A83612017E12032490FF62A0
:100BC100EEF0A3EFF0AB33AA34A9351203A54480AC
:100BD10090FF64F0803490FF70E4F0A3F0AF3DAE7D
:100BE1003CAD3BAC3AAB39AA38A937A83612017EE5
:100BF10012032490FF72EEF0A3EFF0AB33AA34A9F5
:100C0100351203A5448090FF74F0E4F5BA75FE80B7
:010C110022C0
:10138500E59A30E103539AFDE59A30E003539AFE5E
:011395002235
:0300430002122B7B
:10122B00C0E0C083C082C0D075D000C00712138548
:10123B00E5317022C3E52F94807480948040037550
:10124B002F00AF2F052F74802FF582E43401F58327
:10125B00E59BF0753005121385E52C652D60207428
:10126B0080252CF582E43402F583E0F59B052CC335
:10127B00E52C9480748094804008752C0080037555
:0D128B002E00D007D0D0D082D083D0E0322A
:080648008F3E8B3F8A4089417F
:10065000EF64016003020856752401F525F526F5BF
:1006600027F528F529F52AF542C3E54294807480E0
:100670009480501174002542F582E43402F583E43D
:10068000F0054280E4E4F542C3E54294807480942E
:1006900080501174002542F582E43401F583E4F0C2
:1006A000054280E4AB3FAA40A9411203A5FD7C00AE
:1006B000D394C07480948040037F022290000A1279
:1006C00003BE64017004D2BC8002C2BC1203A5FF49
:1006D000E598543F4FF598ED64C04C6008EF6440D6
:1006E000600302079C90000212058D7F807E8D7D45
:1006F0005B7C001204C98F468E458D448C43E4FF19
:10070000FE7D01FCAB46AA45A944A843C312056976
:1007100040037F0222C3E49546F546E49545F5453E
:1007200074019544F544E49543F543AB3FAA40A9D1
:10073000419000011203BEFB7A006401702CC28E4E
:10074000538EFE5389BF5389CF438E40AF46AE458B
:10075000AD44AC43780812057A8F8D85468BC2ABC9
:100760005389BF538FFDD28E806CEB64024A70298F
:10077000538EEF438E01538EF7438E04AF46AE4542
:10078000AD44AC43780812057A8FD68546D753AF6F
:10079000FB538EF7438E10803D7F0222AB3FAA4071
:1007A000A9411203A5FF7E0070149000081203BE39
:1007B00064017005438E20801D538EDF8018EF6426
:1007C000804E70129000081203BE640170054387CA
:1007D00080800353877FAB3FAA40A9419000091254
:1007E00003BE64017004D2AC8002C2AC9000071258
:1007F00003BE64017004D29C8002C29C90000B1264
:0408000003BE7009BA
:07080400754703754802FB74
:10080B008027AB3FAA40A94190000B1203BE648026
:02081B00700F5C
:0D081D00754703754880FB7A0079477F011D
:02082A00800E3E
:10082C007547037548807B007A0079477F03120C6B
:01083C0012A9
:10083D00AB3FAA40A94190000B1203BE54C0FFE587
:10084D00A2543F4FF5A27F0022E53E6402600302F1
:10085D0009B6752B02F52CF52DF52EF52FF530F586
:10086D0031F542C3E54294807480948050117480B8
:10087D002542F582E43402F583E4F0054280E4E498
:10088D00F542C3E5429480748094805011748025A4
:10089D0042F582E43401F583E4F0054280E4AB3F98
:1008AD00AA40A9411203A5FF64C06008EF6440602F
:1008BD000302094B90000A1203BE6401700543B593
:1008CD0001800353B5FE1203A564C07005439A80E1
:1008DD008003539A7F90000212058D7F807E8D7D5F
:1008ED005B7C001204C98F468E458D448C43E4FF1A
:1008FD00FE7D01FCAB46AA45A944A843C312056978
:10090D0040037F0222C3E49546F546E49545F5453F
:10091D0074019544F544E49543F543538EEF538E9E
:10092D00F7438E04AF46AE45AD44AC43780812058F
:10093D007A8FD68546D753AFFB438E1080037F0247
:10094D0022AB3FAA40A9419000091203BE64017079
:10095D000543AF01800353AFFE9000071203BE6441
:10096D00017005439A108003539AEF90000B120308
:03097D00BE700F3A
:0D098000754703754802FB7A0079477F0137
:02098D00800EDA
:10098F007547037548807B007A0079477F04120C06
:01099F001245
:1009A000AB3FAA40A94190000B1203BE5401FFE5E2
:0809B000BA54FE4FF5BA7F00B6
:0109B800221C
:101341008F4AE527700F752701854A993099FDC2AB
:0E13510099E4F527227F057E0012006680E4F5
:1012F6007480252DF582E43402F583EFF0052DC3C5
:10130600E52D9480748094804003E4F52DE52E70DD
:0813160006752E011213852259
:10131E008B1D8A1E891FAB1DAA1EA91F1203A5FFB6
:10132E0060101213417401251FF51FE4351EF51EC2
:03133E0080E42226
:101372001203A5FF600C1212F6740129F9E43AFA7D
:0313820080EE22D8
:0713F7003098FDC298AF9988
:0113FE0022CC
:030023000212C9FD
:1012C900C0E0C083C082C0D075D000C001C002C0D8
:1012D90003C298AB21AA22A923E5991203EBD003F3
:0D12E900D002D001D0D0D082D083D0E0322E
:0A0FBF008E088F098B0A8A0B890C3B
:100FC900E4F50DF50EC3E508648094805011E4F54D
:100FD90011F512C39509F509E49508F50880067518
:100FE9001100751201AE08AF097C007D0A12041FB9
:100FF900AA06AB07EB4A6024AE08AF097C007D0A5C
:1010090012041FED2430FF7413250EF8A6078A0871
:101019008B09050EE50E70CD050D80C9E509243053
:10102900FF7413250EF8A607E51245117059AB0A8E
:10103900AA0BA90C742D1203EB850D0F850E10D385
:10104900E51094FFE50F6480947F402F74132510F9
:10105900F8E6FFC3E50E9510CDE50D950FCD2401FA
:10106900CD3400AB0AAA0BA90C8D82F583EF1203CC
:10107900FDE510151070C8150F80C4AB0AAA0BA99D
:101089000CE50E24028046850D0F850E10D3E51060
:1010990094FFE50F6480947F402974132510F8E6C6
:1010A900FFC3E50E9510FDE50D950FAB0AAA0BA937
:1010B9000C8D82F583EF1203FDE510151070CE1526
:1010C9000F80CAAB0AAA0BA90CE50E2401FFE4356F
:0910D9000D8F82F583E41203FD82
:0110E20022EB
:03000300020007F1
:0100070032C6
:03001300020008E0
:0100080032C5
:030053000200099F
:0100090032C4
:03005B0002000A96
:01000A0032C3
:0300830002000E6A
:01000E0032BF
:1010E300EFD394107480948040037F0122D2AFEF3A
:1010F30070309000021203BE64017004D2A8800213
:10110300C2A89000011203BE64017004D2B8800229
:10111300C2B81203A564017004D2888002C2887F1A
:101123000022EF640270309000021203BE6401706B
:1011330004D2AA8002C2AA9000011203BE64017005
:1011430004D2BA8002C2BA1203A564017004D28A1F
:101153008002C28A7F0022EF640A70159000021297
:1011630003BE64017005438F108003538FEF7F002C
:1011730022EF640B70159000021203BE6401700528
:10118300438F208003538FDF7F0022EF641070159D
:101193009000021203BE64017005438F4080035325
:0811A3008FBF7F00227F0222B2
:03000B0002000FE1
:01000F0032BE
:03001B00020010D0
:0100100032BD
:0300630002001187
:0100110032BC
:100DF300AD07EDD394027480948040037F0122D227
:100E0300AFED6003020E9BC28C9000021203BE641E
:100E1300017004D2A98002C2A99000011203BE642A
:100E2300017004D2B98002C2B91203A5FED39403A0
:100E33007480948040037F0222E58954FC4EF58937
:100E43009000031203BEFF7E0064017003538E7F84
:100E5300EF4E7003438E80EF64024E7005438904A6
:100E630080035389FB9000041203BE6401700543A1
:100E73008F018003538FFE900005120455E5F0F5B2
:100E83008C900005120455F58A9000071203BE6486
:100E9300017002D28C7F0022ED64016003020F34E3
:100EA300C28E9000021203BE64017004D2AB8002B2
:100EB300C2AB9000011203BE64017004D2BB800276
:100EC300C2BB1203A5FEC394037480948040037FC6
:100ED3000222E58954CF4EF5899000031203BEFF29
:100EE3007E0064017003538EBFEF4E7003438E4048
:100EF300EF64024E700543894080035389BF90001D
:100F0300041203BE64017005438F028003538FFDF7
:100F1300900005120455E5F0F58D90000512045577
:100F2300F58B9000071203BE64017002D28E7F001E
:100F330022ED64026003020FBC538EEF9000021295
:100F430003BE6401700543AF04800353AFFB9000FD
:100F5300031203BEFD7C00D394027480948040038B
:100F63007F0222ED64014C7003538EFB9000031249
:100F730003BE7003438E049000031203BE64027029
:100F830005438E088003538EF79000041203BE645A
:100F9300017005438F048003538FFB9000051204F7
:100FA30055FDACF0ECF5D68DD79000071203BE6467
:0C0FB300017003438E107F00227F022299
:10008600020390E86480F8E933E83360110460F015
:10009600ED33EC337009E8FCE9FDEAFEEBFF2204E0
:1000A60060DED3EB9FEA9EE99DE8C2E78CF0C2F7DB
:1000B60095F0400CE8CCF8E9CDF9EACEFAEBCFFBA7
:1000C60012035B85D0F05804700320D5B3E80470A2
:1000D600075002B2D502039A92D5EC0460F7E4CC3D
:1000E600C0E0C398F8603B94186008400DD0E0FB70
:1000F600020372E4FBFAC9FC8028E830E406E4C98E
:10010600FBE4CAFCE830E305E4C9CACBFCE85407C3
:100116006010F8C3E913F9EA13FAEB13FBEC13FCCE
:10012600D8F130F52FC3E49CFCEF9BFFEE9AFEED71
:1001360099FDD0E0FBEF4E4D4C701222DB0302031B
:1001460097EC2CFCEF33FFEE33FEED33FDED30E79D
:10015600EB020372EF2BFFEE3AFEED39FDD0E0FB2A
:1001660050130BBB000302039AED13FDEE13FEEFD3
:0801760013FFEC13FC020372FD
:10017E00EC4D6011E8497017ED33EC3304600DE47B
:10018E00FCFFFEFD22E933E8330470F802039012FF
:10019E00035B58046009E4CC248150062850090200
:1001AE00039A284003020397C0E0EB4A7044B980DB
:1001BE0006D0E0FB020386EF4E701CBD8008EBFFFD
:1001CE00EAFEE9FD80EBE98DF0A4FEE5F0020267A0
:1001DE00E9CDF9EAFEEBFFEF89F0A4FCE5F0CE895C
:1001EE00F0A42EFFE435F0CD89F0A42DFEE435F019
:1001FE008067EF4E7005BD80D780C3EF8BF0A4AC47
:10020E00F0EE8BF0A42CFCE435F0F8EF8AF0A42C81
:10021E00E5F038FCE433CB8DF0A42CFCE5F03BF894
:10022E00EE8AF0A42CFCE5F038F8E433CF89F0A484
:10023E002CFCE5F038CF3400CE89F0A42FFFE5F08A
:10024E003EFEE433C98DF0A42EFEE5F039CD8AF0E2
:10025E00A42FFFE5F03EFEE43DFD33D0E0FB50075A
:10026E000BBB000F02039AEC2CFCEF33FFEE33FEB8
:06027E00ED33FD020372E6
:1002840002039AEC5D046005E859047003020390CC
:1002940012035B580460F6EC4860F2EC7004FDFE57
:1002A400FF22C860DB2481C85009C398600250064D
:1002B4000203979850CAF582E9294B4A7005AB822C
:1002C40002038675F0007C1A7880C3EF9BEE9AEDEA
:1002D40099400DC3EF9BFFEE9AFEED99FDE842F0C5
:1002E400DC23ACF0D0E0FFD0E0FED0E0FDAB822018
:1002F400E7101BEB60BAEC2CFCEF33FFEE33FEEDA2
:1003040033FD020372E803F830E705C0F075F0002E
:10031400EF2FFFEE33FEED33FD40B830E7C280AA85
:10032400EDD2E7CD33EC3392D524814006E4FFFED1
:10033400FDFC22FCE4CFCECDCC24E0501174FF8030
:10034400EDC3CC13CCCD13CDCE13CECF13CF0470CD
:07035400F030D5DE02055B6D
:10035B00E9D2E7C933E833F892D5EDD2E7CD33ECE8
:07036B0033FC5002B2D52261
:10037200EC30E7100FBF000C0EBE00080DBD0004EC
:100382000BEB6014A2D5EB13FCED92E7FD2274FF98
:10039200FCFDFEFF22E480F8A2D574FF13FC7D80F1
:0303A200E480EF05
:1003A500BB010689828A83E0225002E722BBFE0256
:0903B500E32289828A83E4932289
:1003BE00BB010CE58229F582E5833AF583E02250F4
:1003CE0006E92582F8E622BBFE06E92582F8E2223E
:0D03DE00E58229F582E5833AF583E4932258
:1003EB00BB010689828A83F0225002F722BBFE01F1
:0203FB00F322EB
:1003FD00F8BB010DE58229F582E5833AF583E8F036
:10040D00225006E92582C8F622BBFE05E92582C8E1
:02041D00F222C9
:10041F00C2D5EC30E709B2D5E4C39DFDE49CFCEEF8
:10042F0030E715B2D5E4C39FFFE49EFE1205BDC3AE
:10043F00E49DFDE49CFC80031205BD30D507C3E4A9
:06044F009FFFE49EFE2267
:10045500BB0110E58229F582E5833AF583E0F5F0E5
:10046500A3E0225009E92582F886F008E622BBFEC2
:100475000AE92582F8E2F5F008E222E5832AF58308
:08048500E993F5F0A3E99322CD
:10048D0075F008758200EF2FFFEE33FECD33CDCC26
:10049D0033CCC58233C5829BED9AEC99E5829840A9
:1004AD000CF582EE9BFEED9AFDEC99FC0FD5F0D686
:1004BD00E4CEFBE4CDFAE4CCF9A88222B800C1B9B0
:1004CD000059BA002DEC8BF084CFCECDFCE5F0CBEE
:1004DD00F97818EF2FFFEE33FEED33FDEC33FCEB27
:1004ED0033FB10D703994004EB99FB0FD8E5E4F9E2
:1004FD00FA227818EF2FFFEE33FEED33FDEC33FCCF
:10050D00C933C910D7059BE99A4007EC9BFCE99AC2
:10051D00F90FD8E0E4C9FAE4CCFB2275F010EF2F07
:10052D00FFEE33FEED33FDCC33CCC833C810D70707
:10053D009BEC9AE899400AED9BFDEC9AFCE899F842
:0E054D000FD5F0DAE4CDFBE4CCFAE4C8F922D5
:0E055B00C3E49FFFE49EFEE49DFDE49CFC22B1
:10056900EB9FF5F0EA9E42F0E99D42F0E89C45F0E8
:01057900225F
:10057A00E8600FECC313FCED13FDEE13FEEF13FF5F
:03058A00D8F12283
:10058D00BB010DE58229F582E5833AF58302061F4D
:10059D005007E92582F8020612BBFE07E92582F80D
:1005AD0002062BE58229F582E5833AF583020638AA
:1005BD00BC000BBE0029EF8DF084FFADF022E4CC22
:1005CD00F875F008EF2FFFEE33FEEC33FCEE9DECEB
:1005DD00984005FCEE9DFE0FD5F0E9E4CEFD22ED31
:1005ED00F8F5F0EE8420D21CFEADF075F008EF2F7B
:1005FD00FFED33FD4007985006D5F0F222C398FD6C
:05060D000FD5F0EA2208
:0D061200E6FB08E6F908E6FA08E6CBF82258
:0C061F00E0F8A3E0F9A3E0FAA3E0FB225E
:0D062B00E2FB08E2F908E2FA08E2CBF8224F
:10063800E493F8740193F9740293FA740393FB2218
:00000001FF
