:03000000022F10BC
:0C2F1000787FE4F6D8FD758120022F5771
:06368400496E697421008B
:0812BC004504B400000000002D
:10336700122ABE7BFF7A3679847D037F0D122E6E7B
:103377007FF47E0112356012331F12343E123491EE
:10338700900348E0FCA3E0FDA3E0FEA3E0FF900369
:10339700AC1208A67D037F0D121E0F7F647E0012FC
:0733A700356012331F80D9CD
:10356000E4FDFCC3ED9FEC9E50100079207B28DB2E
:0A357000FED9FC0DBD00010C80E93E
:01357A00222E
:10359600E4FDFCC3ED9FEC9E500B7B06DBFE0DBDF0
:0535A60000010C80EEA5
:0135AB0022FD
:10227100EFD394057480948040037F01221205639B
:10228100FED394037480948040037F0222EF704454
:10229100EE700B90000112057CF4529352941205DA
:1022A100636401700B90000112057C4293F4529417
:1022B100120563FE6402700A90000112057C4293CC
:1022C1004294EE6403700D90000112057CFEF452FD
:1022D10093EE4294EF64017046120563FE700B9019
:1022E100000112057CF452915292EE6401700B9040
:1022F100000112057C4291F452921205636402704E
:102301000A90000112057C42914292120563640316
:10231100700D90000112057CFEF45291EE4292EF95
:1023210064027046120563FE700B90000112057C79
:10233100F452955296EE6401700B90000112057CE7
:102341004295F452961205636402700A90000112DC
:10235100057C429542961205636403700D9000015D
:1023610012057CFEF45295EE4296EF64037046121C
:102371000563FE700B90000112057CF452B152B25C
:10238100EE6401700B90000112057C42B1F452B26F
:102391001205636402700A90000112057C42B14289
:1023A100B21205636403700D90000112057CFEF406
:1023B10052B1EE42B2EF64047046120563FE700B37
:1023C10090000112057CF452B352B4EE6401700B1B
:1023D10090000112057C42B3F452B4120563640209
:1023E100700A90000112057C42B342B41205636485
:1023F10003700D90000112057CFEF452B3EE42B45D
:10240100EF64057049120563FF7E00700B900001B7
:1024110012057CF452C952CAEF64014E700B900050
:102421000112057C42C9F452CA1205636402700AA2
:1024310090000112057C42C942CA1205636403700F
:102441000D90000112057CFFF452C9EF42CA7F00D2
:012451002268
:1033AE00EFFD7C00701075BA9090FE8074E0F09086
:1033BE00FE82E4F0801EED64014C701875BA8090A8
:1033CE00FE807481F090FE85745AF090FE84E4F0D5
:0833DE0090FE83F0E4F5BA2231
:10302800D200D201E49004CDF0E02400F8E290FE52
:1030380086F090FE84E030E605E054BFF02290FE72
:1030480084E030E52DE054DFF0300003C200223088
:10305800010DC20190FE87E09004CDF0E0802F9032
:10306800FE87E0FF9004CDE0FE04F074002EF8EF38
:10307800F22290FE84E030E41EE054EFF0E030E10C
:103088000790FE8674FFF0229004CDE004F024003F
:10309800F8E290FE86F02290FE84E030E308E054E7
:0730A800F7F0D200D2012273
:0C364C0090FE82E030E6F9E054BFF0226E
:0936580090FE817401F002364C71
:1035FE0090FE86EFF090FE817402F012364C023689
:01360E00615A
:0936610090FE817403F002364C66
:0F36200090FE817404F012364C90FE87E0FF227A
:0E363E0090FE82E4F090FE817405F002364C9E
:0F362F0090FE827401F090FE817405F002364C1B
:09366A0090FE817406F002364C5A
:1035D800E4FFFE000000000FBF00010EBE0BF4BFA9
:0235E800B8F138
:0135EA0022BE
:10360F00E59A30E103539AFDE59A30E003539AFEB1
:01361F002288
:030023000230AFF9
:1030AF00C0E0C083C082C0D075D000C006C007305A
:1030BF009831C298900376E07029900374E0C3941E
:1030CF000B748094804002E4F0900374E0FF04F0EE
:1030DF00747E2FF582E43403F583E599F090037540
:1030EF007405F0309934C299900372E0FF90037128
:1030FF00E0FE6F602074942EF582E43403F583E0D4
:10310F00F599900371E004F0C3940B7480948040A0
:10311F0009E4F08005900373E4F0D007D006D0D017
:07312F00D082D083D0E03212
:0300430002313651
:10313600C0E0C083C082C0D075D000C006C00712F0
:10314600360F90037DE0702990037BE0C3940B74E7
:103156008094804002E4F090037BE0FF04F07489E1
:103166002FF582E43403F583E59BF090037C740528
:10317600F012360F900379E0FF900378E0FE6F605F
:1031860020749F2EF582E43403F583E0F59B9003CB
:1031960078E004F0C3940B748094804009E4F080D6
:1031A6000590037AE4F0D007D006D0D0D082D08341
:0331B600D0E03234
:100E9C00900496EBF0A3EAF0A3E9F0900495EFF040
:100EAC00D2AF6401600302111390037004F0E4A349
:100EBC00F0A3F0A3F0A3F0A3F0A3F0900499F090AA
:100ECC000499E0FFC3940B74809480501474942F95
:100EDC00F582E43403F583E4F0900499E004F080A7
:100EEC00DEE4900499F0900499E0FFC3940B7480B5
:100EFC0094805014747E2FF582E43403F583E4F06F
:100F0C00900499E004F080DE900496E0FBA3E0FAF4
:100F1C00A3E0F9120563FD7C00D394C07480948027
:100F2C0040037F022290000A12057C64017004D2F7
:100F3C00BC8002C2BC120563FFE598543F4FF59884
:100F4C00ED64C04C6008EF6440600302103E9000FA
:100F5C00021208767F807E8D7D5B7C0012070490E8
:100F6C00049A1208A6E4FFFE7D01FC90049AE0F8B6
:100F7C00A3E0F9A3E0FAA3E0FBC31207A440037FAC
:100F8C00022290049AE0F8A3E0F9A3E0FAA3E0FBB4
:100F9C00C3E49BFFE49AFE740199FDE498FC900471
:100FAC009A1208A6900496E0FBA3E0FAA3E0F9904D
:100FBC00000112057CFB7A0064017038C28E538EDE
:100FCC00FE5389BF5389CF438E4090049AE0FCA313
:100FDC00E0FDA3E0FEA3E0FF78081207B58F8D902B
:100FEC00049AA3A3A3E0F58BC2AB5389BF538FFD27
:100FFC00D28E807DEB64024A7035538EEF438E01A6
:10100C00538EF7438E0490049AE0FCA3E0FDA3E01A
:10101C00FEA3E0FF78081207B58FD690049AA3A31D
:10102C00A3E0F5D753AFFB538EF7438E1080427F6E
:10103C000222900496E0FBA3E0FAA3E0F912056308
:10104C00FF7E00701490000812057C64017005434B
:10105C008E20801D538EDF8018EF64804E701290AE
:10106C00000812057C640170054387808003538758
:10107C007F900496E0FBA3E0FAA3E0F9900009123C
:10108C00057C64017004D2AC8002C2AC90000712E3
:10109C00057C64017004D29C8002C29C90000B12EF
:0410AC00057C700A45
:0810B00090049E7403F0A314E8
:1010B800802F900496E0FBA3E0FAA3E0F990000BE0
:0A10C80012057C648090049E7011F4
:0F10D2007403F0A37480F07B017A04799E7F0190
:0210E100800F7E
:1010E3007403F0A37480F07B017A04799E7F03126A
:0210F300227168
:1010F500900496E0FBA3E0FAA3E0F990000B12053B
:101105007C54C0FFE5A2543F4FF5A27F0022900416
:1011150095E0640260030212B99003777402F0E46B
:10112500A3F0A3F0A3F0A3F0A3F0A3F0900499F02B
:10113500900499E0FFC3940B748094805014749FBD
:101145002FF582E43403F583E4F0900499E004F08C
:1011550080DEE4900499F0900499E0FFC3940B7449
:10116500809480501474892FF582E43403F583E468
:10117500F0900499E004F080DE900496E0FBA3E093
:10118500FAA3E0F9120563FF64C06008EF644060EC
:101195000302123F90000A12057C6401700543B5F5
:1011A50001800353B5FE12056364C07005439A8040
:1011B5008003539A7F9000021208767F807E8D7D92
:1011C5005B7C0012070490049A1208A6E4FFFE7DDA
:1011D50001FC90049AE0F8A3E0F9A3E0FAA3E0FB90
:1011E500C31207A440037F022290049AE0F8A3E00B
:1011F500F9A3E0FAA3E0FBC3E49BFFE49AFE7401C4
:1012050099FDE498FC90049A1208A6538EEF538E2C
:10121500F7438E0490049AE0FCA3E0FDA3E0FEA34F
:10122500E0FF78081207B58FD690049AA3A3A3E030
:10123500F5D753AFFB438E1080037F0222900496AF
:10124500E0FBA3E0FAA3E0F990000912057C640134
:10125500700543AF01800353AFFE90000712057C74
:1012650064017005439A108003539AEF90000B12A6
:07127500057C90049E70103F
:0E127C007403F0A314F07B017A04799E7F01C5
:02128A00800FD3
:10128C007403F0A37480F07B017A04799E7F0412BE
:02129C002271BD
:10129E00900496E0FBA3E0FAA3E0F990000B120590
:0D12AE007C5401FFE5BA54FE4FF5BA7F00F5
:0112BB002210
:10346A009004CEEFF0900373E0701304F09004CE52
:10347A00E0F5993099FDC299E4900373F0227F0533
:07348A007E0012359680DE82
:1033E600900379E0249FF582E43403F583EFF090AF
:1033F6000379E004F0C3940B748094804002E4F0F7
:0C34060090037AE0700504F012360F22EB
:103412009004BDEBF0A3EAF0A3E9F09004BDE0FB59
:10342200A3E0FAA3E0F9120563FF600F12346A9079
:0C34320004BEE475F00112067A80E0226E
:1035EB00120563FF600C1233E6740129F9E43AFA11
:0335FB0080EE223D
:07367C003098FDC298AF99E0
:013683002224
:05368A0012360FAF9B9A
:01368F002218
:10245200900461EBF0A3EAF0A3E9F090045FEEF0E0
:03246200A3EFF0F5
:10246500E4900464F0A3F0C3EE64809480501EE40D
:10247500900468F0A3F090045FE0FEA3E0FFC3E4DE
:102485009FFFE49E90045FF0A3EFF080089004683E
:10249500E4F0A304F090045FE0FEA3E0FF7C007D80
:1024A5000A120644EF4E604B90045FE0FAA3E0FB8E
:1024B5007C007D0AFFAE02120644ED2430FF900435
:1024C50064E0FCA3E0246AF58274043CF583EFF034
:1024D5007C007D0AAF03AE0212064490045FEEF065
:1024E500A3EFF0900465E004F070AA900464E004A2
:1024F500F080A290045FA3E02430FF900464E0FC28
:10250500A3E0246AF58274043CF583EFF090046837
:10251500E07002A3E060030225AB900461E0FBA339
:10252500E0FAA3E0F9742D1205A9900464E0FFA375
:10253500E0A3CFF0A3EFF0900466E0FEA3E0FFD3A5
:1025450094FFEE6480947F404A746A2FF582740488
:102555003EF583E0FF900466E0FCA3E0FDC3900434
:1025650065E09DFD900464E09CCD2401CD3400FC24
:10257500900461E0FBA3E0FAA3E0F98D828C83EF80
:102585001205BB900467E024FFF0900466E034FF79
:10259500F080A4900461E0FBA3E0FAA3E0F99004C5
:1025A50065E024028074900464E0FFA3E0A3CFF00B
:1025B500A3EFF0900466E0FEA3E0FFD394FFEE6482
:1025C50080947F4044746A2FF58274043EF583E05D
:1025D500FF900466E0FCA3E0FDC3900465E09DFD6B
:1025E500900464E09CFC900461E0FBA3E0FAA3E0A6
:1025F500F98D828C83EF1205BB900467E024FFF010
:10260500900466E034FFF080AA900461E0FBA3E04B
:10261500FAA3E0F9900465E02401FF900464E03436
:09262500008F82F583E41205BB6D
:01262E002289
:101B94009004861208A690048AEBF0A3EAF0A3E965
:011BA400F050
:101BA500E4FFFEFDFC900486E0F8A3E0F9A3E0FA6B
:101BB500A3E0FB12032490048AE0FBA3E0FAA3E070
:101BC500F94007742B1205A9801C742D1205A990E4
:101BD5000486E0FCA3E0FDA3E0FEA3E0FF12039D65
:101BE5009004861208A6900486E0FCA3E0FDA3E01D
:101BF500FEA3E0FF1203EC90048FEEF0A3EFF0E4F8
:101C0500A3F0A3F090048FE0FEA3E0FF4E601F7CDD
:101C1500007D0A12064490048FEEF0A3EFF09004C5
:101C250092E004F070DE900491E004F080D6900418
:101C350086E0FCA3E0FDA3E0FEA3E0FF1203EC9029
:101C4500048FEEF0A3EFF0A3E0FFA3E0A3CFF0A392
:101C5500EFF0D3900494E09400900493E0648094B2
:101C650080405490048FE0FEA3E0FF7C007D0A12C3
:101C75000644ED2430FF90048AE0FBA3E0FAA3E0DC
:101C8500F9900493E0FCA3E0F5828C83EF1205BB89
:101C950090048FE0FEA3E0FF7C007D0A12064490CD
:101CA500048FEEF0A3EFF0900494E024FFF090048D
:101CB50093E034FFF0809B90048AE0FBA3E0FAA355
:101CC500E0F9900492E02401FF900491E034008F44
:101CD50082F583742E1205BB900486E0FCA3E0FD1B
:101CE500A3E0FEA3E0FFC004C005C006C007900442
:101CF50086A3A3A3E01203ECAD07AC06EC1203B375
:101D0500A804A905AA06AB07D007D006D005D004BC
:101D15001200899004861208A6900492E02402F02D
:101D2500900491E03400F090048EE024FFFF9004CD
:101D35008DE034FFFEC3900492E09FEE6480F8903E
:101D45000491E06480984003021DEF900486E0FC56
:101D5500A3E0FDA3E0FEA3E0FFE4FBFA79207841D0
:101D650012017E9004861208A6900486E0FCA3E08A
:101D7500FDA3E0FEA3E0FF1203ECEF2430FF900487
:101D85008AE0FBA3E0FAA3E0F9900491E0FCA3E06C
:101D9500F5828C83EF1205BB900486E0FCA3E0FD81
:101DA500A3E0FEA3E0FFC004C005C006C007900481
:101DB50086A3A3A3E01203ECAD07AC06EC1203B3B4
:101DC500A804A905AA06AB07D007D006D005D004FC
:101DD5001200899004861208A6900492E004F0701F
:101DE50006900491E004F0021D2C90048AE0FBA308
:101DF500E0FAA3E0F990048EE024FFFF90048DE063
:0A1E050034FF8F82F583E40205BB71
:0512C4004204C9000016
:0300030002357B48
:10357B00C0E0C083C0829004CAE004F070069004DF
:0B358B00C9E004F0D082D083D0E03211
:0300130002000ADE
:01000A0032C3
:0300530002000E9A
:01000E0032BF
:03005B0002000F91
:01000F0032BE
:0300830002001068
:0100100032BD
:102B8C00EFD394107480948040037F0122D2AFEF76
:102B9C00703090000212057C64017004D2A880028F
:102BAC00C2A890000112057C64017004D2B88002A6
:102BBC00C2B812056364017004D2888002C2887F97
:102BCC000022EF6402703090000212057C640170E8
:102BDC0004D2AA8002C2AA90000112057C64017082
:102BEC0004D2BA8002C2BA12056364017004D28A9C
:102BFC008002C28A7F0022EF640A701590000212D4
:102C0C00057C64017005438F108003538FEF7F00A8
:102C1C0022EF640B701590000212057C64017005A4
:102C2C00438F208003538FDF7F0022EF64107015D9
:102C3C0090000212057C64017005438F40800353A1
:082C4C008FBF7F00227F0222EE
:0A12C9004204B900004204BB00001B
:03000B00022DCBF8
:102DCB00C0E0C0F0C083C082C0D075D000C000C0CE
:102DDB0001C002C003C004C005C006C0079004BAFE
:102DEB00E004F070069004B9E004F09004B9E070D0
:102DFB0004A3E0640A70519004C9E0FCA3E0FDEC6D
:102E0B001203B39003D91208A69003DD1208B20087
:102E1B000000009003E17401F0A37403F0A3742885
:102E2B00F07F011209BB9004751208B2000000007C
:102E3B007B017A047974E4FF1215BF9004B9E4F0B6
:102E4B00A3F09004C9F0A3F0D007D006D005D004AE
:102E5B00D003D002D001D000D0D0D082D083D0F01C
:032E6B00D0E03282
:03001B00022D11A2
:102D1100C0E0C0F0C083C082C0D075D000C000C088
:102D210001C002C003C004C005C006C0079004BCB6
:102D3100E004F070069004BBE004F09004BBE07086
:102D410004A3E0640A706812204B900447E0FCA3DE
:102D5100E0FDA3E0FEA3E0FF12039D9003D912085A
:102D6100A69003DD1208B2000000009003E1740197
:102D7100F0A37403F0A3744CF07F021209BB7F002F
:102D81007E807D137C4390036CE0F8A3E0F9A3E01F
:102D9100FAA3E0FB12008D90047E1208A67B017A53
:102DA10004797D7F011215BF9004BBE4F0A3F0D03C
:102DB10007D006D005D004D003D002D001D000D076
:0A2DC100D0D082D083D0F0D0E032F1
:0300630002001187
:0100110032BC
:10262F00AD07EDD394027480948040037F0122D2D2
:10263F00AFED60030226D7C28C90000212057C64B6
:10264F00017004D2A98002C2A990000112057C6416
:10265F00017004D2B98002C2B9120563FED394038C
:10266F007480948040037F0222E58954FC4EF589E3
:10267F0090000312057CFF7E0064017003538E7F70
:10268F00EF4E7003438E80EF64024E700543890452
:10269F0080035389FB90000412057C64017005438D
:1026AF008F018003538FFE900005120690E5F0F521
:1026BF008C900005120690F58A90000712057C6435
:1026CF00017002D28C7F0022ED640160030227703B
:1026DF00C28E90000212057C64017004D2AB80029E
:1026EF00C2AB90000112057C64017004D2BB800262
:1026FF00C2BB120563FEC394037480948040037FB2
:10270F000222E58954CF4EF58990000312057CFF14
:10271F007E0064017003538EBFEF4E7003438E40F3
:10272F00EF64024E700543894080035389BF9000C8
:10273F000412057C64017005438F028003538FFDE3
:10274F00900005120690E5F0F58D900005120690A9
:10275F00F58B90000712057C64017002D28E7F000A
:10276F0022ED640260030227F8538EEF90000212ED
:10277F00057C6401700543AF04800353AFFB9000E9
:10278F000312057CFD7C00D3940274809480400377
:10279F007F0222ED64014C7003538EFB90000312F5
:1027AF00057C7003438E0490000312057C64027055
:1027BF0005438E088003538EF790000412057C6446
:1027CF00017005438F048003538FFB9000051206A1
:1027DF0090FDACF0ECF5D68DD790000712057C6418
:0C27EF00017003438E107F00227F022245
:1034DC001205639004C0F090000112057C9004C1A9
:1034EC00F090000212057C9004C2F07B017A047902
:0434FC00C0022B8C53
:10002E00E49004C3F0A304F0A3F0FB7A0479C3E4D4
:04003E00FF0234DCAD
:1012D30060240328402000003F4CCCCD00000000D8
:1012E3000000000000000000000000004475000042
:1012F30000000000000000006024034C3FC0000019
:1013030000000000000000000000000000000000DA
:101313000000000042E10000C2E100000000000004
:1009BB009003D8EFF06003020B869003E1E0FBA3FA
:1009CB00E0FAA3E0F990000C1207E890001012086F
:1009DB00329003D9E0F8A3E0F9A3E0FAA3E0FBA37C
:1009EB00E0FCA3E0FDA3E0FEA3E0FF12008990036F
:1009FB00E1E0FBA3E0FAA3E0F990000C120832E966
:100A0B002414F9E43AFAC003C002C0011207C890DB
:100A1B0003E1E0FBA3E0FAA3E0F990000C120876E7
:100A2B0012008DD001D002D0031208189003E1E020
:100A3B00FBA3E0FAA3E0F99000141207E8E4FBFA39
:100A4B0079A0784012032450159003E1E0FBA3E05A
:100A5B00FAA3E0F99000141208E340A00000900301
:100A6B00E1E0FBA3E0FAA3E0F99000141207E8E43D
:100A7B00FBFA79A078C0120324601740159003E1AC
:100A8B00E0FBA3E0FAA3E0F99000141208E3C0A086
:100A9B0000009003E1E0FBA3E0FAA3E0F99000145F
:100AAB001207E890000412087612017EC004C005FC
:100ABB00C006C0079003E1E0FBA3E0FAA3E0F990C6
:100ACB00000C1207E812085612017ED003D002D098
:100ADB0001D00012008DC004C005C006C0079003F2
:100AEB00E1E0FBA3E0FAA3E0F9900010120876C056
:100AFB0000C001C002C0039003E1E0FBA3E0FAA336
:100B0B00E0F990000C1207E8D003D002D001D0001E
:100B1B001200899003E1E0FBA3E0FAA3E0F9900057
:100B2B000812087612017ED003D002D001D0001239
:100B3B00008D9003E1E0FBA3E0FAA3E0F990002025
:100B4B001208329000181207E89000201208761253
:100B5B00032460054003020E589003E1E0FBA3E081
:100B6B00FAA3E0F990001C1207E890002012087617
:100B7B001203244003020E9B020E849003D8E06400
:100B8B00016003020CC89003E1E0FBA3E0FAA3E0D1
:100B9B00F990000C1207E89000101208329003D95C
:100BAB00E0F8A3E0F9A3E0FAA3E0FBA3E0FCA3E0E9
:100BBB00FDA3E0FEA3E0FF1200899003E1E0FBA39D
:100BCB00E0FAA3E0F990000C120832E92420F9E4D2
:100BDB003AFAC003C002C0011207C8C004C005C066
:100BEB0006C0079003E1E0FBA3E0FAA3E0F9900055
:100BFB0010120876C000C001C002C0039003E1E0F0
:100C0B00FBA3E0FAA3E0F990000C1207E8D003D0A5
:100C1B0002D001D0001200899003E1E0FBA3E0FABF
:100C2B00A3E0F912085612017EC004C005C006C02D
:100C3B00079003E1E0FBA3E0FAA3E0F990000C12AC
:100C4B0007E890000412087612017EA804A905AAF1
:100C5B0006AB07D007D006D005D00412008DA80430
:100C6B00A905AA06AB07D007D006D005D004120001
:100C7B008DD001D002D0031208189003E1E0FBA342
:100C8B00E0FAA3E0F99000181207E8900020120890
:100C9B007612032460054003020E589003E1E0FB3B
:100CAB00A3E0FAA3E0F990001C1207E890002012D1
:100CBB0008761203244003020E9B020E849003D885
:100CCB00E064026003020E9B9003E1E0FBA3E0FAF9
:100CDB00A3E0F990000C1207E89000101208329074
:100CEB0003D9E0FCA3E0FDA3E0FEA3E0FFA3E0F843
:100CFB00A3E0F9A3E0FAA3E0FB12008D9003E1E07F
:100D0B00FBA3E0FAA3E0F990000C120832E92414DB
:100D1B00F9E43AFAC003C002C0011207C89003D924
:100D2B00E0F8A3E0F9A3E0FAA3E0FB12008DD001F9
:100D3B00D002D0031208189003E1E0FBA3E0FAA362
:100D4B00E0F99000141207E8E4FBFA79A07840125E
:100D5B00032450159003E1E0FBA3E0FAA3E0F99024
:100D6B0000141208E340A000009003E1E0FBA3E0B5
:100D7B00FAA3E0F99000141207E8E4FBFA79A078E3
:100D8B00C0120324601740159003E1E0FBA3E0FAC7
:100D9B00A3E0F99000141208E3C0A000009003E157
:100DAB00E0FBA3E0FAA3E0F99000141207E890002F
:100DBB000412087612017EC004C005C006C007905D
:100DCB0003E1E0FBA3E0FAA3E0F990000C1207E8C3
:100DDB0012085612017ED003D002D001D0001200AF
:100DEB008DC004C005C006C0079003E1E0FBA3E083
:100DFB00FAA3E0F9900008120876C000C001C00207
:100E0B00C003900453E0FCA3E0FDA3E0FEA3E0FFCE
:100E1B0012039DD003D002D001D00012017ED0036B
:100E2B00D002D001D00012008D9003E1E0FBA3E0D3
:100E3B00FAA3E0F99000201208329000181207E88C
:100E4B00900020120876120324601240109003E1E8
:100E5B00E0FBA3E0FAA3E0F9900018802A9003E1ED
:100E6B00E0FBA3E0FAA3E0F990001C1207E8900066
:100E7B002012087612032450179003E1E0FBA3E045
:100E8B00FAA3E0F990001C1207E890002012083238
:010E9B002234
:10349100E49003AAF0A304F0A3F0E4A3F0A304F0E2
:1034A100A374A2F0A37440F0A37401F0FB7A037932
:0634B100AAE4FF02262F31
:1013230049047400000000004643500049047D0056
:081333004313800042C80000D2
:0E15BF009003D8EFF0A3EBF0A3EAF0A3E9F05D
:1015CD00A31208B2000000009003E01208B2000060
:1015DD0000009003D9E0FBA3E0FAA3E0F990000529
:1015ED001208767F007E1B7DB77C4912028790031F
:1015FD00DC1208A69003D9E0FBA3E0FAA3E0F99072
:10160D000001120876E4FFFE7D7A7C44120089E425
:10161D00FBFA797A78441202879003E01208A675D6
:10162D00BA8090FFF2740FF09003DCE0FCA3E0FDB4
:10163D00A3E0FEA3E0FF1203EC90FFF0EEF0A3EFAA
:10164D00F09003D8E0B4080040030218B59016617D
:10165D00F82828730216790216C1021709021751CC
:10166D000217990217E102182902187090FF00E481
:10167D00F0A3F09003E0E0FCA3E0FDA3E0FEA3E007
:10168D00FF9003DCE0F8A3E0F9A3E0FAA3E0FB127E
:10169D00017E1203EC90FF02EEF0A3EFF09003D960
:1016AD00E0FBA3E0FAA3E0F9120563448090FF0488
:1016BD00F00218B590FF10E4F0A3F09003E0E0FC09
:1016CD00A3E0FDA3E0FEA3E0FF9003DCE0F8A3E0C0
:1016DD00F9A3E0FAA3E0FB12017E1203EC90FF12D6
:1016ED00EEF0A3EFF09003D9E0FBA3E0FAA3E0F94D
:1016FD00120563448090FF14F00218B590FF20E4AA
:10170D00F0A3F09003E0E0FCA3E0FDA3E0FEA3E076
:10171D00FF9003DCE0F8A3E0F9A3E0FAA3E0FB12ED
:10172D00017E1203EC90FF22EEF0A3EFF09003D9AF
:10173D00E0FBA3E0FAA3E0F9120563448090FF24D7
:10174D00F00218B590FF30E4F0A3F09003E0E0FC58
:10175D00A3E0FDA3E0FEA3E0FF9003DCE0F8A3E02F
:10176D00F9A3E0FAA3E0FB12017E1203EC90FF3225
:10177D00EEF0A3EFF09003D9E0FBA3E0FAA3E0F9BC
:10178D00120563448090FF34F00218B590FF40E4D9
:10179D00F0A3F09003E0E0FCA3E0FDA3E0FEA3E0E6
:1017AD00FF9003DCE0F8A3E0F9A3E0FAA3E0FB125D
:1017BD00017E1203EC90FF42EEF0A3EFF09003D9FF
:1017CD00E0FBA3E0FAA3E0F9120563448090FF4427
:1017DD00F00218B590FF50E4F0A3F09003E0E0FCA8
:1017ED00A3E0FDA3E0FEA3E0FF9003DCE0F8A3E09F
:1017FD00F9A3E0FAA3E0FB12017E1203EC90FF5275
:10180D00EEF0A3EFF09003D9E0FBA3E0FAA3E0F92B
:10181D00120563448090FF54F00218B590FF60E408
:10182D00F0A3F09003E0E0FCA3E0FDA3E0FEA3E055
:10183D00FF9003DCE0F8A3E0F9A3E0FAA3E0FB12CC
:10184D00017E1203EC90FF62EEF0A3EFF09003D94E
:10185D00E0FBA3E0FAA3E0F9120563448090FF6476
:10186D00F0804590FF70E4F0A3F09003E0E0FCA35E
:10187D00E0FDA3E0FEA3E0FF9003DCE0F8A3E0F9B8
:10188D00A3E0FAA3E0FB12017E1203EC90FF72EECF
:10189D00F0A3EFF09003D9E0FBA3E0FAA3E0F91277
:0E18AD000563448090FF74F0E4F5BA75FE8088
:0118BB00220A
:10133B0058044700000000000000000000000000FF
:0B134B00000000000000000000000097
:10204B00E49003D8F0FFFEA3F075BA901236587FD8
:10205B00A01235FE7F3D1235FE1236587FA1123588
:10206B00FE1236209003D8EFF012363E1236209037
:10207B0003D9EFF012362F12366A9003D9E0FE9097
:10208B0003D8E0FDEDFFAC06EC1203B3E4FBFAF969
:10209B007847120287E4FBFA7934784312017E9079
:1020AB0004471208A61236587FA01235FE7F3E1247
:1020BB0035FE1236587FA11235FE1236209003D80A
:1020CB00EFF012363E1236209003D9EFF012362F76
:1020DB0012366A9003D9E0FE9003D8E0FDEDFFAC19
:1020EB0006EC1203B3E4FBFAF97847120287E4FB20
:1020FB00FA7934784312017E90044B1208A61236FB
:10210B00587FA01235FE7F3F1235FE1236587FA145
:10211B001235FE1236209003D8EFF012363E1236EF
:10212B00209003D9EFF012362F12366A9003D9E0C4
:10213B00FE9003D8E0FDEDFFAC06EC1203B3E4FB1D
:10214B00FAF97847120287E4FBFA793478431201E3
:10215B007E90044F1208A61236587FA01235FE7FD0
:10216B00371235FE1236587FA11235FE12362090EB
:10217B0003D8EFF012363E1236209003D9EFF0124F
:10218B00362F12366A9003D9E0FE9003D8E0FDEDAE
:10219B00FFAC06EC1203B3E4FBFAF97847120287A3
:1021AB00E4FBFA79FA784412017E9004531208A6E4
:1021BB001236587FA01235FE7F381235FE12365874
:1021CB007FA11235FE1236209003D8EFF012363E67
:1021DB001236209003D9EFF012362F12366A900385
:1021EB00D9E0FE9003D8E0FDEDFFAC06EC1203B393
:1021FB00E4FBFAF97847120287E4FBFA79FA7844A0
:10220B0012017E9004571208A61236587FA0123581
:10221B00FE7F391235FE1236587FA11235FE12366B
:10222B00209003D8EFF012363E1236209003D9EFF0
:10223B00F012362F12366A9003D9E0FE9003D8E0E5
:10224B00FDEDFFAC06EC1203B3E4FBFAF978471291
:10225B000287E4FBFA79FA784412017E90045B1250
:05226B0008A6E4F5BA2D
:01227000224B
:10343E00E49003AAF0A304F0A3F0E4A3F0A304F035
:10344E00A374A2F0A37440F0A37401F0E4FF12334E
:0C345E00AE7B017A0379AA7F0102262FC1
:03002B00020006CA
:0400060053BCDF32D6
:10321C00D2AFE4F592120563429190000112057C45
:10322C00FFE5BC549F4FF5BC90000212057C640175
:10323C00700543BC80800353BC7F90000312057C57
:10324C006401700543DE20800353DEDF900005121D
:10325C00057C64017004D2AD8002C2AD90000412F2
:0C326C00057C64017003D2BD22C2BD22AB
:0D004600EF6401700443BC802253BC7F2294
:102F9C00EFD39407748094804002807BE4F5BDF5F8
:102FAC00BEE5BC54E044404FF5BC0000E4FDEDC36D
:102FBC0094FA74809480505FE5BC20E55753BCDFD5
:102FCC00E5DE30E51FE5BD540FFF9004CBE4F0A324
:102FDC00EFF0E0FEACBEECFBEBFF9004CBEEF0A30D
:102FEC00EFF08027AFBDEF9004CBF0A3E4F0AFBEC1
:102FFC009004CBE0F0A3E04FF09004CBE0C4F85485
:10300C00F0C868F0A3E0C4540F48F09004CBE0FE85
:0B301C00A3E0FF220D80977E047F00E0
:013027002286
:10135600622801000000000000000000002F0000CD
:1013660000000700070000147F147F1400242A7F62
:101376002A120062640813230036495522500000E1
:101386000503000000001C224100000041221C0051
:101396000014083E08140008083E0808000000A0D3
:1013A60060000008080808080000606000000020CF
:1013B60010080402003E5149453E0000427F4000AD
:1013C600004261514946002141454B310018141233
:1013D6007F10002745454539003C4A494930000100
:1013E6007109050300364949493600064949291E4F
:1013F60000003636000000005636000000081422B1
:1014060041000014141414140000412214080002B0
:101416000151090600324959513E007C1211127CD5
:10142600007F49494936003E41414122007F414102
:10143600221C007F49494941007F09090901003EF4
:101446004149497A007F0808087F0000417F410032
:10145600002040413F01007F08142241007F4040A8
:101466004040007F020C027F007F0408107F003E90
:101476004141413E007F09090906003E4151215E76
:10148600007F091929460046494949310001017F73
:101496000101003F4040403F001F2040201F003F09
:1014A6004038403F006314081463000708700807BB
:1014B60000615149454300007F41410000552A55CE
:1014C6002A55000041417F00000402010204004049
:1014D600404040400000010204000020545454786B
:1014E600007F48444438003844444420003844448B
:1014F600487F00385454541800087E090102001829
:10150600A4A4A47C007F080404780000447D400065
:10151600004080847D00007F102844000000417F49
:101526004000007C04180478007C08040478003825
:101536004444443800FC242424180018242418FCAD
:10154600007C0804040800485454542000043F4416
:101556004020003C4040207C001C2040201C003CD9
:101566004030403C004428102844001CA0A0A07C29
:0C157600004464544C4414141414141465
:06367300D2A37F027E00DD
:0336790002359681
:1035AC00123673D2A6123675C2A6123675C2A37F16
:0635BC00027E00023679D8
:1035C200C2A3123675C2A6123675123673D2A67F00
:0635D200027E00023679C2
:0531B9009003CAEFF0D5
:1031BE00E4A3F09003CBE0C3940874809480503362
:1031CE009003CAE030E704D2A68002C2A67F017E39
:1031DE0000123679D2A37F017E00123679C2A37F08
:1031EE00017E001236799003CAE025E0F0A3E004D8
:1031FE00F080C0D2A67F017E00123679D2A37F0165
:0E320E007E00123679C2A37F017E000236795F
:100066009003C8EFF01235AC7F781231B97F401299
:0D00760031B99003C8E0FF1231B90235C264
:04352300EF24B0FFE2
:103527009003C9EFF01235AC7F781231B9E4FF127E
:0D35370031B99003C9E0FF1231B90235C26D
:1034B7009003C8EFF0ED24B0FF1235279003C8E062
:1034C70054F0C4540F4410FF1235279003C8E0543A
:0534D7000FFF02352784
:0532D1009003ACEFF0DA
:1032D600E4A3F09003ADE0FFC3940874809480509B
:1032E600371235237F011235277F10123527E490D8
:1032F60003AEF09003AEE0C39484748094805010C3
:103306009003ACE0FF1200669003AEE004F080E3A9
:083316009003ADE004F080BB60
:01331E00228C
:10331F00E49003AAF09003AAE0FFC394087480948A
:10332F008050341235237F011235277F1012352735
:10333F00E49003ABF09003ABE0C39484748094806B
:10334F00500DE4FF1200669003ABE004F080E690AE
:07335F0003AAE004F080BEA8
:013366002244
:102ABE00E49003AAF0A37408F07B017A0379AA7F4D
:102ACE00021222717B017A0379AA7F031222717B93
:102ADE00017A0379AA7F04122271D2A3C2A77FF4CE
:102AEE007E01123560D2A77FAE123527E4FF123574
:102AFE00277F101235277F401235277F8112352709
:102B0E007FCF1235277FA11235277FC81235277F39
:102B1E00A61235277FA81235277F3F1235277FD380
:102B2E00123527E4FF1235277FD51235277F801205
:102B3E0035277FD91235277FF11235277FDA1235E7
:102B4E00277F121235277FDB1235277F401235275C
:102B5E007F201235277F021235277F8D1235277F72
:102B6E00141235277FA41235277FA61235277FAF83
:0E2B7E00123527E4FF1232D1E4FDFF0234B716
:0A3278009004C7EDF09004C6EFF0DB
:10328200A3E0FE131313541FFD1234B79004C7E0DA
:10329200FF5407FEF87401088002C333D8FC90047F
:1032A200C8F0EF131313541F24B0FF1235279004F4
:1032B200C6E054F0C4540F4410FF1235279004C6E0
:0F32C200E0540FFF1235279004C8E0FF020066AA
:102E6E009003C0EFF0A3EDF0A3EBF0A3EAF0A3E91B
:012E7E00F063
:102E7F00E4A3F0A3F0A3F09003C2E0FBA3E0FAA356
:102E8F00E0F99003C7E0F58275830012057C60704E
:102E9F0024E09003C5F09003C0E0D3947E74809437
:102EAF00804006E4F0A3E004F09003C0E0FFA3E04D
:102EBF00FD1234B7E49003C6F09003C6E0FFC3944D
:102ECF00067480948050299003C5E075F006A42401
:102EDF0000F582E5F03401F583E5822FF582E435C4
:102EEF0083F583E0FF1200669003C6E004F080C90B
:102EFF009003C0E02406F09003C7E004F0022E8692
:012F0F00229F
:082C54009004A0EFF0A3EDF0E5
:102C5C00E49004A7F0FC7D0AAF03AE021205EFED81
:102C6C0024309004A6F07C007D0AAF03AE0212055E
:102C7C00EF7C007D0A1205EFED24309004A5F07C6A
:102C8C00007D64AF03AE021205EF7C007D0A1205D5
:102C9C00EFED24309004A4F07C037DE8AF03AE028A
:102CAC001205EF7C007D0A1205EFED24309004A391
:102CBC00F0AE02AF037C277D101205EF7C007D0A7D
:102CCC001205EFED24309004A2F0E4FFEFC394045E
:102CDC0074809480501E74A22FF582E43404F58322
:102CEC00E0B4301074A22FF582E43404F583742020
:102CFC00F00F80D89004A0E0FFA3E0FD7B017A04E4
:052D0C0079A2022E6E09
:0F27FB0090042BEFF0A3EDF0A3EAF0FEA3EBF0B8
:10280A00E4FBFAC3EE64809480501EE4900431F035
:10281A00A3F090042DE0FEA3E0FFC3E49FFFE49E33
:10282A0090042DF0A3EFF08008900431E4F0A304A3
:10283A00F090042DE0FEA3E0FF7C007D0A1206441E
:10284A00EF4E603D90042DE0FEA3E0FF7C007D0A80
:10285A00120644ED2430FF74332BF58274043AF5E2
:10286A0083EFF090042DE0FEA3E0FF7C007D0A12C6
:10287A00064490042DEEF0A3EFF00BBB00010A8092
:10288A00B090042DA3E02430FF74332BF582740436
:10289A003AF583EFF0900431E07002A3E0706090A3
:1028AA00043D742DF090042FEAF0A3EBF090042F6E
:1028BA00E0FEA3E0FFD394FFEE6480947F40377478
:1028CA00332FF58274043EF583E0FF90042FE0FC79
:1028DA00A3E0FDC3EB9DFDEA9CFC743E2DF58274DA
:1028EA00043CF583EFF0900430E024FFF090042FCD
:1028FA00E034FFF080B7743F2BF58274048058905F
:10290A00042FEAF0A3EBF090042FE0FEA3E0FFD33C
:10291A0094FFEE6480947F403774332FF5827404F9
:10292A003EF583E0FF90042FE0FCA3E0FDC3EB9D9E
:10293A00FDEA9CFC743D2DF58274043CF583EFF0AE
:10294A00900430E024FFF090042FE034FFF080B7C9
:10295A00743E2BF58274043AF583E4F090042BE07C
:0D296A00FFA3E0FD7B017A04793D022E6E93
:081E0F009003AAEFF0A3EDF02F
:101E17009003B4E4F0A3740AF0E4FFFEFDFC900322
:101E2700ACE0F8A3E0F9A3E0FAA3E0FB12032490E7
:101E370003B64005742BF0801A742DF09003ACE0C4
:101E4700FCA3E0FDA3E0FEA3E0FF12039D9003AC1B
:101E57001208A69003ACE0FCA3E0FDA3E0FEA3E01C
:101E6700FF1203EC9003B0EEF0A3EFF0E4A3F0A3AE
:101E7700F09003B0E0FEA3E0FF4E601F7C007D0AF8
:101E87001206449003B0EEF0A3EFF09003B3E00422
:101E9700F070DE9003B2E004F080D69003ACE0FC73
:101EA700A3E0FDA3E0FEA3E0FF1203EC9003B0EE76
:101EB700F0A3EFF0A3E0FEA3E0FBAA06D3EB9400A8
:101EC700EA64809480403D9003B0E0FEA3E0FF7C8D
:101ED700007D0A120644ED2430FF74B62BF5827498
:101EE700033AF583EFF09003B0E0FEA3E0FF7C0038
:101EF7007D0A1206449003B0EEF0A3EFF0EB1B70DF
:101F0700BB1A80B89003B2E0FEA3E024B7F5827451
:101F1700033EF583742EF09003ACE0FCA3E0FDA331
:101F2700E0FEA3E0FFC004C005C006C0079003ACF5
:101F3700A3A3A3E01203ECAD07AC06EC1203B3A80E
:101F470004A905AA06AB07D007D006D005D004120E
:101F570000899003AC1208A69003B3E02402F09026
:101F670003B2E03400F09003B5E024FFFF9003B420
:101F7700E034FFFEC39003B3E09FEE6480F8900364
:101F8700B2E064809840030220289003ACE0FCA3F1
:101F9700E0FDA3E0FEA3E0FFE4FBFA79207841121D
:101FA700017E9003AC1208A69003ACE0FCA3E0FD11
:101FB700A3E0FEA3E0FF1203ECEF2430FF9003B28F
:101FC700E0FCA3E024B6F58274033CF583EFF090C0
:101FD70003ACE0FCA3E0FDA3E0FEA3E0FFC004C068
:101FE70005C006C0079003ACA3A3A3E01203ECADA2
:101FF70007AC06EC1203B3A804A905AA06AB07D0E1
:1020070007D006D005D0041200899003AC1208A6A9
:102017009003B3E004F070069003B2E004F0021FEF
:102027006D9003B4E0FEA3E024B5F58274033EF59A
:1020370083E4F09003AAE0FFA3E0FD7B017A037934
:04204700B6022E6E41
:1035000000000000000000000000000000000000BB
:1035100000000000000000000000000000000000AB
:03352000000000A8
:101582004C03FC01F401F401F401F401F401F44C04
:1015920003F000C800C800C800C800C800C8420361
:1015A200E600004203E400004203EC00004203E8CC
:0C15B20000004203EE00004203EA0000CB
:103544009004A87401F0A37440F0A37401F0A3F0F4
:0C355400A3F0A3F0FB7A0479A802321C5B
:05297700900408EFF0E0
:10297C00E4A3F0A3F0A3F0A3F0A3F0780E7C047D05
:10298C00017BFF7A357900FE7F1812053D78267C95
:10299C00047D017BFF7A3579187E007F0512053D99
:1029AC00E4900409F0900409E0C3940C74809480C2
:1029BC00502B900408E0FF122F9C900409E025E0B6
:1029CC00240EF582E43404F583EEF0A3EFF07F647B
:1029DC007E00123596900409E004F080C8E4FFEF05
:1029EC00C3940B748094804003022A76E4FEC37473
:1029FC000B9FFDEEC39D506EEE25E02410F582E496
:102A0C003404F583E0FCA3E0FDEE25E0240EF58212
:102A1C00E43404F583E0FAA3E0FBD39DEA9C404345
:102A2C0090040CEAF0A3EBF0EE25E02410F582E420
:102A3C003404F583E0FCA3E0FDEE25E0240EF582E2
:102A4C00E43404F583ECF0A3EDF090040CE0FCA36B
:102A5C00E0FDEE25E02410F582E43404F583ECF07F
:102A6C00A3EDF00E80880F0229EB9004097401F09D
:102A7C00900409E0FFC3940B748094805025EF25DB
:102A8C00E0240EF582E43404F583E0FEA3E0FF902D
:102A9C00040BE02FF090040AE03EF0900409E004EF
:102AAC00F080CD90040AE0FEA3E0FF7C007D0A02DA
:022ABC0005EF24
:1018BC0078AE7C047D017BFF7A35791D7E007F0636
:1018CC0012053DE4FF1229779004AEEFF07F011270
:1018DC0029779004AFEFF07F021229779004B0EFD4
:1018EC00F07F031229779004B1EFF07F041229776F
:1018FC009004B2EFF07F051229779004B3EFF090CB
:10190C0004AEE0FF7E00D39003F1E09F9003F0E083
:10191C009E4003EE8016C39003FDE09F9003FCE015
:10192C009E500D9004AEE0FF9003FCE4F0A3EFF0AA
:10193C009004AFE0FF7E00D39003F3E09F9003F29E
:10194C00E09E4003EE8016C39003FFE09F9003FEE1
:10195C00E09E500D9004AFE0FF9003FEE4F0A3EF87
:10196C00F09004B0E0FF7E00D39003F5E09F90036D
:10197C00F4E09E4003EE8016C3900401E09F9004B7
:10198C0000E09E500D9004B0E0FF900400E4F0A342
:10199C00EFF09004B1E0FF7E00D39003F7E09F904E
:1019AC0003F6E09E4003EE8016C3900403E09F9084
:1019BC000402E09E500D9004B1E0FF900402E4F0AC
:1019CC00A3EFF09004B2E0FF7E00D39003F9E09F08
:1019DC009003F8E09E4003EE8016C3900405E09F50
:1019EC00900404E09E500D9004B2E0FF900404E4D7
:1019FC00F0A3EFF09004B3E0FF7E00D39003FBE084
:101A0C009F9003FAE09E4003EE8016C3900407E01B
:101A1C009F900406E09E500D9004B3E0FF900406E6
:101A2C00E4F0A3EFF09004AEE0FF9003F0E0FCA331
:101A3C00E0FDC3EF9DFFE49CFE7C007D641205DDA0
:101A4C009003F0E0FCA3E0FDC39003FDE09DFD904E
:101A5C0003FCE09CFC1205EF9003E6EEF0A3EFF024
:101A6C009004B3E0FF9003FAE0FCA3E0FDC3EF9D0C
:101A7C00FFE49CFE7C007D641205DD9003FAE0FC23
:101A8C00A3E0FDC3900407E09DFD900406E09CFCE0
:101A9C001205EF9003E4EEF0A3EFF09004AFE0FF3B
:101AAC009003F2E0FCA3E0FDC3EF9DFFE49CFE7C01
:101ABC00007D641205DD9003F2E0FCA3E0FDC39011
:101ACC0003FFE09DFD9003FEE09CFC1205EF9003EC
:101ADC00ECEEF0A3EFF09004B2E0FF9003F8E0FC22
:101AEC00A3E0FDC3EF9DFFE49CFE7C007D6412052A
:101AFC00DD9003F8E0FCA3E0FDC3900405E09DFD40
:101B0C00900404E09CFC1205EF9003E8EEF0A3EFC8
:101B1C00F09004B0E0FF9003F4E0FCA3E0FDC3EF11
:101B2C009DFFE49CFE7C007D641205DD9003F4E0D7
:101B3C00FCA3E0FDC3900401E09DFD900400E09C3B
:101B4C00FC1205EF9003EEEEF0A3EFF09004B1E081
:101B5C00FF9003F6E0FCA3E0FDC3EF9DFFE49CFEC9
:101B6C007C007D641205DD9003F6E0FCA3E0FDC370
:101B7C00900403E09DFD900402E09CFC1205EF90A4
:071B8C0003EAEEF0A3EFF005
:011B9300222F
:10008600020458E86480F8E933E83360110460F04C
:10009600ED33EC337009E8FCE9FDEAFEEBFF2204E0
:1000A60060DED3EB9FEA9EE99DE8C2E78CF0C2F7DB
:1000B60095F0400CE8CCF8E9CDF9EACEFAEBCFFBA7
:1000C60012042385D0F05804700320D5B3E80470D9
:1000D600075002B2D502046292D5EC0460F7E4CC74
:1000E600C0E0C398F8603B94186008400DD0E0FB70
:1000F60002043AE4FBFAC9FC8028E830E406E4C9C5
:10010600FBE4CAFCE830E305E4C9CACBFCE85407C3
:100116006010F8C3E913F9EA13FAEB13FBEC13FCCE
:10012600D8F130F52FC3E49CFCEF9BFFEE9AFEED71
:1001360099FDD0E0FBEF4E4D4C701222DB0302041A
:100146005FEC2CFCEF33FFEE33FEED33FDED30E7D5
:10015600EB02043AEF2BFFEE3AFEED39FDD0E0FB61
:1001660050130BBB0003020462ED13FDEE13FEEF0A
:0801760013FFEC13FC02043A34
:10017E00EC4D6011E8497017ED33EC3304600DE47B
:10018E00FCFFFEFD22E933E8330470F80204581236
:10019E00042358046009E4CC248150062850090237
:1001AE00046228400302045FC0E0EB4A7044B98049
:1001BE0006D0E0FB02044EEF4E701CBD8008EBFF34
:1001CE00EAFEE9FD80EBE98DF0A4FEE5F0020267A0
:1001DE00E9CDF9EAFEEBFFEF89F0A4FCE5F0CE895C
:1001EE00F0A42EFFE435F0CD89F0A42DFEE435F019
:1001FE008067EF4E7005BD80D780C3EF8BF0A4AC47
:10020E00F0EE8BF0A42CFCE435F0F8EF8AF0A42C81
:10021E00E5F038FCE433CB8DF0A42CFCE5F03BF894
:10022E00EE8AF0A42CFCE5F038F8E433CF89F0A484
:10023E002CFCE5F038CF3400CE89F0A42FFFE5F08A
:10024E003EFEE433C98DF0A42EFEE5F039CD8AF0E2
:10025E00A42FFFE5F03EFEE43DFD33D0E0FB50075A
:10026E000BBB000F020462EC2CFCEF33FFEE33FEEF
:06027E00ED33FD02043A1D
:10028400020462EC5D046005E8590470030204583A
:10029400120423580460F6EC4860F2EC7004FDFE8E
:1002A400FF22C860DB2481C85009C398600250064D
:1002B40002045F9850CAF582E9294B4A7005AB8263
:1002C40002044E75F0007C1A7880C3EF9BEE9AED21
:1002D40099400DC3EF9BFFEE9AFEED99FDE842F0C5
:1002E400DC23ACF0D0E0FFD0E0FED0E0FDAB822018
:1002F400E7101BEB60BAEC2CFCEF33FFEE33FEEDA2
:1003040033FD02043AE803F830E705C0F075F00065
:10031400EF2FFFEE33FEED33FD40B830E7C280AA85
:1003240074F8CC6480CCC86480C8F58204604FC380
:10033400EB9FF5F0EA9E42F0E99D42F0E89C45F01F
:10034400603C501DE5825FFFE582D313CB5BCBF4A9
:100354002B5582FB50280ABA002409B900200880D2
:100364001DE5825BFBE582D313CF5FCFF4C3132F6C
:100374005582FF50090EBE00050DBD00010CC3EBF4
:100384009FF5F0EA9E42F0E99D42F0E89C45F0605A
:0903940007CC4820E701B3EC227C
:10039D00ED33EC33600A047003BD8004ECB2E7FC6E
:0103AD00222D
:1003AE0075F020800E75F010800575F0087D007ECA
:1003BE00007F003392D530D503120796EC334010F0
:1003CE00EF33FFEE33FEED33FDEC33FCD5F0ED22D3
:0E03DE00E5F0247EA2D513CC92E7CDCEFF220F
:1003EC00EDD2E7CD33EC3392D524814006E4FFFE09
:1003FC00FDFC22FCE4CFCECDCC24E0501174FF8068
:10040C00EDC3CC13CCCD13CDCE13CECF13CF047004
:07041C00F030D5DE02079667
:10042300E9D2E7C933E833F892D5EDD2E7CD33EC1F
:0704330033FC5002B2D52298
:10043A00EC30E7100FBF000C0EBE00080DBD000423
:10044A000BEB6014A2D5EB13FCED92E7FD2274FFCF
:10045A00FCFDFEFF22E480F8A2D574FF13FC7D8028
:03046A00E480EF3C
:102F1C00023367E493A3F8E493A34003F68001F231
:102F2C0008DFF48029E493A3F85407240CC8C333B6
:102F3C00C4540F4420C8834004F456800146F6DF85
:102F4C00E4800B01020408102040809012BCE47E47
:102F5C00019360BCA3FF543F30E509541FFEE4937A
:102F6C00A360010ECF54C025E060A840B8E493A341
:102F7C00FAE493A3F8E493A3C8C582C8CAC583CA6C
:102F8C00F0A3C8C582C8CAC583CADFE9DEE780BE24
:0115BE00002C
:10046D00E709F608DFFA8046E709F208DFFA803E71
:10047D0088828C83E709F0A3DFFA8032E309F6085E
:10048D00DFFA8078E309F208DFFA807088828C83C6
:10049D00E309F0A3DFFA806489828A83E0A3F6087A
:1004AD00DFFA805889828A83E0A3F208DFFA804C54
:1004BD0080D280FA80C680D4806980F2803380102B
:1004CD0080A680EA809A80A880DA80E280CA803394
:1004DD0089828A83ECFAE493A3C8C582C8CCC5830C
:1004ED00CCF0A3C8C582C8CCC583CCDFE9DEE780DC
:1004FD000D89828A83E493A3F608DFF9ECFAA9F05B
:10050D00EDFB2289828A83ECFAE0A3C8C582C8CCB0
:10051D00C583CCF0A3C8C582C8CCC583CCDFEADEC9
:10052D00E880DB89828A83E493A3F208DFF980CC2B
:10053D0088F0EF60010E4E60C388F0ED2402B40424
:10054D000050B9F582EB2402B4040050AF232345CB
:06055D0082239004BD732F
:10056300BB010689828A83E0225002E722BBFE0296
:09057300E32289828A83E49322C9
:10057C00BB010CE58229F582E5833AF583E0225034
:10058C0006E92582F8E622BBFE06E92582F8E2227E
:0D059C00E58229F582E5833AF583E4932298
:1005A900BB010689828A83F0225002F722BBFE0131
:0205B900F3222B
:1005BB00F8BB010DE58229F582E5833AF583E8F076
:1005CB00225006E92582C8F622BBFE05E92582C822
:0205DB00F2220A
:1005DD00EF8DF0A4A8F0CF8CF0A428CE8DF0A42E32
:0205ED00FE22EC
:1005EF00BC000BBE0029EF8DF084FFADF022E4CCF0
:1005FF00F875F008EF2FFFEE33FEEC33FCEE9DECB9
:10060F00984005FCEE9DFE0FD5F0E9E4CEFD22EDFE
:10061F00F8F5F0EE8420D21CFEADF075F008EF2F48
:10062F00FFED33FD4007985006D5F0F222C398FD39
:05063F000FD5F0EA22D6
:10064400C2D5EC30E709B2D5E4C39DFDE49CFCEED1
:1006540030E715B2D5E4C39FFFE49EFE1205EFC355
:10066400E49DFDE49CFC80031205EF30D507C3E450
:060674009FFFE49EFE2240
:10067A00C5F0F8A3E028F0C5F0F8E582158270020B
:06068A001583E038F022A8
:10069000BB0110E58229F582E5833AF583E0F5F0A8
:1006A000A3E0225009E92582F886F008E622BBFE85
:1006B0000AE92582F8E2F5F008E222E5832AF583CB
:0806C000E993F5F0A3E9932290
:1006C80075F008758200EF2FFFEE33FECD33CDCCE9
:1006D80033CCC58233C5829BED9AEC99E58298406C
:1006E8000CF582EE9BFEED9AFDEC99FC0FD5F0D649
:1006F800E4CEFBE4CDFAE4CCF9A88222B800C1B973
:100708000059BA002DEC8BF084CFCECDFCE5F0CBB0
:10071800F97818EF2FFFEE33FEED33FDEC33FCEBE9
:1007280033FB10D703994004EB99FB0FD8E5E4F9A4
:10073800FA227818EF2FFFEE33FEED33FDEC33FC91
:10074800C933C910D7059BE99A4007EC9BFCE99A85
:10075800F90FD8E0E4C9FAE4CCFB2275F010EF2FCA
:10076800FFEE33FEED33FDCC33CCC833C810D707CA
:100778009BEC9AE899400AED9BFDEC9AFCE899F805
:0E0788000FD5F0DAE4CDFBE4CCFAE4C8F92298
:0E079600C3E49FFFE49EFEE49DFDE49CFC2274
:1007A400EB9FF5F0EA9E42F0E99D42F0E89C45F0AB
:0107B4002222
:1007B500E8600FECC313FCED13FDEE13FEEF13FF22
:0307C500D8F12246
:1007C800BB010789828A830209135005E9F80209E7
:1007D80007BBFE05E9F802091F89828A8302092BF3
:1007E800BB010DE58229F582E5833AF583020913F9
:1007F8005007E92582F8020907BBFE07E92582F8B8
:1008080002091FE58229F582E5833AF58302092B5F
:10081800BB010789828A830208A65005E9F8020904
:0A08280071BBFE05E9F802097D220C
:10083200BB010DE58229F582E5833AF5830208A61C
:100842005007E92582F8020971BBFE07E92582F803
:0408520002097D22F8
:10085600BB010789828A830209485005E9F8020923
:100866003BBBFE05E9F802095489828A83020961C5
:10087600BB010DE58229F582E5833AF58302094835
:100886005007E92582F802093BBBFE07E92582F8F5
:10089600020954E58229F582E5833AF58302096166
:0C08A600ECF0A3EDF0A3EEF0A3EFF022C5
:1008B200A8828583F0D083D0821208C91208C91297
:1008C20008C91208C9E473E493A3C583C5F0C583BC
:1008D200C8C582C8F0A3C583C5F0C583C8C582C890
:0108E20022F3
:1008E300BB010DE58229F582E5833AF5830208B25F
:1008F3005007E92582F8020989BBFE07E92582F83A
:040903000209A22221
:0C090700E6FC08E6FD08E6FE08E6FF221C
:0C091300E0FCA3E0FDA3E0FEA3E0FF2257
:0C091F00E2FC08E2FD08E2FE08E2FF2214
:10092B00E493FC740193FD740293FE740393FF2212
:0D093B00E6FB08E6F908E6FA08E6CBF8222C
:0C094800E0F8A3E0F9A3E0FAA3E0FB2232
:0D095400E2FB08E2F908E2FA08E2CBF82223
:10096100E493F8740193F9740293FA740393FB22EC
:0C097100ECF608EDF608EEF608EFF622B2
:0C097D00ECF208EDF208EEF208EFF222B6
:10098900D083D082E493F608740193F60874029335
:09099900F608740393F67404736C
:1009A200D083D082E493F208740193F20874029324
:0909B200F208740393F27404735B
:00000001FF
