:030000000240F3C8
:0C40F300787FE4F6D8FD75812002413A88
:03000E000D0A00D8
:0D1F93004A053300000000000000000000BF
:104066009003341215C10000000012445B9003282F
:104076007440F0A37401F0A31215C100004B009028
:10408600032E7401F0A3F0A3F0A3F0A3F0E4A3F0D1
:104096007B017A0379287F01121B73120086900434
:1040A6003EE0FCA3E0FDA3E0FEA3E0FF9003341294
:1040B60015B5900334E0FCA3E0FDA3E0FEA3E0FF0A
:1040C6007B017A05793390033FE4F0A3740AF0127A
:1040D60026087B017A05793312476C7BFF7A0079D3
:0D40E6000E12476C7F327E0012490A80AE38
:10490A00E4FDFCC3ED9FEC9E50100079207B28DB70
:0A491A00FED9FC0DBD00010C80E980
:014924002270
:10493F00E4FDFCC3ED9FEC9E500B7B06DBFE0DBD33
:05494F0000010C80EEE8
:014954002240
:102CE500EFD394057480948040037F01221212264D
:102CF500FED394037480948040037F0222EF7044D6
:102D0500EE700B90000112123FF45293529412127E
:102D1500266401700B90000112123F4293F4529405
:102D2500121226FE6402700A90000112123F4293AD
:102D35004294EE6403700D90000112123FFEF452AE
:102D450093EE4294EF64017046121226FE700B90CA
:102D5500000112123FF452915292EE6401700B90F1
:102D6500000112123F4291F452921212266402702F
:102D75000A90000112123F429142921212266403F8
:102D8500700D90000112123FFEF45291EE4292EF47
:102D950064027046121226FE700B90000112123F5B
:102DA500F452955296EE6401700B90000112123F99
:102DB5004295F452961212266402700A900001128E
:102DC500123F429542961212266403700D9000013F
:102DD50012123FFEF45295EE4296EF6403704612CE
:102DE5001226FE700B90000112123FF452B152B23E
:102DF500EE6401700B90000112123F42B1F452B221
:102E05001212266402700A90000112123F42B1426A
:102E1500B21212266403700D90000112123FFEF4E7
:102E250052B1EE42B2EF64047046121226FE700BE8
:102E350090000112123FF452B352B4EE6401700BCC
:102E450090000112123F42B3F452B41212266402EA
:102E5500700A90000112123F42B342B41212266466
:102E650003700D90000112123FFEF452B3EE42B40E
:102E7500EF64057049121226FF7E00700B90000169
:102E850012123FF452C952CAEF64014E700B900002
:102E95000112123F42C9F452CA1212266402700A84
:102EA50090000112123F42C942CA121226640370F1
:102EB5000D90000112123FFFF452C9EF42CA7F0084
:012EC50022EA
:1046D900EFFD7C00701075BA9090FE8074E0F09048
:1046E900FE82E4F0801EED64014C701875BA80906A
:1046F900FE807481F090FE85745AF090FE84E4F097
:0847090090FE83F0E4F5BA22F2
:10420B00D200D201E4900583F0E02400F8E290FEA6
:10421B0086F090FE84E030E605E054BFF02290FE7D
:10422B0084E030E52DE054DFF0300003C200223093
:10423B00010DC20190FE87E0900583F0E0802F9086
:10424B00FE87E0FF900583E0FE04F074002EF8EF8C
:10425B00F22290FE84E030E41EE054EFF0E030E117
:10426B000790FE8674FFF022900583E004F0240093
:10427B00F8E290FE86F02290FE84E030E308E054F2
:07428B00F7F0D200D201227E
:0C00460090FE82E030E6F9E054BFF022AA
:094A210090FE817401F0020046D0
:1049BB0090FE86EFF090FE817402F0120046024AE0
:0149CB002AC1
:094A2A0090FE817403F0020046C5
:0F49DD0090FE817404F012004690FE87E0FF22E6
:0E49FB0090FE82E4F090FE817405F00200460A
:0F49EC0090FE827401F090FE817405F002004687
:094A330090FE817406F0020046B9
:10499500E4FFFE000000000FBF00010EBE0BF4BFD8
:0249A500B8F167
:0149A70022ED
:1049CC00E59A30E103539AFDE59A30E003539AFEE1
:0149DC0022B8
:0300230002429204
:10429200C0E0C083C082C0D075D000C006C0073065
:1042A2009831C298900474E07029900472E0C3942B
:1042B2000B748094804002E4F0900472E0FF04F0FA
:1042C200747C2FF582E43404F583E599F09004734D
:1042D2007405F0309934C299900470E0FF90046F35
:1042E200E0FE6F602074922EF582E43404F583E0E0
:1042F200F59990046FE004F0C3940B7480948040AD
:1043020009E4F08005900471E4F0D007D006D0D023
:07431200D082D083D0E0321D
:030043000243195C
:10431900C0E0C083C082C0D075D000C006C00712FB
:1043290049CC90047BE07029900479E0C3940B7424
:104339008094804002E4F0900479E0FF04F07487EF
:104349002FF582E43404F583E59BF090047A740533
:10435900F01249CC900477E0FF900476E0FE6F609C
:1043690020749D2EF582E43404F583E0F59B9004D6
:1043790076E004F0C3940B748094804009E4F080E3
:1043890005900478E4F0D007D006D0D0D082D0834D
:03439900D0E0323F
:101B7300900339EBF0A3EAF0A3E9F0900338EFF018
:101B8300D2AF64016003021DEA90046E04F0E4A383
:101B9300F0A3F0A3F0A3F0A3F0A3F090033CF09024
:101BA300033CE0FFC3940B74809480501474922F11
:101BB300F582E43404F583E4F090033CE004F08020
:101BC300DEE490033CF090033CE0FFC3940B74808D
:101BD30094805014747C2FF582E43404F583E4F08C
:101BE30090033CE004F080DE900339E0FBA3E0FACD
:101BF300A3E0F9121226FD7C00D394C07480948074
:101C030040037F022290000A12123F64017004D243
:101C1300BC8002C2BC121226FFE598543F4FF598D0
:101C2300ED64C04C6008EF64406003021D15900032
:101C3300021215857F807E8D7D5B7C001213C79019
:101C4300033D1215B5E4FFFE7D01FC90033DE0F872
:101C5300A3E0F9A3E0FAA3E0FBC312146740037FF8
:101C6300022290033DE0F8A3E0F9A3E0FAA3E0FB2E
:101C7300C3E49BFFE49AFE740199FDE498FC90038E
:101C83003D1215B5900339E0FBA3E0FAA3E0F99008
:101C9300000112123FFB7A0064017038C28E538E2A
:101CA300FE5389BF5389CF438E4090033DE0FCA38D
:101CB300E0FDA3E0FEA3E0FF78081214788F8D9077
:101CC300033DA3A3A3E0F58BC2AB5389BF538FFDA1
:101CD300D28E807DEB64024A7035538EEF438E01C2
:101CE300538EF7438E0490033DE0FCA3E0FDA3E095
:101CF300FEA3E0FF78081214788FD690033DA3A3C8
:101D0300A3E0F5D753AFFB538EF7438E1080427F8A
:101D13000222900339E0FBA3E0FAA3E0F9121226B2
:101D2300FF7E00701490000812123F640170054397
:101D33008E20801D538EDF8018EF64804E701290CA
:101D4300000812123F6401700543878080035387A4
:101D53007F900339E0FBA3E0FAA3E0F990000912B6
:101D6300123F64017004D2AC8002C2AC900007122F
:101D7300123F64017004D29C8002C29C90000B123B
:041D8300123F700A91
:081D87009003417403F0A31462
:101D8F00802F900339E0FBA3E0FAA3E0F990000B5A
:0A1D9F0012123F648090034170119E
:0F1DA9007403F0A37480F07B017A0379417F010A
:021DB800800F9A
:101DBA007403F0A37480F07B017A0379417F0312E4
:021DCA002CE506
:101DCC00900339E0FBA3E0FAA3E0F990000B1212A8
:101DDC003F54C0FFE5A2543F4FF5A27F0022900371
:101DEC0038E064026003021F909004757402F0E402
:101DFC00A3F0A3F0A3F0A3F0A3F0A3F090033CF0A6
:101E0C0090033CE0FFC3940B748094805014749D39
:101E1C002FF582E43404F583E4F090033CE004F005
:101E2C0080DEE490033CF090033CE0FFC3940B7421
:101E3C00809480501474872FF582E43404F583E485
:101E4C00F090033CE004F080DE900339E0FBA3E06B
:101E5C00FAA3E0F9121226FF64C06008EF64406038
:101E6C0003021F1690000A12123F6401700543B55D
:101E7C0001800353B5FE12122664C07005439A808C
:101E8C008003539A7F9000021215857F807E8D7D92
:101E9C005B7C001213C790033D1215B5E4FFFE7D69
:101EAC0001FC90033DE0F8A3E0F9A3E0FAA3E0FB0A
:101EBC00C312146740037F022290033DE0F8A3E0B5
:101ECC00F9A3E0FAA3E0FBC3E49BFFE49AFE7401E0
:101EDC0099FDE498FC90033D1215B5538EEF538E8B
:101EEC00F7438E0490033DE0FCA3E0FDA3E0FEA3CA
:101EFC00E0FF78081214788FD690033DA3A3A3E0DB
:101F0C00F5D753AFFB438E1080037F022290033929
:101F1C00E0FBA3E0FAA3E0F990000912123F640180
:101F2C00700543AF01800353AFFE90000712123FC0
:101F3C0064017005439A108003539AEF90000B12C2
:071F4C00123F9003417010E9
:0E1F53007403F0A314F07B017A0379417F013F
:021F6100800FEF
:101F63007403F0A37480F07B017A0379417F041238
:021F73002CE55B
:101F7500900339E0FBA3E0FAA3E0F990000B1212FD
:0D1F85003F5401FFE5BA54FE4FF5BA7F004E
:011F9200222C
:1048170090033BEFF0900471E0701304F090033BBA
:10482700E0F5993099FDC299E4900471F0227F0573
:074837007E0012493F80DE04
:10474000900477E0249DF582E43404F583EFF09043
:104750000477E004F0C3940B748094804002E4F08A
:0C476000900478E0700504F01249CC22AF
:10476C00900338EBF0A3EAF0A3E9F0900338E0FBF8
:10477C00A3E0FAA3E0F9121226FF600F124817907B
:0C478C000339E475F00112133D80E022B7
:1049A800121226FF600C124740740129F9E43AFA02
:0349B80080EE226C
:074A45003098FDC298AF9903
:014A4C002247
:054A4D001249CCAF9BF3
:014A52002241
:102EC6009004F4EBF0A3EAF0A3E9F09004F2EEF03C
:032ED600A3EFF077
:102ED900E49004F7F0A3F0C3EE64809480501EE4FC
:102EE9009004FBF0A3F09004F2E0FEA3E0FFC3E43A
:102EF9009FFFE49E9004F2F0A3EFF080089004FB9A
:102F0900E4F0A304F09004F2E0FEA3E0FF7C007D6E
:102F19000A121307EF4E604B9004F2E0FAA3E0FBAC
:102F29007C007D0AFFAE02121307ED2430FF9004E6
:102F3900F7E0FCA3E024FDF58274043CF583EFF08F
:102F49007C007D0AAF03AE021213079004F2EEF083
:102F5900A3EFF09004F8E004F070AA9004F7E004FD
:102F6900F080A29004F2A3E02430FF9004F7E0FC83
:102F7900A3E024FDF58274043CF583EFF09004FB93
:102F8900E07002A3E0600302301F9004F4E0FBA3A9
:102F9900E0FAA3E0F9742D12126C9004F7E0FFA394
:102FA900E0A3CFF0A3EFF09004F9E0FEA3E0FFD394
:102FB90094FFEE6480947F404A74FD2FF582740477
:102FC9003EF583E0FF9004F9E0FCA3E0FDC3900423
:102FD900F8E09DFD9004F7E09CCD2401CD3400FC80
:102FE9009004F4E0FBA3E0FAA3E0F98D828C83EF6F
:102FF90012127E9004FAE024FFF09004F9E034FF05
:10300900F080A49004F4E0FBA3E0FAA3E0F99004B3
:10301900F8E0240280749004F7E0FFA3E0A3CFF066
:10302900A3EFF09004F9E0FEA3E0FFD394FFEE6470
:1030390080947F404474FD2FF58274043EF583E04B
:10304900FF9004F9E0FCA3E0FDC39004F8E09DFDC6
:103059009004F7E09CFC9004F4E0FBA3E0FAA3E001
:10306900F98D828C83EF12127E9004FAE024FFF02E
:103079009004F9E034FFF080AA9004F4E0FBA3E0A7
:10308900FAA3E0F99004F8E02401FF9004F7E03492
:09309900008F82F583E412127E1F
:0130A200220B
:102608009003381215B590033CEBF0A3EAF0A3E968
:01261800F0D1
:10261900E4FFFEFDFC900338E0F8A3E0F9A3E0FA3B
:10262900A3E0FB120F9A90033CE0FBA3E0FAA3E0BE
:10263900F94007742B12126C801C742D12126C90C5
:102649000338E0FCA3E0FDA3E0FEA3E0FF121013B2
:102659009003381215B5900338E0FCA3E0FDA3E020
:10266900FEA3E0FF121062900341EEF0A3EFF0E445
:10267900A3F0A3F0900341E0FEA3E0FF4E601F7CAE
:10268900007D0A121307900341EEF0A3EFF09003C7
:1026990044E004F070DE900343E004F080D6900338
:1026A90038E0FCA3E0FDA3E0FEA3E0FF1210629076
:1026B9000341EEF0A3EFF0A3E0FFA3E0A3CFF0A363
:1026C900EFF0D3900346E09400900345E0648094D2
:1026D900804054900341E0FEA3E0FF7C007D0A1294
:1026E9001307ED2430FF90033CE0FBA3E0FAA3E0DD
:1026F900F9900345E0FCA3E0F5828C83EF12127E8A
:10270900900341E0FEA3E0FF7C007D0A12130790CD
:102719000341EEF0A3EFF0900346E024FFF09003AD
:1027290045E034FFF0809B90033CE0FBA3E0FAA373
:10273900E0F9900344E02401FF900343E034008F63
:1027490082F583742E12127E900338E0FCA3E0FD1B
:10275900A3E0FEA3E0FFC004C005C006C0079003C4
:1027690038A3A3A3E0121062AD07AC06EC1210293E
:10277900A804A905AA06AB07D007D006D005D0043E
:10278900120CFF9003381215B5900344E02402F0AF
:10279900900343E03400F0900340E024FFFF9003EE
:1027A9003FE034FFFEC3900344E09FEE6480F8905D
:1027B9000343E06480984003022863900338E0FCF7
:1027C900A3E0FDA3E0FEA3E0FFE4FBFA7920784152
:1027D900120DF49003381215B5900338E0FCA3E00C
:1027E900FDA3E0FEA3E0FF121062EF2430FF900387
:1027F9003CE0FBA3E0FAA3E0F9900343E0FCA3E08B
:10280900F5828C83EF12127E900338E0FCA3E0FD81
:10281900A3E0FEA3E0FFC004C005C006C007900303
:1028290038A3A3A3E0121062AD07AC06EC1210297D
:10283900A804A905AA06AB07D007D006D005D0047D
:10284900120CFF9003381215B5900344E004F070A0
:1028590006900343E004F00227A090033CE0FBA3A9
:10286900E0FAA3E0F9900340E024FFFF90033FE082
:0A28790034FF8F82F583E402127E23
:051FA00042057B00007A
:0300030002000AEE
:01000A0032C3
:03001300020011D7
:0100110032BC
:0300530002001296
:0100120032BB
:03005B000200168A
:0100160032B7
:0300830002001761
:0100170032B6
:03003B0002471168
:10471100C0E0C083C08230D802C2D830D910C2D91B
:1047210090057CE004F0700690057BE004F030DA3F
:0F47310002C2DA30DB02C2DBD082D083D0E032AA
:1033EB00EFD394107480948040037F0122D2AFEF0F
:1033FB00703090000212123F64017004D2A8800258
:10340B00C2A890000112123F64017004D2B880026E
:10341B00C2B812122664017004D2888002C2887F5F
:10342B000022EF6402703090000212123F640170B0
:10343B0004D2AA8002C2AA90000112123F6401704A
:10344B0004D2BA8002C2BA12122664017004D28A64
:10345B008002C28A7F0022EF640A7015900002126C
:10346B00123F64017005438F108003538FEF7F0071
:10347B0022EF640B701590000212123F640170056D
:10348B00438F208003538FDF7F0022EF6410701572
:10349B0090000212123F64017005438F408003536A
:1034AB008FBF7F0022EF6407701FF5D875D90DF51C
:1034BB00E9F5F91212266401700575DA11800375AE
:1034CB00DA21E4F5EAF5FA806AEF6408701FF5D8A3
:1034DB0075D90DF5E9F5F91212266401700575DB46
:1034EB0011800375DB21E4F5EBF5FB8046EF6409F6
:1034FB00701FF5D875D90DF5E9F5F912122664018F
:10350B00700575DC11800375DC21E4F5ECF5FC80AE
:10351B0022EF640C7021F5D875D90DF5E9F5F91288
:10352B0012266401700575DD11800375DA21E4F54F
:0A353B00EDF5FDD2DEFF227F022233
:101FA500420519000042051B000042051D000044C2
:0D1FB500051F00000000440523000000008F
:03000B00023D268D
:103D2600C0E0C0F0C083C082C0D075D000C000C063
:103D360001C002C003C004C005C006C00790051A32
:103D4600E004F07006900519E004F0900519E070A3
:103D560004A3E0640A705B90057BE0FCA3E0FDEC45
:103D66001210299003A51215B59003A91215C14387
:103D76002000009003AD7401F0A37403F0A374E671
:103D8600F07F01121692900406E0FCA3E0FDA3E08A
:103D9600FEA3E0FF9005081215B57B017A057907A9
:103DA600E4FF123545900519E4F0A3F090057BF089
:103DB600A3F0D007D006D005D004D003D002D0019E
:0D3DC600D000D0D0D082D083D0F0D0E03239
:03001B00023BA6FF
:103BA600C0E0C0F0C083C082C0D075D000C000C0E5
:103BB60001C002C003C004C005C006C00790051CB2
:103BC600E004F0700690051BE004F090051BE07021
:103BD60004A3E0640A7071122ABF9004C4E0FCA337
:103BE600E0FDA3E0FEA3E0FF1210139003A512155B
:103BF600B590051FE0FCA3E0FDA3E0FEA3E0FF9067
:103C060003A91215B59003AD7401F0A37404F0A3D3
:103C1600740AF07F02121692E4FFFE7D9C7C4290AD
:103C2600042AE0F8A3E0F9A3E0FAA3E0FB120D03EF
:103C36009005111215B57B017A0579107F011223C3
:103C46000B90051BE4F0A3F0D007D006D005D004F6
:103C5600D003D002D001D000D0D0D082D083D0F013
:033C6600D0E03279
:03006300023E7FDB
:103E7F00C0E0C0F0C083C082C0D075D000C000C009
:103E8F0001C002C003C004C005C006C00790051ED4
:103E9F00E004F0700690051DE004F090051DE07041
:103EAF0004A3E0641470561248CE9003A51215B502
:103EBF00900523E0FCA3E0FDA3E0FEA3E0FF900349
:103ECF00A91215B59003AD7401F0A37403F0A37498
:103EDF00C2F0E4FF1216927F337E337D637CC09075
:103EEF0003E2E0F8A3E0F9A3E0FAA3E0FB120D036D
:103EFF0090051F1215B590051DE4F0A3F0D007D063
:103F0F0006D005D004D003D002D001D000D0D0D03D
:083F1F0082D083D0F0D0E03223
:1030A300AD07EDD394027480948040037F0122D254
:1030B300AFED600302314BC28C90000212123F64E9
:1030C300017004D2A98002C2A990000112123F64C8
:1030D300017004D2B98002C2B9121226FED394033E
:1030E3007480948040037F0222E58954FC4EF58965
:1030F30090000312123FFF7E0064017003538E7F22
:10310300EF4E7003438E80EF64024E7005438904D3
:1031130080035389FB90000412123F64017005433E
:103123008F018003538FFE900005121353E5F0F5D2
:103133008C900005121353F58A90000712123F6416
:10314300017002D28C7F0022ED640160030231E43E
:10315300C28E90000212123F64017004D2AB80024F
:10316300C2AB90000112123F64017004D2BB800213
:10317300C2BB121226FEC394037480948040037F63
:103183000222E58954CF4EF58990000312123FFFC6
:103193007E0064017003538EBFEF4E7003438E4075
:1031A300EF64024E700543894080035389BF90004A
:1031B3000412123F64017005438F028003538FFD95
:1031C300900005121353E5F0F58D9000051213538B
:1031D300F58B90000712123F64017002D28E7F00BC
:1031E30022ED6402600302326C538EEF90000212F0
:1031F300123F6401700543AF04800353AFFB90009B
:103203000312123FFD7C00D3940274809480400328
:103213007F0222ED64014C7003538EFB9000031276
:10322300123F7003438E0490000312123F64027036
:1032330005438E088003538EF790000412123F64F7
:10324300017005438F048003538FFB900005121315
:1032530053FDACF0ECF5D68DD790000712123F6406
:0C326300017003438E107F00227F0222C6
:1048890012122690056FF090000112123F900570E8
:10489900F090000212123F900571F07B017A0579C0
:0448A9006F0233EB7C
:10498100E4900572F0A304F0A3F0FB7A0579727F3D
:044991000802488947
:101FC200602403E63E19999A3EE666663E8F5C29D6
:101FD2000000000000000000000000004475000046
:101FE20000000000000000006024040A3ED9984A64
:101FF2003E051EB83D328B6E00000000000000005E
:102002000000000042500000C2500000000000002A
:10201200602403C23C59E83E000000003CED916898
:1020220000000000000000000000000040533333B5
:08203200C0533333000000002D
:101692009003A4EFF0600302185D9003ADE0FBA39A
:1016A200E0FAA3E0F990000C1214BF90001012159A
:1016B200099003A5E0F8A3E0F9A3E0FAA3E0FBA3F5
:1016C200E0FCA3E0FDA3E0FEA3E0FF120CFF900309
:1016D200ADE0FBA3E0FAA3E0F990000C121509E9D2
:1016E2002414F9E43AFAC003C002C00112149F9014
:1016F20003ADE0FBA3E0FAA3E0F990000C1215851C
:10170200120D03D001D002D0031214EF9003ADE00A
:10171200FBA3E0FAA3E0F99000141214BFE4FBFA71
:1017220079A07840120F9A50159003ADE0FBA3E028
:10173200FAA3E0F99000141215F240A00000900301
:10174200ADE0FBA3E0FAA3E0F99000141214BFE4A9
:10175200FBFA79A078C0120F9A601740159003AD7A
:10176200E0FBA3E0FAA3E0F99000141215F2C0A086
:1017720000009003ADE0FBA3E0FAA3E0F9900014AF
:101782001214BF900004121585120DF4C004C00596
:10179200C006C0079003ADE0FBA3E0FAA3E0F99016
:1017A200000C1214BF121565120DF4D003D002D032
:1017B20001D000120D03C004C005C006C00790038B
:1017C200ADE0FBA3E0FAA3E0F9900010121585C08A
:1017D20000C001C002C0039003ADE0FBA3E0FAA386
:1017E200E0F990000C1214BFD003D002D001D00057
:1017F200120CFF9003ADE0FBA3E0FAA3E0F9900026
:1018020008121585120DF4D003D002D001D00012B7
:101812000D039003ADE0FBA3E0FAA3E0F9900020F2
:101822001215099000181214BF900020121585128B
:101832000F9A60054003021B2F9003ADE0FBA3E06B
:10184200FAA3E0F990001C1214BF90002012158533
:10185200120F9A4003021B72021B5B9003A4E06406
:1018620001600302199F9003ADE0FBA3E0FAA3E03D
:10187200F990000C1214BF9000101215099003A5E4
:10188200E0F8A3E0F9A3E0FAA3E0FBA3E0FCA3E005
:10189200FDA3E0FEA3E0FF120CFF9003ADE0FBA36B
:1018A200E0FAA3E0F990000C121509E92420F9E40A
:1018B2003AFAC003C002C00112149FC004C005C09E
:1018C20006C0079003ADE0FBA3E0FAA3E0F99000A5
:1018D20010121585C000C001C002C0039003ADE024
:1018E200FBA3E0FAA3E0F990000C1214BFD003D0DE
:1018F20002D001D000120CFF9003ADE0FBA3E0FA8E
:10190200A3E0F9121565120DF4C004C005C006C0AB
:10191200079003ADE0FBA3E0FAA3E0F990000C12FC
:1019220014BF900004121585120DF4A804A905AA8B
:1019320006AB07D007D006D005D004120D03A804C9
:10194200A905AA06AB07D007D006D005D004120D10
:1019520003D001D002D0031214EF9003ADE0FBA339
:10196200E0FAA3E0F99000181214BF9000201215BB
:1019720085120F9A60054003021B2F9003ADE0FB16
:10198200A3E0FAA3E0F990001C1214BF9000201209
:101992001585120F9A4003021B72021B5B9003A46F
:1019A200E064026003021B729003ADE0FBA3E0FA65
:1019B200A3E0F990000C1214BF90001012150990C8
:1019C20003A5E0FCA3E0FDA3E0FEA3E0FFA3E0F893
:1019D200A3E0F9A3E0FAA3E0FB120D039003ADE04C
:1019E200FBA3E0FAA3E0F990000C121509E9241414
:1019F200F9E43AFAC003C002C00112149F9003A591
:101A0200E0F8A3E0F9A3E0FAA3E0FB120D03D00192
:101A1200D002D0031214EF9003ADE0FBA3E0FAA3CF
:101A2200E0F99000141214BFE4FBFA79A078401296
:101A32000F9A50159003ADE0FBA3E0FAA3E0F990F2
:101A420000141215F240A000009003ADE0FBA3E0E9
:101A5200FAA3E0F99000141214BFE4FBFA79A0781B
:101A6200C0120F9A601740159003ADE0FBA3E0FA95
:101A7200A3E0F99000141215F2C0A000009003AD8B
:101A8200E0FBA3E0FAA3E0F99000141214BF900067
:101A920004121585120DF4C004C005C006C00790DB
:101AA20003ADE0FBA3E0FAA3E0F990000C1214BF2F
:101AB200121565120DF4D003D002D001D000120D20
:101AC20003C004C005C006C0079003ADE0FBA3E05D
:101AD200FAA3E0F9900008121585C000C001C00207
:101AE200C0039004D0E0FCA3E0FDA3E0FEA3E0FF6E
:101AF200121013D003D002D001D000120DF4D00383
:101B0200D002D001D000120D039003ADE0FBA3E0A0
:101B1200FAA3E0F99000201215099000181214BFE0
:101B2200900020121585120F9A601240109003AD9A
:101B3200E0FBA3E0FAA3E0F9900018802A9003AD3D
:101B4200E0FBA3E0FAA3E0F990001C1214BF90009E
:101B520020121585120F9A50179003ADE0FBA3E0F7
:101B6200FAA3E0F990001C1214BF9000201215098C
:011B72002250
:10483E00E490053DF0A304F0A3F0E4A3F0A304F08C
:10484E00A374A2F0A37440F0A37401F0FB7A05796F
:06485E003DE4FF0230A35F
:10203A00490507000000000046435000490510000A
:08204A00429C00004248000026
:0E230B00900398EFF0A3EBF0A3EAF0A3E9F043
:10231900A31215C1000000009003A01215C100000E
:102329000000900399E0FBA3E0FAA3E0F99000050F
:102339001215857F007E1B7DB77C49120EFD900327
:102349009C1215B5900399E0FBA3E0FAA3E0F9907C
:102359000001121585E4FFFE7D7A7C44120CFFE42E
:10236900FBFA797A7844120EFD9003A01215B5751F
:10237900BA8090FFF2740FF090039CE0FCA3E0FD9B
:10238900A3E0FEA3E0FF12106290FFF0EEF0A3EFCE
:10239900F0900398E0B4080040030226019023ADB1
:1023A900F82828730223C502240D02245502249D0E
:1023B9000224E502252D0225750225BC90FF00E4C3
:1023C900F0A3F09003A0E0FCA3E0FDA3E0FEA3E0EE
:1023D900FF90039CE0F8A3E0F9A3E0FAA3E0FB1265
:1023E9000DF412106290FF02EEF0A3EFF090039942
:1023F900E0FBA3E0FAA3E0F9121226448090FF045F
:10240900F002260190FF10E4F0A3F09003A0E0FC95
:10241900A3E0FDA3E0FEA3E0FF90039CE0F8A3E0A6
:10242900F9A3E0FAA3E0FB120DF412106290FF1277
:10243900EEF0A3EFF0900399E0FBA3E0FAA3E0F933
:10244900121226448090FF14F002260190FF20E426
:10245900F0A3F09003A0E0FCA3E0FDA3E0FEA3E05D
:10246900FF90039CE0F8A3E0F9A3E0FAA3E0FB12D4
:102479000DF412106290FF22EEF0A3EFF090039991
:10248900E0FBA3E0FAA3E0F9121226448090FF24AE
:10249900F002260190FF30E4F0A3F09003A0E0FCE5
:1024A900A3E0FDA3E0FEA3E0FF90039CE0F8A3E016
:1024B900F9A3E0FAA3E0FB120DF412106290FF32C7
:1024C900EEF0A3EFF0900399E0FBA3E0FAA3E0F9A3
:1024D900121226448090FF34F002260190FF40E456
:1024E900F0A3F09003A0E0FCA3E0FDA3E0FEA3E0CD
:1024F900FF90039CE0F8A3E0F9A3E0FAA3E0FB1244
:102509000DF412106290FF42EEF0A3EFF0900399E0
:10251900E0FBA3E0FAA3E0F9121226448090FF44FD
:10252900F002260190FF50E4F0A3F09003A0E0FC34
:10253900A3E0FDA3E0FEA3E0FF90039CE0F8A3E085
:10254900F9A3E0FAA3E0FB120DF412106290FF5216
:10255900EEF0A3EFF0900399E0FBA3E0FAA3E0F912
:10256900121226448090FF54F002260190FF60E485
:10257900F0A3F09003A0E0FCA3E0FDA3E0FEA3E03C
:10258900FF90039CE0F8A3E0F9A3E0FAA3E0FB12B3
:102599000DF412106290FF62EEF0A3EFF090039930
:1025A900E0FBA3E0FAA3E0F9121226448090FF644D
:1025B900F0804590FF70E4F0A3F09003A0E0FCA345
:1025C900E0FDA3E0FEA3E0FF90039CE0F8A3E0F99F
:1025D900A3E0FAA3E0FB120DF412106290FF72EE71
:1025E900F0A3EFF0900399E0FBA3E0FAA3E0F9125E
:0E25F9001226448090FF74F0E4F5BA75FE805F
:0126070022B0
:0E35450090038CEFF0A3EBF0A3EAF0A3E9F003
:10355300E4A3F0A3F0A3F0A3F0A31215C1000000AD
:103563000090038DE0FBA3E0FAA3E0F990000512BD
:1035730014BFE4FBFA79807843120DF4A804A9057B
:10358300AA06AB077F007E1B7DB77C4B120EFD1294
:103593001062C374FF9F900391F0E49E900390F038
:1035A30090038DE0FBA3E0FAA3E0F990000112156C
:1035B30085E4FFFE7D7A7C44120CFFE4FBFA797A02
:1035C3007844120EFD9003941215B5E4FFFE7D7F3F
:1035D3007C43900394E0F8A3E0F9A3E0FAA3E0FBB3
:1035E300120DF4121062900392EEF0A3EFF0E4F5E3
:1035F300D875D90CF5E9F5F990038DE0FBA3E0FA52
:10360300A3E0F912122624F8600D24F8600E2410AA
:10361300700DE4F5A2800875A210800375A22090B6
:10362300038CE014601C14602B14603A240370466E
:1036330075DA42E4F5F2900392A3E0FFF5EA8FFA1C
:10364300803475DB42E4F5F3900392A3E0FFF5EBDE
:103653008FFB802275DC42E4F5F4900392A3E0FF34
:10366300F5EC8FFC801075DD42E4F5F5900392A331
:08367300E0FFF5ED8FFDD2DE52
:01367B00222C
:102052005804C4000000000000000000000000005E
:0B206200000000000000000000000073
:102ABF00E4900398F0FFFEA3F075BA90124A217FBD
:102ACF00A01249BB7F3D1249BB124A217FA1124977
:102ADF00BB1249DD900398EFF01249FB1249DD90CC
:102AEF000399EFF01249EC124A33900399E0FE90EC
:102AFF000398E0FDEDFFAC06EC121029E4FBFAF9A8
:102B0F007847120EFDE4FBFA79347843120DF490F6
:102B1F0004C41215B5124A217FA01249BB7F3E1281
:102B2F0049BB124A217FA11249BB1249DD9003987C
:102B3F00EFF01249FB1249DD900399EFF01249ECC7
:102B4F00124A33900399E0FE900398E0FDEDFFAC3D
:102B5F0006EC121029E4FBFAF97847120EFDE4FB9C
:102B6F00FA79347843120DF49004C81215B5124A4D
:102B7F00217FA01249BB7F3F1249BB124A217FA17F
:102B8F001249BB1249DD900398EFF01249FB12492D
:102B9F00DD900399EFF01249EC124A33900399E05C
:102BAF00FE900398E0FDEDFFAC06EC121029E4FB5C
:102BBF00FAF97847120EFDE4FBFA79347843120DD7
:102BCF00F49004CC1215B5124A217FA01249BB7F95
:102BDF00371249BB124A217FA11249BB1249DD901E
:102BEF000398EFF01249FB1249DD900399EFF012B1
:102BFF0049EC124A33900399E0FE900398E0FDED03
:102C0F00FFAC06EC121029E4FBFAF97847120EFD1F
:102C1F00E4FBFA79FA7844120DF49004D01215B54A
:102C2F00124A217FA01249BB7F381249BB124A2199
:102C3F007FA11249BB1249DD900398EFF01249FBB7
:102C4F001249DD900399EFF01249EC124A339003C9
:102C5F0099E0FE900398E0FDEDFFAC06EC12102911
:102C6F00E4FBFAF97847120EFDE4FBFA79FA78449F
:102C7F00120DF49004D41215B5124A217FA01249F7
:102C8F00BB7F391249BB124A217FA11249BB12499E
:102C9F00DD900398EFF01249FB1249DD900399EF95
:102CAF00F01249EC124A33900399E0FE900398E03A
:102CBF00FDEDFFAC06EC121029E4FBFAF978471290
:102CCF000EFDE4FBFA79FA7844120DF49004D81251
:052CDF0015B5E4F5BA93
:012CE40022CD
:10479800E4900545F0A304F0A3F0E4A3F0A304F02B
:1047A800A374A2F0A37440F0A37401F0E4FF1246CE
:0C47B800D97B017A0579457F010230A30E
:03002B00020006CA
:0400060053BCDF32D6
:1043FF00D2AFE4F592121226429190000112123FB1
:10440F00FFE5BC549F4FF5BC90000212123F6401B0
:10441F00700543BC80800353BC7F90000312123F92
:10442F006401700543DE20800353DEDF9000051228
:10443F00123F64017004D2AD8002C2AD900004122D
:0C444F00123F64017003D2BD22C2BD22E6
:0D002E00EF6401700443BC802253BC7F22AC
:10417F00EFD39407748094804002807BE4F5BDF503
:10418F00BEE5BC54E044404FF5BC0000E4FDEDC378
:10419F0094FA74809480505FE5BC20E55753BCDFE0
:1041AF00E5DE30E51FE5BD540FFF9003C0E4F0A33B
:1041BF00EFF0E0FEACBEECFBEBFF9003C0EEF0A324
:1041CF00EFF08027AFBDEF9003C0F0A3E4F0AFBED8
:1041DF009003C0E0F0A3E04FF09003C0E0C4F854A8
:1041EF00F0C868F0A3E0C4540F48F09003C0E0FE9D
:0B41FF00A3E0FF220D80977E047F00EC
:01420A002291
:10206D00622801000000000000000000002F0000A9
:10207D0000000700070000147F147F1400242A7F3E
:10208D002A120062640813230036495522500000BD
:10209D000503000000001C224100000041221C002D
:1020AD000014083E08140008083E0808000000A0AF
:1020BD0060000008080808080000606000000020AB
:1020CD0010080402003E5149453E0000427F400089
:1020DD00004261514946002141454B31001814120F
:1020ED007F10002745454539003C4A4949300001DC
:1020FD007109050300364949493600064949291E2B
:10210D00000036360000000056360000000814228C
:10211D00410000141414141400004122140800028C
:10212D000151090600324959513E007C1211127CB1
:10213D00007F49494936003E41414122007F4141DE
:10214D00221C007F49494941007F09090901003ED0
:10215D004149497A007F0808087F0000417F41000E
:10216D00002040413F01007F08142241007F404084
:10217D004040007F020C027F007F0408107F003E6C
:10218D004141413E007F09090906003E4151215E52
:10219D00007F091929460046494949310001017F4F
:1021AD000101003F4040403F001F2040201F003FE5
:1021BD004038403F00631408146300070870080797
:1021CD0000615149454300007F41410000552A55AA
:1021DD002A55000041417F00000402010204004025
:1021ED004040404000000102040000205454547847
:1021FD00007F484444380038444444200038444467
:10220D00487F00385454541800087E090102001804
:10221D00A4A4A47C007F080404780000447D400041
:10222D00004080847D00007F102844000000417F25
:10223D004000007C04180478007C08040478003801
:10224D004444443800FC242424180018242418FC89
:10225D00007C0804040800485454542000043F44F2
:10226D004020003C4040207C001C2040201C003CB5
:10227D004030403C004428102844001CA0A0A07C05
:0C228D00004464544C4414141414141441
:064A3C00D2A37F027E0000
:034A420002493FE7
:10495500124A3CD2A6124A3EC2A6124A3EC2A37FC2
:06496500027E00024A423E
:10496B00C2A3124A3EC2A6124A3E124A3CD2A67FAC
:06497B00027E00024A4228
:05439C0090057DEFF02B
:1043A100E4A3F090057EE0C39408748094805033B8
:1043B10090057DE030E704D2A68002C2A67F017E8F
:1043C10000124A42D2A37F017E00124A42C2A37F59
:1043D100017E00124A4290057DE025E0F0A3E00451
:1043E100F080C0D2A67F017E00124A42D2A37F0193
:0E43F1007E00124A42C2A37F017E00024A42B1
:10006600900584EFF01249557F7812439C7F401229
:0D007600439C900584E0FF12439C02496BFF
:0448AD00EF24B0FF45
:1048B100900585EFF01249557F7812439CE4FF1271
:0D48C100439C900585E0FF12439C02496B6B
:10486400900586EFF0ED24B0FF1248B1900586E084
:1048740054F0C4540F4410FF1248B1900586E0541C
:054884000FFF0248B126
:0545BA00900575EFF013
:1045BF00E4A3F0900576E0FFC394087480948050D4
:1045CF00371248AD7F011248B17F101248B1E49005
:1045DF000577F0900577E0C3948474809480501031
:1045EF00900575E0FF120066900577E004F080E318
:0845FF00900576E004F080BB9A
:014607002290
:10465600E490057FF090057FE0FFC3940874809492
:104666008050341248AD7F011248B17F101248B114
:10467600E4900580F0900580E0C394847480948073
:10468600500DE4FF120066900580E004F080E6908D
:07469600057FE004F080BE87
:01469D0022FA
:103AD800E4900581F0A37408F07B017A0579817F71
:103AE80002122CE57B017A0579817F03122CE57B94
:103AF800017A0579817F04122CE5D2A3C2A77FF44D
:103B08007E0112490AD2A77FAE1248B1E4FF1248DB
:103B1800B17F101248B17F401248B17F811248B17D
:103B28007FCF1248B17FA11248B17FC81248B17F38
:103B3800A61248B17FA81248B17F3F1248B17FD37F
:103B48001248B1E4FF1248B17FD51248B17F801204
:103B580048B17FD91248B17FF11248B17FDA1248D3
:103B6800B17F121248B17FDB1248B17F401248B1D1
:103B78007F201248B17F021248B17F8D1248B17F71
:103B8800141248B17FA41248B17FA61248B17FAF82
:0E3B98001248B1E4FF1245BAE4FDFF02486492
:0A44B700900579EDF0900578EFF024
:1044C100A3E0FE131313541FFD124864900579E015
:1044D100FF5407FEF87401088002C333D8FC90052D
:1044E1007AF0EF131313541F24B0FF1248B1900553
:1044F10078E054F0C4540F4410FF1248B19005788D
:0F450100E0540FFF1248B190057AE0FF02006608
:103F270090054DEFF0A3EDF0A3EBF0A3EAF0A3E9C2
:013F3700F099
:103F3800E4A3F0A3F0A3F090054FE0FBA3E0FAA3FD
:103F4800E0F9900554E0F58275830012123F607025
:103F580024E0900552F090054DE0D3947E7480944F
:103F6800804006E4F0A3E004F090054DE0FFA3E0F4
:103F7800FD124864E4900553F0900553E0FFC394A4
:103F880006748094805029900552E075F006A424A8
:103F980000F582E5F03401F583E5822FF582E435FA
:103FA80083F583E0FF120066900553E004F080C9B2
:103FB80090054DE02406F0900554E004F0023F3FE0
:013FC80022D6
:083C6900900555EFF0A3EDF00A
:103C7100E490055CF0FC7D0AAF03AE021212B2EDD6
:103C8100243090055BF07C007D0AAF03AE02121276
:103C9100B27C007D0A1212B2ED243090055AF07CFC
:103CA100007D64AF03AE021212B27C007D0A1212D3
:103CB100B2ED2430900559F07C037DE8AF03AE02EC
:103CC1001212B27C007D0A1212B2ED243090055816
:103CD100F0AE02AF037C277D101212B27C007D0A88
:103CE1001212B2ED2430900557F0E4FFEFC39404B3
:103CF10074809480501E74572FF582E43405F58347
:103D0100E0B4301074572FF582E43405F583742044
:103D1100F00F80D8900555E0FFA3E0FD7B017A0507
:053D21007957023F2765
:0F326F009004A8EFF0A3EDF0A3EAF0FEA3EBF0BC
:10327E00E4FBFAC3EE64809480501EE49004AEF03A
:10328E00A3F09004AAE0FEA3E0FFC3E49FFFE49E38
:10329E009004AAF0A3EFF080089004AEE4F0A3042B
:1032AE00F09004AAE0FEA3E0FF7C007D0A12130753
:1032BE00EF4E603D9004AAE0FEA3E0FF7C007D0A85
:1032CE00121307ED2430FF74B02BF58274043AF517
:1032DE0083EFF09004AAE0FEA3E0FF7C007D0A12CB
:1032EE0013079004AAEEF0A3EFF00BBB00010A80C7
:1032FE00B09004AAA3E02430FF74B02BF5827404BE
:10330E003AF583EFF09004AEE07002A3E0706090A7
:10331E0004BA742DF09004ACEAF0A3EBF09004AC78
:10332E00E0FEA3E0FFD394FFEE6480947F403774F9
:10333E00B02FF58274043EF583E0FF9004ACE0FC00
:10334E00A3E0FDC3EB9DFDEA9CFC74BB2DF58274DE
:10335E00043CF583EFF09004ADE024FFF09004AC54
:10336E00E034FFF080B774BC2BF582740480589063
:10337E0004ACEAF0A3EBF09004ACE0FEA3E0FFD3C4
:10338E0094FFEE6480947F403774B02FF5827404FE
:10339E003EF583E0FF9004ACE0FCA3E0FDC3EB9DA3
:1033AE00FDEA9CFC74BA2DF58274043CF583EFF0B3
:1033BE009004ADE024FFF09004ACE034FFF080B751
:1033CE0074BB2BF58274043AF583E4F09004A8E004
:0D33DE00FFA3E0FD7B017A0479BA023F27CE
:082883009004DCEFF0A3EDF07E
:10288B009004E6E4F0A3740AF0E4FFFEFDFC900470
:10289B00DEE0F8A3E0F9A3E0FAA3E0FB120F9A90B5
:1028AB0004E84005742BF0801A742DF09004DEE0E0
:1028BB00FCA3E0FDA3E0FEA3E0FF1210139004DEE7
:1028CB001215B59004DEE0FCA3E0FDA3E0FEA3E04F
:1028DB00FF1210629004E2EEF0A3EFF0E4A3F0A37A
:1028EB00F09004E2E0FEA3E0FF4E601F7C007D0A47
:1028FB001213079004E2EEF0A3EFF09004E5E0046E
:10290B00F070DE9004E4E004F080D69004DEE0FC8E
:10291B00A3E0FDA3E0FEA3E0FF1210629004E2EE41
:10292B00F0A3EFF0A3E0FEA3E0FBAA06D3EB940029
:10293B00EA64809480403D9004E2E0FEA3E0FF7CDB
:10294B00007D0A121307ED2430FF74E82BF5827417
:10295B00043AF583EFF09004E2E0FEA3E0FF7C0085
:10296B007D0A1213079004E2EEF0A3EFF0EB1B705D
:10297B00BB1A80B89004E4E0FEA3E024E9F582746E
:10298B00043EF583742EF09004DEE0FCA3E0FDA37F
:10299B00E0FEA3E0FFC004C005C006C0079004DE44
:1029AB00A3A3A3E0121062AD07AC06EC121029A88A
:1029BB0004A905AA06AB07D007D006D005D0041290
:1029CB000CFF9004DE1215B59004E5E02402F090A4
:1029DB0004E4E03400F09004E7E024FFFF9004E609
:1029EB00E034FFFEC39004E5E09FEE6480F89004B2
:1029FB00E4E06480984003022A9C9004DEE0FCA390
:102A0B00E0FDA3E0FEA3E0FFE4FBFA79207841129E
:102A1B000DF49004DE1215B59004DEE0FCA3E0FD8E
:102A2B00A3E0FEA3E0FF121062EF2430FF9004E45A
:102A3B00E0FCA3E024E8F58274043CF583EFF0900E
:102A4B0004DEE0FCA3E0FDA3E0FEA3E0FFC004C0B6
:102A5B0005C006C0079004DEA3A3A3E0121062AD6D
:102A6B0007AC06EC121029A804A905AA06AB07D0DF
:102A7B0007D006D005D004120CFF9004DE1215B55A
:102A8B009004E5E004F070069004E4E004F0022901
:102A9B00E19004E6E0FEA3E024E7F58274043EF542
:102AAB0083E4F09004DCE0FFA3E0FD7B017A047982
:042ABB00E8023F27C7
:1048EE0000000000000000000000000000000000BA
:0C48FE00000000000000000000000000AE
:1022990044052F00F000F044052B004B004B42058C
:0822A900290000420527000096
:104925009005657401F0E4A3F0A304F0A3F0A3F0EF
:0A493500A3F0FB7A0579650243FF49
:05367C009003A4EFF033
:10368100E4A3F0A3F0A3F078A87C037D017BFF7A8B
:103691004879EEFE7F18121200E49003A5F0900322
:1036A100A5E0C3940C7480948050639003A4E0FF60
:1036B10012417F9003A5E0FD25E024A8F582E434C2
:1036C10003F583EEF0A3EFF0B4003BEEB40437ED65
:1036D1007012ED25E024A8F582E43403F583E4F0CB
:1036E100A3F08022ED25E024A6F582E43403F583DE
:1036F100E0FEA3E0FFED25E024A8F582E43403F524
:1037010083EEF0A3EFF09003A5E004F08090E4FFD6
:10371100EFC3940B74809480400302379CE4FEC392
:10372100740B9FFDEEC39D506EEE25E024AAF58239
:10373100E43403F583E0FCA3E0FDEE25E024A8F5E5
:1037410082E43403F583E0FAA3E0FBD39DEA9C40D5
:10375100439003A6EAF0A3EBF0EE25E024AAF5825C
:10376100E43403F583E0FCA3E0FDEE25E024A8F5B5
:1037710082E43403F583ECF0A3EDF09003A6E0FCC2
:10378100A3E0FDEE25E024AAF582E43403F583EC01
:10379100F0A3EDF00E80880F0237119003B4E0FE24
:0337A100A3E0FFA3
:0137A4002202
:1037A500786B7C057D017BFF7A4979067E007F0475
:1037B5001212007F0112367C90056BEEF0A3EFF03C
:1037C5007F0412367C90056DEEF0A3EFF090052B8B
:1037D500E0FEA3E0FF90056BE0FCA3E0FDC39FECDA
:1037E5009E500A90052BECF0A3EDF0801E90052F5E
:1037F500E0FEA3E0FFD3ED9FEC9E400F90056BE04C
:10380500FFA3E090052FCFF0A3EFF090052DE0FE8C
:10381500A3E0FF90056DE0FCA3E0FDC39FEC9E5087
:103825000A90052DECF0A3EDF0801E900531E0FE29
:10383500A3E0FFD3ED9FEC9E400F90056DE0FFA345
:10384500E0900531CFF0A3EFF090052BE0FEA3E06B
:10385500FFC390056CE09FFF90056BE09EFE7C002A
:103865007D641212A090052BE0FCA3E0FDC390053A
:1038750030E09DFD90052FE09CFC1212B2900529C9
:10388500EEF0A3EFF090052DE0FEA3E0FFC3900559
:103895006EE09FFF90056DE09EFE7C007D64121238
:1038A500A090052DE0FCA3E0FDC3900532E09DFD51
:1038B500900531E09CFC1212B2900527EEF0A3EFC3
:0138C500F012
:0138C60022DF
:1048CE007F0412367CC006C0077F0112367CAD070E
:1048DE00AC06D007D006C3ED9FFDEC9EFC0210295E
:1047EE00124925E490055DF0A3F0A304F0E4A3F0D4
:1047FE00A304F0A374A2F0A37440F0A37401F0FB21
:09480E007A05795D7F020230A3F6
:1022B1006024043A0000000000000000000000005B
:1022C100000000000000000000000000000000000D
:1022D100000000000000000044045E3F8000004454
:1022E1000462000000004404660000000044046A27
:1022F1000000000044042E000000004404320000ED
:0923010000004404360000000055
:10445B00E4FF1246D97D807F6B1247C47F647E00D8
:10446B0012490AE4FD7F6B1247C47F02124A09E42A
:10447B00FF124A157F327E00124566E4FD7F38122B
:10448B0047C4E4FD7F6A1247C4E4FD7F231247C48F
:10449B007D807F371247C47D017F6B1247C4E4FDDB
:0C44AB007F6C1247C47F327E0002456621
:1047C40090033AEFF0A3EDF075BA90124A217FD02E
:1047D4001249BB90033AE0FF1249BB90033BE0FF50
:0A47E4001249BB124A33E4F5BA2271
:0546080090037CEFF0BF
:10460D00E4A3F0FFFEA3F075BA90124A217FD012F9
:10461D0049BB90037CE0FF1249BB124A217FD112A6
:10462D0049BB1249DD90037DEFF01249FB1249DDC4
:10463D0090037EEFF01249EC124A3390037DE0FEB9
:08464D00A3E0FDEDFFE4F5BA66
:014655002242
:0C4A0900EF33333354F8FD7F1B0247C429
:0C4A1500EF33333354F8FD7F1C0247C41C
:10451000E4FDC3EF94BCEE940040030D8043C3EF71
:104520009462EE940040047D028036C3EF942AEE3C
:10453000940040047D028029C3EF942AEE94004049
:10454000047D03801CC3EF9414EE940040047D04AA
:10455000800FC3EF940AEE940040047D0580027D35
:06456000067F1A0247C4A9
:08456600900338EEF0A3EFF022
:10456E00D394E8EE9403400A9003387403F0A374D6
:10457E00E8F0C3900339E09404900338E0940050BF
:10458E0006E4F0A37404F0900338E0FCA3E0FD7E93
:10459E00037FE81212B2EF14FD7F191247C4900385
:0C45AE0038E0C313FEA3E013FF02451029
:0639E90090037C1215B5ED
:1039EF00E4FFFEFD7C3F90037CE0F8A3E0F9A3E049
:1039FF00FAA3E0FB120DF49003801215B590037C2F
:103A0F00E0FCA3E0FDA3E0FEA3E0FF90038412150A
:103A1F00B5900384E0FCA3E0FDA3E0FEA3E0FFA3C9
:103A2F001215B5900388E0FCA3E0FDA3E0FEA3E030
:103A3F00FF780112148BC374DF9FFF74599EFE74BD
:103A4F00379DFD745F9CFC9003881215B590038819
:103A5F00E0FCA3E0FDA3E0FEA3E0FF9003841215BA
:103A6F00B5900384E0FCA3E0FDA3E0FEA3E0FF908C
:103A7F000380E0F8A3E0F9A3E0FAA3E0FB120DF452
:103A8F00900384E0F8A3E0F9A3E0FAA3E0FB120DA2
:103A9F00F4A804A905AA06AB07E4FFFE7DC07C3F8E
:103AAF00120CFF900384E0F8A3E0F9A3E0FAA3E07F
:103ABF00FB120DF49003841215B5900384E0FCA360
:083ACF00E0FDA3E0FEA3E0FF0F
:013AD70022CC
:1000860090045EE0FCA3E0FDA3E0FEA3E0FF900485
:100096005EE0F8A3E0F9A3E0FAA3E0FB120DF4900A
:1000A60003541215B5900462E0FCA3E0FDA3E0FE44
:1000B600A3E0FF90045EE0F8A3E0F9A3E0FAA3E072
:1000C600FB120DF49003581215B5900466E0FCA3DC
:1000D600E0FDA3E0FEA3E0FF90045EE0F8A3E0F9F4
:1000E600A3E0FAA3E0FB120DF490035C1215B590A1
:1000F600046AE0FCA3E0FDA3E0FEA3E0FF90045E3B
:10010600E0F8A3E0F9A3E0FAA3E0FB120DF49003F4
:10011600601215B5900462E0FCA3E0FDA3E0FEA327
:10012600E0FF900462E0F8A3E0F9A3E0FAA3E0FBA5
:10013600120DF49003641215B5900466E0FCA3E07A
:10014600FDA3E0FEA3E0FF900462E0F8A3E0F9A3BC
:10015600E0FAA3E0FB120DF49003681215B59004C3
:100166006AE0FCA3E0FDA3E0FEA3E0FF900462E0EA
:10017600F8A3E0F9A3E0FAA3E0FB120DF490036CF8
:100186001215B5900466E0FCA3E0FDA3E0FEA3E033
:10019600FF900466E0F8A3E0F9A3E0FAA3E0FB12FF
:1001A6000DF49003701215B590046AE0FCA3E0FD0F
:1001B600A3E0FEA3E0FF900466E0F8A3E0F9A3E065
:1001C600FAA3E0FB120DF49003741215B590046ABD
:1001D600E0FCA3E0FDA3E0FEA3E0FF90046AE0F8E4
:1001E600A3E0F9A3E0FAA3E0FB120DF49003781262
:1001F60015B57F43124608AC06AD07EC1210297BF5
:10020600337A3379037842120EFD7B937AA9791CEF
:100216007841120DF49004461215B57F4512460832
:10022600AC06AD07EC1210297B337A33790378429A
:10023600120EFD7B937AA9791C7841120DF4900475
:100246004A1215B57F47124608AC06AD07EC1210E8
:10025600297B337A3379037842120EFD7B937AA990
:10026600791C7841120DF490044E1215B57F3B129D
:100276004608AC06AD07EC121029E4FBFA79807843
:1002860046120EFD7BE17A2E79657842120EFD90BC
:1002960004521215B57F3D124608AC06AD07EC12A6
:1002A6001029E4FBFA79807846120EFD7BE17A2E5E
:1002B60079657842120EFD9004561215B57F3F12ED
:1002C6004608AC06AD07EC121029E4FBFA798078F3
:1002D60046120EFD7BE17A2E79657842120EFD906C
:1002E600045A1215B5900456E0FCA3E0FDA3E0FE07
:1002F600A3E0FF900452E0F8A3E0F9A3E0FAA3E03C
:10030600FB120DF490045AE0F8A3E0F9A3E0FAA377
:10031600E0FB120DF4E4FBFAF9F8120F9A700302EF
:100326000CFB900456E0FCA3E0FDA3E0FEA3E0FF77
:10033600A804A905AA06FB120DF4C004C005C00650
:10034600C007900452E0FCA3E0FDA3E0FEA3E0FF9B
:10035600A804A905AA06FB120DF4D003D002D00109
:10036600D000120D03C004C005C006C00790045A91
:10037600E0FCA3E0FDA3E0FEA3E0FFA804A905AA14
:1003860006FB120DF4D003D002D001D000120D03EB
:100396001239E99003501215B5900452E0FCA3E01F
:1003A600FDA3E0FEA3E0FF900350E0F8A3E0F9A36D
:1003B600E0FAA3E0FB120DF49004521215B5900476
:1003C60056E0FCA3E0FDA3E0FEA3E0FF900350E0AF
:1003D600F8A3E0F9A3E0FAA3E0FB120DF4900456AB
:1003E6001215B590045AE0FCA3E0FDA3E0FEA3E0DD
:1003F600FF900350E0F8A3E0F9A3E0FAA3E0FB12B4
:100406000DF490045A1215B590035CE0F8A3E0F9D8
:10041600A3E0FAA3E0FB90036CE0FCA3E0FDA3E0FD
:10042600FEA3E0FF120CFFE4FBFAF97840120DF48C
:100436009003381215B5900374E0FCA3E0FDA3E029
:10044600FEA3E0FF900358E0F8A3E0F9A3E0FAA3C7
:10045600E0FB120D03E4FBFAF97840120DF4900369
:100466003C1215B5900364E0F8A3E0F9A3E0FAA303
:10047600E0FB900354E0FCA3E0FDA3E0FEA3E0FF55
:10048600120CFF900370E0F8A3E0F9A3E0FAA3E0F2
:10049600FB120CFF900378E0F8A3E0F9A3E0FAA3BF
:1004A600E0FB120D039003401215B590033CE0FCEF
:1004B600A3E0FDA3E0FEA3E0FF90045AE0F8A3E06A
:1004C600F9A3E0FAA3E0FB120DF4C004C005C006D0
:1004D600C007900340E0FCA3E0FDA3E0FEA3E0FF1D
:1004E600900456E0F8A3E0F9A3E0FAA3E0FB120DAE
:1004F600F4D003D002D001D000120CFF90034412B6
:1005060015B5900340E0FCA3E0FDA3E0FEA3E0FFE9
:10051600900452E0F8A3E0F9A3E0FAA3E0FB120D81
:10052600F4C004C005C006C007900338E0FCA3E091
:10053600FDA3E0FEA3E0FF90045AE0F8A3E0F9A3D0
:10054600E0FAA3E0FB120DF4D003D002D001D000F4
:10055600120CFF9003481215B5900338E0FCA3E097
:10056600FDA3E0FEA3E0FF900456E0F8A3E0F9A3A4
:10057600E0FAA3E0FB120DF4C004C005C006C007F4
:1005860090033CE0FCA3E0FDA3E0FEA3E0FF9004A3
:1005960052E0F8A3E0F9A3E0FAA3E0FB120DF4D0D1
:1005A60003D002D001D000120CFF90034C1215B5F7
:1005B60090042EE0F8A3E0F9A3E0FAA3E0FBC00064
:1005C600C001C002C0037F0A7ED77DA37C3B900397
:1005D60044E0F8A3E0F9A3E0FAA3E0FB120DF4D09F
:1005E60003D002D001D000120D0390042E1215B5CF
:1005F600900432E0F8A3E0F9A3E0FAA3E0FBC00020
:10060600C001C002C0037F0A7ED77DA37C3B900356
:1006160048E0F8A3E0F9A3E0FAA3E0FB120DF4D05A
:1006260003D002D001D000120D039004321215B58A
:10063600900436E0F8A3E0F9A3E0FAA3E0FBC000DB
:10064600C001C002C0037F0A7ED77DA37C3B900316
:100656004CE0F8A3E0F9A3E0FAA3E0FB120DF4D016
:1006660003D002D001D000120D039004361215B546
:10067600E4FFFE7DC07C3F900344E0F8A3E0F9A3CD
:10068600E0FAA3E0FB120DF4900446E0F8A3E0F9CB
:10069600A3E0FAA3E0FB120D0390042EE0F8A3E01A
:1006A600F9A3E0FAA3E0FB120D039004461215B578
:1006B600E4FFFE7DC07C3F900348E0F8A3E0F9A389
:1006C600E0FAA3E0FB120DF490044AE0F8A3E0F987
:1006D600A3E0FAA3E0FB120D03900432E0F8A3E0D6
:1006E600F9A3E0FAA3E0FB120D0390044A1215B534
:1006F600E4FFFE7DC07C3F90034CE0F8A3E0F9A345
:10070600E0FAA3E0FB120DF490044EE0F8A3E0F942
:10071600A3E0FAA3E0FB120D03900436E0F8A3E091
:10072600F9A3E0FAA3E0FB120D0390044E1215B5EF
:1007360090045EE0F8A3E0F9A3E0FAA3E0FBC000B2
:10074600C001C002C003A3E0FCA3E0FDA3E0FEA33A
:10075600E0FF121013900446E0F8A3E0F9A3E0FAD4
:10076600A3E0FB120DF4C004C005C006C007900448
:100776004AE0FCA3E0FDA3E0FEA3E0FF900466E0F0
:10078600F8A3E0F9A3E0FAA3E0FB120DF4A804A98C
:1007960005AA06AB07D007D006D005D004120CFF79
:1007A600C004C005C006C00790044EE0FCA3E0FDEF
:1007B600A3E0FEA3E0FF90046AE0F8A3E0F9A3E05B
:1007C600FAA3E0FB120DF4A804A905AA06AB07D00C
:1007D60007D006D005D004120CFF7B0A7AD77923FE
:1007E600783C120DF4D003D002D001D000120D03D4
:1007F60090045E1215B5900462E0F8A3E0F9A3E058
:10080600FAA3E0FBC000C001C002C00390044EE0A2
:10081600FCA3E0FDA3E0FEA3E0FF900466E0F8A3DE
:10082600E0F9A3E0FAA3E0FB120DF4C004C005C092
:1008360006C007900446E0FCA3E0FDA3E0FEA3E0AB
:10084600FF90045EE0F8A3E0F9A3E0FAA3E0FB1250
:100856000DF4D003D002D001D000120D03C004C0A5
:1008660005C006C00790044AE0FCA3E0FDA3E0FE35
:10087600A3E0FF90046AE0F8A3E0F9A3E0FAA3E09E
:10088600FB120DF4A804A905AA06AB07D007D006EB
:10089600D005D004120CFF7B0A7AD77923783C1254
:1008A6000DF4D003D002D001D000120D03900462E3
:1008B6001215B5900466E0F8A3E0F9A3E0FAA3E008
:1008C600FBC000C001C002C00390044EE0FCA3E0E0
:1008D600FDA3E0FEA3E0FF900462E0F8A3E0F9A325
:1008E600E0FAA3E0FB120DF4C004C005C006C00781
:1008F60090044AE0FCA3E0FDA3E0FEA3E0FF900421
:100906005EE0F8A3E0F9A3E0FAA3E0FB120DF4D051
:1009160003D002D001D000120CFFC004C005C006EF
:10092600C007900446E0FCA3E0FDA3E0FEA3E0FFC1
:1009360090046AE0F8A3E0F9A3E0FAA3E0FB120D45
:10094600F4D003D002D001D000120D037B0A7AD76F
:100956007923783C120DF4D003D002D001D00012D6
:100966000D039004661215B590046AE0F8A3E0F949
:10097600A3E0FAA3E0FBC000C001C002C0039004DC
:100986004AE0FCA3E0FDA3E0FEA3E0FF900462E0E2
:10099600F8A3E0F9A3E0FAA3E0FB120DF4C004C04B
:1009A60005C006C00790044EE0FCA3E0FDA3E0FEF0
:1009B600A3E0FF90045EE0F8A3E0F9A3E0FAA3E069
:1009C600FB120DF4D003D002D001D000120D03C0EB
:1009D60004C005C006C007900446E0FCA3E0FDA3E2
:1009E600E0FEA3E0FF900466E0F8A3E0F9A3E0FAD6
:1009F600A3E0FB120DF4A804A905AA06AB07D007CD
:100A0600D006D005D004120CFF7B0A7AD77923785A
:100A16003C120DF4D003D002D001D000120D039089
:100A2600046A1215B5900462E0FCA3E0FDA3E0FEA3
:100A3600A3E0FF900462E0F8A3E0F9A3E0FAA3E0E4
:100A4600FB120DF4C004C005C006C00790045EE0AA
:100A5600FCA3E0FDA3E0FEA3E0FF90045EE0F8A3A4
:100A6600E0F9A3E0FAA3E0FB120DF4D003D002D024
:100A760001D000120D03C004C005C006C0079004D3
:100A860066E0FCA3E0FDA3E0FEA3E0FF900466E0C1
:100A9600F8A3E0F9A3E0FAA3E0FB120DF4D003D02B
:100AA60002D001D000120D03C004C005C006C00765
:100AB60090046AE0FCA3E0FDA3E0FEA3E0FF90043F
:100AC6006AE0F8A3E0F9A3E0FAA3E0FB120DF4D084
:100AD60003D002D001D000120D031239E990035061
:100AE6001215B590045EE0FCA3E0FDA3E0FEA3E0D2
:100AF600FF900350E0F8A3E0F9A3E0FAA3E0FB12AD
:100B06000DF490045E1215B5900462E0FCA3E0FDBE
:100B1600A3E0FEA3E0FF900350E0F8A3E0F9A3E012
:100B2600FAA3E0FB120DF49004621215B590046668
:100B3600E0FCA3E0FDA3E0FEA3E0FF900350E0F895
:100B4600A3E0F9A3E0FAA3E0FB120DF49004661209
:100B560015B590046AE0FCA3E0FDA3E0FEA3E0FF68
:100B6600900350E0F8A3E0F9A3E0FAA3E0FB120D2E
:100B7600F490046A1215B5900360E0FCA3E0FDA3AF
:100B8600E0FEA3E0FF900368E0F8A3E0F9A3E0FA33
:100B9600A3E0FB120D03E4FBFAF97840120DF4C052
:100BA60004C005C006C007900364E0FCA3E0FDA3F3
:100BB600E0FEA3E0FF900354E0F8A3E0F9A3E0FA17
:100BC600A3E0FB120D03900370E0F8A3E0F9A3E0A5
:100BD600FAA3E0FB120CFF900378E0F8A3E0F9A378
:100BE600E0FAA3E0FB120CFF9003801215B5D007C4
:100BF600D006D005D004123FC97B337A33796578A5
:100C060042120DF49004421215B590035CE0F8A36D
:100C1600E0F9A3E0FAA3E0FB90036CE0FCA3E0FD9F
:100C2600A3E0FEA3E0FF120CFFE4FBFAF978401202
:100C36000DF412469E1210137B337A33796578428F
:100C4600120DF490043E1215B5E4FFFEFD7C4090B3
:100C56000358E0F8A3E0F9A3E0FAA3E0FB120DF4D1
:100C6600C004C005C006C007E4FFFEFD7C4090033B
:100C760074E0F8A3E0F9A3E0FAA3E0FB120DF4D0C8
:100C860003D002D001D000120D03C004C005C00677
:100C9600C007900364E0F8A3E0F9A3E0FAA3E0FB41
:100CA600900354E0FCA3E0FDA3E0FEA3E0FF120CDA
:100CB600FF900370E0F8A3E0F9A3E0FAA3E0FB12CB
:100CC6000CFF900378E0F8A3E0F9A3E0FAA3E0FBB9
:100CD600120D039003801215B5D007D006D005D0AB
:100CE60004123FC97B337A3379657842120DF4904A
:050CF600043A1215B5DF
:010CFB0022D6
:100CFC000210CEE86480F8E933E83360110460F048
:100D0C00ED33EC337009E8FCE9FDEAFEEBFF22045D
:100D1C0060DED3EB9FEA9EE99DE8C2E78CF0C2F758
:100D2C0095F0400CE8CCF8E9CDF9EACEFAEBCFFB24
:100D3C0012109985D0F05804700320D5B3E80470D4
:100D4C00075002B2D50210D892D5EC0460F7E4CC6F
:100D5C00C0E0C398F8603B94186008400DD0E0FBED
:100D6C000210B0E4FBFAC9FC8028E830E406E4C9C0
:100D7C00FBE4CAFCE830E305E4C9CACBFCE8540741
:100D8C006010F8C3E913F9EA13FAEB13FBEC13FC4C
:100D9C00D8F130F52FC3E49CFCEF9BFFEE9AFEEDEF
:100DAC0099FDD0E0FBEF4E4D4C701222DB0302108C
:100DBC00D5EC2CFCEF33FFEE33FEED33FDED30E7DD
:100DCC00EB0210B0EF2BFFEE3AFEED39FDD0E0FB5D
:100DDC0050130BBB00030210D8ED13FDEE13FEEF06
:080DEC0013FFEC13FC0210B030
:100DF400EC4D6011E8497017ED33EC3304600DE4F9
:100E0400FCFFFEFD22E933E8330470F80210CE1231
:100E1400109958046009E4CC248150062850090232
:100E240010D82840030210D5C0E0EB4A7044B980C2
:100E340006D0E0FB0210C4EF4E701CBD8008EBFF2F
:100E4400EAFEE9FD80EBE98DF0A4FEE5F0020EDD9B
:100E5400E9CDF9EAFEEBFFEF89F0A4FCE5F0CE89D9
:100E6400F0A42EFFE435F0CD89F0A42DFEE435F096
:100E74008067EF4E7005BD80D780C3EF8BF0A4ACC4
:100E8400F0EE8BF0A42CFCE435F0F8EF8AF0A42CFF
:100E9400E5F038FCE433CB8DF0A42CFCE5F03BF812
:100EA400EE8AF0A42CFCE5F038F8E433CF89F0A402
:100EB4002CFCE5F038CF3400CE89F0A42FFFE5F008
:100EC4003EFEE433C98DF0A42EFEE5F039CD8AF060
:100ED400A42FFFE5F03EFEE43DFD33D0E0FB5007D8
:100EE4000BBB000F0210D8EC2CFCEF33FFEE33FEEB
:060EF400ED33FD0210B019
:100EFA000210D8EC5D046005E8590470030210CEB4
:100F0A00121099580460F6EC4860F2EC7004FDFE89
:100F1A00FF22C860DB2481C85009C39860025006CA
:100F2A000210D59850CAF582E9294B4A7005AB825E
:100F3A000210C475F0007C1A7880C3EF9BEE9AED1C
:100F4A0099400DC3EF9BFFEE9AFEED99FDE842F042
:100F5A00DC23ACF0D0E0FFD0E0FED0E0FDAB822095
:100F6A00E7101BEB60BAEC2CFCEF33FFEE33FEED1F
:100F7A0033FD0210B0E803F830E705C0F075F00061
:100F8A00EF2FFFEE33FEED33FD40B830E7C280AA03
:100F9A0074F8CC6480CCC86480C8F58204604FC3FE
:100FAA00EB9FF5F0EA9E42F0E99D42F0E89C45F09D
:100FBA00603C501DE5825FFFE582D313CB5BCBF427
:100FCA002B5582FB50280ABA002409B90020088050
:100FDA001DE5825BFBE582D313CF5FCFF4C3132FEA
:100FEA005582FF50090EBE00050DBD00010CC3EB72
:100FFA009FF5F0EA9E42F0E99D42F0E89C45F060D8
:09100A0007CC4820E701B3EC22F9
:10101300ED33EC33600A047003BD8004ECB2E7FCEB
:0110230022AA
:1010240075F020800E75F010800575F0087D007E47
:10103400007F003392D530D503121459EC3340109D
:10104400EF33FFEE33FEED33FDEC33FCD5F0ED2250
:0E105400E5F0247EA2D513CC92E7CDCEFF228C
:10106200EDD2E7CD33EC3392D524814006E4FFFE86
:10107200FDFC22FCE4CFCECDCC24E0501174FF80E5
:10108200EDC3CC13CCCD13CDCE13CECF13CF047082
:07109200F030D5DE02145915
:103FC90090037C1215B5900380E0F8A3E0F9A3E013
:103FD900FAA3E0FB90037CE0FCA3E0FDA3E0FEA3D1
:103FE900E0FF120EFD1238E790037C1215B590031D
:103FF90080E030E75990037CE0FCA3E0FDA3E0FEFC
:10400900A3E0FFECC0E0EDC0E0EEC0E0EFC0E0E40B
:10401900FFFEFDFC90037CE0F8A3E0F9A3E0FAA31E
:10402900E0FB120F9A7BDB600250087A0F7949781E
:104039004080067A0F794978C0D0E0FFD0E0FED001
:10404900E0FDD0E0FC120D0390037C1215B590033E
:0D4059007CE0FCA3E0FDA3E0FEA3E0FF225D
:10469E00ECC0E0F8EDC0E0F9EEC0E0FAEFC0E0FBF0
:1046AE00120DF4EC6480FC7B007A007980783F1266
:1046BE000D03123DD7D0E0CFFBD0E0CEFAD0E0CD47
:0B46CE00F9D0E0CCF8120EFD0238E736
:10109900E9D2E7C933E833F892D5EDD2E7CD33EC9D
:0710A90033FC5002B2D52216
:1010B000EC30E7100FBF000C0EBE00080DBD0004A1
:1010C0000BEB6014A2D5EB13FCED92E7FD2274FF4D
:1010D000FCFDFEFF22E480F8A2D574FF13FC7D80A6
:0310E000E480EFBA
:103DD3000210CE22EDA2E7D2E7F9EC3340F260F312
:103DE300B4FF08ED547F70E80210D8F82481C2E0D4
:103DF300C0E0F40428FAC313FCED92E7FD90037CC2
:103E03001215B5EEA2E7E9BA7F02C313340094009A
:103E1300FA75F091A4E5F013F494FE8AF0A433E567
:103E2300F033248CD313FDE492E7FE7F007C3F75CF
:103E33008302ECC0E0F8EDC0E0F9EEC0E0FAEFC0B9
:103E4300E0FB8583F090037C12152D85F083120E21
:103E5300FDD0E0FBD0E0FAD0E0F9D0E0F8120D039A
:103E6300ED6480FD30E7011CD583C7ED33CC33F817
:0C3E7300D0E0A2E71328C313CC13FD22FB
:1038C700BE1249253E4CCCCDBEAAAAAB3F80000014
:1038D7003E7ADBB03EED63383F24BC7D3F490FDBCA
:1038E700ED33ECC2E7CC339202B4FF13ED547F60A3
:1038F700030210CE7FDB7E0F7DC97C3F0239DCC21D
:1039070003C3947F401E7007EDD2E794904015EFF4
:10391700FBEEFAEDF9ECF87F007E007D807C3F122C
:103927000EFDD203ED33EC33248430E705E4C0E029
:10393700806B04FAEDD2E754F0C333DAFD54073451
:10394700002323C0E0CCC0E0F8EDC0E0F9EEC0E012
:10395700FAEFC0E0FBE412102EEC24FEFC90038487
:103967001215B5120DF47B007A007980783F120D9D
:1039770003900384E0B2E7CCF0A3E0CDF0A3E0CE60
:10398700F0A3E0CFF0D0E0FBD0E0FAD0E0F9D0E050
:10399700F8120D03900384121549120EFD9003844B
:1039A7001215B59038C774031210E39003841215EB
:1039B70049120DF4D0E0600F24D3F582E43438F5D2
:1039C70083121555120D0330030B7BDB7A0F79C970
:1039D70078BF120D03ED33EC336006ECA20292E7D9
:0239E700FC22C0
:1010E300C0E0EFFBEEFAEDF9ECF8120DF4D0E0F509
:1010F300F0EFFBEEFAEDF9ECF8121539A3A3A3A375
:10110300E8C0E0E9C0E0EAC0E0EBC0E0C0F0120DE7
:10111300F4121555A3A3A3A3120D03D0F0D0E0FB43
:0D112300D0E0FAD0E0F9D0E0F8D5F0D42209
:1040FF00024066E493A3F8E493A34003F68001F231
:10410F0008DFF48029E493A3F85407240CC8C333C1
:10411F00C4540F4420C8834004F456800146F6DF90
:10412F00E4800B0102040810204080901F93E47E6E
:10413F00019360BCA3FF543F30E509541FFEE49385
:10414F00A360010ECF54C025E060A840B8E493A34C
:10415F00FAE493A3F8E493A3C8C582C8CAC583CA77
:10416F00F0A3C8C582C8CAC583CADFE9DEE780BE2F
:01230A0000D2
:10113000E709F608DFFA8046E709F208DFFA803EA1
:1011400088828C83E709F0A3DFFA8032E309F6088E
:10115000DFFA8078E309F208DFFA807088828C83F6
:10116000E309F0A3DFFA806489828A83E0A3F608AA
:10117000DFFA805889828A83E0A3F208DFFA804C84
:1011800080D280FA80C680D4806980F2803380105B
:1011900080A680EA809A80A880DA80E280CA8033C4
:1011A00089828A83ECFAE493A3C8C582C8CCC5833C
:1011B000CCF0A3C8C582C8CCC583CCDFE9DEE7800C
:1011C0000D89828A83E493A3F608DFF9ECFAA9F08B
:1011D000EDFB2289828A83ECFAE0A3C8C582C8CCE1
:1011E000C583CCF0A3C8C582C8CCC583CCDFEADEFA
:1011F000E880DB89828A83E493A3F208DFF980CC5C
:1012000088F0EF60010E4E60C388F0ED2402B40454
:101210000050B9F582EB2402B4040050AF232345FB
:061220008223901180738F
:10122600BB010689828A83E0225002E722BBFE02C6
:09123600E32289828A83E49322F9
:10123F00BB010CE58229F582E5833AF583E0225064
:10124F0006E92582F8E622BBFE06E92582F8E222AE
:0D125F00E58229F582E5833AF583E49322C8
:10126C00BB010689828A83F0225002F722BBFE0161
:02127C00F3225B
:10127E00F8BB010DE58229F582E5833AF583E8F0A6
:10128E00225006E92582C8F622BBFE05E92582C852
:02129E00F2223A
:1012A000EF8DF0A4A8F0CF8CF0A428CE8DF0A42E62
:0212B000FE221C
:1012B200BC000BBE0029EF8DF084FFADF022E4CC20
:1012C200F875F008EF2FFFEE33FEEC33FCEE9DECE9
:1012D200984005FCEE9DFE0FD5F0E9E4CEFD22ED2F
:1012E200F8F5F0EE8420D21CFEADF075F008EF2F79
:1012F200FFED33FD4007985006D5F0F222C398FD6A
:051302000FD5F0EA2206
:10130700C2D5EC30E709B2D5E4C39DFDE49CFCEE01
:1013170030E715B2D5E4C39FFFE49EFE1212B2C3B5
:10132700E49DFDE49CFC80031212B230D507C3E4B0
:061337009FFFE49EFE2270
:10133D00C5F0F8A3E028F0C5F0F8E582158270023B
:06134D001583E038F022D8
:10135300BB0110E58229F582E5833AF583E0F5F0D8
:10136300A3E0225009E92582F886F008E622BBFEB5
:101373000AE92582F8E2F5F008E222E5832AF583FB
:08138300E993F5F0A3E99322C0
:10138B0075F008758200EF2FFFEE33FECD33CDCC19
:10139B0033CCC58233C5829BED9AEC99E58298409C
:1013AB000CF582EE9BFEED9AFDEC99FC0FD5F0D679
:1013BB00E4CEFBE4CDFAE4CCF9A88222B800C1B9A3
:1013CB000059BA002DEC8BF084CFCECDFCE5F0CBE1
:1013DB00F97818EF2FFFEE33FEED33FDEC33FCEB1A
:1013EB0033FB10D703994004EB99FB0FD8E5E4F9D5
:1013FB00FA227818EF2FFFEE33FEED33FDEC33FCC2
:10140B00C933C910D7059BE99A4007EC9BFCE99AB5
:10141B00F90FD8E0E4C9FAE4CCFB2275F010EF2FFA
:10142B00FFEE33FEED33FDCC33CCC833C810D707FA
:10143B009BEC9AE899400AED9BFDEC9AFCE899F835
:0E144B000FD5F0DAE4CDFBE4CCFAE4C8F922C8
:0E145900C3E49FFFE49EFEE49DFDE49CFC22A4
:10146700EB9FF5F0EA9E42F0E99D42F0E89C45F0DB
:011477002252
:10147800E8600FECC313FCED13FDEE13FEEF13FF52
:03148800D8F12276
:10148B00E86010ECA2E713FCED13FDEE13FEEF1377
:04149B00FFD8F02264
:10149F00BB010789828A8302152D5005E9F80216D0
:1014AF0016BBFE05E9F802162289828A83021539D6
:1014BF00BB010DE58229F582E5833AF58302152DEF
:1014CF005007E92582F8021616BBFE07E92582F8B8
:1014DF00021622E58229F582E5833AF58302153952
:1014EF00BB010789828A830215B55005E9F80216F8
:0A14FF0048BBFE05E9F8021654226E
:10150900BB010DE58229F582E5833AF5830215B51C
:101519005007E92582F8021648BBFE07E92582F83B
:041529000216542230
:0C152D00E0FCA3E0FDA3E0FEA3E0FF2231
:10153900E493FC740193FD740293FE740393FF22F8
:0C154900E0F8A3E0F9A3E0FAA3E0FB2225
:10155500E493F8740193F9740293FA740393FB22EC
:10156500BB010789828A830215495005E9F80216ED
:101575002EBBFE05E9F802163B89828A83021555C2
:10158500BB010DE58229F582E5833AF5830215490C
:101595005007E92582F802162EBBFE07E92582F8D9
:1015A50002163BE58229F582E5833AF58302155556
:0C15B500ECF0A3EDF0A3EEF0A3EFF022A9
:1015C100A8828583F0D083D0821215D81215D81243
:1015D10015D81215D8E473E493A3C583C5F0C58368
:1015E100C8C582C8F0A3C583C5F0C583C8C582C874
:0115F10022D7
:1015F200BB010DE58229F582E5833AF5830215C127
:101602005007E92582F8021660BBFE07E92582F839
:041612000216792221
:0C161600E6FC08E6FD08E6FE08E6FF2200
:0C162200E2FC08E2FD08E2FE08E2FF2204
:0D162E00E6FB08E6F908E6FA08E6CBF8222C
:0D163B00E2FB08E2F908E2FA08E2CBF8222F
:0C164800ECF608EDF608EEF608EFF622CE
:0C165400ECF208EDF208EEF208EFF222D2
:10166000D083D082E493F608740193F60874029351
:09167000F608740393F674047388
:10167900D083D082E493F208740193F20874029340
:09168900F208740393F274047377
:00000001FF
