:0300000002313B8F
:0C313B00787FE4F6D8FD75812002318217
:01000A0022D3
:10377900E4FDFCC3ED9FEC9E50100079207B28DB13
:0A378900FED9FC0DBD00010C80E923
:013793002213
:10379400E4FDFCC3ED9FEC9E500B7B06DBFE0DBDF0
:0537A40000010C80EEA5
:0137A90022FD
:1022CF00EFD394057480948040037F01221205633D
:1022DF00FED394037480948040037F0222EF7044F6
:1022EF00EE700B90000112057CF45293529412057C
:1022FF00636401700B90000112057C4293F45294B9
:10230F00120563FE6402700A90000112057C42936D
:10231F004294EE6403700D90000112057CFEF4529E
:10232F0093EE4294EF64017046120563FE700B90BA
:10233F00000112057CF452915292EE6401700B90E1
:10234F00000112057C4291F45292120563640270EF
:10235F000A90000112057C429142921205636403B8
:10236F00700D90000112057CFEF45291EE4292EF37
:10237F0064027046120563FE700B90000112057C1B
:10238F00F452955296EE6401700B90000112057C89
:10239F004295F452961205636402700A900001127E
:1023AF00057C429542961205636403700D900001FF
:1023BF0012057CFEF45295EE4296EF6403704612BE
:1023CF000563FE700B90000112057CF452B152B2FE
:1023DF00EE6401700B90000112057C42B1F452B211
:1023EF001205636402700A90000112057C42B1422B
:1023FF00B21205636403700D90000112057CFEF4A8
:10240F0052B1EE42B2EF64047046120563FE700BD8
:10241F0090000112057CF452B352B4EE6401700BBC
:10242F0090000112057C42B3F452B41205636402AA
:10243F00700A90000112057C42B342B41205636426
:10244F0003700D90000112057CFEF452B3EE42B4FE
:10245F00EF64057049120563FF7E00700B90000159
:10246F0012057CF452C952CAEF64014E700B9000F2
:10247F000112057C42C9F452CA1205636402700A44
:10248F0090000112057C42C942CA120563640370B1
:10249F000D90000112057CFFF452C9EF42CA7F0074
:0124AF00220A
:10359200EFFD7C00701075BA9090FE8074E0F090A0
:1035A200FE82E4F0801EED64014C701875BA8090C2
:1035B200FE807481F090FE85745AF090FE84E4F0EF
:0835C20090FE83F0E4F5BA224B
:10325300D200D201E49004E3F0E02400F8E290FE0F
:1032630086F090FE84E030E605E054BFF02290FE45
:1032730084E030E52DE054DFF0300003C20022305B
:10328300010DC20190FE87E09004E3F0E0802F90EF
:10329300FE87E0FF9004E3E0FE04F074002EF8EFF5
:1032A300F22290FE84E030E41EE054EFF0E030E1DF
:1032B3000790FE8674FFF0229004E3E004F02400FC
:1032C300F8E290FE86F02290FE84E030E308E054BA
:0732D300F7F0D200D2012246
:0C00460090FE82E030E6F9E054BFF022AA
:09385E0090FE817401F0020046A5
:1038100090FE86EFF090FE817402F01200460238AE
:013820006740
:0938670090FE817403F00200469A
:0F38320090FE817404F012004690FE87E0FF22A2
:0E38500090FE82E4F090FE817405F0020046C6
:0F38410090FE827401F090FE817405F002004643
:0938700090FE817406F00200468E
:1037EA00E4FFFE000000000FBF00010EBE0BF4BF95
:0237FA00B8F124
:0137FC0022AA
:10382100E59A30E103539AFDE59A30E003539AFE9D
:013831002274
:030023000232DACC
:1032DA00C0E0C083C082C0D075D000C006C007302D
:1032EA009831C298900376E07029900374E0C394F1
:1032FA000B748094804002E4F0900374E0FF04F0C1
:10330A00747E2FF582E43403F583E599F090037512
:10331A007405F0309934C299900372E0FF900371FA
:10332A00E0FE6F602074942EF582E43403F583E0A6
:10333A00F599900371E004F0C3940B748094804073
:10334A0009E4F08005900373E4F0D007D006D0D0EA
:07335A00D082D083D0E032E5
:0300430002336124
:10336100C0E0C083C082C0D075D000C006C00712C3
:10337100382190037DE0702990037BE0C3940B74A6
:103381008094804002E4F090037BE0FF04F07489B4
:103391002FF582E43403F583E59BF090037C7405FB
:1033A100F0123821900379E0FF900378E0FE6F601E
:1033B10020749F2EF582E43403F583E0F59B90039E
:1033C10078E004F0C3940B748094804009E4F080A9
:1033D1000590037AE4F0D007D006D0D0D082D08314
:0333E100D0E03207
:100E9C00900496EBF0A3EAF0A3E9F0900495EFF040
:100EAC00D2AF6401600302111390037004F0E4A349
:100EBC00F0A3F0A3F0A3F0A3F0A3F0900499F090AA
:100ECC000499E0FFC3940B74809480501474942F95
:100EDC00F582E43403F583E4F0900499E004F080A7
:100EEC00DEE4900499F0900499E0FFC3940B7480B5
:100EFC0094805014747E2FF582E43403F583E4F06F
:100F0C00900499E004F080DE900496E0FBA3E0FAF4
:100F1C00A3E0F9120563FD7C00D394C07480948027
:100F2C0040037F022290000A12057C64017004D2F7
:100F3C00BC8002C2BC120563FFE598543F4FF59884
:100F4C00ED64C04C6008EF6440600302103E9000FA
:100F5C00021208767F807E8D7D5B7C0012070490E8
:100F6C00049A1208A6E4FFFE7D01FC90049AE0F8B6
:100F7C00A3E0F9A3E0FAA3E0FBC31207A440037FAC
:100F8C00022290049AE0F8A3E0F9A3E0FAA3E0FBB4
:100F9C00C3E49BFFE49AFE740199FDE498FC900471
:100FAC009A1208A6900496E0FBA3E0FAA3E0F9904D
:100FBC00000112057CFB7A0064017038C28E538EDE
:100FCC00FE5389BF5389CF438E4090049AE0FCA313
:100FDC00E0FDA3E0FEA3E0FF78081207B58F8D902B
:100FEC00049AA3A3A3E0F58BC2AB5389BF538FFD27
:100FFC00D28E807DEB64024A7035538EEF438E01A6
:10100C00538EF7438E0490049AE0FCA3E0FDA3E01A
:10101C00FEA3E0FF78081207B58FD690049AA3A31D
:10102C00A3E0F5D753AFFB538EF7438E1080427F6E
:10103C000222900496E0FBA3E0FAA3E0F912056308
:10104C00FF7E00701490000812057C64017005434B
:10105C008E20801D538EDF8018EF64804E701290AE
:10106C00000812057C640170054387808003538758
:10107C007F900496E0FBA3E0FAA3E0F9900009123C
:10108C00057C64017004D2AC8002C2AC90000712E3
:10109C00057C64017004D29C8002C29C90000B12EF
:0410AC00057C700A45
:0810B00090049E7403F0A314E8
:1010B800802F900496E0FBA3E0FAA3E0F990000BE0
:0A10C80012057C648090049E7011F4
:0F10D2007403F0A37480F07B017A04799E7F0190
:0210E100800F7E
:1010E3007403F0A37480F07B017A04799E7F03126A
:0210F30022CF0A
:1010F500900496E0FBA3E0FAA3E0F990000B12053B
:101105007C54C0FFE5A2543F4FF5A27F0022900416
:1011150095E0640260030212B99003777402F0E46B
:10112500A3F0A3F0A3F0A3F0A3F0A3F0900499F02B
:10113500900499E0FFC3940B748094805014749FBD
:101145002FF582E43403F583E4F0900499E004F08C
:1011550080DEE4900499F0900499E0FFC3940B7449
:10116500809480501474892FF582E43403F583E468
:10117500F0900499E004F080DE900496E0FBA3E093
:10118500FAA3E0F9120563FF64C06008EF644060EC
:101195000302123F90000A12057C6401700543B5F5
:1011A50001800353B5FE12056364C07005439A8040
:1011B5008003539A7F9000021208767F807E8D7D92
:1011C5005B7C0012070490049A1208A6E4FFFE7DDA
:1011D50001FC90049AE0F8A3E0F9A3E0FAA3E0FB90
:1011E500C31207A440037F022290049AE0F8A3E00B
:1011F500F9A3E0FAA3E0FBC3E49BFFE49AFE7401C4
:1012050099FDE498FC90049A1208A6538EEF538E2C
:10121500F7438E0490049AE0FCA3E0FDA3E0FEA34F
:10122500E0FF78081207B58FD690049AA3A3A3E030
:10123500F5D753AFFB438E1080037F0222900496AF
:10124500E0FBA3E0FAA3E0F990000912057C640134
:10125500700543AF01800353AFFE90000712057C74
:1012650064017005439A108003539AEF90000B12A6
:07127500057C90049E70103F
:0E127C007403F0A314F07B017A04799E7F01C5
:02128A00800FD3
:10128C007403F0A37480F07B017A04799E7F0412BE
:02129C0022CF5F
:10129E00900496E0FBA3E0FAA3E0F990000B120590
:0D12AE007C5401FFE5BA54FE4FF5BA7F00F5
:0112BB002210
:1036A6009004E4EFF0900373E0701304F09004E4E8
:1036B600E0F5993099FDC299E4900373F0227F05F5
:0736C6007E0012379480DE44
:1035F900900379E0249FF582E43403F583EFF0909A
:103609000379E004F0C3940B748094804002E4F0E1
:0C36190090037AE0700504F012382122C2
:103625009004CAEBF0A3EAF0A3E9F09004CAE0FB2A
:10363500A3E0FAA3E0F9120563FF600F1236A69026
:0C36450004CBE475F00112067A80E0224C
:1037FD00120563FF600C1235F9740129F9E43AFAE8
:03380D0080EE2228
:073882003098FDC298AF99D8
:01388900221C
:05388A00123821AF9B84
:01388F002216
:1024B000900455EBF0A3EAF0A3E9F0900453EEF09A
:0324C000A3EFF097
:1024C300E4900458F0A3F0C3EE64809480501EE4BB
:1024D30090045CF0A3F0900453E0FEA3E0FFC3E498
:1024E3009FFFE49E900453F0A3EFF0800890045CF8
:1024F300E4F0A304F0900453E0FEA3E0FF7C007D2E
:102503000A120644EF4E604B900453E0FAA3E0FB3B
:102513007C007D0AFFAE02120644ED2430FF9004D6
:1025230058E0FCA3E0245EF58274043CF583EFF0ED
:102533007C007D0AAF03AE02120644900453EEF012
:10254300A3EFF0900459E004F070AA900458E0045B
:10255300F080A2900453A3E02430FF900458E0FCE1
:10256300A3E0245EF58274043CF583EFF090045CF1
:10257300E07002A3E06003022609900455E0FBA388
:10258300E0FAA3E0F9742D1205A9900458E0FFA323
:10259300E0A3CFF0A3EFF090045AE0FEA3E0FFD353
:1025A30094FFEE6480947F404A745E2FF582740436
:1025B3003EF583E0FF90045AE0FCA3E0FDC39004E2
:1025C30059E09DFD900458E09CCD2401CD3400FCDE
:1025D300900455E0FBA3E0FAA3E0F98D828C83EF2E
:1025E3001205BB90045BE024FFF090045AE034FF33
:1025F300F080A4900455E0FBA3E0FAA3E0F9900473
:1026030059E024028074900458E0FFA3E0A3CFF0C4
:10261300A3EFF090045AE0FEA3E0FFD394FFEE642F
:1026230080947F4044745E2FF58274043EF583E00A
:10263300FF90045AE0FCA3E0FDC3900459E09DFD24
:10264300900458E09CFC900455E0FBA3E0FAA3E05F
:10265300F98D828C83EF1205BB90045BE024FFF0BD
:1026630090045AE034FFF080AA900455E0FBA3E005
:10267300FAA3E0F9900459E02401FF900458E034F0
:09268300008F82F583E41205BB0F
:01268C00222B
:101BF20090047A1208A690047EEBF0A3EAF0A3E91F
:011C0200F0F1
:101C0300E4FFFEFDFC90047AE0F8A3E0F9A3E0FA18
:101C1300A3E0FB12032490047EE0FBA3E0FAA3E01D
:101C2300F94007742B1205A9801C742D1205A99085
:101C3300047AE0FCA3E0FDA3E0FEA3E0FF12039D12
:101C430090047A1208A690047AE0FCA3E0FDA3E0D6
:101C5300FEA3E0FF1203EC900483EEF0A3EFF0E4A5
:101C6300A3F0A3F0900483E0FEA3E0FF4E601F7C8B
:101C7300007D0A120644900483EEF0A3EFF0900473
:101C830086E004F070DE900485E004F080D69004D2
:101C93007AE0FCA3E0FDA3E0FEA3E0FF1203EC90D7
:101CA3000483EEF0A3EFF0A3E0FFA3E0A3CFF0A340
:101CB300EFF0D3900488E09400900487E06480946C
:101CC300804054900483E0FEA3E0FF7C007D0A1271
:101CD3000644ED2430FF90047EE0FBA3E0FAA3E08A
:101CE300F9900487E0FCA3E0F5828C83EF1205BB37
:101CF300900483E0FEA3E0FF7C007D0A120644907B
:101D03000483EEF0A3EFF0900488E024FFF0900446
:101D130087E034FFF0809B90047EE0FBA3E0FAA30E
:101D2300E0F9900486E02401FF900485E034008FFD
:101D330082F583742E1205BB90047AE0FCA3E0FDC8
:101D4300A3E0FEA3E0FFC004C005C006C0079004E3
:101D53007AA3A3A3E01203ECAD07AC06EC1203B322
:101D6300A804A905AA06AB07D007D006D005D0045E
:101D730012008990047A1208A6900486E02402F0E7
:101D8300900485E03400F0900482E024FFFF900487
:101D930081E034FFFEC3900486E09FEE6480F890F8
:101DA3000485E06480984003021E4D90047AE0FCB1
:101DB300A3E0FDA3E0FEA3E0FFE4FBFA7920784172
:101DC30012017E90047A1208A690047AE0FCA3E044
:101DD300FDA3E0FEA3E0FF1203ECEF2430FF900429
:101DE3007EE0FBA3E0FAA3E0F9900485E0FCA3E026
:101DF300F5828C83EF1205BB90047AE0FCA3E0FD2F
:101E0300A3E0FEA3E0FFC004C005C006C007900422
:101E13007AA3A3A3E01203ECAD07AC06EC1203B361
:101E2300A804A905AA06AB07D007D006D005D0049D
:101E330012008990047A1208A6900486E004F070D8
:101E430006900485E004F0021D8A90047EE0FBA363
:101E5300E0FAA3E0F9900482E024FFFF900481E01C
:0A1E630034FF8F82F583E40205BB13
:0518F7004204D90000CD
:0300030002000EEA
:01000E0032BF
:0300130002000FD9
:01000F0032BE
:0300530002001098
:0100100032BD
:03005B000200118F
:0100110032BC
:0300830002001266
:0100120032BB
:03003B000235CAC1
:1035CA00C0E0C083C08230D802C2D830D910C2D974
:1035DA009004DAE004F070069004D9E004F030DADE
:0F35EA0002C2DA30DB02C2DBD082D083D0E03203
:1029D500EFD394107480948040037F0122D2AFEF2F
:1029E500703090000212057C64017004D2A8800248
:1029F500C2A890000112057C64017004D2B880025F
:102A0500C2B812056364017004D2888002C2887F4F
:102A15000022EF6402703090000212057C640170A0
:102A250004D2AA8002C2AA90000112057C6401703A
:102A350004D2BA8002C2BA12056364017004D28A54
:102A45008002C28A7F0022EF640A7015900002128C
:102A5500057C64017005438F108003538FEF7F0061
:102A650022EF640B701590000212057C640170055D
:102A7500438F208003538FDF7F0022EF6410701592
:102A850090000212057C64017005438F408003535A
:102A95008FBF7F0022EF6407701FF5D875D90DF53C
:102AA500E9F5F91205636401700575DA118003759E
:102AB500DA21E4F5EAF5FA806AEF6407701FF5D8C4
:102AC50075D90DF5E9F5F91205636401700575DB36
:102AD50011800375DB21E4F5EBF5FB8046EF640718
:102AE500701FF5D875D90DF5E9F5F912056364017F
:102AF500700575DC11800375DC21E4F5ECF5FC80CF
:102B050022EF64077021F5D875D90DF5E9F5F912AD
:102B150005636401700575DD11800375DA21E4F53F
:0A2B2500EDF5FDD2DEFF227F022253
:0A18FC004204C600004204C80000C8
:03000B00022FF2CF
:102FF200C0E0C0F0C083C082C0D075D000C000C0A5
:1030020001C002C003C004C005C006C0079004C7C7
:10301200E004F070069004C6E004F09004C6E0708C
:1030220004A3E0643270559004D9E0FCA3E0FDEC07
:103032001203B39004321208A69004361208B24268
:1030420048000090043A7401F0A37403F0A37428BA
:10305200F07F011209BB900348E0FCA3E0FDA3E06E
:10306200FEA3E0FF9004691208A67B017A04796846
:10307200E4FF122C769004C6E4F0A3F0D007D00649
:10308200D005D004D003D002D001D000D0D0D0825D
:07309200D083D0F0D0E03242
:03001B00022F3879
:102F3800C0E0C0F0C083C082C0D075D000C000C05F
:102F480001C002C003C004C005C006C0079004C980
:102F5800E004F070069004C8E004F09004C8E07043
:102F680004A3E0643270681220A990040DE0FCA369
:102F7800E0FDA3E0FEA3E0FF12039D9004321208D7
:102F8800A69004361208B20000000090043A7401BA
:102F9800F0A37403F0A3744CF07F021209BB7F0006
:102FA8007E807D137C4390036CE0F8A3E0F9A3E0F6
:102FB800FAA3E0FB12008D9004721208A67B017A36
:102FC8000479717F011215FA9004C8E4F0A3F0D0D7
:102FD80007D006D005D004D003D002D001D000D04D
:0A2FE800D0D082D083D0F0D0E032C8
:0300630002001682
:0100160032B7
:10268D00AD07EDD394027480948040037F0122D274
:10269D00AFED6003022735C28C90000212057C64F9
:1026AD00017004D2A98002C2A990000112057C64B8
:1026BD00017004D2B98002C2B9120563FED394032E
:1026CD007480948040037F0222E58954FC4EF58985
:1026DD0090000312057CFF7E0064017003538E7F12
:1026ED00EF4E7003438E80EF64024E7005438904F4
:1026FD0080035389FB90000412057C64017005432F
:10270D008F018003538FFE900005120690E5F0F5C2
:10271D008C900005120690F58A90000712057C64D6
:10272D00017002D28C7F0022ED640160030227CE7E
:10273D00C28E90000212057C64017004D2AB80023F
:10274D00C2AB90000112057C64017004D2BB800203
:10275D00C2BB120563FEC394037480948040037F53
:10276D000222E58954CF4EF58990000312057CFFB6
:10277D007E0064017003538EBFEF4E7003438E4095
:10278D00EF64024E700543894080035389BF90006A
:10279D000412057C64017005438F028003538FFD85
:1027AD00900005120690E5F0F58D9000051206904B
:1027BD00F58B90000712057C64017002D28E7F00AC
:1027CD0022ED64026003022856538EEF9000021230
:1027DD00057C6401700543AF04800353AFFB90008B
:1027ED000312057CFD7C00D3940274809480400319
:1027FD007F0222ED64014C7003538EFB9000031297
:10280D00057C7003438E0490000312057C640270F6
:10281D0005438E088003538EF790000412057C64E7
:10282D00017005438F048003538FFB900005120642
:10283D0090FDACF0ECF5D68DD790000712057C64B9
:0C284D00017003438E107F00227F0222E6
:103718001205639004CDF090000112057C9004CE50
:10372800F090000212057C9004CFF07B017A0479B6
:04373800CD0229D5C0
:1037D600E49004D0F0A304F0A3F0FB7A0479D07F40
:0437E6000702371887
:1019060060240328402000003F4CCCCD000000009E
:101916000000000000000000000000004475000008
:1019260000000000000000006024034C3FC00000DF
:1019360000000000000000000000000000000000A1
:101946000000000042E10000C2E1000000000000CB
:1009BB00900431EFF06003020B8690043AE0FBA346
:1009CB00E0FAA3E0F990000C1207E890001012086F
:1009DB0032900432E0F8A3E0F9A3E0FAA3E0FBA322
:1009EB00E0FCA3E0FDA3E0FEA3E0FF12008990046E
:1009FB003AE0FBA3E0FAA3E0F990000C120832E90D
:100A0B002414F9E43AFAC003C002C0011207C890DB
:100A1B00043AE0FBA3E0FAA3E0F990000C1208768D
:100A2B0012008DD001D002D00312081890043AE0C6
:100A3B00FBA3E0FAA3E0F99000141207E8E4FBFA39
:100A4B0079A07840120324501590043AE0FBA3E000
:100A5B00FAA3E0F99000141208E340A00000900400
:100A6B003AE0FBA3E0FAA3E0F99000141207E8E4E4
:100A7B00FBFA79A078C01203246017401590043A52
:100A8B00E0FBA3E0FAA3E0F99000141208E3C0A086
:100A9B00000090043AE0FBA3E0FAA3E0F990001405
:100AAB001207E890000412087612017EC004C005FC
:100ABB00C006C00790043AE0FBA3E0FAA3E0F9906C
:100ACB00000C1207E812085612017ED003D002D098
:100ADB0001D00012008DC004C005C006C0079004F1
:100AEB003AE0FBA3E0FAA3E0F9900010120876C0FD
:100AFB0000C001C002C00390043AE0FBA3E0FAA3DC
:100B0B00E0F990000C1207E8D003D002D001D0001E
:100B1B0012008990043AE0FBA3E0FAA3E0F99000FD
:100B2B000812087612017ED003D002D001D0001239
:100B3B00008D90043AE0FBA3E0FAA3E0F9900020CB
:100B4B001208329000181207E89000201208761253
:100B5B00032460054003020E5890043AE0FBA3E027
:100B6B00FAA3E0F990001C1207E890002012087617
:100B7B001203244003020E9B020E84900431E064A6
:100B8B00016003020CC890043AE0FBA3E0FAA3E077
:100B9B00F990000C1207E890001012083290043202
:100BAB00E0F8A3E0F9A3E0FAA3E0FBA3E0FCA3E0E9
:100BBB00FDA3E0FEA3E0FF12008990043AE0FBA343
:100BCB00E0FAA3E0F990000C120832E92420F9E4D2
:100BDB003AFAC003C002C0011207C8C004C005C066
:100BEB0006C00790043AE0FBA3E0FAA3E0F99000FB
:100BFB0010120876C000C001C002C00390043AE096
:100C0B00FBA3E0FAA3E0F990000C1207E8D003D0A5
:100C1B0002D001D00012008990043AE0FBA3E0FA65
:100C2B00A3E0F912085612017EC004C005C006C02D
:100C3B000790043AE0FBA3E0FAA3E0F990000C1252
:100C4B0007E890000412087612017EA804A905AAF1
:100C5B0006AB07D007D006D005D00412008DA80430
:100C6B00A905AA06AB07D007D006D005D004120001
:100C7B008DD001D002D00312081890043AE0FBA3E8
:100C8B00E0FAA3E0F99000181207E8900020120890
:100C9B007612032460054003020E5890043AE0FBE1
:100CAB00A3E0FAA3E0F990001C1207E890002012D1
:100CBB0008761203244003020E9B020E849004312B
:100CCB00E064026003020E9B90043AE0FBA3E0FA9F
:100CDB00A3E0F990000C1207E89000101208329074
:100CEB000432E0FCA3E0FDA3E0FEA3E0FFA3E0F8E9
:100CFB00A3E0F9A3E0FAA3E0FB12008D90043AE025
:100D0B00FBA3E0FAA3E0F990000C120832E92414DB
:100D1B00F9E43AFAC003C002C0011207C8900432CA
:100D2B00E0F8A3E0F9A3E0FAA3E0FB12008DD001F9
:100D3B00D002D00312081890043AE0FBA3E0FAA308
:100D4B00E0F99000141207E8E4FBFA79A07840125E
:100D5B000324501590043AE0FBA3E0FAA3E0F990CA
:100D6B0000141208E340A0000090043AE0FBA3E05B
:100D7B00FAA3E0F99000141207E8E4FBFA79A078E3
:100D8B00C01203246017401590043AE0FBA3E0FA6D
:100D9B00A3E0F99000141208E3C0A0000090043AFD
:100DAB00E0FBA3E0FAA3E0F99000141207E890002F
:100DBB000412087612017EC004C005C006C007905D
:100DCB00043AE0FBA3E0FAA3E0F990000C1207E869
:100DDB0012085612017ED003D002D001D0001200AF
:100DEB008DC004C005C006C00790043AE0FBA3E029
:100DFB00FAA3E0F9900008120876C000C001C00207
:100E0B00C003900419E0FCA3E0FDA3E0FEA3E0FF08
:100E1B0012039DD003D002D001D00012017ED0036B
:100E2B00D002D001D00012008D90043AE0FBA3E079
:100E3B00FAA3E0F99000201208329000181207E88C
:100E4B009000201208761203246012401090043A8E
:100E5B00E0FBA3E0FAA3E0F9900018802A90043A93
:100E6B00E0FBA3E0FAA3E0F990001C1207E8900066
:100E7B0020120876120324501790043AE0FBA3E0EB
:100E8B00FAA3E0F990001C1207E890002012083238
:010E9B002234
:1036CD00E49004A0F0A304F0A3F0E4A3F0A304F0AD
:1036DD00A374A2F0A37440F0A37401F0FB7A0479F3
:0636ED00A0E4FF02268D9F
:101956004904680000000000464350004904710035
:081966004313800042C8000099
:0E15FA00900431EFF0A3EBF0A3EAF0A3E9F0C8
:10160800A31208B2000000009004391208B20000CA
:101618000000900432E0FBA3E0FAA3E0F990000593
:101628001208767F007E1B7DB77C491202879004E2
:10163800351208A6900432E0FBA3E0FAA3E0F99083
:101648000001120876E4FFFE7D7A7C44120089E4EA
:10165800FBFA797A78441202879004391208A67541
:10166800BA8090FFF2740FF0900435E0FCA3E0FD1F
:10167800A3E0FEA3E0FF1203EC90FFF0EEF0A3EF6F
:10168800F0900431E0B4080040030218F090169C72
:10169800F82828730216B40216FC02174402178CA5
:1016A8000217D402181C0218640218AB90FF00E459
:1016B800F0A3F0900439E0FCA3E0FDA3E0FEA3E072
:1016C800FF900435E0F8A3E0F9A3E0FAA3E0FB12E9
:1016D800017E1203EC90FF02EEF0A3EFF0900432CB
:1016E800E0FBA3E0FAA3E0F9120563448090FF044D
:1016F800F00218F090FF10E4F0A3F0900439E0FC39
:10170800A3E0FDA3E0FEA3E0FF900435E0F8A3E02A
:10171800F9A3E0FAA3E0FB12017E1203EC90FF129A
:10172800EEF0A3EFF0900432E0FBA3E0FAA3E0F9B7
:10173800120563448090FF14F00218F090FF20E433
:10174800F0A3F0900439E0FCA3E0FDA3E0FEA3E0E1
:10175800FF900435E0F8A3E0F9A3E0FAA3E0FB1258
:10176800017E1203EC90FF22EEF0A3EFF09004321A
:10177800E0FBA3E0FAA3E0F9120563448090FF249C
:10178800F00218F090FF30E4F0A3F0900439E0FC88
:10179800A3E0FDA3E0FEA3E0FF900435E0F8A3E09A
:1017A800F9A3E0FAA3E0FB12017E1203EC90FF32EA
:1017B800EEF0A3EFF0900432E0FBA3E0FAA3E0F927
:1017C800120563448090FF34F00218F090FF40E463
:1017D800F0A3F0900439E0FCA3E0FDA3E0FEA3E051
:1017E800FF900435E0F8A3E0F9A3E0FAA3E0FB12C8
:1017F800017E1203EC90FF42EEF0A3EFF09004326A
:10180800E0FBA3E0FAA3E0F9120563448090FF44EB
:10181800F00218F090FF50E4F0A3F0900439E0FCD7
:10182800A3E0FDA3E0FEA3E0FF900435E0F8A3E009
:10183800F9A3E0FAA3E0FB12017E1203EC90FF5239
:10184800EEF0A3EFF0900432E0FBA3E0FAA3E0F996
:10185800120563448090FF54F00218F090FF60E492
:10186800F0A3F0900439E0FCA3E0FDA3E0FEA3E0C0
:10187800FF900435E0F8A3E0F9A3E0FAA3E0FB1237
:10188800017E1203EC90FF62EEF0A3EFF0900432B9
:10189800E0FBA3E0FAA3E0F9120563448090FF643B
:1018A800F0804590FF70E4F0A3F0900439E0FCA3C9
:1018B800E0FDA3E0FEA3E0FF900435E0F8A3E0F923
:1018C800A3E0FAA3E0FB12017E1203EC90FF72EE94
:1018D800F0A3EFF0900432E0FBA3E0FAA3E0F912E2
:0E18E8000563448090FF74F0E4F5BA75FE804D
:0118F60022CF
:0E2C7600900425EFF0A3EBF0A3EAF0A3E9F041
:102C8400E4A3F0A3F0A3F0A3F0A31208B2000000A1
:102C940000900426E0FBA3E0FAA3E0F990000512FB
:102CA40007E8E4FBFA7980784312017EA804A905B9
:102CB400AA06AB077F007E1B7DB77C4B12028712EE
:102CC40003ECC374FF9F90042AF0E49E900429F05F
:102CD400900426E0FBA3E0FAA3E0F99000011208B7
:102CE40076E4FFFE7D7A7C44120089E4FBFA797A6B
:102CF400784412028790042D1208A6E4FFFE7D7F1B
:102D04007C4390042DE0F8A3E0F9A3E0FAA3E0FBF0
:102D140012017E1203EC90042BEEF0A3EFF0E4F525
:102D2400D875D90DF5E9F5F9900426E0FBA3E0FA8E
:102D3400A3E0F912056324F8600D24F8600E241052
:102D4400700DE4F5A2800875A210800375A220908E
:102D54000425E014601C14602B14603A24037046AC
:102D640075DA42E4F5F290042BA3E0FFF5EA8FFA5A
:102D7400803475DB42E4F5F390042BA3E0FFF5EB1C
:102D84008FFB802275DC42E4F5F490042BA3E0FF72
:102D9400F5EC8FFC801075DD42E4F5F590042BA36F
:082DA400E0FFF5ED8FFDD2DE2A
:012DAC002204
:10196E0058040D0000000000000000000000000000
:0B197E0000000000000000000000005E
:1020A900E4900431F0FFFEA3F075BA9012385E7F18
:1020B900A01238107F3D12381012385E7FA11238F5
:1020C90010123832900431EFF01238501238329031
:1020D9000432EFF0123841123870900432E0FE9069
:1020E9000431E0FDEDFFAC06EC1203B3E4FBFAF9B1
:1020F9007847120287E4FBFA7934784312017E901B
:10210900040D1208A612385E7FA01238107F3E1205
:10211900381012385E7FA11238101238329004310B
:10212900EFF0123850123832900432EFF012384181
:10213900123870900432E0FE900431E0FDEDFFACFE
:1021490006EC1203B3E4FBFAF97847120287E4FBC1
:10215900FA7934784312017E9004111208A61238D4
:102169005E7FA01238107F3F12381012385E7FA1AF
:10217900123810123832900431EFF01238501238F8
:1021890032900432EFF0123841123870900432E084
:10219900FE900431E0FDEDFFAC06EC1203B3E4FB65
:1021A900FAF97847120287E4FBFA79347843120185
:1021B9007E9004151208A612385E7FA01238107F8F
:1021C9003712381012385E7FA11238101238329047
:1021D9000431EFF0123850123832900432EFF01215
:1021E9003841123870900432E0FE900431E0FDED80
:1021F900FFAC06EC1203B3E4FBFAF9784712028745
:10220900E4FBFA79FA784412017E9004191208A6BF
:1022190012385E7FA01238107F3812381012385EDB
:102229007FA1123810123832900431EFF012385071
:10223900123832900432EFF012384112387090049B
:1022490032E0FE900431E0FDEDFFAC06EC1203B381
:10225900E4FBFAF97847120287E4FBFA79FA784441
:1022690012017E90041D1208A612385E7FA0123852
:10227900107F3912381012385E7FA11238101238C7
:1022890032900431EFF0123850123832900432EFA4
:10229900F0123841123870900432E0FE900431E0B7
:1022A900FDEDFFAC06EC1203B3E4FBFAF978471233
:1022B9000287E4FBFA79FA784412017E900421122C
:0522C90008A6E4F5BACF
:0122CE0022ED
:10365100E49004A8F0A304F0A3F0E4A3F0A304F021
:10366100A374A2F0A37440F0A37401F0E4FF123537
:0C367100927B017A0479A87F0102268D6B
:03002B00020006CA
:0400060053BCDF32D6
:10344700D2AFE4F592120563429190000112057C18
:10345700FFE5BC549F4FF5BC90000212057C640148
:10346700700543BC80800353BC7F90000312057C2A
:103477006401700543DE20800353DEDF90000512F0
:10348700057C64017004D2AD8002C2AD90000412C5
:0C349700057C64017003D2BD22C2BD227E
:0D002E00EF6401700443BC802253BC7F22AC
:1031C700EFD39407748094804002807BE4F5BDF5CB
:1031D700BEE5BC54E044404FF5BC0000E4FDEDC340
:1031E70094FA74809480505FE5BC20E55753BCDFA8
:1031F700E5DE30E51FE5BD540FFF9004DBE4F0A3E7
:10320700EFF0E0FEACBEECFBEBFF9004DBEEF0A3CF
:10321700EFF08027AFBDEF9004DBF0A3E4F0AFBE83
:103227009004DBE0F0A3E04FF09004DBE0C4F85437
:10323700F0C868F0A3E0C4540F48F09004DBE0FE48
:0B324700A3E0FF220D80977E047F00B3
:013252002259
:10198900622801000000000000000000002F000094
:1019990000000700070000147F147F1400242A7F29
:1019A9002A120062640813230036495522500000A8
:1019B9000503000000001C224100000041221C0018
:1019C9000014083E08140008083E0808000000A09A
:1019D9006000000808080808000060600000002096
:1019E90010080402003E5149453E0000427F400074
:1019F900004261514946002141454B3100181412FA
:101A09007F10002745454539003C4A4949300001C6
:101A19007109050300364949493600064949291E15
:101A29000000363600000000563600000008142277
:101A39004100001414141414000041221408000277
:101A49000151090600324959513E007C1211127C9C
:101A5900007F49494936003E41414122007F4141C9
:101A6900221C007F49494941007F09090901003EBB
:101A79004149497A007F0808087F0000417F4100F9
:101A8900002040413F01007F08142241007F40406F
:101A99004040007F020C027F007F0408107F003E57
:101AA9004141413E007F09090906003E4151215E3D
:101AB900007F091929460046494949310001017F3A
:101AC9000101003F4040403F001F2040201F003FD0
:101AD9004038403F00631408146300070870080782
:101AE90000615149454300007F41410000552A5595
:101AF9002A55000041417F00000402010204004010
:101B09004040404000000102040000205454547831
:101B1900007F484444380038444444200038444451
:101B2900487F00385454541800087E0901020018EF
:101B3900A4A4A47C007F080404780000447D40002C
:101B4900004080847D00007F102844000000417F10
:101B59004000007C04180478007C080404780038EC
:101B69004444443800FC242424180018242418FC74
:101B7900007C0804040800485454542000043F44DD
:101B89004020003C4040207C001C2040201C003CA0
:101B99004030403C004428102844001CA0A0A07CF0
:0C1BA900004464544C441414141414142C
:06387900D2A37F027E00D5
:03387F0002379479
:1037AA00123879D2A612387BC2A612387BC2A37FFE
:0637BA00027E0002387FD0
:1037C000C2A312387BC2A612387B123879D2A67FE8
:0637D000027E0002387FBA
:0533E4009004DDEFF094
:1033E900E4A3F09004DEE0C3940874809480503321
:1033F9009004DDE030E704D2A68002C2A67F017EF8
:103409000012387FD2A37F017E0012387FC2A37FCA
:10341900017E0012387F9004DDE025E0F0A3E0048E
:10342900F080C0D2A67F017E0012387FD2A37F012F
:0E3439007E0012387FC2A37F017E0002387F22
:100066009004E5EFF01237AA7F781233E47F40124E
:0D00760033E49004E5E0FF1233E40237C0EC
:04373C00EF24B0FFC7
:103740009004E6EFF01237AA7F781233E4E4FF1218
:0D37500033E49004E6E0FF1233E40237C0DA
:1036F3009004E7EFF0ED24B0FF1237409004E7E0C9
:1037030054F0C4540F4410FF1237409004E7E054C0
:053713000FFF0237402A
:0534FC009004D3EFF085
:10350100E4A3F09004D4E0FFC39408748094805045
:103511003712373C7F011237407F10123740E49059
:1035210004D5F09004D5E0C3948474809480501045
:103531009004D3E0FF1200669004D5E004F080E32C
:083541009004D4E004F080BB0B
:01354900225F
:10354A00E49004DFF09004DFE0FFC39408748094F1
:10355A0080503412373C7F011237407F10123740B7
:10356A00E49004E0F09004E0E0C3948474809480D2
:10357A00500DE4FF1200669004E0E004F080E6904B
:07358A0004DFE004F080BE45
:013591002217
:102DAD00E49004E1F0A37408F07B017A0479E17FEB
:102DBD00021222CF7B017A0479E17F031222CF7BAD
:102DCD00017A0479E17F041222CFD2A3C2A77FF446
:102DDD007E01123779D2A77FAE123740E4FF12374A
:102DED00407F101237407F401237407F81123740AD
:102DFD007FCF1237407FA11237407FC81237407FF7
:102E0D00A61237407FA81237407F3F1237407FD33D
:102E1D00123740E4FF1237407FD51237407F8012C2
:102E2D0037407FD91237407FF11237407FDA1237A2
:102E3D00407F121237407FDB1237407F4012374000
:102E4D007F201237407F021237407F8D1237407F2F
:102E5D00141237407FA41237407FA61237407FAF40
:0E2E6D00123740E4FF1234FCE4FDFF0236F39E
:0A34A3009004D7EDF09004D6EFF08E
:1034AD00A3E0FE131313541FFD1236F39004D7E05F
:1034BD00FF5407FEF87401088002C333D8FC900452
:1034CD00D8F0EF131313541F24B0FF12374090049C
:1034DD00D6E054F0C4540F4410FF1237409004D678
:0F34ED00E0540FFF1237409004D8E0FF02006652
:103099009004B0EFF0A3EDF0A3EBF0A3EAF0A3E9FD
:0130A900F036
:1030AA00E4A3F0A3F0A3F09004B2E0FBA3E0FAA338
:1030BA00E0F99004B7E0F58275830012057C607030
:1030CA0024E09004B5F09004B0E0D3947E74809428
:1030DA00804006E4F0A3E004F09004B0E0FFA3E02F
:1030EA00FD1236F3E49004B6F09004B6E0FFC39400
:1030FA00067480948050299004B5E075F006A424E3
:10310A0000F582E5F03401F583E5822FF582E43596
:10311A0083F583E0FF1200669004B6E004F080C9EC
:10312A009004B0E02406F09004B7E004F00230B155
:01313A002272
:082E7B009004B8EFF0A3EDF0A4
:102E8300E49004BFF0FC7D0AAF03AE021205EFED40
:102E930024309004BEF07C007D0AAF03AE0212051D
:102EA300EF7C007D0A1205EFED24309004BDF07C29
:102EB300007D64AF03AE021205EF7C007D0A1205AC
:102EC300EFED24309004BCF07C037DE8AF03AE0249
:102ED3001205EF7C007D0A1205EFED24309004BB50
:102EE300F0AE02AF037C277D101205EF7C007D0A54
:102EF3001205EFED24309004BAF0E4FFEFC394041D
:102F030074809480501E74BA2FF582E43404F583E0
:102F1300E0B4301074BA2FF582E43404F5837420DE
:102F2300F00F80D89004B8E0FFA3E0FD7B017A04A2
:052F330079BA0230999B
:0F2859009003F1EFF0A3EDF0A3EAF0FEA3EBF094
:10286800E4FBFAC3EE64809480501EE49003F7F012
:10287800A3F09003F3E0FEA3E0FFC3E49FFFE49E10
:102888009003F3F0A3EFF080089003F7E4F0A304BB
:10289800F09003F3E0FEA3E0FF7C007D0A120644FB
:1028A800EF4E603D9003F3E0FEA3E0FF7C007D0A5D
:1028B800120644ED2430FF74F92BF58274033AF5BF
:1028C80083EFF09003F3E0FEA3E0FF7C007D0A12A3
:1028D80006449003F3EEF0A3EFF00BBB00010A806F
:1028E800B09003F3A3E02430FF74F92BF58274034E
:1028F8003AF583EFF09003F7E07002A3E070609080
:102908000403742DF09003F5EAF0A3EBF09003F5BF
:10291800E0FEA3E0FFD394FFEE6480947F40377419
:10292800F92FF58274033EF583E0FF9003F5E0FC90
:10293800A3E0FDC3EB9DFDEA9CFC74042DF58274B5
:10294800043CF583EFF09003F6E024FFF09003F5E4
:10295800E034FFF080B774052BF58274048058903A
:1029680003F5EAF0A3EBF09003F5E0FEA3E0FFD354
:1029780094FFEE6480947F403774F92FF5827403D6
:102988003EF583E0FF9003F5E0FCA3E0FDC3EB9D7B
:10299800FDEA9CFC74032DF58274043CF583EFF08A
:1029A8009003F6E024FFF09003F5E034FFF080B7E1
:1029B80074042BF58274043AF583E4F09003F1E093
:0D29C800FFA3E0FD7B017A04790302309942
:081E6D0090043DEFF0A3EDF03D
:101E7500900447E4F0A3740AF0E4FFFEFDFC90042F
:101E85003FE0F8A3E0F9A3E0FAA3E0FB12032490F6
:101E950004494005742BF0801A742DF090043FE03E
:101EA500FCA3E0FDA3E0FEA3E0FF12039D90043F29
:101EB5001208A690043FE0FCA3E0FDA3E0FEA3E02A
:101EC500FF1203EC900443EEF0A3EFF0E4A3F0A3BC
:101ED500F0900443E0FEA3E0FF4E601F7C007D0A06
:101EE500120644900443EEF0A3EFF0900446E0049C
:101EF500F070DE900445E004F080D690043FE0FCED
:101F0500A3E0FDA3E0FEA3E0FF1203EC900443EE83
:101F1500F0A3EFF0A3E0FEA3E0FBAA06D3EB940049
:101F2500EA64809480403D900443E0FEA3E0FF7C9A
:101F3500007D0A120644ED2430FF74492BF58274A6
:101F4500043AF583EFF0900443E0FEA3E0FF7C0044
:101F55007D0A120644900443EEF0A3EFF0EB1B70EC
:101F6500BB1A80B8900445E0FEA3E0244AF58274CC
:101F7500043EF583742EF090043FE0FCA3E0FDA33E
:101F8500E0FEA3E0FFC004C005C006C00790043F03
:101F9500A3A3A3E01203ECAD07AC06EC1203B3A8B0
:101FA50004A905AA06AB07D007D006D005D00412B0
:101FB500008990043F1208A6900446E02402F090A0
:101FC5000445E03400F0900448E024FFFF90044706
:101FD500E034FFFEC3900446E09FEE6480F8900471
:101FE50045E0648098400302208690043FE0FCA30E
:101FF500E0FDA3E0FEA3E0FFE4FBFA7920784112BF
:10200500017E90043F1208A690043FE0FCA3E0FD8A
:10201500A3E0FEA3E0FF1203ECEF2430FF9004459C
:10202500E0FCA3E02449F58274043CF583EFF090CD
:10203500043FE0FCA3E0FDA3E0FEA3E0FFC004C075
:1020450005C006C00790043FA3A3A3E01203ECADAF
:1020550007AC06EC1203B3A804A905AA06AB07D082
:1020650007D006D005D00412008990043F1208A6B7
:10207500900446E004F07006900445E004F0021F69
:10208500CB900447E0FEA3E02448F58274043EF5B6
:1020950083E4F090043DE0FFA3E0FD7B017A047941
:0420A5004902309923
:10367D00000000000000000000000000000000003D
:10368D00000000000000000000000000000000002D
:09369D0000000000000000000024
:101BB5004C03C200F000F000F000F000F000F04C23
:101BC50003B6004B004B004B004B004B004B420350
:101BD500AC00004203AA00004203B200004203AE7B
:0C1BE50000004203B400004203B0000006
:10375D009004C07401F0A37440F0A37401F0A3F0C1
:0C376D00A3F0A3F0FB7A0479C0023447FB
:052B2F009003CEEFF061
:102B3400E4A3F0A3F0A3F0A3F0A3F078D47C037D86
:102B4400017BFF7A36797DFE7F1812053D78EC7C97
:102B5400037D017BFF7A3679957E007F0512053D62
:102B6400E49003CFF09003CFE0C3940C748094807E
:102B7400502B9003CEE0FF1231C79003CFE025E045
:102B840024D4F582E43403F583EEF0A3EFF07F64FC
:102B94007E001237949003CFE004F080C8E4FFEF86
:102BA400C3940B748094804003022C2EE4FEC374FF
:102BB4000B9FFDEEC39D506EEE25E024D6F582E416
:102BC4003403F583E0FCA3E0FDEE25E024D4F58294
:102BD400E43403F583E0FAA3E0FBD39DEA9C40438D
:102BE4009003D2EAF0A3EBF0EE25E024D6F582E4DC
:102BF4003403F583E0FCA3E0FDEE25E024D4F58264
:102C0400E43403F583ECF0A3EDF09003D2E0FCA3ED
:102C1400E0FDEE25E024D6F582E43403F583ECF000
:102C2400A3EDF00E80880F022BA39003CF7401F064
:102C34009003CFE0FFC3940B748094805025EF255C
:102C4400E024D4F582E43403F583E0FEA3E0FF90AE
:102C540003D1E02FF09003D0E03EF09003CFE004E6
:102C6400F080CD9003D0E0FEA3E0FF7C007D0A025B
:022C740005EF6A
:1012BC0078897C047D017BFF7A36799A7E007F0CDD
:1012CC0012053DE4FF122B2F900489EEF0A3EFF0F2
:1012DC007F01122B2F90048BEEF0A3EFF07F021204
:1012EC002B2F90048DEEF0A3EFF07F03122B2F9099
:1012FC00048FEEF0A3EFF07F04122B2F900491EEED
:10130C00F0A3EFF07F05122B2F900493EEF0A3EFD8
:10131C00F09003B6E0FEA3E0FF900489E0FCA3E0AC
:10132C00FDC39FEC9E500A9003B6ECF0A3EDF08049
:10133C001E9003C2E0FEA3E0FFD3ED9FEC9E400F96
:10134C00900489E0FFA3E09003C2CFF0A3EFF090EC
:10135C0003B8E0FEA3E0FF90048BE0FCA3E0FDC328
:10136C009FEC9E500A9003B8ECF0A3EDF0801E9019
:10137C0003C4E0FEA3E0FFD3ED9FEC9E400F90046E
:10138C008BE0FFA3E09003C4CFF0A3EFF09003BA7F
:10139C00E0FEA3E0FF90048DE0FCA3E0FDC39FEC16
:1013AC009E500A9003BAECF0A3EDF0801E9003C699
:1013BC00E0FEA3E0FFD3ED9FEC9E400F90048DE088
:1013CC00FFA3E09003C6CFF0A3EFF09003BCE0FEC8
:1013DC00A3E0FF90048FE0FCA3E0FDC39FEC9E50C4
:1013EC000A9003BCECF0A3EDF0801E9003C8E0FE65
:1013FC00A3E0FFD3ED9FEC9E400F90048FE0FFA382
:10140C00E09003C8CFF0A3EFF09003BEE0FEA3E0A2
:10141C00FF900491E0FCA3E0FDC39FEC9E500A906A
:10142C0003BEECF0A3EDF0801E9003CAE0FEA3E037
:10143C00FFD3ED9FEC9E400F900491E0FFA3E09052
:10144C0003CACFF0A3EFF09003C0E0FEA3E0FF903F
:10145C000493E0FCA3E0FDC39FEC9E500A9003C0F4
:10146C00ECF0A3EDF0801E9003CCE0FEA3E0FFD3E4
:10147C00ED9FEC9E400F900493E0FFA3E09003CC13
:10148C00CFF0A3EFF09003B6E0FEA3E0FFC390040F
:10149C008AE09FFF900489E09EFE7C007D6412052B
:1014AC00DD9003B6E0FCA3E0FDC39003C3E09DFD1B
:1014BC009003C2E09CFC1205EF9003ACEEF0A3EF9E
:1014CC00F09003C0E0FEA3E0FFC3900494E09FFF04
:1014DC00900493E09EFE7C007D641205DD9003C0B9
:1014EC00E0FCA3E0FDC39003CDE09DFD9003CCE0B8
:1014FC009CFC1205EF9003AAEEF0A3EFF09003B85A
:10150C00E0FEA3E0FFC390048CE09FFF90048BE00F
:10151C009EFE7C007D641205DD9003B8E0FCA3E028
:10152C00FDC39003C5E09DFD9003C4E09CFC120537
:10153C00EF9003B2EEF0A3EFF09003BEE0FEA3E059
:10154C00FFC3900492E09FFF900491E09EFE7C000C
:10155C007D641205DD9003BEE0FCA3E0FDC39003A7
:10156C00CBE09DFD9003CAE09CFC1205EF9003AE0E
:10157C00EEF0A3EFF09003BAE0FEA3E0FFC39004FB
:10158C008EE09FFF90048DE09EFE7C007D64120532
:10159C00DD9003BAE0FCA3E0FDC39003C7E09DFD22
:1015AC009003C6E09CFC1205EF9003B4EEF0A3EFA1
:1015BC00F09003BCE0FEA3E0FFC3900490E09FFF1B
:1015CC0090048FE09EFE7C007D641205DD9003BCD0
:1015DC00E0FCA3E0FDC39003C9E09DFD9003C8E0CF
:0D15EC009CFC1205EF9003B0EEF0A3EFF0B1
:0115F90022CF
:10008600020458E86480F8E933E83360110460F04C
:10009600ED33EC337009E8FCE9FDEAFEEBFF2204E0
:1000A60060DED3EB9FEA9EE99DE8C2E78CF0C2F7DB
:1000B60095F0400CE8CCF8E9CDF9EACEFAEBCFFBA7
:1000C60012042385D0F05804700320D5B3E80470D9
:1000D600075002B2D502046292D5EC0460F7E4CC74
:1000E600C0E0C398F8603B94186008400DD0E0FB70
:1000F60002043AE4FBFAC9FC8028E830E406E4C9C5
:10010600FBE4CAFCE830E305E4C9CACBFCE85407C3
:100116006010F8C3E913F9EA13FAEB13FBEC13FCCE
:10012600D8F130F52FC3E49CFCEF9BFFEE9AFEED71
:1001360099FDD0E0FBEF4E4D4C701222DB0302041A
:100146005FEC2CFCEF33FFEE33FEED33FDED30E7D5
:10015600EB02043AEF2BFFEE3AFEED39FDD0E0FB61
:1001660050130BBB0003020462ED13FDEE13FEEF0A
:0801760013FFEC13FC02043A34
:10017E00EC4D6011E8497017ED33EC3304600DE47B
:10018E00FCFFFEFD22E933E8330470F80204581236
:10019E00042358046009E4CC248150062850090237
:1001AE00046228400302045FC0E0EB4A7044B98049
:1001BE0006D0E0FB02044EEF4E701CBD8008EBFF34
:1001CE00EAFEE9FD80EBE98DF0A4FEE5F0020267A0
:1001DE00E9CDF9EAFEEBFFEF89F0A4FCE5F0CE895C
:1001EE00F0A42EFFE435F0CD89F0A42DFEE435F019
:1001FE008067EF4E7005BD80D780C3EF8BF0A4AC47
:10020E00F0EE8BF0A42CFCE435F0F8EF8AF0A42C81
:10021E00E5F038FCE433CB8DF0A42CFCE5F03BF894
:10022E00EE8AF0A42CFCE5F038F8E433CF89F0A484
:10023E002CFCE5F038CF3400CE89F0A42FFFE5F08A
:10024E003EFEE433C98DF0A42EFEE5F039CD8AF0E2
:10025E00A42FFFE5F03EFEE43DFD33D0E0FB50075A
:10026E000BBB000F020462EC2CFCEF33FFEE33FEEF
:06027E00ED33FD02043A1D
:10028400020462EC5D046005E8590470030204583A
:10029400120423580460F6EC4860F2EC7004FDFE8E
:1002A400FF22C860DB2481C85009C398600250064D
:1002B40002045F9850CAF582E9294B4A7005AB8263
:1002C40002044E75F0007C1A7880C3EF9BEE9AED21
:1002D40099400DC3EF9BFFEE9AFEED99FDE842F0C5
:1002E400DC23ACF0D0E0FFD0E0FED0E0FDAB822018
:1002F400E7101BEB60BAEC2CFCEF33FFEE33FEEDA2
:1003040033FD02043AE803F830E705C0F075F00065
:10031400EF2FFFEE33FEED33FD40B830E7C280AA85
:1003240074F8CC6480CCC86480C8F58204604FC380
:10033400EB9FF5F0EA9E42F0E99D42F0E89C45F01F
:10034400603C501DE5825FFFE582D313CB5BCBF4A9
:100354002B5582FB50280ABA002409B900200880D2
:100364001DE5825BFBE582D313CF5FCFF4C3132F6C
:100374005582FF50090EBE00050DBD00010CC3EBF4
:100384009FF5F0EA9E42F0E99D42F0E89C45F0605A
:0903940007CC4820E701B3EC227C
:10039D00ED33EC33600A047003BD8004ECB2E7FC6E
:0103AD00222D
:1003AE0075F020800E75F010800575F0087D007ECA
:1003BE00007F003392D530D503120796EC334010F0
:1003CE00EF33FFEE33FEED33FDEC33FCD5F0ED22D3
:0E03DE00E5F0247EA2D513CC92E7CDCEFF220F
:1003EC00EDD2E7CD33EC3392D524814006E4FFFE09
:1003FC00FDFC22FCE4CFCECDCC24E0501174FF8068
:10040C00EDC3CC13CCCD13CDCE13CECF13CF047004
:07041C00F030D5DE02079667
:10042300E9D2E7C933E833F892D5EDD2E7CD33EC1F
:0704330033FC5002B2D52298
:10043A00EC30E7100FBF000C0EBE00080DBD000423
:10044A000BEB6014A2D5EB13FCED92E7FD2274FFCF
:10045A00FCFDFEFF22E480F8A2D574FF13FC7D8028
:03046A00E480EF3C
:1031470002000AE493A3F8E493A34003F68001F294
:1031570008DFF48029E493A3F85407240CC8C33389
:10316700C4540F4420C8834004F456800146F6DF58
:10317700E4800B01020408102040809018F7E47ED9
:10318700019360BCA3FF543F30E509541FFEE4934D
:10319700A360010ECF54C025E060A840B8E493A314
:1031A700FAE493A3F8E493A3C8C582C8CAC583CA3F
:1031B700F0A3C8C582C8CAC583CADFE9DEE780BEF7
:011BF10000F3
:10046D00E709F608DFFA8046E709F208DFFA803E71
:10047D0088828C83E709F0A3DFFA8032E309F6085E
:10048D00DFFA8078E309F208DFFA807088828C83C6
:10049D00E309F0A3DFFA806489828A83E0A3F6087A
:1004AD00DFFA805889828A83E0A3F208DFFA804C54
:1004BD0080D280FA80C680D4806980F2803380102B
:1004CD0080A680EA809A80A880DA80E280CA803394
:1004DD0089828A83ECFAE493A3C8C582C8CCC5830C
:1004ED00CCF0A3C8C582C8CCC583CCDFE9DEE780DC
:1004FD000D89828A83E493A3F608DFF9ECFAA9F05B
:10050D00EDFB2289828A83ECFAE0A3C8C582C8CCB0
:10051D00C583CCF0A3C8C582C8CCC583CCDFEADEC9
:10052D00E880DB89828A83E493A3F208DFF980CC2B
:10053D0088F0EF60010E4E60C388F0ED2402B40424
:10054D000050B9F582EB2402B4040050AF232345CB
:06055D0082239004BD732F
:10056300BB010689828A83E0225002E722BBFE0296
:09057300E32289828A83E49322C9
:10057C00BB010CE58229F582E5833AF583E0225034
:10058C0006E92582F8E622BBFE06E92582F8E2227E
:0D059C00E58229F582E5833AF583E4932298
:1005A900BB010689828A83F0225002F722BBFE0131
:0205B900F3222B
:1005BB00F8BB010DE58229F582E5833AF583E8F076
:1005CB00225006E92582C8F622BBFE05E92582C822
:0205DB00F2220A
:1005DD00EF8DF0A4A8F0CF8CF0A428CE8DF0A42E32
:0205ED00FE22EC
:1005EF00BC000BBE0029EF8DF084FFADF022E4CCF0
:1005FF00F875F008EF2FFFEE33FEEC33FCEE9DECB9
:10060F00984005FCEE9DFE0FD5F0E9E4CEFD22EDFE
:10061F00F8F5F0EE8420D21CFEADF075F008EF2F48
:10062F00FFED33FD4007985006D5F0F222C398FD39
:05063F000FD5F0EA22D6
:10064400C2D5EC30E709B2D5E4C39DFDE49CFCEED1
:1006540030E715B2D5E4C39FFFE49EFE1205EFC355
:10066400E49DFDE49CFC80031205EF30D507C3E450
:060674009FFFE49EFE2240
:10067A00C5F0F8A3E028F0C5F0F8E582158270020B
:06068A001583E038F022A8
:10069000BB0110E58229F582E5833AF583E0F5F0A8
:1006A000A3E0225009E92582F886F008E622BBFE85
:1006B0000AE92582F8E2F5F008E222E5832AF583CB
:0806C000E993F5F0A3E9932290
:1006C80075F008758200EF2FFFEE33FECD33CDCCE9
:1006D80033CCC58233C5829BED9AEC99E58298406C
:1006E8000CF582EE9BFEED9AFDEC99FC0FD5F0D649
:1006F800E4CEFBE4CDFAE4CCF9A88222B800C1B973
:100708000059BA002DEC8BF084CFCECDFCE5F0CBB0
:10071800F97818EF2FFFEE33FEED33FDEC33FCEBE9
:1007280033FB10D703994004EB99FB0FD8E5E4F9A4
:10073800FA227818EF2FFFEE33FEED33FDEC33FC91
:10074800C933C910D7059BE99A4007EC9BFCE99A85
:10075800F90FD8E0E4C9FAE4CCFB2275F010EF2FCA
:10076800FFEE33FEED33FDCC33CCC833C810D707CA
:100778009BEC9AE899400AED9BFDEC9AFCE899F805
:0E0788000FD5F0DAE4CDFBE4CCFAE4C8F92298
:0E079600C3E49FFFE49EFEE49DFDE49CFC2274
:1007A400EB9FF5F0EA9E42F0E99D42F0E89C45F0AB
:0107B4002222
:1007B500E8600FECC313FCED13FDEE13FEEF13FF22
:0307C500D8F12246
:1007C800BB010789828A830209135005E9F80209E7
:1007D80007BBFE05E9F802091F89828A8302092BF3
:1007E800BB010DE58229F582E5833AF583020913F9
:1007F8005007E92582F8020907BBFE07E92582F8B8
:1008080002091FE58229F582E5833AF58302092B5F
:10081800BB010789828A830208A65005E9F8020904
:0A08280071BBFE05E9F802097D220C
:10083200BB010DE58229F582E5833AF5830208A61C
:100842005007E92582F8020971BBFE07E92582F803
:0408520002097D22F8
:10085600BB010789828A830209485005E9F8020923
:100866003BBBFE05E9F802095489828A83020961C5
:10087600BB010DE58229F582E5833AF58302094835
:100886005007E92582F802093BBBFE07E92582F8F5
:10089600020954E58229F582E5833AF58302096166
:0C08A600ECF0A3EDF0A3EEF0A3EFF022C5
:1008B200A8828583F0D083D0821208C91208C91297
:1008C20008C91208C9E473E493A3C583C5F0C583BC
:1008D200C8C582C8F0A3C583C5F0C583C8C582C890
:0108E20022F3
:1008E300BB010DE58229F582E5833AF5830208B25F
:1008F3005007E92582F8020989BBFE07E92582F83A
:040903000209A22221
:0C090700E6FC08E6FD08E6FE08E6FF221C
:0C091300E0FCA3E0FDA3E0FEA3E0FF2257
:0C091F00E2FC08E2FD08E2FE08E2FF2214
:10092B00E493FC740193FD740293FE740393FF2212
:0D093B00E6FB08E6F908E6FA08E6CBF8222C
:0C094800E0F8A3E0F9A3E0FAA3E0FB2232
:0D095400E2FB08E2F908E2FA08E2CBF82223
:10096100E493F8740193F9740293FA740393FB22EC
:0C097100ECF608EDF608EEF608EFF622B2
:0C097D00ECF208EDF208EEF208EFF222B6
:10098900D083D082E493F608740193F60874029335
:09099900F608740393F67404736C
:1009A200D083D082E493F208740193F20874029324
:0909B200F208740393F27404735B
:00000001FF
