:03000000021C6A75
:0C1C6A00787FE4F6D8FD758120021CB1E3
:040006002C0D0A00B3
:081E87004501E9000000000024
:101B080012002E9001827440F0A37401F0A3120712
:101B18004400004B009001887401F0A3F0E4A3F0A6
:101B2800A304F0A3F0E4A3F07B017A0179827F019A
:101B38001208A27F0A7E001200669001F2E0FCA360
:101B4800E0FDEC1203A29001B01207389001B41224
:101B58000744435200009001B87401F0A37401F0E7
:101B6800A37400F07F01120CC2900120E0FCA3E0F6
:101B7800FDA3E0FEA3E0FF9001BC1207387B017AC9
:101B88000179BBE4FF120FEE9001F2E0FEA3E0FF43
:101B98007B017A0179E91214CCE49001F2F0A3F008
:101BA8007B017A0179E91220297BFF7A00790612F4
:051BB8002029021B3B87
:10006600E4FDFCC3ED9FEC9E50100079207B28DB5D
:0A007600FED9FC0DBD00010C80E96D
:01008000225D
:10210600E4FDFCC3ED9FEC9E500B7B06DBFE0DBD94
:0521160000010C80EE49
:01211B0022A1
:1012EB00EFD394057480948040037F012212045C39
:1012FB00FED394037480948040037F0222EF7044EA
:10130B00EE700B900001120475F452935294120478
:10131B005C6401700B9000011204754293F45294BB
:10132B0012045CFE6402700A900001120475429371
:10133B004294EE6403700D900001120475FEF4529A
:10134B0093EE4294EF6401704612045CFE700B90B6
:10135B000001120475F452915292EE6401700B90DD
:10136B0000011204754291F4529212045C640270F3
:10137B000A9000011204754291429212045C6403BC
:10138B00700D900001120475FEF45291EE4292EF33
:10139B006402704612045CFE700B9000011204751F
:1013AB00F452955296EE6401700B90000112047585
:1013BB004295F4529612045C6402700A900001127A
:1013CB0004754295429612045C6403700D90000103
:1013DB00120475FEF45295EE4296EF6403704612BA
:1013EB00045CFE700B900001120475F452B152B202
:1013FB00EE6401700B90000112047542B1F452B20D
:10140B0012045C6402700A90000112047542B1422E
:10141B00B212045C6403700D900001120475FEF4AB
:10142B0052B1EE42B2EF6404704612045CFE700BD4
:10143B00900001120475F452B352B4EE6401700BB8
:10144B0090000112047542B3F452B412045C6402AE
:10145B00700A90000112047542B342B412045C642A
:10146B0003700D900001120475FEF452B3EE42B4FA
:10147B00EF6405704912045CFF7E00700B90000155
:10148B00120475F452C952CAEF64014E700B9000EE
:10149B000112047542C9F452CA12045C6402700A48
:1014AB0090000112047542C942CA12045C640370B5
:1014BB000D900001120475FFF452C9EF42CA7F0070
:0114CB0022FE
:101FC900EFFD7C00700F75BA8090FE8074E0F09090
:101FD900FE82E4F022ED64014C701875BA8090FE1F
:101FE900807481F090FE85745AF090FE84E4F0903C
:041FF900FE83F02251
:101CF600D200D201E49001F4F0E02400F8E290FE74
:101D060086F090FE84E030E605E054BFF02290FEB7
:101D160084E030E52DE054DFF0300003C2002230CD
:101D2600010DC20190FE87E09001F4F0E0802F9053
:101D3600FE87E0FF9001F4E0FE04F074002EF8EF59
:101D4600F22290FE84E030E41EE054EFF0E030E151
:101D56000790FE8674FFF0229001F4E004F0240060
:101D6600F8E290FE86F02290FE84E030E308E0542C
:071D7600F7F0D200D20122B8
:0C21900090FE82E030E6F9E054BFF0223F
:09219C0090FE817401F002219013
:1021420090FE86EFF090FE817402F012219002213F
:01215200A5E7
:0921A50090FE817403F002219008
:0F21640090FE817404F012219090FE87E0FF221C
:0E21820090FE82E4F090FE817405F002219040
:0F21730090FE827401F090FE817405F0022190BD
:0921AE0090FE817406F0022190FC
:10211C00E4FFFE000000000FBF00010EBE0BF4BF79
:02212C00B8F108
:01212E00228E
:10215300E59A30E103539AFDE59A30E003539AFE82
:012163002259
:03002300021D7D3E
:101D7D00C0E0C083C082C0D075D000C006C007309F
:101D8D009831C29890014EE0702990014CE0C394B7
:101D9D000B748094804002E4F090014CE0FF04F05D
:101DAD0074562FF582E43401F583E599F090014DD9
:101DBD007405F0309934C29990014AE0FF900149C1
:101DCD00E0FE6F6020746C2EF582E43401F583E043
:101DDD00F599900149E004F0C3940B748094804010
:101DED0009E4F0800590014BE4F0D007D006D0D087
:071DFD00D082D083D0E03258
:03004300021E0496
:101E0400C0E0C083C082C0D075D000C006C0071235
:101E14002153900155E07029900153E0C3940B7451
:101E24008094804002E4F0900153E0FF04F0746178
:101E34002FF582E43401F583E59BF0900154740599
:101E4400F0122153900151E0FF900150E0FE6F60C9
:101E54002074772EF582E43401F583E0F59B90013C
:101E640050E004F0C3940B748094804009E4F08043
:101E740005900152E4F0D007D006D0D0D082D083B0
:031E8400D0E03279
:1008A20090018FEBF0A3EAF0A3E9F090018EEFF054
:1008B200D2AF64016003020B1990014804F0E4A373
:1008C200F0A3F0A3F0A3F0A3F0A3F0900192F090B4
:1008D2000192E0FFC3940B748094805014746C2FC7
:1008E200F582E43401F583E4F0900192E004F080B3
:1008F200DEE4900192F0900192E0FFC3940B7480C9
:100902009480501474562FF582E43401F583E4F098
:10091200900192E004F080DE90018FE0FBA3E0FA08
:10092200A3E0F912045CFD7C00D394C0748094802F
:1009320040037F022290000A12047564017004D2FF
:10094200BC8002C2BC12045CFFE598543F4FF5988C
:10095200ED64C04C6008EF64406003020A449000FA
:10096200021207087F807E8D7D5B7C0012059690C7
:100972000193120738E4FFFE7D01FC900193E0F839
:10098200A3E0F9A3E0FAA3E0FBC312063640037F1B
:100992000222900193E0F8A3E0F9A3E0FAA3E0FBBE
:1009A200C3E49BFFE49AFE740199FDE498FC900174
:1009B2009312073890018FE0FBA3E0FAA3E0F990CD
:1009C2000001120475FB7A0064017038C28E538EE6
:1009D200FE5389BF5389CF438E40900193E0FCA31D
:1009E200E0FDA3E0FEA3E0FF78081206478F8D909A
:1009F2000193A3A3A3E0F58BC2AB5389BF538FFD31
:100A0200D28E807DEB64024A7035538EEF438E01A5
:100A1200538EF7438E04900193E0FCA3E0FDA3E024
:100A2200FEA3E0FF78081206478FD6900193A3A396
:100A3200A3E0F5D753AFFB538EF7438E1080427F6E
:100A4200022290018FE0FBA3E0FAA3E0F912045C1A
:100A5200FF7E007014900008120475640170054353
:100A62008E20801D538EDF8018EF64804E701290AE
:100A72000008120475640170054387808003538760
:100A82007F90018FE0FBA3E0FAA3E0F99000091246
:100A9200047564017004D2AC8002C2AC90000712EB
:100AA200047564017004D29C8002C29C90000B12F7
:040AB2000475700A4D
:080AB6009001977403F0A314F2
:100ABE00802F90018FE0FBA3E0FAA3E0F990000BEA
:0A0ACE001204756480900197701106
:0F0AD8007403F0A37480F07B017A0179977F019A
:020AE700800F7E
:100AE9007403F0A37480F07B017A0179977F031274
:020AF90012EBFE
:100AFB0090018FE0FBA3E0FAA3E0F990000B120446
:100B0B007554C0FFE5A2543F4FF5A27F0022900120
:100B1B008EE064026003020CBF90014F7402F0E49C
:100B2B00A3F0A3F0A3F0A3F0A3F0A3F0900192F035
:100B3B00900192E0FFC3940B7480948050147477EF
:100B4B002FF582E43401F583E4F0900192E004F098
:100B5B0080DEE4900192F0900192E0FFC3940B745D
:100B6B00809480501474612FF582E43401F583E492
:100B7B00F0900192E004F080DE90018FE0FBA3E0A7
:100B8B00FAA3E0F912045CFF64C06008EF644060F4
:100B9B0003020C4590000A1204756401700543B5FD
:100BAB0001800353B5FE12045C64C07005439A8048
:100BBB008003539A7F9000021207087F807E8D7D01
:100BCB005B7C00120596900193120738E4FFFE7DC3
:100BDB0001FC900193E0F8A3E0F9A3E0FAA3E0FB9A
:100BEB00C312063640037F0222900193E0F8A3E084
:100BFB00F9A3E0FAA3E0FBC3E49BFFE49AFE7401C4
:100C0B0099FDE498FC900193120738538EEF538EA5
:100C1B00F7438E04900193E0FCA3E0FDA3E0FEA359
:100C2B00E0FF78081206478FD6900193A3A3A3E0A9
:100C3B00F5D753AFFB438E1080037F022290018FB9
:100C4B00E0FBA3E0FAA3E0F990000912047564013C
:100C5B00700543AF01800353AFFE9000071204757C
:100C6B0064017005439A108003539AEF90000B12A6
:070C7B000475900197701051
:0E0C82007403F0A314F07B017A0179977F01CF
:020C9000800FD3
:100C92007403F0A37480F07B017A0179977F0412C8
:020CA20012EB53
:100CA40090018FE0FBA3E0FAA3E0F990000B12049B
:0D0CB400755401FFE5BA54FE4FF5BA7F00FC
:010CC1002210
:10205500900191EFF090014BE0701304F090019125
:10206500E0F5993099FDC299E490014BF0227F0586
:072075007E0012210680DE4F
:101FFD00900151E02477F582E43401F583EFF09000
:10200D000151E004F0C3940B748094804002E4F01D
:0C201D00900152E0700504F012215322E3
:1020290090018EEBF0A3EAF0A3E9F090018EE0FBBA
:10203900A3E0FAA3E0F912045CFF600F12205590A7
:0C204900018FE475F00112050C80E0220C
:10212F0012045CFF600C121FFD740129F9E43AFAE6
:03213F0080EE220D
:0721B7003098FDC298AF99BA
:0121BE0022FE
:0521BF00122153AF9B4B
:0121C40022F8
:1014CC00900190EBF0A3EAF0A3E9F090018EEEF01E
:0314DC00A3EFF08B
:1014DF00E4900193F0A3F0C3EE64809480501EE477
:1014EF00900197F0A3F090018EE0FEA3E0FFC3E41C
:1014FF009FFFE49E90018EF0A3EFF080089001977C
:10150F00E4F0A304F090018EE0FEA3E0FF7C007DE9
:10151F000A1204D6EF4E604B90018EE0FAA3E0FB67
:10152F007C007D0AFFAE021204D6ED2430FF90013D
:10153F0093E0FCA3E02499F58274013CF583EFF06E
:10154F007C007D0AAF03AE021204D690018EEEF03E
:10155F00A3EFF0900194E004F070AA900193E004DF
:10156F00F080A290018EA3E02430FF900193E0FC65
:10157F00A3E02499F58274013CF583EFF090019775
:10158F00E07002A3E06003021625900190E0FBA338
:10159F00E0FAA3E0F9742D1204A2900193E0FFA3E7
:1015AF00E0A3CFF0A3EFF0900195E0FEA3E0FFD30F
:1015BF0094FFEE6480947F404A74992FF5827401F2
:1015CF003EF583E0FF900195E0FCA3E0FDC39001A1
:1015DF0094E09DFD900193E09CCD2401CD3400FC5F
:1015EF00900190E0FBA3E0FAA3E0F98D828C83EFEA
:1015FF001204B4900196E024FFF0900195E034FFBF
:10160F00F080A4900190E0FBA3E0FAA3E0F9900131
:10161F0094E024028074900193E0FFA3E0A3CFF045
:10162F00A3EFF0900195E0FEA3E0FFD394FFEE64EB
:10163F0080947F404474992FF58274013EF583E0C6
:10164F00FF900195E0FCA3E0FDC3900194E09DFDA8
:10165F00900193E09CFC900190E0FBA3E0FAA3E0E3
:10166F00F98D828C83EF1204B4900196E024FFF081
:10167F00900195E034FFF080AA900190E0FBA3E089
:10168F00FAA3E0F9900194E02401FF900193E03474
:09169F00008F82F583E41204B40B
:0116A800221F
:051E8F004201F2000019
:030003000220EBED
:1020EB00C0E0C083C0829001F3E004F07006900161
:0B20FB00F2E004F0D082D083D0E0328D
:0300130002000ADE
:01000A0032C3
:0300530002001296
:0100120032BB
:03005B000200168A
:0100160032B7
:0300830002001761
:0100170032B6
:10198900EFD394107480948040037F0122D2AFEF8B
:10199900703090000212047564017004D2A88002AC
:1019A900C2A890000112047564017004D2B88002C3
:1019B900C2B812045C64017004D2888002C2887FB4
:1019C9000022EF6402703090000212047564017005
:1019D90004D2AA8002C2AA9000011204756401709F
:1019E90004D2BA8002C2BA12045C64017004D28AB9
:1019F9008002C28A7F0022EF640A701590000212E9
:101A0900047564017005438F108003538FEF7F00C5
:101A190022EF640B701590000212047564017005C1
:101A2900438F208003538FDF7F0022EF64107015EE
:101A390090000212047564017005438F40800353BE
:081A49008FBF7F00227F022203
:0A1E94004201EE00004201F00000E0
:03000B00021BBD18
:101BBD00C0E0C0F0C083C082C0D075D000C000C0EE
:101BCD0001C002C003C004C005C006C0079001EFEC
:101BDD00E004F070069001EEE004F09001EEE0708C
:101BED0004A3E0640A705B9001F2E0FCA3E0FDEC5D
:101BFD001203A29001B01207389001B412074443AA
:101C0D005200009001B87401F0A37401F0A37400A8
:101C1D00F07F01120CC2900120E0FCA3E0FDA3E0D7
:101C2D00FEA3E0FF9001BC1207387B017A0179BB5E
:101C3D00E4FF120FEE9001EEE4F0A3F09001F2F04C
:101C4D00A3F0D007D006D005D004D003D002D00128
:0D1C5D00D000D0D0D082D083D0F0D0E032C3
:03001B00021A5175
:101A5100C0E0C0F0C083C082C0D075D000C000C05B
:101A610001C002C003C004C005C006C0079001F157
:101A7100E004F070069001F0E004F09001F0E070F5
:101A810004A3E0643270651218759001D1E0FCA3E3
:101A9100E0FDA3E0FEA3E0FF9001B0120738900142
:101AA100B4120744000000009001B87401F0A3745F
:101AB10001F0A37424F0E4FF120CC27F007E807D4C
:101AC100137C43900144E0F8A3E0F9A3E0FAA3E01A
:101AD100FB12008D9001C51207387B017A0179C490
:101AE1007F01120FEE9001F0E4F0A3F0D007D006D1
:101AF100D005D004D003D002D001D000D0D0D08204
:071B0100D083D0F0D0E032E8
:0300630002001880
:0100180032B5
:1016A900AD07EDD394027480948040037F0122D268
:1016B900AFED6003021751C28C90000212047564E9
:1016C900017004D2A98002C2A990000112047564B4
:1016D900017004D2B98002C2B912045CFED394032A
:1016E9007480948040037F0222E58954FC4EF58979
:1016F900900003120475FF7E0064017003538E7F0E
:10170900EF4E7003438E80EF64024E7005438904E7
:1017190080035389FB90000412047564017005432A
:101729008F018003538FFE900005120522E5F0F525
:101739008C900005120522F58A9000071204756441
:10174900017002D28C7F0022ED640160030217EA66
:10175900C28E90000212047564017004D2AB80023B
:10176900C2AB90000112047564017004D2BB8002FF
:10177900C2BB12045CFEC394037480948040037F4F
:101789000222E58954CF4EF589900003120475FFB2
:101799007E0064017003538EBFEF4E7003438E4089
:1017A900EF64024E700543894080035389BF90005E
:1017B9000412047564017005438F028003538FFD81
:1017C900900005120522E5F0F58D9000051205221D
:1017D900F58B90000712047564017002D28E7F00A8
:1017E90022ED64026003021872538EEF9000021218
:1017F90004756401700543AF04800353AFFB900087
:1018090003120475FD7C00D3940274809480400314
:101819007F0222ED64014C7003538EFB900003128A
:1018290004757003438E04900003120475640270FA
:1018390005438E088003538EF790000412047564E3
:10184900017005438F048003538FFB900005120537
:1018590022FDACF0ECF5D68DD79000071204756423
:0C186900017003438E107F00227F0222DA
:1020C70012045C900191F090000112047590019246
:1020D700F0900002120475900193F07B017A017968
:0420E70091021989C0
:10002E00E490018EF0A304F0A3F0FB7A01798EE444
:04003E00FF0220C7D6
:101E9E0060240100402000003F4CCCCD000000002B
:101EAE00000000000000000000000000447500006B
:101EBE000000000000000000602401243F800000AC
:101ECE003D4CCCCD3C23D70A0000000000000000A2
:101EDE0000000000C2E1000042E10000000000002E
:100CC2009001AFEFF06003020E8D9001B8E0FBA33C
:100CD200E0FAA3E0F990000C12067A9000101206D6
:100CE200C49001B0E0F8A3E0F9A3E0FAA3E0FBA30B
:100CF200E0FCA3E0FDA3E0FEA3E0FF120089900167
:100D0200B8E0FBA3E0FAA3E0F990000C1206C4E9F4
:100D12002414F9E43AFAC003C002C00112065A9040
:100D220001B8E0FBA3E0FAA3E0F990000C12070877
:100D320012008DD001D002D0031206AA9001B8E0B1
:100D4200FBA3E0FAA3E0F990001412067AE4FBFA9E
:100D520079A0784012032450159001B8E0FBA3E07B
:100D6200FAA3E0F990001412077540A00000900168
:100D7200B8E0FBA3E0FAA3E0F990001412067AE4CB
:100D8200FBFA79A078C0120324601740159001B8CD
:100D9200E0FBA3E0FAA3E0F9900014120775C0A0EB
:100DA20000009001B8E0FBA3E0FAA3E0F990001480
:100DB20012067A90000412070812017EC004C005D0
:100DC200C006C0079001B8E0FBA3E0FAA3E0F990E7
:100DD200000C12067A1206E812017ED003D002D06D
:100DE20001D00012008DC004C005C006C0079001EA
:100DF200B8E0FBA3E0FAA3E0F9900010120708C0E4
:100E020000C001C002C0039001B8E0FBA3E0FAA356
:100E1200E0F990000C12067AD003D002D001D00083
:100E22001200899001B8E0FBA3E0FAA3E0F9900078
:100E32000812070812017ED003D002D001D000129E
:100E4200008D9001B8E0FBA3E0FAA3E0F990002046
:100E52001206C490001812067A9000201207081297
:100E6200032460054003020FAA9001B8E0FBA3E04F
:100E7200FAA3E0F990001C12067A900020120708EB
:100E82001203244003020FED020FD69001AFE0647B
:100E9200016003020FED9001B8E0FBA3E0FAA3E0CA
:100EA200F990000C12067A9000101206C49001B05C
:100EB200E0F8A3E0F9A3E0FAA3E0FBA3E0FCA3E0DF
:100EC200FDA3E0FEA3E0FF1200899001B8E0FBA3BE
:100ED200E0FAA3E0F990000C1206C4E92420F9E438
:100EE2003AFAC003C002C00112065AC004C005C0CB
:100EF20006C0079001B8E0FBA3E0FAA3E0F9900076
:100F020010120708C000C001C002C0039001B8E07F
:100F1200FBA3E0FAA3E0F990000C12067AD003D00A
:100F220002D001D0001200899001B8E0FBA3E0FAE0
:100F3200A3E0F91206E812017EC004C005C006C093
:100F4200079001B8E0FBA3E0FAA3E0F990000C12CD
:100F5200067A90000412070812017EA804A905AAC5
:100F620006AB07D007D006D005D00412008DA80426
:100F7200A905AA06AB07D007D006D005D0041200F7
:100F82008DD001D002D0031206AA9001B8E0FBA3D3
:100F9200E0FAA3E0F990001812067A9000201207F6
:100FA20008120324601240109001B8E0FBA3E0FA9B
:100FB200A3E0F9900018802A9001B8E0FBA3E0FAC0
:100FC200A3E0F990001C12067A9000201207081282
:100FD200032450179001B8E0FBA3E0FAA3E0F990D4
:0C0FE200001C12067A9000201206C422A7
:10207C00E49001D9F0A304F0A3F0E4A3F0A304F0DE
:10208C00A374A2F0A37440F0A37401F0FB7A01795D
:06209C00D9E4FF0216A9C1
:101EEE004901BB0000000000464350004901C400F8
:081EFE004313800042C80000FC
:0E0FEE009001AFEFF0A3EBF0A3EAF0A3E9F05F
:100FFC00A3120744000000009001B7120744000040
:10100C0000009001B0E0FBA3E0FAA3E0F99000052A
:10101C001207087F007E1B7DB77C49120287900166
:10102C00B31207389001B0E0FBA3E0FAA3E0F9900B
:10103C000001120708E4FFFE7D7A7C44120089E46B
:10104C00FBFA797A78441202879001B71207387547
:10105C00BA8090FFF2740FF09001B3E0FCA3E0FDB6
:10106C00A3E0FEA3E0FF1203DB90FFF0EEF0A3EF92
:10107C00F09001AFE0B4080040030212E49010902D
:10108C00F82828730210A80210F0021138021180FF
:10109C000211C802121002125802129F90FF00E4B3
:1010AC00F0A3F09001B7E0FCA3E0FDA3E0FEA3E009
:1010BC00FF9001B3E0F8A3E0F9A3E0FAA3E0FB1280
:1010CC00017E1203DB90FF02EEF0A3EFF09001B073
:1010DC00E0FBA3E0FAA3E0F912045C448090FF0467
:1010EC00F00212E490FF10E4F0A3F09001B7E0FCE2
:1010FC00A3E0FDA3E0FEA3E0FF9001B3E0F8A3E0C2
:10110C00F9A3E0FAA3E0FB12017E1203DB90FF12BD
:10111C00EEF0A3EFF09001B0E0FBA3E0FAA3E0F94E
:10112C0012045C448090FF14F00212E490FF20E45F
:10113C00F0A3F09001B7E0FCA3E0FDA3E0FEA3E078
:10114C00FF9001B3E0F8A3E0F9A3E0FAA3E0FB12EF
:10115C00017E1203DB90FF22EEF0A3EFF09001B0C2
:10116C00E0FBA3E0FAA3E0F912045C448090FF24B6
:10117C00F00212E490FF30E4F0A3F09001B7E0FC31
:10118C00A3E0FDA3E0FEA3E0FF9001B3E0F8A3E031
:10119C00F9A3E0FAA3E0FB12017E1203DB90FF320D
:1011AC00EEF0A3EFF09001B0E0FBA3E0FAA3E0F9BE
:1011BC0012045C448090FF34F00212E490FF40E48F
:1011CC00F0A3F09001B7E0FCA3E0FDA3E0FEA3E0E8
:1011DC00FF9001B3E0F8A3E0F9A3E0FAA3E0FB125F
:1011EC00017E1203DB90FF42EEF0A3EFF09001B012
:1011FC00E0FBA3E0FAA3E0F912045C448090FF4406
:10120C00F00212E490FF50E4F0A3F09001B7E0FC80
:10121C00A3E0FDA3E0FEA3E0FF9001B3E0F8A3E0A0
:10122C00F9A3E0FAA3E0FB12017E1203DB90FF525C
:10123C00EEF0A3EFF09001B0E0FBA3E0FAA3E0F92D
:10124C0012045C448090FF54F00212E490FF60E4BE
:10125C00F0A3F09001B7E0FCA3E0FDA3E0FEA3E057
:10126C00FF9001B3E0F8A3E0F9A3E0FAA3E0FB12CE
:10127C00017E1203DB90FF62EEF0A3EFF09001B061
:10128C00E0FBA3E0FAA3E0F912045C448090FF6455
:10129C00F0804590FF70E4F0A3F09001B7E0FCA360
:1012AC00E0FDA3E0FEA3E0FF9001B3E0F8A3E0F9BA
:1012BC00A3E0FAA3E0FB12017E1203DB90FF72EEB7
:1012CC00F0A3EFF09001B0E0FBA3E0FAA3E0F91279
:0E12DC00045C448090FF74F0E4F5BA75FE8067
:0112EA0022E1
:10187500E49001AFF0FFFEA3F012219C7FA012219E
:10188500427F3D12214212219C7FA1122142122149
:10189500649001AFEFF01221821221649001B0EF44
:1018A500F01221731221AE9001B0E0FE9001AFE07D
:1018B500FDEDFFAC06EC1203A2E4FBFAF978471242
:1018C5000287E4FBFA7934784312017E9001CD1248
:1018D500073812219C7FA01221427F3E122142121D
:1018E500219C7FA11221421221649001AFEFF012D9
:1018F50021821221649001B0EFF01221731221AE02
:101905009001B0E0FE9001AFE0FDEDFFAC06EC12FA
:1019150003A2E4FBFAF97847120287E4FBFA79346B
:10192500784312017E9001D112073812219C7FA0C5
:101935001221427F3F12214212219C7FA112214296
:101945001221649001AFEFF01221821221649001FF
:10195500B0EFF01221731221AE9001B0E0FE9001BC
:10196500AFE0FDEDFFAC06EC1203A2E4FBFAF9785B
:1019750047120287E4FBFA7934784312017E90011D
:04198500D502073848
:1020A200E49001E1F0A304F0A3F0E4A3F0A304F0B0
:1020B200A374A2F0A37440F0A37401F0FB7A017937
:0520C200E1FF0216A978
:03002B0002000EC2
:04000E0053BCDF32CE
:101F6F00E4F59212045C4291900001120475FFE5B2
:101F7F00BC549F4FF5BC90000212047564017005AC
:101F8F0043BC80800353BC7F90000312047564012F
:101F9F00700543DE20800353DEDF900005120475C9
:101FAF0064017004D2AD8002C2AD900004120475BA
:0A1FBF0064017003D2BD22C2BD22EE
:0D004600EF6401700443BC802253BC7F2294
:101F0700EFD394077480948040028057E4F5BDF5C1
:101F1700BEE5BC54E044404FF5BC0000E4FBEBC316
:101F270094FA74809480503BE5BC30E53353BCDFB2
:101F3700E5DE30E509E5BD5403ADBEFC801DAFBD50
:101F47007C00AD077E00ED7802C333CE33CED8F9DF
:101F5700FFE5BE5403FDEEFCEF4DFDAF05AE0422D9
:071F67000B80BB7E047F002C
:011F6E002250
:10008600020447E86480F8E933E83360110460F05D
:10009600ED33EC337009E8FCE9FDEAFEEBFF2204E0
:1000A60060DED3EB9FEA9EE99DE8C2E78CF0C2F7DB
:1000B60095F0400CE8CCF8E9CDF9EACEFAEBCFFBA7
:1000C60012041285D0F05804700320D5B3E80470EA
:1000D600075002B2D502045192D5EC0460F7E4CC85
:1000E600C0E0C398F8603B94186008400DD0E0FB70
:1000F600020429E4FBFAC9FC8028E830E406E4C9D6
:10010600FBE4CAFCE830E305E4C9CACBFCE85407C3
:100116006010F8C3E913F9EA13FAEB13FBEC13FCCE
:10012600D8F130F52FC3E49CFCEF9BFFEE9AFEED71
:1001360099FDD0E0FBEF4E4D4C701222DB0302041A
:100146004EEC2CFCEF33FFEE33FEED33FDED30E7E6
:10015600EB020429EF2BFFEE3AFEED39FDD0E0FB72
:1001660050130BBB0003020451ED13FDEE13FEEF1B
:0801760013FFEC13FC02042945
:10017E00EC4D6011E8497017ED33EC3304600DE47B
:10018E00FCFFFEFD22E933E8330470F80204471247
:10019E00041258046009E4CC248150062850090248
:1001AE00045128400302044EC0E0EB4A7044B9806B
:1001BE0006D0E0FB02043DEF4E701CBD8008EBFF45
:1001CE00EAFEE9FD80EBE98DF0A4FEE5F0020267A0
:1001DE00E9CDF9EAFEEBFFEF89F0A4FCE5F0CE895C
:1001EE00F0A42EFFE435F0CD89F0A42DFEE435F019
:1001FE008067EF4E7005BD80D780C3EF8BF0A4AC47
:10020E00F0EE8BF0A42CFCE435F0F8EF8AF0A42C81
:10021E00E5F038FCE433CB8DF0A42CFCE5F03BF894
:10022E00EE8AF0A42CFCE5F038F8E433CF89F0A484
:10023E002CFCE5F038CF3400CE89F0A42FFFE5F08A
:10024E003EFEE433C98DF0A42EFEE5F039CD8AF0E2
:10025E00A42FFFE5F03EFEE43DFD33D0E0FB50075A
:10026E000BBB000F020451EC2CFCEF33FFEE33FE00
:06027E00ED33FD0204292E
:10028400020451EC5D046005E8590470030204475C
:10029400120412580460F6EC4860F2EC7004FDFE9F
:1002A400FF22C860DB2481C85009C398600250064D
:1002B40002044E9850CAF582E9294B4A7005AB8274
:1002C40002043D75F0007C1A7880C3EF9BEE9AED32
:1002D40099400DC3EF9BFFEE9AFEED99FDE842F0C5
:1002E400DC23ACF0D0E0FFD0E0FED0E0FDAB822018
:1002F400E7101BEB60BAEC2CFCEF33FFEE33FEEDA2
:1003040033FD020429E803F830E705C0F075F00076
:10031400EF2FFFEE33FEED33FD40B830E7C280AA85
:1003240074F8CC6480CCC86480C8F58204604FC380
:10033400EB9FF5F0EA9E42F0E99D42F0E89C45F01F
:10034400603C501DE5825FFFE582D313CB5BCBF4A9
:100354002B5582FB50280ABA002409B900200880D2
:100364001DE5825BFBE582D313CF5FCFF4C3132F6C
:100374005582FF50090EBE00050DBD00010CC3EBF4
:100384009FF5F0EA9E42F0E99D42F0E89C45F0605A
:0903940007CC4820E701B3EC227C
:10039D0075F020800E75F010800575F0087D007EDB
:1003AD00007F003392D530D503120628EC33401070
:1003BD00EF33FFEE33FEED33FDEC33FCD5F0ED22E4
:0E03CD00E5F0247EA2D513CC92E7CDCEFF2220
:1003DB00EDD2E7CD33EC3392D524814006E4FFFE1A
:1003EB00FDFC22FCE4CFCECDCC24E0501174FF8079
:1003FB00EDC3CC13CCCD13CDCE13CECF13CF047016
:07040B00F030D5DE020628E7
:10041200E9D2E7C933E833F892D5EDD2E7CD33EC30
:0704220033FC5002B2D522A9
:10042900EC30E7100FBF000C0EBE00080DBD000434
:100439000BEB6014A2D5EB13FCED92E7FD2274FFE0
:10044900FCFDFEFF22E480F8A2D574FF13FC7D8039
:03045900E480EF4D
:101C7600021B08E493A3F8E493A34003F68001F261
:101C860008DFF48029E493A3F85407240CC8C3336F
:101C9600C4540F4420C8834004F456800146F6DF3E
:101CA600E4800B0102040810204080901E87E47E29
:101CB600019360BCA3FF543F30E509541FFEE49333
:101CC600A360010ECF54C025E060A840B8E493A3FA
:101CD600FAE493A3F8E493A3C8C582C8CAC583CA25
:101CE600F0A3C8C582C8CAC583CADFE9DEE780BEDD
:011F060000DA
:10045C00BB010689828A83E0225002E722BBFE029E
:09046C00E32289828A83E49322D1
:10047500BB010CE58229F582E5833AF583E022503C
:1004850006E92582F8E622BBFE06E92582F8E22286
:0D049500E58229F582E5833AF583E49322A0
:1004A200BB010689828A83F0225002F722BBFE0139
:0204B200F32233
:1004B400F8BB010DE58229F582E5833AF583E8F07E
:1004C400225006E92582C8F622BBFE05E92582C82A
:0204D400F22212
:1004D600C2D5EC30E709B2D5E4C39DFDE49CFCEE41
:1004E60030E715B2D5E4C39FFFE49EFE120799C319
:1004F600E49DFDE49CFC800312079930D507C3E414
:060506009FFFE49EFE22AF
:10050C00C5F0F8A3E028F0C5F0F8E582158270027A
:06051C001583E038F02217
:10052200BB0110E58229F582E5833AF583E0F5F017
:10053200A3E0225009E92582F886F008E622BBFEF4
:100542000AE92582F8E2F5F008E222E5832AF5833A
:08055200E993F5F0A3E99322FF
:10055A0075F008758200EF2FFFEE33FECD33CDCC58
:10056A0033CCC58233C5829BED9AEC99E5829840DB
:10057A000CF582EE9BFEED9AFDEC99FC0FD5F0D6B8
:10058A00E4CEFBE4CDFAE4CCF9A88222B800C1B9E2
:10059A000059BA002DEC8BF084CFCECDFCE5F0CB20
:1005AA00F97818EF2FFFEE33FEED33FDEC33FCEB59
:1005BA0033FB10D703994004EB99FB0FD8E5E4F914
:1005CA00FA227818EF2FFFEE33FEED33FDEC33FC01
:1005DA00C933C910D7059BE99A4007EC9BFCE99AF5
:1005EA00F90FD8E0E4C9FAE4CCFB2275F010EF2F3A
:1005FA00FFEE33FEED33FDCC33CCC833C810D7073A
:10060A009BEC9AE899400AED9BFDEC9AFCE899F874
:0E061A000FD5F0DAE4CDFBE4CCFAE4C8F92207
:0E062800C3E49FFFE49EFEE49DFDE49CFC22E3
:10063600EB9FF5F0EA9E42F0E99D42F0E89C45F01A
:010646002291
:10064700E8600FECC313FCED13FDEE13FEEF13FF91
:03065700D8F122B5
:10065A00BB010789828A830207FA5005E9F8020773
:10066A00EEBBFE05E9F802080689828A83020812AF
:10067A00BB010DE58229F582E5833AF5830207FA83
:10068A005007E92582F80207EEBBFE07E92582F842
:10069A00020806E58229F582E5833AF58302081203
:1006AA00BB010789828A830207385005E9F80208E4
:0A06BA0058BBFE05E9F802086422AF
:1006C400BB010DE58229F582E5833AF583020738FB
:1006D4005007E92582F8020858BBFE07E92582F88D
:0406E4000208642282
:1006E800BB010789828A8302082F5005E9F80208AE
:1006F80022BBFE05E9F802083B89828A8302084882
:10070800BB010DE58229F582E5833AF58302082FBE
:100718005007E92582F8020822BBFE07E92582F87E
:1007280002083BE58229F582E5833AF58302084809
:0C073800ECF0A3EDF0A3EEF0A3EFF02234
:10074400A8828583F0D083D08212075B12075B12E4
:10075400075B12075BE473E493A3C583C5F0C58309
:10076400C8C582C8F0A3C583C5F0C583C8C582C8FF
:010774002262
:10077500BB010DE58229F582E5833AF5830207443D
:100785005007E92582F8020870BBFE07E92582F8C3
:0407950002088922AB
:10079900BC000BBE0029EF8DF084FFADF022E4CC44
:1007A900F875F008EF2FFFEE33FEEC33FCEE9DEC0D
:1007B900984005FCEE9DFE0FD5F0E9E4CEFD22ED53
:1007C900F8F5F0EE8420D21CFEADF075F008EF2F9D
:1007D900FFED33FD4007985006D5F0F222C398FD8E
:0507E9000FD5F0EA222B
:0C07EE00E6FC08E6FD08E6FE08E6FF2237
:0C07FA00E0FCA3E0FDA3E0FEA3E0FF2272
:0C080600E2FC08E2FD08E2FE08E2FF222E
:10081200E493FC740193FD740293FE740393FF222C
:0D082200E6FB08E6F908E6FA08E6CBF82246
:0C082F00E0F8A3E0F9A3E0FAA3E0FB224C
:0D083B00E2FB08E2F908E2FA08E2CBF8223D
:10084800E493F8740193F9740293FA740393FB2206
:0C085800ECF608EDF608EEF608EFF622CC
:0C086400ECF208EDF208EEF208EFF222D0
:10087000D083D082E493F608740193F6087402934F
:09088000F608740393F674047386
:10088900D083D082E493F208740193F2087402933E
:09089900F208740393F274047375
:00000001FF
