:030000000216479E
:0C164700787FE4F6D8FD75816202168EF3
:030006000D0A00E0
:0A18F8000858000000000000000086
:1015A300752A40752B01E4F52F752E4BF52DF52C7F
:1015B300753001F531F532753301753401F535F5C3
:1015C30021F525F5247523C8752241F529F52875DC
:1015D3002748752642FB7A007921FF120C0E7B0007
:0915E3007A00792A7F0112089DAB
:1015EC00E4F536F537AC36AD37EC1203B38F258EF8
:1015FC00248D238C227B007A007921E4FF120C0EBF
:10160C007B007A007958AF37AE361213B77B007A6D
:10161C000079581218997BFF7A0079061218997F75
:10162C00327E001200260537E53770020536C3946A
:0B163C00E8E5366480948340AC80A594
:10002600E4FDFCC3ED9FEC9E50100079207B28DB9D
:0A003600FED9FC0DBD00010C80E9AD
:01004000229D
:10006600E4FDFCC3ED9FEC9E500B7B06DBFE0DBD55
:0500760000010C80EE0A
:01007B002262
:100E6700EFD394057480948040037F012212046DB0
:100E7700FED394037480948040037F0222EF704472
:100E8700EE700B900001120486F4529352941204F0
:100E97006D6401700B9000011204864293F4529422
:100EA70012046DFE6402700A9000011204864293D8
:100EB7004294EE6403700D900001120486FEF45212
:100EC70093EE4294EF6401704612046DFE700B902E
:100ED7000001120486F452915292EE6401700B9055
:100EE70000011204864291F4529212046D6402705A
:100EF7000A9000011204864291429212046D640323
:100F0700700D900001120486FEF45291EE4292EFAA
:100F17006402704612046DFE700B90000112048685
:100F2700F452955296EE6401700B900001120486FC
:100F37004295F4529612046D6402700A90000112F1
:100F470004864295429612046D6403700D90000169
:100F5700120486FEF45295EE4296EF640370461231
:100F6700046DFE700B900001120486F452B152B268
:100F7700EE6401700B90000112048642B1F452B284
:100F870012046D6402700A90000112048642B14295
:100F9700B212046D6403700D900001120486FEF412
:100FA70052B1EE42B2EF6404704612046DFE700B4C
:100FB700900001120486F452B352B4EE6401700B30
:100FC70090000112048642B3F452B412046D640215
:100FD700700A90000112048642B342B412046D6491
:100FE70003700D900001120486FEF452B3EE42B472
:100FF700EF6405704912046DFF7E00700B900001CD
:10100700120486F452C952CAEF64014E700B900065
:101017000112048642C9F452CA12046D6402700AAE
:1010270090000112048642C942CA12046D6403701B
:101037000D900001120486FFF452C9EF42CA7F00E7
:011047002286
:10181300EFFD7C00700C90FE8074E0F090FE82E49B
:10182300F022ED64014C701875BA8090FE807481CB
:10183300F090FE85745AF090FE84E4F090FE83F0FD
:011843002282
:1016D300D200D201E4F56274002562F8E290FE863E
:1016E300F090FE84E030E605E054BFF02290FE84E3
:1016F300E030E529E054DFF0300003C2002230017E
:101703000CC20190FE87E0F5622400802C90FE87D6
:10171300E0FFAE62056274002EF8EFF22290FE84C1
:10172300E030E41CE054EFF0E030E10790FE867413
:10173300FFF022056274002562F8E290FE86F02233
:1017430090FE84E030E308E054F7F0D200D20122A7
:0C197E0090FE82E030E6F9E054BFF02259
:09198A0090FE817401F002197E47
:0E19620090FE86EFF090FE817402F002197E76
:0919930090FE817403F002197E3C
:0F19440090FE817404F012197E90FE87E0FF225E
:0E19700090FE82E4F090FE817405F002197E74
:0F19530090FE827401F090FE817405F002197EFF
:09199C0090FE817406F002197E30
:10190D00E4FFFE000000000FBF00010EBE0BF4BF90
:02191D00B8F11F
:01191F0022A5
:080C0E008F388B398A3A893BCB
:100C1600E4F53FF53EF53DF53CF543F542F541F586
:100C2600409000051207037F007E1B7DB77C4912AA
:100C360002878F3F8E3E8D3D8C3CAB39AA3AA93B4D
:100C4600900001120703E4FFFE7D7A7C44120089BE
:100C5600E4FBFA797A78441202878F438E428D41FB
:100C66008C4075BA8090FFF2740FF0AF3FAE3EAD88
:100C76003DAC3C1203EC90FFF0EEF0A3EFF0E5384C
:100C8600B408004003020E60900C95F82828730201
:100C96000CAD020CE4020D1B020D52020D89020D71
:100CA600C0020DF6020E2C90FF00E4F0A3F0AF4355
:100CB600AE42AD41AC40AB3FAA3EA93DA83C1201B5
:100CC6007E1203EC90FF02EEF0A3EFF0AB39AA3AE6
:100CD600A93B12046D448090FF04F0020E6090FF61
:100CE60010E4F0A3F0AF43AE42AD41AC40AB3FAA37
:100CF6003EA93DA83C12017E1203EC90FF12EEF0D5
:100D0600A3EFF0AB39AA3AA93B12046D448090FFD9
:100D160014F0020E6090FF20E4F0A3F0AF43AE4261
:100D2600AD41AC40AB3FAA3EA93DA83C12017E12A4
:100D360003EC90FF22EEF0A3EFF0AB39AA3AA93B01
:100D460012046D448090FF24F0020E6090FF30E4A0
:100D5600F0A3F0AF43AE42AD41AC40AB3FAA3EA9D3
:100D66003DA83C12017E1203EC90FF32EEF0A3EF99
:100D7600F0AB39AA3AA93B12046D448090FF34F0D7
:100D8600020E6090FF40E4F0A3F0AF43AE42AD41E7
:100D9600AC40AB3FAA3EA93DA83C12017E1203EC33
:100DA60090FF42EEF0A3EFF0AB39AA3AA93B12044A
:100DB6006D448090FF44F0020E6090FF50E4F0A373
:100DC600F0AF43AE42AD41AC40AB3FAA3EA93DA811
:100DD6003C12017E1203EC90FF52EEF0A3EFF0AB53
:100DE60039AA3AA93B12046D448090FF54F0806AF8
:100DF60090FF60E4F0A3F0AF43AE42AD41AC40AB30
:100E06003FAA3EA93DA83C12017E1203EC90FF6268
:100E1600EEF0A3EFF0AB39AA3AA93B12046D448079
:100E260090FF64F0803490FF70E4F0A3F0AF43AE1F
:100E360042AD41AC40AB3FAA3EA93DA83C12017E63
:100E46001203EC90FF72EEF0A3EFF0AB39AA3AA9C9
:100E56003B12046D448090FF74F0E4F5BA75FE8091
:010E66002269
:10193300E59A30E103539AFDE59A30E003539AFEAA
:011943002281
:030043000217534E
:10175300C0E0C083C082C0D075D000C00712193367
:10176300E5187022C3E51694807480948040037555
:101773001600AF16051674802FF582E43401F58345
:10178300E59BF0751705121933E513651460207492
:10179300802513F582E43402F583E0F59B0513C33A
:1017A300E51394807480948040087513008003755A
:0D17B3001500D007D0D0D082D083D0E03216
:08089D008F388B398A3A893B40
:1008A500EF64016003020AAB750B01F50CF50DF55C
:1008B5000EF50FF510F511F53CC3E53C94807480F9
:1008C500948050117400253CF582E43402F583E4EC
:1008D500F0053C80E4E4F53CC3E53C9480748094E9
:1008E5008050117400253CF582E43401F583E4F071
:1008F500053C80E4AB39AA3AA93B12046DFD7C00A6
:10090500D394C07480948040037F022290000A1221
:10091500048664017004D2BC8002C2BC12046DFF5F
:10092500E598543F4FF598ED64C04C6008EF64407E
:1009350060030209F19000021207037F807E8D7D1E
:100945005B7C001205918F408E3F8D3E8C3DE4FF10
:10095500FE7D01FCAB40AA3FA93EA83DC31206316E
:1009650040037F0222C3E49540F540E4953FF53FFF
:100975007401953EF53EE4953DF53DAB39AA3AA99E
:100985003B900001120486FB7A006401702CC28E34
:10099500538EFE5389BF5389CF438E40AF40AE3F40
:1009A500AD3EAC3D78081206428F8D85408BC2ABBB
:1009B5005389BF538FFDD28E806CEB64024A702938
:1009C500538EEF438E01538EF7438E04AF40AE3FF7
:1009D500AD3EAC3D78081206428FD68540D753AF61
:1009E500FB538EF7438E10803D7F0222AB39AA3A26
:1009F500A93B12046DFF7E00701490000812048656
:100A050064017005438E20801D538EDF8018EF64CE
:100A1500804E7012900008120486640170054387A9
:100A250080800353877FAB39AA3AA93B900009120E
:100A3500048664017004D2AC8002C2AC9000071237
:100A4500048664017004D29C8002C29C90000B1243
:040A5500048670099A
:070A5900754103754202FB29
:100A60008027AB39AA3AA93B90000B120486648018
:020A7000700F05
:0D0A7200754103754280FB7A0079417F01D8
:020A7F00800EE7
:100A81007541037542807B007A0079417F03120E24
:010A910067FD
:100A9200AB39AA3AA93B90000B12048654C0FFE579
:100AA200A2543F4FF5A27F0022E5386402600302A0
:100AB2000C0B751202F513F514F515F516F517F56D
:100AC20018F53CC3E53C9480748094805011748086
:100AD200253CF582E43402F583E4F0053C80E4E44D
:100AE200F53CC3E53C948074809480501174802559
:100AF2003CF582E43401F583E4F0053C80E4AB3953
:100B0200AA3AA93B12046DFF64C06008EF6440601A
:100B120003020BA090000A1204866401700543B51B
:100B220001800353B5FE12046D64C07005439A80C0
:100B32008003539A7F9000021207037F807E8D7D8F
:100B42005B7C001205918F408E3F8D3E8C3DE4FF11
:100B5200FE7D01FCAB40AA3FA93EA83DC31206316F
:100B620040037F0222C3E49540F540E4953FF53F00
:100B72007401953EF53EE4953DF53D538EEF538E5F
:100B8200F7438E04AF40AE3FAD3EAC3D780812064F
:100B9200428FD68540D753AFFB438E1080037F022E
:100BA20022AB39AA3AA93B9000091204866401706B
:100BB2000543AF01800353AFFE9000071204866421
:100BC200017005439A108003539AEF90000B1204B0
:030BD20086700F1B
:0D0BD500754103754202FB7A0079417F01F2
:020BE200800E83
:100BE4007541037542807B007A0079417F04120EBF
:010BF4006799
:100BF500AB39AA3AA93B90000B1204865401FFE5D4
:080C0500BA54FE4FF5BA7F005E
:010C0D0022C4
:1018BC008F3BE50E700F750E01853B993099FDC27B
:0E18CC0099E4F50E227F057E0012006680E48E
:1018710074802514F582E43402F583EFF00514C376
:10188100E5149480748094804003E4F514E51570A8
:0818910006751501121933223E
:101899008B388A39893AAB38AA39A93A12046DFFCB
:1018A90060101218BC7401253AF53AE43539F53956
:0318B90080E422A6
:1019200012046DFF600C121871740129F9E43AFA7F
:0319300080EE2224
:0719A5003098FDC298AF99D4
:0119AC002218
:030023000218447C
:10184400C0E0C083C082C0D075D000C001C002C057
:1018540003C298AB08AA09A90AE5991204B3D003F4
:0D186400D002D001D0D0D082D083D0E032AD
:0A13B7008E388F398B3A8A3B893C4F
:1013C100E4F53DF53EC3E538648094805011E4F5C1
:1013D10041F542C39539F539E49538F538800675FC
:1013E1004100754201AE38AF397C007D0A1204E735
:1013F100AA06AB07EB4A6024AE38AF397C007D0A00
:101401001204E7ED2430FF7443253EF8A6078A381D
:101411008B39053EE53E70CD053D80C9E539243067
:10142100FF7443253EF8A607E54245417059AB3AA2
:10143100AA3BA93C742D1204B3853D3F853E40D3A0
:10144100E54094FFE53F6480947F402F744325403D
:10145100F8E6FFC3E53E9540CDE53D953FCD24013E
:10146100CD3400AB3AAA3BA93C8D82F583EF12043F
:10147100C5E540154070C8153F80C4AB3AAA3BA9E9
:101481003CE53E24028046853D3F853E40D3E54014
:1014910094FFE53F6480947F402974432540F8E63A
:1014A100FFC3E53E9540FDE53D953FAB3AAA3BA91B
:1014B1003C8D82F583EF1204C5E540154070CE15D1
:1014C1003F80CAAB3AAA3BA93CE53E2401FFE43583
:0914D1003D8F82F583E41204C58D
:0114DA0022EF
:04190200026000007F
:03000300020046B2
:0D004600C0E00561E56170020560D0E032A8
:03001300020009DF
:0100090032C4
:0300530002000A9E
:01000A0032C3
:03005B0002000E92
:01000E0032BF
:0300830002000F69
:01000F0032BE
:1014DB00EFD394107480948040037F0122D2AFEF3E
:1014EB00703090000212048664017004D2A880024E
:1014FB00C2A890000112048664017004D2B8800265
:10150B00C2B812046D64017004D2888002C2887F55
:10151B000022EF64027030900002120486640170A6
:10152B0004D2AA8002C2AA90000112048664017040
:10153B0004D2BA8002C2BA12046D64017004D28A5A
:10154B008002C28A7F0022EF640A7015900002129B
:10155B00048664017005438F108003538FEF7F0067
:10156B0022EF640B70159000021204866401700563
:10157B00438F208003538FDF7F0022EF64107015A1
:10158B0090000212048664017005438F4080035360
:08159B008FBF7F00227F0222B6
:06190600041900000000BE
:03000B000217C019
:1017C000C0E0C0F0C083C082C0D075D000C000C0EF
:1017D00001C002C003C004C005C006C007AE60AFB0
:1017E000617C007D0A1204E7AC06AD07EC1203B37E
:1017F0008F1C8E1B8D1A8C19D007D006D005D004F3
:10180000D003D002D001D000D0D0D082D083D0F08D
:03181000D0E032F3
:03001B00020010D0
:0100100032BD
:0300630002001187
:0100110032BC
:10104800AD07EDD394027480948040037F0122D2CF
:10105800AFED60030210F0C28C90000212048664A7
:10106800017004D2A98002C2A9900001120486640A
:10107800017004D2B98002C2B912046DFED3940380
:101088007480948040037F0222E58954FC4EF589E0
:10109800900003120486FF7E0064017003538E7F64
:1010A800EF4E7003438E80EF64024E70054389044F
:1010B80080035389FB900004120486640170054381
:1010C8008F018003538FFE90000512051DE5F0F592
:1010D8008C90000512051DF58A900007120486649D
:1010E800017002D28C7F0022ED6401600302118935
:1010F800C28E90000212048664017004D2AB800292
:10110800C2AB90000112048664017004D2BB800255
:10111800C2BB12046DFEC394037480948040037FA5
:101128000222E58954CF4EF589900003120486FF08
:101138007E0064017003538EBFEF4E7003438E40F0
:10114800EF64024E700543894080035389BF9000C5
:101158000412048664017005438F028003538FFDD7
:1011680090000512051DE5F0F58D90000512051D8E
:10117800F58B90000712048664017002D28E7F00FE
:1011880022ED64026003021211538EEF90000212E6
:1011980004866401700543AF04800353AFFB9000DD
:1011A80003120486FD7C00D394027480948040036B
:1011B8007F0222ED64014C7003538EFB90000312F2
:1011C80004867003438E0490000312048664027040
:1011D80005438E088003538EF7900004120486643A
:1011E800017005438F048003538FFB90000512059F
:1011F8001DFDACF0ECF5D68DD7900007120486647F
:0C120800017003438E107F00227F022241
:1018DA0012046DF51D900001120486F51E90000297
:0E18EA00120486F51F7B007A00791D0214DBC4
:101214008F508E4F8D4E8C4DAB55AA56A9579000CA
:101224000C1206759000101206BFAB50AA4FA94EBF
:10123400A84DAF54AE53AD52AC51120089AB55AA70
:1012440056A95790000C1206BFE92414F9E43AFA9F
:10125400C003C002C001120655AB55AA56A9579047
:10126400000C12070312008DD001D002D003120625
:10127400A5AB55AA56A957900014120675E4FBFABB
:1012840079FA78441203245010AB55AA56A9579002
:10129400001412073344FA0000AB55AA56A957901C
:1012A4000014120675E4FBFA79FA78C41203246078
:1012B400124010AB55AA56A957900014120733C414
:1012C400FA0000AB55AA56A957900014120675905F
:1012D400000412070312017EC004C005C006C00743
:1012E400AB55AA56A95790000C1206751206E312C4
:1012F400017ED003D002D001D00012008DC004C002
:1013040005C006C007AB55AA56A95790001012078E
:1013140003C000C001C002C003AB55AA56A9579030
:10132400000C120675D003D002D001D0001200893F
:10133400AB55AA56A95790000812070312017ED094
:1013440003D002D001D00012008DAB55AA56A95784
:1013540090001C1206BF90001812067590001C1213
:1013640007031203246010400EAB55AA56A95790E8
:1013740000181206758035AB55AA56A95790001867
:1013840012067512039DAB55AA56A95790001C125C
:101394000703120324501BAB55AA56A957900018F3
:1013A40012067512039DAB55AA56A95790001C123C
:0313B40006BF224F
:10008600020458E86480F8E933E83360110460F04C
:10009600ED33EC337009E8FCE9FDEAFEEBFF2204E0
:1000A60060DED3EB9FEA9EE99DE8C2E78CF0C2F7DB
:1000B60095F0400CE8CCF8E9CDF9EACEFAEBCFFBA7
:1000C60012042385D0F05804700320D5B3E80470D9
:1000D600075002B2D502046292D5EC0460F7E4CC74
:1000E600C0E0C398F8603B94186008400DD0E0FB70
:1000F60002043AE4FBFAC9FC8028E830E406E4C9C5
:10010600FBE4CAFCE830E305E4C9CACBFCE85407C3
:100116006010F8C3E913F9EA13FAEB13FBEC13FCCE
:10012600D8F130F52FC3E49CFCEF9BFFEE9AFEED71
:1001360099FDD0E0FBEF4E4D4C701222DB0302041A
:100146005FEC2CFCEF33FFEE33FEED33FDED30E7D5
:10015600EB02043AEF2BFFEE3AFEED39FDD0E0FB61
:1001660050130BBB0003020462ED13FDEE13FEEF0A
:0801760013FFEC13FC02043A34
:10017E00EC4D6011E8497017ED33EC3304600DE47B
:10018E00FCFFFEFD22E933E8330470F80204581236
:10019E00042358046009E4CC248150062850090237
:1001AE00046228400302045FC0E0EB4A7044B98049
:1001BE0006D0E0FB02044EEF4E701CBD8008EBFF34
:1001CE00EAFEE9FD80EBE98DF0A4FEE5F0020267A0
:1001DE00E9CDF9EAFEEBFFEF89F0A4FCE5F0CE895C
:1001EE00F0A42EFFE435F0CD89F0A42DFEE435F019
:1001FE008067EF4E7005BD80D780C3EF8BF0A4AC47
:10020E00F0EE8BF0A42CFCE435F0F8EF8AF0A42C81
:10021E00E5F038FCE433CB8DF0A42CFCE5F03BF894
:10022E00EE8AF0A42CFCE5F038F8E433CF89F0A484
:10023E002CFCE5F038CF3400CE89F0A42FFFE5F08A
:10024E003EFEE433C98DF0A42EFEE5F039CD8AF0E2
:10025E00A42FFFE5F03EFEE43DFD33D0E0FB50075A
:10026E000BBB000F020462EC2CFCEF33FFEE33FEEF
:06027E00ED33FD02043A1D
:10028400020462EC5D046005E8590470030204583A
:10029400120423580460F6EC4860F2EC7004FDFE8E
:1002A400FF22C860DB2481C85009C398600250064D
:1002B40002045F9850CAF582E9294B4A7005AB8263
:1002C40002044E75F0007C1A7880C3EF9BEE9AED21
:1002D40099400DC3EF9BFFEE9AFEED99FDE842F0C5
:1002E400DC23ACF0D0E0FFD0E0FED0E0FDAB822018
:1002F400E7101BEB60BAEC2CFCEF33FFEE33FEEDA2
:1003040033FD02043AE803F830E705C0F075F00065
:10031400EF2FFFEE33FEED33FD40B830E7C280AA85
:1003240074F8CC6480CCC86480C8F58204604FC380
:10033400EB9FF5F0EA9E42F0E99D42F0E89C45F01F
:10034400603C501DE5825FFFE582D313CB5BCBF4A9
:100354002B5582FB50280ABA002409B900200880D2
:100364001DE5825BFBE582D313CF5FCFF4C3132F6C
:100374005582FF50090EBE00050DBD00010CC3EBF4
:100384009FF5F0EA9E42F0E99D42F0E89C45F0605A
:0903940007CC4820E701B3EC227C
:10039D00ED33EC33600A047003BD8004ECB2E7FC6E
:0103AD00222D
:1003AE0075F020800E75F010800575F0087D007ECA
:1003BE00007F003392D530D503120623EC33401064
:1003CE00EF33FFEE33FEED33FDEC33FCD5F0ED22D3
:0E03DE00E5F0247EA2D513CC92E7CDCEFF220F
:1003EC00EDD2E7CD33EC3392D524814006E4FFFE09
:1003FC00FDFC22FCE4CFCECDCC24E0501174FF8068
:10040C00EDC3CC13CCCD13CDCE13CECF13CF047004
:07041C00F030D5DE020623DB
:10042300E9D2E7C933E833F892D5EDD2E7CD33EC1F
:0704330033FC5002B2D52298
:10043A00EC30E7100FBF000C0EBE00080DBD000423
:10044A000BEB6014A2D5EB13FCED92E7FD2274FFCF
:10045A00FCFDFEFF22E480F8A2D574FF13FC7D8028
:03046A00E480EF3C
:101653000215A3E493A3F8E493A34003F68001F2F5
:1016630008DFF48029E493A3F85407240CC8C33398
:10167300C4540F4420C8834004F456800146F6DF67
:10168300E4800B01020408102040809018F8E47EE7
:10169300019360BCA3FF543F30E509541FFEE4935C
:1016A300A360010ECF54C025E060A840B8E493A323
:1016B300FAE493A3F8E493A3C8C582C8CAC583CA4E
:1016C300F0A3C8C582C8CAC583CADFE9DEE780BE06
:01190C0000DA
:10046D00BB010689828A83E0225002E722BBFE028D
:09047D00E32289828A83E49322C0
:10048600BB010CE58229F582E5833AF583E022502B
:1004960006E92582F8E622BBFE06E92582F8E22275
:0D04A600E58229F582E5833AF583E493228F
:1004B300BB010689828A83F0225002F722BBFE0128
:0204C300F32222
:1004C500F8BB010DE58229F582E5833AF583E8F06D
:1004D500225006E92582C8F622BBFE05E92582C819
:0204E500F22201
:1004E700C2D5EC30E709B2D5E4C39DFDE49CFCEE30
:1004F70030E715B2D5E4C39FFFE49EFE120757C34A
:10050700E49DFDE49CFC800312075730D507C3E444
:060517009FFFE49EFE229E
:10051D00BB0110E58229F582E5833AF583E0F5F01C
:10052D00A3E0225009E92582F886F008E622BBFEF9
:10053D000AE92582F8E2F5F008E222E5832AF5833F
:08054D00E993F5F0A3E9932204
:1005550075F008758200EF2FFFEE33FECD33CDCC5D
:1005650033CCC58233C5829BED9AEC99E5829840E0
:100575000CF582EE9BFEED9AFDEC99FC0FD5F0D6BD
:10058500E4CEFBE4CDFAE4CCF9A88222B800C1B9E7
:100595000059BA002DEC8BF084CFCECDFCE5F0CB25
:1005A500F97818EF2FFFEE33FEED33FDEC33FCEB5E
:1005B50033FB10D703994004EB99FB0FD8E5E4F919
:1005C500FA227818EF2FFFEE33FEED33FDEC33FC06
:1005D500C933C910D7059BE99A4007EC9BFCE99AFA
:1005E500F90FD8E0E4C9FAE4CCFB2275F010EF2F3F
:1005F500FFEE33FEED33FDCC33CCC833C810D7073F
:100605009BEC9AE899400AED9BFDEC9AFCE899F879
:0E0615000FD5F0DAE4CDFBE4CCFAE4C8F9220C
:0E062300C3E49FFFE49EFEE49DFDE49CFC22E8
:10063100EB9FF5F0EA9E42F0E99D42F0E89C45F01F
:010641002296
:10064200E8600FECC313FCED13FDEE13FEEF13FF96
:03065200D8F122BA
:10065500BB010789828A830207B85005E9F80207BA
:10066500ACBBFE05E9F80207C489828A830207D07C
:10067500BB010DE58229F582E5833AF5830207B8CA
:100685005007E92582F80207ACBBFE07E92582F889
:100695000207C4E58229F582E5833AF5830207D08E
:1006A500BB010789828A830208225005E9F80208FE
:0A06B50016BBFE05E9F802082E222C
:1006BF00BB010DE58229F582E5833AF58302082215
:1006CF005007E92582F8020816BBFE07E92582F8D4
:0406DF0002082E22BD
:1006E300BB010789828A830207ED5005E9F80207F7
:1006F300E0BBFE05E9F80207F989828A830208064E
:10070300BB010DE58229F582E5833AF5830207ED06
:100713005007E92582F80207E0BBFE07E92582F8C6
:100723000207F9E58229F582E5833AF58302080693
:10073300BB010DE58229F582E5833AF5830208536F
:100743005007E92582F802083ABBFE07E92582F83B
:0407530002088422F2
:10075700BC000BBE0029EF8DF084FFADF022E4CC86
:10076700F875F008EF2FFFEE33FEEC33FCEE9DEC4F
:10077700984005FCEE9DFE0FD5F0E9E4CEFD22ED95
:10078700F8F5F0EE8420D21CFEADF075F008EF2FDF
:10079700FFED33FD4007985006D5F0F222C398FDD0
:0507A7000FD5F0EA226D
:0C07AC00E6FC08E6FD08E6FE08E6FF2279
:0C07B800E0FCA3E0FDA3E0FEA3E0FF22B4
:0C07C400E2FC08E2FD08E2FE08E2FF2271
:1007D000E493FC740193FD740293FE740393FF226F
:0D07E000E6FB08E6F908E6FA08E6CBF82289
:0C07ED00E0F8A3E0F9A3E0FAA3E0FB228F
:0D07F900E2FB08E2F908E2FA08E2CBF82280
:10080600E493F8740193F9740293FA740393FB2248
:0C081600ECF608EDF608EEF608EFF6220E
:0C082200ECF0A3EDF0A3EEF0A3EFF02249
:0C082E00ECF208EDF208EEF208EFF22206
:10083A00D083D082E493F608740193F60874029385
:09084A00F608740393F6740473BC
:10085300A8828583F0D083D08212086A12086A12B4
:10086300086A12086AE473E493A3C583C5F0C583D9
:10087300C8C582C8F0A3C583C5F0C583C8C582C8EF
:010883002252
:10088400D083D082E493F208740193F20874029343
:09089400F208740393F27404737A
:00000001FF
