:030000000230DDEE
:0C30DD00787FE4F6D8FD758120023124D4
:06386400496E69742100A9
:0812BC004504B400000000002D
:10353400122D4F7BFF7A3879647D037F0D12303B67
:103544007FF47E011237531234EC1237B012363145
:103554001236849004C3E0FAA3E0FB7D037F0D12CE
:0E35640027FB7F327E001237531234EC80E5D5
:10375300E4FDFCC3ED9FEC9E50100079207B28DB39
:0A376300FED9FC0DBD00010C80E949
:01376D002239
:10376E00E4FDFCC3ED9FEC9E500B7B06DBFE0DBD16
:05377E0000010C80EECB
:013783002223
:10227100EFD394057480948040037F01221205639B
:10228100FED394037480948040037F0222EF704454
:10229100EE700B90000112057CF4529352941205DA
:1022A100636401700B90000112057C4293F4529417
:1022B100120563FE6402700A90000112057C4293CC
:1022C1004294EE6403700D90000112057CFEF452FD
:1022D10093EE4294EF64017046120563FE700B9019
:1022E100000112057CF452915292EE6401700B9040
:1022F100000112057C4291F452921205636402704E
:102301000A90000112057C42914292120563640316
:10231100700D90000112057CFEF45291EE4292EF95
:1023210064027046120563FE700B90000112057C79
:10233100F452955296EE6401700B90000112057CE7
:102341004295F452961205636402700A90000112DC
:10235100057C429542961205636403700D9000015D
:1023610012057CFEF45295EE4296EF64037046121C
:102371000563FE700B90000112057CF452B152B25C
:10238100EE6401700B90000112057C42B1F452B26F
:102391001205636402700A90000112057C42B14289
:1023A100B21205636403700D90000112057CFEF406
:1023B10052B1EE42B2EF64047046120563FE700B37
:1023C10090000112057CF452B352B4EE6401700B1B
:1023D10090000112057C42B3F452B4120563640209
:1023E100700A90000112057C42B342B41205636485
:1023F10003700D90000112057CFEF452B3EE42B45D
:10240100EF64057049120563FF7E00700B900001B7
:1024110012057CF452C952CAEF64014E700B900050
:102421000112057C42C9F452CA1205636402700AA2
:1024310090000112057C42C942CA1205636403700F
:102441000D90000112057CFFF452C9EF42CA7F00D2
:012451002268
:10357200EFFD7C00701075BA9090FE8074E0F090C0
:10358200FE82E4F0801EED64014C701875BA8090E2
:10359200FE807481F090FE85745AF090FE84E4F00F
:0835A20090FE83F0E4F5BA226B
:1031F500D200D201E49004C7F0E02400F8E290FE8A
:1032050086F090FE84E030E605E054BFF02290FEA3
:1032150084E030E52DE054DFF0300003C2002230B9
:10322500010DC20190FE87E09004C7F0E0802F9069
:10323500FE87E0FF9004C7E0FE04F074002EF8EF6F
:10324500F22290FE84E030E41EE054EFF0E030E13D
:103255000790FE8674FFF0229004C7E004F0240076
:10326500F8E290FE86F02290FE84E030E308E05418
:07327500F7F0D200D20122A4
:0C00460090FE82E030E6F9E054BFF022AA
:0938380090FE817401F0020046CB
:1037EA0090FE86EFF090FE817402F01200460238D5
:0137FA00418D
:0938410090FE817403F0020046C0
:0F380C0090FE817404F012004690FE87E0FF22C8
:0E382A0090FE82E4F090FE817405F0020046EC
:0F381B0090FE827401F090FE817405F002004669
:09384A0090FE817406F0020046B4
:1037C400E4FFFE000000000FBF00010EBE0BF4BFBB
:0237D400B8F14A
:0137D60022D0
:1037FB00E59A30E103539AFDE59A30E003539AFEC4
:01380B00229A
:0300230002327C2A
:10327C00C0E0C083C082C0D075D000C006C007308B
:10328C009831C2989003B6E070299003B4E0C394CF
:10329C000B748094804002E4F09003B4E0FF04F0DF
:1032AC0074BE2FF582E43403F583E599F09003B5F1
:1032BC007405F0309934C2999003B2E0FF9003B1D9
:1032CC00E0FE6F602074D42EF582E43403F583E0C5
:1032DC00F5999003B1E004F0C3940B748094804092
:1032EC0009E4F080059003B3E4F0D007D006D0D009
:0732FC00D082D083D0E03244
:0300430002330382
:10330300C0E0C083C082C0D075D000C006C0071221
:1033130037FB9003BDE070299003BBE0C3940B74AB
:103323008094804002E4F09003BBE0FF04F074C992
:103333002FF582E43403F583E59BF09003BC740519
:10334300F01237FB9003B9E0FF9003B8E0FE6F6023
:103353002074DF2EF582E43403F583E0F59B9003BC
:10336300B8E004F0C3940B748094804009E4F080C7
:10337300059003BAE4F0D007D006D0D0D082D08332
:03338300D0E03265
:100E9C00900496EBF0A3EAF0A3E9F0900495EFF040
:100EAC00D2AF640160030211139003B004F0E4A309
:100EBC00F0A3F0A3F0A3F0A3F0A3F0900499F090AA
:100ECC000499E0FFC3940B74809480501474D42F55
:100EDC00F582E43403F583E4F0900499E004F080A7
:100EEC00DEE4900499F0900499E0FFC3940B7480B5
:100EFC009480501474BE2FF582E43403F583E4F02F
:100F0C00900499E004F080DE900496E0FBA3E0FAF4
:100F1C00A3E0F9120563FD7C00D394C07480948027
:100F2C0040037F022290000A12057C64017004D2F7
:100F3C00BC8002C2BC120563FFE598543F4FF59884
:100F4C00ED64C04C6008EF6440600302103E9000FA
:100F5C00021208767F807E8D7D5B7C0012070490E8
:100F6C00049A1208A6E4FFFE7D01FC90049AE0F8B6
:100F7C00A3E0F9A3E0FAA3E0FBC31207A440037FAC
:100F8C00022290049AE0F8A3E0F9A3E0FAA3E0FBB4
:100F9C00C3E49BFFE49AFE740199FDE498FC900471
:100FAC009A1208A6900496E0FBA3E0FAA3E0F9904D
:100FBC00000112057CFB7A0064017038C28E538EDE
:100FCC00FE5389BF5389CF438E4090049AE0FCA313
:100FDC00E0FDA3E0FEA3E0FF78081207B58F8D902B
:100FEC00049AA3A3A3E0F58BC2AB5389BF538FFD27
:100FFC00D28E807DEB64024A7035538EEF438E01A6
:10100C00538EF7438E0490049AE0FCA3E0FDA3E01A
:10101C00FEA3E0FF78081207B58FD690049AA3A31D
:10102C00A3E0F5D753AFFB538EF7438E1080427F6E
:10103C000222900496E0FBA3E0FAA3E0F912056308
:10104C00FF7E00701490000812057C64017005434B
:10105C008E20801D538EDF8018EF64804E701290AE
:10106C00000812057C640170054387808003538758
:10107C007F900496E0FBA3E0FAA3E0F9900009123C
:10108C00057C64017004D2AC8002C2AC90000712E3
:10109C00057C64017004D29C8002C29C90000B12EF
:0410AC00057C700A45
:0810B00090049E7403F0A314E8
:1010B800802F900496E0FBA3E0FAA3E0F990000BE0
:0A10C80012057C648090049E7011F4
:0F10D2007403F0A37480F07B017A04799E7F0190
:0210E100800F7E
:1010E3007403F0A37480F07B017A04799E7F03126A
:0210F300227168
:1010F500900496E0FBA3E0FAA3E0F990000B12053B
:101105007C54C0FFE5A2543F4FF5A27F0022900416
:1011150095E0640260030212B99003B77402F0E42B
:10112500A3F0A3F0A3F0A3F0A3F0A3F0900499F02B
:10113500900499E0FFC3940B74809480501474DF7D
:101145002FF582E43403F583E4F0900499E004F08C
:1011550080DEE4900499F0900499E0FFC3940B7449
:10116500809480501474C92FF582E43403F583E428
:10117500F0900499E004F080DE900496E0FBA3E093
:10118500FAA3E0F9120563FF64C06008EF644060EC
:101195000302123F90000A12057C6401700543B5F5
:1011A50001800353B5FE12056364C07005439A8040
:1011B5008003539A7F9000021208767F807E8D7D92
:1011C5005B7C0012070490049A1208A6E4FFFE7DDA
:1011D50001FC90049AE0F8A3E0F9A3E0FAA3E0FB90
:1011E500C31207A440037F022290049AE0F8A3E00B
:1011F500F9A3E0FAA3E0FBC3E49BFFE49AFE7401C4
:1012050099FDE498FC90049A1208A6538EEF538E2C
:10121500F7438E0490049AE0FCA3E0FDA3E0FEA34F
:10122500E0FF78081207B58FD690049AA3A3A3E030
:10123500F5D753AFFB438E1080037F0222900496AF
:10124500E0FBA3E0FAA3E0F990000912057C640134
:10125500700543AF01800353AFFE90000712057C74
:1012650064017005439A108003539AEF90000B12A6
:07127500057C90049E70103F
:0E127C007403F0A314F07B017A04799E7F01C5
:02128A00800FD3
:10128C007403F0A37480F07B017A04799E7F0412BE
:02129C002271BD
:10129E00900496E0FBA3E0FAA3E0F990000B120590
:0D12AE007C5401FFE5BA54FE4FF5BA7F00F5
:0112BB002210
:10365D009004C8EFF09003B3E0701304F09004C829
:10366D00E0F5993099FDC299E49003B3F0227F05FE
:07367D007E0012376E80DEB3
:1035D9009003B9E024DFF582E43403F583EFF0903A
:1035E90003B9E004F0C3940B748094804002E4F0C2
:0C35F9009003BAE0700504F01237FB22CA
:103605009004BDEBF0A3EAF0A3E9F09004BDE0FB64
:10361500A3E0FAA3E0F9120563FF600F12365D908F
:0C36250004BEE475F00112067A80E02279
:1037D700120563FF600C1235D9740129F9E43AFA2E
:0337E70080EE224F
:07385C003098FDC298AF99FE
:013863002242
:05386A001237FBAF9BCB
:01386F002236
:10245200900461EBF0A3EAF0A3E9F090045FEEF0E0
:03246200A3EFF0F5
:10246500E4900464F0A3F0C3EE64809480501EE40D
:10247500900468F0A3F090045FE0FEA3E0FFC3E4DE
:102485009FFFE49E90045FF0A3EFF080089004683E
:10249500E4F0A304F090045FE0FEA3E0FF7C007D80
:1024A5000A120644EF4E604B90045FE0FAA3E0FB8E
:1024B5007C007D0AFFAE02120644ED2430FF900435
:1024C50064E0FCA3E0246AF58274043CF583EFF034
:1024D5007C007D0AAF03AE0212064490045FEEF065
:1024E500A3EFF0900465E004F070AA900464E004A2
:1024F500F080A290045FA3E02430FF900464E0FC28
:10250500A3E0246AF58274043CF583EFF090046837
:10251500E07002A3E060030225AB900461E0FBA339
:10252500E0FAA3E0F9742D1205A9900464E0FFA375
:10253500E0A3CFF0A3EFF0900466E0FEA3E0FFD3A5
:1025450094FFEE6480947F404A746A2FF582740488
:102555003EF583E0FF900466E0FCA3E0FDC3900434
:1025650065E09DFD900464E09CCD2401CD3400FC24
:10257500900461E0FBA3E0FAA3E0F98D828C83EF80
:102585001205BB900467E024FFF0900466E034FF79
:10259500F080A4900461E0FBA3E0FAA3E0F99004C5
:1025A50065E024028074900464E0FFA3E0A3CFF00B
:1025B500A3EFF0900466E0FEA3E0FFD394FFEE6482
:1025C50080947F4044746A2FF58274043EF583E05D
:1025D500FF900466E0FCA3E0FDC3900465E09DFD6B
:1025E500900464E09CFC900461E0FBA3E0FAA3E0A6
:1025F500F98D828C83EF1205BB900467E024FFF010
:10260500900466E034FFF080AA900461E0FBA3E04B
:10261500FAA3E0F9900465E02401FF900464E03436
:09262500008F82F583E41205BB6D
:01262E002289
:101B94009004861208A690048AEBF0A3EAF0A3E965
:011BA400F050
:101BA500E4FFFEFDFC900486E0F8A3E0F9A3E0FA6B
:101BB500A3E0FB12032490048AE0FBA3E0FAA3E070
:101BC500F94007742B1205A9801C742D1205A990E4
:101BD5000486E0FCA3E0FDA3E0FEA3E0FF12039D65
:101BE5009004861208A6900486E0FCA3E0FDA3E01D
:101BF500FEA3E0FF1203EC90048FEEF0A3EFF0E4F8
:101C0500A3F0A3F090048FE0FEA3E0FF4E601F7CDD
:101C1500007D0A12064490048FEEF0A3EFF09004C5
:101C250092E004F070DE900491E004F080D6900418
:101C350086E0FCA3E0FDA3E0FEA3E0FF1203EC9029
:101C4500048FEEF0A3EFF0A3E0FFA3E0A3CFF0A392
:101C5500EFF0D3900494E09400900493E0648094B2
:101C650080405490048FE0FEA3E0FF7C007D0A12C3
:101C75000644ED2430FF90048AE0FBA3E0FAA3E0DC
:101C8500F9900493E0FCA3E0F5828C83EF1205BB89
:101C950090048FE0FEA3E0FF7C007D0A12064490CD
:101CA500048FEEF0A3EFF0900494E024FFF090048D
:101CB50093E034FFF0809B90048AE0FBA3E0FAA355
:101CC500E0F9900492E02401FF900491E034008F44
:101CD50082F583742E1205BB900486E0FCA3E0FD1B
:101CE500A3E0FEA3E0FFC004C005C006C007900442
:101CF50086A3A3A3E01203ECAD07AC06EC1203B375
:101D0500A804A905AA06AB07D007D006D005D004BC
:101D15001200899004861208A6900492E02402F02D
:101D2500900491E03400F090048EE024FFFF9004CD
:101D35008DE034FFFEC3900492E09FEE6480F8903E
:101D45000491E06480984003021DEF900486E0FC56
:101D5500A3E0FDA3E0FEA3E0FFE4FBFA79207841D0
:101D650012017E9004861208A6900486E0FCA3E08A
:101D7500FDA3E0FEA3E0FF1203ECEF2430FF900487
:101D85008AE0FBA3E0FAA3E0F9900491E0FCA3E06C
:101D9500F5828C83EF1205BB900486E0FCA3E0FD81
:101DA500A3E0FEA3E0FFC004C005C006C007900481
:101DB50086A3A3A3E01203ECAD07AC06EC1203B3B4
:101DC500A804A905AA06AB07D007D006D005D004FC
:101DD5001200899004861208A6900492E004F0701F
:101DE50006900491E004F0021D2C90048AE0FBA308
:101DF500E0FAA3E0F990048EE024FFFF90048DE063
:0A1E050034FF8F82F583E40205BB71
:0512C4004204C300001C
:0300030002000AEE
:01000A0032C3
:0300130002000EDA
:01000E0032BF
:0300530002000F99
:01000F0032BE
:03005B0002001090
:0100100032BD
:0300830002001167
:0100110032BC
:03003B000235AAE1
:1035AA00C0E0C083C08230D802C2D830D910C2D994
:1035BA009004C4E004F070069004C3E004F030DA2A
:0F35CA0002C2DA30DB02C2DBD082D083D0E03223
:10297700EFD394107480948040037F0122D2AFEF8D
:10298700703090000212057C64017004D2A88002A6
:10299700C2A890000112057C64017004D2B88002BD
:1029A700C2B812056364017004D2888002C2887FAE
:1029B7000022EF6402703090000212057C640170FF
:1029C70004D2AA8002C2AA90000112057C64017099
:1029D70004D2BA8002C2BA12056364017004D28AB3
:1029E7008002C28A7F0022EF640A701590000212EB
:1029F700057C64017005438F108003538FEF7F00C0
:102A070022EF640B701590000212057C64017005BB
:102A1700438F208003538FDF7F0022EF64107015F0
:102A270090000212057C64017005438F40800353B8
:102A37008FBF7F0022EF6407701FF5D875D90DF59A
:102A4700E9F5F91205636401700575DA11800375FC
:102A5700DA21E4F5EAF5FA806AEF6407701FF5D822
:102A670075D90DF5E9F5F91205636401700575DB94
:102A770011800375DB21E4F5EBF5FB8046EF640776
:102A8700701FF5D875D90DF5E9F5F91205636401DD
:102A9700700575DC11800375DC21E4F5ECF5FC802D
:102AA70022EF64077021F5D875D90DF5E9F5F9120C
:102AB70005636401700575DD11800375DA21E4F59E
:0A2AC700EDF5FDD2DEFF227F0222B2
:0A12C9004204B900004204BB00001B
:03000B00022F942D
:102F9400C0E0C0F0C083C082C0D075D000C000C003
:102FA40001C002C003C004C005C006C0079004BA33
:102FB400E004F070069004B9E004F09004B9E07005
:102FC40004A3E0643270559004C3E0FCA3E0FDEC7C
:102FD4001203B39003A51208A69003A91208B242E3
:102FE4004800009003AD7401F0A37403F0A37428A7
:102FF400F07F011209BB900348E0FCA3E0FDA3E0CD
:10300400FEA3E0FF9004751208A67B017A0479748C
:10301400E4FF122C189004B9E4F0A3F0D007D00612
:10302400D005D004D003D002D001D000D0D0D082BB
:07303400D083D0F0D0E032A0
:03001B00022EDAD8
:102EDA00C0E0C0F0C083C082C0D075D000C000C0BE
:102EEA0001C002C003C004C005C006C0079004BCEC
:102EFA00E004F070069004BBE004F09004BBE070BC
:102F0A0004A3E06432706812204B900431E0FCA301
:102F1A00E0FDA3E0FEA3E0FF12039D9003A51208C3
:102F2A00A69003A91208B2000000009003AD740134
:102F3A00F0A37403F0A3744CF07F021209BB7F0064
:102F4A007E807D137C4390036CE0F8A3E0F9A3E054
:102F5A00FAA3E0FB12008D90047E1208A67B017A88
:102F6A0004797D7F011215BF9004BBE4F0A3F0D071
:102F7A0007D006D005D004D003D002D001D000D0AB
:0A2F8A00D0D082D083D0F0D0E03226
:0300630002001286
:0100120032BB
:10262F00AD07EDD394027480948040037F0122D2D2
:10263F00AFED60030226D7C28C90000212057C64B6
:10264F00017004D2A98002C2A990000112057C6416
:10265F00017004D2B98002C2B9120563FED394038C
:10266F007480948040037F0222E58954FC4EF589E3
:10267F0090000312057CFF7E0064017003538E7F70
:10268F00EF4E7003438E80EF64024E700543890452
:10269F0080035389FB90000412057C64017005438D
:1026AF008F018003538FFE900005120690E5F0F521
:1026BF008C900005120690F58A90000712057C6435
:1026CF00017002D28C7F0022ED640160030227703B
:1026DF00C28E90000212057C64017004D2AB80029E
:1026EF00C2AB90000112057C64017004D2BB800262
:1026FF00C2BB120563FEC394037480948040037FB2
:10270F000222E58954CF4EF58990000312057CFF14
:10271F007E0064017003538EBFEF4E7003438E40F3
:10272F00EF64024E700543894080035389BF9000C8
:10273F000412057C64017005438F028003538FFDE3
:10274F00900005120690E5F0F58D900005120690A9
:10275F00F58B90000712057C64017002D28E7F000A
:10276F0022ED640260030227F8538EEF90000212ED
:10277F00057C6401700543AF04800353AFFB9000E9
:10278F000312057CFD7C00D3940274809480400377
:10279F007F0222ED64014C7003538EFB90000312F5
:1027AF00057C7003438E0490000312057C64027055
:1027BF0005438E088003538EF790000412057C6446
:1027CF00017005438F048003538FFB9000051206A1
:1027DF0090FDACF0ECF5D68DD790000712057C6418
:0C27EF00017003438E107F00227F022245
:1036CF00120563900373F090000112057C90037450
:1036DF00F090000212057C900375F07B017A03795C
:0436EF0073022977C2
:1037B000E4900370F0A304F0A3F0FB7A0379707F28
:0437C000070236CFF7
:1012D30060240328402000003F4CCCCD00000000D8
:1012E3000000000000000000000000004475000042
:1012F30000000000000000006024034C3FC0000019
:1013030000000000000000000000000000000000DA
:101313000000000042E10000C2E100000000000004
:1009BB009003A4EFF06003020B869003ADE0FBA362
:1009CB00E0FAA3E0F990000C1207E890001012086F
:1009DB00329003A5E0F8A3E0F9A3E0FAA3E0FBA3B0
:1009EB00E0FCA3E0FDA3E0FEA3E0FF12008990036F
:1009FB00ADE0FBA3E0FAA3E0F990000C120832E99A
:100A0B002414F9E43AFAC003C002C0011207C890DB
:100A1B0003ADE0FBA3E0FAA3E0F990000C1208761B
:100A2B0012008DD001D002D0031208189003ADE054
:100A3B00FBA3E0FAA3E0F99000141207E8E4FBFA39
:100A4B0079A0784012032450159003ADE0FBA3E08E
:100A5B00FAA3E0F99000141208E340A00000900301
:100A6B00ADE0FBA3E0FAA3E0F99000141207E8E471
:100A7B00FBFA79A078C0120324601740159003ADE0
:100A8B00E0FBA3E0FAA3E0F99000141208E3C0A086
:100A9B0000009003ADE0FBA3E0FAA3E0F990001493
:100AAB001207E890000412087612017EC004C005FC
:100ABB00C006C0079003ADE0FBA3E0FAA3E0F990FA
:100ACB00000C1207E812085612017ED003D002D098
:100ADB0001D00012008DC004C005C006C0079003F2
:100AEB00ADE0FBA3E0FAA3E0F9900010120876C08A
:100AFB0000C001C002C0039003ADE0FBA3E0FAA36A
:100B0B00E0F990000C1207E8D003D002D001D0001E
:100B1B001200899003ADE0FBA3E0FAA3E0F990008B
:100B2B000812087612017ED003D002D001D0001239
:100B3B00008D9003ADE0FBA3E0FAA3E0F990002059
:100B4B001208329000181207E89000201208761253
:100B5B00032460054003020E589003ADE0FBA3E0B5
:100B6B00FAA3E0F990001C1207E890002012087617
:100B7B001203244003020E9B020E849003A4E06434
:100B8B00016003020CC89003ADE0FBA3E0FAA3E005
:100B9B00F990000C1207E89000101208329003A590
:100BAB00E0F8A3E0F9A3E0FAA3E0FBA3E0FCA3E0E9
:100BBB00FDA3E0FEA3E0FF1200899003ADE0FBA3D1
:100BCB00E0FAA3E0F990000C120832E92420F9E4D2
:100BDB003AFAC003C002C0011207C8C004C005C066
:100BEB0006C0079003ADE0FBA3E0FAA3E0F9900089
:100BFB0010120876C000C001C002C0039003ADE024
:100C0B00FBA3E0FAA3E0F990000C1207E8D003D0A5
:100C1B0002D001D0001200899003ADE0FBA3E0FAF3
:100C2B00A3E0F912085612017EC004C005C006C02D
:100C3B00079003ADE0FBA3E0FAA3E0F990000C12E0
:100C4B0007E890000412087612017EA804A905AAF1
:100C5B0006AB07D007D006D005D00412008DA80430
:100C6B00A905AA06AB07D007D006D005D004120001
:100C7B008DD001D002D0031208189003ADE0FBA376
:100C8B00E0FAA3E0F99000181207E8900020120890
:100C9B007612032460054003020E589003ADE0FB6F
:100CAB00A3E0FAA3E0F990001C1207E890002012D1
:100CBB0008761203244003020E9B020E849003A4B9
:100CCB00E064026003020E9B9003ADE0FBA3E0FA2D
:100CDB00A3E0F990000C1207E89000101208329074
:100CEB0003A5E0FCA3E0FDA3E0FEA3E0FFA3E0F877
:100CFB00A3E0F9A3E0FAA3E0FB12008D9003ADE0B3
:100D0B00FBA3E0FAA3E0F990000C120832E92414DB
:100D1B00F9E43AFAC003C002C0011207C89003A558
:100D2B00E0F8A3E0F9A3E0FAA3E0FB12008DD001F9
:100D3B00D002D0031208189003ADE0FBA3E0FAA396
:100D4B00E0F99000141207E8E4FBFA79A07840125E
:100D5B00032450159003ADE0FBA3E0FAA3E0F99058
:100D6B0000141208E340A000009003ADE0FBA3E0E9
:100D7B00FAA3E0F99000141207E8E4FBFA79A078E3
:100D8B00C0120324601740159003ADE0FBA3E0FAFB
:100D9B00A3E0F99000141208E3C0A000009003AD8B
:100DAB00E0FBA3E0FAA3E0F99000141207E890002F
:100DBB000412087612017EC004C005C006C007905D
:100DCB0003ADE0FBA3E0FAA3E0F990000C1207E8F7
:100DDB0012085612017ED003D002D001D0001200AF
:100DEB008DC004C005C006C0079003ADE0FBA3E0B7
:100DFB00FAA3E0F9900008120876C000C001C00207
:100E0B00C00390043DE0FCA3E0FDA3E0FEA3E0FFE4
:100E1B0012039DD003D002D001D00012017ED0036B
:100E2B00D002D001D00012008D9003ADE0FBA3E007
:100E3B00FAA3E0F99000201208329000181207E88C
:100E4B00900020120876120324601240109003AD1C
:100E5B00E0FBA3E0FAA3E0F9900018802A9003AD21
:100E6B00E0FBA3E0FAA3E0F990001C1207E8900066
:100E7B002012087612032450179003ADE0FBA3E079
:100E8B00FAA3E0F990001C1207E890002012083238
:010E9B002234
:10368400E4900370F0A304F0A3F0E4A3F0A304F027
:10369400A374A2F0A37440F0A37401F0FB7A03793D
:0636A40070E4FF02262F76
:1013230049047400000000004643500049047D0056
:081333004313800042C80000D2
:0E15BF009003A4EFF0A3EBF0A3EAF0A3E9F091
:1015CD00A31208B2000000009003AC1208B2000094
:1015DD0000009003A5E0FBA3E0FAA3E0F99000055D
:1015ED001208767F007E1B7DB77C4912028790031F
:1015FD00A81208A69003A5E0FBA3E0FAA3E0F990DA
:10160D000001120876E4FFFE7D7A7C44120089E425
:10161D00FBFA797A78441202879003AC1208A6750A
:10162D00BA8090FFF2740FF09003A8E0FCA3E0FDE8
:10163D00A3E0FEA3E0FF1203EC90FFF0EEF0A3EFAA
:10164D00F09003A4E0B4080040030218B5901661B1
:10165D00F82828730216790216C1021709021751CC
:10166D000217990217E102182902187090FF00E481
:10167D00F0A3F09003ACE0FCA3E0FDA3E0FEA3E03B
:10168D00FF9003A8E0F8A3E0F9A3E0FAA3E0FB12B2
:10169D00017E1203EC90FF02EEF0A3EFF09003A594
:1016AD00E0FBA3E0FAA3E0F9120563448090FF0488
:1016BD00F00218B590FF10E4F0A3F09003ACE0FC3D
:1016CD00A3E0FDA3E0FEA3E0FF9003A8E0F8A3E0F4
:1016DD00F9A3E0FAA3E0FB12017E1203EC90FF12D6
:1016ED00EEF0A3EFF09003A5E0FBA3E0FAA3E0F981
:1016FD00120563448090FF14F00218B590FF20E4AA
:10170D00F0A3F09003ACE0FCA3E0FDA3E0FEA3E0AA
:10171D00FF9003A8E0F8A3E0F9A3E0FAA3E0FB1221
:10172D00017E1203EC90FF22EEF0A3EFF09003A5E3
:10173D00E0FBA3E0FAA3E0F9120563448090FF24D7
:10174D00F00218B590FF30E4F0A3F09003ACE0FC8C
:10175D00A3E0FDA3E0FEA3E0FF9003A8E0F8A3E063
:10176D00F9A3E0FAA3E0FB12017E1203EC90FF3225
:10177D00EEF0A3EFF09003A5E0FBA3E0FAA3E0F9F0
:10178D00120563448090FF34F00218B590FF40E4D9
:10179D00F0A3F09003ACE0FCA3E0FDA3E0FEA3E01A
:1017AD00FF9003A8E0F8A3E0F9A3E0FAA3E0FB1291
:1017BD00017E1203EC90FF42EEF0A3EFF09003A533
:1017CD00E0FBA3E0FAA3E0F9120563448090FF4427
:1017DD00F00218B590FF50E4F0A3F09003ACE0FCDC
:1017ED00A3E0FDA3E0FEA3E0FF9003A8E0F8A3E0D3
:1017FD00F9A3E0FAA3E0FB12017E1203EC90FF5275
:10180D00EEF0A3EFF09003A5E0FBA3E0FAA3E0F95F
:10181D00120563448090FF54F00218B590FF60E408
:10182D00F0A3F09003ACE0FCA3E0FDA3E0FEA3E089
:10183D00FF9003A8E0F8A3E0F9A3E0FAA3E0FB1200
:10184D00017E1203EC90FF62EEF0A3EFF09003A582
:10185D00E0FBA3E0FAA3E0F9120563448090FF6476
:10186D00F0804590FF70E4F0A3F09003ACE0FCA392
:10187D00E0FDA3E0FEA3E0FF9003A8E0F8A3E0F9EC
:10188D00A3E0FAA3E0FB12017E1203EC90FF72EECF
:10189D00F0A3EFF09003A5E0FBA3E0FAA3E0F912AB
:0E18AD000563448090FF74F0E4F5BA75FE8088
:0118BB00220A
:0E2C1800900398EFF0A3EBF0A3EAF0A3E9F02D
:102C2600E4A3F0A3F0A3F0A3F0A31208B2000000FF
:102C360000900399E0FBA3E0FAA3E0F990000512E7
:102C460007E8E4FBFA7980784312017EA804A90517
:102C5600AA06AB077F007E1B7DB77C4B120287124C
:102C660003ECC374FF9F90039DF0E49E90039CF0D9
:102C7600900399E0FBA3E0FAA3E0F99000011208A3
:102C860076E4FFFE7D7A7C44120089E4FBFA797AC9
:102C960078441202879003A01208A6E4FFFE7D7F07
:102CA6007C439003A0E0F8A3E0F9A3E0FAA3E0FBDD
:102CB60012017E1203EC90039EEEF0A3EFF0E4F512
:102CC600D875D90DF5E9F5F9900399E0FBA3E0FA7B
:102CD600A3E0F912056324F8600D24F8600E2410B1
:102CE600700DE4F5A2800875A210800375A22090ED
:102CF6000398E014601C14602B14603A2403704699
:102D060075DA42E4F5F290039EA3E0FFF5EA8FFA46
:102D1600803475DB42E4F5F390039EA3E0FFF5EB08
:102D26008FFB802275DC42E4F5F490039EA3E0FF5E
:102D3600F5EC8FFC801075DD42E4F5F590039EA35B
:082D4600E0FFF5ED8FFDD2DE88
:012D4E002262
:10133B005804310000000000000000000000000015
:0B134B00000000000000000000000097
:10204B00E49003A4F0FFFEA3F075BA901238387F2A
:10205B00A01237EA7F3D1237EA1238387FA11237C8
:10206B00EA12380C9003A4EFF012382A12380C90B5
:10207B0003A5EFF012381B12384A9003A5E0FE902F
:10208B0003A4E0FDEDFFAC06EC1203B3E4FBFAF99D
:10209B007847120287E4FBFA7934784312017E9079
:1020AB0004311208A61238387FA01237EA7F3E128D
:1020BB0037EA1238387FA11237EA12380C9003A492
:1020CB00EFF012382A12380C9003A5EFF012381BE0
:1020DB0012384A9003A5E0FE9003A4E0FDEDFFAC9F
:1020EB0006EC1203B3E4FBFAF97847120287E4FB20
:1020FB00FA7934784312017E9004351208A612380F
:10210B00387FA01237EA7F3F1237EA1238387FA1A7
:10211B001237EA12380C9003A4EFF012382A123857
:10212B000C9003A5EFF012381B12384A9003A5E070
:10213B00FE9003A4E0FDEDFFAC06EC1203B3E4FB51
:10214B00FAF97847120287E4FBFA793478431201E3
:10215B007E9004391208A61238387FA01237EA7F16
:10216B00371237EA1238387FA11237EA12380C903F
:10217B0003A4EFF012382A12380C9003A5EFF012DB
:10218B00381B12384A9003A5E0FE9003A4E0FDED46
:10219B00FFAC06EC1203B3E4FBFAF97847120287A3
:1021AB00E4FBFA79FA784412017E90043D1208A6FA
:1021BB001238387FA01237EA7F381237EA123838D4
:1021CB007FA11237EA12380C9003A4EFF012382AD1
:1021DB0012380C9003A5EFF012381B12384A9003FB
:1021EB00A5E0FE9003A4E0FDEDFFAC06EC1203B3FB
:1021FB00E4FBFAF97847120287E4FBFA79FA7844A0
:10220B0012017E9004411208A61238387FA01237B3
:10221B00EA7F391237EA1238387FA11237EA1238BF
:10222B000C9003A4EFF012382A12380C9003A5EF90
:10223B00F012381B12384A9003A5E0FE9003A4E07D
:10224B00FDEDFFAC06EC1203B3E4FBFAF978471291
:10225B000287E4FBFA79FA784412017E9004451266
:05226B0008A6E4F5BA2D
:01227000224B
:10363100E4900370F0A304F0A3F0E4A3F0A304F07A
:10364100A374A2F0A37440F0A37401F0E4FF123557
:0C365100727B017A0379707F0102262F42
:03002B00020006CA
:0400060053BCDF32D6
:1033E900D2AFE4F592120563429190000112057C77
:1033F900FFE5BC549F4FF5BC90000212057C6401A7
:10340900700543BC80800353BC7F90000312057C88
:103419006401700543DE20800353DEDF900005124E
:10342900057C64017004D2AD8002C2AD9000041223
:0C343900057C64017003D2BD22C2BD22DC
:0D002E00EF6401700443BC802253BC7F22AC
:10316900EFD39407748094804002807BE4F5BDF529
:10317900BEE5BC54E044404FF5BC0000E4FDEDC39E
:1031890094FA74809480505FE5BC20E55753BCDF06
:10319900E5DE30E51FE5BD540FFF9004C5E4F0A35B
:1031A900EFF0E0FEACBEECFBEBFF9004C5EEF0A344
:1031B900EFF08027AFBDEF9004C5F0A3E4F0AFBEF8
:1031C9009004C5E0F0A3E04FF09004C5E0C4F854C2
:1031D900F0C868F0A3E0C4540F48F09004C5E0FEBD
:0B31E900A3E0FF220D80977E047F0012
:0131F40022B8
:10135600622801000000000000000000002F0000CD
:1013660000000700070000147F147F1400242A7F62
:101376002A120062640813230036495522500000E1
:101386000503000000001C224100000041221C0051
:101396000014083E08140008083E0808000000A0D3
:1013A60060000008080808080000606000000020CF
:1013B60010080402003E5149453E0000427F4000AD
:1013C600004261514946002141454B310018141233
:1013D6007F10002745454539003C4A494930000100
:1013E6007109050300364949493600064949291E4F
:1013F60000003636000000005636000000081422B1
:1014060041000014141414140000412214080002B0
:101416000151090600324959513E007C1211127CD5
:10142600007F49494936003E41414122007F414102
:10143600221C007F49494941007F09090901003EF4
:101446004149497A007F0808087F0000417F410032
:10145600002040413F01007F08142241007F4040A8
:101466004040007F020C027F007F0408107F003E90
:101476004141413E007F09090906003E4151215E76
:10148600007F091929460046494949310001017F73
:101496000101003F4040403F001F2040201F003F09
:1014A6004038403F006314081463000708700807BB
:1014B60000615149454300007F41410000552A55CE
:1014C6002A55000041417F00000402010204004049
:1014D600404040400000010204000020545454786B
:1014E600007F48444438003844444420003844448B
:1014F600487F00385454541800087E090102001829
:10150600A4A4A47C007F080404780000447D400065
:10151600004080847D00007F102844000000417F49
:101526004000007C04180478007C08040478003825
:101536004444443800FC242424180018242418FCAD
:10154600007C0804040800485454542000043F4416
:101556004020003C4040207C001C2040201C003CD9
:101566004030403C004428102844001CA0A0A07C29
:0C157600004464544C4414141414141465
:06385300D2A37F027E00FB
:0338590002376EC5
:10378400123853D2A6123855C2A6123855C2A37F96
:06379400027E000238591C
:10379A00C2A3123855C2A6123855123853D2A67F80
:0637AA00027E0002385906
:05338600900396EFF03A
:10338B00E4A3F0900397E0C39408748094805033C7
:10339B00900396E030E704D2A68002C2A67F017E9E
:1033AB0000123859D2A37F017E00123859C2A37F75
:1033BB00017E00123859900396E025E0F0A3E0045B
:1033CB00F080C0D2A67F017E00123859D2A37F01B4
:0E33DB007E00123859C2A37F017E00023859CD
:10006600900394EFF01237847F781233867F401224
:0D0076003386900394E0FF12338602379A20
:04371600EF24B0FFED
:10371A00900395EFF01237847F78123386E4FF1214
:0D372A003386900395E0FF12338602379A34
:1036AA00900394EFF0ED24B0FF12371A900394E0E0
:1036BA0054F0C4540F4410FF12371A900394E05484
:0536CA000FFF02371A9A
:05349E00900372EFF045
:1034A300E4A3F0900373E0FFC39408748094805006
:1034B300371237167F0112371A7F1012371AE4902A
:1034C3000374F0900374E0C3948474809480501068
:1034D300900372E0FF120066900374E004F080E34F
:0834E300900373E004F080BBCC
:0134EB0022BE
:1034EC00E4900370F0900370E0FFC3940874809430
:1034FC008050341237167F0112371A7F1012371A88
:10350C00E4900371F0900371E0C394847480948010
:10351C00500DE4FF120066900371E004F080E69019
:07352C000370E004F080BE13
:013533002275
:102D4F00E4900370F0A37408F07B017A0379707F2D
:102D5F00021222717B017A0379707F031222717B39
:102D6F00017A0379707F04122271D2A3C2A77FF474
:102D7F007E01123753D2A77FAE12371AE4FF1237F4
:102D8F001A7F1012371A7F4012371A7F8112371AA3
:102D9F007FCF12371A7FA112371A7FC812371A7FC7
:102DAF00A612371A7FA812371A7F3F12371A7FD30E
:102DBF0012371AE4FF12371A7FD512371A7F801293
:102DCF00371A7FD912371A7FF112371A7FDA123773
:102DDF001A7F1212371A7FDB12371A7F4012371AF7
:102DEF007F2012371A7F0212371A7F8D12371A7F00
:102DFF001412371A7FA412371A7FA612371A7FAF11
:0E2E0F0012371AE4FF12349EE4FDFF0236AAC9
:0A3445009004C1EDF09004C0EFF018
:10344F00A3E0FE131313541FFD1236AA9004C1E01C
:10345F00FF5407FEF87401088002C333D8FC9004B0
:10346F00C2F0EF131313541F24B0FF12371A900436
:10347F00C0E054F0C4540F4410FF12371A9004C028
:0F348F00E0540FFF12371A9004C2E0FF020066EC
:10303B0090038CEFF0A3EDF0A3EBF0A3EAF0A3E980
:01304B00F094
:10304C00E4A3F0A3F0A3F090038EE0FBA3E0FAA3BB
:10305C00E0F9900393E0F58275830012057C6070B3
:10306C0024E0900391F090038CE0D3947E748094D0
:10307C00804006E4F0A3E004F090038CE0FFA3E0B2
:10308C00FD1236AAE4900392F0900392E0FFC394F1
:10309C0006748094805029900391E075F006A42466
:1030AC0000F582E5F03401F583E5822FF582E435F5
:1030BC0083F583E0FF120066900392E004F080C970
:1030CC0090038CE02406F0900393E004F00230535C
:0130DC0022D1
:082E1D009004A0EFF0A3EDF01A
:102E2500E49004A7F0FC7D0AAF03AE021205EFEDB6
:102E350024309004A6F07C007D0AAF03AE02120593
:102E4500EF7C007D0A1205EFED24309004A5F07C9F
:102E5500007D64AF03AE021205EF7C007D0A12050A
:102E6500EFED24309004A4F07C037DE8AF03AE02BF
:102E75001205EF7C007D0A1205EFED24309004A3C6
:102E8500F0AE02AF037C277D101205EF7C007D0AB2
:102E95001205EFED24309004A2F0E4FFEFC3940493
:102EA50074809480501E74A22FF582E43404F58357
:102EB500E0B4301074A22FF582E43404F583742055
:102EC500F00F80D89004A0E0FFA3E0FD7B017A0419
:052ED50079A202303B70
:0F27FB00900370EFF0A3EDF0A3EAF0FEA3EBF074
:10280A00E4FBFAC3EE64809480501EE4900376F0F1
:10281A00A3F0900372E0FEA3E0FFC3E49FFFE49EEF
:10282A00900372F0A3EFF08008900376E4F0A3041B
:10283A00F0900372E0FEA3E0FF7C007D0A120644DA
:10284A00EF4E603D900372E0FEA3E0FF7C007D0A3C
:10285A00120644ED2430FF74782BF58274033AF59E
:10286A0083EFF0900372E0FEA3E0FF7C007D0A1282
:10287A000644900372EEF0A3EFF00BBB00010A804E
:10288A00B0900372A3E02430FF74782BF5827403AE
:10289A003AF583EFF0900376E07002A3E07060905F
:1028AA000382742DF0900374EAF0A3EBF0900374A2
:1028BA00E0FEA3E0FFD394FFEE6480947F40377478
:1028CA00782FF58274033EF583E0FF900374E0FCF1
:1028DA00A3E0FDC3EB9DFDEA9CFC74832DF5827495
:1028EA00033CF583EFF0900375E024FFF090037446
:1028FA00E034FFF080B774842BF58274038058901B
:10290A000374EAF0A3EBF0900374E0FEA3E0FFD3B4
:10291A0094FFEE6480947F403774782FF5827403B5
:10292A003EF583E0FF900374E0FCA3E0FDC3EB9D5A
:10293A00FDEA9CFC74822DF58274033CF583EFF06A
:10294A00900375E024FFF0900374E034FFF080B741
:10295A0074832BF58274033AF583E4F0900370E0F4
:0D296A00FFA3E0FD7B017A03798202303B80
:081E0F00900449EFF0A3EDF08F
:101E1700900453E4F0A3740AF0E4FFFEFDFC900481
:101E27004BE0F8A3E0F9A3E0FAA3E0FB1203249048
:101E370004554005742BF0801A742DF090044BE084
:101E4700FCA3E0FDA3E0FEA3E0FF12039D90044B7B
:101E57001208A690044BE0FCA3E0FDA3E0FEA3E07C
:101E6700FF1203EC90044FEEF0A3EFF0E4A3F0A30E
:101E7700F090044FE0FEA3E0FF4E601F7C007D0A58
:101E870012064490044FEEF0A3EFF0900452E004E2
:101E9700F070DE900451E004F080D690044BE0FC33
:101EA700A3E0FDA3E0FEA3E0FF1203EC90044FEED6
:101EB700F0A3EFF0A3E0FEA3E0FBAA06D3EB9400A8
:101EC700EA64809480403D90044FE0FEA3E0FF7CED
:101ED700007D0A120644ED2430FF74552BF58274F9
:101EE700043AF583EFF090044FE0FEA3E0FF7C0097
:101EF7007D0A12064490044FEEF0A3EFF0EB1B703F
:101F0700BB1A80B8900451E0FEA3E02456F5827412
:101F1700043EF583742EF090044BE0FCA3E0FDA390
:101F2700E0FEA3E0FFC004C005C006C00790044B55
:101F3700A3A3A3E01203ECAD07AC06EC1203B3A80E
:101F470004A905AA06AB07D007D006D005D004120E
:101F5700008990044B1208A6900452E02402F090E6
:101F67000451E03400F0900454E024FFFF90045340
:101F7700E034FFFEC3900452E09FEE6480F89004C3
:101F870051E0648098400302202890044BE0FCA3B2
:101F9700E0FDA3E0FEA3E0FFE4FBFA79207841121D
:101FA700017E90044B1208A690044BE0FCA3E0FDD1
:101FB700A3E0FEA3E0FF1203ECEF2430FF900451EF
:101FC700E0FCA3E02455F58274043CF583EFF09020
:101FD700044BE0FCA3E0FDA3E0FEA3E0FFC004C0C8
:101FE70005C006C00790044BA3A3A3E01203ECAD02
:101FF70007AC06EC1203B3A804A905AA06AB07D0E1
:1020070007D006D005D00412008990044B1208A609
:10201700900452E004F07006900451E004F0021FAF
:102027006D900453E0FEA3E02454F58274043EF55A
:1020370083E4F0900449E0FFA3E0FD7B017A047993
:042047005502303BD3
:1036F30000000000000000000000000000000000C7
:1037030000000000000000000000000000000000B6
:03371300000000B3
:101582004C040201F401F401F401F401F401F44CFD
:1015920003F600C800C800C800C800C800C842035B
:1015A200EC00004203EA00004203F200004203EEB4
:0C15B20000004203F400004203F00000BF
:103737009004A87401F0A37440F0A37401F0A3F0FF
:0C374700A3F0A3F0FB7A0479A80233E998
:052AD10090040EEFF07F
:102AD600E4A3F0A3F0A3F0A3F0A3F078147C047DA4
:102AE600017BFF7A3679F3FE7F1812053D782C7C40
:102AF600047D017BFF7A37790B7E007F0512053D49
:102B0600E490040FF090040FE0C3940C748094805A
:102B1600502B90040EE0FF12316990040FE025E07F
:102B26002414F582E43404F583EEF0A3EFF07F6419
:102B36007E0012376E90040FE004F080C8E4FFEFC9
:102B4600C3940B748094804003022BD0E4FEC374BC
:102B56000B9FFDEEC39D506EEE25E02416F582E434
:102B66003404F583E0FCA3E0FDEE25E02414F582B1
:102B7600E43404F583E0FAA3E0FBD39DEA9C4043EA
:102B8600900412EAF0A3EBF0EE25E02416F582E4B9
:102B96003404F583E0FCA3E0FDEE25E02414F58281
:102BA600E43404F583ECF0A3EDF0900412E0FCA30A
:102BB600E0FDEE25E02416F582E43404F583ECF01E
:102BC600A3EDF00E80880F022B4590040F7401F0E0
:102BD60090040FE0FFC3940B748094805025EF257A
:102BE600E02414F582E43404F583E0FEA3E0FF90CC
:102BF6000411E02FF0900410E03EF090040FE00482
:102C0600F080CD900410E0FEA3E0FF7C007D0A0278
:022C160005EFC8
:1018BC0078AE7C047D017BFF7A3779107E007F0641
:1018CC0012053DE4FF122AD19004AEEFF07F011215
:1018DC002AD19004AFEFF07F02122AD19004B0EF1E
:1018EC00F07F03122AD19004B1EFF07F04122AD1B9
:1018FC009004B2EFF07F05122AD19004B3EFF09070
:10190C0004AEE0FF7E00D39003F7E09F9003F6E077
:10191C009E4003EE8016C3900403E09F900402E007
:10192C009E500D9004AEE0FF900402E4F0A3EFF0A3
:10193C009004AFE0FF7E00D39003F9E09F9003F892
:10194C00E09E4003EE8016C3900405E09F900404D3
:10195C00E09E500D9004AFE0FF900404E4F0A3EF80
:10196C00F09004B0E0FF7E00D39003FBE09F900367
:10197C00FAE09E4003EE8016C3900407E09F9004AB
:10198C0006E09E500D9004B0E0FF900406E4F0A336
:10199C00EFF09004B1E0FF7E00D39003FDE09F9048
:1019AC0003FCE09E4003EE8016C3900409E09F9078
:1019BC000408E09E500D9004B1E0FF900408E4F0A0
:1019CC00A3EFF09004B2E0FF7E00D39003FFE09F02
:1019DC009003FEE09E4003EE8016C390040BE09F44
:1019EC0090040AE09E500D9004B2E0FF90040AE4CB
:1019FC00F0A3EFF09004B3E0FF7E00D3900401E07D
:101A0C009F900400E09E4003EE8016C390040DE00E
:101A1C009F90040CE09E500D9004B3E0FF90040CDA
:101A2C00E4F0A3EFF09004AEE0FF9003F6E0FCA32B
:101A3C00E0FDC3EF9DFFE49CFE7C007D641205DDA0
:101A4C009003F6E0FCA3E0FDC3900403E09DFD9041
:101A5C000402E09CFC1205EF9003ECEEF0A3EFF017
:101A6C009004B3E0FF900400E0FCA3E0FDC3EF9D05
:101A7C00FFE49CFE7C007D641205DD900400E0FC1C
:101A8C00A3E0FDC390040DE09DFD90040CE09CFCD4
:101A9C001205EF9003EAEEF0A3EFF09004AFE0FF35
:101AAC009003F8E0FCA3E0FDC3EF9DFFE49CFE7CFB
:101ABC00007D641205DD9003F8E0FCA3E0FDC3900B
:101ACC000405E09DFD900404E09CFC1205EF9003DE
:101ADC00F2EEF0A3EFF09004B2E0FF9003FEE0FC16
:101AEC00A3E0FDC3EF9DFFE49CFE7C007D6412052A
:101AFC00DD9003FEE0FCA3E0FDC390040BE09DFD34
:101B0C0090040AE09CFC1205EF9003EEEEF0A3EFBC
:101B1C00F09004B0E0FF9003FAE0FCA3E0FDC3EF0B
:101B2C009DFFE49CFE7C007D641205DD9003FAE0D1
:101B3C00FCA3E0FDC3900407E09DFD900406E09C2F
:101B4C00FC1205EF9003F4EEF0A3EFF09004B1E07B
:101B5C00FF9003FCE0FCA3E0FDC3EF9DFFE49CFEC3
:101B6C007C007D641205DD9003FCE0FCA3E0FDC36A
:101B7C00900409E09DFD900408E09CFC1205EF9098
:071B8C0003F0EEF0A3EFF0FF
:011B9300222F
:10008600020458E86480F8E933E83360110460F04C
:10009600ED33EC337009E8FCE9FDEAFEEBFF2204E0
:1000A60060DED3EB9FEA9EE99DE8C2E78CF0C2F7DB
:1000B60095F0400CE8CCF8E9CDF9EACEFAEBCFFBA7
:1000C60012042385D0F05804700320D5B3E80470D9
:1000D600075002B2D502046292D5EC0460F7E4CC74
:1000E600C0E0C398F8603B94186008400DD0E0FB70
:1000F60002043AE4FBFAC9FC8028E830E406E4C9C5
:10010600FBE4CAFCE830E305E4C9CACBFCE85407C3
:100116006010F8C3E913F9EA13FAEB13FBEC13FCCE
:10012600D8F130F52FC3E49CFCEF9BFFEE9AFEED71
:1001360099FDD0E0FBEF4E4D4C701222DB0302041A
:100146005FEC2CFCEF33FFEE33FEED33FDED30E7D5
:10015600EB02043AEF2BFFEE3AFEED39FDD0E0FB61
:1001660050130BBB0003020462ED13FDEE13FEEF0A
:0801760013FFEC13FC02043A34
:10017E00EC4D6011E8497017ED33EC3304600DE47B
:10018E00FCFFFEFD22E933E8330470F80204581236
:10019E00042358046009E4CC248150062850090237
:1001AE00046228400302045FC0E0EB4A7044B98049
:1001BE0006D0E0FB02044EEF4E701CBD8008EBFF34
:1001CE00EAFEE9FD80EBE98DF0A4FEE5F0020267A0
:1001DE00E9CDF9EAFEEBFFEF89F0A4FCE5F0CE895C
:1001EE00F0A42EFFE435F0CD89F0A42DFEE435F019
:1001FE008067EF4E7005BD80D780C3EF8BF0A4AC47
:10020E00F0EE8BF0A42CFCE435F0F8EF8AF0A42C81
:10021E00E5F038FCE433CB8DF0A42CFCE5F03BF894
:10022E00EE8AF0A42CFCE5F038F8E433CF89F0A484
:10023E002CFCE5F038CF3400CE89F0A42FFFE5F08A
:10024E003EFEE433C98DF0A42EFEE5F039CD8AF0E2
:10025E00A42FFFE5F03EFEE43DFD33D0E0FB50075A
:10026E000BBB000F020462EC2CFCEF33FFEE33FEEF
:06027E00ED33FD02043A1D
:10028400020462EC5D046005E8590470030204583A
:10029400120423580460F6EC4860F2EC7004FDFE8E
:1002A400FF22C860DB2481C85009C398600250064D
:1002B40002045F9850CAF582E9294B4A7005AB8263
:1002C40002044E75F0007C1A7880C3EF9BEE9AED21
:1002D40099400DC3EF9BFFEE9AFEED99FDE842F0C5
:1002E400DC23ACF0D0E0FFD0E0FED0E0FDAB822018
:1002F400E7101BEB60BAEC2CFCEF33FFEE33FEEDA2
:1003040033FD02043AE803F830E705C0F075F00065
:10031400EF2FFFEE33FEED33FD40B830E7C280AA85
:1003240074F8CC6480CCC86480C8F58204604FC380
:10033400EB9FF5F0EA9E42F0E99D42F0E89C45F01F
:10034400603C501DE5825FFFE582D313CB5BCBF4A9
:100354002B5582FB50280ABA002409B900200880D2
:100364001DE5825BFBE582D313CF5FCFF4C3132F6C
:100374005582FF50090EBE00050DBD00010CC3EBF4
:100384009FF5F0EA9E42F0E99D42F0E89C45F0605A
:0903940007CC4820E701B3EC227C
:10039D00ED33EC33600A047003BD8004ECB2E7FC6E
:0103AD00222D
:1003AE0075F020800E75F010800575F0087D007ECA
:1003BE00007F003392D530D503120796EC334010F0
:1003CE00EF33FFEE33FEED33FDEC33FCD5F0ED22D3
:0E03DE00E5F0247EA2D513CC92E7CDCEFF220F
:1003EC00EDD2E7CD33EC3392D524814006E4FFFE09
:1003FC00FDFC22FCE4CFCECDCC24E0501174FF8068
:10040C00EDC3CC13CCCD13CDCE13CECF13CF047004
:07041C00F030D5DE02079667
:10042300E9D2E7C933E833F892D5EDD2E7CD33EC1F
:0704330033FC5002B2D52298
:10043A00EC30E7100FBF000C0EBE00080DBD000423
:10044A000BEB6014A2D5EB13FCED92E7FD2274FFCF
:10045A00FCFDFEFF22E480F8A2D574FF13FC7D8028
:03046A00E480EF3C
:1030E900023534E493A3F8E493A34003F68001F294
:1030F90008DFF48029E493A3F85407240CC8C333E8
:10310900C4540F4420C8834004F456800146F6DFB6
:10311900E4800B01020408102040809012BCE47E78
:10312900019360BCA3FF543F30E509541FFEE493AB
:10313900A360010ECF54C025E060A840B8E493A372
:10314900FAE493A3F8E493A3C8C582C8CAC583CA9D
:10315900F0A3C8C582C8CAC583CADFE9DEE780BE55
:0115BE00002C
:10046D00E709F608DFFA8046E709F208DFFA803E71
:10047D0088828C83E709F0A3DFFA8032E309F6085E
:10048D00DFFA8078E309F208DFFA807088828C83C6
:10049D00E309F0A3DFFA806489828A83E0A3F6087A
:1004AD00DFFA805889828A83E0A3F208DFFA804C54
:1004BD0080D280FA80C680D4806980F2803380102B
:1004CD0080A680EA809A80A880DA80E280CA803394
:1004DD0089828A83ECFAE493A3C8C582C8CCC5830C
:1004ED00CCF0A3C8C582C8CCC583CCDFE9DEE780DC
:1004FD000D89828A83E493A3F608DFF9ECFAA9F05B
:10050D00EDFB2289828A83ECFAE0A3C8C582C8CCB0
:10051D00C583CCF0A3C8C582C8CCC583CCDFEADEC9
:10052D00E880DB89828A83E493A3F208DFF980CC2B
:10053D0088F0EF60010E4E60C388F0ED2402B40424
:10054D000050B9F582EB2402B4040050AF232345CB
:06055D0082239004BD732F
:10056300BB010689828A83E0225002E722BBFE0296
:09057300E32289828A83E49322C9
:10057C00BB010CE58229F582E5833AF583E0225034
:10058C0006E92582F8E622BBFE06E92582F8E2227E
:0D059C00E58229F582E5833AF583E4932298
:1005A900BB010689828A83F0225002F722BBFE0131
:0205B900F3222B
:1005BB00F8BB010DE58229F582E5833AF583E8F076
:1005CB00225006E92582C8F622BBFE05E92582C822
:0205DB00F2220A
:1005DD00EF8DF0A4A8F0CF8CF0A428CE8DF0A42E32
:0205ED00FE22EC
:1005EF00BC000BBE0029EF8DF084FFADF022E4CCF0
:1005FF00F875F008EF2FFFEE33FEEC33FCEE9DECB9
:10060F00984005FCEE9DFE0FD5F0E9E4CEFD22EDFE
:10061F00F8F5F0EE8420D21CFEADF075F008EF2F48
:10062F00FFED33FD4007985006D5F0F222C398FD39
:05063F000FD5F0EA22D6
:10064400C2D5EC30E709B2D5E4C39DFDE49CFCEED1
:1006540030E715B2D5E4C39FFFE49EFE1205EFC355
:10066400E49DFDE49CFC80031205EF30D507C3E450
:060674009FFFE49EFE2240
:10067A00C5F0F8A3E028F0C5F0F8E582158270020B
:06068A001583E038F022A8
:10069000BB0110E58229F582E5833AF583E0F5F0A8
:1006A000A3E0225009E92582F886F008E622BBFE85
:1006B0000AE92582F8E2F5F008E222E5832AF583CB
:0806C000E993F5F0A3E9932290
:1006C80075F008758200EF2FFFEE33FECD33CDCCE9
:1006D80033CCC58233C5829BED9AEC99E58298406C
:1006E8000CF582EE9BFEED9AFDEC99FC0FD5F0D649
:1006F800E4CEFBE4CDFAE4CCF9A88222B800C1B973
:100708000059BA002DEC8BF084CFCECDFCE5F0CBB0
:10071800F97818EF2FFFEE33FEED33FDEC33FCEBE9
:1007280033FB10D703994004EB99FB0FD8E5E4F9A4
:10073800FA227818EF2FFFEE33FEED33FDEC33FC91
:10074800C933C910D7059BE99A4007EC9BFCE99A85
:10075800F90FD8E0E4C9FAE4CCFB2275F010EF2FCA
:10076800FFEE33FEED33FDCC33CCC833C810D707CA
:100778009BEC9AE899400AED9BFDEC9AFCE899F805
:0E0788000FD5F0DAE4CDFBE4CCFAE4C8F92298
:0E079600C3E49FFFE49EFEE49DFDE49CFC2274
:1007A400EB9FF5F0EA9E42F0E99D42F0E89C45F0AB
:0107B4002222
:1007B500E8600FECC313FCED13FDEE13FEEF13FF22
:0307C500D8F12246
:1007C800BB010789828A830209135005E9F80209E7
:1007D80007BBFE05E9F802091F89828A8302092BF3
:1007E800BB010DE58229F582E5833AF583020913F9
:1007F8005007E92582F8020907BBFE07E92582F8B8
:1008080002091FE58229F582E5833AF58302092B5F
:10081800BB010789828A830208A65005E9F8020904
:0A08280071BBFE05E9F802097D220C
:10083200BB010DE58229F582E5833AF5830208A61C
:100842005007E92582F8020971BBFE07E92582F803
:0408520002097D22F8
:10085600BB010789828A830209485005E9F8020923
:100866003BBBFE05E9F802095489828A83020961C5
:10087600BB010DE58229F582E5833AF58302094835
:100886005007E92582F802093BBBFE07E92582F8F5
:10089600020954E58229F582E5833AF58302096166
:0C08A600ECF0A3EDF0A3EEF0A3EFF022C5
:1008B200A8828583F0D083D0821208C91208C91297
:1008C20008C91208C9E473E493A3C583C5F0C583BC
:1008D200C8C582C8F0A3C583C5F0C583C8C582C890
:0108E20022F3
:1008E300BB010DE58229F582E5833AF5830208B25F
:1008F3005007E92582F8020989BBFE07E92582F83A
:040903000209A22221
:0C090700E6FC08E6FD08E6FE08E6FF221C
:0C091300E0FCA3E0FDA3E0FEA3E0FF2257
:0C091F00E2FC08E2FD08E2FE08E2FF2214
:10092B00E493FC740193FD740293FE740393FF2212
:0D093B00E6FB08E6F908E6FA08E6CBF8222C
:0C094800E0F8A3E0F9A3E0FAA3E0FB2232
:0D095400E2FB08E2F908E2FA08E2CBF82223
:10096100E493F8740193F9740293FA740393FB22EC
:0C097100ECF608EDF608EEF608EFF622B2
:0C097D00ECF208EDF208EEF208EFF222B6
:10098900D083D082E493F608740193F60874029335
:09099900F608740393F67404736C
:1009A200D083D082E493F208740193F20874029324
:0909B200F208740393F27404735B
:00000001FF
