:0300000002187C67
:0C187C00787FE4F6D8FD75817F0218C368
:030006000D0A00E0
:0B00660002160000051800000000005A
:1016EC00E4F521F522F526F525F524F523F527F566
:1016FC0028F54A754B01754C01FB7A00794AFF12AB
:10170C001B91753240753301E4F53775364BF53561
:10171C00F534753801753901F53A753B01753C01A5
:10172C00F53DF529F52DF52C752BC8752A43F531AA
:10173C00753050752F43752E46FB7A007929FF12B0
:10174C000ECA753E40753F02E4F54375424BF541B8
:10175C00F540754401754501F5467547017548011D
:10176C00F549FB7A00793E7F0212089D7B007A00D6
:10177C0079327F0112089DE4FF121AF47F057E0076
:10178C001200267B007A007918AF1EAE1D1214D001
:10179C00E4F51DF51EFB7A007918121B507BFF7ABD
:0817AC00007906121B5080D4E5
:10002600E4FDFCC3ED9FEC9E50100079207B28DB9D
:0A003600FED9FC0DBD00010C80E9AD
:01004000229D
:101BAF00E4FDFCC3ED9FEC9E500B7B06DBFE0DBDF1
:051BBF0000010C80EEA6
:011BC40022FE
:10112300EFD394057480948040037F012212046DF1
:10113300FED394037480948040037F0222EF7044B3
:10114300EE700B900001120486F452935294120431
:101153006D6401700B9000011204864293F4529463
:1011630012046DFE6402700A900001120486429319
:101173004294EE6403700D900001120486FEF45253
:1011830093EE4294EF6401704612046DFE700B906F
:101193000001120486F452915292EE6401700B9096
:1011A30000011204864291F4529212046D6402709B
:1011B3000A9000011204864291429212046D640364
:1011C300700D900001120486FEF45291EE4292EFEC
:1011D3006402704612046DFE700B900001120486C7
:1011E300F452955296EE6401700B9000011204863E
:1011F3004295F4529612046D6402700A9000011233
:1012030004864295429612046D6403700D900001AA
:10121300120486FEF45295EE4296EF640370461272
:10122300046DFE700B900001120486F452B152B2A9
:10123300EE6401700B90000112048642B1F452B2C5
:1012430012046D6402700A90000112048642B142D6
:10125300B212046D6403700D900001120486FEF453
:1012630052B1EE42B2EF6404704612046DFE700B8D
:10127300900001120486F452B352B4EE6401700B71
:1012830090000112048642B3F452B412046D640256
:10129300700A90000112048642B342B412046D64D2
:1012A30003700D900001120486FEF452B3EE42B4B3
:1012B300EF6405704912046DFF7E00700B9000010E
:1012C300120486F452C952CAEF64014E700B9000A7
:1012D3000112048642C9F452CA12046D6402700AF0
:1012E30090000112048642C942CA12046D6403705D
:1012F3000D900001120486FFF452C9EF42CA7F0029
:0113030022C7
:101AF400EFFD7C00700F75BA8090FE8074E0F0906A
:101B0400FE82E4F022ED64014C701875BA8090FEF8
:101B1400807481F090FE85745AF090FE84E4F09015
:041B2400FE83F0222A
:10190800D200D201E4F51F7400251FF8E290FE868C
:10191800F090FE84E030E605E054BFF02290FE84AB
:10192800E030E529E054DFF0300003C20022300146
:101938000CC20190FE87E0F51F2400802C90FE87E2
:10194800E0FFAE1F051F74002EF8EFF22290FE8410
:10195800E030E41CE054EFF0E030E10790FE8674DC
:10196800FFF022051F7400251FF8E290FE86F02282
:1019780090FE84E030E308E054F7F0D200D2012270
:0C1C390090FE82E030E6F9E054BFF0229B
:091C450090FE817401F0021C39CB
:101BEB0090FE86EFF090FE817402F0121C39021CFD
:011BFB004E9B
:091C4E0090FE817403F0021C39C0
:0F1C0D0090FE817404F0121C3990FE87E0FF22D4
:0E1C2B0090FE82E4F090FE817405F0021C39F8
:0F1C1C0090FE827401F090FE817405F0021C3975
:091C570090FE817406F0021C39B4
:101BC500E4FFFE000000000FBF00010EBE0BF4BFD6
:021BD500B8F165
:011BD70022EB
:101BFC00E59A30E103539AFDE59A30E003539AFEDF
:011C0C0022B5
:0300230002198837
:10198800C0E0C083C082C0D075D000C0073098289E
:10199800C298E50E7022C3E50C940B7480948040C5
:1019A80003750C00AF0C050C74002FF582E43401AC
:1019B800F583E599F0750D0530992BC299E5096510
:1019C8000A602074162509F582E43401F583E0F5F0
:1019D800990509C3E509940B74809480400875093A
:1019E800008003750B00D007D0D0D082D083D0E020
:0119F80032BC
:030043000219F9A6
:1019F900C0E0C083C082C0D075D000C007121BFCF4
:101A0900E5157022C3E513940B7480948040037527
:101A19001300AF130513740B2FF582E43401F5831A
:101A2900E59BF0751405121BFCE510651160207427
:101A3900212510F582E43401F583E0F59B0510C3F7
:101A4900E510940B7480948040087510008003752C
:0D1A59001200D007D0D0D082D083D0E03270
:08089D008F4D8B4E8A4F8950EC
:1008A500D2AFEF64016003020AAD750801F509F5E1
:1008B5000AF50BF50CF50DF50EF551C3E551940B45
:1008C50074809480501174162551F582E43401F535
:1008D50083E4F0055180E4E4F551C3E551940B74CC
:1008E500809480501174002551F582E43401F5831C
:1008F500E4F0055180E4AB4EAA4FA95012046DFDFA
:100905007C00D394C07480948040037F02229000C1
:100915000A12048664017004D2BC8002C2BC1204AF
:100925006DFFE598543F4FF598ED64C04C6008EFB6
:10093500644060030209F39000021207037F807E82
:100945008D7D5B7C001205918F558E548D538C5295
:10095500E4FFFE7D01FCAB55AA54A953A852C3126E
:10096500063140037F0222C3E49555F555E49554BD
:10097500F55474019553F553E49552F552AB4EAACF
:100985004FA950900001120486FB7A006401702C77
:10099500C28E538EFE5389BF5389CF438E40AF55C8
:1009A500AE54AD53AC5278081206428F8D85558BE7
:1009B500C2AB5389BF538FFDD28E806CEB64024A64
:1009C5007029538EEF438E01538EF7438E04AF5536
:1009D500AE54AD53AC5278081206428FD68555D722
:1009E50053AFFB538EF7438E10803D7F0222AB4EF3
:1009F500AA4FA95012046DFF7E00701490000812D2
:100A0500048664017005438E20801D538EDF801897
:100A1500EF64804E70129000081204866401700520
:100A2500438780800353877FAB4EAA4FA950900020
:100A35000912048664017004D2AC8002C2AC900035
:100A45000712048664017004D29C8002C29C900047
:060A55000B12048670097B
:070A5B00755603755702FBFD
:100A62008027AB4EAA4FA95090000B1204866480D7
:020A7200700F03
:0D0A7400755603755780FB7A0079567F0197
:020A8100800EE5
:100A83007556037557807B007A0079567F031211E0
:010A9300233F
:100A9400AB4EAA4FA95090000B12048654C0FFE538
:100AA400A2543F4FF5A27F0022E54D640260030289
:100AB4000C0D750F02F510F511F512F513F514F57B
:100AC40015F551C3E551940B748094805011742131
:100AD4002551F582E43401F583E4F0055180E4E422
:100AE400F551C3E551940B748094805011740B2517
:100AF40051F582E43401F583E4F0055180E4AB4E12
:100B0400AA4FA95012046DFF64C06008EF644060EE
:100B140003020BA290000A1204866401700543B517
:100B240001800353B5FE12046D64C07005439A80BE
:100B34008003539A7F9000021207037F807E8D7D8D
:100B44005B7C001205918F558E548D538C52E4FFBB
:100B5400FE7D01FCAB55AA54A953A852C312063119
:100B640040037F0222C3E49555F555E49554F554AA
:100B740074019553F553E49552F552538EEF538E09
:100B8400F7438E04AF55AE54AD53AC5278081206F9
:100B9400428FD68555D753AFFB438E1080037F0217
:100BA40022AB4EAA4FA9509000091204866401702A
:100BB4000543AF01800353AFFE900007120486641F
:100BC400017005439A108003539AEF90000B1204AE
:030BD40086700F19
:0D0BD700755603755702FB7A0079567F01B1
:020BE400800E81
:100BE6007556037557807B007A0079567F0412117B
:010BF60023DB
:100BF700AB4EAA4FA95090000B1204865401FFE593
:080C0700BA54FE4FF5BA7F005C
:010C0F0022C2
:101B73008F50E50B700F750B018550993099FDC29D
:0E1B830099E4F50B227F057E00121BAF80E473
:101B280074212511F582E43401F583EFF00511C322
:101B3800E511940B748094804003E4F511E512706C
:081B480006751201121BFC22BC
:101B50008B4D8A4E894FAB4DAA4EA94F12046DFF93
:101B60006010121B737401254FF54FE4354EF54E8E
:031B700080E422EC
:101BD80012046DFF600C121B28740129F9E43AFA0B
:031BE80080EE226A
:071C60003098FDC298AF9916
:011C6700225A
:05007C00121BFCAF9B0C
:01008100225C
:0A14D0008E4D8F4E8B4F8A508951CC
:1014DA00E4F552F553C3E54D648094805011E4F568
:1014EA0056F557C3954EF54EE4954DF54D80067564
:1014FA005600755701AE4DAF4E7C007D0A1204E7C7
:10150A00AA06AB07EB4A6024AE4DAF4E7C007D0ABB
:10151A001204E7ED2430FF74582553F8A6078A4DC4
:10152A008B4E0553E55370CD055280C9E54E2430E4
:10153A00FF74582553F8A607E55745567059AB4F1F
:10154A00AA50A951742D1204B3855254855355D308
:10155A00E55594FFE5546480947F402F74582555CF
:10156A00F8E6FFC3E5539555CDE5529554CD2401D0
:10157A00CD3400AB4FAA50A9518D82F583EF1204E6
:10158A00C5E555155570C8155480C4AB4FAA50A966
:10159A0051E55324028046855254855355D3E55567
:1015AA0094FFE5546480947F402974582555F8E6E1
:1015BA00FFC3E5539555FDE5529554AB4FAA50A983
:1015CA00518D82F583EF1204C5E555155570CE1578
:1015DA005480CAAB4FAA50A951E5532401FFE43500
:0915EA00528F82F583E41204C55E
:0115F30022D5
:04007100021D00006C
:03000300020046B2
:0D004600C0E0051EE51E7002051DD0E03271
:03001300020009DF
:0100090032C4
:0300530002000A9E
:01000A0032C3
:03005B0002000E92
:01000E0032BF
:0300830002000F69
:01000F0032BE
:1017B400EFD394107480948040037F0122D2AFEF62
:1017C400703090000212048664017004D2A8800272
:1017D400C2A890000112048664017004D2B8800289
:1017E400C2B812046D64017004D2888002C2887F7A
:1017F4000022EF64027030900002120486640170CB
:1018040004D2AA8002C2AA90000112048664017064
:1018140004D2BA8002C2BA12046D64017004D28A7E
:101824008002C28A7F0022EF640A701590000212BF
:10183400048664017005438F108003538FEF7F008B
:1018440022EF640B70159000021204866401700587
:10185400438F208003538FDF7F0022EF64107015C5
:1018640090000212048664017005438F4080035384
:081874008FBF7F00227F0222DA
:06007500047C0000000005
:03000B00021A6670
:101A6600C0E0C0F0C083C082C0D075D000C000C046
:101A760001C002C003C004C005C006C007AE1DAF4A
:101A86001E7C007D0A1204E7AC06AD07EC1203B318
:101A96008F7F8E7E8D7D8C7CD007D006D005D004BE
:101AA600D003D002D001D000D0D0D082D083D0F0E5
:031AB600D0E0324B
:03001B00021AB90D
:101AB900C0E0C0F0C083C082C0D075D000C000C0F3
:101AC90001C002C003C004C005C006C0071215F456
:101AD900D007D006D005D004D003D002D001D00061
:0B1AE900D0D0D082D083D0F0D0E0320B
:0300630002001088
:0100100032BD
:10130400AD07EDD394027480948040037F0122D210
:10131400AFED60030213ACC28C9000021204866429
:10132400017004D2A98002C2A9900001120486644B
:10133400017004D2B98002C2B912046DFED39403C1
:101344007480948040037F0222E58954FC4EF58921
:10135400900003120486FF7E0064017003538E7FA5
:10136400EF4E7003438E80EF64024E700543890490
:1013740080035389FB9000041204866401700543C2
:101384008F018003538FFE90000512051DE5F0F5D3
:101394008C90000512051DF58A90000712048664DE
:1013A400017002D28C7F0022ED64016003021445B7
:1013B400C28E90000212048664017004D2AB8002D3
:1013C400C2AB90000112048664017004D2BB800297
:1013D400C2BB12046DFEC394037480948040037FE7
:1013E4000222E58954CF4EF589900003120486FF4A
:1013F4007E0064017003538EBFEF4E7003438E4032
:10140400EF64024E700543894080035389BF900006
:101414000412048664017005438F028003538FFD18
:1014240090000512051DE5F0F58D90000512051DCF
:10143400F58B90000712048664017002D28E7F003F
:1014440022ED640260030214CD538EEF9000021269
:1014540004866401700543AF04800353AFFB90001E
:1014640003120486FD7C00D39402748094804003AC
:101474007F0222ED64014C7003538EFB9000031233
:1014840004867003438E0490000312048664027081
:1014940005438E088003538EF7900004120486647B
:1014A400017005438F048003538FFB9000051205E0
:1014B4001DFDACF0ECF5D68DD790000712048664C0
:0C14C400017003438E107F00227F022283
:101B910012046DF54D900001120486F54E9000027D
:0E1BA100120486F54F7B007A00794D0217B4CE
:100C10008F64EF6003020D92AB6DAA6EA96F900016
:100C20000C1206759000101206BFAB68AA67A96681
:100C3000A865AF6CAE6BAD6AAC69120089AB6DAAEA
:100C40006EA96F90000C1206BFE92414F9E43AFA79
:100C5000C003C002C001120655AB6DAA6EA96F9009
:100C6000000C12070312008DD001D002D00312062F
:100C7000A5AB6DAA6EA96F900014120675E4FBFA7D
:100C800079FA78441203245010AB6DAA6EA96F90C4
:100C9000001412073344FA0000AB6DAA6EA96F90DE
:100CA0000014120675E4FBFA79FA78C41203246082
:100CB000124010AB6DAA6EA96F900014120733C4D6
:100CC000FA0000AB6DAA6EA96F9000141206759021
:100CD000000412070312017EC004C005C006C0074D
:100CE000AB6DAA6EA96F90000C1206751206E31286
:100CF000017ED003D002D001D00012008DC004C00C
:100D000005C006C007AB6DAA6EA96F900010120750
:100D100003C000C001C002C003AB6DAA6EA96F90F2
:100D2000000C120675D003D002D001D00012008949
:100D3000AB6DAA6EA96F90000812070312017ED056
:100D400003D002D001D00012008DAB6DAA6EA96F46
:100D500090001C1206BF90001812067590001C121D
:100D6000070312032460054003020E80AB6DAA6ED8
:100D7000A96F90001812067512039DAB6DAA6EA99B
:100D80006F90001C1207031203244003020EC902D5
:100D90000EAEE56464016003020EC9AB6DAA6EA9D4
:100DA0006F90000C1206759000101206BFAB68AA77
:100DB00067A966A865AF6CAE6BAD6AAC69120089B5
:100DC000AB6DAA6EA96F90000C1206BFE9241CF946
:100DD000E43AFAC003C002C001120655C004C005BF
:100DE000C006C007AB6DAA6EA96F90001012070372
:100DF000C000C001C002C003AB6DAA6EA96F900015
:100E00000C120675D003D002D001D000120089ABBD
:100E10006DAA6EA96F1206E312017EC004C005C060
:100E200006C007AB6DAA6EA96F90000C12067590F4
:100E3000000412070312017EA804A905AA06AB0745
:100E4000D007D006D005D00412008DA804A905AAA9
:100E500006AB07D007D006D005D00412008DD00114
:100E6000D002D0031206A5AB6DAA6EA96F90001830
:100E700012067590001C1207031203246010400E26
:100E8000AB6DAA6EA96F9000181206758035AB6D18
:100E9000AA6EA96F90001812067512039DAB6DAA79
:100EA0006EA96F90001C120703120324501BAB6D38
:100EB000AA6EA96F90001812067512039DAB6DAA59
:0A0EC0006EA96F90001C1206BF22FD
:080ECA008F4D8B4E8A4F8950B9
:100ED200E4F554F553F552F551F558F557F556F535
:100EE200559000051207037F007E1B7DB77C4912D7
:100EF20002878F548E538D528C51AB4EAA4FA950FC
:100F0200900001120703E4FFFE7D7A7C44120089FF
:100F1200E4FBFA797A78441202878F588E578D56FD
:100F22008C5575BA8090FFF2740FF0AF54AE53AD8A
:100F320052AC511203EC90FFF0EEF0A3EFF0E54D4E
:100F4200B40800400302111C900F51F828287302C4
:100F52000F69020FA0020FD702100E0210450210F5
:100F62007C0210B20210E890FF00E4F0A3F0AF5848
:100F7200AE57AD56AC55AB54AA53A952A851120163
:100F82007E1203EC90FF02EEF0A3EFF0AB4EAA4FFD
:100F9200A95012046D448090FF04F002111C90FFCE
:100FA20010E4F0A3F0AF58AE57AD56AC55AB54AA0F
:100FB20053A952A85112017E1203EC90FF12EEF0D7
:100FC200A3EFF0AB4EAA4FA95012046D448090FFDC
:100FD20014F002111C90FF20E4F0A3F0AF58AE57BA
:100FE200AD56AC55AB54AA53A952A85112017E1268
:100FF20003EC90FF22EEF0A3EFF0AB4EAA4FA95004
:1010020012046D448090FF24F002111C90FF30E422
:10101200F0A3F0AF58AE57AD56AC55AB54AA53A996
:1010220052A85112017E1203EC90FF32EEF0A3EFB0
:10103200F0AB4EAA4FA95012046D448090FF34F0D9
:1010420002111C90FF40E4F0A3F0AF58AE57AD562A
:10105200AC55AB54AA53A952A85112017E1203EC0B
:1010620090FF42EEF0A3EFF0AB4EAA4FA95012044C
:101072006D448090FF44F002111C90FF50E4F0A3F5
:10108200F0AF58AE57AD56AC55AB54AA53A952A8BF
:101092005112017E1203EC90FF52EEF0A3EFF0AB7F
:1010A2004EAA4FA95012046D448090FF54F0806AFA
:1010B20090FF60E4F0A3F0AF58AE57AD56AC55AB1D
:1010C20054AA53A952A85112017E1203EC90FF6256
:1010D200EEF0A3EFF0AB4EAA4FA95012046D44807C
:1010E20090FF64F0803490FF70E4F0A3F0AF58AE4C
:1010F20057AD56AC55AB54AA53A952A85112017E12
:101102001203EC90FF72EEF0A3EFF0AB4EAA4FA9E0
:101112005012046D448090FF74F0E4F5BA75FE80BD
:0111220022AA
:1015F400E4F562FFFEF563121C457FA0121BEB7F2E
:101604003D121BEB121C457FA1121BEB121C0D8F0C
:1016140062121C2B121C0D8F63121C1C121C57E52A
:1016240063FEE562FFFDAC06EC1203B3E4FBFAF9DA
:101634007847120287E4FBFA7934784312017E8FEB
:10164400738E728D718C70121C457FA0121BEB7F00
:101654003E121BEB121C457FA1121BEB121C0D8FBB
:1016640062121C2B121C0D8F63121C1C121C57E5DA
:1016740063FEE562FFFDAC06EC1203B3E4FBFAF98A
:101684007847120287E4FBFA7934784312017E8F9B
:10169400778E768D758C74121C457FA0121BEB7FA0
:1016A4003F121BEB121C457FA1121BEB121C0D8F6A
:1016B40062121C2B121C0D8F63121C1C121C57E58A
:1016C40063FEE562FFFDAC06EC1203B3E4FBFAF93A
:1016D4007847120287E4FBFA7934784312017E8F4B
:0716E4007B8E7A8D798C7872
:0116EB0022DC
:10008600020458E86480F8E933E83360110460F04C
:10009600ED33EC337009E8FCE9FDEAFEEBFF2204E0
:1000A60060DED3EB9FEA9EE99DE8C2E78CF0C2F7DB
:1000B60095F0400CE8CCF8E9CDF9EACEFAEBCFFBA7
:1000C60012042385D0F05804700320D5B3E80470D9
:1000D600075002B2D502046292D5EC0460F7E4CC74
:1000E600C0E0C398F8603B94186008400DD0E0FB70
:1000F60002043AE4FBFAC9FC8028E830E406E4C9C5
:10010600FBE4CAFCE830E305E4C9CACBFCE85407C3
:100116006010F8C3E913F9EA13FAEB13FBEC13FCCE
:10012600D8F130F52FC3E49CFCEF9BFFEE9AFEED71
:1001360099FDD0E0FBEF4E4D4C701222DB0302041A
:100146005FEC2CFCEF33FFEE33FEED33FDED30E7D5
:10015600EB02043AEF2BFFEE3AFEED39FDD0E0FB61
:1001660050130BBB0003020462ED13FDEE13FEEF0A
:0801760013FFEC13FC02043A34
:10017E00EC4D6011E8497017ED33EC3304600DE47B
:10018E00FCFFFEFD22E933E8330470F80204581236
:10019E00042358046009E4CC248150062850090237
:1001AE00046228400302045FC0E0EB4A7044B98049
:1001BE0006D0E0FB02044EEF4E701CBD8008EBFF34
:1001CE00EAFEE9FD80EBE98DF0A4FEE5F0020267A0
:1001DE00E9CDF9EAFEEBFFEF89F0A4FCE5F0CE895C
:1001EE00F0A42EFFE435F0CD89F0A42DFEE435F019
:1001FE008067EF4E7005BD80D780C3EF8BF0A4AC47
:10020E00F0EE8BF0A42CFCE435F0F8EF8AF0A42C81
:10021E00E5F038FCE433CB8DF0A42CFCE5F03BF894
:10022E00EE8AF0A42CFCE5F038F8E433CF89F0A484
:10023E002CFCE5F038CF3400CE89F0A42FFFE5F08A
:10024E003EFEE433C98DF0A42EFEE5F039CD8AF0E2
:10025E00A42FFFE5F03EFEE43DFD33D0E0FB50075A
:10026E000BBB000F020462EC2CFCEF33FFEE33FEEF
:06027E00ED33FD02043A1D
:10028400020462EC5D046005E8590470030204583A
:10029400120423580460F6EC4860F2EC7004FDFE8E
:1002A400FF22C860DB2481C85009C398600250064D
:1002B40002045F9850CAF582E9294B4A7005AB8263
:1002C40002044E75F0007C1A7880C3EF9BEE9AED21
:1002D40099400DC3EF9BFFEE9AFEED99FDE842F0C5
:1002E400DC23ACF0D0E0FFD0E0FED0E0FDAB822018
:1002F400E7101BEB60BAEC2CFCEF33FFEE33FEEDA2
:1003040033FD02043AE803F830E705C0F075F00065
:10031400EF2FFFEE33FEED33FD40B830E7C280AA85
:1003240074F8CC6480CCC86480C8F58204604FC380
:10033400EB9FF5F0EA9E42F0E99D42F0E89C45F01F
:10034400603C501DE5825FFFE582D313CB5BCBF4A9
:100354002B5582FB50280ABA002409B900200880D2
:100364001DE5825BFBE582D313CF5FCFF4C3132F6C
:100374005582FF50090EBE00050DBD00010CC3EBF4
:100384009FF5F0EA9E42F0E99D42F0E89C45F0605A
:0903940007CC4820E701B3EC227C
:10039D00ED33EC33600A047003BD8004ECB2E7FC6E
:0103AD00222D
:1003AE0075F020800E75F010800575F0087D007ECA
:1003BE00007F003392D530D503120623EC33401064
:1003CE00EF33FFEE33FEED33FDEC33FCD5F0ED22D3
:0E03DE00E5F0247EA2D513CC92E7CDCEFF220F
:1003EC00EDD2E7CD33EC3392D524814006E4FFFE09
:1003FC00FDFC22FCE4CFCECDCC24E0501174FF8068
:10040C00EDC3CC13CCCD13CDCE13CECF13CF047004
:07041C00F030D5DE020623DB
:10042300E9D2E7C933E833F892D5EDD2E7CD33EC1F
:0704330033FC5002B2D52298
:10043A00EC30E7100FBF000C0EBE00080DBD000423
:10044A000BEB6014A2D5EB13FCED92E7FD2274FFCF
:10045A00FCFDFEFF22E480F8A2D574FF13FC7D8028
:03046A00E480EF3C
:101888000216ECE493A3F8E493A34003F68001F274
:1018980008DFF48029E493A3F85407240CC8C33361
:1018A800C4540F4420C8834004F456800146F6DF30
:1018B800E4800B0102040810204080900066E47E5A
:1018C800019360BCA3FF543F30E509541FFEE49325
:1018D800A360010ECF54C025E060A840B8E493A3EC
:1018E800FAE493A3F8E493A3C8C582C8CAC583CA17
:1018F800F0A3C8C582C8CAC583CADFE9DEE780BECF
:01007B000084
:10046D00BB010689828A83E0225002E722BBFE028D
:09047D00E32289828A83E49322C0
:10048600BB010CE58229F582E5833AF583E022502B
:1004960006E92582F8E622BBFE06E92582F8E22275
:0D04A600E58229F582E5833AF583E493228F
:1004B300BB010689828A83F0225002F722BBFE0128
:0204C300F32222
:1004C500F8BB010DE58229F582E5833AF583E8F06D
:1004D500225006E92582C8F622BBFE05E92582C819
:0204E500F22201
:1004E700C2D5EC30E709B2D5E4C39DFDE49CFCEE30
:1004F70030E715B2D5E4C39FFFE49EFE120757C34A
:10050700E49DFDE49CFC800312075730D507C3E444
:060517009FFFE49EFE229E
:10051D00BB0110E58229F582E5833AF583E0F5F01C
:10052D00A3E0225009E92582F886F008E622BBFEF9
:10053D000AE92582F8E2F5F008E222E5832AF5833F
:08054D00E993F5F0A3E9932204
:1005550075F008758200EF2FFFEE33FECD33CDCC5D
:1005650033CCC58233C5829BED9AEC99E5829840E0
:100575000CF582EE9BFEED9AFDEC99FC0FD5F0D6BD
:10058500E4CEFBE4CDFAE4CCF9A88222B800C1B9E7
:100595000059BA002DEC8BF084CFCECDFCE5F0CB25
:1005A500F97818EF2FFFEE33FEED33FDEC33FCEB5E
:1005B50033FB10D703994004EB99FB0FD8E5E4F919
:1005C500FA227818EF2FFFEE33FEED33FDEC33FC06
:1005D500C933C910D7059BE99A4007EC9BFCE99AFA
:1005E500F90FD8E0E4C9FAE4CCFB2275F010EF2F3F
:1005F500FFEE33FEED33FDCC33CCC833C810D7073F
:100605009BEC9AE899400AED9BFDEC9AFCE899F879
:0E0615000FD5F0DAE4CDFBE4CCFAE4C8F9220C
:0E062300C3E49FFFE49EFEE49DFDE49CFC22E8
:10063100EB9FF5F0EA9E42F0E99D42F0E89C45F01F
:010641002296
:10064200E8600FECC313FCED13FDEE13FEEF13FF96
:03065200D8F122BA
:10065500BB010789828A830207B85005E9F80207BA
:10066500ACBBFE05E9F80207C489828A830207D07C
:10067500BB010DE58229F582E5833AF5830207B8CA
:100685005007E92582F80207ACBBFE07E92582F889
:100695000207C4E58229F582E5833AF5830207D08E
:1006A500BB010789828A830208225005E9F80208FE
:0A06B50016BBFE05E9F802082E222C
:1006BF00BB010DE58229F582E5833AF58302082215
:1006CF005007E92582F8020816BBFE07E92582F8D4
:0406DF0002082E22BD
:1006E300BB010789828A830207ED5005E9F80207F7
:1006F300E0BBFE05E9F80207F989828A830208064E
:10070300BB010DE58229F582E5833AF5830207ED06
:100713005007E92582F80207E0BBFE07E92582F8C6
:100723000207F9E58229F582E5833AF58302080693
:10073300BB010DE58229F582E5833AF5830208536F
:100743005007E92582F802083ABBFE07E92582F83B
:0407530002088422F2
:10075700BC000BBE0029EF8DF084FFADF022E4CC86
:10076700F875F008EF2FFFEE33FEEC33FCEE9DEC4F
:10077700984005FCEE9DFE0FD5F0E9E4CEFD22ED95
:10078700F8F5F0EE8420D21CFEADF075F008EF2FDF
:10079700FFED33FD4007985006D5F0F222C398FDD0
:0507A7000FD5F0EA226D
:0C07AC00E6FC08E6FD08E6FE08E6FF2279
:0C07B800E0FCA3E0FDA3E0FEA3E0FF22B4
:0C07C400E2FC08E2FD08E2FE08E2FF2271
:1007D000E493FC740193FD740293FE740393FF226F
:0D07E000E6FB08E6F908E6FA08E6CBF82289
:0C07ED00E0F8A3E0F9A3E0FAA3E0FB228F
:0D07F900E2FB08E2F908E2FA08E2CBF82280
:10080600E493F8740193F9740293FA740393FB2248
:0C081600ECF608EDF608EEF608EFF6220E
:0C082200ECF0A3EDF0A3EEF0A3EFF02249
:0C082E00ECF208EDF208EEF208EFF22206
:10083A00D083D082E493F608740193F60874029385
:09084A00F608740393F6740473BC
:10085300A8828583F0D083D08212086A12086A12B4
:10086300086A12086AE473E493A3C583C5F0C583D9
:10087300C8C582C8F0A3C583C5F0C583C8C582C8EF
:010883002252
:10088400D083D082E493F208740193F20874029343
:09089400F208740393F27404737A
:00000001FF
