:03000000021BB52B
:0C1BB500787FE4F6D8FD758120021BFC4F
:03000E000D0A00D8
:101E5E009001067440F0A37401F0A3120744000031
:101E6E004B0090010C7401F0A3F0E4A3F0A304F076
:101E7E00A3F0E4A3F07B017A0179067F011208A298
:101E8E009001007401F0E4A3F0A304F0E4A3F0A326
:101E9E0004F0A3F0FB7A017900121F537FF47E0148
:101EAE00120066E4FF121C4190011AEEF0A3EFF04F
:101EBE007B017A0179121214CC7B017A017912120C
:0D1ECE00200F7BFF7A00790E12200F80CFCD
:10006600E4FDFCC3ED9FEC9E50100079207B28DB5D
:0A007600FED9FC0DBD00010C80E96D
:01008000225D
:1020EC00E4FDFCC3ED9FEC9E500B7B06DBFE0DBDAF
:0520FC0000010C80EE64
:0121010022BB
:1012EB00EFD394057480948040037F012212045C39
:1012FB00FED394037480948040037F0222EF7044EA
:10130B00EE700B900001120475F452935294120478
:10131B005C6401700B9000011204754293F45294BB
:10132B0012045CFE6402700A900001120475429371
:10133B004294EE6403700D900001120475FEF4529A
:10134B0093EE4294EF6401704612045CFE700B90B6
:10135B000001120475F452915292EE6401700B90DD
:10136B0000011204754291F4529212045C640270F3
:10137B000A9000011204754291429212045C6403BC
:10138B00700D900001120475FEF45291EE4292EF33
:10139B006402704612045CFE700B9000011204751F
:1013AB00F452955296EE6401700B90000112047585
:1013BB004295F4529612045C6402700A900001127A
:1013CB0004754295429612045C6403700D90000103
:1013DB00120475FEF45295EE4296EF6403704612BA
:1013EB00045CFE700B900001120475F452B152B202
:1013FB00EE6401700B90000112047542B1F452B20D
:10140B0012045C6402700A90000112047542B1422E
:10141B00B212045C6403700D900001120475FEF4AB
:10142B0052B1EE42B2EF6404704612045CFE700BD4
:10143B00900001120475F452B352B4EE6401700BB8
:10144B0090000112047542B3F452B412045C6402AE
:10145B00700A90000112047542B342B412045C642A
:10146B0003700D900001120475FEF452B3EE42B4FA
:10147B00EF6405704912045CFF7E00700B90000155
:10148B00120475F452C952CAEF64014E700B9000EE
:10149B000112047542C9F452CA12045C6402700A48
:1014AB0090000112047542C942CA12045C640370B5
:1014BB000D900001120475FFF452C9EF42CA7F0070
:0114CB0022FE
:101FAF00EFFD7C00700F75BA8090FE8074E0F090AA
:101FBF00FE82E4F022ED64014C701875BA8090FE39
:101FCF00807481F090FE85745AF090FE84E4F09056
:041FDF00FE83F0226B
:101CCD00D200D201E4900205F0E02400F8E290FE8B
:101CDD0086F090FE84E030E605E054BFF02290FEE1
:101CED0084E030E52DE054DFF0300003C2002230F7
:101CFD00010DC20190FE87E0900205F0E0802F906B
:101D0D00FE87E0FF900205E0FE04F074002EF8EF70
:101D1D00F22290FE84E030E41EE054EFF0E030E17A
:101D2D000790FE8674FFF022900205E004F0240077
:101D3D00F8E290FE86F02290FE84E030E308E05455
:071D4D00F7F0D200D20122E1
:0C21760090FE82E030E6F9E054BFF02259
:0921820090FE817401F002217647
:1021280090FE86EFF090FE817402F0122176022173
:012138008B1B
:09218B0090FE817403F00221763C
:0F214A0090FE817404F012217690FE87E0FF2250
:0E21680090FE82E4F090FE817405F002217674
:0F21590090FE827401F090FE817405F0022176F1
:0921940090FE817406F002217630
:10210200E4FFFE000000000FBF00010EBE0BF4BF93
:02211200B8F122
:0121140022A8
:10213900E59A30E103539AFDE59A30E003539AFE9C
:012149002273
:03002300021D5467
:101D5400C0E0C083C082C0D075D000C006C00730C8
:101D64009831C298900197E07029900195E0C3944E
:101D74000B748094804002E4F0900195E0FF04F03D
:101D8400749F2FF582E43401F583E599F090019670
:101D94007405F0309934C299900193E0FF90019258
:101DA400E0FE6F602074B52EF582E43401F583E023
:101DB400F599900192E004F0C3940B7480948040F0
:101DC40009E4F08005900194E4F0D007D006D0D067
:071DD400D082D083D0E03281
:03004300021DDBC0
:101DDB00C0E0C083C082C0D075D000C006C007125F
:101DEB00213990019EE0702990019CE0C3940B7403
:101DFB008094804002E4F090019CE0FF04F074AA10
:101E0B002FF582E43401F583E59BF090019D740579
:101E1B00F012213990019AE0FF900199E0FE6F607A
:101E2B002074C02EF582E43401F583E0F59B90011C
:101E3B0099E004F0C3940B748094804009E4F08023
:101E4B000590019BE4F0D007D006D0D0D082D08390
:031E5B00D0E032A2
:1008A20090011DEBF0A3EAF0A3E9F090011CEFF038
:1008B200D2AF64016003020B1990019104F0E4A32A
:1008C200F0A3F0A3F0A3F0A3F0A3F0900120F09026
:1008D2000120E0FFC3940B74809480501474B52FF0
:1008E200F582E43401F583E4F0900120E004F08025
:1008F200DEE4900120F0900120E0FFC3940B7480AD
:1009020094805014749F2FF582E43401F583E4F04F
:10091200900120E004F080DE90011DE0FBA3E0FAEC
:10092200A3E0F912045CFD7C00D394C0748094802F
:1009320040037F022290000A12047564017004D2FF
:10094200BC8002C2BC12045CFFE598543F4FF5988C
:10095200ED64C04C6008EF64406003020A449000FA
:10096200021207087F807E8D7D5B7C0012059690C7
:100972000121120738E4FFFE7D01FC900121E0F81D
:10098200A3E0F9A3E0FAA3E0FBC312063640037F1B
:100992000222900121E0F8A3E0F9A3E0FAA3E0FB30
:1009A200C3E49BFFE49AFE740199FDE498FC900174
:1009B2002112073890011DE0FBA3E0FAA3E0F990B1
:1009C2000001120475FB7A0064017038C28E538EE6
:1009D200FE5389BF5389CF438E40900121E0FCA38F
:1009E200E0FDA3E0FEA3E0FF78081206478F8D909A
:1009F2000121A3A3A3E0F58BC2AB5389BF538FFDA3
:100A0200D28E807DEB64024A7035538EEF438E01A5
:100A1200538EF7438E04900121E0FCA3E0FDA3E096
:100A2200FEA3E0FF78081206478FD6900121A3A308
:100A3200A3E0F5D753AFFB538EF7438E1080427F6E
:100A4200022290011DE0FBA3E0FAA3E0F912045C8C
:100A5200FF7E007014900008120475640170054353
:100A62008E20801D538EDF8018EF64804E701290AE
:100A72000008120475640170054387808003538760
:100A82007F90011DE0FBA3E0FAA3E0F990000912B8
:100A9200047564017004D2AC8002C2AC90000712EB
:100AA200047564017004D29C8002C29C90000B12F7
:040AB2000475700A4D
:080AB6009001257403F0A31464
:100ABE00802F90011DE0FBA3E0FAA3E0F990000B5C
:0A0ACE001204756480900125701178
:0F0AD8007403F0A37480F07B017A0179257F010C
:020AE700800F7E
:100AE9007403F0A37480F07B017A0179257F0312E6
:020AF90012EBFE
:100AFB0090011DE0FBA3E0FAA3E0F990000B1204B8
:100B0B007554C0FFE5A2543F4FF5A27F0022900120
:100B1B001CE064026003020CBF9001987402F0E4C5
:100B2B00A3F0A3F0A3F0A3F0A3F0A3F0900120F0A7
:100B3B00900120E0FFC3940B74809480501474C018
:100B4B002FF582E43401F583E4F0900120E004F00A
:100B5B0080DEE4900120F0900120E0FFC3940B7441
:100B6B00809480501474AA2FF582E43401F583E449
:100B7B00F0900120E004F080DE90011DE0FBA3E08B
:100B8B00FAA3E0F912045CFF64C06008EF644060F4
:100B9B0003020C4590000A1204756401700543B5FD
:100BAB0001800353B5FE12045C64C07005439A8048
:100BBB008003539A7F9000021207087F807E8D7D01
:100BCB005B7C00120596900121120738E4FFFE7D35
:100BDB0001FC900121E0F8A3E0F9A3E0FAA3E0FB0C
:100BEB00C312063640037F0222900121E0F8A3E0F6
:100BFB00F9A3E0FAA3E0FBC3E49BFFE49AFE7401C4
:100C0B0099FDE498FC900121120738538EEF538E17
:100C1B00F7438E04900121E0FCA3E0FDA3E0FEA3CB
:100C2B00E0FF78081206478FD6900121A3A3A3E01B
:100C3B00F5D753AFFB438E1080037F022290011D2B
:100C4B00E0FBA3E0FAA3E0F990000912047564013C
:100C5B00700543AF01800353AFFE9000071204757C
:100C6B0064017005439A108003539AEF90000B12A6
:070C7B0004759001257010C3
:0E0C82007403F0A314F07B017A0179257F0141
:020C9000800FD3
:100C92007403F0A37480F07B017A0179257F04123A
:020CA20012EB53
:100CA40090011DE0FBA3E0FAA3E0F990000B12040D
:0D0CB400755401FFE5BA54FE4FF5BA7F00FC
:010CC1002210
:10203B0090011FEFF0900194E0701304F090011FDA
:10204B00E0F5993099FDC299E4900194F0227F0557
:07205B007E001220EC80DE84
:101FE30090019AE024C0F582E43401F583EFF09088
:101FF300019AE004F0C3940B748094804002E4F0EF
:0C20030090019BE0700504F012213922CE
:10200F0090011CEBF0A3EAF0A3E9F090011CE0FBB8
:10201F00A3E0FAA3E0F912045CFF600F12203B90DB
:0C202F00011DE475F00112050C80E02298
:1021150012045CFF600C121FE3740129F9E43AFA1A
:0321250080EE2227
:07219D003098FDC298AF99D4
:0121A4002218
:0521A500122139AF9B7F
:0121AA002212
:1014CC0090011EEBF0A3EAF0A3E9F090011CEEF002
:0314DC00A3EFF08B
:1014DF00E4900121F0A3F0C3EE64809480501EE4E9
:1014EF00900125F0A3F090011CE0FEA3E0FFC3E400
:1014FF009FFFE49E90011CF0A3EFF0800890012560
:10150F00E4F0A304F090011CE0FEA3E0FF7C007D5B
:10151F000A1204D6EF4E604B90011CE0FAA3E0FBD9
:10152F007C007D0AFFAE021204D6ED2430FF90013D
:10153F0021E0FCA3E02427F58274013CF583EFF052
:10154F007C007D0AAF03AE021204D690011CEEF0B0
:10155F00A3EFF0900122E004F070AA900121E004C3
:10156F00F080A290011CA3E02430FF900121E0FC49
:10157F00A3E02427F58274013CF583EFF090012559
:10158F00E07002A3E0600302162590011EE0FBA3AA
:10159F00E0FAA3E0F9742D1204A2900121E0FFA359
:1015AF00E0A3CFF0A3EFF0900123E0FEA3E0FFD381
:1015BF0094FFEE6480947F404A74272FF582740164
:1015CF003EF583E0FF900123E0FCA3E0FDC3900113
:1015DF0022E09DFD900121E09CCD2401CD3400FC43
:1015EF0090011EE0FBA3E0FAA3E0F98D828C83EF5C
:1015FF001204B4900124E024FFF0900123E034FFA3
:10160F00F080A490011EE0FBA3E0FAA3E0F99001A3
:10161F0022E024028074900121E0FFA3E0A3CFF029
:10162F00A3EFF0900123E0FEA3E0FFD394FFEE645D
:10163F0080947F404474272FF58274013EF583E038
:10164F00FF900123E0FCA3E0FDC3900122E09DFD8C
:10165F00900121E09CFC90011EE0FBA3E0FAA3E0C7
:10166F00F98D828C83EF1204B4900124E024FFF0F3
:10167F00900123E034FFF080AA90011EE0FBA3E06D
:10168F00FAA3E0F9900122E02401FF900121E03458
:09169F00008F82F583E41204B40B
:0116A800221F
:051EDB004202030000BB
:030003000220D107
:1020D100C0E0C083C082900204E004F07006900268
:0B20E10003E004F0D082D083D0E03296
:0300130002000ADE
:01000A0032C3
:0300530002001197
:0100110032BC
:03005B000200128E
:0100120032BB
:0300830002001662
:0100160032B7
:10198900EFD394107480948040037F0122D2AFEF8B
:10199900703090000212047564017004D2A88002AC
:1019A900C2A890000112047564017004D2B88002C3
:1019B900C2B812045C64017004D2888002C2887FB4
:1019C9000022EF6402703090000212047564017005
:1019D90004D2AA8002C2AA9000011204756401709F
:1019E90004D2BA8002C2BA12045C64017004D28AB9
:1019F9008002C28A7F0022EF640A701590000212E9
:101A0900047564017005438F108003538FEF7F00C5
:101A190022EF640B701590000212047564017005C1
:101A2900438F208003538FDF7F0022EF64107015EE
:101A390090000212047564017005438F40800353BE
:081A49008FBF7F00227F022203
:0A1EE0004201F900004201FB00007E
:03000B00021B08CD
:101B0800C0E0C0F0C083C082C0D075D000C000C0A3
:101B180001C002C003C004C005C006C0079001FA96
:101B2800E004F070069001F9E004F09001F9E0702B
:101B380004A3E0640A705B900203E0FCA3E0FDEC00
:101B48001203A290013E1207389001421207444343
:101B58005200009001467401F0A37401F0A3744987
:101B6800F07F01120CC2900169E0FCA3E0FDA3E044
:101B7800FEA3E0FF9001CC1207387B017A0179CBF4
:101B8800E4FF120FEE9001F9E4F0A3F0900203F0E5
:101B9800A3F0D007D006D005D004D003D002D001DE
:0D1BA800D000D0D0D082D083D0F0D0E03279
:03001B00021A5175
:101A5100C0E0C0F0C083C082C0D075D000C000C05B
:101A610001C002C003C004C005C006C0079001FC4C
:101A7100E004F070069001FBE004F09001FBE070DF
:101A810004A3E0643270651218759001E1E0FCA3D3
:101A9100E0FDA3E0FEA3E0FF90013E1207389001B4
:101AA10042120744000000009001467401F0A37443
:101AB10001F0A3746DF0E4FF120CC27F007E807D03
:101AC100137C4390018DE0F8A3E0F9A3E0FAA3E0D1
:101AD100FB12008D9001D51207387B017A0179D470
:101AE1007F01120FEE9001FBE4F0A3F0D007D006C6
:101AF100D005D004D003D002D001D000D0D0D08204
:071B0100D083D0F0D0E032E8
:0300630002001781
:0100170032B6
:1016A900AD07EDD394027480948040037F0122D268
:1016B900AFED6003021751C28C90000212047564E9
:1016C900017004D2A98002C2A990000112047564B4
:1016D900017004D2B98002C2B912045CFED394032A
:1016E9007480948040037F0222E58954FC4EF58979
:1016F900900003120475FF7E0064017003538E7F0E
:10170900EF4E7003438E80EF64024E7005438904E7
:1017190080035389FB90000412047564017005432A
:101729008F018003538FFE900005120522E5F0F525
:101739008C900005120522F58A9000071204756441
:10174900017002D28C7F0022ED640160030217EA66
:10175900C28E90000212047564017004D2AB80023B
:10176900C2AB90000112047564017004D2BB8002FF
:10177900C2BB12045CFEC394037480948040037F4F
:101789000222E58954CF4EF589900003120475FFB2
:101799007E0064017003538EBFEF4E7003438E4089
:1017A900EF64024E700543894080035389BF90005E
:1017B9000412047564017005438F028003538FFD81
:1017C900900005120522E5F0F58D9000051205221D
:1017D900F58B90000712047564017002D28E7F00A8
:1017E90022ED64026003021872538EEF9000021218
:1017F90004756401700543AF04800353AFFB900087
:1018090003120475FD7C00D3940274809480400314
:101819007F0222ED64014C7003538EFB900003128A
:1018290004757003438E04900003120475640270FA
:1018390005438E088003538EF790000412047564E3
:10184900017005438F048003538FFB900005120537
:1018590022FDACF0ECF5D68DD79000071204756423
:0C186900017003438E107F00227F0222DA
:1020AD0012045C9001FDF09000011204759001FE88
:1020BD00F09000021204759001FFF07B017A017916
:0420CD00FD0219896E
:10002E00E4900200F0A304F0A3F0FB7A027900E45E
:04003E00FF0220ADF0
:101EEA0060240149402000003F4CCCCD0000000096
:101EFA00000000000000000000000000447500001F
:101F0A0000000000000000006024016D3F80000016
:101F1A003D4CCCCD3C23D70A000000000000000055
:101F2A0000000000C2E1000042E1000000000000E1
:100CC20090013DEFF06003020E8D900146E0FBA320
:100CD200E0FAA3E0F990000C12067A9000101206D6
:100CE200C490013EE0F8A3E0F9A3E0FAA3E0FBA37D
:100CF200E0FCA3E0FDA3E0FEA3E0FF120089900167
:100D020046E0FBA3E0FAA3E0F990000C1206C4E966
:100D12002414F9E43AFAC003C002C00112065A9040
:100D22000146E0FBA3E0FAA3E0F990000C120708E9
:100D320012008DD001D002D0031206AA900146E023
:100D4200FBA3E0FAA3E0F990001412067AE4FBFA9E
:100D520079A078401203245015900146E0FBA3E0ED
:100D6200FAA3E0F990001412077540A00000900168
:100D720046E0FBA3E0FAA3E0F990001412067AE43D
:100D8200FBFA79A078C0120324601740159001463F
:100D9200E0FBA3E0FAA3E0F9900014120775C0A0EB
:100DA2000000900146E0FBA3E0FAA3E0F9900014F2
:100DB20012067A90000412070812017EC004C005D0
:100DC200C006C007900146E0FBA3E0FAA3E0F99059
:100DD200000C12067A1206E812017ED003D002D06D
:100DE20001D00012008DC004C005C006C0079001EA
:100DF20046E0FBA3E0FAA3E0F9900010120708C056
:100E020000C001C002C003900146E0FBA3E0FAA3C8
:100E1200E0F990000C12067AD003D002D001D00083
:100E2200120089900146E0FBA3E0FAA3E0F99000EA
:100E32000812070812017ED003D002D001D000129E
:100E4200008D900146E0FBA3E0FAA3E0F9900020B8
:100E52001206C490001812067A9000201207081297
:100E6200032460054003020FAA900146E0FBA3E0C1
:100E7200FAA3E0F990001C12067A900020120708EB
:100E82001203244003020FED020FD690013DE064ED
:100E9200016003020FED900146E0FBA3E0FAA3E03C
:100EA200F990000C12067A9000101206C490013ECE
:100EB200E0F8A3E0F9A3E0FAA3E0FBA3E0FCA3E0DF
:100EC200FDA3E0FEA3E0FF120089900146E0FBA330
:100ED200E0FAA3E0F990000C1206C4E92420F9E438
:100EE2003AFAC003C002C00112065AC004C005C0CB
:100EF20006C007900146E0FBA3E0FAA3E0F99000E8
:100F020010120708C000C001C002C003900146E0F1
:100F1200FBA3E0FAA3E0F990000C12067AD003D00A
:100F220002D001D000120089900146E0FBA3E0FA52
:100F3200A3E0F91206E812017EC004C005C006C093
:100F420007900146E0FBA3E0FAA3E0F990000C123F
:100F5200067A90000412070812017EA804A905AAC5
:100F620006AB07D007D006D005D00412008DA80426
:100F7200A905AA06AB07D007D006D005D0041200F7
:100F82008DD001D002D0031206AA900146E0FBA345
:100F9200E0FAA3E0F990001812067A9000201207F6
:100FA2000812032460124010900146E0FBA3E0FA0D
:100FB200A3E0F9900018802A900146E0FBA3E0FA32
:100FC200A3E0F990001C12067A9000201207081282
:100FD20003245017900146E0FBA3E0FAA3E0F99046
:0C0FE200001C12067A9000201206C422A7
:10206200E49001E9F0A304F0A3F0E4A3F0A304F0E8
:10207200A374A2F0A37440F0A37401F0FB7A017977
:06208200E9E4FF0216A9CB
:101F3A004901CB0000000000464350004901D4008B
:081F4A004313800042C80000AF
:0E0FEE0090013DEFF0A3EBF0A3EAF0A3E9F0D1
:100FFC00A3120744000000009001451207440000B2
:10100C00000090013EE0FBA3E0FAA3E0F99000059C
:10101C001207087F007E1B7DB77C49120287900166
:10102C004112073890013EE0FBA3E0FAA3E0F990EF
:10103C000001120708E4FFFE7D7A7C44120089E46B
:10104C00FBFA797A784412028790014512073875B9
:10105C00BA8090FFF2740FF0900141E0FCA3E0FD28
:10106C00A3E0FEA3E0FF1203DB90FFF0EEF0A3EF92
:10107C00F090013DE0B4080040030212E49010909F
:10108C00F82828730210A80210F0021138021180FF
:10109C000211C802121002125802129F90FF00E4B3
:1010AC00F0A3F0900145E0FCA3E0FDA3E0FEA3E07B
:1010BC00FF900141E0F8A3E0F9A3E0FAA3E0FB12F2
:1010CC00017E1203DB90FF02EEF0A3EFF090013EE5
:1010DC00E0FBA3E0FAA3E0F912045C448090FF0467
:1010EC00F00212E490FF10E4F0A3F0900145E0FC54
:1010FC00A3E0FDA3E0FEA3E0FF900141E0F8A3E034
:10110C00F9A3E0FAA3E0FB12017E1203DB90FF12BD
:10111C00EEF0A3EFF090013EE0FBA3E0FAA3E0F9C0
:10112C0012045C448090FF14F00212E490FF20E45F
:10113C00F0A3F0900145E0FCA3E0FDA3E0FEA3E0EA
:10114C00FF900141E0F8A3E0F9A3E0FAA3E0FB1261
:10115C00017E1203DB90FF22EEF0A3EFF090013E34
:10116C00E0FBA3E0FAA3E0F912045C448090FF24B6
:10117C00F00212E490FF30E4F0A3F0900145E0FCA3
:10118C00A3E0FDA3E0FEA3E0FF900141E0F8A3E0A3
:10119C00F9A3E0FAA3E0FB12017E1203DB90FF320D
:1011AC00EEF0A3EFF090013EE0FBA3E0FAA3E0F930
:1011BC0012045C448090FF34F00212E490FF40E48F
:1011CC00F0A3F0900145E0FCA3E0FDA3E0FEA3E05A
:1011DC00FF900141E0F8A3E0F9A3E0FAA3E0FB12D1
:1011EC00017E1203DB90FF42EEF0A3EFF090013E84
:1011FC00E0FBA3E0FAA3E0F912045C448090FF4406
:10120C00F00212E490FF50E4F0A3F0900145E0FCF2
:10121C00A3E0FDA3E0FEA3E0FF900141E0F8A3E012
:10122C00F9A3E0FAA3E0FB12017E1203DB90FF525C
:10123C00EEF0A3EFF090013EE0FBA3E0FAA3E0F99F
:10124C0012045C448090FF54F00212E490FF60E4BE
:10125C00F0A3F0900145E0FCA3E0FDA3E0FEA3E0C9
:10126C00FF900141E0F8A3E0F9A3E0FAA3E0FB1240
:10127C00017E1203DB90FF62EEF0A3EFF090013ED3
:10128C00E0FBA3E0FAA3E0F912045C448090FF6455
:10129C00F0804590FF70E4F0A3F0900145E0FCA3D2
:1012AC00E0FDA3E0FEA3E0FF900141E0F8A3E0F92C
:1012BC00A3E0FAA3E0FB12017E1203DB90FF72EEB7
:1012CC00F0A3EFF090013EE0FBA3E0FAA3E0F912EB
:0E12DC00045C448090FF74F0E4F5BA75FE8067
:0112EA0022E1
:10187500E490013DF0FFFEA3F01221827FA012212A
:10188500287F3D1221281221827FA11221281221B1
:101895004A90013DEFF012216812214A90013EEF76
:1018A500F012215912219490013EE0FE90013DE095
:1018B500FDEDFFAC06EC1203A2E4FBFAF978471242
:1018C5000287E4FBFA7934784312017E9001DD1238
:1018D50007381221827FA01221287F3E122128126B
:1018E50021827FA112212812214A90013DEFF01299
:1018F500216812214A90013EEFF0122159122194DC
:1019050090013EE0FE90013DE0FDEDFFAC06EC12DE
:1019150003A2E4FBFAF97847120287E4FBFA79346B
:10192500784312017E9001E11207381221827FA0CF
:101935001221287F3F1221281221827FA1122128FE
:1019450012214A90013DEFF012216812214A9001BF
:101955003EEFF012215912219490013EE0FE9001D4
:101965003DE0FDEDFFAC06EC1203A2E4FBFAF978CD
:1019750047120287E4FBFA7934784312017E90011D
:04198500E502073838
:10208800E49001F1F0A304F0A3F0E4A3F0A304F0BA
:10209800A374A2F0A37440F0A37401F0FB7A017951
:0520A800F1FF0216A982
:03002B00020006CA
:0400060053BCDF32D6
:101F5300D2AFE4F59212045C429190000112047531
:101F6300FFE5BC549F4FF5BC900002120475640159
:101F7300700543BC80800353BC7F9000031204753B
:101F83006401700543DE20800353DEDF90000512F9
:101F9300047564017004D2AD8002C2AD90000412D6
:0C1FA300047564017003D2BD22C2BD228F
:0D004600EF6401700443BC802253BC7F2294
:101C4100EFD39407748094804002807BE4F5BDF566
:101C5100BEE5BC54E044404FF5BC0000E4FDEDC3DB
:101C610094FA74809480505FE5BC20E55753BCDF43
:101C7100E5DE30E51FE5BD5403FF90011CE4F0A350
:101C8100EFF0E0FEACBEECFBEBFF90011CEEF0A32D
:101C9100EFF08027AFBDEF90011CF0A3E4F0AFBEE1
:101CA10090011CE0F0A3E04FF090011CE0C4F85457
:101CB100F0C868F0A3E0C4540F48F090011CE0FEA6
:0B1CC100A3E0FF220D80977E047F004F
:011CCC0022F5
:10008600020447E86480F8E933E83360110460F05D
:10009600ED33EC337009E8FCE9FDEAFEEBFF2204E0
:1000A60060DED3EB9FEA9EE99DE8C2E78CF0C2F7DB
:1000B60095F0400CE8CCF8E9CDF9EACEFAEBCFFBA7
:1000C60012041285D0F05804700320D5B3E80470EA
:1000D600075002B2D502045192D5EC0460F7E4CC85
:1000E600C0E0C398F8603B94186008400DD0E0FB70
:1000F600020429E4FBFAC9FC8028E830E406E4C9D6
:10010600FBE4CAFCE830E305E4C9CACBFCE85407C3
:100116006010F8C3E913F9EA13FAEB13FBEC13FCCE
:10012600D8F130F52FC3E49CFCEF9BFFEE9AFEED71
:1001360099FDD0E0FBEF4E4D4C701222DB0302041A
:100146004EEC2CFCEF33FFEE33FEED33FDED30E7E6
:10015600EB020429EF2BFFEE3AFEED39FDD0E0FB72
:1001660050130BBB0003020451ED13FDEE13FEEF1B
:0801760013FFEC13FC02042945
:10017E00EC4D6011E8497017ED33EC3304600DE47B
:10018E00FCFFFEFD22E933E8330470F80204471247
:10019E00041258046009E4CC248150062850090248
:1001AE00045128400302044EC0E0EB4A7044B9806B
:1001BE0006D0E0FB02043DEF4E701CBD8008EBFF45
:1001CE00EAFEE9FD80EBE98DF0A4FEE5F0020267A0
:1001DE00E9CDF9EAFEEBFFEF89F0A4FCE5F0CE895C
:1001EE00F0A42EFFE435F0CD89F0A42DFEE435F019
:1001FE008067EF4E7005BD80D780C3EF8BF0A4AC47
:10020E00F0EE8BF0A42CFCE435F0F8EF8AF0A42C81
:10021E00E5F038FCE433CB8DF0A42CFCE5F03BF894
:10022E00EE8AF0A42CFCE5F038F8E433CF89F0A484
:10023E002CFCE5F038CF3400CE89F0A42FFFE5F08A
:10024E003EFEE433C98DF0A42EFEE5F039CD8AF0E2
:10025E00A42FFFE5F03EFEE43DFD33D0E0FB50075A
:10026E000BBB000F020451EC2CFCEF33FFEE33FE00
:06027E00ED33FD0204292E
:10028400020451EC5D046005E8590470030204475C
:10029400120412580460F6EC4860F2EC7004FDFE9F
:1002A400FF22C860DB2481C85009C398600250064D
:1002B40002044E9850CAF582E9294B4A7005AB8274
:1002C40002043D75F0007C1A7880C3EF9BEE9AED32
:1002D40099400DC3EF9BFFEE9AFEED99FDE842F0C5
:1002E400DC23ACF0D0E0FFD0E0FED0E0FDAB822018
:1002F400E7101BEB60BAEC2CFCEF33FFEE33FEEDA2
:1003040033FD020429E803F830E705C0F075F00076
:10031400EF2FFFEE33FEED33FD40B830E7C280AA85
:1003240074F8CC6480CCC86480C8F58204604FC380
:10033400EB9FF5F0EA9E42F0E99D42F0E89C45F01F
:10034400603C501DE5825FFFE582D313CB5BCBF4A9
:100354002B5582FB50280ABA002409B900200880D2
:100364001DE5825BFBE582D313CF5FCFF4C3132F6C
:100374005582FF50090EBE00050DBD00010CC3EBF4
:100384009FF5F0EA9E42F0E99D42F0E89C45F0605A
:0903940007CC4820E701B3EC227C
:10039D0075F020800E75F010800575F0087D007EDB
:1003AD00007F003392D530D503120628EC33401070
:1003BD00EF33FFEE33FEED33FDEC33FCD5F0ED22E4
:0E03CD00E5F0247EA2D513CC92E7CDCEFF2220
:1003DB00EDD2E7CD33EC3392D524814006E4FFFE1A
:1003EB00FDFC22FCE4CFCECDCC24E0501174FF8079
:1003FB00EDC3CC13CCCD13CDCE13CECF13CF047016
:07040B00F030D5DE020628E7
:10041200E9D2E7C933E833F892D5EDD2E7CD33EC30
:0704220033FC5002B2D522A9
:10042900EC30E7100FBF000C0EBE00080DBD000434
:100439000BEB6014A2D5EB13FCED92E7FD2274FFE0
:10044900FCFDFEFF22E480F8A2D574FF13FC7D8039
:03045900E480EF4D
:101BC100021E5EE493A3F8E493A34003F68001F2BE
:101BD10008DFF48029E493A3F85407240CC8C33325
:101BE100C4540F4420C8834004F456800146F6DFF4
:101BF100E4800B0102040810204080901EDBE47E8B
:101C0100019360BCA3FF543F30E509541FFEE493E8
:101C1100A360010ECF54C025E060A840B8E493A3AF
:101C2100FAE493A3F8E493A3C8C582C8CAC583CADA
:101C3100F0A3C8C582C8CAC583CADFE9DEE780BE92
:011F5200008E
:10045C00BB010689828A83E0225002E722BBFE029E
:09046C00E32289828A83E49322D1
:10047500BB010CE58229F582E5833AF583E022503C
:1004850006E92582F8E622BBFE06E92582F8E22286
:0D049500E58229F582E5833AF583E49322A0
:1004A200BB010689828A83F0225002F722BBFE0139
:0204B200F32233
:1004B400F8BB010DE58229F582E5833AF583E8F07E
:1004C400225006E92582C8F622BBFE05E92582C82A
:0204D400F22212
:1004D600C2D5EC30E709B2D5E4C39DFDE49CFCEE41
:1004E60030E715B2D5E4C39FFFE49EFE120799C319
:1004F600E49DFDE49CFC800312079930D507C3E414
:060506009FFFE49EFE22AF
:10050C00C5F0F8A3E028F0C5F0F8E582158270027A
:06051C001583E038F02217
:10052200BB0110E58229F582E5833AF583E0F5F017
:10053200A3E0225009E92582F886F008E622BBFEF4
:100542000AE92582F8E2F5F008E222E5832AF5833A
:08055200E993F5F0A3E99322FF
:10055A0075F008758200EF2FFFEE33FECD33CDCC58
:10056A0033CCC58233C5829BED9AEC99E5829840DB
:10057A000CF582EE9BFEED9AFDEC99FC0FD5F0D6B8
:10058A00E4CEFBE4CDFAE4CCF9A88222B800C1B9E2
:10059A000059BA002DEC8BF084CFCECDFCE5F0CB20
:1005AA00F97818EF2FFFEE33FEED33FDEC33FCEB59
:1005BA0033FB10D703994004EB99FB0FD8E5E4F914
:1005CA00FA227818EF2FFFEE33FEED33FDEC33FC01
:1005DA00C933C910D7059BE99A4007EC9BFCE99AF5
:1005EA00F90FD8E0E4C9FAE4CCFB2275F010EF2F3A
:1005FA00FFEE33FEED33FDCC33CCC833C810D7073A
:10060A009BEC9AE899400AED9BFDEC9AFCE899F874
:0E061A000FD5F0DAE4CDFBE4CCFAE4C8F92207
:0E062800C3E49FFFE49EFEE49DFDE49CFC22E3
:10063600EB9FF5F0EA9E42F0E99D42F0E89C45F01A
:010646002291
:10064700E8600FECC313FCED13FDEE13FEEF13FF91
:03065700D8F122B5
:10065A00BB010789828A830207FA5005E9F8020773
:10066A00EEBBFE05E9F802080689828A83020812AF
:10067A00BB010DE58229F582E5833AF5830207FA83
:10068A005007E92582F80207EEBBFE07E92582F842
:10069A00020806E58229F582E5833AF58302081203
:1006AA00BB010789828A830207385005E9F80208E4
:0A06BA0058BBFE05E9F802086422AF
:1006C400BB010DE58229F582E5833AF583020738FB
:1006D4005007E92582F8020858BBFE07E92582F88D
:0406E4000208642282
:1006E800BB010789828A8302082F5005E9F80208AE
:1006F80022BBFE05E9F802083B89828A8302084882
:10070800BB010DE58229F582E5833AF58302082FBE
:100718005007E92582F8020822BBFE07E92582F87E
:1007280002083BE58229F582E5833AF58302084809
:0C073800ECF0A3EDF0A3EEF0A3EFF02234
:10074400A8828583F0D083D08212075B12075B12E4
:10075400075B12075BE473E493A3C583C5F0C58309
:10076400C8C582C8F0A3C583C5F0C583C8C582C8FF
:010774002262
:10077500BB010DE58229F582E5833AF5830207443D
:100785005007E92582F8020870BBFE07E92582F8C3
:0407950002088922AB
:10079900BC000BBE0029EF8DF084FFADF022E4CC44
:1007A900F875F008EF2FFFEE33FEEC33FCEE9DEC0D
:1007B900984005FCEE9DFE0FD5F0E9E4CEFD22ED53
:1007C900F8F5F0EE8420D21CFEADF075F008EF2F9D
:1007D900FFED33FD4007985006D5F0F222C398FD8E
:0507E9000FD5F0EA222B
:0C07EE00E6FC08E6FD08E6FE08E6FF2237
:0C07FA00E0FCA3E0FDA3E0FEA3E0FF2272
:0C080600E2FC08E2FD08E2FE08E2FF222E
:10081200E493FC740193FD740293FE740393FF222C
:0D082200E6FB08E6F908E6FA08E6CBF82246
:0C082F00E0F8A3E0F9A3E0FAA3E0FB224C
:0D083B00E2FB08E2F908E2FA08E2CBF8223D
:10084800E493F8740193F9740293FA740393FB2206
:0C085800ECF608EDF608EEF608EFF622CC
:0C086400ECF208EDF208EEF208EFF222D0
:10087000D083D082E493F608740193F6087402934F
:09088000F608740393F674047386
:10088900D083D082E493F208740193F2087402933E
:09089900F208740393F274047375
:00000001FF
