:03000000022907CB
:0C290700787FE4F6D8FD75812002294E8F
:01000A0022D3
:102EFF00E4FDFCC3ED9FEC9E50100079207B28DB96
:0A2F0F00FED9FC0DBD00010C80E9A5
:012F19002295
:102F3500E4FDFCC3ED9FEC9E500B7B06DBFE0DBD57
:052F450000010C80EE0C
:012F4A002264
:101B4D00EFD394057480948040037F0122120563C6
:101B5D00FED394037480948040037F0222EF70447F
:101B6D00EE700B90000112057CF452935294120505
:101B7D00636401700B90000112057C4293F4529442
:101B8D00120563FE6402700A90000112057C4293F7
:101B9D004294EE6403700D90000112057CFEF45228
:101BAD0093EE4294EF64017046120563FE700B9044
:101BBD00000112057CF452915292EE6401700B906B
:101BCD00000112057C4291F4529212056364027079
:101BDD000A90000112057C42914292120563640342
:101BED00700D90000112057CFEF45291EE4292EFC1
:101BFD0064027046120563FE700B90000112057CA5
:101C0D00F452955296EE6401700B90000112057C12
:101C1D004295F452961205636402700A9000011207
:101C2D00057C429542961205636403700D90000188
:101C3D0012057CFEF45295EE4296EF640370461247
:101C4D000563FE700B90000112057CF452B152B287
:101C5D00EE6401700B90000112057C42B1F452B29A
:101C6D001205636402700A90000112057C42B142B4
:101C7D00B21205636403700D90000112057CFEF431
:101C8D0052B1EE42B2EF64047046120563FE700B62
:101C9D0090000112057CF452B352B4EE6401700B46
:101CAD0090000112057C42B3F452B4120563640234
:101CBD00700A90000112057C42B342B412056364B0
:101CCD0003700D90000112057CFEF452B3EE42B488
:101CDD00EF64057049120563FF7E00700B900001E3
:101CED0012057CF452C952CAEF64014E700B90007C
:101CFD000112057C42C9F452CA1205636402700ACE
:101D0D0090000112057C42C942CA1205636403703A
:101D1D000D90000112057CFFF452C9EF42CA7F00FD
:011D2D002293
:102D5E00EFFD7C00700F75BA8090FE8074E0F090ED
:102D6E00FE82E4F022ED64014C701875BA8090FE7C
:102D7E00807481F090FE85745AF090FE84E4F09099
:042D8E00FE83F022AE
:102A1F00D200D201E49004A7F0E02400F8E290FE87
:102A2F0086F090FE84E030E605E054BFF02290FE81
:102A3F0084E030E52DE054DFF0300003C200223097
:102A4F00010DC20190FE87E09004A7F0E0802F9067
:102A5F00FE87E0FF9004A7E0FE04F074002EF8EF6D
:102A6F00F22290FE84E030E41EE054EFF0E030E11B
:102A7F000790FE8674FFF0229004A7E004F0240074
:102A8F00F8E290FE86F02290FE84E030E308E054F6
:072A9F00F7F0D200D2012282
:0C2FEB0090FE82E030E6F9E054BFF022D6
:092FF70090FE817401F0022FEB41
:102F9D0090FE86EFF090FE817402F0122FEB02305E
:012FAD000023
:0930000090FE817403F0022FEB35
:0F2FBF0090FE817404F0122FEB90FE87E0FF224A
:0E2FDD0090FE82E4F090FE817405F0022FEB6E
:0F2FCE0090FE827401F090FE817405F0022FEBEB
:0930090090FE817406F0022FEB29
:102F7700E4FFFE000000000FBF00010EBE0BF4BF10
:022F8700B8F19F
:012F89002225
:102FAE00E59A30E103539AFDE59A30E003539AFE19
:012FBE0022F0
:03002300022AA608
:102AA600C0E0C083C082C0D075D000C006C0073069
:102AB6009831C298900376E07029900374E0C3942D
:102AC6000B748094804002E4F0900374E0FF04F0FD
:102AD600747E2FF582E43403F583E599F09003754F
:102AE6007405F0309934C299900372E0FF90037137
:102AF600E0FE6F602074942EF582E43403F583E0E3
:102B0600F599900371E004F0C3940B7480948040AF
:102B160009E4F08005900373E4F0D007D006D0D026
:072B2600D082D083D0E03221
:03004300022B2D60
:102B2D00C0E0C083C082C0D075D000C006C00712FF
:102B3D002FAE90037DE0702990037BE0C3940B745E
:102B4D008094804002E4F090037BE0FF04F07489F0
:102B5D002FF582E43403F583E59BF090037C740537
:102B6D00F0122FAE900379E0FF900378E0FE6F60D6
:102B7D0020749F2EF582E43403F583E0F59B9003DA
:102B8D0078E004F0C3940B748094804009E4F080E5
:102B9D000590037AE4F0D007D006D0D0D082D08350
:032BAD00D0E03243
:1009A90090045AEBF0A3EAF0A3E9F0900459EFF0B0
:1009B900D2AF64016003020C2090037004F0E4A339
:1009C900F0A3F0A3F0A3F0A3F0A3F090045DF090DE
:1009D900045DE0FFC3940B74809480501474942FC9
:1009E900F582E43403F583E4F090045DE004F080DB
:1009F900DEE490045DF090045DE0FFC3940B748025
:100A090094805014747E2FF582E43403F583E4F066
:100A190090045DE004F080DE90045AE0FBA3E0FA64
:100A2900A3E0F9120563FD7C00D394C0748094801F
:100A390040037F022290000A12057C64017004D2EF
:100A4900BC8002C2BC120563FFE598543F4FF5987C
:100A5900ED64C04C6008EF64406003020B4B9000EA
:100A6900021208647F807E8D7D5B7C001206F29005
:100A7900045E120894E4FFFE7D01FC90045EE0F838
:100A8900A3E0F9A3E0FAA3E0FBC312079240037FB6
:100A9900022290045EE0F8A3E0F9A3E0FAA3E0FBE8
:100AA900C3E49BFFE49AFE740199FDE498FC900469
:100AB9005E12089490045AE0FBA3E0FAA3E0F990CF
:100AC900000112057CFB7A0064017038C28E538ED6
:100AD900FE5389BF5389CF438E4090045EE0FCA347
:100AE900E0FDA3E0FEA3E0FF78081207A38F8D9035
:100AF900045EA3A3A3E0F58BC2AB5389BF538FFD5B
:100B0900D28E807DEB64024A7035538EEF438E019D
:100B1900538EF7438E0490045EE0FCA3E0FDA3E04E
:100B2900FEA3E0FF78081207A38FD690045EA3A363
:100B3900A3E0F5D753AFFB538EF7438E1080427F66
:100B4900022290045AE0FBA3E0FAA3E0F91205633C
:100B5900FF7E00701490000812057C640170054343
:100B69008E20801D538EDF8018EF64804E701290A6
:100B7900000812057C640170054387808003538750
:100B89007F90045AE0FBA3E0FAA3E0F99000091270
:100B9900057C64017004D2AC8002C2AC90000712DB
:100BA900057C64017004D29C8002C29C90000B12E7
:040BB900057C700A3D
:080BBD009004627403F0A3141C
:100BC500802F90045AE0FBA3E0FAA3E0F990000B14
:0A0BD50012057C6480900462701128
:0F0BDF007403F0A37480F07B017A0479627F01C4
:020BEE00800F76
:100BF0007403F0A37480F07B017A0479627F03129E
:020C00001B4D8A
:100C020090045AE0FBA3E0FAA3E0F990000B12056E
:100C12007C54C0FFE5A2543F4FF5A27F002290040E
:100C220059E064026003020DC69003777402F0E497
:100C3200A3F0A3F0A3F0A3F0A3F0A3F090045DF05F
:100C420090045DE0FFC3940B748094805014749FF1
:100C52002FF582E43403F583E4F090045DE004F0C0
:100C620080DEE490045DF090045DE0FFC3940B74B9
:100C7200809480501474892FF582E43403F583E460
:100C8200F090045DE004F080DE90045AE0FBA3E003
:100C9200FAA3E0F9120563FF64C06008EF644060E4
:100CA20003020D4C90000A12057C6401700543B5E5
:100CB20001800353B5FE12056364C07005439A8038
:100CC2008003539A7F9000021208647F807E8D7D9C
:100CD2005B7C001206F290045E120894E4FFFE7D33
:100CE20001FC90045EE0F8A3E0F9A3E0FAA3E0FBC4
:100CF200C312079240037F022290045EE0F8A3E051
:100D0200F9A3E0FAA3E0FBC3E49BFFE49AFE7401BB
:100D120099FDE498FC90045E120894538EEF538E72
:100D2200F7438E0490045EE0FCA3E0FDA3E0FEA383
:100D3200E0FF78081207A38FD690045EA3A3A3E076
:100D4200F5D753AFFB438E1080037F022290045AE3
:100D5200E0FBA3E0FAA3E0F990000912057C64012C
:100D6200700543AF01800353AFFE90000712057C6C
:100D720064017005439A108003539AEF90000B129E
:070D8200057C900462701073
:0E0D89007403F0A314F07B017A0479627F01F9
:020D9700800FCB
:100D99007403F0A37480F07B017A0479627F0412F2
:020DA9001B4DE0
:100DAB0090045AE0FBA3E0FAA3E0F990000B1205C4
:0D0DBB007C5401FFE5BA54FE4FF5BA7F00ED
:010DC8002208
:102DEA009004A8EFF0900373E0701304F09004A825
:102DFA00E0F5993099FDC299E4900373F0227F05BA
:072E0A007E00122F3580DE6F
:102D9200900379E0249FF582E43403F583EFF09009
:102DA2000379E004F0C3940B748094804002E4F051
:0C2DB20090037AE0700504F0122FAE22AE
:102DBE0090048EEBF0A3EAF0A3E9F090048EE0FB12
:102DCE00A3E0FAA3E0F9120563FF600F122DEA905B
:0C2DDE00048FE475F00112066880E0220A
:102F8A00120563FF600C122D92740129F9E43AFAD2
:032F9A0080EE22A4
:07301B003098FDC298AF9947
:01302200228B
:05302300122FAEAF9B6F
:013028002285
:101D2E00900419EBF0A3EAF0A3E9F0900417EEF09B
:031D3E00A3EFF020
:101D4100E490041CF0A3F0C3EE64809480501EE480
:101D5100900420F0A3F0900417E0FEA3E0FFC3E499
:101D61009FFFE49E900417F0A3EFF08008900420F9
:101D7100E4F0A304F0900417E0FEA3E0FF7C007DF3
:101D81000A120632EF4E604B900417E0FAA3E0FB13
:101D91007C007D0AFFAE02120632ED2430FF900472
:101DA1001CE0FCA3E02422F58274043CF583EFF0EF
:101DB1007C007D0AAF03AE02120632900417EEF0EA
:101DC100A3EFF090041DE004F070AA90041CE0045D
:101DD100F080A2900417A3E02430FF90041CE0FCE3
:101DE100A3E02422F58274043CF583EFF0900420F3
:101DF100E07002A3E06003021E87900419E0FBA3D8
:101E0100E0FAA3E0F9742D1205A990041CE0FFA3E8
:101E1100E0A3CFF0A3EFF090041EE0FEA3E0FFD318
:101E210094FFEE6480947F404A74222FF5827404FB
:101E31003EF583E0FF90041EE0FCA3E0FDC39004A7
:101E41001DE09DFD90041CE09CCD2401CD3400FCDF
:101E5100900419E0FBA3E0FAA3E0F98D828C83EFF3
:101E61001205BB90041FE024FFF090041EE034FF34
:101E7100F080A4900419E0FBA3E0FAA3E0F9900438
:101E81001DE02402807490041CE0FFA3E0A3CFF0C6
:101E9100A3EFF090041EE0FEA3E0FFD394FFEE64F5
:101EA10080947F404474222FF58274043EF583E0D0
:101EB100FF90041EE0FCA3E0FDC390041DE09DFD26
:101EC10090041CE09CFC900419E0FBA3E0FAA3E061
:101ED100F98D828C83EF1205BB90041FE024FFF083
:101EE10090041EE034FFF080AA900419E0FBA3E007
:101EF100FAA3E0F990041DE02401FF90041CE034F2
:091F0100008F82F583E41205BB98
:011F0A0022B4
:1016960090043E120894900442EBF0A3EAF0A3E90A
:0116A600F053
:1016A700E4FFFEFDFC90043EE0F8A3E0F9A3E0FAB6
:1016B700A3E0FB120324900442E0FBA3E0FAA3E0BB
:1016C700F94007742B1205A9801C742D1205A990E7
:1016D700043EE0FCA3E0FDA3E0FEA3E0FF12039DB0
:1016E70090043E12089490043EE0FCA3E0FDA3E0C2
:1016F700FEA3E0FF1203EC900447EEF0A3EFF0E443
:10170700A3F0A3F0900447E0FEA3E0FF4E601F7C28
:10171700007D0A120632900447EEF0A3EFF0900422
:101727004AE004F070DE900449E004F080D69004AB
:101737003EE0FCA3E0FDA3E0FEA3E0FF1203EC9074
:101747000447EEF0A3EFF0A3E0FFA3E0A3CFF0A3DD
:10175700EFF0D390044CE0940090044BE064809445
:10176700804054900447E0FEA3E0FF7C007D0A120E
:101777000632ED2430FF900442E0FBA3E0FAA3E039
:10178700F990044BE0FCA3E0F5828C83EF1205BBD4
:10179700900447E0FEA3E0FF7C007D0A120632902A
:1017A7000447EEF0A3EFF090044CE024FFF0900420
:1017B7004BE034FFF0809B900442E0FBA3E0FAA3E8
:1017C700E0F990044AE02401FF900449E034008FD7
:1017D70082F583742E1205BB90043EE0FCA3E0FD66
:1017E700A3E0FEA3E0FFC004C005C006C007900445
:1017F7003EA3A3A3E01203ECAD07AC06EC1203B3C0
:10180700A804A905AA06AB07D007D006D005D004BF
:1018170012008990043E12089490044AE02402F0D2
:10182700900449E03400F0900446E024FFFF900460
:1018370045E034FFFEC390044AE09FEE6480F890D1
:101847000449E064809840030218F190043EE0FCEC
:10185700A3E0FDA3E0FEA3E0FFE4FBFA79207841D3
:1018670012017E90043E12089490043EE0FCA3E02F
:10187700FDA3E0FEA3E0FF1203ECEF2430FF90048A
:1018870042E0FBA3E0FAA3E0F9900449E0FCA3E0FF
:10189700F5828C83EF1205BB90043EE0FCA3E0FDCC
:1018A700A3E0FEA3E0FFC004C005C006C007900484
:1018B7003EA3A3A3E01203ECAD07AC06EC1203B3FF
:1018C700A804A905AA06AB07D007D006D005D004FF
:1018D70012008990043E12089490044AE004F070C4
:1018E70006900449E004F002182E900442E0FBA39E
:1018F700E0FAA3E0F9900446E024FFFF900445E0F6
:0A19070034FF8F82F583E40205BB74
:0513F20042049D000013
:03000300022F1AAF
:102F1A00C0E0C083C08290049EE004F07006900472
:0B2F2A009DE004F0D082D083D0E032A4
:0300130002000EDA
:01000E0032BF
:0300530002000F99
:01000F0032BE
:03005B0002001090
:0100100032BD
:0300830002001167
:0100110032BC
:10257C00EFD394107480948040037F0122D2AFEF8C
:10258C00703090000212057C64017004D2A88002A5
:10259C00C2A890000112057C64017004D2B88002BC
:1025AC00C2B812056364017004D2888002C2887FAD
:1025BC000022EF6402703090000212057C640170FE
:1025CC0004D2AA8002C2AA90000112057C64017098
:1025DC0004D2BA8002C2BA12056364017004D28AB2
:1025EC008002C28A7F0022EF640A701590000212EA
:1025FC00057C64017005438F108003538FEF7F00BF
:10260C0022EF640B701590000212057C64017005BA
:10261C00438F208003538FDF7F0022EF64107015EF
:10262C0090000212057C64017005438F40800353B7
:08263C008FBF7F00227F022204
:0A13F70042048A000042048C00004A
:03000B000227B811
:1027B800C0E0C0F0C083C082C0D075D000C000C0E7
:1027C80001C002C003C004C005C006C00790048B46
:1027D800E004F0700690048AE004F090048AE07047
:1027E80004A3E0640A705B90049DE0FCA3E0FDECA8
:1027F8001203B39003F61208949003FA1208A04348
:102808005200009003FE7401F0A37403F0A374282F
:10281800F07F01120DC9900348E0FCA3E0FDA3E09E
:10282800FEA3E0FF90042D1208947B017A04792C12
:10283800E4FF1210F590048AE4F0A3F090049DF0F0
:10284800A3F0D007D006D005D004D003D002D00121
:0D285800D000D0D0D082D083D0F0D0E032BC
:03001B00022701B8
:10270100C0E0C0F0C083C082C0D075D000C000C09E
:1027110001C002C003C004C005C006C00790048DFB
:10272100E004F0700690048CE004F090048CE070FA
:1027310004A3E06432706512239A900451E0FCA373
:10274100E0FDA3E0FEA3E0FF9003F61208949003DE
:10275100FA1208A0000000009003FE7401F0A374B7
:1027610003F0A3744CF0E4FF120DC97F007E807D5D
:10277100137C4390036CE0F8A3E0F9A3E0FAA3E033
:10278100FB12008D9004361208947B017A0479358E
:102791007F011210F590048CE4F0A3F0D007D0066D
:1027A100D005D004D003D002D001D000D0D0D08247
:0727B100D083D0F0D0E0322C
:0300630002001286
:0100120032BB
:101F0B00AD07EDD394027480948040037F0122D2FD
:101F1B00AFED6003021FB3C28C90000212057C640C
:101F2B00017004D2A98002C2A990000112057C6441
:101F3B00017004D2B98002C2B9120563FED39403B7
:101F4B007480948040037F0222E58954FC4EF5890E
:101F5B0090000312057CFF7E0064017003538E7F9B
:101F6B00EF4E7003438E80EF64024E70054389047D
:101F7B0080035389FB90000412057C6401700543B8
:101F8B008F018003538FFE90000512067EE5F0F55E
:101F9B008C90000512067EF58A90000712057C6472
:101FAB00017002D28C7F0022ED6401600302204C91
:101FBB00C28E90000212057C64017004D2AB8002C9
:101FCB00C2AB90000112057C64017004D2BB80028D
:101FDB00C2BB120563FEC394037480948040037FDD
:101FEB000222E58954CF4EF58990000312057CFF40
:101FFB007E0064017003538EBFEF4E7003438E401F
:10200B00EF64024E700543894080035389BF9000F3
:10201B000412057C64017005438F028003538FFD0E
:10202B0090000512067EE5F0F58D90000512067EF8
:10203B00F58B90000712057C64017002D28E7F0035
:10204B0022ED640260030220D4538EEF9000021243
:10205B00057C6401700543AF04800353AFFB900014
:10206B000312057CFD7C00D39402748094804003A2
:10207B007F0222ED64014C7003538EFB9000031220
:10208B00057C7003438E0490000312057C64027080
:10209B0005438E088003538EF790000412057C6471
:1020AB00017005438F048003538FFB9000051206CC
:1020BB007EFDACF0ECF5D68DD790000712057C6455
:0C20CB00017003438E107F00227F022270
:102E8100120563900491F090000112057C90049268
:102E9100F090000212057C900493F07B017A047992
:042EA1009102257CF9
:10002E00E4900494F0A304F0A3F0FB7A047994E432
:04003E00FF022E810E
:1014010060240328402000003F4CCCCD00000000A8
:101411000000000000000000000000004475000012
:1014210000000000000000006024034C3F80000029
:101431003D4CCCCD3C23D70A000000000000000049
:1014410000000000C2E1000042E1000000000000D5
:100DC9009003F5EFF06003020F949003FEE0FBA39C
:100DD900E0FAA3E0F990000C1207D690001012086F
:100DE900209003F6E0F8A3E0F9A3E0FAA3E0FBA35F
:100DF900E0FCA3E0FDA3E0FEA3E0FF12008990035D
:100E0900FEE0FBA3E0FAA3E0F990000C120820E948
:100E19002414F9E43AFAC003C002C0011207B690DB
:100E290003FEE0FBA3E0FAA3E0F990000C120864CA
:100E390012008DD001D002D0031208069003FEE003
:100E4900FBA3E0FAA3E0F99000141207D6E4FBFA39
:100E590079A0784012032450159003FEE0FBA3E02B
:100E6900FAA3E0F99000141208D140A00000900301
:100E7900FEE0FBA3E0FAA3E0F99000141207D6E420
:100E8900FBFA79A078C0120324601740159003FE7D
:100E9900E0FBA3E0FAA3E0F99000141208D1C0A086
:100EA90000009003FEE0FBA3E0FAA3E0F990001430
:100EB9001207D690000412086412017EC004C0050E
:100EC900C006C0079003FEE0FBA3E0FAA3E0F99097
:100ED900000C1207D612084412017ED003D002D0AA
:100EE90001D00012008DC004C005C006C0079003E0
:100EF900FEE0FBA3E0FAA3E0F9900010120864C039
:100F090000C001C002C0039003FEE0FBA3E0FAA306
:100F1900E0F990000C1207D6D003D002D001D0001E
:100F29001200899003FEE0FBA3E0FAA3E0F9900028
:100F39000812086412017ED003D002D001D0001239
:100F4900008D9003FEE0FBA3E0FAA3E0F9900020F6
:100F59001208209000181207D69000201208641277
:100F69000324600540030210B19003FEE0FBA3E0F7
:100F7900FAA3E0F990001C1207D690002012086429
:100F890012032440030210F40210DD9003F5E0641B
:100F99000160030210F49003FEE0FBA3E0FAA3E072
:100FA900F990000C1207D69000101208209003F651
:100FB900E0F8A3E0F9A3E0FAA3E0FBA3E0FCA3E0D7
:100FC900FDA3E0FEA3E0FF1200899003FEE0FBA36E
:100FD900E0FAA3E0F990000C120820E92420F9E4D2
:100FE9003AFAC003C002C0011207B6C004C005C066
:100FF90006C0079003FEE0FBA3E0FAA3E0F9900026
:1010090010120864C000C001C002C0039003FEE0D2
:10101900FBA3E0FAA3E0F990000C1207D6D003D0A5
:1010290002D001D0001200899003FEE0FBA3E0FA90
:10103900A3E0F912084412017EC004C005C006C02D
:10104900079003FEE0FBA3E0FAA3E0F990000C127D
:1010590007D690000412086412017EA804A905AA03
:1010690006AB07D007D006D005D00412008DA8041E
:10107900A905AA06AB07D007D006D005D0041200EF
:101089008DD001D002D0031208069003FEE0FBA325
:10109900E0FAA3E0F99000181207D6900020120890
:1010A90064120324601240109003FEE0FBA3E0FAEF
:1010B900A3E0F9900018802A9003FEE0FBA3E0FA70
:1010C900A3E0F990001C1207D690002012086412C0
:1010D900032450179003FEE0FBA3E0FAA3E0F99084
:0C10E900001C1207D690002012082022E4
:102E1100E4900464F0A304F0A3F0E4A3F0A304F0AD
:102E2100A374A2F0A37440F0A37401F0FB7A0479B7
:062E310064E4FF021F0B28
:1014510049042C00000000004643500049043500B7
:081461004313800042C80000A3
:0E10F5009003F5EFF0A3EBF0A3EAF0A3E9F00F
:10110300A31208A0000000009003FD1208A0000035
:1011130000009003F6E0FBA3E0FAA3E0F9900005DA
:101123001208647F007E1B7DB77C491202879003FF
:10113300F91208949003F6E0FBA3E0FAA3E0F99018
:101143000001120864E4FFFE7D7A7C44120089E406
:10115300FBFA797A78441202879003FD120894759A
:10116300BA8090FFF2740FF09003F9E0FCA3E0FD66
:10117300A3E0FEA3E0FF1203EC90FFF0EEF0A3EF79
:10118300F09003F5E0B4080040030213EB901197CD
:10119300F82828730211AF0211F702123F021287D7
:1011A3000212CF02131702135F0213A690FF00E48B
:1011B300F0A3F09003FDE0FCA3E0FDA3E0FEA3E0B9
:1011C300FF9003F9E0F8A3E0F9A3E0FAA3E0FB1230
:1011D300017E1203EC90FF02EEF0A3EFF09003F612
:1011E300E0FBA3E0FAA3E0F9120563448090FF0457
:1011F300F00213EB90FF10E4F0A3F09003FDE0FC8A
:10120300A3E0FDA3E0FEA3E0FF9003F9E0F8A3E071
:10121300F9A3E0FAA3E0FB12017E1203EC90FF12A4
:10122300EEF0A3EFF09003F6E0FBA3E0FAA3E0F9FE
:10123300120563448090FF14F00213EB90FF20E447
:10124300F0A3F09003FDE0FCA3E0FDA3E0FEA3E028
:10125300FF9003F9E0F8A3E0F9A3E0FAA3E0FB129F
:10126300017E1203EC90FF22EEF0A3EFF09003F661
:10127300E0FBA3E0FAA3E0F9120563448090FF24A6
:10128300F00213EB90FF30E4F0A3F09003FDE0FCD9
:10129300A3E0FDA3E0FEA3E0FF9003F9E0F8A3E0E1
:1012A300F9A3E0FAA3E0FB12017E1203EC90FF32F4
:1012B300EEF0A3EFF09003F6E0FBA3E0FAA3E0F96E
:1012C300120563448090FF34F00213EB90FF40E477
:1012D300F0A3F09003FDE0FCA3E0FDA3E0FEA3E098
:1012E300FF9003F9E0F8A3E0F9A3E0FAA3E0FB120F
:1012F300017E1203EC90FF42EEF0A3EFF09003F6B1
:10130300E0FBA3E0FAA3E0F9120563448090FF44F5
:10131300F00213EB90FF50E4F0A3F09003FDE0FC28
:10132300A3E0FDA3E0FEA3E0FF9003F9E0F8A3E050
:10133300F9A3E0FAA3E0FB12017E1203EC90FF5243
:10134300EEF0A3EFF09003F6E0FBA3E0FAA3E0F9DD
:10135300120563448090FF54F00213EB90FF60E4A6
:10136300F0A3F09003FDE0FCA3E0FDA3E0FEA3E007
:10137300FF9003F9E0F8A3E0F9A3E0FAA3E0FB127E
:10138300017E1203EC90FF62EEF0A3EFF09003F600
:10139300E0FBA3E0FAA3E0F9120563448090FF6445
:1013A300F0804590FF70E4F0A3F09003FDE0FCA310
:1013B300E0FDA3E0FEA3E0FF9003F9E0F8A3E0F96A
:1013C300A3E0FAA3E0FB12017E1203EC90FF72EE9E
:1013D300F0A3EFF09003F6E0FBA3E0FAA3E0F91229
:0E13E3000563448090FF74F0E4F5BA75FE8057
:0113F10022D9
:10239A00E49003F5F0FFFEA3F0122FF77FA0122FAF
:1023AA009D7F3D122F9D122FF77FA1122F9D122F75
:1023BA00BF9003F5EFF0122FDD122FBF9003F6EF57
:1023CA00F0122FCE1230099003F6E0FE9003F5E0EA
:1023DA00FDEDFFAC06EC1203B3E4FBFAF978471201
:1023EA000287E4FBFA7934784312017E90044D1295
:1023FA000894122FF77FA0122F9D7F3E122F9D1255
:10240A002FF77FA1122F9D122FBF9003F5EFF01225
:10241A002FDD122FBF9003F6EFF0122FCE123009E4
:10242A009003F6E0FE9003F5E0FDEDFFAC06EC123A
:10243A0003B3E4FBFAF97847120287E4FBFA79342A
:10244A00784312017E900451120894122FF77FA04C
:10245A00122F9D7F3F122F9D122FF77FA1122F9DC2
:10246A00122FBF9003F5EFF0122FDD122FBF90034A
:10247A00F6EFF0122FCE1230099003F6E0FE900329
:10248A00F5E0FDEDFFAC06EC1203B3E4FBFAF978D4
:10249A0047120287E4FBFA7934784312017E9004EA
:0424AA00550208943B
:102E3700E490046CF0A304F0A3F0E4A3F0A304F07F
:102E4700A374A2F0A37440F0A37401F0FB7A047991
:052E57006CFF021F0BDF
:03002B00020006CA
:0400060053BCDF32D6
:102C1300D2AFE4F592120563429190000112057C54
:102C2300FFE5BC549F4FF5BC90000212057C640184
:102C3300700543BC80800353BC7F90000312057C66
:102C43006401700543DE20800353DEDF900005122C
:102C5300057C64017004D2AD8002C2AD9000041201
:0C2C6300057C64017003D2BD22C2BD22BA
:0D004600EF6401700443BC802253BC7F2294
:10299300EFD39407748094804002807BE4F5BDF507
:1029A300BEE5BC54E044404FF5BC0000E4FDEDC37C
:1029B30094FA74809480505FE5BC20E55753BCDFE4
:1029C300E5DE30E51FE5BD540FFF90049FE4F0A35F
:1029D300EFF0E0FEACBEECFBEBFF90049FEEF0A348
:1029E300EFF08027AFBDEF90049FF0A3E4F0AFBEFC
:1029F30090049FE0F0A3E04FF090049FE0C4F854EC
:102A0300F0C868F0A3E0C4540F48F090049FE0FEC0
:0B2A1300A3E0FF220D80977E047F00EF
:012A1E002295
:10146900622801000000000000000000002F0000B9
:1014790000000700070000147F147F1400242A7F4E
:101489002A120062640813230036495522500000CD
:101499000503000000001C224100000041221C003D
:1014A9000014083E08140008083E0808000000A0BF
:1014B90060000008080808080000606000000020BB
:1014C90010080402003E5149453E0000427F400099
:1014D900004261514946002141454B31001814121F
:1014E9007F10002745454539003C4A4949300001EC
:1014F9007109050300364949493600064949291E3B
:10150900000036360000000056360000000814229C
:10151900410000141414141400004122140800029C
:101529000151090600324959513E007C1211127CC1
:10153900007F49494936003E41414122007F4141EE
:10154900221C007F49494941007F09090901003EE0
:101559004149497A007F0808087F0000417F41001E
:10156900002040413F01007F08142241007F404094
:101579004040007F020C027F007F0408107F003E7C
:101589004141413E007F09090906003E4151215E62
:10159900007F091929460046494949310001017F5F
:1015A9000101003F4040403F001F2040201F003FF5
:1015B9004038403F006314081463000708700807A7
:1015C90000615149454300007F41410000552A55BA
:1015D9002A55000041417F00000402010204004035
:1015E9004040404000000102040000205454547857
:1015F900007F484444380038444444200038444477
:10160900487F00385454541800087E090102001814
:10161900A4A4A47C007F080404780000447D400051
:10162900004080847D00007F102844000000417F35
:101639004000007C04180478007C08040478003811
:101649004444443800FC242424180018242418FC99
:10165900007C0804040800485454542000043F4402
:101669004020003C4040207C001C2040201C003CC5
:101679004030403C004428102844001CA0A0A07C15
:0C168900004464544C4414141414141451
:06301200D2B27F027E0035
:03301800022F354F
:102F4B00123012D2B3123014C2B3123014C2B27F89
:062F5B00027E00023018A6
:102F6100C2B2123014C2B3123014123012D2B37F73
:062F7100027E0002301890
:052BB0009004A1EFF00C
:102BB500E4A3F09004A2E0C3940874809480503399
:102BC5009004A1E030E704D2B38002C2B37F017E56
:102BD50000123018D2B27F017E00123018C2B27FC7
:102BE500017E001230189004A1E025E0F0A3E00476
:102BF500F080C0D2B37F017E00123018D2B27F01BF
:0E2C05007E00123018C2B27F017E000230182D
:100066009004A9EFF0122F4B7F78122BB07F40122D
:0D0076002BB09004A9E0FF122BB0022F6107
:042EA500EF24B0FF67
:102EA9009004AAEFF0122F4B7F78122BB0E4FF1297
:0D2EB9002BB09004AAE0FF122BB0022F6195
:102E5C009004ABEFF0ED24B0FF122EA99004ABE080
:102E6C0054F0C4540F4410FF122EA99004ABE0543C
:052E7C000FFF022EA96A
:052CC800900497EFF0FD
:102CCD00E4A3F0900498E0FFC394087480948050BE
:102CDD0037122EA57F01122EA97F10122EA9E49076
:102CED000499F0900499E0C39484748094805010FA
:102CFD00900497E0FF120066900499E004F080E3E1
:082D0D00900498E004F080BB83
:012D1500229B
:102D1600E49004A3F09004A3E0FFC39408748094A5
:102D2600805034122EA57F01122EA97F10122EA9D3
:102D3600E49004A4F09004A4E0C394847480948086
:102D4600500DE4FF1200669004A4E004F080E690C3
:072D560004A3E004F080BEBD
:012D5D002253
:1024AE00E49004A5F0A37408F07B017A0479A57F6B
:1024BE0002121B4D7B017A0479A57F03121B4D7B03
:1024CE00017A0479A57F04121B4DD2B2C2B47FF4F7
:1024DE007E01122EFFD2B47FAE122EA9E4FF122E71
:1024EE00A97F10122EA97F40122EA97F81122EA92C
:1024FE007FCF122EA97FA1122EA97FC8122EA97FDF
:10250E00A6122EA97FA8122EA97F3F122EA97FD325
:10251E00122EA9E4FF122EA97FD5122EA97F8012AA
:10252E002EA97FD9122EA97FF1122EA97FDA122E93
:10253E00A97F12122EA97FDB122EA97F40122EA97F
:10254E007F20122EA97F02122EA97F8D122EA97F17
:10255E0014122EA97FA4122EA97FA6122EA97FAF28
:0E256E00122EA9E4FF122CC8E4FDFF022E5C21
:0A2C6F0090049BEDF090049AEFF042
:102C7900A3E0FE131313541FFD122E5C90049BE076
:102C8900FF5407FEF87401088002C333D8FC90048E
:102C99009CF0EF131313541F24B0FF122EA99004B4
:102CA9009AE054F0C4540F4410FF122EA990049ACC
:0F2CB900E0540FFF122EA990049CE0FF0200666A
:10286500900474EFF0A3EDF0A3EBF0A3EAF0A3E975
:01287500F072
:10287600E4A3F0A3F0A3F0900476E0FBA3E0FAA3B0
:10288600E0F990047BE0F58275830012057C6070A8
:1028960024E0900479F0900474E0D3947E748094DC
:1028A600804006E4F0A3E004F0900474E0FFA3E0A7
:1028B600FD122E5CE490047AF090047AE0FFC39453
:1028C60006748094805029900479E075F006A4245B
:1028D60000F582E5F03401F583E5822FF582E435D3
:1028E60083F583E0FF12006690047AE004F080C965
:1028F600900474E02406F090047BE004F002287D46
:0129060022AE
:0826440090047CEFF0A3EDF01F
:10264C00E4900483F0FC7D0AAF03AE021205DDEDCD
:10265C002430900482F07C007D0AAF03AE02120598
:10266C00DD7C007D0A1205DDED2430900481F07CC8
:10267C00007D64AF03AE021205DD7C007D0A1205FD
:10268C00DDED2430900480F07C037DE8AF03AE02D6
:10269C001205DD7C007D0A1205DDED243090047FEF
:1026AC00F0AE02AF037C277D101205DD7C007D0AA5
:1026BC001205DDED243090047EF0E4FFEFC39404AA
:1026CC0074809480501E747E2FF582E43404F5835C
:1026DC00E0B43010747E2FF582E43404F58374205A
:1026EC00F00F80D890047CE0FFA3E0FD7B017A041E
:0526FC00797E02286553
:0F20D7009003CDEFF0A3EDF0A3EAF0FEA3EBF042
:1020E600E4FBFAC3EE64809480501EE49003D3F0C0
:1020F600A3F09003CFE0FEA3E0FFC3E49FFFE49EBE
:102106009003CFF0A3EFF080089003D3E4F0A3048C
:10211600F09003CFE0FEA3E0FF7C007D0A120632BA
:10212600EF4E603D9003CFE0FEA3E0FF7C007D0A0A
:10213600120632ED2430FF74D52BF58274033AF57E
:1021460083EFF09003CFE0FEA3E0FF7C007D0A1250
:1021560006329003CFEEF0A3EFF00BBB00010A802E
:10216600B09003CFA3E02430FF74D52BF58274031F
:102176003AF583EFF09003D3E07002A3E07060902D
:1021860003DF742DF09003D1EAF0A3EBF09003D1B6
:10219600E0FEA3E0FFD394FFEE6480947F403774A3
:1021A600D52FF58274033EF583E0FF9003D1E0FC62
:1021B600A3E0FDC3EB9DFDEA9CFC74E02DF5827463
:1021C600033CF583EFF09003D2E024FFF09003D1B7
:1021D600E034FFF080B774E12BF5827403805890E9
:1021E60003D1EAF0A3EBF09003D1E0FEA3E0FFD326
:1021F60094FFEE6480947F403774D52FF582740384
:102206003EF583E0FF9003D1E0FCA3E0FDC3EB9D28
:10221600FDEA9CFC74DF2DF58274033CF583EFF038
:102226009003D2E024FFF09003D1E034FFF080B7B2
:1022360074E02BF58274033AF583E4F09003CDE065
:0D224600FFA3E0FD7B017A0379DF0228652C
:08191100900401EFF0A3EDF0DA
:1019190090040BE4F0A3740AF0E4FFFEFDFC9004CC
:1019290003E0F8A3E0F9A3E0FAA3E0FB1203249093
:10193900040D4005742BF0801A742DF0900403E017
:10194900FCA3E0FDA3E0FEA3E0FF12039D900403C6
:10195900120894900403E0FCA3E0FDA3E0FEA3E0D9
:10196900FF1203EC900407EEF0A3EFF0E4A3F0A359
:10197900F0900407E0FEA3E0FF4E601F7C007D0AA3
:10198900120632900407EEF0A3EFF090040AE00487
:10199900F070DE900409E004F080D6900403E0FCC6
:1019A900A3E0FDA3E0FEA3E0FF1203EC900407EE21
:1019B900F0A3EFF0A3E0FEA3E0FBAA06D3EB9400AB
:1019C900EA64809480403D900407E0FEA3E0FF7C38
:1019D900007D0A120632ED2430FF740D2BF5827456
:1019E900043AF583EFF0900407E0FEA3E0FF7C00E2
:1019F9007D0A120632900407EEF0A3EFF0EB1B709C
:101A0900BB1A80B8900409E0FEA3E0240EF58274A5
:101A1900043EF583742EF0900403E0FCA3E0FDA3DB
:101A2900E0FEA3E0FFC004C005C006C007900403A0
:101A3900A3A3A3E01203ECAD07AC06EC1203B3A811
:101A490004A905AA06AB07D007D006D005D0041211
:101A5900008990040312089490040AE02402F0908B
:101A69000409E03400F090040CE024FFFF90040B1B
:101A7900E034FFFEC390040AE09FEE6480F890040E
:101A890009E06480984003021B2A900403E0FCA348
:101A9900E0FDA3E0FEA3E0FFE4FBFA792078411220
:101AA900017E900403120894900403E0FCA3E0FD76
:101AB900A3E0FEA3E0FF1203ECEF2430FF9004093A
:101AC900E0FCA3E0240DF58274043CF583EFF0906B
:101AD9000403E0FCA3E0FDA3E0FEA3E0FFC004C013
:101AE90005C006C007900403A3A3A3E01203ECAD4D
:101AF90007AC06EC1203B3A804A905AA06AB07D0E4
:101B090007D006D005D00412008990040312089466
:101B190090040AE004F07006900409E004F0021A47
:101B29006F90040BE0FEA3E0240CF58274043EF5EB
:101B390083E4F0900401E0FFA3E0FD7B017A0479DE
:041B49000D022865FC
:102EC60000000000000000000000000000000000FC
:0D2ED60000000000000000000000000000EF
:102EE3009004847401F0A37440F0A37401F0A3F080
:0C2EF300A3F0A3F0FB7A047984022C13F6
:052253009003AAEFF06A
:10225800E4A3F0A3F0A3F0A3F0A3F078B07C037D8F
:10226800017BFF7A2E79C6FE7F1812053D78C87C5F
:10227800037D017BFF7A2E79DE7E007F0512053D06
:10228800E49003ABF09003ABE0C3940C74809480AB
:10229800502B9003AAE0FF1229939003ABE025E0AE
:1022A80024B0F582E43403F583EEF0A3EFF07F6405
:1022B8007E00122F359003ABE004F080C8E4FFEFF6
:1022C800C3940B748094804003022352E4FEC374C9
:1022D8000B9FFDEEC39D506EEE25E024B2F582E41F
:1022E8003403F583E0FCA3E0FDEE25E024B0F5829D
:1022F800E43403F583E0FAA3E0FBD39DEA9C404372
:102308009003AEEAF0A3EBF0EE25E024B2F582E408
:102318003403F583E0FCA3E0FDEE25E024B0F5826C
:10232800E43403F583ECF0A3EDF09003AEE0FCA3F6
:10233800E0FDEE25E024B2F582E43403F583ECF009
:10234800A3EDF00E80880F0222C79003AB7401F052
:102358009003ABE0FFC3940B748094805025EF2565
:10236800E024B0F582E43403F583E0FEA3E0FF90B7
:1023780003ADE02FF09003ACE03EF09003ABE00437
:10238800F080CD9003ACE0FEA3E0FF7C007D0A0264
:0223980005DD61
:10008600020458E86480F8E933E83360110460F04C
:10009600ED33EC337009E8FCE9FDEAFEEBFF2204E0
:1000A60060DED3EB9FEA9EE99DE8C2E78CF0C2F7DB
:1000B60095F0400CE8CCF8E9CDF9EACEFAEBCFFBA7
:1000C60012042385D0F05804700320D5B3E80470D9
:1000D600075002B2D502046292D5EC0460F7E4CC74
:1000E600C0E0C398F8603B94186008400DD0E0FB70
:1000F60002043AE4FBFAC9FC8028E830E406E4C9C5
:10010600FBE4CAFCE830E305E4C9CACBFCE85407C3
:100116006010F8C3E913F9EA13FAEB13FBEC13FCCE
:10012600D8F130F52FC3E49CFCEF9BFFEE9AFEED71
:1001360099FDD0E0FBEF4E4D4C701222DB0302041A
:100146005FEC2CFCEF33FFEE33FEED33FDED30E7D5
:10015600EB02043AEF2BFFEE3AFEED39FDD0E0FB61
:1001660050130BBB0003020462ED13FDEE13FEEF0A
:0801760013FFEC13FC02043A34
:10017E00EC4D6011E8497017ED33EC3304600DE47B
:10018E00FCFFFEFD22E933E8330470F80204581236
:10019E00042358046009E4CC248150062850090237
:1001AE00046228400302045FC0E0EB4A7044B98049
:1001BE0006D0E0FB02044EEF4E701CBD8008EBFF34
:1001CE00EAFEE9FD80EBE98DF0A4FEE5F0020267A0
:1001DE00E9CDF9EAFEEBFFEF89F0A4FCE5F0CE895C
:1001EE00F0A42EFFE435F0CD89F0A42DFEE435F019
:1001FE008067EF4E7005BD80D780C3EF8BF0A4AC47
:10020E00F0EE8BF0A42CFCE435F0F8EF8AF0A42C81
:10021E00E5F038FCE433CB8DF0A42CFCE5F03BF894
:10022E00EE8AF0A42CFCE5F038F8E433CF89F0A484
:10023E002CFCE5F038CF3400CE89F0A42FFFE5F08A
:10024E003EFEE433C98DF0A42EFEE5F039CD8AF0E2
:10025E00A42FFFE5F03EFEE43DFD33D0E0FB50075A
:10026E000BBB000F020462EC2CFCEF33FFEE33FEEF
:06027E00ED33FD02043A1D
:10028400020462EC5D046005E8590470030204583A
:10029400120423580460F6EC4860F2EC7004FDFE8E
:1002A400FF22C860DB2481C85009C398600250064D
:1002B40002045F9850CAF582E9294B4A7005AB8263
:1002C40002044E75F0007C1A7880C3EF9BEE9AED21
:1002D40099400DC3EF9BFFEE9AFEED99FDE842F0C5
:1002E400DC23ACF0D0E0FFD0E0FED0E0FDAB822018
:1002F400E7101BEB60BAEC2CFCEF33FFEE33FEEDA2
:1003040033FD02043AE803F830E705C0F075F00065
:10031400EF2FFFEE33FEED33FD40B830E7C280AA85
:1003240074F8CC6480CCC86480C8F58204604FC380
:10033400EB9FF5F0EA9E42F0E99D42F0E89C45F01F
:10034400603C501DE5825FFFE582D313CB5BCBF4A9
:100354002B5582FB50280ABA002409B900200880D2
:100364001DE5825BFBE582D313CF5FCFF4C3132F6C
:100374005582FF50090EBE00050DBD00010CC3EBF4
:100384009FF5F0EA9E42F0E99D42F0E89C45F0605A
:0903940007CC4820E701B3EC227C
:10039D00ED33EC33600A047003BD8004ECB2E7FC6E
:0103AD00222D
:1003AE0075F020800E75F010800575F0087D007ECA
:1003BE00007F003392D530D503120784EC33401002
:1003CE00EF33FFEE33FEED33FDEC33FCD5F0ED22D3
:0E03DE00E5F0247EA2D513CC92E7CDCEFF220F
:1003EC00EDD2E7CD33EC3392D524814006E4FFFE09
:1003FC00FDFC22FCE4CFCECDCC24E0501174FF8068
:10040C00EDC3CC13CCCD13CDCE13CECF13CF047004
:07041C00F030D5DE02078479
:10042300E9D2E7C933E833F892D5EDD2E7CD33EC1F
:0704330033FC5002B2D52298
:10043A00EC30E7100FBF000C0EBE00080DBD000423
:10044A000BEB6014A2D5EB13FCED92E7FD2274FFCF
:10045A00FCFDFEFF22E480F8A2D574FF13FC7D8028
:03046A00E480EF3C
:1029130002000AE493A3F8E493A34003F68001F2D0
:1029230008DFF48029E493A3F85407240CC8C333C5
:10293300C4540F4420C8834004F456800146F6DF94
:10294300E4800B01020408102040809013F2E47E1F
:10295300019360BCA3FF543F30E509541FFEE49389
:10296300A360010ECF54C025E060A840B8E493A350
:10297300FAE493A3F8E493A3C8C582C8CAC583CA7B
:10298300F0A3C8C582C8CAC583CADFE9DEE780BE33
:011695000054
:10046D00E709F608DFFA8046E709F208DFFA803E71
:10047D0088828C83E709F0A3DFFA8032E309F6085E
:10048D00DFFA8078E309F208DFFA807088828C83C6
:10049D00E309F0A3DFFA806489828A83E0A3F6087A
:1004AD00DFFA805889828A83E0A3F208DFFA804C54
:1004BD0080D280FA80C680D4806980F2803380102B
:1004CD0080A680EA809A80A880DA80E280CA803394
:1004DD0089828A83ECFAE493A3C8C582C8CCC5830C
:1004ED00CCF0A3C8C582C8CCC583CCDFE9DEE780DC
:1004FD000D89828A83E493A3F608DFF9ECFAA9F05B
:10050D00EDFB2289828A83ECFAE0A3C8C582C8CCB0
:10051D00C583CCF0A3C8C582C8CCC583CCDFEADEC9
:10052D00E880DB89828A83E493A3F208DFF980CC2B
:10053D0088F0EF60010E4E60C388F0ED2402B40424
:10054D000050B9F582EB2402B4040050AF232345CB
:06055D0082239004BD732F
:10056300BB010689828A83E0225002E722BBFE0296
:09057300E32289828A83E49322C9
:10057C00BB010CE58229F582E5833AF583E0225034
:10058C0006E92582F8E622BBFE06E92582F8E2227E
:0D059C00E58229F582E5833AF583E4932298
:1005A900BB010689828A83F0225002F722BBFE0131
:0205B900F3222B
:1005BB00F8BB010DE58229F582E5833AF583E8F076
:1005CB00225006E92582C8F622BBFE05E92582C822
:0205DB00F2220A
:1005DD00BC000BBE0029EF8DF084FFADF022E4CC02
:1005ED00F875F008EF2FFFEE33FEEC33FCEE9DECCB
:1005FD00984005FCEE9DFE0FD5F0E9E4CEFD22ED11
:10060D00F8F5F0EE8420D21CFEADF075F008EF2F5A
:10061D00FFED33FD4007985006D5F0F222C398FD4B
:05062D000FD5F0EA22E8
:10063200C2D5EC30E709B2D5E4C39DFDE49CFCEEE3
:1006420030E715B2D5E4C39FFFE49EFE1205DDC379
:10065200E49DFDE49CFC80031205DD30D507C3E474
:060662009FFFE49EFE2252
:10066800C5F0F8A3E028F0C5F0F8E582158270021D
:060678001583E038F022BA
:10067E00BB0110E58229F582E5833AF583E0F5F0BA
:10068E00A3E0225009E92582F886F008E622BBFE97
:10069E000AE92582F8E2F5F008E222E5832AF583DD
:0806AE00E993F5F0A3E99322A2
:1006B60075F008758200EF2FFFEE33FECD33CDCCFB
:1006C60033CCC58233C5829BED9AEC99E58298407E
:1006D6000CF582EE9BFEED9AFDEC99FC0FD5F0D65B
:1006E600E4CEFBE4CDFAE4CCF9A88222B800C1B985
:1006F6000059BA002DEC8BF084CFCECDFCE5F0CBC3
:10070600F97818EF2FFFEE33FEED33FDEC33FCEBFB
:1007160033FB10D703994004EB99FB0FD8E5E4F9B6
:10072600FA227818EF2FFFEE33FEED33FDEC33FCA3
:10073600C933C910D7059BE99A4007EC9BFCE99A97
:10074600F90FD8E0E4C9FAE4CCFB2275F010EF2FDC
:10075600FFEE33FEED33FDCC33CCC833C810D707DC
:100766009BEC9AE899400AED9BFDEC9AFCE899F817
:0E0776000FD5F0DAE4CDFBE4CCFAE4C8F922AA
:0E078400C3E49FFFE49EFEE49DFDE49CFC2286
:10079200EB9FF5F0EA9E42F0E99D42F0E89C45F0BD
:0107A2002234
:1007A300E8600FECC313FCED13FDEE13FEEF13FF34
:0307B300D8F12258
:1007B600BB010789828A830209015005E9F802080C
:1007C600F5BBFE05E9F802090D89828A830209193B
:1007D600BB010DE58229F582E5833AF5830209011D
:1007E6005007E92582F80208F5BBFE07E92582F8DD
:1007F60002090DE58229F582E5833AF58302091996
:10080600BB010789828A830208945005E9F8020928
:0A0816005FBBFE05E9F802096B2242
:10082000BB010DE58229F582E5833AF58302089440
:100830005007E92582F802095FBBFE07E92582F827
:0408400002096B221C
:10084400BB010789828A830209365005E9F8020947
:1008540029BBFE05E9F802094289828A8302094F0D
:10086400BB010DE58229F582E5833AF58302093659
:100874005007E92582F8020929BBFE07E92582F819
:10088400020942E58229F582E5833AF58302094F9C
:0C089400ECF0A3EDF0A3EEF0A3EFF022D7
:1008A000A8828583F0D083D0821208B71208B712CD
:1008B00008B71208B7E473E493A3C583C5F0C583F2
:1008C000C8C582C8F0A3C583C5F0C583C8C582C8A2
:0108D0002205
:1008D100BB010DE58229F582E5833AF5830208A083
:1008E1005007E92582F8020977BBFE07E92582F85E
:0408F1000209902246
:0C08F500E6FC08E6FD08E6FE08E6FF222F
:0C090100E0FCA3E0FDA3E0FEA3E0FF2269
:0C090D00E2FC08E2FD08E2FE08E2FF2226
:10091900E493FC740193FD740293FE740393FF2224
:0D092900E6FB08E6F908E6FA08E6CBF8223E
:0C093600E0F8A3E0F9A3E0FAA3E0FB2244
:0D094200E2FB08E2F908E2FA08E2CBF82235
:10094F00E493F8740193F9740293FA740393FB22FE
:0C095F00ECF608EDF608EEF608EFF622C4
:0C096B00ECF208EDF208EEF208EFF222C8
:10097700D083D082E493F608740193F60874029347
:09098700F608740393F67404737E
:10099000D083D082E493F208740193F20874029336
:0909A000F208740393F27404736D
:00000001FF
