:030000000217D311
:0C17D300787FE4F6D8FD75817C02181ABE
:030006000D0A00E0
:091ACB00021600000318000000DF
:1013B900E4F521F522F526F525F524F523F527F59C
:1013C90028753240753301F53775364BF535F534E7
:1013D900753801753901F53A753B01753C01F53DE3
:1013E900F529F52DF52C752B11752A43F531F530B5
:1013F900752FC8752E42FB7A007929FF120C1075DA
:101409003E40753F02E4F54375424BF541F54075A1
:101419004401754501F546754701754801F549FBD4
:101429007A00793E7F0212089D7B007A0079327F2B
:101439000112089DE4FF121A10121B5F7FA0121BF4
:10144900057F3E121B05121B5F7FA1121B05121B94
:10145900278F21121B45121B278F22121B36121BA5
:1014690071AF22EF3395E0EFFEAD21ED3395E04EFC
:10147900F516EDF517AC16AD17EC1203B3E4FBFA4C
:10148900F97847120287E4FBFA7934784312017E2E
:101499008F268E258D248C231203EC8E278F28E529
:1014A9002845277018FB7A007918AF17AE16121461
:1014B900EF7B007A007918121A6C0214427B007AC9
:1014C900007918AF28AE271214EF7B007A0079183B
:1014D900121A6C7BFF7A007906121A6C7F1E7E0045
:0614E9001200260214426D
:10002600E4FDFCC3ED9FEC9E50100079207B28DB9D
:0A003600FED9FC0DBD00010C80E9AD
:01004000229D
:10006600E4FDFCC3ED9FEC9E500B7B06DBFE0DBD55
:0500760000010C80EE0A
:01007B002262
:100E6900EFD394057480948040037F012212046DAE
:100E7900FED394037480948040037F0222EF704470
:100E8900EE700B900001120486F4529352941204EE
:100E99006D6401700B9000011204864293F4529420
:100EA90012046DFE6402700A9000011204864293D6
:100EB9004294EE6403700D900001120486FEF45210
:100EC90093EE4294EF6401704612046DFE700B902C
:100ED9000001120486F452915292EE6401700B9053
:100EE90000011204864291F4529212046D64027058
:100EF9000A9000011204864291429212046D640321
:100F0900700D900001120486FEF45291EE4292EFA8
:100F19006402704612046DFE700B90000112048683
:100F2900F452955296EE6401700B900001120486FA
:100F39004295F4529612046D6402700A90000112EF
:100F490004864295429612046D6403700D90000167
:100F5900120486FEF45295EE4296EF64037046122F
:100F6900046DFE700B900001120486F452B152B266
:100F7900EE6401700B90000112048642B1F452B282
:100F890012046D6402700A90000112048642B14293
:100F9900B212046D6403700D900001120486FEF410
:100FA90052B1EE42B2EF6404704612046DFE700B4A
:100FB900900001120486F452B352B4EE6401700B2E
:100FC90090000112048642B3F452B412046D640213
:100FD900700A90000112048642B342B412046D648F
:100FE90003700D900001120486FEF452B3EE42B470
:100FF900EF6405704912046DFF7E00700B900001CB
:10100900120486F452C952CAEF64014E700B900063
:101019000112048642C9F452CA12046D6402700AAC
:1010290090000112048642C942CA12046D64037019
:101039000D900001120486FFF452C9EF42CA7F00E5
:011049002284
:101A1000EFFD7C00700F75BA8090FE8074E0F0904E
:101A2000FE82E4F022ED64014C701875BA8090FEDD
:101A3000807481F090FE85745AF090FE84E4F090FA
:041A4000FE83F0220F
:10185F00D200D201E4F51F7400251FF8E290FE8636
:10186F00F090FE84E030E605E054BFF02290FE8455
:10187F00E030E529E054DFF0300003C200223001F0
:10188F000CC20190FE87E0F51F2400802C90FE878C
:10189F00E0FFAE1F051F74002EF8EFF22290FE84BA
:1018AF00E030E41CE054EFF0E030E10790FE867486
:1018BF00FFF022051F7400251FF8E290FE86F0222C
:1018CF0090FE84E030E308E054F7F0D200D201221A
:0C1B530090FE82E030E6F9E054BFF02282
:091B5F0090FE817401F0021B5399
:101B050090FE86EFF090FE817402F0121B53021BCB
:011B15006867
:091B680090FE817403F0021B538E
:0F1B270090FE817404F0121B5390FE87E0FF22A2
:0E1B450090FE82E4F090FE817405F0021B53C6
:0F1B360090FE827401F090FE817405F0021B5343
:091B710090FE817406F0021B5382
:101ADF00E4FFFE000000000FBF00010EBE0BF4BFBD
:021AEF00B8F14C
:011AF10022D2
:101B1600E59A30E103539AFDE59A30E003539AFEC5
:011B2600229C
:030023000218DFE1
:1018DF00C0E0C083C082C0D075D000C00730982848
:1018EF00C298E50E7022C3E50C940B74809480406F
:1018FF0003750C00AF0C050C74002FF582E4340156
:10190F00F583E599F0750D0530992BC299E50965B9
:10191F000A602074162509F582E43401F583E0F599
:10192F00990509C3E509940B7480948040087509E3
:10193F00008003750B00D007D0D0D082D083D0E0C9
:01194F003265
:030043000219504F
:10195000C0E0C083C082C0D075D000C007121B1683
:10196000E5157022C3E513940B74809480400375D1
:101970001300AF130513740B2FF582E43401F583C4
:10198000E59BF0751405121B16E5106511602074B7
:10199000212510F582E43401F583E0F59B0510C3A1
:1019A000E510940B748094804008751000800375D6
:0D19B0001200D007D0D0D082D083D0E0321A
:08089D008F4A8B4B8A4C894DF8
:1008A500D2AFEF64016003020AAD750801F509F5E1
:1008B5000AF50BF50CF50DF50EF54EC3E54E940B4B
:1008C5007480948050117416254EF582E43401F538
:1008D50083E4F0054E80E4E4F54EC3E54E940B74D5
:1008E50080948050117400254EF582E43401F5831F
:1008F500E4F0054E80E4AB4BAA4CA94D12046DFD06
:100905007C00D394C07480948040037F02229000C1
:100915000A12048664017004D2BC8002C2BC1204AF
:100925006DFFE598543F4FF598ED64C04C6008EFB6
:10093500644060030209F39000021207037F807E82
:100945008D7D5B7C001205918F528E518D508C4FA1
:10095500E4FFFE7D01FCAB52AA51A950A84FC3127A
:10096500063140037F0222C3E49552F552E49551C6
:10097500F55174019550F550E4954FF54FAB4BAAE1
:100985004CA94D900001120486FB7A006401702C7D
:10099500C28E538EFE5389BF5389CF438E40AF52CB
:1009A500AE51AD50AC4F78081206428F8D85528BF3
:1009B500C2AB5389BF538FFDD28E806CEB64024A64
:1009C5007029538EEF438E01538EF7438E04AF5239
:1009D500AE51AD50AC4F78081206428FD68552D72E
:1009E50053AFFB538EF7438E10803D7F0222AB4BF6
:1009F500AA4CA94D12046DFF7E00701490000812D8
:100A0500048664017005438E20801D538EDF801897
:100A1500EF64804E70129000081204866401700520
:100A2500438780800353877FAB4BAA4CA94D900029
:100A35000912048664017004D2AC8002C2AC900035
:100A45000712048664017004D29C8002C29C900047
:060A55000B12048670097B
:070A5B00755303755402FB03
:100A62008027AB4BAA4CA94D90000B1204866480E0
:020A7200700F03
:0D0A7400755303755480FB7A0079537F01A0
:020A8100800EE5
:100A83007553037554807B007A0079537F03120EEC
:010A930069F9
:100A9400AB4BAA4CA94D90000B12048654C0FFE541
:100AA400A2543F4FF5A27F0022E54A64026003028C
:100AB4000C0D750F02F510F511F512F513F514F57B
:100AC40015F54EC3E54E940B748094805011742137
:100AD400254EF582E43401F583E4F0054E80E4E428
:100AE400F54EC3E54E940B748094805011740B251D
:100AF4004EF582E43401F583E4F0054E80E4AB4B1B
:100B0400AA4CA94D12046DFF64C06008EF644060F4
:100B140003020BA290000A1204866401700543B517
:100B240001800353B5FE12046D64C07005439A80BE
:100B34008003539A7F9000021207037F807E8D7D8D
:100B44005B7C001205918F528E518D508C4FE4FFC7
:100B5400FE7D01FCAB52AA51A950A84FC312063125
:100B640040037F0222C3E49552F552E49551F551B6
:100B740074019550F550E4954FF54F538EEF538E15
:100B8400F7438E04AF52AE51AD50AC4F7808120605
:100B9400428FD68552D753AFFB438E1080037F021A
:100BA40022AB4BAA4CA94D90000912048664017033
:100BB4000543AF01800353AFFE900007120486641F
:100BC400017005439A108003539AEF90000B1204AE
:030BD40086700F19
:0D0BD700755303755402FB7A0079537F01BA
:020BE400800E81
:100BE6007553037554807B007A0079537F04120E87
:010BF6006995
:100BF700AB4BAA4CA94D90000B1204865401FFE59C
:080C0700BA54FE4FF5BA7F005C
:010C0F0022C2
:101A8F008F4DE50B700F750B01854D993099FDC288
:0E1A9F0099E4F50B227F057E0012006680E4BC
:101A440074212511F582E43401F583EFF00511C307
:101A5400E511940B748094804003E4F511E5127051
:081A640006751201121B162287
:101A6C008B4A8A4B894CAB4AAA4BA94C12046DFF8A
:101A7C006010121A8F7401254CF54CE4354BF54B64
:031A8C0080E422D1
:101AF20012046DFF600C121A44740129F9E43AFAD7
:031B020080EE2250
:071B7A003098FDC298AF99FD
:011B81002241
:05007C00121B16AF9BF2
:01008100225C
:0A14EF008E4A8F4B8B4C8A4D894EBC
:1014F900E4F54FF550C3E54A648094805011E4F552
:1015090053F554C3954BF54BE4954AF54A80067556
:101519005300755401AE4AAF4B7C007D0A1204E7B3
:10152900AA06AB07EB4A6024AE4AAF4B7C007D0AA2
:101539001204E7ED2430FF74552550F8A6078A4AAE
:101549008B4B0550E55070CD054F80C9E54B2430D4
:10155900FF74552550F8A607E55445537059AB4C0F
:10156900AA4DA94E742D1204B3854F51855052D3FB
:10157900E55294FFE5516480947F402F74552552BC
:10158900F8E6FFC3E5509552CDE54F9551CD2401BD
:10159900CD3400AB4CAA4DA94E8D82F583EF1204D0
:1015A900C5E552155270C8155180C4AB4CAA4DA956
:1015B9004EE55024028046854F51855052D3E5525D
:1015C90094FFE5516480947F402974552552F8E6CB
:1015D900FFC3E5509552FDE54F9551AB4CAA4DA976
:1015E9004E8D82F583EF1204C5E552155270CE1562
:1015F9005180CAAB4CAA4DA94EE5502401FFE435F0
:091609004F8F82F583E41204C541
:0116120022B5
:041AD4000279000093
:03000300020046B2
:0D004600C0E0057AE57A70020579D0E0325D
:03001300020009DF
:0100090032C4
:0300530002000A9E
:01000A0032C3
:03005B0002000E92
:01000E0032BF
:0300830002000F69
:01000F0032BE
:10170B00EFD394107480948040037F0122D2AFEF0B
:10171B00703090000212048664017004D2A880021B
:10172B00C2A890000112048664017004D2B8800232
:10173B00C2B812046D64017004D2888002C2887F23
:10174B000022EF6402703090000212048664017074
:10175B0004D2AA8002C2AA9000011204866401700E
:10176B0004D2BA8002C2BA12046D64017004D28A28
:10177B008002C28A7F0022EF640A70159000021269
:10178B00048664017005438F108003538FEF7F0035
:10179B0022EF640B70159000021204866401700531
:1017AB00438F208003538FDF7F0022EF641070156F
:1017BB0090000212048664017005438F408003532E
:0817CB008FBF7F00227F022284
:061AD800041B00000000E9
:03000B000219BD1A
:1019BD00C0E0C0F0C083C082C0D075D000C000C0F0
:1019CD0001C002C003C004C005C006C007AE79AF98
:1019DD007A7C007D0A1204E7AC06AD07EC1203B366
:1019ED008F1E8E1D8D1C8C1BD007D006D005D004EC
:1019FD00D003D002D001D000D0D0D082D083D0F08F
:031A0D00D0E032F4
:03001B00020010D0
:0100100032BD
:0300630002001187
:0100110032BC
:10104A00AD07EDD394027480948040037F0122D2CD
:10105A00AFED60030210F2C28C90000212048664A3
:10106A00017004D2A98002C2A99000011204866408
:10107A00017004D2B98002C2B912046DFED394037E
:10108A007480948040037F0222E58954FC4EF589DE
:10109A00900003120486FF7E0064017003538E7F62
:1010AA00EF4E7003438E80EF64024E70054389044D
:1010BA0080035389FB90000412048664017005437F
:1010CA008F018003538FFE90000512051DE5F0F590
:1010DA008C90000512051DF58A900007120486649B
:1010EA00017002D28C7F0022ED6401600302118B31
:1010FA00C28E90000212048664017004D2AB800290
:10110A00C2AB90000112048664017004D2BB800253
:10111A00C2BB12046DFEC394037480948040037FA3
:10112A000222E58954CF4EF589900003120486FF06
:10113A007E0064017003538EBFEF4E7003438E40EE
:10114A00EF64024E700543894080035389BF9000C3
:10115A000412048664017005438F028003538FFDD5
:10116A0090000512051DE5F0F58D90000512051D8C
:10117A00F58B90000712048664017002D28E7F00FC
:10118A0022ED64026003021213538EEF90000212E2
:10119A0004866401700543AF04800353AFFB9000DB
:1011AA0003120486FD7C00D3940274809480400369
:1011BA007F0222ED64014C7003538EFB90000312F0
:1011CA0004867003438E049000031204866402703E
:1011DA0005438E088003538EF79000041204866438
:1011EA00017005438F048003538FFB90000512059D
:1011FA001DFDACF0ECF5D68DD7900007120486647D
:0C120A00017003438E107F00227F02223F
:101AAD0012046DF576900001120486F57790000210
:0E1ABD00120486F5787B007A00797602170B0A
:101216008F6E8E6D8D6C8C6BAB73AA74A9759000F6
:101226000C1206759000101206BFAB6EAA6DA96C63
:10123600A86BAF72AE71AD70AC6F120089AB73AABA
:1012460074A97590000C1206BFE92414F9E43AFA61
:10125600C003C002C001120655AB73AA74A97590EB
:10126600000C12070312008DD001D002D003120623
:10127600A5AB73AA74A975900014120675E4FBFA5F
:1012860079FA78441203245010AB73AA74A97590A6
:10129600001412073344FA0000AB73AA74A97590C0
:1012A6000014120675E4FBFA79FA78C41203246076
:1012B600124010AB73AA74A975900014120733C4B8
:1012C600FA0000AB73AA74A9759000141206759003
:1012D600000412070312017EC004C005C006C00741
:1012E600AB73AA74A97590000C1206751206E31268
:1012F600017ED003D002D001D00012008DC004C000
:1013060005C006C007AB73AA74A975900010120732
:1013160003C000C001C002C003AB73AA74A97590D4
:10132600000C120675D003D002D001D0001200893D
:10133600AB73AA74A97590000812070312017ED038
:1013460003D002D001D00012008DAB73AA74A97528
:1013560090001C1206BF90001812067590001C1211
:1013660007031203246010400EAB73AA74A975908C
:1013760000181206758035AB73AA74A9759000180B
:1013860012067512039DAB73AA74A97590001C1200
:101396000703120324501BAB73AA74A97590001897
:1013A60012067512039DAB73AA74A97590001C12E0
:0313B60006BF224D
:080C10008F4A8B4B8A4C894D81
:100C1800E4F551F550F54FF54EF555F554F553F506
:100C2800529000051207037F007E1B7DB77C491296
:100C380002878F518E508D4F8C4EAB4BAA4CA94DCD
:100C4800900001120703E4FFFE7D7A7C44120089BC
:100C5800E4FBFA797A78441202878F558E548D53C3
:100C68008C5275BA8090FFF2740FF0AF51AE50AD50
:100C78004FAC4E1203EC90FFF0EEF0A3EFF0E54A14
:100C8800B408004003020E62900C97F828287302FB
:100C98000CAF020CE6020D1D020D54020D8B020D65
:100CA800C2020DF8020E2E90FF00E4F0A3F0AF553B
:100CB800AE54AD53AC52AB51AA50A94FA84E120135
:100CC8007E1203EC90FF02EEF0A3EFF0AB4BAA4CC0
:100CD800A94D12046D448090FF04F0020E6290FF4B
:100CE80010E4F0A3F0AF55AE54AD53AC52AB51AADB
:100CF80050A94FA84E12017E1203EC90FF12EEF09D
:100D0800A3EFF0AB4BAA4CA94D12046D448090FFA1
:100D180014F0020E6290FF20E4F0A3F0AF55AE5439
:100D2800AD53AC52AB51AA50A94FA84E12017E1236
:100D380003EC90FF22EEF0A3EFF0AB4BAA4CA94DC9
:100D480012046D448090FF24F0020E6290FF30E49C
:100D5800F0A3F0AF55AE54AD53AC52AB51AA50A965
:100D68004FA84E12017E1203EC90FF32EEF0A3EF73
:100D7800F0AB4BAA4CA94D12046D448090FF34F09F
:100D8800020E6290FF40E4F0A3F0AF55AE54AD53AD
:100D9800AC52AB51AA50A94FA84E12017E1203ECD7
:100DA80090FF42EEF0A3EFF0AB4BAA4CA94D120412
:100DB8006D448090FF44F0020E6290FF50E4F0A36F
:100DC800F0AF55AE54AD53AC52AB51AA50A94FA891
:100DD8004E12017E1203EC90FF52EEF0A3EFF0AB3F
:100DE8004BAA4CA94D12046D448090FF54F0806AC0
:100DF80090FF60E4F0A3F0AF55AE54AD53AC52ABE6
:100E080051AA50A94FA84E12017E1203EC90FF621E
:100E1800EEF0A3EFF0AB4BAA4CA94D12046D448041
:100E280090FF64F0803490FF70E4F0A3F0AF55AE0B
:100E380054AD53AC52AB51AA50A94FA84E12017EE3
:100E48001203EC90FF72EEF0A3EFF0AB4BAA4CA9A3
:100E58004D12046D448090FF74F0E4F5BA75FE807D
:010E68002267
:10161300E4F57BFFFEF57C121B5F7FA0121B057FA9
:101623003D121B05121B5F7FA1121B05121B278F87
:101633007B121B45121B278F7C121B36121B71E575
:101643007CFEE57BFFFDAC06EC1203B3E4FBFAF989
:101653007847120287E4FBFA7934784312017E8FCC
:10166300628E618D608C5F121B5F7FA0121B057FF2
:101673003E121B05121B5F7FA1121B05121B278F36
:101683007B121B45121B278F7C121B36121B71E525
:101693007CFEE57BFFFDAC06EC1203B3E4FBFAF939
:1016A3007847120287E4FBFA7934784312017E8F7C
:1016B300668E658D648C63121B5F7FA0121B057F92
:1016C3003F121B05121B5F7FA1121B05121B278FE5
:1016D3007B121B45121B278F7C121B36121B71E5D5
:1016E3007CFEE57BFFFDAC06EC1203B3E4FBFAF9E9
:1016F3007847120287E4FBFA7934784312017E8F2C
:071703006A8E698D688C6796
:01170A0022BC
:10008600020458E86480F8E933E83360110460F04C
:10009600ED33EC337009E8FCE9FDEAFEEBFF2204E0
:1000A60060DED3EB9FEA9EE99DE8C2E78CF0C2F7DB
:1000B60095F0400CE8CCF8E9CDF9EACEFAEBCFFBA7
:1000C60012042385D0F05804700320D5B3E80470D9
:1000D600075002B2D502046292D5EC0460F7E4CC74
:1000E600C0E0C398F8603B94186008400DD0E0FB70
:1000F60002043AE4FBFAC9FC8028E830E406E4C9C5
:10010600FBE4CAFCE830E305E4C9CACBFCE85407C3
:100116006010F8C3E913F9EA13FAEB13FBEC13FCCE
:10012600D8F130F52FC3E49CFCEF9BFFEE9AFEED71
:1001360099FDD0E0FBEF4E4D4C701222DB0302041A
:100146005FEC2CFCEF33FFEE33FEED33FDED30E7D5
:10015600EB02043AEF2BFFEE3AFEED39FDD0E0FB61
:1001660050130BBB0003020462ED13FDEE13FEEF0A
:0801760013FFEC13FC02043A34
:10017E00EC4D6011E8497017ED33EC3304600DE47B
:10018E00FCFFFEFD22E933E8330470F80204581236
:10019E00042358046009E4CC248150062850090237
:1001AE00046228400302045FC0E0EB4A7044B98049
:1001BE0006D0E0FB02044EEF4E701CBD8008EBFF34
:1001CE00EAFEE9FD80EBE98DF0A4FEE5F0020267A0
:1001DE00E9CDF9EAFEEBFFEF89F0A4FCE5F0CE895C
:1001EE00F0A42EFFE435F0CD89F0A42DFEE435F019
:1001FE008067EF4E7005BD80D780C3EF8BF0A4AC47
:10020E00F0EE8BF0A42CFCE435F0F8EF8AF0A42C81
:10021E00E5F038FCE433CB8DF0A42CFCE5F03BF894
:10022E00EE8AF0A42CFCE5F038F8E433CF89F0A484
:10023E002CFCE5F038CF3400CE89F0A42FFFE5F08A
:10024E003EFEE433C98DF0A42EFEE5F039CD8AF0E2
:10025E00A42FFFE5F03EFEE43DFD33D0E0FB50075A
:10026E000BBB000F020462EC2CFCEF33FFEE33FEEF
:06027E00ED33FD02043A1D
:10028400020462EC5D046005E8590470030204583A
:10029400120423580460F6EC4860F2EC7004FDFE8E
:1002A400FF22C860DB2481C85009C398600250064D
:1002B40002045F9850CAF582E9294B4A7005AB8263
:1002C40002044E75F0007C1A7880C3EF9BEE9AED21
:1002D40099400DC3EF9BFFEE9AFEED99FDE842F0C5
:1002E400DC23ACF0D0E0FFD0E0FED0E0FDAB822018
:1002F400E7101BEB60BAEC2CFCEF33FFEE33FEEDA2
:1003040033FD02043AE803F830E705C0F075F00065
:10031400EF2FFFEE33FEED33FD40B830E7C280AA85
:1003240074F8CC6480CCC86480C8F58204604FC380
:10033400EB9FF5F0EA9E42F0E99D42F0E89C45F01F
:10034400603C501DE5825FFFE582D313CB5BCBF4A9
:100354002B5582FB50280ABA002409B900200880D2
:100364001DE5825BFBE582D313CF5FCFF4C3132F6C
:100374005582FF50090EBE00050DBD00010CC3EBF4
:100384009FF5F0EA9E42F0E99D42F0E89C45F0605A
:0903940007CC4820E701B3EC227C
:10039D00ED33EC33600A047003BD8004ECB2E7FC6E
:0103AD00222D
:1003AE0075F020800E75F010800575F0087D007ECA
:1003BE00007F003392D530D503120623EC33401064
:1003CE00EF33FFEE33FEED33FDEC33FCD5F0ED22D3
:0E03DE00E5F0247EA2D513CC92E7CDCEFF220F
:1003EC00EDD2E7CD33EC3392D524814006E4FFFE09
:1003FC00FDFC22FCE4CFCECDCC24E0501174FF8068
:10040C00EDC3CC13CCCD13CDCE13CECF13CF047004
:07041C00F030D5DE020623DB
:10042300E9D2E7C933E833F892D5EDD2E7CD33EC1F
:0704330033FC5002B2D52298
:10043A00EC30E7100FBF000C0EBE00080DBD000423
:10044A000BEB6014A2D5EB13FCED92E7FD2274FFCF
:10045A00FCFDFEFF22E480F8A2D574FF13FC7D8028
:03046A00E480EF3C
:1017DF000213B9E493A3F8E493A34003F68001F254
:1017EF0008DFF48029E493A3F85407240CC8C3330B
:1017FF00C4540F4420C8834004F456800146F6DFDA
:10180F00E4800B0102040810204080901ACBE47E84
:10181F00019360BCA3FF543F30E509541FFEE493CE
:10182F00A360010ECF54C025E060A840B8E493A395
:10183F00FAE493A3F8E493A3C8C582C8CAC583CAC0
:10184F00F0A3C8C582C8CAC583CADFE9DEE780BE78
:011ADE000007
:10046D00BB010689828A83E0225002E722BBFE028D
:09047D00E32289828A83E49322C0
:10048600BB010CE58229F582E5833AF583E022502B
:1004960006E92582F8E622BBFE06E92582F8E22275
:0D04A600E58229F582E5833AF583E493228F
:1004B300BB010689828A83F0225002F722BBFE0128
:0204C300F32222
:1004C500F8BB010DE58229F582E5833AF583E8F06D
:1004D500225006E92582C8F622BBFE05E92582C819
:0204E500F22201
:1004E700C2D5EC30E709B2D5E4C39DFDE49CFCEE30
:1004F70030E715B2D5E4C39FFFE49EFE120757C34A
:10050700E49DFDE49CFC800312075730D507C3E444
:060517009FFFE49EFE229E
:10051D00BB0110E58229F582E5833AF583E0F5F01C
:10052D00A3E0225009E92582F886F008E622BBFEF9
:10053D000AE92582F8E2F5F008E222E5832AF5833F
:08054D00E993F5F0A3E9932204
:1005550075F008758200EF2FFFEE33FECD33CDCC5D
:1005650033CCC58233C5829BED9AEC99E5829840E0
:100575000CF582EE9BFEED9AFDEC99FC0FD5F0D6BD
:10058500E4CEFBE4CDFAE4CCF9A88222B800C1B9E7
:100595000059BA002DEC8BF084CFCECDFCE5F0CB25
:1005A500F97818EF2FFFEE33FEED33FDEC33FCEB5E
:1005B50033FB10D703994004EB99FB0FD8E5E4F919
:1005C500FA227818EF2FFFEE33FEED33FDEC33FC06
:1005D500C933C910D7059BE99A4007EC9BFCE99AFA
:1005E500F90FD8E0E4C9FAE4CCFB2275F010EF2F3F
:1005F500FFEE33FEED33FDCC33CCC833C810D7073F
:100605009BEC9AE899400AED9BFDEC9AFCE899F879
:0E0615000FD5F0DAE4CDFBE4CCFAE4C8F9220C
:0E062300C3E49FFFE49EFEE49DFDE49CFC22E8
:10063100EB9FF5F0EA9E42F0E99D42F0E89C45F01F
:010641002296
:10064200E8600FECC313FCED13FDEE13FEEF13FF96
:03065200D8F122BA
:10065500BB010789828A830207B85005E9F80207BA
:10066500ACBBFE05E9F80207C489828A830207D07C
:10067500BB010DE58229F582E5833AF5830207B8CA
:100685005007E92582F80207ACBBFE07E92582F889
:100695000207C4E58229F582E5833AF5830207D08E
:1006A500BB010789828A830208225005E9F80208FE
:0A06B50016BBFE05E9F802082E222C
:1006BF00BB010DE58229F582E5833AF58302082215
:1006CF005007E92582F8020816BBFE07E92582F8D4
:0406DF0002082E22BD
:1006E300BB010789828A830207ED5005E9F80207F7
:1006F300E0BBFE05E9F80207F989828A830208064E
:10070300BB010DE58229F582E5833AF5830207ED06
:100713005007E92582F80207E0BBFE07E92582F8C6
:100723000207F9E58229F582E5833AF58302080693
:10073300BB010DE58229F582E5833AF5830208536F
:100743005007E92582F802083ABBFE07E92582F83B
:0407530002088422F2
:10075700BC000BBE0029EF8DF084FFADF022E4CC86
:10076700F875F008EF2FFFEE33FEEC33FCEE9DEC4F
:10077700984005FCEE9DFE0FD5F0E9E4CEFD22ED95
:10078700F8F5F0EE8420D21CFEADF075F008EF2FDF
:10079700FFED33FD4007985006D5F0F222C398FDD0
:0507A7000FD5F0EA226D
:0C07AC00E6FC08E6FD08E6FE08E6FF2279
:0C07B800E0FCA3E0FDA3E0FEA3E0FF22B4
:0C07C400E2FC08E2FD08E2FE08E2FF2271
:1007D000E493FC740193FD740293FE740393FF226F
:0D07E000E6FB08E6F908E6FA08E6CBF82289
:0C07ED00E0F8A3E0F9A3E0FAA3E0FB228F
:0D07F900E2FB08E2F908E2FA08E2CBF82280
:10080600E493F8740193F9740293FA740393FB2248
:0C081600ECF608EDF608EEF608EFF6220E
:0C082200ECF0A3EDF0A3EEF0A3EFF02249
:0C082E00ECF208EDF208EEF208EFF22206
:10083A00D083D082E493F608740193F60874029385
:09084A00F608740393F6740473BC
:10085300A8828583F0D083D08212086A12086A12B4
:10086300086A12086AE473E493A3C583C5F0C583D9
:10087300C8C582C8F0A3C583C5F0C583C8C582C8EF
:010883002252
:10088400D083D082E493F208740193F20874029343
:09089400F208740393F27404737A
:00000001FF
