:030000000230BE0D
:0C30BE00787FE4F6D8FD75812002310512
:10376500496E69742100776B703A00776B693A008E
:0A377500776B643A0076616C3A004D
:102BA800E4900394F0A3F0122C7C7BFF7A377965CC
:102BB8007D037F0D12301C7FE87E0312374A1237DF
:102BC800C112360412365712367D1234CD7BFF7A85
:102BD80037796B7D01E4FF12301C90034CE0FCA3B5
:102BE800E0FDA3E0FEA3E0FF9003981208A67D0194
:102BF8007F19121B467BFF7A3779707D02E4FF123A
:102C0800301C900350E0FCA3E0FDA3E0FEA3E0FF2E
:102C18009003981208A67D027F19121B467BFF7A43
:102C28003779757D03E4FF12301C900354E0FCA350
:102C3800E0FDA3E0FEA3E0FF9003981208A67D0341
:102C48007F19121B467BFF7A37797A7D07E4FF12DA
:102C5800301C90046DE0FCA3E0FDA3E0FEA3E0FFC0
:102C68001203ECAB07AA067D077F1912253212342E
:042C7800CD022BD589
:10374A00E4FDFCC3ED9FEC9E50100079207B28DB42
:0A375A00FED9FC0DBD00010C80E952
:013764002242
:10377F00E4FDFCC3ED9FEC9E500B7B06DBFE0DBD05
:05378F0000010C80EEBA
:013794002212
:101FA800EFD394057480948040037F012212056367
:101FB800FED394037480948040037F0222EF704420
:101FC800EE700B90000112057CF4529352941205A6
:101FD800636401700B90000112057C4293F45294E3
:101FE800120563FE6402700A90000112057C429398
:101FF8004294EE6403700D90000112057CFEF452C9
:1020080093EE4294EF64017046120563FE700B90E4
:10201800000112057CF452915292EE6401700B900B
:10202800000112057C4291F4529212056364027019
:102038000A90000112057C429142921205636403E2
:10204800700D90000112057CFEF45291EE4292EF61
:1020580064027046120563FE700B90000112057C45
:10206800F452955296EE6401700B90000112057CB3
:102078004295F452961205636402700A90000112A8
:10208800057C429542961205636403700D90000129
:1020980012057CFEF45295EE4296EF6403704612E8
:1020A8000563FE700B90000112057CF452B152B228
:1020B800EE6401700B90000112057C42B1F452B23B
:1020C8001205636402700A90000112057C42B14255
:1020D800B21205636403700D90000112057CFEF4D2
:1020E80052B1EE42B2EF64047046120563FE700B03
:1020F80090000112057CF452B352B4EE6401700BE7
:1021080090000112057C42B3F452B41205636402D4
:10211800700A90000112057C42B342B41205636450
:1021280003700D90000112057CFEF452B3EE42B428
:10213800EF64057049120563FF7E00700B90000183
:1021480012057CF452C952CAEF64014E700B90001C
:102158000112057C42C9F452CA1205636402700A6E
:1021680090000112057C42C942CA120563640370DB
:102178000D90000112057CFFF452C9EF42CA7F009E
:012188002234
:10351500EFFD7C00701075BA9090FE8074E0F0901D
:10352500FE82E4F0801EED64014C701875BA80903F
:10353500FE807481F090FE85745AF090FE84E4F06C
:0835450090FE83F0E4F5BA22C8
:1031D600D200D201E49004CEF0E02400F8E290FEA2
:1031E60086F090FE84E030E605E054BFF02290FEC3
:1031F60084E030E52DE054DFF0300003C2002230D9
:10320600010DC20190FE87E09004CEF0E0802F9081
:10321600FE87E0FF9004CEE0FE04F074002EF8EF87
:10322600F22290FE84E030E41EE054EFF0E030E15C
:103236000790FE8674FFF0229004CEE004F024008E
:10324600F8E290FE86F02290FE84E030E308E05437
:07325600F7F0D200D20122C3
:0C00460090FE82E030E6F9E054BFF022AA
:0938490090FE817401F0020046BA
:1037FB0090FE86EFF090FE817402F01200460238C4
:01380B00526A
:0938520090FE817403F0020046AF
:0F381D0090FE817404F012004690FE87E0FF22B7
:0E383B0090FE82E4F090FE817405F0020046DB
:0F382C0090FE827401F090FE817405F002004658
:09385B0090FE817406F0020046A3
:1037D500E4FFFE000000000FBF00010EBE0BF4BFAA
:0237E500B8F139
:0137E70022BF
:10380C00E59A30E103539AFDE59A30E003539AFEB2
:01381C002289
:0300230002325D49
:10325D00C0E0C083C082C0D075D000C006C00730AA
:10326D009831C2989003E8E070299003E6E0C3948A
:10327D000B748094804002E4F09003E6E0FF04F0CC
:10328D0074F02FF582E43403F583E599F09003E7AC
:10329D007405F0309934C2999003E4E0FF9003E394
:1032AD00E0FE6F602074062EF582E43404F583E0B1
:1032BD00F5999003E3E004F0C3940B74809480407F
:1032CD0009E4F080059003E5E4F0D007D006D0D0F6
:0732DD00D082D083D0E03263
:030043000232E4A2
:1032E400C0E0C083C082C0D075D000C006C0071241
:1032F400380C9003EFE070299003EDE0C3940B7455
:103304008094804002E4F09003EDE0FF04F074FB4D
:103314002FF582E43403F583E59BF09003EE740506
:10332400F012380C9003EBE0FF9003EAE0FE6F60CC
:103334002074112EF582E43404F583E0F59B9003A8
:10334400EAE004F0C3940B748094804009E4F080B4
:10335400059003ECE4F0D007D006D0D0D082D0831F
:03336400D0E03284
:100E9C009004A8EBF0A3EAF0A3E9F09004A7EFF01C
:100EAC00D2AF640160030211139003E204F0E4A3D7
:100EBC00F0A3F0A3F0A3F0A3F0A3F09004ABF09098
:100ECC0004ABE0FFC3940B74809480501474062F11
:100EDC00F582E43404F583E4F09004ABE004F08094
:100EEC00DEE49004ABF09004ABE0FFC3940B748091
:100EFC009480501474F02FF582E43403F583E4F0FD
:100F0C009004ABE004F080DE9004A8E0FBA3E0FAD0
:100F1C00A3E0F9120563FD7C00D394C07480948027
:100F2C0040037F022290000A12057C64017004D2F7
:100F3C00BC8002C2BC120563FFE598543F4FF59884
:100F4C00ED64C04C6008EF6440600302103E9000FA
:100F5C00021208767F807E8D7D5B7C0012070490E8
:100F6C0004AC1208A6E4FFFE7D01FC9004ACE0F892
:100F7C00A3E0F9A3E0FAA3E0FBC31207A440037FAC
:100F8C0002229004ACE0F8A3E0F9A3E0FAA3E0FBA2
:100F9C00C3E49BFFE49AFE740199FDE498FC900471
:100FAC00AC1208A69004A8E0FBA3E0FAA3E0F99029
:100FBC00000112057CFB7A0064017038C28E538EDE
:100FCC00FE5389BF5389CF438E409004ACE0FCA301
:100FDC00E0FDA3E0FEA3E0FF78081207B58F8D902B
:100FEC0004ACA3A3A3E0F58BC2AB5389BF538FFD15
:100FFC00D28E807DEB64024A7035538EEF438E01A6
:10100C00538EF7438E049004ACE0FCA3E0FDA3E008
:10101C00FEA3E0FF78081207B58FD69004ACA3A30B
:10102C00A3E0F5D753AFFB538EF7438E1080427F6E
:10103C0002229004A8E0FBA3E0FAA3E0F9120563F6
:10104C00FF7E00701490000812057C64017005434B
:10105C008E20801D538EDF8018EF64804E701290AE
:10106C00000812057C640170054387808003538758
:10107C007F9004A8E0FBA3E0FAA3E0F9900009122A
:10108C00057C64017004D2AC8002C2AC90000712E3
:10109C00057C64017004D29C8002C29C90000B12EF
:0410AC00057C700A45
:0810B0009004B07403F0A314D6
:1010B800802F9004A8E0FBA3E0FAA3E0F990000BCE
:0A10C80012057C64809004B07011E2
:0F10D2007403F0A37480F07B017A0479B07F017E
:0210E100800F7E
:1010E3007403F0A37480F07B017A0479B07F031258
:0210F3001FA834
:1010F5009004A8E0FBA3E0FAA3E0F990000B120529
:101105007C54C0FFE5A2543F4FF5A27F0022900416
:10111500A7E0640260030212B99003E97402F0E4E7
:10112500A3F0A3F0A3F0A3F0A3F0A3F09004ABF019
:101135009004ABE0FFC3940B748094805014741139
:101145002FF582E43404F583E4F09004ABE004F079
:1011550080DEE49004ABF09004ABE0FFC3940B7425
:10116500809480501474FB2FF582E43403F583E4F6
:10117500F09004ABE004F080DE9004A8E0FBA3E06F
:10118500FAA3E0F9120563FF64C06008EF644060EC
:101195000302123F90000A12057C6401700543B5F5
:1011A50001800353B5FE12056364C07005439A8040
:1011B5008003539A7F9000021208767F807E8D7D92
:1011C5005B7C001207049004AC1208A6E4FFFE7DC8
:1011D50001FC9004ACE0F8A3E0F9A3E0FAA3E0FB7E
:1011E500C31207A440037F02229004ACE0F8A3E0F9
:1011F500F9A3E0FAA3E0FBC3E49BFFE49AFE7401C4
:1012050099FDE498FC9004AC1208A6538EEF538E1A
:10121500F7438E049004ACE0FCA3E0FDA3E0FEA33D
:10122500E0FF78081207B58FD69004ACA3A3A3E01E
:10123500F5D753AFFB438E1080037F02229004A89D
:10124500E0FBA3E0FAA3E0F990000912057C640134
:10125500700543AF01800353AFFE90000712057C74
:1012650064017005439A108003539AEF90000B12A6
:07127500057C9004B070102D
:0E127C007403F0A314F07B017A0479B07F01B3
:02128A00800FD3
:10128C007403F0A37480F07B017A0479B07F0412AC
:02129C001FA889
:10129E009004A8E0FBA3E0FAA3E0F990000B12057E
:0D12AE007C5401FFE5BA54FE4FF5BA7F00F5
:0112BB002210
:103630009004CFEFF09003E5E0701304F09004CF16
:10364000E0F5993099FDC299E49003E5F0227F05F9
:073650007E0012377F80DECF
:1035AC009003EBE02411F582E43404F583EFF09002
:1035BC0003EBE004F0C3940B748094804002E4F0BD
:0C35CC009003ECE0700504F012380C22B3
:1035D8009004C4EBF0A3EAF0A3E9F09004C4E0FB84
:1035E800A3E0FAA3E0F9120563FF600F12363090EA
:0C35F80004C5E475F00112067A80E022A0
:1037E800120563FF600C1235AC740129F9E43AFA4A
:0337F80080EE223E
:07386D003098FDC298AF99ED
:013874002231
:0538750012380CAF9BAE
:01387A00222B
:10218900900459EBF0A3EAF0A3E9F0900457EEF0BC
:03219900A3EFF0C1
:10219C00E490045CF0A3F0C3EE64809480501EE4E1
:1021AC00900460F0A3F0900457E0FEA3E0FFC3E4BA
:1021BC009FFFE49E900457F0A3EFF080089004601A
:1021CC00E4F0A304F0900457E0FEA3E0FF7C007D54
:1021DC000A120644EF4E604B900457E0FAA3E0FB62
:1021EC007C007D0AFFAE02120644ED2430FF900401
:1021FC005CE0FCA3E02462F58274043CF583EFF010
:10220C007C007D0AAF03AE02120644900457EEF038
:10221C00A3EFF090045DE004F070AA90045CE0047D
:10222C00F080A2900457A3E02430FF90045CE0FC03
:10223C00A3E02462F58274043CF583EFF090046013
:10224C00E07002A3E060030222E2900459E0FBA3D9
:10225C00E0FAA3E0F9742D1205A990045CE0FFA349
:10226C00E0A3CFF0A3EFF090045EE0FEA3E0FFD379
:10227C0094FFEE6480947F404A74622FF58274045C
:10228C003EF583E0FF90045EE0FCA3E0FDC3900408
:10229C005DE09DFD90045CE09CCD2401CD3400FC00
:1022AC00900459E0FBA3E0FAA3E0F98D828C83EF54
:1022BC001205BB90045FE024FFF090045EE034FF55
:1022CC00F080A4900459E0FBA3E0FAA3E0F9900499
:1022DC005DE02402807490045CE0FFA3E0A3CFF0E7
:1022EC00A3EFF090045EE0FEA3E0FFD394FFEE6456
:1022FC0080947F404474622FF58274043EF583E031
:10230C00FF90045EE0FCA3E0FDC390045DE09DFD46
:10231C0090045CE09CFC900459E0FBA3E0FAA3E081
:10232C00F98D828C83EF1205BB90045FE024FFF0E3
:10233C0090045EE034FFF080AA900459E0FBA3E027
:10234C00FAA3E0F990045DE02401FF90045CE03412
:09235C00008F82F583E41205BB39
:012365002255
:1018CB0090047E1208A6900482EBF0A3EAF0A3E941
:0118DB00F01C
:1018DC00E4FFFEFDFC90047EE0F8A3E0F9A3E0FA3F
:1018EC00A3E0FB120324900482E0FBA3E0FAA3E044
:1018FC00F94007742B1205A9801C742D1205A990B0
:10190C00047EE0FCA3E0FDA3E0FEA3E0FF12039D38
:10191C0090047E1208A690047EE0FCA3E0FDA3E0F8
:10192C00FEA3E0FF1203EC900487EEF0A3EFF0E4CB
:10193C00A3F0A3F0900487E0FEA3E0FF4E601F7CB1
:10194C00007D0A120644900487EEF0A3EFF0900499
:10195C008AE004F070DE900489E004F080D69004F4
:10196C007EE0FCA3E0FDA3E0FEA3E0FF1203EC90FD
:10197C000487EEF0A3EFF0A3E0FFA3E0A3CFF0A366
:10198C00EFF0D390048CE0940090048BE06480948E
:10199C00804054900487E0FEA3E0FF7C007D0A1297
:1019AC000644ED2430FF900482E0FBA3E0FAA3E0B0
:1019BC00F990048BE0FCA3E0F5828C83EF1205BB5D
:1019CC00900487E0FEA3E0FF7C007D0A12064490A1
:1019DC000487EEF0A3EFF090048CE024FFF0900469
:1019EC008BE034FFF0809B900482E0FBA3E0FAA331
:1019FC00E0F990048AE02401FF900489E034008F20
:101A0C0082F583742E1205BB90047EE0FCA3E0FDEE
:101A1C00A3E0FEA3E0FFC004C005C006C00790040D
:101A2C007EA3A3A3E01203ECAD07AC06EC1203B348
:101A3C00A804A905AA06AB07D007D006D005D00488
:101A4C0012008990047E1208A690048AE02402F009
:101A5C00900489E03400F0900486E024FFFF9004A9
:101A6C0085E034FFFEC390048AE09FEE6480F8901A
:101A7C000489E06480984003021B2690047EE0FCFD
:101A8C00A3E0FDA3E0FEA3E0FFE4FBFA792078419C
:101A9C0012017E90047E1208A690047EE0FCA3E066
:101AAC00FDA3E0FEA3E0FF1203ECEF2430FF900453
:101ABC0082E0FBA3E0FAA3E0F9900489E0FCA3E048
:101ACC00F5828C83EF1205BB90047EE0FCA3E0FD55
:101ADC00A3E0FEA3E0FFC004C005C006C00790044D
:101AEC007EA3A3A3E01203ECAD07AC06EC1203B388
:101AFC00A804A905AA06AB07D007D006D005D004C8
:101B0C0012008990047E1208A690048AE004F070FA
:101B1C0006900489E004F0021A63900482E0FBA3AF
:101B2C00E0FAA3E0F9900486E024FFFF900485E03E
:0A1B3C0034FF8F82F583E40205BB3D
:0512BC004204CA00001D
:0300030002000AEE
:01000A0032C3
:0300130002000EDA
:01000E0032BF
:0300530002000F99
:01000F0032BE
:03005B0002001090
:0100100032BD
:0300830002001167
:0100110032BC
:03003B0002357D0E
:10357D00C0E0C083C08230D802C2D830D910C2D9C1
:10358D009004CBE004F070069004CAE004F030DA49
:0F359D0002C2DA30DB02C2DBD082D083D0E03250
:1026AE00EFD394107480948040037F0122D2AFEF59
:1026BE00703090000212057C64017004D2A8800272
:1026CE00C2A890000112057C64017004D2B8800289
:1026DE00C2B812056364017004D2888002C2887F7A
:1026EE000022EF6402703090000212057C640170CB
:1026FE0004D2AA8002C2AA90000112057C64017065
:10270E0004D2BA8002C2BA12056364017004D28A7E
:10271E008002C28A7F0022EF640A701590000212B6
:10272E00057C64017005438F108003538FEF7F008B
:10273E0022EF640B701590000212057C6401700587
:10274E00438F208003538FDF7F0022EF64107015BC
:10275E0090000212057C64017005438F4080035384
:10276E008FBF7F0022EF6407701FF5D875D90DF566
:10277E00E9F5F91205636401700575DA11800375C8
:10278E00DA21E4F5EAF5FA806AEF6408701FF5D8ED
:10279E0075D90DF5E9F5F91205636401700575DB60
:1027AE0011800375DB21E4F5EBF5FB8046EF640940
:1027BE00701FF5D875D90DF5E9F5F91205636401A9
:1027CE00700575DC11800375DC21E4F5ECF5FC80F9
:1027DE0022EF640C7021F5D875D90DF5E9F5F912D3
:1027EE0005636401700575DD11800375DA21E4F56A
:0A27FE00EDF5FDD2DEFF227F02227E
:1012C10042048D000042048F00004204910000445A
:0D12D1000493BF80000044049742480000D1
:03000B00022ECAF8
:102ECA00C0E0C0F0C083C082C0D075D000C000C0CE
:102EDA0001C002C003C004C005C006C00790048E2A
:102EEA00E004F0700690048DE004F090048DE07028
:102EFA0004A3E0640A705B9004CAE0FCA3E0FDEC62
:102F0A001203B39003D71208A69003DB1208B24348
:102F1A002000009003DF7401F0A37403F0A3744C43
:102F2A00F07F011209BB90036CE0FCA3E0FDA3E073
:102F3A00FEA3E0FF90046D1208A67B017A04796C67
:102F4A00E4FF12294F90048DE4F0A3F09004CAF034
:102F5A00A3F0D007D006D005D004D003D002D00108
:0D2F6A00D000D0D0D082D083D0F0D0E032A3
:03001B00022D4A69
:102D4A00C0E0C0F0C083C082C0D075D000C000C04F
:102D5A0001C002C003C004C005C006C007900490A9
:102D6A00E004F0700690048FE004F090048FE070A5
:102D7A0004A3E0640A7071121D8290043FE0FCA370
:102D8A00E0FDA3E0FEA3E0FF12039D9003D7120823
:102D9A00A6900493E0FCA3E0FDA3E0FEA3E0FF906D
:102DAA0003DB1208A69003DF7401F0A37403F0A3F7
:102DBA007470F07F021209BBE4FFFE7D9C7C429096
:102DCA000390E0F8A3E0F9A3E0FAA3E0FB12008D78
:102DDA009004761208A67B017A0479757F01121590
:102DEA00CE90048FE4F0A3F0D007D006D005D0042B
:102DFA00D003D002D001D000D0D0D082D083D0F07E
:032E0A00D0E032E3
:03006300022F77F2
:102F7700C0E0C0F0C083C082C0D075D000C000C020
:102F870001C002C003C004C005C006C00790049278
:102F9700E004F07006900491E004F0900491E07072
:102FA70004A3E06428705312354DAC06AD07E41254
:102FB70003B39003D71208A6900497E0FCA3E0FDA3
:102FC700A3E0FEA3E0FF9003DB1208A69003DF74E3
:102FD70001F0A37403F0A37428F0E4FF1209BB9077
:102FE7000348E0FCA3E0FDA3E0FEA3E0FF90049309
:102FF7001208A6900491E4F0A3F0D007D006D005FC
:10300700D004D003D002D001D000D0D0D082D0835A
:05301700D0F0D0E03212
:10236600AD07EDD394027480948040037F0122D29E
:10237600AFED600302240EC28C90000212057C644D
:10238600017004D2A98002C2A990000112057C64E2
:10239600017004D2B98002C2B9120563FED3940358
:1023A6007480948040037F0222E58954FC4EF589AF
:1023B60090000312057CFF7E0064017003538E7F3C
:1023C600EF4E7003438E80EF64024E70054389041E
:1023D60080035389FB90000412057C640170054359
:1023E6008F018003538FFE900005120690E5F0F5ED
:1023F6008C900005120690F58A90000712057C6401
:10240600017002D28C7F0022ED640160030224A7D2
:10241600C28E90000212057C64017004D2AB800269
:10242600C2AB90000112057C64017004D2BB80022D
:10243600C2BB120563FEC394037480948040037F7D
:102446000222E58954CF4EF58990000312057CFFE0
:102456007E0064017003538EBFEF4E7003438E40BF
:10246600EF64024E700543894080035389BF900094
:102476000412057C64017005438F028003538FFDAF
:10248600900005120690E5F0F58D90000512069075
:10249600F58B90000712057C64017002D28E7F00D6
:1024A60022ED6402600302252F538EEF9000021284
:1024B600057C6401700543AF04800353AFFB9000B5
:1024C6000312057CFD7C00D3940274809480400343
:1024D6007F0222ED64014C7003538EFB90000312C1
:1024E600057C7003438E0490000312057C64027021
:1024F60005438E088003538EF790000412057C6412
:10250600017005438F048003538FFB90000512066C
:1025160090FDACF0ECF5D68DD790000712057C64E3
:0C252600017003438E107F00227F022210
:1036C800120563900399F090000112057C90039A0B
:1036D800F090000212057C90039BF07B017A03793D
:0436E800990226AE6F
:1037C100E4900396F0A304F0A3F0FB7A0379967FCB
:0437D100080236C8EC
:1012DE006024034C3E19999A3EE666663E8F5C2961
:1012EE000000000000000000000000004475000037
:1012FE000000000000000000602403703EC718A824
:10130E003E19999A3D36A40100000000000000002D
:10131E000000000042500000C2500000000000001B
:10132E006024032800000000000000000000000000
:10133E0000000000000000000000000040C000009F
:08134E0040C000000000000097
:1009BB009003D6EFF06003020B869003DFE0FBA3FE
:1009CB00E0FAA3E0F990000C1207E890001012086F
:1009DB00329003D7E0F8A3E0F9A3E0FAA3E0FBA37E
:1009EB00E0FCA3E0FDA3E0FEA3E0FF12008990036F
:1009FB00DFE0FBA3E0FAA3E0F990000C120832E968
:100A0B002414F9E43AFAC003C002C0011207C890DB
:100A1B0003DFE0FBA3E0FAA3E0F990000C120876E9
:100A2B0012008DD001D002D0031208189003DFE022
:100A3B00FBA3E0FAA3E0F99000141207E8E4FBFA39
:100A4B0079A0784012032450159003DFE0FBA3E05C
:100A5B00FAA3E0F99000141208E340A00000900301
:100A6B00DFE0FBA3E0FAA3E0F99000141207E8E43F
:100A7B00FBFA79A078C0120324601740159003DFAE
:100A8B00E0FBA3E0FAA3E0F99000141208E3C0A086
:100A9B0000009003DFE0FBA3E0FAA3E0F990001461
:100AAB001207E890000412087612017EC004C005FC
:100ABB00C006C0079003DFE0FBA3E0FAA3E0F990C8
:100ACB00000C1207E812085612017ED003D002D098
:100ADB0001D00012008DC004C005C006C0079003F2
:100AEB00DFE0FBA3E0FAA3E0F9900010120876C058
:100AFB0000C001C002C0039003DFE0FBA3E0FAA338
:100B0B00E0F990000C1207E8D003D002D001D0001E
:100B1B001200899003DFE0FBA3E0FAA3E0F9900059
:100B2B000812087612017ED003D002D001D0001239
:100B3B00008D9003DFE0FBA3E0FAA3E0F990002027
:100B4B001208329000181207E89000201208761253
:100B5B00032460054003020E589003DFE0FBA3E083
:100B6B00FAA3E0F990001C1207E890002012087617
:100B7B001203244003020E9B020E849003D6E06402
:100B8B00016003020CC89003DFE0FBA3E0FAA3E0D3
:100B9B00F990000C1207E89000101208329003D75E
:100BAB00E0F8A3E0F9A3E0FAA3E0FBA3E0FCA3E0E9
:100BBB00FDA3E0FEA3E0FF1200899003DFE0FBA39F
:100BCB00E0FAA3E0F990000C120832E92420F9E4D2
:100BDB003AFAC003C002C0011207C8C004C005C066
:100BEB0006C0079003DFE0FBA3E0FAA3E0F9900057
:100BFB0010120876C000C001C002C0039003DFE0F2
:100C0B00FBA3E0FAA3E0F990000C1207E8D003D0A5
:100C1B0002D001D0001200899003DFE0FBA3E0FAC1
:100C2B00A3E0F912085612017EC004C005C006C02D
:100C3B00079003DFE0FBA3E0FAA3E0F990000C12AE
:100C4B0007E890000412087612017EA804A905AAF1
:100C5B0006AB07D007D006D005D00412008DA80430
:100C6B00A905AA06AB07D007D006D005D004120001
:100C7B008DD001D002D0031208189003DFE0FBA344
:100C8B00E0FAA3E0F99000181207E8900020120890
:100C9B007612032460054003020E589003DFE0FB3D
:100CAB00A3E0FAA3E0F990001C1207E890002012D1
:100CBB0008761203244003020E9B020E849003D687
:100CCB00E064026003020E9B9003DFE0FBA3E0FAFB
:100CDB00A3E0F990000C1207E89000101208329074
:100CEB0003D7E0FCA3E0FDA3E0FEA3E0FFA3E0F845
:100CFB00A3E0F9A3E0FAA3E0FB12008D9003DFE081
:100D0B00FBA3E0FAA3E0F990000C120832E92414DB
:100D1B00F9E43AFAC003C002C0011207C89003D726
:100D2B00E0F8A3E0F9A3E0FAA3E0FB12008DD001F9
:100D3B00D002D0031208189003DFE0FBA3E0FAA364
:100D4B00E0F99000141207E8E4FBFA79A07840125E
:100D5B00032450159003DFE0FBA3E0FAA3E0F99026
:100D6B0000141208E340A000009003DFE0FBA3E0B7
:100D7B00FAA3E0F99000141207E8E4FBFA79A078E3
:100D8B00C0120324601740159003DFE0FBA3E0FAC9
:100D9B00A3E0F99000141208E3C0A000009003DF59
:100DAB00E0FBA3E0FAA3E0F99000141207E890002F
:100DBB000412087612017EC004C005C006C007905D
:100DCB0003DFE0FBA3E0FAA3E0F990000C1207E8C5
:100DDB0012085612017ED003D002D001D0001200AF
:100DEB008DC004C005C006C0079003DFE0FBA3E085
:100DFB00FAA3E0F9900008120876C000C001C00207
:100E0B00C00390044BE0FCA3E0FDA3E0FEA3E0FFD6
:100E1B0012039DD003D002D001D00012017ED0036B
:100E2B00D002D001D00012008D9003DFE0FBA3E0D5
:100E3B00FAA3E0F99000201208329000181207E88C
:100E4B00900020120876120324601240109003DFEA
:100E5B00E0FBA3E0FAA3E0F9900018802A9003DFEF
:100E6B00E0FBA3E0FAA3E0F990001C1207E8900066
:100E7B002012087612032450179003DFE0FBA3E047
:100E8B00FAA3E0F990001C1207E890002012083238
:010E9B002234
:10365700E4900396F0A304F0A3F0E4A3F0A304F02E
:10366700A374A2F0A37440F0A37401F0FB7A03796A
:0636770096E4FF02236649
:1013560049046C0000000000464350004904750033
:08136600429C00004248000017
:0E15CE009003CAEFF0A3EBF0A3EAF0A3E9F05C
:1015DC00A31208B2000000009003D21208B200005F
:1015EC0000009003CBE0FBA3E0FAA3E0F990000528
:1015FC001208767F007E1B7DB77C49120287900310
:10160C00CE1208A69003CBE0FBA3E0FAA3E0F9907E
:10161C000001120876E4FFFE7D7A7C44120089E416
:10162C00FBFA797A78441202879003D21208A675D5
:10163C00BA8090FFF2740FF09003CEE0FCA3E0FDB3
:10164C00A3E0FEA3E0FF1203EC90FFF0EEF0A3EF9B
:10165C00F09003CAE0B4080040030218C49016705E
:10166C00F82828730216880216D002171802176081
:10167C000217A80217F002183802187F90FF00E436
:10168C00F0A3F09003D2E0FCA3E0FDA3E0FEA3E006
:10169C00FF9003CEE0F8A3E0F9A3E0FAA3E0FB127D
:1016AC00017E1203EC90FF02EEF0A3EFF09003CB5F
:1016BC00E0FBA3E0FAA3E0F9120563448090FF0479
:1016CC00F00218C490FF10E4F0A3F09003D2E0FCF9
:1016DC00A3E0FDA3E0FEA3E0FF9003CEE0F8A3E0BF
:1016EC00F9A3E0FAA3E0FB12017E1203EC90FF12C7
:1016FC00EEF0A3EFF09003CBE0FBA3E0FAA3E0F94C
:10170C00120563448090FF14F00218C490FF20E48B
:10171C00F0A3F09003D2E0FCA3E0FDA3E0FEA3E075
:10172C00FF9003CEE0F8A3E0F9A3E0FAA3E0FB12EC
:10173C00017E1203EC90FF22EEF0A3EFF09003CBAE
:10174C00E0FBA3E0FAA3E0F9120563448090FF24C8
:10175C00F00218C490FF30E4F0A3F09003D2E0FC48
:10176C00A3E0FDA3E0FEA3E0FF9003CEE0F8A3E02E
:10177C00F9A3E0FAA3E0FB12017E1203EC90FF3216
:10178C00EEF0A3EFF09003CBE0FBA3E0FAA3E0F9BB
:10179C00120563448090FF34F00218C490FF40E4BB
:1017AC00F0A3F09003D2E0FCA3E0FDA3E0FEA3E0E5
:1017BC00FF9003CEE0F8A3E0F9A3E0FAA3E0FB125C
:1017CC00017E1203EC90FF42EEF0A3EFF09003CBFE
:1017DC00E0FBA3E0FAA3E0F9120563448090FF4418
:1017EC00F00218C490FF50E4F0A3F09003D2E0FC98
:1017FC00A3E0FDA3E0FEA3E0FF9003CEE0F8A3E09E
:10180C00F9A3E0FAA3E0FB12017E1203EC90FF5265
:10181C00EEF0A3EFF09003CBE0FBA3E0FAA3E0F92A
:10182C00120563448090FF54F00218C490FF60E4EA
:10183C00F0A3F09003D2E0FCA3E0FDA3E0FEA3E054
:10184C00FF9003CEE0F8A3E0F9A3E0FAA3E0FB12CB
:10185C00017E1203EC90FF62EEF0A3EFF09003CB4D
:10186C00E0FBA3E0FAA3E0F9120563448090FF6467
:10187C00F0804590FF70E4F0A3F09003D2E0FCA35D
:10188C00E0FDA3E0FEA3E0FF9003CEE0F8A3E0F9B7
:10189C00A3E0FAA3E0FB12017E1203EC90FF72EEC0
:1018AC00F0A3EFF09003CBE0FBA3E0FAA3E0F91276
:0E18BC000563448090FF74F0E4F5BA75FE8079
:0118CA0022FB
:0E294F009003BEEFF0A3EBF0A3EAF0A3E9F0D3
:10295D00E4A3F0A3F0A3F0A3F0A31208B2000000CB
:10296D00009003BFE0FBA3E0FAA3E0F9900005128D
:10297D0007E8E4FBFA7980784312017EA804A905E3
:10298D00AA06AB077F007E1B7DB77C4B1202871218
:10299D0003ECC374FF9F9003C3F0E49E9003C2F059
:1029AD009003BFE0FBA3E0FAA3E0F9900001120849
:1029BD0076E4FFFE7D7A7C44120089E4FBFA797A95
:1029CD0078441202879003C61208A6E4FFFE7D7FAD
:1029DD007C439003C6E0F8A3E0F9A3E0FAA3E0FB83
:1029ED0012017E1203EC9003C4EEF0A3EFF0E4F5B8
:1029FD00D875D90CF5E9F5F99003BFE0FBA3E0FA22
:102A0D00A3E0F912056324F8600D24F8600E24107C
:102A1D00700DE4F5A2800875A210800375A22090B8
:102A2D0003BEE014601C14602B14603A240370463E
:102A3D0075DA42E4F5F29003C4A3E0FFF5EA8FFAEC
:102A4D00803475DB42E4F5F39003C4A3E0FFF5EBAE
:102A5D008FFB802275DC42E4F5F49003C4A3E0FF04
:102A6D00F5EC8FFC801075DD42E4F5F59003C4A301
:082A7D00E0FFF5ED8FFDD2DE54
:012A8500222E
:10136E0058043F00000000000000000000000000D4
:0B137E00000000000000000000000064
:101D8200E49003CAF0FFFEA3F075BA901238497FBF
:101D9200A01237FB7F3D1237FB1238497FA1123761
:101DA200FB12381D9003CAEFF012383B12381D9017
:101DB20003CBEFF012382C12385B9003CBE0FE908D
:101DC20003CAE0FDEDFFAC06EC1203B3E4FBFAF943
:101DD2007847120287E4FBFA7934784312017E9045
:101DE200043F1208A61238497FA01237FB7F3E1229
:101DF20037FB1238497FA11237FB12381D9003CAF4
:101E0200EFF012383B12381D9003CBEFF012382C52
:101E120012385B9003CBE0FE9003CAE0FDEDFFAC0D
:101E220006EC1203B3E4FBFAF97847120287E4FBEB
:101E3200FA7934784312017E9004431208A61238CC
:101E4200497FA01237FB7F3F1237FB1238497FA12F
:101E52001237FB12381D9003CAEFF012383B1238CA
:101E62001D9003CBEFF012382C12385B9003CBE0BD
:101E7200FE9003CAE0FDEDFFAC06EC1203B3E4FBF7
:101E8200FAF97847120287E4FBFA793478431201AF
:101E92007E9004471208A61238497FA01237FB7FB2
:101EA200371237FB1238497FA11237FB12381D90C7
:101EB20003CAEFF012383B12381D9003CBEFF01239
:101EC200382C12385B9003CBE0FE9003CAE0FDEDA4
:101ED200FFAC06EC1203B3E4FBFAF978471202876F
:101EE200E4FBFA79FA784412017E90044B1208A6B8
:101EF2001238497FA01237FB7F381237FB1238495C
:101F02007FA11237FB12381D9003CAEFF012383B43
:101F120012381D9003CBEFF012382C12385B90036D
:101F2200CBE0FE9003CAE0FDEDFFAC06EC1203B37A
:101F3200E4FBFAF97847120287E4FBFA79FA78446B
:101F420012017E90044F1208A61238497FA0123760
:101F5200FB7F391237FB1238497FA11237FB123847
:101F62001D9003CAEFF012383B12381D9003CBEFDD
:101F7200F012382C12385B9003CBE0FE9003CAE0DB
:101F8200FDEDFFAC06EC1203B3E4FBFAF97847125D
:101F92000287E4FBFA79FA784412017E9004531224
:051FA20008A6E4F5BAF9
:011FA7002217
:10360400E4900396F0A304F0A3F0E4A3F0A304F081
:10361400A374A2F0A37440F0A37401F0E4FF123584
:0C362400157B017A0379967F0102236672
:03002B00020006CA
:0400060053BCDF32D6
:1033CA00D2AFE4F592120563429190000112057C96
:1033DA00FFE5BC549F4FF5BC90000212057C6401C6
:1033EA00700543BC80800353BC7F90000312057CA8
:1033FA006401700543DE20800353DEDF900005126E
:10340A00057C64017004D2AD8002C2AD9000041242
:0C341A00057C64017003D2BD22C2BD22FB
:0D002E00EF6401700443BC802253BC7F22AC
:10314A00EFD39407748094804002807BE4F5BDF548
:10315A00BEE5BC54E044404FF5BC0000E4FDEDC3BD
:10316A0094FA74809480505FE5BC20E55753BCDF25
:10317A00E5DE30E51FE5BD540FFF9004CCE4F0A373
:10318A00EFF0E0FEACBEECFBEBFF9004CCEEF0A35C
:10319A00EFF08027AFBDEF9004CCF0A3E4F0AFBE10
:1031AA009004CCE0F0A3E04FF09004CCE0C4F854D3
:1031BA00F0C868F0A3E0C4540F48F09004CCE0FED5
:0B31CA00A3E0FF220D80977E047F0031
:0131D50022D7
:10138900622801000000000000000000002F00009A
:1013990000000700070000147F147F1400242A7F2F
:1013A9002A120062640813230036495522500000AE
:1013B9000503000000001C224100000041221C001E
:1013C9000014083E08140008083E0808000000A0A0
:1013D900600000080808080800006060000000209C
:1013E90010080402003E5149453E0000427F40007A
:1013F900004261514946002141454B310018141200
:101409007F10002745454539003C4A4949300001CC
:101419007109050300364949493600064949291E1B
:10142900000036360000000056360000000814227D
:10143900410000141414141400004122140800027D
:101449000151090600324959513E007C1211127CA2
:10145900007F49494936003E41414122007F4141CF
:10146900221C007F49494941007F09090901003EC1
:101479004149497A007F0808087F0000417F4100FF
:10148900002040413F01007F08142241007F404075
:101499004040007F020C027F007F0408107F003E5D
:1014A9004141413E007F09090906003E4151215E43
:1014B900007F091929460046494949310001017F40
:1014C9000101003F4040403F001F2040201F003FD6
:1014D9004038403F00631408146300070870080788
:1014E90000615149454300007F41410000552A559B
:1014F9002A55000041417F00000402010204004016
:101509004040404000000102040000205454547837
:10151900007F484444380038444444200038444457
:10152900487F00385454541800087E0901020018F5
:10153900A4A4A47C007F080404780000447D400032
:10154900004080847D00007F102844000000417F16
:101559004000007C04180478007C080404780038F2
:101569004444443800FC242424180018242418FC7A
:10157900007C0804040800485454542000043F44E3
:101589004020003C4040207C001C2040201C003CA6
:101599004030403C004428102844001CA0A0A07CF6
:0C15A900004464544C4414141414141432
:06386400D2A37F027E00EA
:03386A0002377FA3
:10379500123864D2A6123866C2A6123866C2A37F52
:0637A500027E0002386AFA
:1037AB00C2A3123866C2A6123866123864D2A67F3C
:0637BB00027E0002386AE4
:053367009003BCEFF033
:10336C00E4A3F09003BDE0C39408748094805033C0
:10337C009003BCE030E704D2A68002C2A67F017E97
:10338C000012386AD2A37F017E0012386AC2A37F72
:10339C00017E0012386A9003BCE025E0F0A3E00443
:1033AC00F080C0D2A67F017E0012386AD2A37F01C2
:0E33BC007E0012386AC2A37F017E0002386ACA
:100066009003BAEFF01237957F781233677F40120C
:0D00760033679003BAE0FF1233670237AB27
:0436EC00EF24B0FF18
:1036F0009003BBEFF01237957F78123367E4FF1227
:0D37000033679003BBE0FF1233670237AB65
:1036A3009003BAEFF0ED24B0FF1236F09003BAE0C6
:1036B30054F0C4540F4410FF1236F09003BAE05490
:0536C3000FFF0236F0CC
:05347F00900398EFF03E
:10348400E4A3F0900399E0FFC394087480948050FF
:10349400371236EC7F011236F07F101236F0E490CA
:1034A400039AF090039AE0C394847480948050103B
:1034B400900398E0FF12006690039AE004F080E322
:0834C400900399E004F080BBC5
:0134CC0022DD
:1034CD00E4900396F0900396E0FFC3940874809403
:1034DD008050341236EC7F011236F07F101236F028
:1034ED00E4900397F0900397E0C3948474809480E4
:1034FD00500DE4FF120066900397E004F080E69013
:07350D000396E004F080BE0C
:013514002294
:102C7C00E4900396F0A37408F07B017A0379967FB5
:102C8C0002121FA87B017A0379967F03121FA87B7F
:102C9C00017A0379967F04121FA8D2A3C2A77FF4EE
:102CAC007E0112374AD2A77FAE1236F0E4FF1236FD
:102CBC00F07F101236F07F401236F07F811236F022
:102CCC007FCF1236F07FA11236F07FC81236F07F1C
:102CDC00A61236F07FA81236F07F3F1236F07FD363
:102CEC001236F0E4FF1236F07FD51236F07F8012E8
:102CFC0036F07FD91236F07FF11236F07FDA1236C9
:102D0C00F07F121236F07FDB1236F07F401236F075
:102D1C007F201236F07F021236F07F8D1236F07F54
:102D2C00141236F07FA41236F07FA61236F07FAF65
:0E2D3C001236F0E4FF12347FE4FDFF0236A3EE
:0A3426009004C8EDF09004C7EFF029
:10343000A3E0FE131313541FFD1236A39004C8E03B
:10344000FF5407FEF87401088002C333D8FC9004CF
:10345000C9F0EF131313541F24B0FF1236F0900479
:10346000C7E054F0C4540F4410FF1236F09004C764
:0F347000E0540FFF1236F09004C9E0FF0200662F
:10301C009003B2EFF0A3EDF0A3EBF0A3EAF0A3E979
:01302C00F0B3
:10302D00E4A3F0A3F0A3F09003B4E0FBA3E0FAA3B4
:10303D00E0F99003B9E0F58275830012057C6070AC
:10304D0024E09003B7F09003B2E0D3947E748094A3
:10305D00804006E4F0A3E004F09003B2E0FFA3E0AB
:10306D00FD1236A3E49003B8F09003B8E0FFC394CB
:10307D00067480948050299003B7E075F006A4245F
:10308D0000F582E5F03401F583E5822FF582E43514
:10309D0083F583E0FF1200669003B8E004F080C969
:1030AD009003B2E02406F09003B9E004F00230344E
:0130BD0022F0
:082E0D009004B2EFF0A3EDF018
:102E1500E49004B9F0FC7D0AAF03AE021205EFEDB4
:102E250024309004B8F07C007D0AAF03AE02120591
:102E3500EF7C007D0A1205EFED24309004B7F07C9D
:102E4500007D64AF03AE021205EF7C007D0A12051A
:102E5500EFED24309004B6F07C037DE8AF03AE02BD
:102E65001205EF7C007D0A1205EFED24309004B5C4
:102E7500F0AE02AF037C277D101205EF7C007D0AC2
:102E85001205EFED24309004B4F0E4FFEFC3940491
:102E950074809480501E74B42FF582E43404F58355
:102EA500E0B4301074B42FF582E43404F583742053
:102EB500F00F80D89004B2E0FFA3E0FD7B017A0417
:052EC50079B402301C8D
:0F253200900396EFF0A3EDF0A3EAF0FEA3EBF019
:10254100E4FBFAC3EE64809480501EE490039CF097
:10255100A3F0900398E0FEA3E0FFC3E49FFFE49E95
:10256100900398F0A3EFF0800890039CE4F0A3049B
:10257100F0900398E0FEA3E0FF7C007D0A12064480
:10258100EF4E603D900398E0FEA3E0FF7C007D0AE2
:10259100120644ED2430FF749E2BF58274033AF544
:1025A10083EFF0900398E0FEA3E0FF7C007D0A1228
:1025B1000644900398EEF0A3EFF00BBB00010A80F4
:1025C100B0900398A3E02430FF749E2BF58274032E
:1025D1003AF583EFF090039CE07002A3E070609005
:1025E10003A8742DF090039AEAF0A3EBF090039AFC
:1025F100E0FEA3E0FFD394FFEE6480947F40377444
:102601009E2FF58274033EF583E0FF90039AE0FC70
:10261100A3E0FDC3EB9DFDEA9CFC74A92DF582743A
:10262100033CF583EFF090039BE024FFF090039AC5
:10263100E034FFF080B774AA2BF5827403805890C0
:10264100039AEAF0A3EBF090039AE0FEA3E0FFD334
:1026510094FFEE6480947F4037749E2FF58274035B
:102661003EF583E0FF90039AE0FCA3E0FDC3EB9D00
:10267100FDEA9CFC74A82DF58274033CF583EFF010
:1026810090039BE024FFF090039AE034FFF080B7C1
:1026910074A92BF58274033AF583E4F0900396E074
:0D26A100FFA3E0FD7B017A0379A802301C45
:081B4600900396EFF0A3EDF00F
:101B4E009003A0E4F0A3740AF0E4FFFEFDFC900302
:101B5E0098E0F8A3E0F9A3E0FAA3E0FB12032490C7
:101B6E0003A24005742BF0801A742DF0900398E0B8
:101B7E00FCA3E0FDA3E0FEA3E0FF12039D900398FB
:101B8E001208A6900398E0FCA3E0FDA3E0FEA3E0FC
:101B9E00FF1203EC90039CEEF0A3EFF0E4A3F0A38E
:101BAE00F090039CE0FEA3E0FF4E601F7C007D0AD8
:101BBE0012064490039CEEF0A3EFF090039FE00416
:101BCE00F070DE90039EE004F080D6900398E0FC67
:101BDE00A3E0FDA3E0FEA3E0FF1203EC90039CEE56
:101BEE00F0A3EFF0A3E0FEA3E0FBAA06D3EB940074
:101BFE00EA64809480403D90039CE0FEA3E0FF7C6D
:101C0E00007D0A120644ED2430FF74A22BF5827477
:101C1E00033AF583EFF090039CE0FEA3E0FF7C0017
:101C2E007D0A12064490039CEEF0A3EFF0EB1B70BE
:101C3E00BB1A80B890039EE0FEA3E024A3F5827445
:101C4E00033EF583742EF0900398E0FCA3E0FDA311
:101C5E00E0FEA3E0FFC004C005C006C007900398D5
:101C6E00A3A3A3E01203ECAD07AC06EC1203B3A8DA
:101C7E0004A905AA06AB07D007D006D005D00412DA
:101C8E0000899003981208A690039FE02402F0901A
:101C9E00039EE03400F09003A1E024FFFF9003A028
:101CAE00E034FFFEC390039FE09FEE6480F8900344
:101CBE009EE06480984003021D5F900398E0FCA3B1
:101CCE00E0FDA3E0FEA3E0FFE4FBFA7920784112E9
:101CDE00017E9003981208A6900398E0FCA3E0FD05
:101CEE00A3E0FEA3E0FF1203ECEF2430FF90039E6F
:101CFE00E0FCA3E024A2F58274033CF583EFF090A0
:101D0E000398E0FCA3E0FDA3E0FEA3E0FFC004C047
:101D1E0005C006C007900398A3A3A3E01203ECAD81
:101D2E0007AC06EC1203B3A804A905AA06AB07D0AC
:101D3E0007D006D005D0041200899003981208A689
:101D4E0090039FE004F0700690039EE004F0021CE6
:101D5E00A49003A0E0FEA3E024A1F58274033EF557
:101D6E0083E4F0900396E0FFA3E0FD7B017A037914
:041D7E00A202301C71
:10370D0000000000000000000000000000000000AC
:10371D00000000000000000000000000000000009C
:01372D00009B
:1015B5004404A300F000F044049F004B004B420498
:0815C5009D000042049B0000A0
:10372E009004BA7401F0A37440F0A37401F0A3F0F6
:0C373E00A3F0A3F0FB7A0479BA0233CAAE
:0528080090041CEFF03C
:10280D00E4A3F0A3F0A3F0A3F0A3F078227C047D61
:10281D00017BFF7A37790DFE7F1812053D783A7CE2
:10282D00047D017BFF7A3779257E007F0512053DFA
:10283D00E490041DF090041DE0C3940C748094800A
:10284D00502B90041CE0FF12314A90041DE025E04E
:10285D002422F582E43404F583EEF0A3EFF07F64D7
:10286D007E0012377F90041DE004F080C8E4FFEF76
:10287D00C3940B748094804003022907E4FEC37453
:10288D000B9FFDEEC39D506EEE25E02424F582E4F2
:10289D003404F583E0FCA3E0FDEE25E02422F5826F
:1028AD00E43404F583E0FAA3E0FBD39DEA9C4043B6
:1028BD00900420EAF0A3EBF0EE25E02424F582E469
:1028CD003404F583E0FCA3E0FDEE25E02422F5823F
:1028DD00E43404F583ECF0A3EDF0900420E0FCA3C8
:1028ED00E0FDEE25E02424F582E43404F583ECF0DC
:1028FD00A3EDF00E80880F02287C90041D7401F06A
:10290D0090041DE0FFC3940B748094805025EF2537
:10291D00E02422F582E43404F583E0FEA3E0FF9089
:10292D00041FE02FF090041EE03EF090041DE00423
:10293D00F080CD90041EE0FEA3E0FF7C007D0A0236
:02294D0005EF94
:102A860078C07C047D017BFF7A37792A7E007F043B
:102A960012053D7F021228089004C0EEF0A3EFF065
:102AA6007F031228089004C2EEF0A3EFF090049F73
:102AB600E0FEA3E0FF9004C0E0FCA3E0FDC39FECB2
:102AC6009E500A90049FECF0A3EDF0801E9004A3A4
:102AD600E0FEA3E0FFD3ED9FEC9E400F9004C2E022
:102AE600FFA3E09004A5CFF0A3EFF09004A1E0FED1
:102AF600A3E0FF9004C2E0FCA3E0FDC39FEC9E5060
:102B06000A9004A1ECF0A3EDF0801E9004A5E0FE6F
:102B1600A3E0FFD3ED9FEC9E400F9004C2E0FFA31D
:102B2600E09004A5CFF0A3EFF090049FE0FEA3E0B1
:102B3600FFC39004C1E09FFF9004C0E09EFE7C00AE
:102B46007D641205DD90049FE0FCA3E0FDC39004C4
:102B5600A4E09DFD9004A3E09CFC1205EF90049D6B
:102B6600EEF0A3EFF09004A1E0FEA3E0FFC3900413
:102B7600C3E09FFF9004C2E09EFE7C007D641205C8
:102B8600DD9004A1E0FCA3E0FDC39004A6E09DFD5A
:102B96009004A5E09CFC1205EF90049BEEF0A3EFD9
:012BA600F03E
:012BA700220B
:10354D0090049DE0FEA3E0FF90049BE0FCA3E0FD52
:10355D00C39FFFEC9EFEEF7807C333CE33CED8F971
:10356D00FF90049DE0FAA3E02DFDEC3AFC0205EF7F
:10367D00E4900396F0A3F0A304F0E4A3F0A304F008
:10368D00A374A2F0A37440F0A37401F0FB7A037944
:06369D00967F0202236685
:10008600020458E86480F8E933E83360110460F04C
:10009600ED33EC337009E8FCE9FDEAFEEBFF2204E0
:1000A60060DED3EB9FEA9EE99DE8C2E78CF0C2F7DB
:1000B60095F0400CE8CCF8E9CDF9EACEFAEBCFFBA7
:1000C60012042385D0F05804700320D5B3E80470D9
:1000D600075002B2D502046292D5EC0460F7E4CC74
:1000E600C0E0C398F8603B94186008400DD0E0FB70
:1000F60002043AE4FBFAC9FC8028E830E406E4C9C5
:10010600FBE4CAFCE830E305E4C9CACBFCE85407C3
:100116006010F8C3E913F9EA13FAEB13FBEC13FCCE
:10012600D8F130F52FC3E49CFCEF9BFFEE9AFEED71
:1001360099FDD0E0FBEF4E4D4C701222DB0302041A
:100146005FEC2CFCEF33FFEE33FEED33FDED30E7D5
:10015600EB02043AEF2BFFEE3AFEED39FDD0E0FB61
:1001660050130BBB0003020462ED13FDEE13FEEF0A
:0801760013FFEC13FC02043A34
:10017E00EC4D6011E8497017ED33EC3304600DE47B
:10018E00FCFFFEFD22E933E8330470F80204581236
:10019E00042358046009E4CC248150062850090237
:1001AE00046228400302045FC0E0EB4A7044B98049
:1001BE0006D0E0FB02044EEF4E701CBD8008EBFF34
:1001CE00EAFEE9FD80EBE98DF0A4FEE5F0020267A0
:1001DE00E9CDF9EAFEEBFFEF89F0A4FCE5F0CE895C
:1001EE00F0A42EFFE435F0CD89F0A42DFEE435F019
:1001FE008067EF4E7005BD80D780C3EF8BF0A4AC47
:10020E00F0EE8BF0A42CFCE435F0F8EF8AF0A42C81
:10021E00E5F038FCE433CB8DF0A42CFCE5F03BF894
:10022E00EE8AF0A42CFCE5F038F8E433CF89F0A484
:10023E002CFCE5F038CF3400CE89F0A42FFFE5F08A
:10024E003EFEE433C98DF0A42EFEE5F039CD8AF0E2
:10025E00A42FFFE5F03EFEE43DFD33D0E0FB50075A
:10026E000BBB000F020462EC2CFCEF33FFEE33FEEF
:06027E00ED33FD02043A1D
:10028400020462EC5D046005E8590470030204583A
:10029400120423580460F6EC4860F2EC7004FDFE8E
:1002A400FF22C860DB2481C85009C398600250064D
:1002B40002045F9850CAF582E9294B4A7005AB8263
:1002C40002044E75F0007C1A7880C3EF9BEE9AED21
:1002D40099400DC3EF9BFFEE9AFEED99FDE842F0C5
:1002E400DC23ACF0D0E0FFD0E0FED0E0FDAB822018
:1002F400E7101BEB60BAEC2CFCEF33FFEE33FEEDA2
:1003040033FD02043AE803F830E705C0F075F00065
:10031400EF2FFFEE33FEED33FD40B830E7C280AA85
:1003240074F8CC6480CCC86480C8F58204604FC380
:10033400EB9FF5F0EA9E42F0E99D42F0E89C45F01F
:10034400603C501DE5825FFFE582D313CB5BCBF4A9
:100354002B5582FB50280ABA002409B900200880D2
:100364001DE5825BFBE582D313CF5FCFF4C3132F6C
:100374005582FF50090EBE00050DBD00010CC3EBF4
:100384009FF5F0EA9E42F0E99D42F0E89C45F0605A
:0903940007CC4820E701B3EC227C
:10039D00ED33EC33600A047003BD8004ECB2E7FC6E
:0103AD00222D
:1003AE0075F020800E75F010800575F0087D007ECA
:1003BE00007F003392D530D503120796EC334010F0
:1003CE00EF33FFEE33FEED33FDEC33FCD5F0ED22D3
:0E03DE00E5F0247EA2D513CC92E7CDCEFF220F
:1003EC00EDD2E7CD33EC3392D524814006E4FFFE09
:1003FC00FDFC22FCE4CFCECDCC24E0501174FF8068
:10040C00EDC3CC13CCCD13CDCE13CECF13CF047004
:07041C00F030D5DE02079667
:10042300E9D2E7C933E833F892D5EDD2E7CD33EC1F
:0704330033FC5002B2D52298
:10043A00EC30E7100FBF000C0EBE00080DBD000423
:10044A000BEB6014A2D5EB13FCED92E7FD2274FFCF
:10045A00FCFDFEFF22E480F8A2D574FF13FC7D8028
:03046A00E480EF3C
:1030CA00022BA8E493A3F8E493A34003F68001F249
:1030DA0008DFF48029E493A3F85407240CC8C33307
:1030EA00C4540F4420C8834004F456800146F6DFD6
:1030FA00E4800B01020408102040809012BCE47E98
:10310A00019360BCA3FF543F30E509541FFEE493CA
:10311A00A360010ECF54C025E060A840B8E493A391
:10312A00FAE493A3F8E493A3C8C582C8CAC583CABC
:10313A00F0A3C8C582C8CAC583CADFE9DEE780BE74
:0115CD00001D
:10046D00E709F608DFFA8046E709F208DFFA803E71
:10047D0088828C83E709F0A3DFFA8032E309F6085E
:10048D00DFFA8078E309F208DFFA807088828C83C6
:10049D00E309F0A3DFFA806489828A83E0A3F6087A
:1004AD00DFFA805889828A83E0A3F208DFFA804C54
:1004BD0080D280FA80C680D4806980F2803380102B
:1004CD0080A680EA809A80A880DA80E280CA803394
:1004DD0089828A83ECFAE493A3C8C582C8CCC5830C
:1004ED00CCF0A3C8C582C8CCC583CCDFE9DEE780DC
:1004FD000D89828A83E493A3F608DFF9ECFAA9F05B
:10050D00EDFB2289828A83ECFAE0A3C8C582C8CCB0
:10051D00C583CCF0A3C8C582C8CCC583CCDFEADEC9
:10052D00E880DB89828A83E493A3F208DFF980CC2B
:10053D0088F0EF60010E4E60C388F0ED2402B40424
:10054D000050B9F582EB2402B4040050AF232345CB
:06055D0082239004BD732F
:10056300BB010689828A83E0225002E722BBFE0296
:09057300E32289828A83E49322C9
:10057C00BB010CE58229F582E5833AF583E0225034
:10058C0006E92582F8E622BBFE06E92582F8E2227E
:0D059C00E58229F582E5833AF583E4932298
:1005A900BB010689828A83F0225002F722BBFE0131
:0205B900F3222B
:1005BB00F8BB010DE58229F582E5833AF583E8F076
:1005CB00225006E92582C8F622BBFE05E92582C822
:0205DB00F2220A
:1005DD00EF8DF0A4A8F0CF8CF0A428CE8DF0A42E32
:0205ED00FE22EC
:1005EF00BC000BBE0029EF8DF084FFADF022E4CCF0
:1005FF00F875F008EF2FFFEE33FEEC33FCEE9DECB9
:10060F00984005FCEE9DFE0FD5F0E9E4CEFD22EDFE
:10061F00F8F5F0EE8420D21CFEADF075F008EF2F48
:10062F00FFED33FD4007985006D5F0F222C398FD39
:05063F000FD5F0EA22D6
:10064400C2D5EC30E709B2D5E4C39DFDE49CFCEED1
:1006540030E715B2D5E4C39FFFE49EFE1205EFC355
:10066400E49DFDE49CFC80031205EF30D507C3E450
:060674009FFFE49EFE2240
:10067A00C5F0F8A3E028F0C5F0F8E582158270020B
:06068A001583E038F022A8
:10069000BB0110E58229F582E5833AF583E0F5F0A8
:1006A000A3E0225009E92582F886F008E622BBFE85
:1006B0000AE92582F8E2F5F008E222E5832AF583CB
:0806C000E993F5F0A3E9932290
:1006C80075F008758200EF2FFFEE33FECD33CDCCE9
:1006D80033CCC58233C5829BED9AEC99E58298406C
:1006E8000CF582EE9BFEED9AFDEC99FC0FD5F0D649
:1006F800E4CEFBE4CDFAE4CCF9A88222B800C1B973
:100708000059BA002DEC8BF084CFCECDFCE5F0CBB0
:10071800F97818EF2FFFEE33FEED33FDEC33FCEBE9
:1007280033FB10D703994004EB99FB0FD8E5E4F9A4
:10073800FA227818EF2FFFEE33FEED33FDEC33FC91
:10074800C933C910D7059BE99A4007EC9BFCE99A85
:10075800F90FD8E0E4C9FAE4CCFB2275F010EF2FCA
:10076800FFEE33FEED33FDCC33CCC833C810D707CA
:100778009BEC9AE899400AED9BFDEC9AFCE899F805
:0E0788000FD5F0DAE4CDFBE4CCFAE4C8F92298
:0E079600C3E49FFFE49EFEE49DFDE49CFC2274
:1007A400EB9FF5F0EA9E42F0E99D42F0E89C45F0AB
:0107B4002222
:1007B500E8600FECC313FCED13FDEE13FEEF13FF22
:0307C500D8F12246
:1007C800BB010789828A830209135005E9F80209E7
:1007D80007BBFE05E9F802091F89828A8302092BF3
:1007E800BB010DE58229F582E5833AF583020913F9
:1007F8005007E92582F8020907BBFE07E92582F8B8
:1008080002091FE58229F582E5833AF58302092B5F
:10081800BB010789828A830208A65005E9F8020904
:0A08280071BBFE05E9F802097D220C
:10083200BB010DE58229F582E5833AF5830208A61C
:100842005007E92582F8020971BBFE07E92582F803
:0408520002097D22F8
:10085600BB010789828A830209485005E9F8020923
:100866003BBBFE05E9F802095489828A83020961C5
:10087600BB010DE58229F582E5833AF58302094835
:100886005007E92582F802093BBBFE07E92582F8F5
:10089600020954E58229F582E5833AF58302096166
:0C08A600ECF0A3EDF0A3EEF0A3EFF022C5
:1008B200A8828583F0D083D0821208C91208C91297
:1008C20008C91208C9E473E493A3C583C5F0C583BC
:1008D200C8C582C8F0A3C583C5F0C583C8C582C890
:0108E20022F3
:1008E300BB010DE58229F582E5833AF5830208B25F
:1008F3005007E92582F8020989BBFE07E92582F83A
:040903000209A22221
:0C090700E6FC08E6FD08E6FE08E6FF221C
:0C091300E0FCA3E0FDA3E0FEA3E0FF2257
:0C091F00E2FC08E2FD08E2FE08E2FF2214
:10092B00E493FC740193FD740293FE740393FF2212
:0D093B00E6FB08E6F908E6FA08E6CBF8222C
:0C094800E0F8A3E0F9A3E0FAA3E0FB2232
:0D095400E2FB08E2F908E2FA08E2CBF82223
:10096100E493F8740193F9740293FA740393FB22EC
:0C097100ECF608EDF608EEF608EFF622B2
:0C097D00ECF208EDF208EEF208EFF222B6
:10098900D083D082E493F608740193F60874029335
:09099900F608740393F67404736C
:1009A200D083D082E493F208740193F20874029324
:0909B200F208740393F27404735B
:00000001FF
