:0300000002329336
:0C329300787FE4F6D8FD7581200232DA65
:1038EC00496E69742100776B703A00776B693A0006
:0A38FC00776B643A0076616C3A00C5
:0815FA004504A80000000000F8
:102B3700E4900372F0A3F0122F007BFF7A3879EC50
:102B47007D037F0D1231F17FE87E031238D11236F3
:102B5700A21239481237A91238257BFF7A3879F241
:102B67007D01E4FF1231F1900328E0FCA3E0FDA30F
:102B7700E0FEA3E0FF9003761208A67D017F1912FD
:102B87001E757BFF7A3879F77D02E4FF1231F190E9
:102B9700032CE0FCA3E0FDA3E0FEA3E0FF90037697
:102BA7001208A67D027F19121E757BFF7A3879FC01
:102BB7007D03E4FF1231F1900330E0FCA3E0FDA3B5
:102BC700E0FEA3E0FF9003761208A67D037F1912AB
:102BD7001E757BFF7A3979017D07E4FF1231F19089
:102BE7000463E0FCA3E0FDA3E0FEA3E0FF1203EC17
:102BF700AB07AA067D077F19122861E4900370F0DE
:102C0700A37407F07B017A0379707F051222D7201E
:102C1700C81F900328E0FCA3E0FDA3E0FEA3E0FFAC
:102C27007B0A7AD77923783C12008D900328120803
:102C3700A620C91F90032CE0FCA3E0FDA3E0FEA3A0
:102C4700E0FF7B0A7AD77923783C12008D90032C1A
:102C57001208A620CA1F900330E0FCA3E0FDA3E002
:102C6700FEA3E0FF7B0A7AD77923783C12008D9088
:0B2C770003301208A61236A2022B61E7
:1038D100E4FDFCC3ED9FEC9E50100079207B28DBBA
:0A38E100FED9FC0DBD00010C80E9CA
:0138EB0022BA
:10390600E4FDFCC3ED9FEC9E500B7B06DBFE0DBD7C
:0539160000010C80EE31
:01391B002289
:1022D700EFD394057480948040037F012212056335
:1022E700FED394037480948040037F0222EF7044EE
:1022F700EE700B90000112057CF452935294120574
:10230700636401700B90000112057C4293F45294B0
:10231700120563FE6402700A90000112057C429365
:102327004294EE6403700D90000112057CFEF45296
:1023370093EE4294EF64017046120563FE700B90B2
:10234700000112057CF452915292EE6401700B90D9
:10235700000112057C4291F45292120563640270E7
:102367000A90000112057C429142921205636403B0
:10237700700D90000112057CFEF45291EE4292EF2F
:1023870064027046120563FE700B90000112057C13
:10239700F452955296EE6401700B90000112057C81
:1023A7004295F452961205636402700A9000011276
:1023B700057C429542961205636403700D900001F7
:1023C70012057CFEF45295EE4296EF6403704612B6
:1023D7000563FE700B90000112057CF452B152B2F6
:1023E700EE6401700B90000112057C42B1F452B209
:1023F7001205636402700A90000112057C42B14223
:10240700B21205636403700D90000112057CFEF49F
:1024170052B1EE42B2EF64047046120563FE700BD0
:1024270090000112057CF452B352B4EE6401700BB4
:1024370090000112057C42B3F452B41205636402A2
:10244700700A90000112057C42B342B4120563641E
:1024570003700D90000112057CFEF452B3EE42B4F6
:10246700EF64057049120563FF7E00700B90000151
:1024770012057CF452C952CAEF64014E700B9000EA
:102487000112057C42C9F452CA1205636402700A3C
:1024970090000112057C42C942CA120563640370A9
:1024A7000D90000112057CFFF452C9EF42CA7F006C
:0124B7002202
:1036EA00EFFD7C00701075BA9090FE8074E0F09047
:1036FA00FE82E4F0801EED64014C701875BA809069
:10370A00FE807481F090FE85745AF090FE84E4F095
:08371A0090FE83F0E4F5BA22F1
:1033AB00D200D201E49004BBF0E02400F8E290FEDE
:1033BB0086F090FE84E030E605E054BFF02290FEEC
:1033CB0084E030E52DE054DFF0300003C200223002
:1033DB00010DC20190FE87E09004BBF0E0802F90BE
:1033EB00FE87E0FF9004BBE0FE04F074002EF8EFC4
:1033FB00F22290FE84E030E41EE054EFF0E030E186
:10340B000790FE8674FFF0229004BBE004F02400CA
:10341B00F8E290FE86F02290FE84E030E308E05460
:07342B00F7F0D200D20122EC
:0C00460090FE82E030E6F9E054BFF022AA
:0939D00090FE817401F002004632
:1039820090FE86EFF090FE817402F012004602393A
:01399200D95B
:0939D90090FE817403F002004627
:0F39A40090FE817404F012004690FE87E0FF222F
:0E39C20090FE82E4F090FE817405F002004653
:0F39B30090FE827401F090FE817405F0020046D0
:0939E20090FE817406F00200461B
:10395C00E4FFFE000000000FBF00010EBE0BF4BF21
:02396C00B8F1B0
:01396E002236
:10399300E59A30E103539AFDE59A30E003539AFE2A
:0139A3002201
:0300230002343272
:10343200C0E0C083C082C0D075D000C006C00730D3
:103442009831C2989003BAE070299003B8E0C3940F
:103452000B748094804002E4F09003B8E0FF04F023
:1034620074C22FF582E43403F583E599F09003B931
:103472007405F0309934C2999003B6E0FF9003B519
:10348200E0FE6F602074D82EF582E43403F583E009
:10349200F5999003B5E004F0C3940B7480948040D6
:1034A20009E4F080059003B7E4F0D007D006D0D04D
:0734B200D082D083D0E0328C
:030043000234B9CB
:1034B900C0E0C083C082C0D075D000C006C007126A
:1034C90039939003C1E070299003BFE0C3940B7452
:1034D9008094804002E4F09003BFE0FF04F074CDD3
:1034E9002FF582E43403F583E59BF09003C074055E
:1034F900F01239939003BDE0FF9003BCE0FE6F60CA
:103509002074E32EF582E43403F583E0F59B900300
:10351900BCE004F0C3940B748094804009E4F0800B
:10352900059003BEE4F0D007D006D0D0D082D08376
:03353900D0E032AD
:100E9C00900490EBF0A3EAF0A3E9F090048FEFF04C
:100EAC00D2AF640160030211139003B404F0E4A305
:100EBC00F0A3F0A3F0A3F0A3F0A3F0900493F090B0
:100ECC000493E0FFC3940B74809480501474D82F57
:100EDC00F582E43403F583E4F0900493E004F080AD
:100EEC00DEE4900493F0900493E0FFC3940B7480C1
:100EFC009480501474C22FF582E43403F583E4F02B
:100F0C00900493E004F080DE900490E0FBA3E0FA00
:100F1C00A3E0F9120563FD7C00D394C07480948027
:100F2C0040037F022290000A12057C64017004D2F7
:100F3C00BC8002C2BC120563FFE598543F4FF59884
:100F4C00ED64C04C6008EF6440600302103E9000FA
:100F5C00021208767F807E8D7D5B7C0012070490E8
:100F6C0004941208A6E4FFFE7D01FC900494E0F8C2
:100F7C00A3E0F9A3E0FAA3E0FBC31207A440037FAC
:100F8C000222900494E0F8A3E0F9A3E0FAA3E0FBBA
:100F9C00C3E49BFFE49AFE740199FDE498FC900471
:100FAC00941208A6900490E0FBA3E0FAA3E0F99059
:100FBC00000112057CFB7A0064017038C28E538EDE
:100FCC00FE5389BF5389CF438E40900494E0FCA319
:100FDC00E0FDA3E0FEA3E0FF78081207B58F8D902B
:100FEC000494A3A3A3E0F58BC2AB5389BF538FFD2D
:100FFC00D28E807DEB64024A7035538EEF438E01A6
:10100C00538EF7438E04900494E0FCA3E0FDA3E020
:10101C00FEA3E0FF78081207B58FD6900494A3A323
:10102C00A3E0F5D753AFFB538EF7438E1080427F6E
:10103C000222900490E0FBA3E0FAA3E0F91205630E
:10104C00FF7E00701490000812057C64017005434B
:10105C008E20801D538EDF8018EF64804E701290AE
:10106C00000812057C640170054387808003538758
:10107C007F900490E0FBA3E0FAA3E0F99000091242
:10108C00057C64017004D2AC8002C2AC90000712E3
:10109C00057C64017004D29C8002C29C90000B12EF
:0410AC00057C700A45
:0810B0009004987403F0A314EE
:1010B800802F900490E0FBA3E0FAA3E0F990000BE6
:0A10C80012057C64809004987011FA
:0F10D2007403F0A37480F07B017A0479987F0196
:0210E100800F7E
:1010E3007403F0A37480F07B017A0479987F031270
:0210F30022D702
:1010F500900490E0FBA3E0FAA3E0F990000B120541
:101105007C54C0FFE5A2543F4FF5A27F0022900416
:101115008FE0640260030212B99003BB7402F0E42D
:10112500A3F0A3F0A3F0A3F0A3F0A3F0900493F031
:10113500900493E0FFC3940B74809480501474E37F
:101145002FF582E43403F583E4F0900493E004F092
:1011550080DEE4900493F0900493E0FFC3940B7455
:10116500809480501474CD2FF582E43403F583E424
:10117500F0900493E004F080DE900490E0FBA3E09F
:10118500FAA3E0F9120563FF64C06008EF644060EC
:101195000302123F90000A12057C6401700543B5F5
:1011A50001800353B5FE12056364C07005439A8040
:1011B5008003539A7F9000021208767F807E8D7D92
:1011C5005B7C001207049004941208A6E4FFFE7DE0
:1011D50001FC900494E0F8A3E0F9A3E0FAA3E0FB96
:1011E500C31207A440037F0222900494E0F8A3E011
:1011F500F9A3E0FAA3E0FBC3E49BFFE49AFE7401C4
:1012050099FDE498FC9004941208A6538EEF538E32
:10121500F7438E04900494E0FCA3E0FDA3E0FEA355
:10122500E0FF78081207B58FD6900494A3A3A3E036
:10123500F5D753AFFB438E1080037F0222900490B5
:10124500E0FBA3E0FAA3E0F990000912057C640134
:10125500700543AF01800353AFFE90000712057C74
:1012650064017005439A108003539AEF90000B12A6
:07127500057C900498701045
:0E127C007403F0A314F07B017A0479987F01CB
:02128A00800FD3
:10128C007403F0A37480F07B017A0479987F0412C4
:02129C0022D757
:10129E00900490E0FBA3E0FAA3E0F990000B120596
:0D12AE007C5401FFE5BA54FE4FF5BA7F00F5
:0112BB002210
:1037FE009004BCEFF09003B7E0701304F09004BC9B
:10380E00E0F5993099FDC299E49003B7F0227F0557
:07381E007E0012390680DE76
:103751009003BDE024E3F582E43403F583EFF090B8
:1037610003BDE004F0C3940B748094804002E4F044
:0C3771009003BEE0700504F012399322B2
:10377D009004B1EBF0A3EAF0A3E9F09004B1E0FB03
:10378D00A3E0FAA3E0F9120563FF600F1237FE9074
:0C379D0004B2E475F00112067A80E0220C
:10396F00120563FF600C123751740129F9E43AFA1A
:03397F0080EE22B5
:0739F4003098FDC298AF9965
:0139FB0022A9
:0539FC00123993AF9B9E
:013A010022A2
:1024B80090044FEBF0A3EAF0A3E9F090044DEEF09E
:0324C800A3EFF08F
:1024CB00E4900452F0A3F0C3EE64809480501EE4B9
:1024DB00900456F0A3F090044DE0FEA3E0FFC3E49C
:1024EB009FFFE49E90044DF0A3EFF08008900456FC
:1024FB00E4F0A304F090044DE0FEA3E0FF7C007D2C
:10250B000A120644EF4E604B90044DE0FAA3E0FB39
:10251B007C007D0AFFAE02120644ED2430FF9004CE
:10252B0052E0FCA3E02458F58274043CF583EFF0F1
:10253B007C007D0AAF03AE0212064490044DEEF010
:10254B00A3EFF0900453E004F070AA900452E0045F
:10255B00F080A290044DA3E02430FF900452E0FCE5
:10256B00A3E02458F58274043CF583EFF0900456F5
:10257B00E07002A3E0600302261190044FE0FBA37E
:10258B00E0FAA3E0F9742D1205A9900452E0FFA321
:10259B00E0A3CFF0A3EFF0900454E0FEA3E0FFD351
:1025AB0094FFEE6480947F404A74582FF582740434
:1025BB003EF583E0FF900454E0FCA3E0FDC39004E0
:1025CB0053E09DFD900452E09CCD2401CD3400FCE2
:1025DB0090044FE0FBA3E0FAA3E0F98D828C83EF2C
:1025EB001205BB900455E024FFF0900454E034FF37
:1025FB00F080A490044FE0FBA3E0FAA3E0F9900471
:10260B0053E024028074900452E0FFA3E0A3CFF0C8
:10261B00A3EFF0900454E0FEA3E0FFD394FFEE642D
:10262B0080947F404474582FF58274043EF583E008
:10263B00FF900454E0FCA3E0FDC3900453E09DFD28
:10264B00900452E09CFC90044FE0FBA3E0FAA3E063
:10265B00F98D828C83EF1205BB900455E024FFF0BB
:10266B00900454E034FFF080AA90044FE0FBA3E009
:10267B00FAA3E0F9900453E02401FF900452E034F4
:09268B00008F82F583E41205BB07
:012694002223
:101BFA009004741208A6900478EBF0A3EAF0A3E923
:011C0A00F0E9
:101C0B00E4FFFEFDFC900474E0F8A3E0F9A3E0FA16
:101C1B00A3E0FB120324900478E0FBA3E0FAA3E01B
:101C2B00F94007742B1205A9801C742D1205A9907D
:101C3B000474E0FCA3E0FDA3E0FEA3E0FF12039D10
:101C4B009004741208A6900474E0FCA3E0FDA3E0DA
:101C5B00FEA3E0FF1203EC90047DEEF0A3EFF0E4A3
:101C6B00A3F0A3F090047DE0FEA3E0FF4E601F7C89
:101C7B00007D0A12064490047DEEF0A3EFF0900471
:101C8B0080E004F070DE90047FE004F080D69004D6
:101C9B0074E0FCA3E0FDA3E0FEA3E0FF1203EC90D5
:101CAB00047DEEF0A3EFF0A3E0FFA3E0A3CFF0A33E
:101CBB00EFF0D3900482E09400900481E064809470
:101CCB0080405490047DE0FEA3E0FF7C007D0A126F
:101CDB000644ED2430FF900478E0FBA3E0FAA3E088
:101CEB00F9900481E0FCA3E0F5828C83EF1205BB35
:101CFB0090047DE0FEA3E0FF7C007D0A1206449079
:101D0B00047DEEF0A3EFF0900482E024FFF090044A
:101D1B0081E034FFF0809B900478E0FBA3E0FAA312
:101D2B00E0F9900480E02401FF90047FE034008F01
:101D3B0082F583742E1205BB900474E0FCA3E0FDC6
:101D4B00A3E0FEA3E0FFC004C005C006C0079004DB
:101D5B0074A3A3A3E01203ECAD07AC06EC1203B320
:101D6B00A804A905AA06AB07D007D006D005D00456
:101D7B001200899004741208A6900480E02402F0EB
:101D8B0090047FE03400F090047CE024FFFF90048B
:101D9B007BE034FFFEC3900480E09FEE6480F890FC
:101DAB00047FE06480984003021E55900474E0FCAD
:101DBB00A3E0FDA3E0FEA3E0FFE4FBFA792078416A
:101DCB0012017E9004741208A6900474E0FCA3E048
:101DDB00FDA3E0FEA3E0FF1203ECEF2430FF900421
:101DEB0078E0FBA3E0FAA3E0F990047FE0FCA3E02A
:101DFB00F5828C83EF1205BB900474E0FCA3E0FD2D
:101E0B00A3E0FEA3E0FFC004C005C006C00790041A
:101E1B0074A3A3A3E01203ECAD07AC06EC1203B35F
:101E2B00A804A905AA06AB07D007D006D005D00495
:101E3B001200899004741208A6900480E004F070DC
:101E4B000690047FE004F0021D92900478E0FBA35F
:101E5B00E0FAA3E0F990047CE024FFFF90047BE020
:0A1E6B0034FF8F82F583E40205BB0B
:051602004204B70000E6
:0300030002000AEE
:01000A0032C3
:0300130002000EDA
:01000E0032BF
:0300530002000F99
:01000F0032BE
:03005B0002001090
:0100100032BD
:0300830002001167
:0100110032BC
:03003B0002372267
:10372200C0E0C083C08230D802C2D830D910C2D91A
:103732009004B8E004F070069004B7E004F030DAC8
:0F37420002C2DA30DB02C2DBD082D083D0E032A9
:1029DD00EFD394107480948040037F0122D2AFEF27
:1029ED00703090000212057C64017004D2A8800240
:1029FD00C2A890000112057C64017004D2B8800257
:102A0D00C2B812056364017004D2888002C2887F47
:102A1D000022EF6402703090000212057C64017098
:102A2D0004D2AA8002C2AA90000112057C64017032
:102A3D0004D2BA8002C2BA12056364017004D28A4C
:102A4D008002C28A7F0022EF640A70159000021284
:102A5D00057C64017005438F108003538FEF7F0059
:102A6D0022EF640B701590000212057C6401700555
:102A7D00438F208003538FDF7F0022EF641070158A
:102A8D0090000212057C64017005438F4080035352
:102A9D008FBF7F0022EF6407701FF5D875D90DF534
:102AAD00E9F5F91205636401700575DA1180037596
:102ABD00DA21E4F5EAF5FA806AEF6408701FF5D8BB
:102ACD0075D90DF5E9F5F91205636401700575DB2E
:102ADD0011800375DB21E4F5EBF5FB8046EF64090E
:102AED00701FF5D875D90DF5E9F5F9120563640177
:102AFD00700575DC11800375DC21E4F5ECF5FC80C7
:102B0D0022EF640C7021F5D875D90DF5E9F5F912A0
:102B1D0005636401700575DD11800375DA21E4F537
:0A2B2D00EDF5FDD2DEFF227F02224B
:0A1607004204AD00004204AF0000F1
:03000B000231447B
:10314400C0E0C0F0C083C082C0D075D000C000C051
:1031540001C002C003C004C005C006C0079004AE8D
:10316400E004F070069004ADE004F09004ADE0706B
:1031740004A3E0640A705B9004B7E0FCA3E0FDECF8
:103184001203B39003A91208A69003AD1208B24328
:103194002000009003B17401F0A37403F0A3742819
:1031A400F07F011209BB900348E0FCA3E0FDA3E01B
:1031B400FEA3E0FF9004631208A67B017A047962FF
:1031C400E4FF122DC99004ADE4F0A3F09004B7F02D
:1031D400A3F0D007D006D005D004D003D002D0018C
:0D31E400D000D0D0D082D083D0F0D0E03227
:03001B0002308B25
:10308B00C0E0C0F0C083C082C0D075D000C000C00B
:10309B0001C002C003C004C005C006C0079004B045
:1030AB00E004F070069004AFE004F09004AFE07021
:1030BB0004A3E0640A70671220B1900435E0FCA30E
:1030CB00E0FDA3E0FEA3E0FF12039D9003A912080D
:1030DB00A69003AD1208B2BFCCCCCD9003B1740156
:1030EB00F0A37403F0A3744CF07F021209BBE4FF4E
:1030FB00FE7D9C7C4290036CE0F8A3E0F9A3E0FA20
:10310B00A3E0FB12008D90046C1208A67B017A04DD
:10311B00796B7F011218FD9004AFE4F0A3F0D00798
:10312B00D006D005D004D003D002D001D000D0D02F
:09313B00D082D083D0F0D0E03244
:0300630002001286
:0100120032BB
:10269500AD07EDD394027480948040037F0122D26C
:1026A500AFED600302273DC28C90000212057C64E9
:1026B500017004D2A98002C2A990000112057C64B0
:1026C500017004D2B98002C2B9120563FED3940326
:1026D5007480948040037F0222E58954FC4EF5897D
:1026E50090000312057CFF7E0064017003538E7F0A
:1026F500EF4E7003438E80EF64024E7005438904EC
:1027050080035389FB90000412057C640170054326
:102715008F018003538FFE900005120690E5F0F5BA
:102725008C900005120690F58A90000712057C64CE
:10273500017002D28C7F0022ED640160030227D66E
:10274500C28E90000212057C64017004D2AB800237
:10275500C2AB90000112057C64017004D2BB8002FB
:10276500C2BB120563FEC394037480948040037F4B
:102775000222E58954CF4EF58990000312057CFFAE
:102785007E0064017003538EBFEF4E7003438E408D
:10279500EF64024E700543894080035389BF900062
:1027A5000412057C64017005438F028003538FFD7D
:1027B500900005120690E5F0F58D90000512069043
:1027C500F58B90000712057C64017002D28E7F00A4
:1027D50022ED6402600302285E538EEF9000021220
:1027E500057C6401700543AF04800353AFFB900083
:1027F5000312057CFD7C00D3940274809480400311
:102805007F0222ED64014C7003538EFB900003128E
:10281500057C7003438E0490000312057C640270EE
:1028250005438E088003538EF790000412057C64DF
:10283500017005438F048003538FFB90000512063A
:1028450090FDACF0ECF5D68DD790000712057C64B1
:0C285500017003438E107F00227F0222DE
:10387000120563900377F090000112057C900378A5
:10388000F090000212057C900379F07B017A0379B5
:04389000770229DDB5
:10394800E4900374F0A304F0A3F0FB7A0379747F86
:0439580008023870B9
:10161100602403283E3851EC3F19999A3EB3333385
:101621000000000000000000000000004475000000
:1016310000000000000000006024034C3EFAE14875
:101641003E19999A3D178D500000000000000000DE
:101651000000000042500000C250000000000000E5
:1009BB009003A8EFF06003020B869003B1E0FBA35A
:1009CB00E0FAA3E0F990000C1207E890001012086F
:1009DB00329003A9E0F8A3E0F9A3E0FAA3E0FBA3AC
:1009EB00E0FCA3E0FDA3E0FEA3E0FF12008990036F
:1009FB00B1E0FBA3E0FAA3E0F990000C120832E996
:100A0B002414F9E43AFAC003C002C0011207C890DB
:100A1B0003B1E0FBA3E0FAA3E0F990000C12087617
:100A2B0012008DD001D002D0031208189003B1E050
:100A3B00FBA3E0FAA3E0F99000141207E8E4FBFA39
:100A4B0079A0784012032450159003B1E0FBA3E08A
:100A5B00FAA3E0F99000141208E340A00000900301
:100A6B00B1E0FBA3E0FAA3E0F99000141207E8E46D
:100A7B00FBFA79A078C0120324601740159003B1DC
:100A8B00E0FBA3E0FAA3E0F99000141208E3C0A086
:100A9B0000009003B1E0FBA3E0FAA3E0F99000148F
:100AAB001207E890000412087612017EC004C005FC
:100ABB00C006C0079003B1E0FBA3E0FAA3E0F990F6
:100ACB00000C1207E812085612017ED003D002D098
:100ADB0001D00012008DC004C005C006C0079003F2
:100AEB00B1E0FBA3E0FAA3E0F9900010120876C086
:100AFB0000C001C002C0039003B1E0FBA3E0FAA366
:100B0B00E0F990000C1207E8D003D002D001D0001E
:100B1B001200899003B1E0FBA3E0FAA3E0F9900087
:100B2B000812087612017ED003D002D001D0001239
:100B3B00008D9003B1E0FBA3E0FAA3E0F990002055
:100B4B001208329000181207E89000201208761253
:100B5B00032460054003020E589003B1E0FBA3E0B1
:100B6B00FAA3E0F990001C1207E890002012087617
:100B7B001203244003020E9B020E849003A8E06430
:100B8B00016003020CC89003B1E0FBA3E0FAA3E001
:100B9B00F990000C1207E89000101208329003A98C
:100BAB00E0F8A3E0F9A3E0FAA3E0FBA3E0FCA3E0E9
:100BBB00FDA3E0FEA3E0FF1200899003B1E0FBA3CD
:100BCB00E0FAA3E0F990000C120832E92420F9E4D2
:100BDB003AFAC003C002C0011207C8C004C005C066
:100BEB0006C0079003B1E0FBA3E0FAA3E0F9900085
:100BFB0010120876C000C001C002C0039003B1E020
:100C0B00FBA3E0FAA3E0F990000C1207E8D003D0A5
:100C1B0002D001D0001200899003B1E0FBA3E0FAEF
:100C2B00A3E0F912085612017EC004C005C006C02D
:100C3B00079003B1E0FBA3E0FAA3E0F990000C12DC
:100C4B0007E890000412087612017EA804A905AAF1
:100C5B0006AB07D007D006D005D00412008DA80430
:100C6B00A905AA06AB07D007D006D005D004120001
:100C7B008DD001D002D0031208189003B1E0FBA372
:100C8B00E0FAA3E0F99000181207E8900020120890
:100C9B007612032460054003020E589003B1E0FB6B
:100CAB00A3E0FAA3E0F990001C1207E890002012D1
:100CBB0008761203244003020E9B020E849003A8B5
:100CCB00E064026003020E9B9003B1E0FBA3E0FA29
:100CDB00A3E0F990000C1207E89000101208329074
:100CEB0003A9E0FCA3E0FDA3E0FEA3E0FFA3E0F873
:100CFB00A3E0F9A3E0FAA3E0FB12008D9003B1E0AF
:100D0B00FBA3E0FAA3E0F990000C120832E92414DB
:100D1B00F9E43AFAC003C002C0011207C89003A954
:100D2B00E0F8A3E0F9A3E0FAA3E0FB12008DD001F9
:100D3B00D002D0031208189003B1E0FBA3E0FAA392
:100D4B00E0F99000141207E8E4FBFA79A07840125E
:100D5B00032450159003B1E0FBA3E0FAA3E0F99054
:100D6B0000141208E340A000009003B1E0FBA3E0E5
:100D7B00FAA3E0F99000141207E8E4FBFA79A078E3
:100D8B00C0120324601740159003B1E0FBA3E0FAF7
:100D9B00A3E0F99000141208E3C0A000009003B187
:100DAB00E0FBA3E0FAA3E0F99000141207E890002F
:100DBB000412087612017EC004C005C006C007905D
:100DCB0003B1E0FBA3E0FAA3E0F990000C1207E8F3
:100DDB0012085612017ED003D002D001D0001200AF
:100DEB008DC004C005C006C0079003B1E0FBA3E0B3
:100DFB00FAA3E0F9900008120876C000C001C00207
:100E0B00C003900441E0FCA3E0FDA3E0FEA3E0FFE0
:100E1B0012039DD003D002D001D00012017ED0036B
:100E2B00D002D001D00012008D9003B1E0FBA3E003
:100E3B00FAA3E0F99000201208329000181207E88C
:100E4B00900020120876120324601240109003B118
:100E5B00E0FBA3E0FAA3E0F9900018802A9003B11D
:100E6B00E0FBA3E0FAA3E0F990001C1207E8900066
:100E7B002012087612032450179003B1E0FBA3E075
:100E8B00FAA3E0F990001C1207E890002012083238
:010E9B002234
:10382500E4900374F0A304F0A3F0E4A3F0A304F080
:10383500A374A2F0A37440F0A37401F0FB7A03799A
:0638450074E4FF02269569
:1016610049046200000000004643500049046B0039
:08167100429C00004248000009
:0E18FD009003A8EFF0A3EBF0A3EAF0A3E9F04C
:10190B00A31208B2000000009003B01208B200004E
:10191B0000009003A9E0FBA3E0FAA3E0F990000517
:10192B001208767F007E1B7DB77C491202879003DD
:10193B00AC1208A69003A9E0FBA3E0FAA3E0F99090
:10194B000001120876E4FFFE7D7A7C44120089E4E4
:10195B00FBFA797A78441202879003B01208A675C5
:10196B00BA8090FFF2740FF09003ACE0FCA3E0FDA3
:10197B00A3E0FEA3E0FF1203EC90FFF0EEF0A3EF69
:10198B00F09003A8E0B408004003021BF390199FEA
:10199B00F82828730219B70219FF021A47021A8F87
:1019AB00021AD7021B1F021B67021BAE90FF00E43B
:1019BB00F0A3F09003B0E0FCA3E0FDA3E0FEA3E0F6
:1019CB00FF9003ACE0F8A3E0F9A3E0FAA3E0FB126D
:1019DB00017E1203EC90FF02EEF0A3EFF09003A94F
:1019EB00E0FBA3E0FAA3E0F9120563448090FF0447
:1019FB00F0021BF390FF10E4F0A3F09003B0E0FCB7
:101A0B00A3E0FDA3E0FEA3E0FF9003ACE0F8A3E0AE
:101A1B00F9A3E0FAA3E0FB12017E1203EC90FF1294
:101A2B00EEF0A3EFF09003A9E0FBA3E0FAA3E0F93B
:101A3B00120563448090FF14F0021BF390FF20E427
:101A4B00F0A3F09003B0E0FCA3E0FDA3E0FEA3E065
:101A5B00FF9003ACE0F8A3E0F9A3E0FAA3E0FB12DC
:101A6B00017E1203EC90FF22EEF0A3EFF09003A99E
:101A7B00E0FBA3E0FAA3E0F9120563448090FF2496
:101A8B00F0021BF390FF30E4F0A3F09003B0E0FC06
:101A9B00A3E0FDA3E0FEA3E0FF9003ACE0F8A3E01E
:101AAB00F9A3E0FAA3E0FB12017E1203EC90FF32E4
:101ABB00EEF0A3EFF09003A9E0FBA3E0FAA3E0F9AB
:101ACB00120563448090FF34F0021BF390FF40E457
:101ADB00F0A3F09003B0E0FCA3E0FDA3E0FEA3E0D5
:101AEB00FF9003ACE0F8A3E0F9A3E0FAA3E0FB124C
:101AFB00017E1203EC90FF42EEF0A3EFF09003A9EE
:101B0B00E0FBA3E0FAA3E0F9120563448090FF44E5
:101B1B00F0021BF390FF50E4F0A3F09003B0E0FC55
:101B2B00A3E0FDA3E0FEA3E0FF9003ACE0F8A3E08D
:101B3B00F9A3E0FAA3E0FB12017E1203EC90FF5233
:101B4B00EEF0A3EFF09003A9E0FBA3E0FAA3E0F91A
:101B5B00120563448090FF54F0021BF390FF60E486
:101B6B00F0A3F09003B0E0FCA3E0FDA3E0FEA3E044
:101B7B00FF9003ACE0F8A3E0F9A3E0FAA3E0FB12BB
:101B8B00017E1203EC90FF62EEF0A3EFF09003A93D
:101B9B00E0FBA3E0FAA3E0F9120563448090FF6435
:101BAB00F0804590FF70E4F0A3F09003B0E0FCA34D
:101BBB00E0FDA3E0FEA3E0FF9003ACE0F8A3E0F9A7
:101BCB00A3E0FAA3E0FB12017E1203EC90FF72EE8E
:101BDB00F0A3EFF09003A9E0FBA3E0FAA3E0F91266
:0E1BEB000563448090FF74F0E4F5BA75FE8047
:011BF90022C9
:0E2DC90090039CEFF0A3EBF0A3EAF0A3E9F077
:102DD700E4A3F0A3F0A3F0A3F0A31208B20000004D
:102DE7000090039DE0FBA3E0FAA3E0F99000051231
:102DF70007E8E4FBFA7980784312017EA804A90565
:102E0700AA06AB077F007E1B7DB77C4B1202871299
:102E170003ECC374FF9F9003A1F0E49E9003A0F01E
:102E270090039DE0FBA3E0FAA3E0F99000011208EC
:102E370076E4FFFE7D7A7C44120089E4FBFA797A16
:102E470078441202879003A41208A6E4FFFE7D7F50
:102E57007C439003A4E0F8A3E0F9A3E0FAA3E0FB26
:102E670012017E1203EC9003A2EEF0A3EFF0E4F55B
:102E7700D875D90CF5E9F5F990039DE0FBA3E0FAC5
:102E8700A3E0F912056324F8600D24F8600E2410FE
:102E9700700DE4F5A2800875A210800375A220903A
:102EA700039CE014601C14602B14603A24037046E2
:102EB70075DA42E4F5F29003A2A3E0FFF5EA8FFA90
:102EC700803475DB42E4F5F39003A2A3E0FFF5EB52
:102ED7008FFB802275DC42E4F5F49003A2A3E0FFA8
:102EE700F5EC8FFC801075DD42E4F5F59003A2A3A5
:082EF700E0FFF5ED8FFDD2DED6
:012EFF0022B0
:1016790058043500000000000000000000000000D0
:0B168900000000000000000000000056
:1020B100E49003A8F0FFFEA3F075BA901239D07F27
:1020C100A01239827F3D1239821239D07FA1123993
:1020D100821239A49003A8EFF01239C21239A490E8
:1020E10003A9EFF01239B31239E29003A9E0FE908F
:1020F10003A8E0FDEDFFAC06EC1203B3E4FBFAF933
:102101007847120287E4FBFA7934784312017E9012
:1021110004351208A61239D07FA01239827F3E12EF
:1021210039821239D07FA11239821239A49003A8C1
:10213100EFF01239C21239A49003A9EFF01239B3AA
:102141001239E29003A9E0FE9003A8E0FDEDFFAC97
:1021510006EC1203B3E4FBFAF97847120287E4FBB9
:10216100FA7934784312017E9004391208A61239A3
:10217100D07FA01239827F3F1239821239D07FA1DC
:102181001239821239A49003A8EFF01239C2123920
:10219100A49003A9EFF01239B31239E29003A9E038
:1021A100FE9003A8E0FDEDFFAC06EC1203B3E4FBE7
:1021B100FAF97847120287E4FBFA7934784312017D
:1021C1007E90043D1208A61239D07FA01239827F79
:1021D100371239821239D07FA11239821239A49073
:1021E10003A8EFF01239C21239A49003A9EFF0123B
:1021F10039B31239E29003A9E0FE9003A8E0FDEDA6
:10220100FFAC06EC1203B3E4FBFAF978471202873C
:10221100E4FBFA79FA784412017E9004411208A68F
:102221001239D07FA01239827F381239821239D007
:102231007FA11239821239A49003A8EFF01239C29A
:102241001239A49003A9EFF01239B31239E29003C5
:10225100A9E0FE9003A8E0FDEDFFAC06EC1203B38C
:10226100E4FBFAF97847120287E4FBFA79FA784439
:1022710012017E9004451208A61239D07FA01239AE
:10228100827F391239821239D07FA11239821239F3
:10229100A49003A8EFF01239C21239A49003A9EF58
:1022A100F01239B31239E29003A9E0FE9003A8E0DD
:1022B100FDEDFFAC06EC1203B3E4FBFAF97847122B
:1022C1000287E4FBFA79FA784412017E90044912FC
:0522D10008A6E4F5BAC7
:0122D60022E5
:1037A900E4900374F0A304F0A3F0E4A3F0A304F0FD
:1037B900A374A2F0A37440F0A37401F0E4FF1236DD
:0C37C900EA7B017A0379747F01022695E7
:03002B00020006CA
:0400060053BCDF32D6
:10359F00D2AFE4F592120563429190000112057CBF
:1035AF00FFE5BC549F4FF5BC90000212057C6401EF
:1035BF00700543BC80800353BC7F90000312057CD1
:1035CF006401700543DE20800353DEDF9000051297
:1035DF00057C64017004D2AD8002C2AD900004126C
:0C35EF00057C64017003D2BD22C2BD2225
:0D002E00EF6401700443BC802253BC7F22AC
:10331F00EFD39407748094804002807BE4F5BDF571
:10332F00BEE5BC54E044404FF5BC0000E4FDEDC3E6
:10333F0094FA74809480505FE5BC20E55753BCDF4E
:10334F00E5DE30E51FE5BD540FFF9004B9E4F0A3AF
:10335F00EFF0E0FEACBEECFBEBFF9004B9EEF0A398
:10336F00EFF08027AFBDEF9004B9F0A3E4F0AFBE4C
:10337F009004B9E0F0A3E04FF09004B9E0C4F85422
:10338F00F0C868F0A3E0C4540F48F09004B9E0FE11
:0B339F00A3E0FF220D80977E047F005A
:0133AA002200
:10169400622801000000000000000000002F00008C
:1016A40000000700070000147F147F1400242A7F21
:1016B4002A120062640813230036495522500000A0
:1016C4000503000000001C224100000041221C0010
:1016D4000014083E08140008083E0808000000A092
:1016E400600000080808080800006060000000208E
:1016F40010080402003E5149453E0000427F40006C
:10170400004261514946002141454B3100181412F1
:101714007F10002745454539003C4A4949300001BE
:101724007109050300364949493600064949291E0D
:10173400000036360000000056360000000814226F
:10174400410000141414141400004122140800026F
:101754000151090600324959513E007C1211127C94
:10176400007F49494936003E41414122007F4141C1
:10177400221C007F49494941007F09090901003EB3
:101784004149497A007F0808087F0000417F4100F1
:10179400002040413F01007F08142241007F404067
:1017A4004040007F020C027F007F0408107F003E4F
:1017B4004141413E007F09090906003E4151215E35
:1017C400007F091929460046494949310001017F32
:1017D4000101003F4040403F001F2040201F003FC8
:1017E4004038403F0063140814630007087008077A
:1017F40000615149454300007F41410000552A558D
:101804002A55000041417F00000402010204004007
:101814004040404000000102040000205454547829
:10182400007F484444380038444444200038444449
:10183400487F00385454541800087E0901020018E7
:10184400A4A4A47C007F080404780000447D400024
:10185400004080847D00007F102844000000417F08
:101864004000007C04180478007C080404780038E4
:101874004444443800FC242424180018242418FC6C
:10188400007C0804040800485454542000043F44D5
:101894004020003C4040207C001C2040201C003C98
:1018A4004030403C004428102844001CA0A0A07CE8
:0C18B400004464544C4414141414141424
:0639EB00D2A37F027E0062
:0339F10002390692
:10391C001239EBD2A61239EDC2A61239EDC2A37F31
:06392C00027E000239F1E9
:10393200C2A31239EDC2A61239ED1239EBD2A67F1B
:06394200027E000239F1D3
:05353C0090039AEFF07E
:10354100E4A3F090039BE0C394087480948050330B
:1035510090039AE030E704D2A68002C2A67F017EE2
:10356100001239F1D2A37F017E001239F1C2A37F8B
:10357100017E001239F190039AE025E0F0A3E00406
:10358100F080C0D2A67F017E001239F1D2A37F0163
:0E3591007E001239F1C2A37F017E000239F1E3
:10006600900398EFF012391C7F7812353C7F4012CE
:0D007600353C900398E0FF12353C02393212
:04389400EF24B0FF6E
:10389800900399EFF012391C7F7812353CE4FF123F
:0D38A800353C900399E0FF12353C023932A7
:10384B00900398EFF0ED24B0FF123898900398E0B6
:10385B0054F0C4540F4410FF123898900398E0545E
:05386B000FFF02389878
:05365400900376EFF089
:10365900E4A3F0900377E0FFC3940874809480504A
:10366900371238947F011238987F10123898E490F5
:103679000378F0900378E0C39484748094805010A8
:10368900900376E0FF120066900378E004F080E38F
:08369900900377E004F080BB10
:0136A1002206
:1036A200E4900374F0900374E0FFC3940874809470
:1036B2008050341238947F011238987F1012389853
:1036C200E4900375F0900375E0C394847480948051
:1036D200500DE4FF120066900375E004F080E6905E
:0736E2000374E004F080BE58
:0136E90022BE
:102F0000E4900374F0A37408F07B017A0379747F72
:102F1000021222D77B017A0379747F031222D77BB6
:102F2000017A0379747F041222D7D2A3C2A77FF457
:102F30007E011238D1D2A77FAE123898E4FF123842
:102F4000987F101238987F401238987F81123898F5
:102F50007FCF1238987FA11238987FC81238987F97
:102F6000A61238987FA81238987F3F1238987FD3DE
:102F7000123898E4FF1238987FD51238987F801263
:102F800038987FD91238987FF11238987FDA123842
:102F9000987F121238987FDB1238987F4012389849
:102FA0007F201238987F021238987F8D1238987FD0
:102FB000141238987FA41238987FA61238987FAFE1
:0E2FC000123898E4FF123654E4FDFF02384B3D
:0A35FB009004B5EDF09004B4EFF079
:10360500A3E0FE131313541FFD12384B9004B5E0CD
:10361500FF5407FEF87401088002C333D8FC9004F8
:10362500B6F0EF131313541F24B0FF12389890040B
:10363500B4E054F0C4540F4410FF1238989004B409
:0F364500E0540FFF1238989004B6E0FF020066C1
:1031F100900390EFF0A3EDF0A3EBF0A3EAF0A3E9C5
:01320100F0DC
:10320200E4A3F0A3F0A3F0900392E0FBA3E0FAA3FF
:10321200E0F9900397E0F58275830012057C6070F7
:1032220024E0900395F0900390E0D3947E74809410
:10323200804006E4F0A3E004F0900390E0FFA3E0F6
:10324200FD12384BE4900396F0900396E0FFC3948E
:1032520006748094805029900395E075F006A424AA
:1032620000F582E5F03401F583E5822FF582E4353D
:1032720083F583E0FF120066900396E004F080C9B4
:10328200900390E02406F0900397E004F0023209E4
:013292002219
:082FCE0090049AEFF0A3EDF06E
:102FD600E49004A1F0FC7D0AAF03AE021205EFED0A
:102FE60024309004A0F07C007D0AAF03AE021205E7
:102FF600EF7C007D0A1205EFED243090049FF07CF3
:10300600007D64AF03AE021205EF7C007D0A120557
:10301600EFED243090049EF07C037DE8AF03AE0212
:103026001205EF7C007D0A1205EFED243090049D19
:10303600F0AE02AF037C277D101205EF7C007D0AFF
:103046001205EFED243090049CF0E4FFEFC39404E6
:1030560074809480501E749C2FF582E43404F583AA
:10306600E0B43010749C2FF582E43404F5837420A8
:10307600F00F80D890049AE0FFA3E0FD7B017A046C
:05308600799C0231F10C
:0F286100900374EFF0A3EDF0A3EAF0FEA3EBF009
:10287000E4FBFAC3EE64809480501EE490037AF087
:10288000A3F0900376E0FEA3E0FFC3E49FFFE49E85
:10289000900376F0A3EFF0800890037AE4F0A304AD
:1028A000F0900376E0FEA3E0FF7C007D0A12064470
:1028B000EF4E603D900376E0FEA3E0FF7C007D0AD2
:1028C000120644ED2430FF747C2BF58274033AF534
:1028D00083EFF0900376E0FEA3E0FF7C007D0A1218
:1028E0000644900376EEF0A3EFF00BBB00010A80E4
:1028F000B0900376A3E02430FF747C2BF582740340
:102900003AF583EFF090037AE07002A3E0706090F4
:102910000386742DF0900378EAF0A3EBF09003782F
:10292000E0FEA3E0FFD394FFEE6480947F40377411
:102930007C2FF58274033EF583E0FF900378E0FC82
:10294000A3E0FDC3EB9DFDEA9CFC74872DF582742A
:10295000033CF583EFF0900379E024FFF0900378D7
:10296000E034FFF080B774882BF5827403805890B0
:102970000378EAF0A3EBF0900378E0FEA3E0FFD346
:1029800094FFEE6480947F4037747C2FF58274034B
:102990003EF583E0FF900378E0FCA3E0FDC3EB9DF0
:1029A000FDEA9CFC74862DF58274033CF583EFF000
:1029B000900379E024FFF0900378E034FFF080B7D3
:1029C00074872BF58274033AF583E4F0900374E086
:0D29D000FFA3E0FD7B017A0379860231F15F
:081E7500900374EFF0A3EDF0FF
:101E7D0090037EE4F0A3740AF0E4FFFEFDFC9003F2
:101E8D0076E0F8A3E0F9A3E0FAA3E0FB12032490B7
:101E9D0003804005742BF0801A742DF0900376E0CA
:101EAD00FCA3E0FDA3E0FEA3E0FF12039D900376EB
:101EBD001208A6900376E0FCA3E0FDA3E0FEA3E0EC
:101ECD00FF1203EC90037AEEF0A3EFF0E4A3F0A37E
:101EDD00F090037AE0FEA3E0FF4E601F7C007D0AC8
:101EED0012064490037AEEF0A3EFF090037DE00428
:101EFD00F070DE90037CE004F080D6900376E0FC79
:101F0D00A3E0FDA3E0FEA3E0FF1203EC90037AEE45
:101F1D00F0A3EFF0A3E0FEA3E0FBAA06D3EB940041
:101F2D00EA64809480403D90037AE0FEA3E0FF7C5C
:101F3D00007D0A120644ED2430FF74802BF5827467
:101F4D00033AF583EFF090037AE0FEA3E0FF7C0007
:101F5D007D0A12064490037AEEF0A3EFF0EB1B70AE
:101F6D00BB1A80B890037CE0FEA3E02481F5827457
:101F7D00033EF583742EF0900376E0FCA3E0FDA301
:101F8D00E0FEA3E0FFC004C005C006C007900376C5
:101F9D00A3A3A3E01203ECAD07AC06EC1203B3A8A8
:101FAD0004A905AA06AB07D007D006D005D00412A8
:101FBD0000899003761208A690037DE02402F0902C
:101FCD00037CE03400F090037FE024FFFF90037E5C
:101FDD00E034FFFEC390037DE09FEE6480F8900334
:101FED007CE0648098400302208E900376E0FCA391
:101FFD00E0FDA3E0FEA3E0FFE4FBFA7920784112B7
:10200D00017E9003761208A6900376E0FCA3E0FD16
:10201D00A3E0FEA3E0FF1203ECEF2430FF90037C5E
:10202D00E0FCA3E02480F58274033CF583EFF0908F
:10203D000376E0FCA3E0FDA3E0FEA3E0FFC004C037
:10204D0005C006C007900376A3A3A3E01203ECAD71
:10205D0007AC06EC1203B3A804A905AA06AB07D07A
:10206D0007D006D005D0041200899003761208A679
:10207D0090037DE004F0700690037CE004F0021FF5
:10208D00D390037EE0FEA3E0247FF58274033EF53A
:10209D0083E4F0900374E0FFA3E0FD7B017A037904
:0420AD00800231F18B
:1037D50000000000000000000000000000000000E4
:1037E50000000000000000000000000000000000D4
:0937F500000000000000000000CB
:1018C0004C040600F000F000F000F000F000F04CD6
:1018D00003FA004B004B004B004B004B004B420304
:1018E000F000004203EE00004203F600004203F263
:0C18F00000004203F800004203F4000076
:1038B5009004A27401F0A37440F0A37401F0A3F086
:0C38C500A3F0A3F0FB7A0479A202359F67
:052C8200900412EFF0C8
:102C8700E4A3F0A3F0A3F0A3F0A3F078187C047DED
:102C9700017BFF7A3779D5FE7F1812053D78307CA6
:102CA700047D017BFF7A3779ED7E007F0512053DB4
:102CB700E4900413F0900413E0C3940C74809480A0
:102CC700502B900412E0FF12331F900413E025E00D
:102CD7002418F582E43404F583EEF0A3EFF07F6463
:102CE7007E00123906900413E004F080C8E4FFEF79
:102CF700C3940B748094804003022D81E4FEC37457
:102D07000B9FFDEEC39D506EEE25E0241AF582E47D
:102D17003404F583E0FCA3E0FDEE25E02418F582FA
:102D2700E43404F583E0FAA3E0FBD39DEA9C404337
:102D3700900416EAF0A3EBF0EE25E0241AF582E4FE
:102D47003404F583E0FCA3E0FDEE25E02418F582CA
:102D5700E43404F583ECF0A3EDF0900416E0FCA353
:102D6700E0FDEE25E0241AF582E43404F583ECF067
:102D7700A3EDF00E80880F022CF69004137401F077
:102D8700900413E0FFC3940B748094805025EF25C3
:102D9700E02418F582E43404F583E0FEA3E0FF9015
:102DA7000415E02FF0900414E03EF0900413E004C3
:102DB700F080CD900414E0FEA3E0FF7C007D0A02C2
:022DC70005EF16
:1012BC0078837C047D017BFF7A3779F27E007F0C8A
:1012CC0012053DE4FF122C82900483EEF0A3EFF0A4
:1012DC007F01122C82900485EEF0A3EFF07F0212B6
:1012EC002C82900487EEF0A3EFF07F03122C8290F7
:1012FC000489EEF0A3EFF07F04122C8290048BEEA5
:10130C00F0A3EFF07F05122C8290048DEEF0A3EF8A
:10131C00F09003FAE0FEA3E0FF900483E0FCA3E06E
:10132C00FDC39FEC9E500A9003FAECF0A3EDF08005
:10133C001E900406E0FEA3E0FFD3ED9FEC9E400F51
:10134C00900483E0FFA3E0900406CFF0A3EFF090AD
:10135C0003FCE0FEA3E0FF900485E0FCA3E0FDC3EA
:10136C009FEC9E500A9003FCECF0A3EDF0801E90D5
:10137C000408E0FEA3E0FFD3ED9FEC9E400F900429
:10138C0085E0FFA3E0900408CFF0A3EFF09003FEFC
:10139C00E0FEA3E0FF900487E0FCA3E0FDC39FEC1C
:1013AC009E500A9003FEECF0A3EDF0801E90040A10
:1013BC00E0FEA3E0FFD3ED9FEC9E400F900487E08E
:1013CC00FFA3E090040ACFF0A3EFF0900400E0FE3E
:1013DC00A3E0FF900489E0FCA3E0FDC39FEC9E50CA
:1013EC000A900400ECF0A3EDF0801E90040CE0FEDB
:1013FC00A3E0FFD3ED9FEC9E400F900489E0FFA388
:10140C00E090040CCFF0A3EFF0900402E0FEA3E018
:10141C00FF90048BE0FCA3E0FDC39FEC9E500A9070
:10142C000402ECF0A3EDF0801E90040EE0FEA3E0AD
:10143C00FFD3ED9FEC9E400F90048BE0FFA3E09058
:10144C00040ECFF0A3EFF0900404E0FEA3E0FF90B5
:10145C00048DE0FCA3E0FDC39FEC9E500A900404B5
:10146C00ECF0A3EDF0801E900410E0FEA3E0FFD39F
:10147C00ED9FEC9E400F90048DE0FFA3E0900410D4
:10148C00CFF0A3EFF09003FAE0FEA3E0FFC39004CB
:10149C0084E09FFF900483E09EFE7C007D64120537
:1014AC00DD9003FAE0FCA3E0FDC3900407E09DFD92
:1014BC00900406E09CFC1205EF9003F0EEF0A3EF15
:1014CC00F0900404E0FEA3E0FFC390048EE09FFFC5
:1014DC0090048DE09EFE7C007D641205DD9004047A
:1014EC00E0FCA3E0FDC3900411E09DFD900410E02E
:1014FC009CFC1205EF9003EEEEF0A3EFF09003FCD2
:10150C00E0FEA3E0FFC3900486E09FFF900485E01B
:10151C009EFE7C007D641205DD9003FCE0FCA3E0E4
:10152C00FDC3900409E09DFD900408E09CFC1205AD
:10153C00EF9003F6EEF0A3EFF0900402E0FEA3E0D0
:10154C00FFC390048CE09FFF90048BE09EFE7C0018
:10155C007D641205DD900402E0FCA3E0FDC3900461
:10156C000FE09DFD90040EE09CFC1205EF9003F241
:10157C00EEF0A3EFF09003FEE0FEA3E0FFC39004B7
:10158C0088E09FFF900487E09EFE7C007D6412053E
:10159C00DD9003FEE0FCA3E0FDC390040BE09DFD99
:1015AC0090040AE09CFC1205EF9003F8EEF0A3EF18
:1015BC00F0900400E0FEA3E0FFC390048AE09FFFDC
:1015CC00900489E09EFE7C007D641205DD90040091
:1015DC00E0FCA3E0FDC390040DE09DFD90040CE045
:0D15EC009CFC1205EF9003F4EEF0A3EFF06D
:0115F90022CF
:10008600020458E86480F8E933E83360110460F04C
:10009600ED33EC337009E8FCE9FDEAFEEBFF2204E0
:1000A60060DED3EB9FEA9EE99DE8C2E78CF0C2F7DB
:1000B60095F0400CE8CCF8E9CDF9EACEFAEBCFFBA7
:1000C60012042385D0F05804700320D5B3E80470D9
:1000D600075002B2D502046292D5EC0460F7E4CC74
:1000E600C0E0C398F8603B94186008400DD0E0FB70
:1000F60002043AE4FBFAC9FC8028E830E406E4C9C5
:10010600FBE4CAFCE830E305E4C9CACBFCE85407C3
:100116006010F8C3E913F9EA13FAEB13FBEC13FCCE
:10012600D8F130F52FC3E49CFCEF9BFFEE9AFEED71
:1001360099FDD0E0FBEF4E4D4C701222DB0302041A
:100146005FEC2CFCEF33FFEE33FEED33FDED30E7D5
:10015600EB02043AEF2BFFEE3AFEED39FDD0E0FB61
:1001660050130BBB0003020462ED13FDEE13FEEF0A
:0801760013FFEC13FC02043A34
:10017E00EC4D6011E8497017ED33EC3304600DE47B
:10018E00FCFFFEFD22E933E8330470F80204581236
:10019E00042358046009E4CC248150062850090237
:1001AE00046228400302045FC0E0EB4A7044B98049
:1001BE0006D0E0FB02044EEF4E701CBD8008EBFF34
:1001CE00EAFEE9FD80EBE98DF0A4FEE5F0020267A0
:1001DE00E9CDF9EAFEEBFFEF89F0A4FCE5F0CE895C
:1001EE00F0A42EFFE435F0CD89F0A42DFEE435F019
:1001FE008067EF4E7005BD80D780C3EF8BF0A4AC47
:10020E00F0EE8BF0A42CFCE435F0F8EF8AF0A42C81
:10021E00E5F038FCE433CB8DF0A42CFCE5F03BF894
:10022E00EE8AF0A42CFCE5F038F8E433CF89F0A484
:10023E002CFCE5F038CF3400CE89F0A42FFFE5F08A
:10024E003EFEE433C98DF0A42EFEE5F039CD8AF0E2
:10025E00A42FFFE5F03EFEE43DFD33D0E0FB50075A
:10026E000BBB000F020462EC2CFCEF33FFEE33FEEF
:06027E00ED33FD02043A1D
:10028400020462EC5D046005E8590470030204583A
:10029400120423580460F6EC4860F2EC7004FDFE8E
:1002A400FF22C860DB2481C85009C398600250064D
:1002B40002045F9850CAF582E9294B4A7005AB8263
:1002C40002044E75F0007C1A7880C3EF9BEE9AED21
:1002D40099400DC3EF9BFFEE9AFEED99FDE842F0C5
:1002E400DC23ACF0D0E0FFD0E0FED0E0FDAB822018
:1002F400E7101BEB60BAEC2CFCEF33FFEE33FEEDA2
:1003040033FD02043AE803F830E705C0F075F00065
:10031400EF2FFFEE33FEED33FD40B830E7C280AA85
:1003240074F8CC6480CCC86480C8F58204604FC380
:10033400EB9FF5F0EA9E42F0E99D42F0E89C45F01F
:10034400603C501DE5825FFFE582D313CB5BCBF4A9
:100354002B5582FB50280ABA002409B900200880D2
:100364001DE5825BFBE582D313CF5FCFF4C3132F6C
:100374005582FF50090EBE00050DBD00010CC3EBF4
:100384009FF5F0EA9E42F0E99D42F0E89C45F0605A
:0903940007CC4820E701B3EC227C
:10039D00ED33EC33600A047003BD8004ECB2E7FC6E
:0103AD00222D
:1003AE0075F020800E75F010800575F0087D007ECA
:1003BE00007F003392D530D503120796EC334010F0
:1003CE00EF33FFEE33FEED33FDEC33FCD5F0ED22D3
:0E03DE00E5F0247EA2D513CC92E7CDCEFF220F
:1003EC00EDD2E7CD33EC3392D524814006E4FFFE09
:1003FC00FDFC22FCE4CFCECDCC24E0501174FF8068
:10040C00EDC3CC13CCCD13CDCE13CECF13CF047004
:07041C00F030D5DE02079667
:10042300E9D2E7C933E833F892D5EDD2E7CD33EC1F
:0704330033FC5002B2D52298
:10043A00EC30E7100FBF000C0EBE00080DBD000423
:10044A000BEB6014A2D5EB13FCED92E7FD2274FFCF
:10045A00FCFDFEFF22E480F8A2D574FF13FC7D8028
:03046A00E480EF3C
:10329F00022B37E493A3F8E493A34003F68001F2E3
:1032AF0008DFF48029E493A3F85407240CC8C33330
:1032BF00C4540F4420C8834004F456800146F6DFFF
:1032CF00E4800B01020408102040809015FAE47E80
:1032DF00019360BCA3FF543F30E509541FFEE493F4
:1032EF00A360010ECF54C025E060A840B8E493A3BB
:1032FF00FAE493A3F8E493A3C8C582C8CAC583CAE6
:10330F00F0A3C8C582C8CAC583CADFE9DEE780BE9D
:0118FC0000EB
:10046D00E709F608DFFA8046E709F208DFFA803E71
:10047D0088828C83E709F0A3DFFA8032E309F6085E
:10048D00DFFA8078E309F208DFFA807088828C83C6
:10049D00E309F0A3DFFA806489828A83E0A3F6087A
:1004AD00DFFA805889828A83E0A3F208DFFA804C54
:1004BD0080D280FA80C680D4806980F2803380102B
:1004CD0080A680EA809A80A880DA80E280CA803394
:1004DD0089828A83ECFAE493A3C8C582C8CCC5830C
:1004ED00CCF0A3C8C582C8CCC583CCDFE9DEE780DC
:1004FD000D89828A83E493A3F608DFF9ECFAA9F05B
:10050D00EDFB2289828A83ECFAE0A3C8C582C8CCB0
:10051D00C583CCF0A3C8C582C8CCC583CCDFEADEC9
:10052D00E880DB89828A83E493A3F208DFF980CC2B
:10053D0088F0EF60010E4E60C388F0ED2402B40424
:10054D000050B9F582EB2402B4040050AF232345CB
:06055D0082239004BD732F
:10056300BB010689828A83E0225002E722BBFE0296
:09057300E32289828A83E49322C9
:10057C00BB010CE58229F582E5833AF583E0225034
:10058C0006E92582F8E622BBFE06E92582F8E2227E
:0D059C00E58229F582E5833AF583E4932298
:1005A900BB010689828A83F0225002F722BBFE0131
:0205B900F3222B
:1005BB00F8BB010DE58229F582E5833AF583E8F076
:1005CB00225006E92582C8F622BBFE05E92582C822
:0205DB00F2220A
:1005DD00EF8DF0A4A8F0CF8CF0A428CE8DF0A42E32
:0205ED00FE22EC
:1005EF00BC000BBE0029EF8DF084FFADF022E4CCF0
:1005FF00F875F008EF2FFFEE33FEEC33FCEE9DECB9
:10060F00984005FCEE9DFE0FD5F0E9E4CEFD22EDFE
:10061F00F8F5F0EE8420D21CFEADF075F008EF2F48
:10062F00FFED33FD4007985006D5F0F222C398FD39
:05063F000FD5F0EA22D6
:10064400C2D5EC30E709B2D5E4C39DFDE49CFCEED1
:1006540030E715B2D5E4C39FFFE49EFE1205EFC355
:10066400E49DFDE49CFC80031205EF30D507C3E450
:060674009FFFE49EFE2240
:10067A00C5F0F8A3E028F0C5F0F8E582158270020B
:06068A001583E038F022A8
:10069000BB0110E58229F582E5833AF583E0F5F0A8
:1006A000A3E0225009E92582F886F008E622BBFE85
:1006B0000AE92582F8E2F5F008E222E5832AF583CB
:0806C000E993F5F0A3E9932290
:1006C80075F008758200EF2FFFEE33FECD33CDCCE9
:1006D80033CCC58233C5829BED9AEC99E58298406C
:1006E8000CF582EE9BFEED9AFDEC99FC0FD5F0D649
:1006F800E4CEFBE4CDFAE4CCF9A88222B800C1B973
:100708000059BA002DEC8BF084CFCECDFCE5F0CBB0
:10071800F97818EF2FFFEE33FEED33FDEC33FCEBE9
:1007280033FB10D703994004EB99FB0FD8E5E4F9A4
:10073800FA227818EF2FFFEE33FEED33FDEC33FC91
:10074800C933C910D7059BE99A4007EC9BFCE99A85
:10075800F90FD8E0E4C9FAE4CCFB2275F010EF2FCA
:10076800FFEE33FEED33FDCC33CCC833C810D707CA
:100778009BEC9AE899400AED9BFDEC9AFCE899F805
:0E0788000FD5F0DAE4CDFBE4CCFAE4C8F92298
:0E079600C3E49FFFE49EFEE49DFDE49CFC2274
:1007A400EB9FF5F0EA9E42F0E99D42F0E89C45F0AB
:0107B4002222
:1007B500E8600FECC313FCED13FDEE13FEEF13FF22
:0307C500D8F12246
:1007C800BB010789828A830209135005E9F80209E7
:1007D80007BBFE05E9F802091F89828A8302092BF3
:1007E800BB010DE58229F582E5833AF583020913F9
:1007F8005007E92582F8020907BBFE07E92582F8B8
:1008080002091FE58229F582E5833AF58302092B5F
:10081800BB010789828A830208A65005E9F8020904
:0A08280071BBFE05E9F802097D220C
:10083200BB010DE58229F582E5833AF5830208A61C
:100842005007E92582F8020971BBFE07E92582F803
:0408520002097D22F8
:10085600BB010789828A830209485005E9F8020923
:100866003BBBFE05E9F802095489828A83020961C5
:10087600BB010DE58229F582E5833AF58302094835
:100886005007E92582F802093BBBFE07E92582F8F5
:10089600020954E58229F582E5833AF58302096166
:0C08A600ECF0A3EDF0A3EEF0A3EFF022C5
:1008B200A8828583F0D083D0821208C91208C91297
:1008C20008C91208C9E473E493A3C583C5F0C583BC
:1008D200C8C582C8F0A3C583C5F0C583C8C582C890
:0108E20022F3
:1008E300BB010DE58229F582E5833AF5830208B25F
:1008F3005007E92582F8020989BBFE07E92582F83A
:040903000209A22221
:0C090700E6FC08E6FD08E6FE08E6FF221C
:0C091300E0FCA3E0FDA3E0FEA3E0FF2257
:0C091F00E2FC08E2FD08E2FE08E2FF2214
:10092B00E493FC740193FD740293FE740393FF2212
:0D093B00E6FB08E6F908E6FA08E6CBF8222C
:0C094800E0F8A3E0F9A3E0FAA3E0FB2232
:0D095400E2FB08E2F908E2FA08E2CBF82223
:10096100E493F8740193F9740293FA740393FB22EC
:0C097100ECF608EDF608EEF608EFF622B2
:0C097D00ECF208EDF208EEF208EFF222B6
:10098900D083D082E493F608740193F60874029335
:09099900F608740393F67404736C
:1009A200D083D082E493F208740193F20874029324
:0909B200F208740393F27404735B
:00000001FF
